:100000000206A40208030000000000020806000027
:10001000000000020809000000000002066800005D
:10002000000000020356000000000002080F00005C
:100030000000000208120000000000020815000085
:1000400000000002081B000000000002081E000063
:100050000000000208210000000000000000000075
:100060000000000000000000000000020356000035
:100070000000000208240000000000000000000052
:10008000000000020827000000000002082A010208
:1000900002000002082AE4F51D2000030201D390AB
:1000A0000010E064FE6003020171900012E064261B
:1000B00060030201D1E57FC394045003020355900D
:1000C0000013E02455602F24EF603724DF606A249A
:1000D000EF700302015F14700302016424ED6003FA
:1000E0000201CEC202303208D201751D080201D1D0
:1000F000751D0A0201D1C232C201D202751D04026D
:1001000001D1900015E0FFEF2408F9900014E0FF02
:10011000E4FCFDFEA8011206058F178E168D158CC6
:1001200014900016E0F51AE4F513A3E0FEA3E07CBA
:10013000002400F51CEC3E80187E007F147B40AD4F
:100140001CAC1B12051140107440251CF51CE43535
:100150001BF51B751D058079C202751D098072751E
:100160001D06806DD23012056AB39232751D07806C
:1001700060900010E064267058E57FC3940450033B
:10018000020355900012E014603A14603C24B16000
:100190001B24FE7039900013E0B4540EA3E0B44F5A
:1001A00009A3E0B45004C201801A8022900013E039
:1001B000B4550FA3E0B4490AA3E0B45405751D0378
:1001C000800F800A751D018008751D028003751D52
:1001D0000BC200E51D12061801FD01021D020248B6
:1001E00003026504027A0502970602BC0702D608DC
:1001F00002ED0903050A03210B0000035590005886
:100200007401F0A304F090008EE49390005AF090F3
:10021000008FE49390005BF0900090801D90005858
:100220007402F0E4A3F090082D9390005AF0900827
:100230002EE49390005BF090082FE49390005CF024
:100240007C007D587B0580189000587465F0A3747D
:1002500078F0A37469F0A37474F07C007D587B047B
:100260007F260203529000587426F0A374BAF07CE3
:10027000007D587B027FFE0203529000587426F0E6
:10028000A374DDF0E51BA3F0A3E51CF07C007D5812
:100290007B047FFE0203529000587426F0A374EE94
:1002A000F0E51AB513047F0180027F0090005AEF39
:1002B000F07C007D587B037FFE020352900058744F
:1002C00026F0A374E1F0A232E433A3F07C007D5861
:1002D0007B037FFE807C9000587426F0E4A3F090AE
:1002E0000010E0FF7C007D587B021204AF900058A4
:1002F0007426F0A374FFF0A37481F07C007D587B1A
:10030000037FFE804D9000587426F0A374FFF0A385
:100310007482F0900010E0FF7C007D587B03120493
:10032000AF9000587426F0A374FFF0A37401F0306E
:1003300083047F0080027F023032047E0180027ECF
:1003400000EE4F90005BF0900010E0FF7C007D58C5
:100350007B041204AF22C0E0C083C082C0D075D03D
:1003600000C006C007209803020419AF99E57FD3A7
:1003700094034008751200750800C204757F0020C0
:100380000076200473AE08050874102EF582E4345C
:1003900000F583EFF0E508D394024047E5086512C5
:1003A0007036900010E0FE64266006EED394FA40AA
:1003B0001F7F00E4FEEEC39512501074102EF582DC
:1003C000E43400F583E02FFF0E80EAEF7002D200E4
:1003D000751200750800803DE508C394484036D288
:1003E000048032E5086402702CEF2403F512EFD389
:1003F00094454021D204801DD2040508E508B512B9
:100400000A751200750800C204800AE508B40205E6
:10041000EF2403F512C2988022E50A6015150AAF91
:1004200009050974002FF582E43400F583E0F5999D
:100430008007D29CC298750800C299D007D006D018
:10044000D0D082D083D0E0321206BE1205C312068D
:100450008612063E50051206D080FBC23012056A95
:10046000B39232303202D2011206D030011BE519AC
:100470004518701520021230830FC201D2031206F4
:10048000DB1206D01206BED232120096E5194518CC
:100490006008E519151970021518C3E50C9405E5F7
:1004A0000B940040F5E4F50BF50C1206D080BCA9C6
:1004B00007E50A6002D322EBD394564002D322AF61
:1004C00001900000EBF02FFFE4FEEEC39B5024ED03
:1004D0002EF582E43CF583E0FA74012EF582E434D3
:1004E00000F583EAF0ED2EF582E43CF583E02FFF82
:1004F0000E80D7EFF404FF74012EF582E43400F58A
:1005000083EFF0EB2402F50AE4F509C29C8999C354
:10051000228E1E8F1FC2AF75C2A575C35AE4F5E4C3
:100520008CE7EDF5E6E4FFEFC39B502EEFC394405C
:100530005028ED94FFEC94074020EC941E501B854E
:100540001E83851F82E0F5E56213051FE51F70021B
:10055000051E0F0DBD00010C80CD75E468AFE4D21F
:10056000AFEF540F6002D322C322E490005DF0FF8E
:100570007E08C3EF94FFEE941D50178F828E83E4A4
:1005800093FD90005DE02DF01206D00FBF00010E2C
:1005900080E090005DE024DEF03030117E007F5D71
:1005A0007B017DFF7C1D12051192318013901DFF90
:1005B000E493FF90005DE06F6003D38001C392314C
:1005C000A23122E4F584F5857580FF75910275925C
:1005D000DD90FFB8740EF0A37406F075B30CA3E4BD
:1005E000F0A3F075C1FFC2AF75A78575C2A575C32D
:1005F0005A758912C28D758CEDD28C43A210C28FB0
:10060000D28ED2AB22E8600FEFC333FFEE33FEEDA4
:1006100033FDEC33FCD8F122D083D082F8E4937020
:1006200012740193700DA3A393F8740193C0E0E8D2
:10063000C0E0227402936860EFA3A3A380DF900060
:1006400000AC83C3EC9401501DE0FF74AAF0E06499
:10065000AA6001227455F0E064556002D322EFF0E5
:100660001206D0A380DBC322C0E0758B65758DEACE
:10067000050CE50C7002050BC28F057FE57F70034A
:10068000757FFFD0E032C200E4F508F509F50AF500
:100690007F759850F5BAF5BD75BE7075BF0475BD10
:1006A00003D2AC2278FFE4F6D8FD9000007F007EF4
:1006B00001E4F0A3DFFCDEFA75817F020448E4F573
:1006C00020900000F07518037519E8F50BF50C2261
:1006D000C2AF75C2A575C35AD2AF2202080000008E
:10080000020E830208320208320208320208320263
:1008100008320208320208320208320208320208A4
:1008200032021262020832020832020B06006A012A
:10083000091432756802900010E064266003020B10
:1008400003E57FC394045003020B05900012E024DB
:10085000FE601E14602124F3700302093424BF706B
:1008600003020A2124506003020A39E4F569020AEE
:100870003C756901020A3C900013E0146075147025
:100880000302091D24026003020A1CE511B4FF0FD4
:1008900030080CAF680568746A2FF876FE800AAFDE
:1008A000680568746A2FF8A6119000B7E0FFAE687B
:1008B0000568746A2EF8A6079000B5E0FEA3E0FF75
:1008C000746A2568F9E4FAFB12122FEF2568F568BF
:1008D000FF0568746A2FF8A625746A2568F9E4FA9A
:1008E000FBAF24AE2312122FEF2568F5687569025D
:1008F000020A3C9000B4E0FD7576017577007578CA
:10090000B89000B7E0F5799000B5E0FAA3E0FB7F7E
:100910000112100BEF7003020A3C020A11E511F4F8
:10092000600C120FF7EF7003020A3C020A1175699E
:1009300008020A3C900013E0146053147003020A8A
:100940001724026003020A1C900014E0FFC394FD08
:10095000400CAE680568746A2EF876FF8066EF700A
:100960000F30080CAF680568746A2FF876FE805463
:10097000900014E0FF6511600C121258E4F5257424
:10098000FFF523F5249000127403F002088BE511A3
:10099000C394FD4010AF680568746A2FF8A61175FE
:1009A0006909020A3CE5116021900014E0FF601A19
:1009B000AE680568746A2EF8A611AE680568746A98
:1009C0002EF8A607756906020A3C900014E0900014
:1009D000B4F0E4A3F0A3F0A3F0900011E024FDFF35
:1009E0009000B7E0FEC39F502074152EF582E434CA
:1009F00000F583E0FF74B82EF582E43400F583EF50
:100A0000F09000B7E004F080D0D202120FF7EF6050
:100A10002B756BFE020AEF756905802075690780EA
:100A20001B900013E0B4550FA3E0B4490AA3E0B44F
:100A3000540575690380058000756904E569120D28
:100A4000490A63000A6E010A90020AB5030AD30438
:100A50000AD8050ADD060AE2070AE7080AEC0900D7
:100A6000000B00756A01E4F56B90008E800A756AD0
:100A700002756B0290082DE493F56CA3E493F56D79
:100A8000A3E493F56E7B007A00796A757605806B36
:100A9000900012E0F56AA3E0F56B7B007A00796ABA
:100AA0008568767F2612111BEF64027053756BFF09
:100AB000756802803A756A65756B78756C69756DD5
:100AC000747B007A00796A7576047F2612111BC246
:100AD00003802D756B018017756B028012756B0397
:100AE000800D756B048008756B058003756B06754A
:100AF0006AFF7B007A00796A8568767F2612111B6F
:100B0000C20022C20022C0E0C083C082C0D075D023
:100B100000C004C005C006C007E5B620E003020C13
:100B20000E90FFB0E0FFC3E50C9514FDE50B9513A7
:100B3000FCD3ED9404EC94004008751500750D008D
:100B4000C209850B13850C14300503020BEC300928
:100B500003020BECAE0D050D74682EF582E4340033
:100B6000F583EFF0E50DD39403406CE50D6515704A
:100B70005B900068E06511600AA3E0FE6511600308
:100B8000EE70417F00E4FEEFC39515501074682F9E
:100B9000F582E43400F583E02EFE0F80EAEE702447
:100BA000900068E0B51104D206D205900069E0B566
:100BB00011069000B1E004F0900069E0700690002A
:100BC000AEE004F0751500750D00803DE50DC39491
:100BD000464036D2098032E50D6403702CEF2404C0
:100BE000F515EFD394424021D209801DD209050D9D
:100BF000E50DB5150A751500750D00C209800AE5E9
:100C00000DB40305EF2404F51553B6FE802DE50F52
:100C10006017AF0E050E74582FF582E43400F5838B
:100C2000E090FFB0F0150F800F5310FD8510B375E5
:100C30000D0043B61053B6FE53B6FDD007D006D014
:100C400005D004D0D0D082D083D0E032BB01068959
:100C5000828A83E0225002E722BBFE02E3228982DD
:100C60008A83E49322BB010CE58229F582E5833A6D
:100C7000F583E0225006E92582F8E622BBFE06E96C
:100C80002582F8E222E58229F582E5833AF583E4BC
:100C90009322BB010689828A83F0225002F722BB8D
:100CA000FE01F322F8BB010DE58229F582E5833AC6
:100CB000F583E8F0225006E92582C8F622BBFE053E
:100CC000E92582C8F222C5F0F8A3E028F0C5F0F8C3
:100CD000E582158270021583E038F022EF2BFFEEDB
:100CE0003AFEED39FDEC38FC22E88FF0A4CC8BF015
:100CF000A42CFCE98EF0A42CFC8AF0EDA42CFCEAD8
:100D00008EF0A4CDA8F08BF0A42DCC3825F0FDE911
:100D10008FF0A42CCD35F0FCEB8EF0A4FEA9F0EB07
:100D20008FF0A4CFC5F02ECD39FEE43CFCEAA42D13
:100D3000CE35F0FDE43CFC22EB9FF5F0EA9E42F05C
:100D4000E99D42F0E89C45F022D083D082F8E493FC
:100D50007012740193700DA3A393F8740193C0E013
:100D6000E8C0E0227402936860EFA3A3A380DFD3FE
:100D70009000B6E094FA9000B5E094FF5009E47555
:100D8000F005120CC6800874FF9000B5F0A3F012B5
:100D900011CC30055630060FC206900068E0C394AF
:100DA000FD4048C2058044900069E0F5227B017A4D
:100DB00000796B12123F8E238F24E4F52590006A90
:100DC000E024FEFFE525C39F5018746D2525F582AC
:100DD000E43400F583E0FF74262525F8A6070525F1
:100DE00080DBE5116003120F42C205E5117031305E
:100DF00008077511FED2078029C3E50C9517FFE59A
:100E00000B9516FEC3EF94E8EE94035003300212E4
:100E1000120F42EF700C850B16850C17C202800270
:100E2000C2029000AF74FFF5F0120CC645F07021BD
:100E30009000AF7403F0A37420F09000AEE0600F58
:100E400014F0E0C3940F4009740FF0D2088002C27E
:100E5000089000B274FFF5F0120CC645F0702390B4
:100E600000B27403F0A37420F09000B1E06011149C
:100E7000F0E0C3940F400B740FF07511FDD2072200
:100E8000C2072290008FE493FFE4FCFDFE7B64FA2E
:100E9000F9F8120CE9C004C005C006C00790008E26
:100EA000E493FFE4FCFDFE7B107A27F9F8120CE9CD
:100EB000D003D002D001D000120CDCA804A905AAEE
:100EC00006AB07900090E493FFE4FCFDFE120CDCFF
:100ED000E47B527A14F9F8D3120D385062900090E6
:100EE000E49320E05A1210A412118D30034930000F
:100EF00003120833C3E50C9567FFE50B9566FEC347
:100F0000EF9405EE940040E3850B66850C67120DA7
:100F10006F121207D3E52494FAE52394FF500D7461
:100F2000052524F524E43523F523800674FFF523F5
:100F3000F52412124D80B4E50A70FC53D5FB22C291
:100F400003229000B4E0FFA3E0FCA3E0FD7A007B65
:100F5000B8A3E0F56D8F688A6B8B6CE50F60037F3B
:100F60000122E56DD3945140037F022253B6EF4333
:100F700010028510B3900058E511F0E56D2402A32E
:100F8000F0AF05AE047B017A00795A12122FE4FF0C
:100F9000AE6874582FF582E43400F583E02EFE0F1E
:100FA000BF04EFE4FFEFC3956D5028E56C2FF58289
:100FB000E4356BF583E0FD745C2FF582E43400F5D5
:100FC00083EDF0E56C2FF582E4356BF583E02EFEC2
:100FD0000F80D2EEF404FE745C2FF582E43400F549
:100FE00083EEF0900059E02403F50FE4F50E90FF36
:100FF000B0E568F07F002275760075770075782679
:10100000852579AB24AA23AD227F02AC07AF03AEBE
:1010100002E50A60037F0122E579D3945140037F02
:101020000222E5792405900000F0A37403F0A3ECFC
:10103000F0A3EDF07B017A00790412122FE4FF7E19
:101040002674002FF582E43400F583E02EFE0FBFF6
:1010500006EFE4FFEFC395795028AB76AA77A9781D
:101060008F82758300120C65FD74062FF582E434BF
:1010700000F583EDF08F82758300120C652EFE0F54
:1010800080D2EEF404FE74062FF582E43400F5837A
:10109000EEF0900000E02402F50AE4F509C29C7528
:1010A0009926FF22850B66850C6774FF9000B5F0CA
:1010B000A3F0F523F52490008FE493FFE4FCFDFEFC
:1010C0007B64FAF9F8120CE9C004C005C006C00739
:1010D00090008EE493FFE4FCFDFE7B107A27F9F884
:1010E000120CE9D003D002D001D000120CDCA8040D
:1010F000A905AA06AB07900090E493FFE4FCFDFE6F
:10110000120CDCE47B767A27F9F8D3120D38400A0A
:1011100053A7FD43B740D2BED2AE228B738A7489E7
:1011200075E50A60037F0122E576D3945640037F7C
:101130000222AE07900000E576F02EFEE4FDEDC33E
:1011400095765028AB73AA74A9758D8275830012A9
:101150000C65FC74012DF582E43400F583ECF08D10
:1011600082758300120C652EFE0D80D2EEF404FE13
:1011700074012DF582E43400F583EEF0C29C9000FA
:1011800000E02402F50AE4F5098F99FF2275100C9E
:101190007511FF7522FF9000AF7403F0A37420F067
:1011A0009000B27403F0A37420F05310FD8510B3C7
:1011B00090FFB3E4F075B650A37430F0A37402F05E
:1011C00090FFB304F043B61043D50422E5D4540E87
:1011D000701AE5B65403602EC3E50C9514FFE50BB9
:1011E0009513FED3EF9404EE9400401A53D5FBC23E
:1011F00005E4F50DF50EF50F850B13850C1475B68A
:1012000050F5D443D50422E5BA540E700DE5985438
:1012100003601BE57FD394034014C2ACC200E4F525
:1012200008F509F50AF57F759850F5BAD2AC22ACED
:1012300006EC120C92EF900001120CA47F02229097
:101240000001120C65FD120C4CFEEDFF22C2AF75C1
:10125000C2A575C35AD2AF22E49000B1F0C2078F85
:10126000112275A2083200000000000000000000FA
:101DF0000000000000000000000000000000002AB9
:10FFF000E0001F0000000000000000000000000002
:00000001FF