:1011FB0075100C7511FF7522FF5310FD8510B39000
:10120B00FFB3E4F075B650A37430F0A37402F09002
:0B121B00FFB304F043B61043D50422DB
:1011C000E5D4540E701AE5B65403602EC3E50C95B1
:1011D00014FFE50B9513FED3EF9404EE9400401A30
:1011E00053D5FBC205E4F50DF50EF50F850B138500
:0B11F0000C1475B650F5D443D5042252
:100DAA00D39000B5E094FA9000B4E094FF5009E4BF
:100DBA0075F005120D01800874FF9000B4F0A3F0DD
:100DCA001211C030055F300618C206900068E0FFB5
:100DDA00F4600AEF64FE6005EF64FD7048C20580A6
:100DEA0044900069E0F5227B017A00796B12125E69
:100DFA008E238F24E4F52590006AE024FEFFE52582
:100E0A00C39F5018746D2525F582E43400F583E0FC
:100E1A00FF74262525F8A607052580DBE511600362
:100E2A00120F75C20530072CE5116003B4FE0830B5
:100E3A0008087511FE80037511FD9000AFE070027D
:100E4A00A3E0600C9000AF74FFF5F0120D0180135F
:100E5A00C207800FE49000AFF0A3F0E511B4FD03E0
:100E6A007511FFE5117025C3E50C9516FFE50B9585
:100E7A0015FEC3EF94E8EE9403500330022B120FD1
:100E8A0075EF7027850B15850C16801D9000B1E053
:100E9A007002A3E0600C9000B174FFF5F0120D012E
:0C0EAA008007C208E49000AEF0C20222F3
:100F75009000B3E0FFA3E0FCA3E0FD7A007BB7A3FC
:030F8500E0F56D27
:100F88008F688A6B8B6CE50F60037F0122E56DD358
:100F9800945140037F022253B6EF4310028510B3E9
:100FA800900058E511F0E56D2402A3F0AF05AE04FA
:100FB8007B017A00795A12124EE4FFAE6874582FFA
:100FC800F582E43400F583E02EFE0FBF04EFE4FF62
:100FD800EFC3956D5028E56C2FF582E4356BF583EA
:100FE800E0FD745C2FF582E43400F583EDF0E56CE8
:100FF8002FF582E4356BF583E02EFE0F80D2EEF4F8
:1010080004FE745C2FF582E43400F583EEF0900062
:1010180059E02403F50FE4F50E90FFB0E568F07F82
:021028000022A4
:100B1A00C0E0C083C082C0D075D000C000C002C08F
:100B2A0003C004C005C006C007E5B620E003020CF6
:100B3A0043C3E50C9514FFE50B9513FED3EF94041C
:100B4A00EE94004003750D00850B13850C1490FF7D
:100B5A00B0E0FF300503020C3EAE0D050D74682EA1
:100B6A00F582E43400F583EFF0E50DD394035003E6
:100B7A00020C3BE50EFDE50D2DFDE433FC90006A09
:100B8A00E02404FBE433FAED6B7002EC6A600302C2
:100B9A000C2DE50E6003020C28900068E0651160D8
:100BAA000AA3E0FE65116003EE70737F00E4FE9015
:100BBA00006AE02404FDE433FCEFC39DEC6480F892
:100BCA00748098501074682FF582E43400F583E03D
:100BDA002EFE0F80DAEE7046900069E0B51113E53B
:100BEA0011F4601DD2079000AF742EF0A374E0F0E8
:100BFA00800F900068E0B51103D38001C39206927A
:100C0A0005900069E070179000AEE004F0D39404F8
:100C1A004002D2089000B1740FF0A374A0F0750DD1
:100C2A00008011E50DC39446400A750D45050E80F6
:100C3A0003750E0053B6FE802DE50F6017AF0E0543
:100C4A000E74582FF582E43400F583E090FFB0F07B
:100C5A00150F800F5310FD8510B3750D0043B610A4
:100C6A0053B6FE53B6FDD007D006D005D004D00344
:0D0C7A00D002D000D0D0D082D083D0E032A4
:100EB60090008FE493FFE4FCFDFE7B64FAF9F812E0
:100EC6000D24C004C005C006C00790008EE493FF41
:100ED600E4FCFDFE7B107A27F9F8120D24D003D02E
:100EE60002D001D000120D17A804A905AA06AB0767
:100EF600900090E493FFE4FCFDFE120D17E47B5294
:100F06007A14F9F8D3120D735062900090E493208E
:100F1600E05A1210D71211FB3003493000031208B1
:100F260033C3E50C9567FFE50B9566FEC3EF9405A5
:100F3600EE940040E3850B66850C67120DAA12122B
:100F460026D3E52494FAE52394FF500D7405252451
:100F5600F524E43523F523800674FFF523F52412E2
:0F0F6600126C80B4E50A70FC53D5FB22C2032243
:1010D700850B66850C6774FF9000B4F0A3F0F523C9
:1010E700F52490008FE493FFE4FCFDFE7B64FAF99E
:1010F700F8120D24C004C005C006C00790008EE496
:1011070093FFE4FCFDFE7B107A27F9F8120D24D03B
:1011170003D002D001D000120D17A804A905AA0612
:10112700AB07900090E493FFE4FCFDFE120D17E47B
:101137007B767A27F9F8D3120D73400A53A7FD433C
:07114700B740D2BED2AE2278
:0B126C00C2AF75C2A575C35AD2AF22F5
:0412770075A2083222
:10124E00AC06EC120CCDEF900001120CDF7F0222E7
:0E125E00900001120CA0FD120C87FEEDFF2285
:10122600E5BA540E700DE5985403601BE57FD39420
:10123600034014C2ACC200E4F508F509F50AF57FCF
:08124600759850F5BAD2AC22F4
:10083300756802900010E064266003020B17E57FE1
:10084300C394045003020B19900012E024FE601EAF
:1008530014602124F3700302093424BF7003020AD5
:100863003524506003020A4DE4F569020A507569A4
:1008730001020A50900013E014607514700302091A
:100883001D24026003020A30E511B4FF0F30080C87
:10089300AF680568746A2FF876FE800AAF6805684A
:1008A300746A2FF8A6119000B6E0FFAE680568746D
:1008B3006A2EF8A6079000B4E0FEA3E0FF746A2551
:1008C30068F9E4FAFB12124EEF2568F568FF056834
:1008D300746A2FF8A625746A2568F9E4FAFBAF2435
:1008E300AE2312124EEF2568F568756902020A50AD
:1008F3009000B3E0FD7576017577007578B79000C9
:10090300B6E0F5799000B4E0FAA3E0FB7F011210A2
:100913003EEF7003020A50020A25E511F4600C123F
:10092300102AEF7003020A50020A25756908020AA9
:1009330050900013E014605E147003020A2B24022B
:100943006003020A30900014E0FFF46009EF64FED4
:100953006004EFB4FD0CAF680568746A2FF876FF86
:100963008073900014E0700F30080CAF6805687452
:100973006A2FF876FE805E900014E0FF6511600D2B
:100983008F11C207E4F52574FFF523F524900012B7
:100993007403F002088BE511F4600BE51164FE604B
:1009A30005E511B4FD10AF680568746A2FF8A61148
:1009B300756909020A50E5116021900014E0FF6097
:1009C3001AAE680568746A2EF8A611AE68056874D5
:1009D3006A2EF8A607756906020A50900014E09083
:1009E30000B3F0E4A3F0A3F0A3F0900011E024FD22
:1009F300FF9000B6E0FEC39F502074152EF582E4ED
:100A03003400F583E0FF74B72EF582E43400F583F8
:100A1300EFF09000B6E004F080D0D20212102AEF7B
:100A2300602B756BFE020B037569058020756907E2
:100A3300801B900013E0B4550FA3E0B4490AA3E070
:100A4300B4540575690380058000756904E569126E
:100A53000D840A77000A82010AA4020AC9030AE77D
:100A6300040AEC050AF1060AF6070AFB080B00095B
:100A730000000B14756A01E4F56B90008E800A7513
:100A83006A02756B0290082DE493F56CA3E493F569
:100A93006DA3E493F56E7B007A00796A7576058021
:100AA3006B900012E0F56AA3E0F56B7B007A0079A6
:100AB3006A8568767F2612114EEF64027053756B58
:100AC300FF756802803A756A65756B78756C697530
:100AD3006D747B007A00796A7576047F2612114E55
:100AE300C203802D756B018017756B028012756BC5
:100AF30003800D756B048008756B058003756B06A9
:100B0300756AFF7B007A00796A8568767F26121101
:070B13004EC20022C20022C5
:10114E008B738A748975E50A60037F0122E576D375
:10115E00945640037F0222AE07900000E576F02EF3
:10116E00FEE4FDEDC395765028AB73AA74A9758D78
:10117E0082758300120CA0FC74012DF582E43400FC
:10118E00F583ECF08D82758300120CA02EFE0D807F
:10119E00D2EEF404FE74012DF582E43400F583EEF4
:1011AE00F0C29C900000E02402F50AE4F5098F9944
:0211BE00FF220E
:10102A00757600757700757826852579AB24AA230D
:04103A00AD227F0262
:10103E00AC07AF03AE02E50A60037F0122E579D368
:10104E00945140037F0222E5792405900000F0A31D
:10105E007403F0A3ECF0A3EDF07B017A0079041297
:10106E00124EE4FF7E2674002FF582E43400F583E1
:10107E00E02EFE0FBF06EFE4FFEFC395795028ABCD
:10108E0076AA77A9788F82758300120CA0FD74065C
:10109E002FF582E43400F583EDF08F827583001214
:1010AE000CA02EFE0F80D2EEF404FE74062FF582F5
:1010BE00E43400F583EEF0900000E02402F50AE43B
:0910CE00F509C29C759926FF2268
:10080000020EB60208320208320208320208320230
:1008100008320208320208320208320208320208A4
:0D08200032021277020832020832020B1A6F
:06082D000068010914320D
:100C8700BB010689828A83E0225002E722BBFE026B
:090C9700E32289828A83E493229E
:100CA000BB010CE58229F582E5833AF583E0225009
:100CB00006E92582F8E622BBFE06E92582F8E22253
:0D0CC000E58229F582E5833AF583E493226D
:100CCD00BB010689828A83F0225002F722BBFE0106
:020CDD00F32200
:100CDF00F8BB010DE58229F582E5833AF583E8F04B
:100CEF00225006E92582C8F622BBFE05E92582C8F7
:020CFF00F222DF
:100D0100C5F0F8A3E028F0C5F0F8E582158270027D
:060D11001583E038F0221A
:0D0D1700EF2BFFEE3AFEED39FDEC38FC222B
:100D2400E88FF0A4CC8BF0A42CFCE98EF0A42CFC6E
:100D34008AF0EDA42CFCEA8EF0A4CDA8F08BF0A4EC
:100D44002DCC3825F0FDE98FF0A42CCD35F0FCEB4B
:100D54008EF0A4FEA9F0EB8FF0A4CFC5F02ECD3910
:0F0D6400FEE43CFCEAA42DCE35F0FDE43CFC227D
:100D7300EB9FF5F0EA9E42F0E99D42F0E89C45F0D6
:010D8300224D
:100D8400D083D082F8E4937012740193700DA3A3FE
:100D940093F8740193C0E0E8C0E0227402936860A1
:060DA400EFA3A3A380DF12
:00000001FF
