:10118D0075100C7511FF7522FF9000AF7403F0A35D
:10119D007420F09000B27403F0A37420F05310FD8E
:1011AD008510B390FFB3E4F075B650A37430F0A37F
:0F11BD007402F090FFB304F043B61043D5042240
:1011CC00E5D4540E701AE5B65403602EC3E50C95A5
:1011DC0014FFE50B9513FED3EF9404EE9400401A24
:1011EC0053D5FBC205E4F50DF50EF50F850B1385F4
:0B11FC000C1475B650F5D443D5042246
:100D6F00D39000B6E094FA9000B5E094FF5009E4F8
:100D7F0075F005120CC6800874FF9000B5F0A3F053
:100D8F001211CC30055630060FC206900068E0C332
:100D9F0094FD4048C2058044900069E0F5227B0134
:100DAF007A00796B12123F8E238F24E4F525900081
:100DBF006AE024FEFFE525C39F5018746D2525F5C5
:100DCF0082E43400F583E0FF74262525F8A6070595
:100DDF002580DBE5116003120F42C205E51170316A
:100DEF003008077511FED2078029C3E50C9517FF50
:100DFF00E50B9516FEC3EF94E8EE94035003300213
:100E0F0012120F42EF700C850B16850C17C2028061
:100E1F0002C2029000AF74FFF5F0120CC645F070DD
:100E2F00219000AF7403F0A37420F09000AEE06047
:100E3F000F14F0E0C3940F4009740FF0D208800232
:100E4F00C2089000B274FFF5F0120CC645F0702383
:100E5F009000B27403F0A37420F09000B1E0601121
:100E6F0014F0E0C3940F400B740FF07511FDD2070F
:040E7F0022C2072262
:100F42009000B4E0FFA3E0FCA3E0FD7A007BB8A32D
:030F5200E0F56D5A
:100F55008F688A6B8B6CE50F60037F0122E56DD38B
:100F6500945140037F022253B6EF4310028510B31C
:100F7500900058E511F0E56D2402A3F0AF05AE042D
:100F85007B017A00795A12122FE4FFAE6874582F4C
:100F9500F582E43400F583E02EFE0FBF04EFE4FF95
:100FA500EFC3956D5028E56C2FF582E4356BF5831D
:100FB500E0FD745C2FF582E43400F583EDF0E56C1B
:100FC5002FF582E4356BF583E02EFE0F80D2EEF42B
:100FD50004FE745C2FF582E43400F583EEF0900096
:100FE50059E02403F50FE4F50E90FFB0E568F07FB6
:020FF5000022D8
:100B0600C0E0C083C082C0D075D000C004C005C09C
:100B160006C007E5B620E003020C0E90FFB0E0FF2A
:100B2600C3E50C9514FDE50B9513FCD3ED9404EC8D
:100B360094004008751500750D00C209850B1385D4
:100B46000C14300503020BEC300903020BECAE0D5E
:100B5600050D74682EF582E43400F583EFF0E50D9B
:100B6600D39403406CE50D6515705B900068E065F5
:100B760011600AA3E0FE65116003EE70417F00E498
:100B8600FEEFC39515501074682FF582E43400F516
:100B960083E02EFE0F80EAEE7024900068E0B51127
:100BA60004D206D205900069E0B511069000B1E0C6
:100BB60004F0900069E070069000AEE004F0751550
:100BC60000750D00803DE50DC394464036D2098080
:100BD60032E50D6403702CEF2404F515EFD394422F
:100BE6004021D209801DD209050DE50DB5150A75FE
:100BF6001500750D00C209800AE50DB40305EF2442
:100C060004F51553B6FE802DE50F6017AF0E050EE1
:100C160074582FF582E43400F583E090FFB0F015A8
:100C26000F800F5310FD8510B3750D0043B610539A
:100C3600B6FE53B6FDD007D006D005D004D0D0D02E
:060C460082D083D0E032F1
:0A125800E49000B1F0C2078F1122EC
:100E830090008FE493FFE4FCFDFE7B64FAF9F81213
:100E93000CE9C004C005C006C00790008EE493FFB0
:100EA300E4FCFDFE7B107A27F9F8120CE9D003D09D
:100EB30002D001D000120CDCA804A905AA06AB07D6
:100EC300900090E493FFE4FCFDFE120CDCE47B5203
:100ED3007A14F9F8D3120D385062900090E49320FD
:100EE300E05A1210A412118D300349300003120886
:100EF30033C3E50C9567FFE50B9566FEC3EF9405D9
:100F0300EE940040E3850B66850C67120D6F121299
:100F130007D3E52494FAE52394FF500D74052524A3
:100F2300F524E43523F523800674FFF523F5241215
:0F0F3300124D80B4E50A70FC53D5FB22C2032295
:1010A400850B66850C6774FF9000B5F0A3F0F523FB
:1010B400F52490008FE493FFE4FCFDFE7B64FAF9D1
:1010C400F8120CE9C004C005C006C00790008EE405
:1010D40093FFE4FCFDFE7B107A27F9F8120CE9D0AB
:1010E40003D002D001D000120CDCA804A905AA0682
:1010F400AB07900090E493FFE4FCFDFE120CDCE4EB
:101104007B767A27F9F8D3120D38400A53A7FD43AA
:07111400B740D2BED2AE22AB
:0B124D00C2AF75C2A575C35AD2AF2214
:0412620075A2083237
:10122F00AC06EC120C92EF900001120CA47F02227C
:0E123F00900001120C65FD120C4CFEEDFF221A
:10120700E5BA540E700DE5985403601BE57FD3943F
:10121700034014C2ACC200E4F508F509F50AF57FEE
:08122700759850F5BAD2AC2213
:10083300756802900010E064266003020B03E57FF5
:10084300C394045003020B05900012E024FE601EC3
:1008530014602124F3700302093424BF7003020AD5
:100863002124506003020A39E4F569020A3C7569E0
:1008730001020A3C900013E014607514700302092E
:100883001D24026003020A1CE511B4FF0F30080C9B
:10089300AF680568746A2FF876FE800AAF6805684A
:1008A300746A2FF8A6119000B7E0FFAE680568746C
:1008B3006A2EF8A6079000B5E0FEA3E0FF746A2550
:1008C30068F9E4FAFB12122FEF2568F568FF056853
:1008D300746A2FF8A625746A2568F9E4FAFBAF2435
:1008E300AE2312122FEF2568F568756902020A3CE0
:1008F3009000B4E0FD7576017577007578B89000C7
:10090300B7E0F5799000B5E0FAA3E0FB7F011210A0
:100913000BEF7003020A3C020A11E511F4600C129A
:100923000FF7EF7003020A3C020A11756908020A05
:100933003C900013E0146053147003020A1724025E
:100943006003020A1C900014E0FFC394FD400CAE48
:10095300680568746A2EF876FF8066EF700F3008BA
:100963000CAF680568746A2FF876FE805490001403
:10097300E0FF6511600C121258E4F52574FFF523AE
:10098300F5249000127403F002088BE511C394FD63
:100993004010AF680568746A2FF8A61175690902DB
:1009A3000A3CE5116021900014E0FF601AAE68056F
:1009B30068746A2EF8A611AE680568746A2EF8A6E4
:1009C30007756906020A3C900014E09000B4F0E455
:1009D300A3F0A3F0A3F0900011E024FDFF9000B773
:1009E300E0FEC39F502074152EF582E43400F58396
:1009F300E0FF74B82EF582E43400F583EFF0900045
:100A0300B7E004F080D0D202120FF7EF602B756BC2
:100A1300FE020AEF7569058020756907801B900047
:100A230013E0B4550FA3E0B4490AA3E0B454057529
:100A3300690380058000756904E569120D490A633D
:100A4300000A6E010A90020AB5030AD3040AD80504
:100A53000ADD060AE2070AE7080AEC0900000B00B0
:100A6300756A01E4F56B90008E800A756A02756BF6
:100A73000290082DE493F56CA3E493F56DA3E4933E
:100A8300F56E7B007A00796A757605806B900012AB
:100A9300E0F56AA3E0F56B7B007A00796A856876F6
:100AA3007F2612111BEF64027053756BFF7568028A
:100AB300803A756A65756B78756C69756D747B00C2
:100AC3007A00796A7576047F2612111BC203802D82
:100AD300756B018017756B028012756B03800D7542
:100AE3006B048008756B058003756B06756AFF7B65
:100AF300007A00796A8568767F2612111BC200226C
:030B0300C200220B
:10111B008B738A748975E50A60037F0122E576D3A8
:10112B00945640037F0222AE07900000E576F02E26
:10113B00FEE4FDEDC395765028AB73AA74A9758DAB
:10114B0082758300120C65FC74012DF582E434006A
:10115B00F583ECF08D82758300120C652EFE0D80ED
:10116B00D2EEF404FE74012DF582E43400F583EE27
:10117B00F0C29C900000E02402F50AE4F5098F9977
:02118B00FF2241
:100FF700757600757700757826852579AB24AA2341
:04100700AD227F0295
:10100B00AC07AF03AE02E50A60037F0122E579D39B
:10101B00945140037F0222E5792405900000F0A350
:10102B007403F0A3ECF0A3EDF07B017A00790412CA
:10103B00122FE4FF7E2674002FF582E43400F58333
:10104B00E02EFE0FBF06EFE4FFEFC395795028AB00
:10105B0076AA77A9788F82758300120C65FD7406CA
:10106B002FF582E43400F583EDF08F827583001247
:10107B000C652EFE0F80D2EEF404FE74062FF58263
:10108B00E43400F583EEF0900000E02402F50AE46E
:09109B00F509C29C759926FF229B
:10080000020E830208320208320208320208320263
:1008100008320208320208320208320208320208A4
:0D08200032021262020832020832020B0698
:06082D00006A010914320B
:100C4C00BB010689828A83E0225002E722BBFE02A6
:090C5C00E32289828A83E49322D9
:100C6500BB010CE58229F582E5833AF583E0225044
:100C750006E92582F8E622BBFE06E92582F8E2228E
:0D0C8500E58229F582E5833AF583E49322A8
:100C9200BB010689828A83F0225002F722BBFE0141
:020CA200F3223B
:100CA400F8BB010DE58229F582E5833AF583E8F086
:100CB400225006E92582C8F622BBFE05E92582C832
:020CC400F2221A
:100CC600C5F0F8A3E028F0C5F0F8E58215827002B9
:060CD6001583E038F02256
:0D0CDC00EF2BFFEE3AFEED39FDEC38FC2267
:100CE900E88FF0A4CC8BF0A42CFCE98EF0A42CFCAA
:100CF9008AF0EDA42CFCEA8EF0A4CDA8F08BF0A428
:100D09002DCC3825F0FDE98FF0A42CCD35F0FCEB86
:100D19008EF0A4FEA9F0EB8FF0A4CFC5F02ECD394B
:0F0D2900FEE43CFCEAA42DCE35F0FDE43CFC22B8
:100D3800EB9FF5F0EA9E42F0E99D42F0E89C45F011
:010D48002288
:100D4900D083D082F8E4937012740193700DA3A339
:100D590093F8740193C0E0E8C0E0227402936860DC
:060D6900EFA3A3A380DF4D
:00000001FF
