:107DEB0025730D002573203C20252E31662028207D
:107DFB00252E316620290D002573203D20252E319F
:107E0B0066200D002573203E20252E31662028206C
:107E1B00252E316620290D002573203D2025627506
:107E2B00200D002573203D202575200D004241318A
:107E3B003D25730D004241323D25730D0042413308
:107E4B003D25730D0053744B203D202D2D0D0053FC
:107E5B00744B203D25640D0041543D252E31660D9C
:107E6B00005254313D252E31660D005254323D25C2
:107E7B002E31660D0057573D252E31660D004241C0
:107E8B003D25730D0052543D252E31660D003330C8
:107E9B003036004155544F004845495A454E00482D
:107EAB00454154494E4700434841554646450052CB
:107EBB00495343414C44415245004B4F4D464F5261
:107ECB005400434F4D464F525400434F4E464F5272
:107EDB005400414253454E4B454E00524544554389
:107EEB004500524544554954005249444F54544F50
:107EFB0000534F4D4D45520053554D4D4552004586
:107F0B0054450045535441544500415553004F4689
:107F1B004600415252455400484B004343004843EE
:107F2B000043200043310043320043330000000183
:107F3B000101010101010106060202060206020609
:107F4B0002020202060206020602020206060606EA
:107F5B0006060206060601010101080808080808C2
:107F6B0008080808080808080801010000000000BC
:107F7B0000000000000000000000000000000000F6
:107F8B0000000000000000000000000000000000E6
:107F9B0002020202000000000001010101010101C7
:107FAB00000000C8025804B0096017702EE08CA0C6
:0C7FBB001F1C1F1E1F1E1F1F1E1F1E1F4D
:1081520012937C128A591295481295721296F9124C
:1081620096B17C067D03E4F5447B24FF128EE0E4A5
:10817200F5AE75A64C7C057D5AF5447BA97F241289
:108182008EE0E4F5AE75A64C7C047DB0F5447B0A26
:108192007FC8128EE0E4FF745B2FF582E43405F5AC
:1081A20083E0B42211EF25E02450F582E43405F592
:1081B2008374FFF0A3F0740F2FF582E43406F58385
:1081C200E0B42211EF25E024BEF582E43404F58305
:1081D20074FFF0A3F00FBF04BE900607128D3F8F0D
:1081E2007790060B128D3F128D37E5782FF5799037
:1081F20005ADE030E02754FEF07C057D5A7BA97F77
:108202002412969D1296D77D037F0C129428AA06FB
:10821200A9077B0178597C067D01126351900606FD
:10822200E0FD7C007E017F00126042AB07AA06E4FB
:10823200F9F89004B1E0FCA3E0FDA3E0FEA3E0FFA7
:10824200126138EE5407FEE41292F0438901758AF6
:1082520006758C4CC28DD28C9006FFE07002A3E0B2
:1082620060109006FF74FFF5F012609745F07002FF
:10827200C2259006FDE07002A3E060109006FD7436
:10828200FFF5F012609745F07002C2269006FBE0FF
:108292007002A3E060109006FB74FFF5F012609785
:1082A20045F07002C2241295E61268F01288C312D9
:1082B20082D5126E1E128E1012509D128E78129658
:1082C200711293B812900C308DFDE4F5AE75A64C88
:0382D200028250D5
:1095E60020C11AE57AC3943C5016057AE57AB43C54
:1095F6000F9004B0E07003028FAA029718E4F57A80
:019606002241
:108A5900E4F55DF55EC211F57AF56DF57DC20DC2DD
:108A69000EC20FC212C209F572F5737F809004C657
:108A7900E4F0A3DFFCE49004BCF0A3F0900546F019
:108A8900A3F0A3F0A3F0A3F0A3F0900558F0A3F08E
:108A9900900642F0A3F090054CF0A3F0A3F0A3F0E8
:108AA9009004AEF0A3F074FF900640F0A3F0E4FF49
:108AB900EF25E02450F582E43405F583E4F0A3F0D2
:108AC900EF25E024BEF582E43404F583E4F0A3F055
:108AD900745F2FF8E4F60FBF04D6C20C757601C295
:108AE90010C208E4F57E9004BAF0A3F0F57BF57C9A
:108AF900F574F575F56EF56F7F0A7863E4F608DFAE
:048B0900FCC2132275
:1088C3009004ADE004F09004B0E014602614602B33
:1088D300146033240370319004B1E0FCA3E0FDA3E2
:1088E300E0FEA3E0FFEC4D4E4F6003C38001D39243
:1088F300C780159004ADE0A2E480069004ADE0A229
:10890300E3B392C78002C2C720080D9004B9E060A8
:108913000D9004ADE030E4067E007F0180047E000C
:108923007F00EE4F24FFB392C63091079006FAE022
:10893300FF800C9006FAE070047F0180027F00EF55
:1089430024FF92C59006FAE0600214F09006F9E065
:10895300FFB40409E55BB40404B2C3801630B20269
:10896300800C9006F9E070047F0180027F00EF2401
:10897300FF92C39006F9E0F55B600214F09005EEF8
:0D898300E06004A2088003A208B392C422A1
:10937C00E4F5AE75A64C757010F571E5712405F524
:10938C0082E43570F5837401F0E5712407F582E40D
:10939C003570F5837401F075A44075A94275B44A13
:0C93AC0075AD25758E0CF592E4F593224A
:104022008E2B8F2C8D2D8F828E83E064FC60030299
:104032004EA1A3A3E0640B60030241C78F828E836B
:10404200A3A3A3E0640160030241C730130302414A
:10405200C7436D019004BA7446F0A37450F08F8286
:104062008E83E5822412F582E43583F583E0FCA396
:10407200E0FDE4FF127BC4E52C2414F582E4352B29
:10408200F583E0FCA3E0FD7F01127BC4E52C240450
:10409200F582E4352BF583E0FCA3E0FD7F02127B81
:1040A200C4E52C2406F582E4352BF583E0FCA3E07D
:1040B200FD7F03127BC4E52C2408F582E4352BF541
:1040C20083E0FCA3E0FD7F04127BC4E52C240AF507
:1040D20082E4352BF583E0FCA3E0FD7F05127BC46F
:1040E200E52C240CF582E4352BF583E0FCA3E0FDFE
:1040F2007F06127BC4E52C240EF582E4352BF58372
:10410200E0FCA3E0FD7F07127BC4E52C2410F582BE
:10411200E4352BF583E0FCA3E0FD7F08127BC4E5C8
:104122002C2416F582E4352BF583E0FCA3E0FD7F19
:1041320009127BC4E52C2420F582E4352BF583E0BB
:10414200FD7C007F28127BC4E52C2418F582E4351F
:104152002BF583E0FCA3E0FD7F29127BC4E52C2430
:104162001AF582E4352BF583E0FCA3E0FD7F2A12E9
:104172007BC4E52C241CF582E4352BF583E0FCA3FB
:10418200E0FD7F2B127BC4E52C241EF582E4352B47
:10419200F583E0FCA3E0FD7F2C127BC4E52C2422F6
:1041A200F582E4352BF583E0FD7C007F3C127BC475
:1041B200E52C2423F582E4352BF583E0FCA3E0FD16
:1041C2007F3D127BC4852C82852B83A3A3E06424CC
:1041D200600302438C852C82852B83A3A3A3E06416
:1041E20001600302438C436D019004BA7446F0A34C
:1041F2007450F0D213E52C241A1293EFE531240106
:10420200FFE43530FE12940C900796E0FCA3E0FD2B
:10421200E4FF127BC4E52C241C1293EFE531240148
:10422200FFE43530FE12940C7F01127BBCE52C2496
:104232001EF582E4352BF583E0900789F07E077F37
:104242008912940C900789E0FD7C007F28127BC4C0
:10425200E52C24041295207F02127BBC12951C903F
:104262000796E0FCA3E0FD7F6D127BC4E52C2408D9
:10427200129520900796E0FCA3E0FD7F6E127BC4AE
:10428200E52C240A129520900796E0FCA3E0FD7F1E
:104292006F127BC4E52C240C129520900796E0FC4B
:1042A200A3E0FD7F70127BC4E52C240E12952090B2
:1042B2000796E0FCA3E0FD7F03127BC4E52C2410EB
:1042C200129520900796E0FCA3E0FD7F71127BC45B
:1042D200E52C2415F582E4352BF583E0FCA3E0FD03
:1042E2007F72127BC4E52C24211291C9900798A3F6
:1042F200A3E0FEA3E0FFE4AD07AC067F2A127BC475
:10430200900798E0FCA3E0FDA3E0FEA3E0FF781095
:104312001261E9AD07AC067F29127BC4E52C242586
:104322001291C9900798A3A3E0FEA3E0FFE4AD07B2
:10433200AC067F2C127BC4900798E0FCA3E0FDA39F
:10434200E0FEA3E0FF78101261E9AD07AC067F2B17
:10435200127BC4E52C2412129520900796E0C31319
:10436200F0A3E013F0E52C2414F582E4352BF58359
:10437200E0600A900796E04480F0A3E0F090079690
:10438200E0FCA3E0FD7F6C127BC4852C82852B832D
:10439200A3A3E0640C6003024A5E852C82852B8312
:1043A200A3A3A3E064016003024535436D02757B5C
:1043B20046757C5012951C900796E0FCA3E0FDE444
:1043C200FF127BC4E52C2404F582E4352BF583E04F
:1043D200FCA3E0FD7F01127BC4E52C2408F582E4F6
:1043E200352BF583E0FCA3E0FD7F0A127BC4E52CAC
:1043F200240AF582E4352BF583E0FCA3E0FD7F0B74
:10440200127BC4E52C240CF582E4352BF583E0FC09
:10441200A3E0FD7F0C127BC4E52C240EF582E4356B
:104422002BF583E0FCA3E0FD7F0D127BC4E52C2479
:1044320010F582E4352BF583E0FCA3E0FD7F0E123C
:104442007BC4E52C2412F582E4352BF583E0FCA332
:10445200E0FD7F0F127BC4E52C2414F582E4352B9A
:10446200F583E0FCA3E0FD7F10127BC4E52C24164B
:10447200F582E4352BF583E0FCA3E0FD7F11127B8E
:10448200C4E52C2418F582E4352BF583E0FCA3E087
:10449200FD7F12127BC4E52C241AF582E4352BF53C
:1044A20083E0FCA3E0FD7F13127BC4E52C241CF502
:1044B20082E4352BF583E0FCA3E0FD7F14127BC47C
:1044C200E52C241EF582E4352BF583E0FCA3E0FD08
:1044D2007F15127BC4E52C2420F582E4352BF5836D
:1044E200E0FCA3E0FD7F16127BC4852C82852B8322
:1044F200A3E0D39420403CE52C2422F582E4352B22
:10450200F583E0FD7C007F63127BC4E52C2423F558
:1045120082E4352BF583E0FD7C007F64127BC4E5E9
:104522002C2424F582E4352BF583E0FD7C007F65A5
:10453200127BC4852C82852B83A3A3A3E064026033
:10454200030246CAE52C2404F582E4352BF583E008
:10455200FCA3E0FD7F17127BC4E52C2406F582E460
:10456200352BF583E0FCA3E0FD7F18127BC4E52C1C
:104572002408F582E4352BF583E0FCA3E0FD7F19E6
:10458200127BC4E52C240AF582E4352BF583E0FC8A
:10459200A3E0FD7F1A127BC4E52C240CF582E435DE
:1045A2002BF583E0FCA3E0FD7F1B127BC4E52C24EA
:1045B2000EF582E4352BF583E0FCA3E0FD7F1C12AF
:1045C2007BC4E52C2410F582E4352BF583E0FCA3B3
:1045D200E0FD7F1D127BC4E52C2412F582E4352B0D
:1045E200F583E0FCA3E0FD7F1E127BC4E52C2414BE
:1045F200F582E4352BF583E0FCA3E0FD7F1F127BFF
:10460200C4E52C2416F582E4352BF583E0FCA3E007
:10461200FD7F20127BC4E52C2418F582E4352BF5AE
:1046220083E0FCA3E0FD7F21127BC4E52C241AF574
:1046320082E4352BF583E0FCA3E0FD7F22127BC4EC
:10464200E52C241CF582E4352BF583E0FD7C007F0C
:1046520023127BC4E52C241DF582E4352BF583E07F
:10466200FCA3E0FD7F24127BC4E52C241FF582E429
:10467200352BF583E0FCA3E0FD7F25127BC4E52CFE
:104682002421F582E4352BF583E0FCA3E0FD7F26AF
:10469200127BC4E52C2423F582E4352BF583E0FD5F
:1046A2007C007F27127BC4852C82852B83A3E0D3D9
:1046B20094224014E52C2424F582E4352BF583E082
:1046C200FD7C007F66127BC4852C82852B83A3A38D
:1046D200A3E064037067E52C2404F582E4352BF52E
:1046E20083E0FCA3E0FD7F5D127BC4E52C2406F58C
:1046F20082E4352BF583E0FCA3E0FD7F5E127BC4F0
:10470200E52C2408F582E4352BF583E0FCA3E0FDDB
:104712007F5F127BC4E52C240AF582E4352BF583F6
:10472200E0FD7C007F60127BC4E52C240BF582E463
:10473200352BF583E0FD7C007F6A127BC4852C82D9
:10474200852B83A3A3A3E064046003024801D21271
:10475200E52C2404F582E4352BF583E0FCA3E0FD8F
:104762007F3E127BC4E52C2406F582E4352BF583CB
:10477200E0FCA3E0FD7F3F127BC4E52C2408F58218
:10478200E4352BF583E0FCA3E0FD7F40127BC4E51A
:104792002C240AF582E4352BF583E0FCA3E0FD7FAF
:1047A20041127BC4E52C240CF582E4352BF583E021
:1047B200FCA3E0FD7F42127BC4E52C240EF582E4CB
:1047C200352BF583E01313543F75F005A4FDACF0CF
:1047D2007F43127BC4E52C240EF582E4352BF5834E
:1047E200E05403FD7C007F44127BC4E52C240FF5CA
:1047F20082E4352BF583E0FD7C007F67127BC48564
:104802002C82852B83A3A3A3E0640560030248EAFC
:10481200E52C2404F582E4352BF583E0FCA3E0FDCE
:104822007F45127BC4E52C2406F582E4352BF58303
:10483200E0FCA3E0FD7F47127BC4E52C2408F5824F
:10484200E4352BF583E0FCA3E0FD7F49127BC4E550
:104852002C240AF582E4352BF583E0FCA3E0FD7FEE
:1048620046127BC4E52C240CF582E4352BF583E05B
:10487200FCA3E0FD7F48127BC4E52C240EF582E404
:10488200352BF583E0FCA3E0FD7F4B127BC4E52CC6
:104892002410F582E4352BF583E0FD7C007F4A127B
:1048A2007BC4E52C2411F582E4352BF583E0131348
:1048B200543F75F005A4FDACF07F4C127BC4E52C8F
:1048C2002411F582E4352BF583E05403FD7C007F4F
:1048D2004D127BC4E52C2412F582E4352BF583E0DE
:1048E200FD7C007F68127BC4852C82852B83A3A369
:1048F200A3E064066003024A5EE52C2404F582E428
:10490200352BF583E0FCA3E0FD7F52127BC4E52C3E
:104912002406F582E4352BF583E0FCA3E0FD7F530A
:10492200127BC4E52C2408F582E4352BF583E0FCE8
:10493200A3E0FD7F54127BC4E52C240AF582E43502
:104942002BF583E0FCA3E0FD7F55127BC4E52C240C
:104952000DF582E4352BF583E0FCA3E0FD7F5112D7
:104962007BC4E52C240FF582E4352BF583E0FCA310
:10497200E0FD7F56127BC4E52C2411F582E4352B31
:10498200F583E0FCA3E0FD7F50127BC4E52C2413E9
:10499200F582E4352BF583E0FCA3E0FD7F61127B19
:1049A200C4E52C2415F582E4352BF583E0FCA3E065
:1049B200FD7F4E127BC4E52C2417F582E4352BF5DE
:1049C20083E0FCA3E0FD7F4F127BC4E52C2419F5A4
:1049D20082E4352BF583E0FCA3E0FD7F57127BC414
:1049E200E52C241BF582E4352BF583E0FCA3E0FDE6
:1049F2007F58127BC4E52C241DF582E4352BF58308
:104A0200E0FCA3E0FD7F59127BC4E52C241FF58254
:104A1200E4352BF583E0FCA3E0FD7F5A127BC4E56D
:104A22002C2421F582E4352BF583E0FCA3E0FD7F05
:104A32005B127BC4E52C2423F582E4352BF583E05D
:104A4200FD7C007F5C127BC4E52C2424F582E435D6
:104A52002BF583E0FD7C007F69127BC4852C828567
:104A62002B83A3A3E0640D6003024BB4852C8285E3
:104A72002B83A3A3A3E064016003024BB4436D0440
:104A820075744675755012951C900796E0FCA3E06C
:104A9200FDE4FF127BC4E52C2404F582E4352BF5FA
:104AA20083E0FCA3E0FD7F01127BC4E52C2408F522
:104AB20082E4352BF583E0FCA3E0FD7F0A127BC480
:104AC200E52C240AF582E4352BF583E0FCA3E0FD16
:104AD2007F0B127BC4E52C240CF582E4352BF58385
:104AE200E0FCA3E0FD7F0C127BC4E52C240EF582D2
:104AF200E4352BF583E0FCA3E0FD7F0D127BC4E5DA
:104B02002C2410F582E4352BF583E0FCA3E0FD7F35
:104B12000E127BC4E52C2412F582E4352BF583E0DA
:104B2200FCA3E0FD7F17127BC4E52C2414F582E47C
:104B3200352BF583E0FCA3E0FD7F19127BC4E52C45
:104B42002416F582E4352BF583E0FCA3E0FD7F1B00
:104B5200127BC4E52C2418F582E4352BF583E0FDA5
:104B62007C007F22127BC4E52C2419F582E4352BCC
:104B7200F583E0FCA3E0FD7F24127BC4852C8285B3
:104B82002B83A3E0D394194029E52C241BF582E45E
:104B9200352BF583E0FCA3E0FD7F16127BC4E52CE8
:104BA200241DF582E4352BF583E0FD7C007F621243
:104BB2007BC4852C82852B83A3A3E064146003024B
:104BC2004E88852C82852B83A3A3A3E06401600316
:104BD200024E88436D08756E46756F50E52C2410A1
:104BE200F582E4352BF583E0FCA3E0FD7F2D127BFB
:104BF200C4E52C240AF582E4352BF583E0FCA3E01E
:104C0200FD7F2E127BC4E52C240CF582E4352BF5B6
:104C120083E0FCA3E0FD7F2F127BC4E52C240EF57C
:104C220082E4352BF583E0FCA3E0FD7F30127BC4E8
:104C3200E52C2412F582E4352BF583E0FCA3E0FD9C
:104C42007F31127BC4E52C2434F582E4352BF583C5
:104C5200E0FD7C007F32127BC4E52C2420F582E447
:104C6200352BF583E0FCA3E0FD7F33127BC4E52CFA
:104C72002424F582E4352BF583E0FCA3E0FD7F34A8
:104C8200127BC4E52C2414F582E4352BF583E0FC79
:104C9200A3E0FD7F35127BC4E52C2416F582E435B2
:104CA2002BF583E0FCA3E0FD7F36127BC4E52C24C8
:104CB20018F582E4352BF583E0FCA3E0FD7F371283
:104CC2007BC4E52C241AF582E4352BF583E0FCA3A2
:104CD200E0FD7F38127BC4E52C2422F582E4352BDB
:104CE200F583E0FCA3E0FD7F39127BC4E52C24268A
:104CF200F582E4352BF583E0FCA3E0FD7F3A127BDD
:104D0200C4E52C2428F582E4352BF583E0FCA3E0EE
:104D1200FD7F3B127BC4E52C2404F582E4352BF5A0
:104D220083E0FEA3E0FBAA067C007D3CFF1260420A
:104D32008E2E8F2F7C007D3CAF03AE021260428D1F
:104D4200828C83AE2EAF2F7C007D0A126042ED7BF7
:104D520000FAAE2EAF2F7C007D0A126042EFC454DF
:104D6200F0FEEB2400FBEE3AFA7C007D0AAF82AE45
:104D720083126042EFC4F8540FC868FFEEC454F0C7
:104D820048FEEB2FFBEA3EFA7C007D0AAF82AE833F
:104D9200126042ED2BFBEC3AFAAD03FCE4FF127B0E
:104DA200C4E52C2406F582E4352BF583E0FEA3E06E
:104DB200FF7C077D897A077B8A75380775398B12E4
:104DC2008990900789E0F975F00A84E5F07D00FC8E
:104DD200E975F00A84C454F0FEED2400FDEE3CFCBB
:104DE200A3E0F975F00A8475F010A42DFFEC35F0FC
:104DF200FEE975F00A847C00EF25F0FDEC3EFC7FB5
:104E020001127BC490078BE0FD7C007F28127BC4DB
:104E1200E4FAFBE52C2426F582E4352BF583E0F554
:104E22002EA3E0F52FE52C2428F582E4352BF5831B
:104E3200E0F8A3E0F582888345837006E52F452ECE
:104E4200602AAE83AF82E4FCFD7BE87A03F9F812B4
:104E520060ADC006C007AE2EAF2FAB07AA06E4F9BD
:104E6200F8D007D006126138AA06AB07E52C243623
:104E7200F582E4352BF583E06003430280AD03AC99
:104E8200027F6B127BC420260620250302509C90D1
:104E920006F97404F0E52D700302506E0250858508
:104EA2002C82852B83E0FFD394FA5003025061EFEA
:104EB20064FD6003024F75A3A3E064AA6003024F7E
:104EC20075852C82852B83A3A3A3E0640C60030267
:104ED2004F75300D1FC20D90078C7411F0A37453DF
:104EE200F0A37445F0A37454F0E4A3F0A37402F0A9
:104EF200A3148046300E21C20E90078C7411F0A3C9
:104F02007453F0A37445F0A37454F0A37401F0A396
:104F12007488F0A374018022300F2EC20F90078C88
:104F22007411F0A37453F0A37445F0A37454F0A366
:104F32007405F0A37412F0A37401F0A3E57DF07C74
:104F4200077D8C7B087F0C8075302827900702E054
:104F5200FF640C601EEF640D6019C228755C0C754D
:104F62007E0490078C74ACF07C077D8C7B017F0CF7
:104F7200128DA4852C82852B83E064FD706DA3A322
:104F8200E064AA7066852C82852B83A3A3A3E064C8
:104F92000D705830092BC20990078C7411F0A3745C
:104FA20053F0A37445F0A37454F0E4A3F0A304F007
:104FB200A3F0A3E57DF07C077D8C7B087F0D028D3D
:104FC200A4302827900702E0FF640C601EEF640DF6
:104FD2006019C228755C0D757E0490078C74ACF064
:104FE2007C077D8C7B017F0D128DA4302840852C9F
:104FF20082852B83E064FD7035C228302713900729
:105002008C741DF07C077D8C7B017F0A128C508092
:1050120003751502900003E0FF7C007D04900001FF
:10502200E024FEFB128DA49006F97404F022E5152B
:1050320060191515852C82852B83E0FFE52C24024F
:10504200FDE4352BFCA3E0FB128C509006F97404AE
:10505200F0202403302543E52D7002800F80243098
:1050620025389006F97404F0E52D7017852C828599
:105072002B83E0FFE52C2402FDE4352BFCA3E0FBAF
:10508200028C50852C82852B83E0FFE52C2402FDC7
:0B509200E4352BFCA3E0FB1286CC22CF
:10900C00E57E605AE57EC394645038157EE57E702B
:10901C004D302716900785741DF07C077D857B01EC
:10902C007F0A128C50757E688006751503757E6EEE
:10903C00900003E0FF7C007D04900001E024FEFB27
:10904C00028DA4157EE57EB4641490078574ADF092
:0F905C007C077D857B01AF5C128DA4E4F57E223D
:087BBC00900796E0FCA3E0FD38
:107BC4008F328C338D34E53212625F7BF4007C0497
:107BD400017C0A0A7C0F0B7C140E7C190F7C1E118D
:107BE4007C23227C28247C2D257C324200007C3C92
:107BF4009004BCE533F0A3E534F09004C6027DE3C1
:107C04009004C8027DE390064280269004AE802151
:107C140090054C801C90054E80179005588012905A
:107C24000640800D90054680089005488003900525
:107C34004AE533F0A3E534F0E4FF740F2FF582E452
:107C44003406F583E0B53213EF25E024BEF582E473
:107C54003404F583E533F0A3E534F0745B2FF58247
:107C6400E43405F583E0B53213EF25E02450F582C2
:107C7400E43405F583E533F0A3E534F00FBF04BA2B
:107C8400E532C39420504FE47F01FEFDFCA932A8E5
:107C9400011261FC900607E0F8A3E0F9A3E0FAA35F
:107CA400E05FFFEA5EFEE95DFDE85C4D4E4F700368
:107CB400027DEA900607E0FCA3E0FDA3E0FEA3E05A
:107CC400FF853239128D4DEF25E024C6F582E43468
:107CD40004F583027DE3E532C394405056E47F010A
:107CE400FEFDFCE53224E0F9F81261FC90060BE09D
:107CF400F8A3E0F9A3E0FAA3E05FFFEA5EFEE95D22
:107D0400FDE85C4D4E4F7003027DEA90060BE0FCEB
:107D1400A3E0FDA3E0FEA3E0FFE53224E0F5391281
:107D24008D4DE5772F25E024C6F582E43404F583F0
:107D3400027DE3E532C394605055E47F01FEFDFC0F
:107D4400E53224C0F9F81261FC90061FE0F8A3E0C4
:107D5400F9A3E0FAA3E05FFFEA5EFEE95DFDE85CFB
:107D64004D4E4F7003027DEA90061FE0FCA3E0FD38
:107D7400A3E0FEA3E0FFE53224C0F539128D4DE502
:107D8400782F25E024C6F582E43404F5838050E49A
:107D94007F01FEFDFCE53224A0F9F81261FC900697
:107DA40023E0F8A3E0F9A3E0FAA3E05FFFEA5EFEB4
:107DB400E95DFDE85C4D4E4F602C900623E0FCA38A
:107DC400E0FDA3E0FEA3E0FFE53224A0F539128D27
:107DD4004DE5792F25E024C6F582E43404F583E5E6
:077DE40033F0A3E534F022A7
:108D3700E5772FF57890061FE0FCA3E0FDA3E0FEA2
:068D4700A3E0FF753920D6
:108D4D008F388E378D368C35E4753D01F53CF53B0E
:108D5D00F53A753D01F53CF53BF53AFBFAEAC3955D
:108D6D00395031E538553DFFE537553CFEE5365573
:108D7D003BFDE535553A4D4E4F60010BAF3DAE3CD9
:108D8D00AD3BAC3A78011261FC8F3D8E3C8D3B8C36
:078D9D003A0A80C9AF03226E
:108FAA009004B07401F0A312621B00000000900448
:108FBA00B512621B00000000D211E4F55DF55EFFF8
:108FCA00740F2FF582E43406F583E0B42211EF25FD
:108FDA00E024BEF582E43404F58374FFF0A3F00FB5
:108FEA00BF04DD7F809004C6E4F0A3DFFC9006078F
:108FFA00128D3F8F77A3128D3F128D37E5782FF5AB
:02900A007922C9
:10963E00E49004B0F0A312621B000000009004B589
:0A964E0012621B00000000D211227E
:0A971800E49004B0F0D2110294EFC7
:108E10009004B0E0FF60606403605CEFB4012990EF
:108E20000604E0FF6051EF25E024ABF582E4347FD7
:108E3000F583055EE55E7002055DFFD37401939FC7
:108E4000E493955D50318027900605E0FF6028EFA0
:108E500025E024ABF582E4347FF583055EE55E70A2
:108E600002055DFFD37401939FE493955D5008E480
:088E7000F55DF55E1287DB22BF
:1087DB00900606E0FD7C007E017F001260428F2632
:1087EB00AB07E4FAF9F89004B1E0FCA3E0FDA3E0D9
:1087FB00FEA3E0FF126138AE02AF038E278F2890E5
:10880B000606E0FBFF7E00AC27AD28126030EF259B
:10881B00E0FFEE33FE7C047DC6EB25E0FB129216E7
:10882B00E52624FFFFE434FFFEEF65287003EE65B9
:10883B00277063AF26AB07FAF9F89004B1E0FCA3FD
:10884B00E0FDA3E0FEA3E0FF126138EE5407FEE467
:10885B008E298F2A129260AF26AB07E4FAF9F890B3
:10886B0004B5E0FCA3E0FDA3E0FEA3E0FF1261383A
:10887B00E42FFFEE3404FEEFFBEE5407FAE4F9F8B5
:10888B00AE29AF2AFCFDC31261D8700A9004B0E088
:10889B00B402037403F09004B1E0FCA3E0FDA3E089
:1088AB00FEA3E02401FFE43EFEE43DFDE43CFC902E
:0888BB0004B112620FD2112278
:1094EF00900606E0FD7C007E017F00126042AB0714
:1094FF00E4FAF9F89004B1E0FCA3E0FDA3E0FEA3C9
:0D950F00E0FF126138EE5407FEE4029260A6
:1082D5009004B0E06401600302842FE4F526740F76
:1082E5002526F582E43406F583E0FFF47003028465
:1082F50023EF907F3893556D700302842374132503
:1083050026F582E43406F583E01460561470030202
:1083150083951470030283C81470030283DB147001
:10832500030283EE24056003028423E52625E02469
:10833500BEF582E43404F583E0FEA3E0FFE52625DF
:10834500E02417F582E43406F583E0FCA3E0FDC3E1
:10835500EF9DEC6480F8EE6480984003028423026C
:108365008420E52625E02417F582E43406F583E02C
:10837500FEA3E0FFE52625E024BEF582E43404F5FE
:1083850083EEF0FEA3EFF04E7003028423028420F7
:10839500E52625E024BEF582E43404F583E0FEA35A
:1083A500E0FFE52625E02417F582E43406F583E0B1
:1083B500FCA3E0FDD3EF9DEC6480F8EE648098406B
:1083C5005D8058E52625E024BEF582E43404F58376
:1083D500A3E0604A8045E52625E024BEF582E43425
:1083E50004F583E0A360378032E526B4221925E041
:1083F50024BEF582E43404F583E0FEA3E0C394C80B
:10840500EE940050198014E52625E024BEF582E49B
:108415003404F583E0FEA3E04E600312962305269F
:0B842500E526C3940450030282E3220A
:109623009004B1E0FCA3E0FDA3E0FEA3E0FFA312DE
:0B963300620F9004B07402F0D211220C
:106E1E00E4F526745B2526F582E43405F583E0FF60
:106E2E00F470030271BBEF907F3893556D700302BF
:106E3E0071BB745F2526F582E43405F583E014708A
:106E4E0003026F12147003026FA4147003027046D3
:106E5E001470030270A21470030270FD2405600307
:106E6E000271BB745F2526F8E6603CE52625E0241A
:106E7E0050F582E43405F583E0FEA3E0FFE5262518
:106E8E00E02463F582E43405F583E0FCA3E0240AF4
:106E9E00FDE43CFCD3EF9DEC6480F8EE64809850EA
:106EAE00030271BB027179E52625E02450F582E4D8
:106EBE003405F583E0FEA3E0FFE52625E02463F527
:106ECE0082E43405F583E0FCA3E0FDC3EF9DEC64A2
:106EDE0080F8EE6480985029E52625E02463F808B2
:106EEE0006E6187001068606C39458EE9402500307
:106EFE000271BB745F2526F87601AD26E4FF0271A0
:106F0E00AB0271B0745F2526F8E66032E52625E007
:106F1E002450F582E43405F583E0FEA3E0FFE52678
:106F2E0025E02463F582E43405F583E0FCA3E0FD5F
:106F3E00EF6D7002EE6C70030271BB027179E52683
:106F4E0025E02450F582E43405F583E0FEA3E0FF4E
:106F5E00E52625E02463F582E43405F583E0FCA301
:106F6E00E0FDEFB5052DEEB50429E52625E02463F9
:106F7E00F80806E6187001068606C39458EE9402C9
:106F8E0050030271BB745F2526F87601AD267F0291
:106F9E000271AB0271B0745F2526F8E6603DE526FE
:106FAE0025E02450F582E43405F583E0FEA3E0FFEE
:106FBE00E52625E02463F582E43405F583E0FCA3A1
:106FCE00E024F6FDEC34FFFCC3EF9DEC6480F8EE9C
:106FDE0064809840030271BB027179E52625E02496
:106FEE0050F582E43405F583E0FEA3E0FFE52625A7
:106FFE00E02463F582E43405F583E0FCA3E0FDD3E1
:10700E00EF9DEC6480F8EE6480984029E52625E03B
:10701E002463F80806E6187001068606C39458EE37
:10702E00940250030271BB745F2526F87601AD26DB
:10703E007F020271AB0271B0745F2526F8E660170D
:10704E00E52625E02450F582E43405F583A3E060BF
:10705E00030271BB027179E52625E02450F582E426
:10706E003405F583A3E06029E52625E02463F808BE
:10707E0006E6187001068606C39458EE9402500375
:10708E000271BB745F2526F87601AD267F0302716F
:10709E00AB0271B0745F2526F8E66016E52625E092
:1070AE002450F582E43405F583E060030271BB02DF
:1070BE007179E52625E02450F582E43405F583E068
:1070CE00A36029E52625E02463F80806E61870017A
:1070DE00068606C39458EE940250030271BB745F89
:1070EE002526F87601AD267F040271AB0271B0E55C
:1070FE002625E02450F582E43405F583E0F527A338
:10710E00E0F528745B2526F582E43405F583E0640A
:10711E0022704A745F2526F8E66010C3E52894C8ED
:10712E00E527940050030271BB8040C3E52894C844
:10713E00E52794005025E52625E02463F80806E6A9
:10714E00187001068606C39458EE9402405F745F71
:10715E002526F87601AD267F0580428045745F2591
:10716E0026F8E6600FE52845277042745F2526F85D
:10717E00E4F6802EE52845276028E52625E02463E1
:10718E00F80806E6187001068606C39458EE9402B7
:10719E00401B745F2526F87601AD267F05127FC74A
:1071AE00800BE52625E02463F8E4F608F60526E5CF
:1071BE0026C394045003026E2120103E20B74005D2
:1071CE006CE56C7002056BC394C8E56B94004023AC
:1071DE00D2109004B9E060277D037F10129428AA84
:1071EE0006A9077B0178597C067D01126351129620
:1071FE00D7800CE4F56BF56C800530B702C210E554
:10720E005F700FE560700BE5617007E5627003302B
:10721E001003D38001C392089004B9E07002C20833
:10722E009004BCE0FEA3E0FFBE1105BF5702D20CD6
:10723E00EF7003EE64127041300C3EC20C9005AC40
:10724E00E060361576E57670307D037F091294285E
:10725E00AA06A9077545018A4689477542FF7543F7
:10726E007D7544EB7B017A067959127386127799F4
:10727E001296D79005ACE0F5769004B9E070030253
:10728E00732990055CE0907F3893FF90055BE0904A
:10729E007F38934FFF90055DE0907F38934FFF90BE
:1072AE00055EE0907F38934FF5299004BAE07002A6
:1072BE00A3E060169004BA74FFF5F012609745F0E3
:1072CE007008E52930E003129658E57C457B601581
:1072DE00E57C157C7002157B14457B7008E5293022
:1072EE00E103129658E57545746015E575157570D0
:1072FE000215741445747008E52930E2031296588D
:10730E00E56F456E6015E56F156F7002156E1445CD
:0C731E006E7008E52930E3031296582237
:109658007D037F18129428AA06A9077B0178597CF4
:09966800067D011263510296D740
:107FC7008D2A9004B9E07003028151EF14602714E1
:107FD700606C1470030280B51470030280E514709E
:107FE700030281142405600302814E7542FF754325
:107FF7007D7544EF80517542FF75437E754403E5F7
:108007002A75F010A424AEF9740535F0754501F50D
:10801700468947E52A25E02463F582E43405F5839C
:10802700E0FCA3E0FDEC125BB5E4FBFA79207841B4
:10803700125B138F4B8E4A8D498C480281457542DE
:10804700FF75437E75440FE52A75F010A424AEF939
:10805700740535F0754501F5468947E52A25E0247D
:1080670063F582E43405F583E0FCA3E0FDEC125BE5
:10807700B5E4FBFA79207841125B138F4B8E4A8D5A
:10808700498C48E52A25E02450F582E43405F58338
:10809700E0FCA3E0FDEC125BB5E4FBFA7920784144
:1080A700125B138F4F8E4E8D4D8C4C02814575425E
:1080B700FF75437E754423E52A75F010A424AEF9B5
:1080C700740535F0754501F5468947E52A25E0240D
:1080D70050F582E43405F583A3E0F54880607542E6
:1080E700FF75437E754423E52A75F010A424AEF985
:1080F700740535F0754501F5468947E52A25E024DD
:1081070050F582E43405F583E0F54880317542FF88
:1081170075437E75442EE52A75F010A424AEF974D4
:108127000535F0754501F5468947E52A25E02450D0
:10813700F582E43405F583E0F548A3E0F5497B01D2
:0B8147007A0679591273861296D7222F
:10779900E56D20E103027A03900546E0F53EE53EFA
:1077A900D394074003753E08129424AA06A90775C5
:1077B90045018A4689477542FF75437E7544387B82
:1077C900007A00792A1273867D027F161294289016
:1077D9000627E0F52AA3E0F52B75420075430075ED
:1077E900442A7B017A0679591290C8D3900559E049
:1077F9009406900558E06480947F4053900548E0D2
:10780900F53EE53ED394074003753E08129424AA39
:1078190006A9077545018A4689477542FF75437E62
:107829007544407B007A00792A1273867D027F169F
:10783900129428900627E0F52AA3E0F52B7542005B
:1078490075430075442A7B017A0679591290C8302C
:10785900125390054AE0F53EE53ED394074003757F
:107869003E08129424AA06A9077545018A46894744
:107879007542FF75437E7544487B007A00792A1268
:1078890073867D027F16129428900627E0F52AA3B5
:10789900E0F52B75420075430075442A7B017A0691
:1078A90079591290C8900640E0FEA3E0FFF44E60BB
:1078B90006BEFF0EBFFF0B7542FF75437E75445030
:1078C90080137542FF75437E75445A900640E0F572
:1078D90045A3E0F5467B007A00792A127386900663
:1078E90029E0F52AA3E0F52BA3E0F52CA3E0F52D7B
:1078F90075420075430075442A7B017A067959124D
:1079090090C87542FF75437E754463900642E0FC5A
:10791900A3E0FDEC125BB5E4FBFA79207841125B38
:10792900138F488E478D468C457B007A00792A1241
:10793900738690062DE0F52AA3E0F52B75420075B4
:10794900430075442A7B017A0679591290C8754219
:10795900FF75437E75446C90054CE0FCA3E0FDEC9B
:10796900125BB5E4FBFA79207841125B138F488EDC
:10797900478D468C457B007A00792A1273869006DA
:107989002FE0F52AA3E0F52B7542007543007544F5
:107999002A7B017A0679591290C8D3900559E09447
:1079A90006900558E06480947F404C7542FF75430A
:1079B9007E75447690054EE0FCA3E0FDEC125BB5C4
:1079C900E4FBFA79207841125B138F488E478D4684
:1079D9008C457B007A00792A12738690062FE0F590
:1079E9002AA3E0F52B75420075430075442A7B01F3
:1079F9007A0679591290C8027B59E56D20E2030293
:107A09007BA5900546E0F53EE53ED3940740037516
:107A19003E08129424AA06A9077545018A46894792
:107A29007542FF75437E7544897B007A00792A1275
:107A390073867D027F16129428900627E0F52AA303
:107A4900E0F52B75420075430075442A7B017A06DF
:107A590079591290C8900640E0FEA3E0FFF44E6009
:107A690006BEFF14BFFF11782A7C007D007BFF7AD8
:107A79007E7950126351801C7542FF75437E7544AF
:107A89005A900640E0F545A3E0F5467B007A007977
:107A99002A127386900629E0F52AA3E0F52BA3E0C4
:107AA900F52CA3E0F52D75420075430075442A7B3A
:107AB900017A0679591290C87542FF75437E75445B
:107AC90063900642E0FCA3E0FDEC125BB5E4FBFA2F
:107AD90079207841125B138F488E478D468C457B00
:107AE900007A00792A12738690062DE0F52AA3E020
:107AF900F52B75420075430075442A7B017A067996
:107B0900591290C87542FF75437E75449090054C93
:107B1900E0FCA3E0FDEC125BB5E4FBFA79207841C7
:107B2900125B138F488E478D468C457B007A00790E
:107B39002A12738690062FE0F52AA3E0F52B7542E9
:107B49000075430075442A7B017A0679591290C859
:107B59007542FF75437E7544809004AEE0FCA3E056
:107B6900FDEC125BB5E4FBFA79207841125B138FC7
:107B7900488E478D468C457B007A00792A12738698
:107B8900900631E0F52AA3E0F52B75420075430014
:107B990075442A7B017A0679590290C87D037F13BF
:107BA900129428AA06A9077B0178597C067D01123F
:037BB900635122F3
:108E7800301E46C21E752E01752F057530A8753136
:108E8800007532047B017A067959128F47EF601B0F
:108E9800752EFF752F7E7530997531007532047BFC
:108EA800017A067959128F47EF702C7E067F5D1282
:108EB80063907572047573B022E57345726018E5A6
:108EC80073157370021572144572700B900659F081
:088ED800127799D21FD2232268
:106390008E268F278526288527298529828528838B
:1063A000E0FF60151296E8852982852883EFF005C5
:1063B00029E52970E5052880E1852782852683E087
:1063C00070037F0122852782852683E0FF1296C411
:1063D00050130527E52770020526F582852683E000
:1063E00070E37F0222752AFFAA26A9277B01752E5A
:1063F000FF752F7E75309E753100753204128F4700
:10640000EF60030264A8E5272404F582E43526F54D
:1064100083E0FFB4310EE4F52AE5272405F529E4ED
:106420003526F528E5272405F582E43526F583E0B1
:10643000FEB4310EE4F52AE5272406F529E43526D5
:10644000F528EFB4320E752A01E5272405F529E475
:106450003526F528EEB4320E752A01E5272406F517
:1064600029E43526F528E5272404F582E43526F5C8
:1064700083E0B4330E752A02E5272405F529E435B7
:1064800026F528E5272405F582E43526F583E0B4D2
:10649000330E752A02E5272406F529E43526F5286A
:1064A000E52AB4FF037F0322AA26A9277B01752EC4
:1064B000FF752F7E7530A3753100753206128F4738
:1064C000EF700E752A03E5272406F529E43526F535
:1064D00028AA26A9277B01752EFF752F7E7530AA65
:1064E000753100753207128F47EF700E752A03E57C
:1064F000272407F529E43526F528AA26A9277B01B4
:10650000752EFF752F7E7530B2753100753207120A
:106510008F47EF700E752A03E5272407F529E43528
:1065200026F528AA26A9277B01752EFF752F7E75D3
:1065300030BA75310075320A128F47EF700E752A26
:1065400003E527240AF529E43526F528AA26A927F4
:106550007B01752EFF752F7E7530C5753100753244
:1065600007128F47EF700E752A04E5272407F529D7
:10657000E43526F528AA26A9277B01752EFF752F5D
:106580007E7530CD753100753207128F47EF700E72
:10659000752A04E5272407F529E43526F528AA26D7
:1065A000A9277B01752EFF752F7E7530D5753100BB
:1065B000753207128F47EF700E752A04E5272407FE
:1065C000F529E43526F528AA26A9277B01752EFF93
:1065D000752F7E7530DD753100753208128F47EFEB
:1065E000700E752A05E5272408F529E43526F528D7
:1065F000AA26A9277B01752EFF752F7E7530E675BB
:106600003100753206128F47EF700E752A05E527A7
:106610002406F529E43526F528AA26A9277B017545
:106620002EFF752F7E7530ED753100753206128F95
:1066300047EF700E752A05E5272406F529E435266F
:10664000F528AA26A9277B01752EFF752F7E7530A8
:10665000F4753100753207128F47EF700E752A05F9
:10666000E5272407F529E43526F528AA26A9277B5E
:1066700001752EFF752F7E7530FC75310075320661
:10668000128F47EF700E752A06E5272406F529E4D8
:106690003526F528AA26A9277B01752EFF752F7FA1
:1066A000753003753100753206128F47EF700E7525
:1066B0002A06E5272406F529E43526F528AA26A981
:1066C000277B01752EFF752F7F75300A7531007598
:1066D0003203128F47EF700E752A06E5272403F563
:1066E00029E43526F528AA26A9277B01752EFF75F2
:1066F0002F7F75300E753100753206128F47EF709F
:106700000E752A06E5272406F529E43526F528AA7C
:1067100026A9277B01752EFF752F7F7530157531E2
:1067200000753203128F47EF700E752A07E5272494
:1067300003F529E43526F528AA26A9277B01752E1D
:10674000FF752F7F753019753100753203128F4731
:10675000EF700E752A07E5272403F529E43526F5A1
:1067600028AA26A9277B01752EFF752F7F75301D5E
:10677000753100753205128F47EF700E752A07E5E7
:10678000272405F529E43526F528E52AB4FF037FFB
:106790000422E56D20E1030268E0852A7DD20DD256
:1067A0000ED20F852982852883E0FF1296C4500AF5
:1067B0000529E52970ED052880E9AA28A9297B018A
:1067C000752EFF752F7F75302375310075320212DB
:1067D0008F47EF6051AA28A9297B01752EFF752FDD
:1067E0007F753026753100753202128F47EF6036A3
:1067F000AA28A9297B01752EFF752F7F7530297571
:106800003100753202128F47EF601BAA28A9297B3D
:1068100001752EFF752F7F75302C75310075320292
:10682000128F47EF7056852982852883A3A3E0FF46
:106830006431600D852982852883A3A3A3E0B43148
:1068400004C20EC20FEF6432600D85298285288351
:10685000A3A3A3E0B43204C20DC20F852982852808
:1068600083A3A3E06433600D852982852883A3A3D5
:10687000A3E0B43304C20DC20E7F0022AA28A929C6
:106880007B01752EFF752F7F75302F7531007532A6
:1068900002128F47EF7004C20E801DAA28A9297B1F
:1068A00001752EFF752F7F753032753100753202FC
:1068B000128F47EF7006C20DC20FFF22AA28A92926
:1068C0007B01752EFF752F7F753035753100753260
:1068D00002128F47EF7006C20DC20EFF227F002208
:1068E000E56D30E208852A7DD2097F00227F0522EE
:10951C00E52C2406F582E4352BF583E0FFA3E090DF
:0B952C000796CFF0A3EFF07E077F96BC
:109537008F828E83E0FDA3E08F828E83F0A3EDF010
:019547002201
:1091C900F582E4352BF583E0FCA3E0FDA3E0FEA3E3
:0C91D900E0FF90079812620F7E077F985D
:1091E5008F828E83E0FDA3A3A3E08F828E83F0A3FD
:1091F500A3A3EDF08F828E83A3E0FD8F828E83A3E0
:10920500A3E08F828E83A3F08F828E83A3A3EDF0DC
:019215002236
:108990008E328F338C348D357C017D6D1260428533
:1089A0003982853883EFF0E0F9FF7E007C017D6D30
:1089B000126030E924031313543F1C2FFFEC3EFEDA
:1089C000C3E5339FE5329E5003E014F0853982857C
:1089D0003883E0F9FF7E007C017D6D126030C3E5D5
:1089E000339FFFE5329EFEE924031313543FFD1C21
:1089F000C3EF9DF533EE9CF5328B828A83E4F08BD6
:108A0000828A83E0FFC3940B503DEF907FBB93F5C8
:108A10003A853982853883E05403700A8B828A83D1
:108A2000E0B40102053AAF3A7E00C3E5339FE53278
:108A30009E4014C3E5339FF533E5329EF5328B82B9
:108A40008A83E004F080B88B828A83E004F0E53307
:098A500004853582853483F0228F
:1093EF00F582E4352BF583E0FFA3E0900796CFF0ED
:0D93FF00A3EFF0753007753196AF31AE3039
:10940C008F828E83E0FF75F00A84FEEF75F00A847C
:08941C00EEC454F025F0F0222B
:049424007D01AF3ED9
:109428008D3FEF75F008A4FF7C067D27E53F75F0BA
:1094380008A4FB754401128EE0E53F75F008A424EA
:0F94480027F582E43406F583E4F07E067F2722C1
:10954800E49006FAF09006F9F0C200F508C225C2C8
:1095580026C2249006FFF0A3F09006FDF0A3F09039
:0A95680006FBF0A3F0C228F515225F
:1068F000200003026CF0900000E0640A6003026C68
:10690000D9900002E0FFB4520FA3E0B4530AA3E011
:10691000B4540575A6FE80FEEF14B41D00400302BA
:106920006CD690693075F003A4C58325F0C58373D8
:106930000269870269CF0269DE0269F5026A000214
:106940006A0B026A9A026AAA026ABA026ACB026BEC
:1069500017026CD6026CD6026CD6026CD6026B287B
:10696000026B4A026B6C026B86026BAB026BBA0263
:106970006BC7026BDE026BEB026C03026C46026CAF
:106980007E026CBC026CCA752606752703E4F528E6
:1069900074032528F582E43400F583E0FFE528241C
:1069A00001FDE433FCE5272DF582E5263CF583EF78
:1069B000F00528E528B423D87B24AD27AC26E4FFD6
:1069C00012969D9007037401F012963E026B3F9061
:1069D00006037402F07C067D037B25026B2390077F
:1069E000037403F09004B0E0900704F07C077D038B
:1069F0007B02026B237404128C44128FAA026CD6A1
:106A00007405128C44129718026CD6900703740612
:106A1000F09004B1E0FCA3E0FDA3E0FEA3E0FF9052
:106A2000078512620F900606E0FBE4FAF9F8FFFE14
:106A30007D08FC129338900785E0F8A3E0F9A3E005
:106A4000FAA3E0FBD31261D84017900606E0FBE4FE
:106A5000FAF9F8FFFE7D08FC129338900785126260
:106A60000F900785E0FCA3E0FDA3E0FEA3E0FF900C
:106A7000070412620F9004B5E0FCA3E0FDA3E0FE62
:106A8000A3E0FF90070812620F9004B9E090070C92
:106A9000F07C077D037B0A026B23900703740712C7
:106AA0008C471294EFC225026CD69007037408122B
:106AB0008C47D2259006FF026BD49007037409120D
:106AC0008C47C225C226C224026CD67526057527BE
:106AD0005AE4F52874032528F582E43400F583E0B0
:106AE000FFE5282401FDE433FCE5272DF582E526AA
:106AF0003CF583EFF00528E528B4A8D87BA9AD279D
:106B0000AC267F2412969D900703740AF07C077DC3
:106B1000037B01FF026CB790055A740BF07C057D76
:106B20005A7BAA7F0A026CB7900003E0FEA3E0FF45
:106B30001292A89007037410F0C225C226C2247CCA
:106B4000077D037B017F0A026CB7900003E0FEA380
:106B5000E0FF7C077D047B80129120900703741175
:106B6000F07C077D037B817F0A026CB7900703747A
:106B700012F0A37401F0E4A3F0A3F07C077D037B83
:106B8000047F0A026CB79007037413F09004B5E019
:106B9000FCA3E0FDA3E0FEA3E0FF90070412620F58
:106BA0007C077D037B057F0A026CB7900703741492
:106BB000128C47D2269006FD801A90070374151296
:106BC0008C47C226026CD69007037416128C47D2EB
:106BD000249006FB742EF0A374E0F0026CD69007AC
:106BE000037417128C47C224026CD6E49004B9F0E7
:106BF000D2119007037418F07C077D037B017F0A94
:106C0000026CB79004B97401F0D211E4F528745BFA
:106C10002528F582E43405F583E0B42212E5282521
:106C2000E02450F582E43405F58374FFF0A3F00509
:106C300028E528B404D89007037419F07C077D0375
:106C40007B017F0A8071E4F528900001E014FFE5E4
:106C500028C39F501674032528F582E43400F58379
:106C6000E0FDAF2812906B052880DE129457900744
:106C700003741AF07C077D037B017F0A8039E4F5F9
:106C800028900001E014FFE528C39F5019E528244F
:106C900080FF74032528F582E43400F583E0FD12BB
:106CA000906B052880DB129457900703741BF07CCF
:106CB000077D037B017F0A128C50801A900003E04D
:106CC000900702F0D228C227800C900003E09007C2
:106CD00002F0D228D227C200229006F97404F09064
:106CE0000000E0FF7C007D02A3E0FB128DA4C20047
:106CF0009004ABE0F5290529E529B40303E4F5295F
:106D000074A52529F582E43403F583E07003026E4F
:106D10001DE4F528F52A75F08CE529A42401F582F7
:106D2000E5F03402F583E02403FFE433FEC3E528F5
:106D30009FEE6480F8748098502475F08CE529A447
:106D40002400F582E5F03402F583E5822528F582FA
:106D5000E43583F583E0252AF52A052880B8E52A5D
:106D6000701675F08CE529A42400F582E5F0340254
:106D7000AF82FEE4FD12402274A52529F582E43499
:106D800003F583E4F09004ABE529F00529E529B487
:106D90000303E4F52974A52529F582E43403F5837A
:106DA000E0607AE4F528F52A75F08CE529A4240141
:106DB000F582E5F03402F583E02403FFE433FEC3FB
:106DC000E5289FEE6480F8748098502475F08CE577
:106DD00029A42400F582E5F03402F583E582252814
:106DE000F582E43583F583E0252AF52A052880B865
:106DF000E52A701675F08CE529A42400F582E5F0EB
:106E00003402AF82FE7D0112402274A52529F5824D
:0E6E1000E43403F583E4F09004ABE529F022AE
:0C8C4400900703F07C077D037B017F0A92
:108C50002091062022037F0122E50A60037F012282
:108C6000900100EFF0A3EBF02FFFE4FEEEC39B506A
:108C700024ED2EF582E43CF583E0FA74022EF582B1
:108C8000E43401F583EAF0ED2EF582E43CF583E06F
:108C90002FFF0E80D7EFF404FF74022EF582E43428
:108CA00001F583EFF0EE2403900701F0EB2402F5C9
:108CB0000A750901900100E0F5D99006FA7404F0F4
:038CC0007F002210
:1086CC008F328C338D348B352091062022037F0121
:1086DC0022E50A700302877053A7EF900701E0FFB1
:1086EC002400F582E43401F583E532F0F5367401AB
:1086FC002FF582E43401F583E535F02536F536E4C3
:10870C00F9E9C395355035E53429F582E43533F56F
:10871C0083E0FFE9FD900701E02DFDE433FC7402DA
:10872C002DF58274013CF583EFF0E53429F582E4F4
:10873C003533F583E02536F5360980C5E536F40486
:10874C00FFE9FD900701E02DFDE433FC74022DF5EB
:10875C008274013CF583EFF0E5352403250AF50A14
:10876C0043A71022900100E532F0F536A3E535F071
:10877C002536F536E4F9E9C39535502AE53429F563
:10878C0082E43533F583E0FF740229F582E4340189
:10879C00F583EFF0E53429F582E43533F583E025F4
:1087AC0036F5360980D0E536F404FF740229F582DB
:1087BC00E43401F583EFF0E5352402F50A7509017F
:0F87CC00900100E0F5D99006FA7404F07F0022C6
:03400000028152E8
:03400F00028430F8
:02402000551039
:10957200E49004A8F0A3F09003A4F0A3F0A3F0A356
:10958200F09004ACF09004AAF0A37402F075985025
:08959200438780D2ACD2AF2266
:10843000C0E0C0F0C083C082C0D075D000C004C00E
:1084400005C006C007209803028542AF99858C10AD
:10845000E511D395104015E510700375104CE5102B
:1084600024B3C39511D394084011800AC3E5109535
:1084700011D3940840059004AAE4F08510119004EB
:10848000AAE0703BEFD394FA5012EFC3940B500361
:1084900002853EEFD39420400302853E9004AA74E7
:1084A00001F09004ACE075F08CA42400F582E5F0B6
:1084B0003402F583EFF09004A87401F002853E9039
:1084C00004A8E0FE04F09004ACE0FD75F08CA42458
:1084D00000F582E5F03402F583E5822EF582E4357D
:1084E00083F583EFF09004A8E0FFD39402404F752A
:1084F000F08CEDA42401F582E5F03402F583E0244C
:1085000003FDE433FCEFB50528E4B504249004A88A
:10851000F09004ACE024A5F582E43403F583740103
:10852000F09004AAE4F09004ACE004F0B40302E498
:10853000F09004A8E0B48C06E4F09004AAF0C2988D
:10854000802F9003A4E0601C9004A9E0FF04F07465
:10855000A82FF582E43403F583E0F5999003A4E0B5
:1085600014F0800B9004A8E4F09004AAF0D29CC20E
:1085700099D007D006D005D004D0D0D082D083D0F7
:04858000F0D0E03225
:108DA4009003A4E060037F01229003A8EFF0A3EBFB
:108DB400F02FFFE4FEEEC39B5024ED2EF582E43C3D
:108DC400F583E0FA74AA2EF582E43403F583EAF01D
:108DD400ED2EF582E43CF583E02FFF0E80D7EFF40F
:108DE40004FF74AA2EF582E43403F583EFF0EB2438
:108DF400029003A4F09004A97401F0C29C9003A80B
:0C8E0400E0F5999006F97404F07F00225C
:1096F900C290D297C296D295C294E49007B2F02252
:109216008E2B8F2C8C2D8D2E8B2FE4F5AE75A64CB8
:10922600C294C2977F84128CC3E4FF128CC3E52BD1
:10923600FF128CC3AF2C128CC3E4F530E530C39516
:109246002F5014E52E2530F582E4352DF583E0FF09
:0A925600128CC3053080E5D2972288
:109120008E2B8F2C8C2D8D2E8B2FC294C297E4F515
:10913000AE75A64C7FD6128CC3E4FF128CC3E52B10
:10914000FF128CC3AF2C128CC3E4FF128CC3E4F566
:1091500030E530C3952F501A128CFDE52E2530F5E1
:1091600082E4352DF583EFF0E4F5AE75A64C0530BD
:0591700080DFD2972210
:109260008E2B8F2CD3E52C94FFE52B940F5038E4F4
:10927000F5AE75A64CC294C2977F83128CC3E52CC1
:10928000AE2B7806CEC313CE13D8F9FF128CC3E5EC
:109290002CAE2B7802C333CE33CED8F9FF128CC359
:0892A000E4FF128CC3D29722F7
:1092A8008E2B8F2CD3E52C94FFE52B940F5038E4AC
:1092B800F5AE75A64CC294C2977F55128CC3E52CA7
:1092C800AE2B7806CEC313CE13D8F9FF128CC3E5A4
:1092D8002CAE2B7802C333CE33CED8F9FF128CC311
:0892E800E4FF128CC3D29722AF
:1092F0008E268F27D3E52794FFE526940F5038E478
:10930000F5AE75A64CC294C2977F53128CC3E52765
:10931000AE267806CEC313CE13D8F9FF128CC3E560
:1093200027AE267802C333CE33CED8F9FF128CC3D2
:08933000E4FF128CC3D2972266
:109175008F268D2712948AD290D296D29400C294CB
:10918500C296D29400C294D296D29400C294C2964A
:10919500D29400C294E4FFE526339296D29400C29D
:1091A50094E52625E0F5260FBF08ECE4FFE5273317
:1091B5009296D29400C294E52725E0F5270FBF08C3
:0491C500ECC2902246
:10906B008F2B8D2C12948AD290D296D29400C294CC
:10907B00C296D29400C294D296D29400C294D29645
:10908B00D29400C294E4FFE52B339296D29400C2A3
:10909B0094E52B25E0F52B0FBF08ECE4FFE52C3313
:1090AB009296D29400C294E52C25E0F52C0FBF08C4
:0D90BB00ECC29000D290003095FDC29022D2
:108EE0008C418D42A903D290D296D29400C294D2E2
:108EF0009400C294C296D29400C294E54424FF9296
:108F000096D29400C294E4FDEF339296D29400C2BC
:108F100094EF25E0FF0DBD08EFE4FFEFC399502467
:108F2000E4FDFEEE25E0FED294309503430601C237
:108F3000940DBD08EEE5422FF582E43541F583EE50
:078F4000F00F80D7C2902260
:1093B8009007B2E0FF602FEFB40109129457E490D0
:1093C80007B2F0229007B1E0FF851482851383E08D
:1093D800FD1291759007B1E004F00514E5147002D0
:0793E8000513A3E014F022BD
:10945700D290D296D29400C294C296D29400C2946B
:10946700C296D29400C294C296D29400C294C29675
:10947700D29400C294E4FFD29400C2940FBF07F7BE
:03948700C290226E
:10948A00D290D296D29400C294C296D29400C29438
:10949A00C296D29400C294D296D29400C294D29622
:1094AA00D29400C294E4FFD29400C2940FBF07F78B
:0394BA00C290223B
:10969D009007B2E0700D9007B1EFF08C138D14EBC5
:0496AD0004A3F02200
:109671003011139007B2E0700DC2117C047DB07BF4
:079681000A7FC812969D222A
:108CC300EF339296D294C294339296D294C2943351
:108CD3009296D294C294339296D294C2943392963B
:108CE300D294C294339296D294C294339296D294ED
:108CF300C294339296D294C29422D294A295C294EF
:108D030033D294A295C29433D294A295C29433D20F
:108D130094A295C29433D294A295C29433D294A2CE
:108D230095C29433D294A295C29433D294A295C29D
:048D33009433FF2254
:10858400415445300D000D0A4F4B0D0A004154452E
:10859400300D0D0A4F4B0D0A0041542B4350494EE8
:1085A4003F0D000D0A2B4350494E3A205245414499
:1085B400590D0A0041542B435245473F0D000D0A03
:1085C4002B435245473A20302C310D0A0D0A4F4BAC
:1085D4000D0A000D0A2B435245473A20302C350D25
:1085E4000A0D0A4F4B0D0A0041542B435343423D9D
:1085F400310D0041542B43534E533D340D0041542F
:108604002653310D0041542B434D47463D310D0057
:1086140041542B43504D533D22534D222C22534D54
:10862400222C22534D220D000D0A2B43504D533A58
:108634000041545E53534D53533D310D000D0A52C6
:10864400494E470D0A004154410D000D0A434F4E57
:108654004E454354203936303000504153533F0087
:1086640041542B4353510D000D0A2B4353513A00EF
:1086740041542B434D47533D000D000D0A3E00531A
:10868400513A001A000D0A2B434D47533A00415406
:108694002B434D474C3D2252454320554E524541B4
:1086A40044220D000D0A2B434D474C3A0041542BF4
:1086B400434D47443D2562750D0041542B435049B9
:0886C4004E3D585858580D00B6
:1096B100E4F50DF50B750C64C222C2B3C21FC220C2
:0396C100C223229F
:10509D002091069005A7E07011E4F50DF50B750C48
:1050AD0064C222300402F508C204E50DB4230040A9
:1050BD0003025B0F9050C8F828287302513102513A
:1050CD00530251E10251FB02520C02525B02527328
:1050DD000252E30252FF0253410253690253AB02E3
:1050ED0053D302541702543F0254820254AA02545D
:1050FD00EE0255190255580255C402560F02564478
:10510D000256900256C00256D802573902579502E0
:10511D0058AB02590602592202593D0259AB025AA7
:10512D00BC025AF1E50C150C7002150B14450B70F1
:10513D0012750D017A8579841295C1750B00750C68
:10514D0064D204C22222E50C150C7002150B144515
:10515D000B7007F50DF50B750C64E508C39406404F
:10516D0033752EFF752F8575308A753100753206B2
:10517D007B017A007900128F47EF70189005ADE032
:10518D0030E105750D05800C1294BD750B00750C85
:10519D00C8750D02E508C3940B5003025B0F752E05
:1051AD00FF752F8575309175310075320B7B017A46
:1051BD00007900128F47EF6003025B0F9005ADE0A1
:1051CD0030E104750D05221294BD750B00750CC8E8
:1051DD00750D0222E50C150C7002150B14450B60B4
:1051ED0003025B0F750D03F50B750C64805C7A85FE
:1051FD00799D1295C1750B00750CC8750D0422E5CE
:10520D000C150C7002150B14450B7013F50B750C6A
:10521D0064150FE50F6005750D038003E4F50DE5CD
:10522D0008C394105003025B0F752EFF752F857503
:10523D0030A77531007532107B017A007900128F1D
:10524D0047EF6003025B0F750D05750F05227800A2
:10525D007C017D017BFF7A8579B81263511295CC63
:10526D00750D060258A5E50C150C7002150B1445AD
:10527D000B7013F50B750C64150FE50F6005750DAF
:10528D00058003E4F50DE508C39414401D752EFF4C
:10529D00752F857530C27531007532147B017A001A
:1052AD007900128F47EF70028028E508C3941450DF
:1052BD0003025B0F752EFF752F857530D775310085
:1052CD007532147B017A007900128F47EF6003026B
:1052DD005B0F750D072278007C017D017BFF7A85C0
:1052ED0079EC1263511295CC750B00750C64750D2C
:1052FD000822E50C150C7002150B14450B7007F503
:10530D000DF50B750C64E508C394065003025B0F95
:10531D00752EFF752F8575308A7531007532067BB8
:10532D00017A007900128F47EF6003025B0F750D54
:10533D00090254E9E50C150C7002150B14450B60B0
:10534D0003025B0F78007C017D017BFF7A8579F785
:10535D001263511295CC750D0A02578EE50C150C82
:10536D007002150B14450B7007F50DF50B750C64DC
:10537D00E508C394065003025B0F752EFF752F854C
:10538D0075308A7531007532067B017A007900120D
:10539D008F47EF6003025B0F750D0B0254E9E50CAF
:1053AD00150C7002150B14450B6003025B0F780092
:1053BD007C017D017BFF7A8679021263511295CCB7
:1053CD00750D0C02578EE50C150C7002150B14455E
:1053DD000B7007F50DF50B750C64E508C3940650BD
:1053ED0003025B0F752EFF752F8575308A753100A1
:1053FD007532067B017A007900128F47EF60030248
:10540D005B0FF508750D0D0254E9E50C150C7002D6
:10541D00150B14450B6003025B0F78007C017D01B9
:10542D007BFF7A8679091263511295CC750D0E02A8
:10543D00578EE50C150C7002150B14450B7007F506
:10544D000DF50B750C64E508C394065003025B0F54
:10545D00752EFF752F8575308A7531007532067B77
:10546D00017A007900128F47EF6003025B0FF50898
:10547D00750D0F8067E50C150C7002150B14450B9F
:10548D006003025B0F78007C017D017BFF7A8679DA
:10549D00141263511295CC750D1002578EE50C1533
:1054AD000C7002150B14450B7007F50DF50B750CF3
:1054BD0064E508C394085003025B0F752EFF752F2A
:1054CD008675302C7531007532087B017A007900B4
:1054DD00128F47EF6003025B0F750D11F50B02572D
:1054ED0035E50C150C7002150B14450B6003025BB2
:1054FD000F78007C017D017BFF7A8679351263512F
:10550D001295CCE4F508750D1202560AE50C150C32
:10551D007002150B14450B7007F50DF50B750C642A
:10552D00E508C394065003025B0F752EFF752F859A
:10553D0075308A7531007532067B017A007900125B
:10554D008F47EF6003025B0F025B07E50C150C70D4
:10555D0002150B14450B700BC2B3F50B750CC8750A
:10556D000D1E22301F04C2218005302006D2217568
:10557D000D1822E508C394065003025B0F752EFF2C
:10558D00752F867530417531007532067B017A00B5
:10559D007900128F47EF6003025B0F78007C017D6D
:1055AD00017BFF7A86794A1263511295CC750D14E1
:1055BD00750B01750C9022E50C150C7002150B1472
:1055CD00450B700C750D13F50B750CC8D2B3F508A2
:1055DD00E508C3940E5003025B0F752EFF752F86E1
:1055ED0075304F75310075320E7B017A00790012DE
:1055FD008F47EF6003025B0FF508750D15F50B0274
:10560D005791E50C450B6013E50C150C7002150B4D
:10561D0014450B6003025B0FF5082278007C017DB9
:10562D00017BFF7A86795E1263511295CC750D164A
:10563D00750B00750C2822E50C450B6018E50C1553
:10564D000C7002150B14450B700B750D13F50B75C6
:10565D000CC8D2B322E508C394045003025B0F7546
:10566D002E01752F057530A87531007532047B013B
:10567D007A007900128F47EF6003025B0F750D17EB
:10568D000259A5E50C450B6013E50C150C700215C0
:10569D000B14450B6003025B0FF50822D222C204E6
:1056AD0020B603025B0FC222D204750B00750C14D9
:1056BD0002591E78007C017D017BFF7A8679641288
:1056CD0063511295CC750D19025900E50C150C702E
:1056DD0002150B14450B7006750E63750D1AE50852
:1056ED00C3940A5003025B0F752EFF752F8675301C
:1056FD006C7531007532077B017A007900128F4786
:10570D00EF6003025B0F900008E024D0F50EA3E0DC
:10571D00FF642C600DE50E75F00AA4FEEF2E24D06B
:10572D00F50E750D1A750B00750C052278007C01B0
:10573D007D017BFF7A86797412635130230B75429C
:10574D0001754306754445801720210B754201757F
:10575D00430575446B80097542017543057544EF2A
:10576D007B017A0179001290C87542FF75438675E9
:10577D00447D7B017A0179001290C81295CC750D8C
:10578D001B750B00750C6422E50C150C7002150BC6
:10579D0014450B7008F50B750C64F50D22E508C367
:1057AD0094035003025B0F752EFF752F8675307FA6
:1057BD007531007532037B017A007900128F47EF46
:1057CD006003025B0F78007C017D017B017A057916
:1057DD007F1263517542FF75438675447D7B017A57
:1057ED000179001290C87542017543057544937B8C
:1057FD00017A0179001290C87542FF754386754490
:10580D007D7B017A0179001290C87542FF75438640
:10581D007544837B017A0179001290C8E50E75F00D
:10582D000A842430900785F0E50E75F00A84E5F0C2
:10583D002430A3F0E4A3F075420175430775448548
:10584D007B017A0179001290C87542FF7543867508
:10585D00447D7B017A0179001290C87B017A017930
:10586D0000129688C374809FF531E49EF530752D36
:10587D0001752E06752F597B017A017900128BBBAC
:10588D007542FF7543867544877B017A0179001255
:10589D0090C81295CC750D1C750B00025B0CE50CB8
:1058AD00150C7002150B14450B7012F50B750C646D
:1058BD00F50D302103C22022C21FC22322E508C3E9
:1058CD0094085003025B0F752EFF752F8675308976
:1058DD007531007532087B017A007900128F47EF20
:1058ED006003025B0F302104C2208004C21FC2235B
:1058FD00750D1D750B000259A7E50C150C700215E1
:10590D000B14450B6003025B0FE4F508F50B750CEA
:10591D00C8750D132278007C017D017BFF7A867995
:10592D00921263511295CCE4F508750D1F025AECD5
:10593D00E508C394084021752EFF752F867530A894
:10594D007531007532087B017A007900128F47EFAF
:10595D007006750D20025AECE508C39406402675B5
:10596D002EFF752F8575308A7531007532067B01D6
:10597D007A007900128F47EF700B750D13F50B75CB
:10598D000CC8F50822050CE50C7002050B641445D6
:10599D000B6003025B0FF50DF50B750C1422050C56
:1059AD00E50C7002050BC39402E50B940050030245
:1059BD005B0F74002508F582E43400F583E4F07B79
:1059CD00017A0079087D2C129607AE02AF018E2662
:1059DD008F278F828E83E4F07B017A007908128BFA
:1059ED000D900644EFF0E5272401FFE43526FAA9D2
:1059FD00077B017D2C129607AE02AF018E288F29F1
:105A0D00EF2401FFE43EFAA9077B017D2C129607D6
:105A1D00AE02AF018E268F278F828E83E4F0E529AB
:105A2D002402FFE43528FAA9077B0178457C067D21
:105A3D00011263517B017A0679457D22129607AEDC
:105A4D0002AF018E288F298F828E83E4F0E5272403
:105A5D0003FFE43526FAA9077B017D22129607AED6
:105A6D0002AF018E288F298F828E83E4F0EF2403FD
:105A7D00FFE43EFAA9077B017D0D129607AE02AF3A
:105A8D00018E268F278F828E83E4F074032529F5EE
:105A9D0029E43528F528FAA9297B0178597C067D5A
:105AAD0001126351750D21E4F50BF50CF508220576
:105ABD000CE50C7002050BC39403E50B94004042FA
:105ACD007542FF7543867544B1900644E0F5457BFC
:105ADD00017A0179001273861295CC750D22E4F5C9
:105AED000BF50C22050CE50C7002050BC3940AE5B1
:105AFD000B9400400DD21EE4F508750D13F50B75D2
:035B0D000CC8229F
:0B95C10078007C017D017BFF126351EC
:1095CC007B017A017900129688EF14F50A7509016E
:0A95DC00E4F508900100E0F5D92243
:1094BD0078007C017D017BFF7A8679BE1263519025
:1094CD0005A8E0900108F09005A9E0900109F09041
:1094DD0005AAE090010AF09005ABE090010BF002B7
:0294ED0095CC1C
:1096D70090056BE06002D21F9005EFE06002D22098
:0196E7002260
:105B1000025C2DEC5D046005E859047003025C230F
:105B2000125BEE580460F6EC4860F2EC7004FDFE87
:105B3000FF22C860DB2481C85009C3986002500668
:105B4000025C2A9850CAF582E9294B4A7005AB825B
:105B5000025C1975F0007C1A7880C3EF9BEE9AED19
:105B600099400DC3EF9BFFEE9AFEED99FDE842F0E0
:105B7000DC23ACF0D0E0FFD0E0FED0E0FDAB822033
:105B8000E7101BEB60BAEC2CFCEF33FFEE33FEEDBD
:105B900033FD025C05E803F830E705C0F075F0005E
:105BA000EF2FFFEE33FEED33FD40B830E7C280AAA1
:105BB00075F020800E75F010800575F0087D007E70
:105BC000007F003392D530D5031261CAEC33401008
:105BD000EF33FFEE33FEED33FDEC33FCD5F0ED2279
:0E5BE000E5F0247EA2D513CC92E7CDCEFF22B5
:10732A00E5562442F8E6055622783F301C02784298
:10733A00E475F00112624F025FD82015EB7F2ED25E
:10734A00158018EF540F2490D43440D4FF30190B11
:10735A00EF24BFB41A0050032461FFE557600215F9
:10736A0057055AE55A70020559301C0D783FE475E5
:10737A00F00112624FEF02601E02959A7403D21C4A
:10738A008003E4C21CF5568B3F8A408941E4F557D5
:10739A00F559F55AE55760077F2012736580F57530
:1073AA0058FFC216C215C217C218C21AC21BC21D82
:1073BA00127333FF700D301C057F00127376AF5ABB
:1073CA00AE5922B4255FC2D5C219127333FF24D035
:1073DA00B40A00501A75F00A785730D50508B6FF76
:1073EA000106C6A426F620D5047002D21880D92434
:1073FA00CFB41A00EF5004C2E5D219027663D2164E
:10740A0080C6D21580C0D21780BCD2D580BAD21A13
:10741A0080B47F201273652017077401B5570040A6
:10742A00F112732AFF12736502739ED21DD21B805A
:10743A009512732AFB12732AFA12732AF94A4B70AD
:10744A0006795A7A777BFF20172EE557602A7E0045
:10745A008E82758300125FF160060EEE655870F039
:10746A00C2D5EBC0E0EAC0E0E9C0E0EE1276C3D0D4
:10747A00E0F9D0E0FAD0E0FB125FD8FF60AAEBC0D7
:10748A00E0EAC0E0E9C0E0127365D0E02401F9D077
:10749A00E03400FAD0E0FBE5580460DCD558D98026
:1074AA0087D21780A21276A660F7E55870010412F7
:1074BA005C38A958600DE558600914F55812774DE3
:1074CA00EF60F3EA30E702F404C3995077EAF4254F
:1074DA00580430E701E404F558800D1276A660C11D
:1074EA00EA05582558125C38EA7855F630E701E47F
:1074FA00255804D55804201A01141276C3E4C0E0B2
:10750A0012774D7855E6601320E70714F612734D8B
:10751A00802204F6D0E014C0E07F0012734DE558D3
:10752A0060071273441558800B301A03127344D043
:10753A00E002739ED0E00480C51276A660A0E558EA
:10754A0004125C387855EAF6E558201A02600104FC
:05755A0024041276C3B9
:10755F0074FF04C0E012774D12734DE558201A02E4
:10756F006003127344D0E0B558E87F451273577823
:10757F0055E67F2B30E7047F2DF404C0E0127365CE
:10758F00D0E075F00A84C0F012734ED0E012734E43
:10759F0002739E791080027908C21BC21D8008D227
:1075AF00D5790A8004790AC2D5E558047002F558D6
:1075BF00E4FAFDFEFF12732AFC7B082016131273E8
:1075CF002AFD7B1030150A12732AFE12732AFF7BD5
:1075DF0020EC3382D592D55013C3E43015069FFFAC
:1075EF00E49EFEE42016039DFDE49CFCE4CBF8C270
:1075FF0016EC700CCFCECDCCE824F8F870F38017D2
:10760F00C3EF33FFEE33FEED33FDEC33FCEB33FB17
:10761F00994002FB0FD8E9EB301605F8D0E0C448CB
:10762F00B216C0E00AEC4D4E4F78207B0070C2EAD4
:10763F00B5580040BCC0E01276C5D0F0D0E020169F
:10764F0004C4C0E0C4B216C0F012734ED0F0D5F02F
:10765F00EB02739E12625F743B5375A258740C4C0D
:10766F0074084275A64F75AE4475AE4974214375C3
:10767F00B45574E54675434574AF47777A50741027
:10768F002D74142E74372B74182374352077632AB6
:10769F0073D0480000742FE558B4FF0375580612D5
:1076AF00732AFC12732AFD12732AFE12732AFF78B3
:1076BF004E025C67790AA2D5201814301A09B91046
:1076CF00020404B9080104A2D5201B0250010420B2
:1076DF0017689217B557005034C0E07F2030181943
:1076EF007F30A217721B721A500F12771CC217C26B
:1076FF001BC21AC21D7F30800F301A03E9C0E0127F
:10770F007365301A03D0E0F9D0E0B557CC301A17B3
:10771F007F30B9100C1273657F583019077F78804E
:10772F0003B908031273653017057F2D0273657F48
:10773F0020201DF87F2B201BF322921780CF7F0074
:10774F00B407005005244EF8E6FF22286E756C6CC6
:10775F002900D21612732A3016F8C216785730D570
:10776F000108F60273D02D5043495812732A24038F
:10777F00B405004001E490777593127356743A1272
:0A778F007356D2187557040275A254
:105BEE00E9D2E7C933E833F892D5EDD2E7CD33ECFD
:075BFE0033FC5002B2D52276
:105C0500EC30E7100FBF000C0EBE00080DBD000400
:105C15000BEB6014A2D5EB13FCED92E7FD2274FFAC
:105C2500FCFDFEFF22E480F8A2D574FF13FC7D8005
:035C3500E480EF19
:105C3800F920E72824F950037907E4F42402FB1833
:105C4800DBFDE624FB5014E9600DE4F618E604F6E3
:0F5C5800B40A08E4F6D9F57401F60A22C2D5227F
:105C6700ED33EC3392D5FA602AB4FF33EDC2E77B0C
:105C7700FF60067A5C798CE4227A5C799520D504FA
:105C87007A5C7990224E614E002B494E46002D4991
:105C97004E4600E47A08F608DAFC7B00740722E82F
:105CA700C0E0ECC0E0EDC0E0EEC0E0EFC0E0EA75B8
:105CB700F010A4CAABF075F04DA42BFBE435F0FC53
:105CC700EA2410FAEB34C5FBEC34D9FCEDC2E7FF4C
:105CD70075F056A4F42411C5F0F434C58FF0A42A46
:105CE700E5F03BE43CF620E714125F98D0E0FFD0E4
:105CF700E0FED0E0FDD0E0FC125B138014F4041248
:105D07005F98D0E0FFD0E0FED0E0FDD0E0FC125E6F
:105D170062D0E0F8E6FAEDD2E7CD33EC332482FB2C
:105D2700E4C3CF33CFCE33CECD33CD33DBF37B07D5
:105D370075F00A846004F6081B0AE5F0F6088FF090
:105D4700740AA4FFACF08EF0740AA42CFEACF050D9
:105D5700010C8DF0740AA42CFDE435F0F608DBDEA7
:035D67007407229C
:105D6A00025C23E86480F8E933E83360110460F0E8
:105D7A00ED33EC337009E8FCE9FDEAFEEBFF22049F
:105D8A0060DED3EB9FEA9EE99DE8C2E78CF0C2F79A
:105D9A0095F0400CE8CCF8E9CDF9EACEFAEBCFFB66
:105DAA00125BEE85D0F05804700320D5B3E8047076
:105DBA00075002B2D5025C2D92D5EC0460F7E4CC10
:105DCA00C0E0C398F8603B94186008400DD0E0FB2F
:105DDA00025C05E4FBFAC9FC8028E830E406E4C961
:105DEA00FBE4CAFCE830E305E4C9CACBFCE8540783
:105DFA006010F8C3E913F9EA13FAEB13FBEC13FC8E
:105E0A00D8F130F52FC3E49CFCEF9BFFEE9AFEED30
:105E1A0099FDD0E0FBEF4E4D4C701222DB03025C81
:105E2A002AEC2CFCEF33FFEE33FEED33FDED30E7C9
:105E3A00EB025C05EF2BFFEE3AFEED39FDD0E0FBFD
:105E4A0050130BBB0003025C2DED13FDEE13FEEFA6
:085E5A0013FFEC13FC025C05D0
:105E6200EC4D6011E8497017ED33EC3304600DE43A
:105E7200FCFFFEFD22E933E8330470F8025C2312D2
:105E82005BEE58046009E4CC2481500628500902D4
:105E92005C2D284003025C2AC0E0EB4A7044B980C2
:105EA20006D0E0FB025C19EF4E701CBD8008EBFFD0
:105EB200EAFEE9FD80EBE98DF0A4FEE5F0025F4B1E
:105EC200E9CDF9EAFEEBFFEF89F0A4FCE5F0CE891B
:105ED200F0A42EFFE435F0CD89F0A42DFEE435F0D8
:105EE2008067EF4E7005BD80D780C3EF8BF0A4AC06
:105EF200F0EE8BF0A42CFCE435F0F8EF8AF0A42C41
:105F0200E5F038FCE433CB8DF0A42CFCE5F03BF853
:105F1200EE8AF0A42CFCE5F038F8E433CF89F0A443
:105F22002CFCE5F038CF3400CE89F0A42FFFE5F049
:105F32003EFEE433C98DF0A42EFEE5F039CD8AF0A1
:105F4200A42FFFE5F03EFEE43DFD33D0E0FB500719
:105F52000BBB000F025C2DEC2CFCEF33FFEE33FE8B
:065F6200ED33FD025C05B9
:105F68003F8000004120000042C80000447A000041
:105F7800461C400047C35000497424004B189680C3
:105F88004CBEBC205A0E1BCA6753C21C749DC5AEBA
:105F9800FB60065407601C2323125FC6EB5438606D
:105FA80009125FB2125FC1125E62ECF8EDF9EEFA07
:105FB800EFCB22EB125FC180F1543803241C905FB1
:105FC80068FE93FC0EEE93FD0EEE930ECE93FF2229
:105FD800BB010689828A83E0225002E722BBFE02C7
:095FE800E32289828A83E49322FA
:105FF100BB010CE58229F582E5833AF583E0225065
:1060010006E92582F8E622BBFE06E92582F8E222AE
:0D601100E58229F582E5833AF583E49322C8
:10601E00BB010689828A83F0225002F722BBFE0161
:02602E00F3225B
:10603000EF8DF0A4A8F0CF8CF0A428CE8DF0A42E84
:02604000FE223E
:10604200BC000BBE0029EF8DF084FFADF022E4CC42
:10605200F875F008EF2FFFEE33FEEC33FCEE9DEC0B
:10606200984005FCEE9DFE0FD5F0E9E4CEFD22ED51
:10607200F8F5F0EE8420D21CFEADF075F008EF2F9B
:10608200FFED33FD4007985006D5F0F222C398FD8C
:056092000FD5F0EA2229
:10609700C5F0F8A3E028F0C5F0F8E5821582700294
:0660A7001583E038F02231
:1060AD00E88FF0A4CC8BF0A42CFCE98EF0A42CFC92
:1060BD008AF0EDA42CFCEA8EF0A4CDA8F08BF0A410
:1060CD002DCC3825F0FDE98FF0A42CCD35F0FCEB6F
:1060DD008EF0A4FEA9F0EB8FF0A4CFC5F02ECD3934
:0F60ED00FEE43CFCEAA42DCE35F0FDE43CFC22A1
:1060FC0075F008758200EF2FFFEE33FECD33CDCC5B
:10610C0033CCC58233C5829BED9AEC99E5829840DD
:10611C000CF582EE9BFEED9AFDEC99FC0FD5F0D6BA
:10612C00E4CEFBE4CDFAE4CCF9A88222B800C1B9E4
:10613C000059BA002DEC8BF084CFCECDFCE5F0CB22
:10614C00F97818EF2FFFEE33FEED33FDEC33FCEB5B
:10615C0033FB10D703994004EB99FB0FD8E5E4F916
:10616C00FA227818EF2FFFEE33FEED33FDEC33FC03
:10617C00C933C910D7059BE99A4007EC9BFCE99AF7
:10618C00F90FD8E0E4C9FAE4CCFB2275F010EF2F3C
:10619C00FFEE33FEED33FDCC33CCC833C810D7073C
:1061AC009BEC9AE899400AED9BFDEC9AFCE899F877
:0E61BC000FD5F0DAE4CDFBE4CCFAE4C8F9220A
:10933800C2D5E830E70FB2D5E4C39BFBE49AFAE460
:1093480099F9E498F8EC30E717B2D512936E1261E8
:1093580038E4C39BFBE49AFAE499F9E498F88003AB
:1093680012613830D50DE4C39FFFE49EFEE49DFDF5
:04937800E49CFC2253
:0E61CA00C3E49FFFE49EFEE49DFDE49CFC22E6
:1061D800EB9FF5F0EA9E42F0E99D42F0E89C45F01D
:0161E8002294
:1061E900E8600FECC313FCED13FDEE13FEEF13FF94
:0361F900D8F122B8
:1061FC00E8600FEFC333FFEE33FEED33FDEC33FC01
:03620C00D8F122A4
:0C620F00ECF0A3EDF0A3EEF0A3EFF02202
:10621B00A8828583F0D083D0821262351262351248
:10622B006235126235C082C08322E493A3C583C555
:10623B00F0C583C8C582C8F0A3C583C5F0C583C8A4
:04624B00C582C8221E
:10624F00FAE6FB0808E6F925F0F618E6CA3AF62250
:10625F00D083D082F8E4937012740193700DA3A3CE
:10626F0093F8740193C0E0E8C0E022740293686071
:06627F00EFA3A3A380DFE2
:10959A00EFB40A07740D1295A5740A309811A899A8
:1095AA00B8130CC2983098FDA899C298B811F63031
:0795BA0099FDC299F5992209
:1096C400EFC394094005EF940E4003BF2003D380F9
:0396D40001C322AD
:1096E800EFC39461400AEF947B5005EF24E0FF221A
:0196F800224F
:1090C8008B3F8A4089418B458A468947AB3F05419A
:1090D800E541AA407002054014F9125FD870ED749A
:1090E800FF2541F54174FF3540F540AB420544E5A5
:1090F80044AA437002054314F9125FD8FFAB3F0539
:1091080041E541AA407002054014F9EF12601E7053
:08911800DAAB45AA46A9472283
:108BBB008B2A8A2B892CE4F532F533D3E5319400DB
:108BCB00E53064809480406AAB2AAA2BA92C8533AC
:108BDB0082853283125FF1600A0533E53370E90554
:108BEB003280E5AB2DAA2EA92F125FD86034052F4A
:108BFB00E52F7002052E14F9125FD8FFAB2AAA2BB2
:108C0B00A92C0533E533AC327002053214F5828C96
:108C1B0083EF12636EE53115317002153014453058
:108C2B0070C1AB2AAA2BA92C853382853283E4121F
:098C3B00636EAB2AAA2BA92C22BE
:108F47008B2B8A2C892DAB2EAA2FA930125FD8FE26
:108F5700AB2BAA2CA92D125FD8FF6E702BEF600DDB
:108F6700E53215327002153114453170037F002246
:108F77007401252DF52DE4352CF52C74012530F5DC
:108F870030E4352FF52F80BEAB2BAA2CA92D125F0D
:108F9700D8FFD3EE6480F8EF64809840037F012206
:038FA7007FFF2227
:10628500E709F60870FA8046E709F20870FA803ED9
:1062950088828C83E709F0A370FA807EE309F6080B
:1062A50070FA8076E309F20870FA806E88828C8332
:1062B500E309F0A370FA806289828A83E0A3F60875
:1062C50070FA805689828A83E0A3F20870FA804AC0
:1062D50080D280FA80C680D4806580F280318010BB
:1062E50080A680EA809A80A880DA80E280CA803120
:1062F50089828A83ECFAE493A3C8C582C8CCC58396
:10630500CCF0A3C8C582C8CCC583CC70E9800D8903
:10631500828A83E493A3F60870F9ECFAA9F0EDFB01
:106325002289828A83ECFAE0A3C8C582C8CCC583DA
:10633500CCF0A3C8C582C8CCC583CC70EA80DD8902
:10634500828A83E493A3F20870F980CE88F0ED2465
:1063550002B4040050C4F582EB2402B4040050BA20
:0963650023234582239062D573C5
:10968800E4FFFE125FD8600C0FEF70010E09E9705D
:05969800F20A80EF2240
:10960700E94A4B700122125FD8FF6D700122EF709B
:0C96170004FBFAF92209E970ED0A80EA70
:108B0D008B2A8A2B892CAB2AAA2BA92C125FD8FF72
:108B1D001296C4500D7401252CF52CE4352BF52B34
:108B2D0080E4D215AB2AAA2BA92C125FD8FF642B97
:108B3D006004EFB42D1BAB2A052CE52CAA2B70027B
:108B4D00052B14F9125FD8642D6003D38001C392F5
:108B5D0015E4F52DF52EAB2AAA2BA92C125FD8FF03
:108B6D001297095036AB2AAA2BA92C125FD8FF33C6
:108B7D0095E0FEEF24D0FBEE34FFFAAE2DAF2E7C48
:108B8D00007D0A126030EF2BF52EEE3AF52D7401B3
:108B9D00252CF52CE4352BF52B80BB301506AE2D91
:0E8BAD00AF2E8009C3E4952EFFE4952DFE2225
:10636E00F8BB010DE58229F582E5833AF583E8F065
:10637E00225006E92582C8F622BBFE05E92582C811
:02638E00F222F9
:0F970900EFC394304007EF943A50028001C3221F
:00000001FF
