:1046810090F237C10F90E964A1FD90F60FA1EB9074
:10469100FACDA1EB90FB4FA1EB90DD82C10F90F021
:1046A100C0A1EB908000A1EB90B643C10F90E4381C
:1046B100C10F90F860A1EB90E22AA1EB90E76DC1E8
:1046C1000F90C64FA1EB90EB0CA1EB90F2B2A1EBD6
:1046D10090DB40A1EB90E4DAA1FD909E74C10F90B4
:1046E100DEF5A1EB90D679A1EB90E81EA1EB909DB0
:1046F100D8A1EB90D080A1EB90F48EA1EB90E7F1E3
:10470100A1FD90F7E3C10F90EE2AC10F90F852C1BD
:104711000F90EF9EC10F90F46EC10F90F6B8C10FCC
:1047210090E0E5C10F90F87DC10F90F76DC10F903A
:10473100F81EC10F90F603C10F90F8A9C10F90E9BF
:1047410014A1FD90E8B4A1FD90E0B1A1FD90E608AF
:10475100A1FD90C5E0A1FD90BAD6A1FD90D545A1DE
:0C476100FD90CB1AA1FD90A782A1FD00E5
:10212B00020101010002010201000201030200028F
:10213B00010301000201030101010103010102027C
:10214B000501000202050101220204010222020321
:10215B000102020203010002020502000102030256
:10216B000101020402010102040101010205010047
:10217B000204080100010408010000030303040426
:10218B000404040404050608090C10111B393C3C1B
:10219B003C1E1414100D0C0A0908090A0C0D10141E
:1021AB00141E3C3C0024004B007200C10025004C67
:1021BB00007300C200B000B100B2000100020004C5
:1021CB0000080010002000400080010020004000AB
:1021DB0080000200040008001000011F001801011C
:1021EB001F0158030160001C010160015C03020F19
:1021FB00001801020F012003020F023E01020F0320
:10220B005803021000180102100120030210023EB5
:10221B00010210035C030220001C010220015C037D
:10222B000240001C010240015803030F0018010378
:10223B000F01580303100018010310015C03032066
:10224B00001C010320015C030340001C010340013F
:10225B005803041F001401041F01580304600018E5
:10226B00010460015C03051F001801051F01200319
:10227B00051F022C01051F033403051F044801052C
:10228B001F0558030560001C010560012403056050
:10229B00022C010560033403056004480105600549
:1022AB005C03067F0018030029010EB61301FE0C18
:1022BB0003200000010EB01301FE0C05DC00000131
:1022CB000EAA1301FE0C05DC0000010EC01301FE6B
:1022DB000C05DC0000010EC21301FE0C05DC000036
:1022EB00010EA41301FE0C05DC0000010EAC130162
:1022FB00FE0C05DC0000010EB21301FE0C05DC0028
:10230B0000010EAE1301FE0C05DC0000010EDC1308
:10231B0001FE0C05DC0000010EB81301FE0C05DC00
:10232B000000010EBA1301FE0C09C40000010EBC23
:10233B001301FE0C05DC0000010EBE1301FE0C05A3
:10234B00DC0000010EC41301FE0C05DC0000010EC5
:10235B00C61301FE0C05DC0000010EC81301FE0CB8
:10236B0005DC0000010ECA1301FE0C05DC000001A8
:10237B000ECC1301FE0C05DC0000010ED21301FE86
:10238B000C05DC0000010ECE1301FE0C05DC000079
:10239B00010ED01301FE0C05DC00000101881301B6
:1023AB00FE0C05DC0000010C4113000000000000D6
:1023BB0000010C451301FE0C05DC0000010C4B1356
:1023CB0001FE0C05DC0000010C6613000000000090
:1023DB000000010C6A1301FE0C05DC0000010C70FF
:1023EB001301FE0C05DC0000010C8B130000000038
:1023FB00000000010C8F1301FE0C05DC0000010C2A
:10240B00951301FE0C05DC0000010CB41301FE0C4E
:10241B0005DC0000010A581301FE0C05DC0000016D
:10242B0001C01300000000000000010A10000100B1
:10243B00000003000001021000010000000E00006C
:10244B0001021100010000000E0000010212000148
:10245B00000100FF00010102131305003201F4001B
:10246B00C80102151305003201F400DC0102171339
:10247B0005003201F4009601023A07030000000048
:10248B0000010102AA070000000000000201031A6C
:10249B000700000000000003010219120100008E6A
:1024AB00AD072301021B120100008EAD07230102B1
:1024BB001D000100000002000001021E230A00C8DB
:1024CB0002BC015E010227030180017FFF000001B6
:1024DB00022013010000001E000D010229030180E0
:1024EB00017FFF0000010223230A0032038402BC98
:1024FB0001022B230AFFA601F400C801022D230AB7
:10250B00FFA601F4006401022F230AFFA600C800F6
:10251B00140102313001000000F0003C01022220C6
:10252B0005000000C80000010232230A0000012C44
:10253B000000010234230A0032019000C801023668
:10254B000005001400640064010237000100010063
:10255B0078000501023800010001000800020102A9
:10256B0025100A000A006400320102260001000156
:10257B0000F0001E0102390101FF9C006400000104
:10258B0007140001000000020000010A11061000F0
:10259B0020007A000001038A0001000000320003D2
:1025AB0001038B230A000A01F4003201038D230A75
:1025BB00012C028A01F401038F000100010032009B
:1025CB0004010390230A000A01F400320103921262
:1025DB000100008EAD072301039402010000059F4B
:1025EB00000001039600010000000E00000103979C
:1025FB0000010000000E0000010398000100010023
:10260B00FF00010103991305003201F400C8010317
:10261B009B1305003201F400DC01039D130500320E
:10262B0001F400960103C007030000000000010144
:10263B00043007000000000000020104A0070000A6
:10264B00000000000301039F120100008EAD072361
:10265B000103A1120100008EAD07230103A30001AA
:10266B000000000200000103A4230A00C802BC0101
:10267B005E0103AD030180017FFF00000103A61380
:10268B00010000001E000D0103AF030180017FFF5D
:10269B0000000103A9230A0032038402BC0103B129
:1026AB00230AFFA601F400C80103B3230AFFA60106
:1026BB00F400640103B5230AFFA600C8001401034C
:1026CB00B73001000000F0003C0103A8200500001A
:1026DB0000C800000103B8230A0000012C00000110
:1026EB0003BA230A0032019000C80103BC000500A5
:1026FB0014006400640103BD0001000100780005B3
:10270B000103BE00010001000800020103AB100A27
:10271B00000A006400320103AC0001000100F0006C
:10272B001E0103BF0101FF9C00640000010715009F
:10273B0001000000020000010A2106100020007AAF
:10274B00000001051000010000003200030105111B
:10275B00230A000A01F40032010513230A012C029B
:10276B008A01F40105150001000100320004010586
:10277B0016230A000A01F4003201051812010000A9
:10278B008EAD072301051A02010000059F00000111
:10279B00072000010000000E0000010721000100CE
:1027AB0000000E00000107220001000100FF0001E4
:1027BB000107231305003201F400C8010725130597
:1027CB00003201F400DC0107271305003201F4008D
:1027DB009601074A07030000000000010107BA0732
:1027EB000000000000000201082A070000000000A2
:1027FB000003010729120100008EAD072301072BEF
:10280B00120100008EAD072301072E230A00C80218
:10281B00BC015E0107370301000000000000010747
:10282B003013010000001E000D01073903010000E9
:10283B0000000000010733230A0032038402BC01AD
:10284B00073B230AFFA601F400C801073D230AFF3B
:10285B00A601F4006401073F230AFFA600C8001479
:10286B000107413001000000F0003C01073220005D
:10287B00000000000000010742230A0000012C00A9
:10288B0000010744230A0032019000C801074600EB
:10289B000500140064006401074700010001007883
:1028AB00000501074800010001000800020108A60D
:1028BB000001000000020000010A31061000200098
:1028CB007A000001089A00010000003200030108A1
:1028DB009B230A000A01F4003201089D230A012CF4
:1028EB00028A01F401089F0001000100320004017B
:1028FB0008A0230A000A01F400320108A212010009
:10290B00008EAD07230108A402010000059F000003
:10291B0001051C130A0032038401F401051E130A7E
:10292B000032038402580105250701000000000056
:10293B0004010520130A00320384006401052213ED
:10294B000A003203840064010595070100000000B2
:10295B000004010524100A001400C80032010717F7
:10296B00030A0064038403520107160001000000F0
:10297B00030000010605130500050258000A0106B5
:10298B0007030A0064044C03B6010609230A00007E
:10299B000384000001060B100A001400C80032016A
:1029AB00060C00010000003C000501060D230AFF88
:1029BB009C01F4019001060F0005000A0064001948
:1029CB0001061407010000000000050102000000D1
:1029DB000000000000000106840701000000000059
:1029EB0006010201000000000000000001061000BB
:1029FB00010001003C000301061100010000003C36
:102A0B00000F010612230A001401F400320106F430
:102A1B000201000004B0005D0106F6061000200064
:102A2B003900200110220001000000000000010706
:102A3B00110201000000FF001101020E0105FFD879
:102A4B000028000001020F0105FFD800280000013B
:102A5B0008A70105FFD800280000010706040000A5
:102A6B00000000000001070A00000000003C00000D
:102A7B0001070B04000000000000000101E202004E
:102A8B000000000000000101EA040000000000004B
:102A9B00000101EE040000000000000001104A02DA
:102AAB00000000FFFF0000010C3B020000000000D3
:102ABB000000010C600200000000000000010C850A
:102ACB000200000000000000010719230A00640245
:102ADB00EE012C01071B230A019002EE028A01076B
:102AEB001D230A00320064006401071F0005001952
:102AFB00006400190108A800010000000E0000018D
:102B0B0008A900010000000E00000108AA1305002F
:102B1B0032038400FA0108AC130500320384011858
:102B2B000108B90703000000000001010929070093
:102B3B0000000000000201099907000000000000DE
:102B4B00030108AE230A0032038402BC0108B3233D
:102B5B000A0000012C00000108B5230A0032019085
:102B6B0000C80108B700050014006400640108B830
:102B7B0000010001000800020108B0220A000A014E
:102B8B002C00C80108B20001000100F0001E010A70
:102B9B00090001000000030000010A0A0105000AF8
:102BAB0000640014010A0B000100000078001E01F4
:102BBB000A0C0001000F005A001E010A0D220A0028
:102BCB000A02580032010A0F000100010078001EB2
:102BDB0001019E05000000000000000101A242005F
:102BEB0000000000000001072D00000000000000A5
:102BFB00000107351000000000000000010736003F
:102C0B000000000000000001074901000000000067
:102C1B000000010A4100000000000000000110A1AB
:102C2B000400000000000000010C36000000000052
:102C3B00000000010CDE0000000000000000010C91
:102C4B005B0000000000000000010CF4000000001D
:102C5B0000000000010C80000000000000000001DB
:102C6B000D0A00000000000000000102030000003C
:102C7B000000000000010A500200000000000000EC
:102C8B0001020D0000000000000000010C300000EC
:102C9B00000000000000010C3100000000000000EB
:102CAB0000010C380000000000000000010C550072
:102CBB0000000000000000010C56000000000000A6
:102CCB000000010C5D0000000000000000010C7A08
:102CDB000000000000000000010C7B000000000061
:102CEB00000000010C820000000000000000010C3D
:102CFB00B01300000000000000010CB41300000032
:102D0B0000000000010C9F0000000000000000010B
:102D1B000CA00000000000000000010CA700000048
:102D2B000000000000010CA50000000000000000E6
:102D3B00010D20000000000000000001018A0000CE
:102D4B000000000000000101FE0000000000000078
:102D5B0000010A4E00000000000000000101C2004B
:102D6B0000000000000000010ED41301FE0C05DC76
:102D7B000000010ED61301FE0C05DC0000010ED87D
:102D8B001301FE0C05DC0000010EDA1301FE0C052D
:102D9B00DC000001019B00000000000000000101AD
:102DAB009C02000000000000000101B200000000C6
:102DBB000000000001019142000000000000000132
:102DCB0001970200000000000000010199020000C1
:102DDB0000000000000101AA040000000000000038
:102DEB000101AE0200000000000000010202000021
:102DFB000000000000000101DB00000000000000EB
:102E0B00000101E802000000000000000101E002E7
:102E1B00000000000000000101DF000000000000C6
:102E2B0000000101E402000000000000000101CDE0
:102E3B0013000000000000000101C70000000000AB
:102E4B000000000101C80000000000000000010CA0
:102E5B00DF0000000000000000010CF50000000086
:102E6B0000000000010D0B0000000000000000013D
:102E7B000D210000000000000000010A42230A009F
:102E8B003201F40064010E7E04000000000000001B
:0D2E9B00010F0604000000000000000116F9
:1051EB0012212712445312468112468612468B1205
:1051FB00469012469512469A12469FE4F51F901060
:10520B00A112327300000000051F1246A41246A91A
:10521B001246AE1246B31246B81246BDE50E123216
:10522B00EB524800525001525802527103528A04F9
:10523B0052A60552AB0752B008000052B31246C239
:10524B001246C780631246CC1246D1805BE4FF1234
:10525B0046D69021C5E4935564FE74019355654E73
:10526B006046E4FF80307F011246D69021C7E4935D
:10527B005564FE74019355654E602D7F0180177F39
:10528B00021246D69021C9E4935564FE74019355DE
:10529B00654E60147F021246DB800D1246E08008DB
:1052AB001246E580031246EA1246EF1246F4124606
:1052BB00F9E51FD3940250028001C39260125FB9CB
:0352CB0002521379
:10657B008F568A578B58ED24FE600C24FD6008243F
:10658B000524F95002800BAB58AA577D01AF561268
:03659B005BA522DB
:1061D900E51524E0F582E43514F583E0FEEF24FEAD
:1061E900600C24FD6008240524F95002800EE51591
:1061F90024E0F582E43514F5837401F08D828C83F3
:10620900E493FFE51524E0F582E43514F583EEF017
:016219002262
:10583C00E51524E0F582E43514F583E0FCE5152448
:10584C00E0F582E43514F5837401F0ED1232EB5877
:10585C007700587C01588102588603588B04589065
:10586C000558950658B107000058CD9080EB801C68
:10587C009080EC80179080ED802E9080EF802990A6
:10588C0080F180089080F280039080F375F00BEF2C
:10589C001232C1EE75F00BA42583F583E4937547A2
:1058AC0000F548801C9080F475F00BEF1232C1EEBD
:1058BC0075F00BA42583F583E493F547740193F5F8
:1058CC0048E51524E0F582E43514F583ECF0AE4799
:0358DC00AF4822B0
:10640800D2557F0174112FF582E4340AF583742084
:10641800F074212FF582E4340AF5837420F0743186
:106428002FF582E4340AF5837420F00FBF10D522CB
:10578800C26090101FE0FEA3E0FFC394C8EE94002F
:1057980050028046C3EF94D1EE940050267536012E
:1057A800753713C3EF94CCEE940050427E257F1CCE
:1057B800124A3B7E267FC9124A3B7E287F6B124ADB
:1057C8003B802B902121E493FE740193FFD390102A
:1057D80020E09F90101FE09E40087536FF7537FE49
:1057E800800C902EA6E493F536740193F537E537CF
:1057F800B4FE0AE536B4FF051253A98034D3902EBF
:10580800A67401939537E493953640259022B47594
:10581800F00BE5371232C1E53675F00BA42583AFDE
:1058280082FE124A3BD2600537E53770D0053680D4
:04583800CCA260227C
:1052CE00C0E0C0F0C083C082C0D075D000C000C0A6
:1052DE0001C002C003C004C005C006C007900C3652
:1052EE00E090219A93FF900C37E004F0C39F501585
:1052FE00900C36E090218593FF900C37E0C39F40D1
:10530E0011C20D800D900C36E06002D20D900C375C
:10531E00E4F0900C5BE090219A93FF900C5CE0041B
:10532E00F0C39F5015900C5BE090218593FF900C7D
:10533E005CE0C39F4011C20E800D900C5BE06002DA
:10534E00D20E900C5CE4F0900203E0FF90219A9351
:10535E00FE900A4DE004F0C39E5012EF902185930B
:10536E00FF900A4DE0C39F4011C20F800D900203C3
:10537E00E06002D20F900A4DE4F012659E751F0098
:10538E00D007D006D005D004D003D002D001D00073
:0B539E00D0D0D082D083D0F0D0E0321D
:0B2120001000D402030C0F757B00229E
:017FFF00FF82
:0A6703009037A1376652666766689A
:1045EB00E57B5407C4C0E0745CC0E0C082C08302AA
:1045FB005C00E57B5407C4C0E0745CC0E0C082C0C3
:10460B0083025C10E57B5407C4C0E0745CC0E0C05F
:10461B0082C083025C20E57B5407C4C0E0745CC09D
:10462B00E0C082C083025C30E57B5407C4C0E074F9
:10463B005CC0E0C082C083025C40E57B5407C4C011
:10464B00E0745CC0E0C082C083025C50E57B540721
:10465B00C4C0E0745CC0E0C082C083025C60E57BD8
:10466B005407C4C0E0745CC0E0C082C083025C70BD
:0B5C0000F874009020E0F57BF0E82233
:0B5C1000F874019020E0F57BF0E82222
:0B5C2000F874029020E0F57BF0E82211
:0B5C3000F874039020E0F57BF0E82200
:0B5C4000F874049020E0F57BF0E822EF
:0B5C5000F874059020E0F57BF0E822DE
:0B5C6000F874069020E0F57BF0E822CD
:0B5C7000F874079020E0F57BF0E822BC
:06467B00EFC4905C007327
:1021000002661A0252CE0221180221180221180278
:09211000211802211802211832E5
:10666E007813790E770009B9140479168005B919D3
:06667E00027921D8EF2291
:1065FE0053797374656D2056312E31312E31202032
:0C660E00004261736973202056005600A2
:1063D700E4FFE4FEEF75F023A42485F582E4340F8F
:1063E700F583E5822EF582E43583F5837420F00E7C
:1063F700BE23E1741A2FF8E4F60FBF03D5E4F519AD
:016407002272
:10614D008D57EFC394405004790280027912AE0747
:10615D00EF2557FDE433FCEEC39DEC6480F87480AD
:10616D00985024EE540F29FDE51975F023A42485CC
:10617D00F582E4340FF583E5822DF582E43583F560
:08618D00837420F00E80C9228A
:1063A5008C598D5AEF4480FFC267124DCCE4F55BE2
:1063B500855A82855983E493FF6016D267124DCCC6
:1063C500055AE55A70020559055BE55BC394104013
:0263D500DF22C5
:105BA5008A598B5AE51524E0F582E43514F583E02E
:105BB500F55CE51524E0F582E43514F583EDF0EFA9
:105BC5004480FFC267124DCCE4F55B855A82855946
:105BD50083E493FF6016D267124DCC055AE55A70DF
:105BE500020559055BE55BC3941040DFE51524E02C
:0B5BF500F582E43514F583E55CF02236
:106309008C548D558B56EF4480FFC267124DCCE4F7
:10631900F557E557C39556501B855582855483E03B
:10632900FF6011D267124DCC0555E5557002055431
:05633900055780DE2283
:1065E2008C538D548F828E8312322F8F588E578DFB
:0C65F200568C557F55AD54AC5302476DDC
:10633E007C657DFEE4FF1263A57C667D0F7F4012B7
:10634E0063A5900080E493FFE4FD126070124DC8C7
:10635E0090008112606B124DC8900082E493FFE4AE
:04636E00FD0260705C
:105EF900EF60027F407C667D181263A5902121E442
:105F090093FE740193FF7C007D64122F56E4FD1209
:105F19006070124DC8902121E493FE740193FF7CB7
:105F2900007D64122F56AF057D01126070C2677F34
:105F3900C8124DCC90212412606B124DC8902125B6
:105F490012606B124DC8902126E493FF7D01026017
:015F590070D7
:05606B00E493FF7D013C
:106070008F4F8D50E54F75F06484F55160082430E2
:10608000FFD267124DCCE54F75F0648485F04FE583
:106090004F75F00A84F5517004E550600AE551240B
:1060A00030FFD267124DCCE54F75F00A84E5F0243D
:0760B00030FFD267024DCC66
:044DC800D2677F2E01
:104DCC008F5D306768E55D1232EB4E367F4E18868C
:104DDC004E139E4E1DA24E22AA4E13BF4E18E04EED
:104DEC0018E14E13E74E22E84E1DE94E2CEA4E27F1
:104DFC00EB4E22ED4E31F14E2CF34E18F44E27FAB9
:104E0C004E27FB00004E39E4F55D8021755D038073
:104E1C001C755D048017755D058012755D06800D2F
:104E2C00755D078008755DEE8003755D20E51914CE
:104E3C00604314607924026003024EF2306724E56B
:104E4C001AC39440E51A540F50092487F582E434B0
:104E5C000F80072497F582E4340FF583E55DF005A8
:104E6C001A800EE55D30E702F51AE55DB414020513
:104E7C001A531A4F22306724E51BC39440E51B5488
:104E8C000F500924AAF582E4340F800724BAF58266
:104E9C00E4340FF583E55DF0051B800EE55D30E72E
:104EAC0002F51BE55DB41402051B531B4F22306742
:104EBC0024E51CC39440E51C540F500924CDF58205
:104ECC00E4340F800724DDF582E4340FF583E55DCF
:104EDC00F0051C800EE55D30E702F51CE55DB414B1
:074EEC0002051C531C4F22BC
:1060B7008F35E50A6006126699126699E53575F01F
:1060C70023A42485F582E4340FF5837404F0E535C1
:1060D70075F023A42486F582E4340FF583E4F0E514
:1060E7003575F023A42485F582E4340FAD82FCE5F1
:0C60F7003590510693FF7B22125F5A2265
:10668400900F857404F0E4A3F07C0F7D857B227F5A
:0566940011125F5A2203
:105F5A00E50A60037F0122900100EFF0A3EBF02F26
:105F6A00FFE4FEEEC39B5024ED2EF582E43CF5835C
:105F7A00E0FA74022EF582E43401F583EAF0ED2E9C
:105F8A00F582E43CF583E02FFF0E80D7EFF404FF9F
:105F9A0074022EF582E43401F583EFF0EB2402F566
:0F5FAA000A750901C29C900100E0F5997F002261
:105AA400FED40FD7FF380FADFF6A0F93FF9C0F7121
:105AB40000000F1400320ED500640E8A00960E31D9
:105AC40000C80DCB00FA0D55012C0CD1015E0C4021
:105AD40001900BA201C20AFA01F40A4A02260995AE
:105AE400025808DF028A082902BC077902EE06CDB3
:105AF4000320062A035205940384050503B604848F
:105B040003E8040D044C034004A602AB0514021977
:105B1400057801B005DC01600640012106A400F30C
:045B2400070800CAA4
:104B6C00E4F5977536010536E53670FA758EFF75E6
:104B7C008FFF75940900759720C2B4C26BE4F57C65
:104B8C00D26CF536AF36EF25E024A4F582E4340E72
:104B9C00F583E4F0A3F00536E536B430E7E4900E87
:104BAC007EF0A3F0900F06F0A3F0900E7CF0A3F033
:104BBC00900F04F0A3F0900F0A7404F0E4900F0827
:104BCC00F0A3F0F536C260AF36EF25E02423F58272
:104BDC00E43410F583E0FEA3E0C394CEEE6480943D
:104BEC007F401CAF36EF25E02423F582E43410F52A
:104BFC0083E0FEA3E0D39432EE648094804014AF43
:104C0C0036EF25E02423F582E43410F583E4F0A399
:104C1C00F0D260AF36EF25E02435F582E43410F5A0
:104C2C0083E0FEA3E0C394B6EE64809483401CAF93
:104C3C0036EF25E02435F582E43410F583E0FEA34D
:104C4C00E0D3941AEE648094844017AF36EF25E0DD
:104C5C002435F582E43410F5837403F0A374E8F082
:104C6C00D2600536E53664096003024BD330601E12
:104C7C007C107D237B127A007F057E00125D5E7CAA
:0F4C8C00107D357B127A007F177E00125D5E224D
:10375400900F0AE0600314F022900F08E07002A3B7
:10376400E0600A900F0874FFF5F0022FE1E57CC3D6
:1037740094045005857C30800FE57CB40405E4F5A1
:10378400308005E57C14F530AF301265338E318F0F
:1037940032306C24E532C4F8540FC868FFE531C4F4
:1037A40054F048FEE57C25E02480F582E4340EF5EF
:1037B40083EEF0A3EFF08055E57C25E02480F582CC
:1037C400E4340EF583E0FEA3E0FFE4FCFD7B0FFA96
:1037D400F9F812308D8F368E358D348C33E47B10AE
:1037E400FAF9F8126195E57C25E02480F582E43449
:1037F4000EF583EEF0A3EFF0E57C25E02480F5825E
:10380400E4340EF583E5318532F0122FE1E57C25B1
:10381400E02480F582E4340EF583E0FEA3E0780230
:10382400CEC313CE13D8F9F5328E31D394E4E531F7
:10383400940F402A75180274017E00A87C08800544
:10384400C333CE33CED8F9FF900E7EE04EF0A3E022
:103854004FF0900E7CE04EF0A3E04FF08068C3E59B
:10386400329498E5319400502675180374017E0053
:10387400A87C088005C333CE33CED8F9FF900E7EE2
:10388400E04EF0A3E04FF0EFF4FFEEF4FE802DE500
:103894001864026005E518B40303E4F51874017EA6
:1038A40000A87C088005C333CE33CED8F9F4FFEEEC
:1038B400F4FE900E7EE05EF0A3E05FF0900E7CE0FC
:1038C4005EF0A3E05FF0C3905AA67401939532E4CE
:1038D4009395315017E57C25E02492F582E4340E6B
:1038E400F58374FEF0A374D4F0023A0CD3905B26F3
:1038F4007401939532E49395314016E57C25E024D8
:1039040092F582E4340EF5837407F0A304F0023ACE
:103914000CE4F52FE52F25E025E024AAF582E43414
:103924005AF583C37401939532E4939531400705A6
:103934002FE52FB41FDEE52F25E025E024A6F58230
:10394400E4345AF583C37401939532FFE4939531BB
:10395400AB07FAE4F9F8E52F25E025E024A4F58285
:10396400E4345AF583E493FE740193FFE52F25E0D4
:1039740025E024A8F582E4345AF583C37401939FA7
:10398400FFE4939EFE3395E0FDFC12308D8F368E5E
:10399400358D348C33C006C007E52F25E025E0249F
:1039A400AAF582E4345AF583E493FE740193FFE5A7
:1039B4002F25E025E024A6F582E4345AF583C37468
:1039C40001939FFFE4939EAB07FA3395E0F9F8D097
:1039D40007D0061261958F368E358D348C33E52FE2
:1039E40025E025E024A4F582E4345AF58374019398
:1039F4002FFFE4933EFEE57C25E02492F582E43437
:103A04000EF583EEF0A3EFF0E57C25E02423F582A8
:103A1400E43410F583E0FEA3E0FFE57C25E0249286
:103A2400F582E4340EF583E0FCA3E0C39FFFEC9E33
:103A3400FE3395E08F368E35F534F533FDAC33E443
:103A44007BE87A03F9F812308D8F368E358D348CFD
:103A540033E57C25E02423F582E43410F583E0FE8D
:103A6400A3E0FFE57C25E02435F582E43410F583FA
:103A7400E0FCA3E0C39FFBEC9EFAA2E713FEEB136A
:103A8400FFEE3395E0FDFCE5362FFFE5353EFEE520
:103A9400343DFDE5333C8F368E358D34F533EA33D2
:103AA40095E0F9F8AC33126195E57C25E024A4F5A2
:103AB40082E4340EF583EEF0A3EFF0057CE57CD3CD
:103AC40094084006E4F57CC26C22E57CB40103D280
:0A3AD400B422E57CB40502C2B4225E
:10653300EF25E025E04420F597000043970200E5AE
:106543009730E0FBE5965403FEAD957C00E42DFF08
:04655300EC3EFE22FA
:10548300C260EF7061F53AE53A25E02492F582E4D3
:10549300340EF583E0FEA3E0FFC394CEEE64809464
:1054A3007F401FD3EF9432EE648094805014E53A2A
:1054B30025E02423F582E43410F583EEF0A3EFF026
:1054C3008002D260053AE53AB409BC20600C7C1036
:1054D3007D237B127A007F0580607E107F237B1201
:1054E3007A007D058065E4F53AE53A25E02492F5F6
:1054F30082E4340EF583E0FEA3E0FFC394B6EE64CA
:10550300809483401FD3EF941AEE648094845014E4
:10551300E53A25E02435F582E43410F583EEF0A373
:10552300EFF08002D260053AE53AB409BC2060117D
:105533007C107D357B127A007F177E00125D5E80C2
:105543000F7E107F357B127A007D177C00125E2F51
:06555300A260E433FF2218
:0367210002659E70
:10659E00A20DB392C1A20EB392C2A20FB392C3E5E3
:1065AE002225E0FFE5152405F582E43514F583EF89
:0265BE00F022C9
:105E9500496E697469616C6973696572756E6720AD
:105EA500002020202020202020202020202020200D
:105EB50020005765726B7365696E7374656C6C75DC
:105EC5006E67002020206865727374656C6C656E62
:105ED500202020000001000200040008001000201E
:105EE50000400080010002000400080010002000AE
:045EF50040008000E9
:1044530012666E1267211263D77C5E7D95E4FF12AC
:1044630063A57C5E7DA67F401263A5126684E4F596
:1044730030F5311266990531E53170020530C39488
:1044830064E530940040EC1260147E107F1E7B2E96
:104493007A00E4FDFC125E2F124B6C12597D75A657
:1044A300EF902120E493FF90101EE0FEB5071990D2
:1044B3002121E493FC740193FD90101FE06C7003C1
:1044C300A3E06D70030245B7EEF4600C90101FE09B
:1044D300F47003A3E0F47033E490104AF0A3F07C8B
:1044E300107D4A7B02FA7F2CFE125D5E90102274CF
:1044F300FFF0750F027510D075110775125E124229
:10450300AEE4FF1264BD1253A980601233B9901058
:1045130048E0FEA3E0FF7829A60608A607125788FD
:104523005049E4F530F53190671D93FE7401938E85
:1045330034F535D390671F7401939531E493953027
:104543004029E5312440FFE43530FE85358285344A
:1045530083E0FD1264950535E53570020534126676
:10456300990531E5317002053080C8902120E4932C
:1045730090101EF0902121E493FF74019390101F7B
:10458300CFF0A3EFF0E4F52F753221753320E52F3B
:10459300C394045031AF2F7E00853382853283E488
:1045A30093FD126495126699052F0533E533700266
:1045B300053280DA1233B9901048E0FEA3E0FF78A9
:1045C30029A60608A60790104AE475F001122FE108
:1045D3007C107D4A7B027A007F2C7E00125D5E1286
:0845E30066364389010266F50A
:10661A00751420751500759DEB1251EBC2A8C28B3B
:0C662A00E4F522F52112659E759DC0224A
:105FB90030603E7829E6FE08E6FF901048E06E70F2
:105FC90003A3E06F6017901048EEF0A3EFF07C1088
:105FD9007D487B027A007F2A7E00125D5E1256D3CD
:105FE900050EE50ED394084008C2631248ECE4F5A7
:105FF9000EE51745166008E51715177002151630D6
:0B6009008D03751801308DFD0266F557
:1033B900E4F536F537D3902EA67401939537E49347
:1033C900953650030237539022B475F00BE5371246
:1033D90032C1E53675F00BA42583AF82F5398F3AF2
:1033E90090671DE493FE740193FFAA06F97B01C05F
:1033F90003C002C001853A828539831232DFC3D006
:1034090082D083D0E0E99582EA9583500302374858
:1034190090671FE493FC740193FDEF2DFFEE3CFAD6
:10342900A9077B01C003C002C001853A828539839F
:103439001232DFD3D082D083D0E0E99582EA958336
:10344900400302374875A6EF853A828539837403AC
:1034590093540F1232EB347B0034D40135440235D6
:10346900AC033637043637053667063703070000DD
:103479003748853A828539831232DFAE02AF01AC13
:103489000290671DE493FA740193FBC3E99BFDEC79
:103499009ACD2440CD3400FC7B017A00125E2F8541
:1034A9003A828539831232DF89828A83E0FF853A3D
:1034B90082853983740693FEEFC39E406D74089329
:1034C900FEEFD39E5003023748805F853A828539E3
:1034D900831232DFAE02AF01AC0290671DE493FAAA
:1034E900740193FBC3E99BFDEC9ACD2440CD3400D4
:1034F900FC7B017A00125E2F853A8285398312326C
:10350900DF89828A83E0FF853A828539837406934D
:10351900C36480F8EF6480984010740893D3648082
:10352900F8EF6480985003023748853A82853983D9
:10353900740A9389828A83F0023748853A828539E9
:10354900831232DFAE02AF01AC0290671DE493FA39
:10355900740193FBC3E99BFDEC9ACD2440CD340063
:10356900FC7B027A00125E2F853A828539831232FA
:10357900DF89828A83E0FEA3E0FF853A8285398369
:10358900740593FC740693FDC3EF9DEE9C40127481
:103599000793FC740893FDD3EF9DEE9C500302370B
:1035A900488072853A828539831232DFAE02AF01D3
:1035B900AC0290671DE493FA740193FBC3E99BFD88
:1035C900EC9ACD2440CD3400FC7B027A00125E2FA8
:1035D900853A828539831232DF89828A83E0FEA3A4
:1035E900E0FF853A82853983740593FC740693FD5F
:1035F900C3EF9DEC6480F8EE6480984018740793DB
:10360900FC740893FDD3EF9DEC6480F8EE64809818
:103619005003023748853A82853983740993FF74C8
:103629000A9389828A83CFF0A3EFF0023748853A5B
:10363900828539831232DFAE02AF01AC0290671D79
:10364900E493FA740193FBC3E99BFDEC9ACD244002
:10365900CD3400FC7B047A00125E2F023748853A8C
:10366900828539831232DFAE02AF01AC0290671D49
:10367900E493FA740193FBC3E99BFDEC9ACD2440D2
:10368900CD3400FC853A82853983740493FB3395E4
:10369900E0FA125E2FE4F538853A8285398374049D
:1036A90093FF3395E0FEC3E5389FEE6480F874809C
:1036B9009840030237481232DF7E00E92538F9EED7
:1036C9003AFA8982F583E0FF853A8285398374065F
:1036D90093C36480F8EF648098400D740893D364B1
:1036E90080F8EF648098400E853A82853983740AA0
:1036F9009389828A83F00538809E853A8285398349
:103709001232DFAE02AF01AC0290671DE493FA7486
:103719000193FBC3E99BFDEC9ACD2440CD3400FC19
:103729007B707A00125E2F853A828539831232DFE7
:103739007B01853A82853983740A93FD125C7B0586
:0B37490037E537700205360233BE2260
:1053A9007C5E7DB7E4FF1263A57C5E7DC87F4012F9
:1053B90063A5126684E4F538F539D3902EA67401F5
:1053C900939539E493953840239022B475F00BE511
:1053D900391232C1E53875F00BA42583AF82FE126C
:1053E9004A3B0539E53970D2053880CEE4F529F50F
:1053F9002A1264087829E6FF08E6901048CFF0A33E
:10540900EFF0E4F538F539E539242AFFE43538FEBB
:1054190074292539F8E6FD1264951266990539E56E
:105429003970020538C39402E538940040D9E4F58F
:1054390038F53990671D93FE7401938E3AF53BD385
:1054490090671F7401939539E49395384029E5399C
:105459002440FFE43538FE853B82853A83E0FD121E
:105469006495053BE53B7002053A1266990539E5F5
:0A5479003970CC053880C80266F5D2
:104A3B008E3C8F3D90671DE493FE740193FFAA0695
:104A4B00F97B01C003C002C001853D82853C831206
:104A5B0032DFC3D082D083D0E0E99582EA958350D0
:104A6B0003024B6B90671FE493FC740193FDEF2DD6
:104A7B00FFEE3CFAA9077B01C003C002C001853DD4
:104A8B0082853C831232DFC3D082D083D0E0E9959C
:104A9B0082EA95834003024B6B853D82853C837490
:104AAB000393540F1232EB4ACE004AD0014AE40270
:104ABB004AE6034B01044B01054B1F064B53070002
:104ACB00004B6B8000853D82853C83740A93FF12FB
:104ADB0032DF89828A83EFF0228000853D82853C1C
:104AEB0083740993FE740A93FF1232DF89828A83DF
:104AFB00EEF0A3EFF022853D82853C83740993FE93
:104B0B00740A93FFEE3395E0FDFC1232DF89828A43
:104B1B0083023267E4F53E853D82853C83740493C2
:104B2B00FF3395E0FEC3E53E9FEE6480F8748098FA
:104B3B00502E740A93FF1232DFE9253EF582E43AD8
:104B4B00F583EFF0053E80CF853D82853C831232A5
:104B5B00DF7B01853D82853C83740A93FD124C9B60
:014B6B002227
:0E66F50075A6EFC28D758A06758C38D28C2280
:08670D00439104D288D2A822B6
:1066990075A6EF7F907E0DEF1F70011EEF4E70F70C
:0466A90075A6EF22C1
:10476D00EFF8EB4480FFC267124DCC8D828C83C273
:10477D0005C207E493FAA3E493FEA3C206EA30E66A
:10478D0002D20630E20302482B30E009E630E7059D
:10479D00D20512487E7400F567F568F569F56A75FE
:1047AD006B01F56CF56DF56EE82EF8EEFB18124801
:1047BD003ADBFA30050312487EE493FBFEA3E49343
:1047CD00FCA3E493FD300516EBFF1248CB700BED07
:1047DD00C39BB4FF0280031B80F0EBFEEFFBEEC327
:1047ED009B7006EA20E102D207EDC39BB4FF02D213
:1047FD0006701A7F20200C10EA20E30C7F3A20E48B
:10480D00077F2E20E5027F2CD267124DCC12488DEA
:10481D00EBC39C6008147002D2061B80C12279671D
:10482D00E82EF8EEFB18E6F709DBFA808CE6FC7F44
:10483D0008EC13FC501CE567256BD4F567E568356E
:10484D006CD4F568E569356DD4F569E56A356ED4D6
:10485D00F56AE56B256BD4F56BE56C356CD4F56CB1
:10486D00E56D356DD4F56DE56E356ED4F56EDFC144
:10487D0022EEFBE82E14F8C3E496F618DBFA0822B4
:10488D0030071DC2073005107F20200C027F2DC27E
:10489D0005D267124DCC80087414FFC267124DCC3F
:1048AD001248CB700A2006077F20D267024DCCD26A
:1048BD00062430300C027420FFD267024DCCEB146D
:1048CD00C31340082467F8E6540F80072467F8E601
:0F48DD0054F0C4F8C3940A4004E8240722E822E8
:10601400E4900F0BF0900F0BE0FFC39414503EEF8D
:1060240075F006A4240CF582E4340FF583E4F0A3A0
:10603400F0EF75F006A4240EF582E4340FF583E442
:10604400F0A3F0EF75F006A42410F582E4340FF504
:1060540083E4F0A3F0900F0BE004F080B8E4900F19
:076064000BF0900F84F02205
:1056D300900F0BE0FF900F84E0FE6F70030257877B
:1056E300EE75F006A42410F582E4340FF583E0FE92
:1056F300A3E04E606A900F84E0FF75F006A42410C7
:10570300F582E4340FF58374FFF5F0122FE1EF75A2
:10571300F006A42410F582E4340FF583E0FCA3E043
:10572300FD900F84E0F975F006A4240EF582E434AD
:105733000FF583E0FEA3E02DFFEE3CFEE975F006D6
:10574300A4240CF582E4340FF583E0FAA3E0F58298
:105753008A832DF582E5833CF583E0FD1264959001
:105763000F84E075F006A42410F582E4340FF5836A
:10577300E0FEA3E04E700D900F84E004F0C3941498
:055783004002E4F022E9
:106103008E478F488C498D4A90671DE493FE740136
:1061130093FFC3E5489FFFE5479EFEC364809480D9
:106123004027E54A2FFDE5493EFCC390671F7401F4
:10613300939DE4939C4012EF2440FFE43EFEAB4A60
:0A614300AA49AD48AC47125D5E2288
:105D5E008E4B8F4C900F0BE075F006A42410F5823D
:105D6E00E4340FF583E0FEA3E04E704C900F0BE091
:105D7E00FF75F006A4240EF582E4340FF583E54B8F
:105D8E00F0A3E54CF0EF75F006A4240CF582E43494
:105D9E000FF583ECF0A3EDF0EF75F006A42410F5EB
:105DAE0082E4340FF583EAF0A3EBF0900F0BE004DE
:095DBE00F0C394144002E4F02249
:105E2F008C3B8D3C8A3D8B3E8E3F8F40125D377F82
:105E3F00A0125D16E53BFF125D16AF3CE53C125D0F
:105E4F0016125D377FA1125D16D3E53E9401E53D35
:105E5F009400402275A6EFE4FF125CF28540828524
:105E6F003F83EFF0E53E153E7002153D0540E540DE
:105E7F0070D7053F80D37F01125CF2854082853F4A
:065E8F0083EFF0025D4705
:106495008E478F488D49C2B5125D377FA0125D16B4
:1064A500E547FF125D16AF48E548125D16AF491284
:0864B5005D16125D47D2B5220D
:1064E50020203A20200020202E20202E2020202091
:1064F500000E0204010216020401021F1C1F1E1FCA
:076505001E1F1F1E1F1E1FB9
:10663600E4F57D901047E0543FF044C0F5367D36D2
:0C6646007B017F07126438D2630248EC2D
:1048EC00E57D6003024A3A7F477B07FD12625BE578
:1048FC0048547F90109DF0E549543F90109CF0E592
:10490C004B543F90109EF0E54C541FA3F0A3E54D83
:10491C00F0E547C4540775F00AA4FFE547540F2F80
:10492C00F57F90109DE0FDC4540F75F00AA4FFAE06
:10493C00F0ED540F7C002FF510EC3EF50F90109C11
:10494C00E0FDC4540F75F00AA4FFED540F2FFFECDB
:10495C0035F0FE7D3C122F44EF2510F510EE350F8F
:10496C00F50FE54A540714F513306313D3E510948F
:10497C00A0E50F94054008E4F50FF5101242AE9037
:10498C00109AE0650F7004A3E065106005206302C7
:10499C00D20890109AE50FF0A3E510F0300813AE92
:1049AC000FFF7C007D0A122F56ED4C7005A263B3ED
:1049BC009209901099E0B5130330635FA263B39230
:1049CC000A90109EE0FFC4540F75F00AA4FEEF5439
:1049DC000F2EF547A3E0FFC4540F75F00AA4FEEFA9
:1049EC00540F2EF548A3E0FFC4540F75F00AA4FE33
:1049FC00EF540F2EF54924D0FBE43407FAAD48AF41
:104A0C0047125A158E118F12901098E06548600568
:104A1C00A263B3920B901098E548F0901099E513AF
:0F4A2C00F0E510643C450F7005300802D272228D
:1042AE00E57F75F00A84C454F0FFE57F75F00A844B
:1042BE00E5F04FF554AE0FAF107C007D3C122F563B
:1042CE008D53E55375F00A84C454F0FFE55375F031
:1042DE000A84E5F04FF555AE0FAF107C007D3C1211
:1042EE002F568F53E55375F00A84C454F0FFE553EF
:1042FE0075F00A84E5F04FF556AF12AE111266D383
:10430E00EF04F557AE11AF127C017D6D122F56EFF3
:10431E0024D0F54FEE3407F54EE54F2430FFE54E31
:10432E0034F8FE7C017D6D122F44AC06AD07E54FCF
:10433E002433FFE54E34F8FEEF7802CEC313CE13CE
:10434E00D8F92DFFEC3EFEC3E5129FE5119E5008F5
:10435E00E54F154F7002154EE54F2430FFE54E34F4
:10436E00F8FE7C017D6D122F44AC06AD07E54F249F
:10437E0033FFE54E34F8FEEF7802CEC313CE13D8DA
:10438E00F92DFFEC3EFEC3E5129FF551E5119EF5AA
:10439E0050E4F552E552B4010BAF4FAE4E12621A15
:1043AE008F538003E4F553E552906500932553FF38
:1043BE00E433FEC3E5519FE5509E4013E5519FF552
:1043CE0051E5509EF5500552E552C3940B40C5057C
:1043DE00520551E551700205507430254FF54F745A
:1043EE00F8354EF54EAE50AF517C007D0A122F5669
:1043FE00EFC454F0FBAE50AF517C007D0A122F5625
:10440E00EB4DF558E55275F00A84C454F0FFE552B1
:10441E0075F00A84E5F04FF559AE4EAF4F7C007D36
:10442E000A122F56EFC454F0FBAE4EAF4F7C007DF8
:10443E000A122F56EB4DF55A7D547B07E4FF12649A
:05444E0038E4F57D22B9
:1064BD008F46E546543F901047F0FD7F297E001230
:1064CD006495901047E044C0F5467D467B017F07FB
:0864DD00126438D2630248EC9E
:1065C0008F53AD131246FE74032553F553E57F3008
:1065D000E004D2668002C266AD10AC0FAF53125B0E
:0265E00028226F
:105B28008F548C558D56300C077C647DE50263A537
:105B3800AE55AF567C007D3C122F56AD07ED75F083
:105B48000A84E5F07B00FAED75F00A84C454F0FE8F
:105B5800EB2400F558EE3AF557AE55AF567C007D6C
:105B68003C122F56ED75F00A8475F010A4FFAEF0C4
:105B7800ED75F00A847C00EF25F0FFEC3EFEEF2582
:105B880058F558EE3557F5577F573066067C647DD3
:0D5B9800FB80047C647DF6AB5412476D2247
:103F01008F478C488D49300C077C647DEB0263A59B
:103F1100AE48AF497C017D6D122F56EF24D0F54B91
:103F2100EE3407F54AE54B2430FFE54A34F8FE7CD0
:103F3100017D6D122F44AC06AD07E54B2433FFE53F
:103F41004A34F8FEEF7802CEC313CE13D8F92DFF11
:103F5100EC3EFEC3E5499FE5489E5008E54B154BF5
:103F61007002154AE54B2430FFE54A34F8FE7C0126
:103F71007D6D122F44AC06AD07E54B2433FFE54AB6
:103F810034F8FEEF7802CEC313CE13D8F92DFFEC2F
:103F91003EFEC3E5499FF54DE5489EF54CE4F54EDF
:103FA100E54EB4010BAF4BAE4A12621A8F4F80033C
:103FB100E4F54FE54E90650093254FFFE433FEC3D2
:103FC100E54D9FE54C9E4013E54D9FF54DE54C9E1B
:103FD100F54C054EE54EC3940B40C5054E054DE528
:103FE1004D7002054CE5474480FFC267124DCCAECF
:103FF1004CAF4D7C007D0A122F56EF2430FFD26763
:10400100124DCCAE4CAF4D7C007D0A122F56ED24E3
:1040110030FFD267124DCCD2677F2E124DCCE54EC8
:1040210075F00A842430FFD267124DCCE54E75F04D
:104031000A84E5F02430FFD267124DCCD2677F2E7F
:10404100124DCCAE4AAF4B7C037DE8122F568F4FF9
:104051007E007C037DE8122F44C3E54B9FF54BE5C1
:104061004A9EF54AE54F2430FFD267124DCCAE4A45
:10407100AF4B7C007D64122F568F4FEF75F064A417
:10408100FFAEF0C3E54B9FF54BE54A9EF54AE54F80
:104091002430FFD267124DCCAE4AAF4B7C007D0A73
:1040A100122F568F4FEF75F00AA4FFAEF0C3E54B08
:1040B1009FF54BE54A9EF54AE54F2430FFD2671242
:1040C1004DCCAE4AAF4B7C007D0A122F56ED243009
:0740D100FFD267124DCC2263
:105014008F478C488D49300C057D0702614DAE48A1
:10502400AF497C007D0C122F56EF24D0F54BEE34A3
:1050340007F54AAE48AF497C007D0C122F56ED04AB
:10504400F54CE5474480FFC267124DCCE54C75F042
:105054000A842430FFD267124DCCE54C75F00A84E3
:10506400E5F02430FFD267124DCCD2677F2F124D6A
:10507400CCAE4AAF4B7C037DE8122F56AB077E00C3
:105084007C037DE8122F44C3E54B9FF54BE54A9E14
:10509400F54AEB2430FFD267124DCCAE4AAF4B7CBD
:1050A400007D64122F56AB07EB75F064A4FFAEF0DD
:1050B400C3E54B9FF54BE54A9EF54AEB2430FFD2FE
:1050C40067124DCCAE4AAF4B7C007D0A122F56AB13
:1050D40007EB75F00AA4FFAEF0C3E54B9FF54BE573
:1050E4004A9EF54AEB2430FFD267124DCCAE4AAF4C
:1050F4004B7C007D0A122F56ED2430FFD267124DEF
:02510400CC22BB
:105A15008F4EA905C3EB94D0EA94074009D3EB94C4
:105A250033EA94084004E4FEFF22EB2430FFEA3415
:105A3500F8FE7C017D6D122F44AC06AD07EB2433D7
:105A4500FFEA34F8FEEF7802CEC313CE13D8F92D52
:105A5500F550EC3EF54FE4FFE914FEEFC39E5011FF
:105A6500EF906500932550F550E4354FF54F0F80C5
:105A7500E7E9D394024011AF03AE0212621AEF2593
:105A850050F550E4354FF54FE54E24FFFFE434FF64
:0F5A9500FEEF2550F550EE354FF54FFEAF502286
:1066D300EF2405FFE43EFE7C007D07122F56AF0535
:0166E3002294
:10621A00AB07AA06EB54037035C3EB942EEA940637
:10622A0050037F01227C007D64AF03AE02122F5619
:10623A00D3ED9400EC940040037F0122AE02AF0339
:10624A007C017D90122F56ED4C70037F01227F0056
:01625A002221
:10625B008F4E8D4F8B50125D377FD0125D16AF4F27
:10626B00125D16125D377FD1125D16E550D3940186
:10627B00400FE4FF125CF2A84EA6071550054E80A6
:0D628B00EA7F01125CF2A84EA607025D47F3
:106438008F5B8D5C8B5D125D377FD0125D16AF5B15
:10644800125D16E55D6011E55D6012A85CE6FF125D
:106458005D16155D055C80EFAF5C125D16025D4749
:1066E40020203A202020002D2D3A2D2D0000153099
:0166F4004560
:103D09008B468A4789488C498D4A754E80E4F54B24
:103D1900E51314F54DE54BC39407505EE54D940644
:103D29004003754D06E4F54CE54D75F008A4FFAE6A
:103D3900F0AB462548F9E5473EFA7C00E9254CF900
:103D4900EC3AFA122ECAC394605024E5482438F993
:103D5900E43547FAE92FF9EA3EFA7E00E9254CF9FC
:103D6900EE3AFA122ECAF54E054CE54CB408B9E5FF
:103D79004E30E706054B154D809BE54E30E706753D
:103D89004E03023EFEE510254AF550E50F3549F58B
:103D99004FE4F54B85134DE54D75F008A4FFAEF0E2
:103DA900AB462548F9E5473EFA7C00E9254BF9EC95
:103DB9003AFA122ECAC394604003023E6BE54824C6
:103DC90038F9E43547FAE92FF9EA3EFA7E00E925A0
:103DD9004BF9EE3AFA122ECA6403602BE54D75F0E1
:103DE90008A42548F9E54735F0FA7E00E9254BF99D
:103DF900EE3AFA122ECAFF7D0F122F44D3EF9550D7
:103E0900EE954F5052802DE54D75F008A4AB46252F
:103E190048F9E54735F0FA7E00E9254BF9EE3AFA1B
:103E2900122ECAFF7C007D0F122F44D3EF9510EE9E
:103E3900950F5023E5482438F9E43547FAE54D75DF
:103E4900F008A429F9EA35F0FA7E00E9254BF9EEE4
:103E59003AFA122ECAF54E054BE54B640860030287
:103E69003DA0D3E550949FE54F94055003023EFED3
:103E7900054DE54DD394064003E4F54D7460255096
:103E8900F55074FA354FF54FE4F54BE54D75F008EB
:103E9900A4AB462548F9E54735F0FA7E00E9254BFC
:103EA900F9EE3AFA122ECAFBFF7C007D0F122F445D
:103EB900D3EF9550EE954F503CEBC394605036AB21
:103EC90046E5482438F9E43547FAE54D75F008A484
:103ED90029F9EA35F0FA7E00E9254BF9EE3AFA12AA
:103EE9002ECAFF64016004EFB402028F4E054BE550
:083EF9004B64087096AF4E22E5
:104EF3008B368A378938AB39AA3AA93B7480122F8B
:104F030010E4F53C85133DE53D75F008A4AB36256B
:104F130038F9E53735F0FA7E00E9253CF9EE3AFA3F
:104F2300122ECAFBFF7C007D0F122F44D3EF951086
:104F3300EE950F4057EB9460505DAB36E53824385F
:104F4300F9E43537FAE53D75F008A429F9EA35F0B7
:104F5300FA7E00E9253CF9EE3AFA122ECAAB39AAD9
:104F63003AA93B122F10E53D75F008A4AB3625385E
:104F7300F9E53735F0FA7E00E9253CF9EE3AFA1205
:104F83002ECAFF122F448E3E8F3F800B053CE53C1B
:104F930064086003024F0AAB39AA3AA93B122ECA2E
:104FA30030E753053DE53DD394064003E4F53DE585
:104FB3003D75F008A4AB362538F9E53735F0FA909E
:104FC3000038122EE3AB39AA3AA93B122F10AB36A5
:104FD300AA37A93875F008E53DA4F58285F0831258
:104FE3002EE3FF7E007C007D0F122F44EF24A0F5FB
:104FF3003FEE3405F53EAB39AA3AA93B122ECA70EF
:105003000B7403122F10753E0B753FB8AE3EAF3FC6
:01501300227A
:1040D8008B368A378938E4F53A753B60753C10F5BC
:1040E80039E51375F008A4FFAEF0AB362538F9E5CD
:1040F800373EFA7C00E92539F9EC3AFA122ECAC3A0
:1041080094105040E5382438F9E43537FAE92FF9A6
:10411800EA3EFA7E00E92539F9EE3AFA122ECAB4D7
:104128000322E51375F008A42538F9E53735F0FAC8
:104138007E00E92539F9EE3AFA122ECAFFD3953AEC
:1041480040028F3AE51375F008A4FFAEF0AB3625B0
:1041580038F9E5373EFA7C00E92539F9EC3AFA12E4
:104168002ECAC39410404CE5382438F9E43537FAA0
:10417800E92FF9EA3EFA7E00E92539F9EE3AFA1212
:104188002ECA6403602DE51375F008A42538F9E5F7
:104198003735F0FA7E00E92539F9EE3AFA122ECAD7
:1041A800FFC3953B500D8F3BE53B953C4005E53BF8
:1041B80004F53CAB36E5382438F9E43537FAE5132D
:1041C80075F008A4FFAEF029F9EA3EFA7C00E9256B
:1041D80039F9EC3AFA122ECAB4031CE5382FF9E57E
:1041E800373EFA7E00E92539F9EE3AFA122ECAFF6F
:1041F800D3953C40028F3C0539E5396408600302D9
:1042080040E9E51304F53DD394064003E4F53DE4A5
:10421800F539E53D75F008A4FFAEF0AB362538F961
:10422800E5373EFA7C00E92539F9EC3AFA122ECA4C
:10423800C39410502AE5382438F9E43537FAE92FC1
:10424800F9EA3EFA7E00E92539F9EE3AFA122ECA61
:10425800B40305753C6080070539E539B408B3C275
:1042680061AF3A7E007C007D0F122F44C3E5109F9A
:10427800E50F9E4002D261AF3B7E007C007D0F12AD
:104288002F44C3E5109FE50F9E4002C261AF3C7EFC
:10429800007C007D0F122F44C3E5109FE50F9E4060
:0642A80002D261A26122B6
:105C7B008B3B8A3C893D8D3EC260E4F540E4F53FA9
:105C8B00E54075F008A4FFAEF0AB3B253DF9E53CD4
:105C9B003EFA7C00E9253FF9EC3AFA122ECAD3946E
:105CAB00605020E53D2438F9E4353CFAE92FF9EA58
:105CBB003EFA7E00E9253FF9EE3AFA122ECAD3944A
:105CCB00034004D2608007053FE53FB408B2206073
:105CDB00070540E540B407A530600BAB3BAA3CA9D8
:075CEB003DAD3E124C9B226F
:104C9B008B418A4289438D44E4F546E4F545E5466C
:104CAB0075F008A4FFAEF0AB412543F9E5423EFA9F
:104CBB00AD457C00E92DF9EC3AFA7460122F10AB7C
:104CCB0041E5432438F9E43542FAE92FF9EA3EFA93
:104CDB00E92DF9EC3AFAE4122F100545E545B40835
:104CEB00BD0546E546B407B3E5447003024DC7E482
:104CFB00F545D39022B27401939545E493940050FB
:104D0B0003024DC775F005E5459021E51232C1AFA1
:104D1B00828583478F48E49365446003024DB5F564
:104D2B0046854882854783740193FD7C0074017E20
:104D3B0000A846088005C333CE33CED8F9FFEE5C0E
:104D4B00FEEF5D4E6057854882854783740393FD64
:104D5B00E54675F008A4AB412543F9E54235F0FA79
:104D6B007402937E0029F9EE3AFAED122F10854862
:104D7B0082854783740493FDAB41E5432438F9E402
:104D8B003542FAE54675F008A429F9EA35F0FA74CC
:104D9B0002937E0029F9EE3AFAED122F100546E543
:104DAB004664076003024D2C800D8548828547833E
:0D4DBB00E493D3954450050545024CFD22BC
:105DC7008F478D48300C067C667DE48057E548C3D5
:105DD7009460504AE5481313543F754900F54AD378
:105DE7009409E54994004019E54A9414E54994005B
:105DF700500474068002740C254AF54AE43549F5C7
:105E070049E54A754A00F549E54854039066F19318
:105E1700424AE47F497C647DFBAB4702476D7C6661
:085E27007DEBAF471263A522D9
:106468008F478D487D1012614D200C20E4F549E5D9
:1064780048601930E00CAD49AF471246FEEF25479A
:0D648800F5470549E548C313F54880E322B8
:1058DF008B4E8A4F89508D51E4F553E55275F00880
:1058EF00A4AB4E2550F9E54F35F0FA7E00E925536C
:1058FF00F9EE3AFA122ECAFDE55175F008A42550BB
:10590F00F9E54F35F0FA7E00E92553F9EE3AFA1230
:10591F002ECA6D6002C322AB4EE5502438F9E43530
:10592F004FFAE55275F008A429F9EA35F0FA7E002E
:10593F00E92553F9EE3AFA122ECAFDE5502438F94B
:10594F00E4354FFAE55175F008A429F9EA35F0FA74
:10595F007E00E92553F9EE3AFA122ECA6D6002C3A2
:0E596F00220553E553640860030258EAD32270
:10561A008E438F448D458B46AF457401A807088099
:10562A0002C333D8FCF45246E54670030256D2FF51
:10563A0012650C8F487401A807088002C333D8FC8E
:10564A00F45246E4F547E547C3940850DB854482A3
:10565A0085438375F008E5451232C1E5822547F591
:10566A0082E43583F583E0FF85448285438375F0C0
:10567A0008E5481232C1E5822547F582E43583F50B
:10568A0083EFF0E5442438F582E43543F58375F079
:10569A0008E5451232C1E5822547F582E43583F5EE
:1056AA0083E0FFE5442438F582E43543F58375F059
:1056BA0008E5481232C1E5822547F582E43583F5CB
:0956CA0083EFF00547025650225F
:10650C00AD07E4FC74017E00A804088005C333CEFB
:10651C0033CED8F9FFEDFBEF5B7009ECC394075059
:07652C00030C80E0AF042224
:105559008F468B478A488949E546C394075010749A
:1055690001A807088002C333D8FCF54A025617740C
:10557900FA2546F546E4F54BF54CF54DE4F54AE5D3
:105589004D04FFEFC394075031AB47AA48A9498F8F
:1055990052AD4D1258DF501FE54A700EAE4D04A8AA
:1055A90006088002C333D8FCF54A7401A8070880AD
:1055B90002C333D8FC424A0F80C9E54A6006054C4C
:1055C900424B800FAF4D7401A807088002C333D83E
:1055D900FC424BE54DC39407501A74017E00A84D57
:1055E900088005C333CE33CED8F9FFEF554B60049D
:1055F900054D80DFE54CC39546500AE54DC3940738
:105609005003025585E54C65466003E4F54AAF4A07
:01561900226E
:103ADE008E438F448D45E4F546E5442438F582E463
:103AEE003543F58375F008E5451232C1E58225466A
:103AFE00F582E43583F583E0701E85448285438329
:103B0E0075F008E5451232C1E5822546F582E435A9
:103B1E0083F5837460F0803D85448285438375F020
:103B2E0008E5451232C1E5822546F582E43583F576
:103B3E0083E0B46020E5442438F582E43543F58310
:103B4E0075F008E5451232C1E5822546F582E43569
:103B5E0083F583E4F00546E54664086003023AE720
:103B6E00E4F546E5465401F547E547C3940740039F
:103B7E00023CFCE5472401FFE433FE854482854385
:103B8E008375F008E5451232C1E5822FF582E58393
:103B9E003EF583E0F985448285438375F008E5455B
:103BAE001232C1E5822547F582E43583F583E0FDC7
:103BBE00E9C39D4003023C868D488544828543833C
:103BCE0075F008E5451232C1E5822547F582E435E8
:103BDE0083F583E9F085448285438375F008E545D6
:103BEE001232C1E5822FF582E5833EF583E548F07A
:103BFE00E5442438F582E43543F58375F008E54550
:103C0E001232C1E5822547F582E43583F583E0F56E
:103C1E0048E5472439FFE433FE85448285438375A6
:103C2E00F008E5451232C1E5822FF582E5833EF5B7
:103C3E0083E0FFE5442438F582E43543F58375F0DF
:103C4E0008E5451232C1E5822547F582E43583F554
:103C5E0083EFF0E5472439FFE433FE854482854344
:103C6E008375F008E5451232C1E5822FF582E583B2
:103C7E003EF583E548F0806FE5472401FFE433FE0F
:103C8E0085448285438375F008E5451232C1E5828D
:103C9E002FF582E5833EF583E0FF854482854383DD
:103CAE0075F008E5451232C1E5822547F582E43507
:103CBE0083F583E0FEEF6E702EEF64606029E547BA
:103CCE002401FFE433FE85448285438375F008E5C5
:103CDE00451232C1E5822FF582E5833EF58374608D
:103CEE00F07547077546FF05470547023B770546C2
:0B3CFE00E546C394075003023B71220F
:106372008E468F47AE04AF05AA06A9077B01E4FF4C
:10638200EFC39470501C854782854683E0122F101C
:106392000F0547E54770020546740129F9E43AFA08
:0363A20080DE2278
:10597D00C26EC26DE490108EF0A3F0C2C4E5152482
:10598D0012F582E43514F583E04404F0E4F53612A3
:10599D0066990536E536C3946440F4E4901094F0AE
:1059AD00A3F0A3F0A3F01262D2901090E0FDB44FDB
:1059BD0026D26E901092E075F00AA4FBAAF090101A
:1059CD0091E075F064A42BFFE5F03AFE901093E0A2
:1059DD007A002FFFEA8028EDB44C2CD26D901092F6
:1059ED00E075F00AA4FDACF0901091E075F064A4A0
:1059FD002DFFE5F03CFE901093E07C002FFFEC3E78
:085A0D0090108EF0A3EFF022CF
:1062D200C2C71266AD1266ADE4F53774942537F580
:1062E20082E43410F583E0FF12629874902537F54A
:1062F20082E43410F583EFF01266AD0537E537C35B
:07630200940440D7D2C7222A
:106298008F38E4F53AF539E53830E704D2C680029C
:1062A800C2C6E53825E0F538D2C4125D55E53A2571
:1062B800E0F53A30C503433A01C2C4125D550539C9
:0A62C800E539C3940840D0AF3A2234
:1066AD0075A6EF7F487E01EF1F70011EEF4E70F74C
:0466BD0075A6EF22AD
:105CF2007B08EFF57ED2B7125D59A2B633C2B71256
:105D02005D59DBF1FFE57E1392B6D2B7125D59C23F
:105D1200B7D2B6227B08EF3392B6125D59D2B712D0
:105D22005D59C2B7DBF1D2B6125D59D2B7125D59D5
:105D3200A2B6C2B722D2B6D2B7125D59C2B6125DAE
:105D420059C2B78012C2B6125D59D2B7125D59D28A
:0C5D5200B68004781280027807D8FE2288
:04671D00020E08362A
:10F0C00090104AE07004A3E06401700312FC1990F0
:10F0D000104AE0FFA3E090070FCFF0A3EFF0C25C6F
:10F0E000C25FC258C25EC25BC25AC25D9001B774B1
:10F0F0000AF09001FB743CF0E4F51DF51E9001F957
:10F10000F0A3F09001D7F0A3F090020DF09001F57C
:10F11000F0A3F0A3F0A3F0900188F0A3F0900A4BC5
:10F12000F0A3F0900180F0A3F09001B7E024E0FE9E
:10F13000E434019001D5F0A3CEF0E4900204F09005
:10F140000209F0A3F0900207F0A3F09001B8F0A339
:10F15000F09001C2F0900A58F0A3F09001B5F0A32E
:10F16000F09001C0F0A3F0900203F0900A4D74FEFD
:10F17000F0E4900A56F0A3F09001BEF0A3F09001E5
:10F1800082F0A3F0900A4EF0900A487448F0E490A0
:10F190000A46F0A3F09001BA12327300000000E4B6
:10F1A000900A4FF09001FEF09001FCF0A3F0900166
:10F1B0008BF090018AF09001C3F0A3F09001FFF072
:10F1C00090020BF0A3F090018CF0A3F0A3F0A3F059
:10F1D000A3F0A3F0A3F09001B0F0A3F0900193F09E
:10F1E000A3F0A3F0A3F0A3F0A3F0A3F0A3F0A3F087
:10F1F000A3F0A3F0A312327300000000E49001A278
:10F20000F0A3F0A3F0A3F0A312327300000000906B
:10F2100001AA12327300000000E49001AEF0A3F0E6
:10F220009001B2F0900202F09001B3F0A3F09001CF
:10F23000F404F0E4900A44F0A3F09001F2F0A3F09B
:10F2400090018412327300000000E4900A54F0A38D
:10F25000F07E017FD9C39001F2EF9582EE95835045
:10F260000D8F828E83E4F00FBF00010E80E7900EB9
:10F270007EE04408F0A3E04403F07E017FC5C39024
:10F2800001D5EF9582EE9583500D8F828E83E4F049
:10F290000FBF00010E80E7900F07E0447CF0901054
:10F2A00022E0D394004002E4F012EB0C12F2B2021E
:02F2B000670DE8
:10FC190090109FE0FDC4540F75F00AA4FFED540F36
:10FC29007C002FFBEC35F0FAAE11AF120C7D6D1292
:10FC39002F567C007D0C122F44EF2BFFEE3ACF2478
:10FC49000BCF34009006F4F0A3EFF07E067FF47D2D
:04FC5900020261033F
:10DB40009001B7E0600214F09001FBE0600214F075
:10DB5000900A52E07002A3E0600A900A5274FFF546
:10DB6000F0122FE1900A49E07002A3E0600A900AE7
:10DB70004974FFF5F0122FE19001D7E07002A3E0A5
:10DB8000600A9001D774FFF5F0122FE1900180E058
:10DB90007002A3E0600A90018074FFF5F0122FE19B
:10DBA0009001D5E07002A3E0600A9001D574FFF502
:10DBB000F0122FE1900209E07002A3E0600A9002E7
:10DBC0000974FFF5F0122FE1900207E07002A3E064
:10DBD000600A90020774FFF5F0122FE19001B8E09F
:10DBE0007002A3E0600A9001B874FFF5F0122FE113
:10DBF0009001B5E07002A3E0600A9001B574FFF5F2
:10DC0000F0122FE1900A56E07002A3E0600A900A39
:10DC10005674FFF5F0122FE19001BEE07002A3E010
:10DC2000600A9001BE74FFF5F0122FE1900182E0CE
:10DC30007002A3E0600A90018274FFF5F0122FE1F8
:10DC4000900204E0600214F09001FFE0600214F022
:10DC500090020BE07002A3E0600A90020B74FFF5E3
:10DC6000F0122FE19001B3E07002A3E0600A90018E
:10DC7000B374FFF5F0122FE1900A54E07002A3E0B4
:10DC8000600A900A5474FFF5F0122FE1E510B4D049
:10DC900021E50FB4021CE57FD394145015900EBB00
:10DCA000E0947E900EBAE0648094845005431E0494
:10DCB0008003531EFB307205C2724365389001F930
:10DCC000E07002A3E0600D9001F974FFF5F0122FEF
:10DCD000E102DDA09001B7E0600302DDA09001F950
:10DCE0007404F0A374B0F0E4F52F900202E0B405E0
:10DCF00005752F03805E90104CE0FF64056004EF13
:10DD0000B40609901072E030E63C80379006F4E0EB
:10DD1000FEA3E0FF7C007D0C122F56EF24D0FBEE1B
:10DD20003407FA9006F4E0FEA3E0FF7C007D0C12BD
:10DD30002F56ED04FD7F01125A15D3EF9512EE9583
:10DD4000115003752F02E52F700A900202E0B4060D
:10DD500003752F04E52F6048E4FF75F002EF900A89
:10DD60007D1232C1E0FCA3E04C7031745E2FF5826D
:10DD7000E4340AF583E52FF075F002EF900A65129E
:10DD800032C17402F0A3741CF075F002EF9021CB45
:10DD90001232C1E493426474019342650FBF03BA27
:10DDA00090020DE070182069152070129001D9E0E2
:10DDB000700C9001C5E07006201B03302803D3804F
:10DDC00001C39231900E55E020E30302DE5390012F
:10DDD000AA12322FEC4D4E4F60089001B27407F03A
:10DDE0008076900195E0FEA3E0FFEE705EEF1232C8
:10DDF000EBDE1900DE2105DE230ADE230FDE231110
:10DE0000DE2313DE3314DE2B19DE2B1EDE3328DE79
:10DE10003B32DE43460000DE4B9001B27401F080DD
:10DE20003780309001B27405F0802D9001B27404F7
:10DE3000F080259001B27402F0801D9001B274034D
:10DE4000F080159001B27406F0800D9001B2740854
:10DE5000F08005E49001B2F0302A1E900E61E0706F
:10DE600018C22A90671D93FE740193FF90671FE408
:10DE700093FC740193FD126103901022E09007134C
:10DE8000F0300869C20830550312FA4A90104CE08D
:10DE9000FB64066037306D09901088E0D39405402C
:10DEA0002B30372890070AE004F0C3943C401DE073
:10DEB00024C4F090070612322FEF2401FFE43EFE47
:10DEC000E43DFDE43CFC900706123267300925C2B0
:10DED00009EB6406601E306D09901088E0D394054C
:10DEE00040127E077F067D057C00026103300A0434
:05DEF000C20AC2742209
:10FA4A00E5136406707C90109FE0FF64036005EF85
:10FA5A006410706E90109FE0FFC4540F75F00AA4F2
:10FA6A00FEEF540F2E14FF90109EE0FEC4540F7543
:10FA7A00F00AA4FDEE540F2DFEEF90650093C39E8D
:10FA8A00C39407503D90109FE0B4030FE5106478CB
:10FA9A00450F7007F50F7510B4802490109FE0B4DD
:10FAAA001020E5106477450F7003D25622305612A3
:10FABA00E51064B4450F700AC256F50F7510781236
:03FACA0042AE2227
:10EB0C00437001900E7EA3E0FF20E602800C900E75
:10EB1C007DE030E6055370FD8003437002C259EF6F
:10EB2C0020E313437004900C30E0FF6409604AEF5B
:10EB3C006410704D80435370FB900E7DE020E32CED
:10EB4C00900C30E0C394075038900714E0FF700825
:10EB5C009002107409F08029EFB40108900210742F
:10EB6C0010F0801DEFB40219D2598015900C30E0D2
:10EB7C00FF64096004EFB41008900211E0900210D9
:10EB8C00F0900E7EE0FEA3E0FF20E702800C900EDA
:10EB9C007DE030E7055372FE8003437201E572306D
:10EBAC00E071EF20E51D437204900C55E0FF640901
:10EBBC006005EF641070577F01124703900396EFC6
:10EBCC00F0804B5372FB900E7DE020E52C900C55A1
:10EBDC00E0C394075038900715E0FF700890039637
:10EBEC007409F08029EFB401089003967410F0803A
:10EBFC001DEFB40219D2598015900C55E0FF640931
:10EC0C006004EFB41008900397E0900396F0437201
:10EC1C00028005E4F571F572E57830E10543740185
:10EC2C0080035374FEE57430E077900F07E020E426
:10EC3C001D437404900C7AE0FF64096005EF6410C6
:10EC4C00705A7F02124703900720EFF0804E5374E6
:10EC5C00FB900F05E020E42F900C7AE0C394075052
:10EC6C003B9008A6E0FF70089007207409F0802CF8
:10EC7C00EFB401089007207410F08020900715E085
:10EC8C00B40219D2598015900C7AE0FF6409600423
:10EC9C00EFB41008900721E0900720F04374028035
:10ECAC0005E4F573F574E57830E2054376018003ED
:10ECBC005376FEE57630E014900F07E020E605432E
:10ECCC00760480035376FB4376028005E4F575F5F4
:10ECDC0076A22B9260900E7EA3E0FF20E104D22B53
:10ECEC00800D900E7DE030E104C22B8002D22BA26D
:10ECFC0060302B01B35005E490104CF0EF20E4048D
:10ED0C00D25C800D900E7DE030E404C25C8002D2B7
:10ED1C005C900E7EE0FEA3E020E004D232800D90E9
:10ED2C000E7DE030E004C2328002D232EE33B39278
:10ED3C0033E490020DF09001B7E0600302EDE8E5DA
:10ED4C007630E019900F06A3E0FF30E70690020D35
:10ED5C007415F0EF30E50690020D7414F0E5743084
:10ED6C00E00D900F07E030E30690020D7410F0E513
:10ED7C007830E02D900712E020E40D900F07E03082
:10ED8C00E20690020D740EF0900F06A3E0FF30E146
:10ED9C000690020D740DF0EF30E00690020D740C2D
:10EDAC00F0900E7EE030E70F203206206E09206DC9
:10EDBC000690020D740BF0900E7EE030E11E900C6C
:10EDCC0033E0B40111E57230E007900C58E0B40167
:0DEDDC0005E57430E00690020D740AF02287
:10F2B20090021CE024FFFF90021BE034FFFE90024C
:10F2C20019E0FCA3E0FDD39FEC9E4016ED2401FE65
:10F2D200E43CA3F0A3CEF07E027F1B7D027C0012F1
:10F2E20061039001FBE0600302F36BE57720E52800
:10F2F200E4900C33F0A3F0900712E020E035900E7A
:10F3020056E0702F900712E04401F07E077F117DD6
:10F31200027C00126103801B90021DE0900C33F00E
:10F32200E57730E507900222E0FF80027F00900C33
:10F3320034EFF0900A10E024FE60131460172402E8
:10F342007027E57230E013E57730E61D800CE57436
:10F3520020E0168005E57620E00FE4900A10F07EAA
:10F362000A7F107D01FC126103E4900A20F09003F1
:10F37200A2E024FFFF9003A1E034FFFE90039FE090
:10F38200FCA3E0FDD39FEC9E4016ED2401FEE43C7D
:10F39200A3F0A3CEF07E037FA17D027C0012610365
:10F3A2009001FBE07046E57720E61CE4900C58F0F3
:10F3B200A3F0900712E020E133900E57E0702D90F9
:10F3C2000712E0440280199003A3E0900C58F090D9
:10F3D20003A8E0900C59F0900712E030E20E54FBC3
:10F3E200F07E077F117D027C00126103E4900A30F7
:10F3F200F020321A900716E06003B403119007164A
:10F402007402F07E077F167D017C00126103900179
:10F41200FBE0707790072CE024FFFF90072BE0348D
:10F42200FFFE900729E0FCA3E0FDD39FEC9E40166F
:10F43200ED2401FEE43CA3F0A3CEF07E077F2B7DFA
:10F44200027C00126103E4900C7DF0A3F0900A406C
:10F45200F0E57820E002C254E57630E00320321570
:10F46200900712E030E70E547FF07E077F117D0295
:10F472007C00126103201D13900A09E0B4010CE420
:0CF48200F07E0A7F097D01FC126103226C
:10F86000123754900F08E07002A3E0600302F95DC4
:10F8700090104CE0FF64036005EF64047026E51E01
:10F8800030E3028040900EA6E0FFA3E0900EC0CFD0
:10F89000F0A3EFF0900E7EE0FEA3E0FF30E135EE46
:10F8A0004440804D900E7EE0FCA3E0FD20E11190ED
:10F8B0000EA6E0FFA3E0900EC0CFF0A3EFF08014FF
:10F8C000E51E30E318900EE0E0FFA3E0900EC0CFFD
:10F8D000F0A3EFF0900E7EE054BFF0801B900EA6D8
:10F8E000E0FFA3E0900EC0CFF0A3EFF0EC4440AFF8
:10F8F00005900E7EF0A3EFF0900E7EE0FEA3E0FFF9
:10F90000EE30E0124402900E7EF0A3EFF0E4900E91
:10F91000B6F0A3F08014900E7EE054FDF0900EB48B
:10F92000E0FFA3E0A3CFF0A3EFF0900E7EE0FEA3F4
:10F93000E0FF30E212EE4480900E7EF0A3EFF0E4A0
:10F94000900EC2F0A3F022900E7EE0547FF0900E55
:0EF95000A8E0FFA3E0900EC2CFF0A3EFF022DC
:10E22A0020320302E3CC303625900608E024E2FFD0
:10E23A00900607E034FFFEC3900EC3E09FEE6480B1
:10E24A00F8900EC2E06480985021C236801D900674
:10E25A0007E0FEA3E0FFD3900EC3E09FEE6480F8D0
:10E26A00900EC2E06480984002D236E57620E00340
:10E27A0002E3CA20180302E3CE301946900608E0EA
:10E28A0024D8FF900607E034FFFEC3900EC3E09F38
:10E29A00EE6480F8900EC2E064809840219008AD48
:10E2AA00E0240AFF9008ACE03400FED3900ED3E0DD
:10E2BA009FEE6480F8900ED2E06480984041C219C3
:10E2CA00803D900608E024ECFF900607E034FFFE4C
:10E2DA00D3900EC3E09FEE6480F8900EC2E0648093
:10E2EA0098401C9008ACE0FEA3E0FF900ED3E09F9C
:10E2FA00EE6480F8900ED2E06480985002D2193011
:10E30A003C5F207458900520E0FEA3E0FF90051CB6
:10E31A00E0FCA3E0FDD39FEE6480F8EC64809840B3
:10E32A0006AE04AF058000EF2450FFE43EFE900ED7
:10E33A00C2E0FCA3E0FDD39FEE6480F8EC64809811
:10E34A00401B900ED3E02450FF900ED2E03400FE22
:10E35A00D3ED9FEE6480F8EC648098506BC23C80E9
:10E36A0067207464900520E0FEA3E0FF90051CE09E
:10E37A00FCA3E0FDD39FEE6480F8EC64809840062D
:10E38A00AE04AF058000EF2464FFE43EFE900EC2A7
:10E39A00E0FCA3E0FDC39FEE6480F8EC6480984043
:10E3AA0027900ED3E02464FF900ED2E03400FEC31F
:10E3BA00ED9FEE6480F8EC648098400CD23C8008B3
:10E3CA008002C236C219C23C302F15C3900EC1E07A
:10E3DA009464900EC0E0648094804017C22F80132A
:10E3EA00C3900EC1E09432900EC0E06480948050D5
:10E3FA0002D22F303525C3900EC3E09464900EC22A
:10E40A00E0648094804037900EA5E09464900EA456
:10E41A00E0648094804027C2358023C3900EC3E015
:10E42A009432900EC2E0648094804010900EA5E071
:10E43A009432900EA4E0648094805002D235301F4A
:10E44A006030213490060BE0FFC3900A59E09FFF29
:10E45A00900A58E09400FEC3900EC3E09FEE6480D9
:10E46A00F8900EC2E06480985039900A54E0700225
:10E47A00A3E0702FC221802B900A58E0FEA3E0FF90
:10E48A00D3900EC3E09FEE6480F8900EC2E06480E1
:10E49A0098500A900A54E07002A3E06006D22180E4
:10E4AA0002D221900E55E030E372201D03D22222BF
:10E4BA00302234900608E024CEFF900607E034FFAD
:10E4CA00FED3900EC3E09FEE6480F8900EC2E06423
:10E4DA0080985010900EDBE09448900EDAE0648049
:10E4EA009483403AC22222900608E0249CFF9006B8
:10E4FA0007E034FFFEC3900EC3E09FEE6480F890FD
:10E50A000EC2E06480985016C3900EDBE09420900F
:0FE51A000EDAE0648094835005D22222C22222BE
:10DEF500202B08E51E20E30302E0E5900C30E0123C
:10DF050032EBDF3800DF3801DF3802DF3803DF3876
:10DF150004DF7105DF4D06DF7107DF6908DF710971
:10DF2500DF380ADF710BDF710CDF710DDF4D10007B
:10DF350000DF7730480A900C31E0900205F080321E
:10DF45007B017A057925800F7B013048067A0279B5
:10DF55003A80047A057925E4FDFC123D0990020515
:10DF6500EFF0800E9002057401F0800690020574B2
:10DF750003F03040353033309001F5E07002A3E016
:10DF85006013C3900EC3E09444900EC2E064809485
:10DF9500825056804DD3900EC3E09458900EC2E047
:10DFA50064809482404380298027900205E0FF60C9
:10DFB50017C394035012EF75F002A4241AF97405DF
:10DFC50035F08982F583800C302C17900205740199
:10DFD500F090051CE0FFA3E09001F5CFF0A3EFF072
:10DFE5008007E49001F5F0A3F0E57720E60302E071
:10DFF500DF900C55E01232EBE02E00E02E01E02E12
:10E0050002E02E03E02E04E06705E04306E0670723
:10E01500E05F08E06709E02E0AE0670BE0670CE0C7
:10E02500670DE043100000E06D30490A900C56E0A2
:10E03500900206F080327B017A057995800F7B018D
:10E045003049067A02793A80047A057995E4FDFC2F
:10E05500123D09900206EFF0800E9002067401F061
:10E0650080069002067403F030403530333090015D
:10E07500F7E07002A3E06013C3900EC3E0944490F0
:10E085000EC2E0648094825062804FD3900EC3E04C
:10E095009458900EC2E064809482404F8029802776
:10E0A500900206E0FF6017C394035012EF75F0026B
:10E0B500A4241EF9740535F08982F583800C302D72
:10E0C500179002067401F0900520E0FFA3E090018F
:10E0D500F7CFF0A3EFF080138000E49001F78008FC
:10E0E500E49001F5F0A3F0A3F0A3F09001F7E0FEB2
:10E0F500A3E0FF9001F5E0FCA3E0FDD39FEE648073
:10E10500F8EC6480984006AE04AF05800090018865
:10E11500EEF0A3EFF0E57730E323900188E070029D
:10E12500A3E07008900A4BF0A3F080329001CBE099
:10E13500FFA3E0900A4BCFF0A3EFF08021900716E4
:10E14500E07005FE7F6480047E007F00900189E019
:10E155002FFF900188E03E900A4BF0A3EFF0205C82
:10E1650006205F0302E221900C30E024FB601824B6
:10E17500FE601424FE601024FE600C2403701090D1
:10E1850002007401F0802C9002007403F0802430AA
:10E195004A10900205E0FFB402067E017F01800E61
:10E1A500800C7B017A067914E4FDFC123D0990028E
:10E1B50000EFF0302C069002007401F0E57730E6B0
:10E1C50054900C55E024FB601824FE601424FE6076
:10E1D5001024FE600C240370109002017401F0807D
:10E1E5002A9002017403F08022304B0E900206E063
:10E1F500FFB402047F01800E800C7B017A067984CE
:10E20500E4FDFC123D09900201EFF0302D1690025D
:10E21500017401F0229002017403F022900200744F
:05E2250003F0A3F0224C
:109DD800900C30E0FFB40C03D38001C39242EFB47F
:109DE8000D03D38001C39244900C30E0FFB40E03FE
:109DF800D38001C39240EFB40F03D38001C39243D1
:109E08002042033044067E007F0180047E007F00EC
:109E1800EE4F24FFB39241206D0890104CE0640689
:109E28007028901077E0FFC3648094765004D26164
:109E38008002C26120370330430CEFB46404D2605F
:109E4800800CC2608008C2608004C261C260206069
:109E580005E51E30E003D38001C3923EE56FA2E121
:109E68009262302E03204E03303E05436F0280037A
:109E7800536FFDE56F30E10D20620A900C39741CB8
:109E8800F0A37420F0E571A2E19262302E03205015
:109E980003303E0543710280035371FDE57130E1E3
:109EA8000D20620A900C5E741CF0A37420F0E57318
:109EB800A2E19262302E03205703303E054373021D
:109EC80080035373FDE57330E10D20620A900C8323
:109ED800741CF0A37420F0302E07900712E020E6DF
:109EE80003303E0543750280035375FD2061082049
:109EF8003605E51E30E103D38001C3923D20610899
:109F0800201905E51E30E103D38001C3921A202BE6
:109F180008E51E20E30302A1549001B7E06003C3E3
:109F28008002A22E9262900716E07076302E45903D
:109F38000A4BE0FEA3E0FFC3900EC1E09FEE6480F1
:109F4800F8900EC0E0648098500302A08390052426
:109F5800E0FDEF9DFFEE9400FEC3900EC3E09FEE80
:109F68006480F8900EC2E0648098500302A083C217
:109F78002E02A083900524E0FFC3900A4CE09FFFC7
:109F8800900A4BE09400FEC3900EC1E09FEE6480FF
:109F9800F8900EC0E0648098400302A083D22E029D
:109FA800A083900716E06403600302A039A25B92C5
:109FB80062305B1F900A4BE0FEA3E0FFC3900EC126
:109FC800E09FEE6480F8900EC0E0648098402CC258
:109FD8005B8028900524E0FFC3900A4CE09FFF9027
:109FE8000A4BE09400FEC3900EC1E09FEE6480F837
:109FF800900EC0E06480985002D25B302E07205B40
:10A008002AC22E8026305B23900A4CE02432FF902F
:10A018000A4BE03400FEC3900EC3E09FEE6480F864
:10A02800900EC2E06480985002D22EA25B926380A8
:10A038004E302E1F900A4BE0FEA3E0FFC3900EC1E6
:10A04800E09FEE6480F8900EC0E0648098402CC2D7
:10A058002E8028900524E0FFC3900A4CE09FFF90D3
:10A068000A4BE09400FEC3900EC1E09FEE6480F8B6
:10A07800900EC0E06480985002D22EA22E92639077
:10A08800104CE0FF64036004EFB40412901072E017
:10A09800FF20E205304702C22EEFA2E2924720637A
:10A0A8001C302C0B900205E0C394035002C22C30E4
:10A0B8002D0B900206E0C394035002C22D302F26C8
:10A0C800900A4BE0FEA3E0FFC39464EE64809480A2
:10A0D800500A7C007D647E007F648000900A4BEE0D
:10A0E800F0A3EFF0D22E900716E0B40303D380015B
:10A0F800C3403A30625F202E5C900605E0FEA3E084
:10A10800FF7C007D0C122F44EF243CFFE43EFE90C0
:10A1180001B5E0FCA3E0FD2FFFEC3E900180F0A329
:10A12800EFF0203230A3ECF0A3EDF0802830622568
:10A13800205B22900605E0FEA3E0FF7C007D0C1268
:10A148002F44900180EEF0A3EFF08009C22EE49036
:10A158000180F0A3F0205C06205F0302A2F8205FD4
:10A1680033900209E07002A3E0703520B332900604
:10A1780011E075F078A4FF900209E5F0F0A3EFF084
:10A18800900610E075F078A4FF900207E5F0F0A3C0
:10A19800EFF0800C20B3099001B8E4F0A3743CF010
:10A1A800E57030E305E56F30E214E57230E305E56C
:10A1B8007130E20AE57430E310E57320E20BD258FF
:10A1C8009001C27406F002A2FF900200E0640160F0
:10A1D80019A3E064016013900207E07002A3E07025
:10A1E800099001DCE0700302A2DF305F0302A2DB0A
:10A1F800900206E0FFB40205900522800390052036
:10A20800E0FCA3E0FD900205E0FEB4020590051E07
:10A21800800390051CE0FAA3E0FBD3EB9DEC64807F
:10A22800F8EA6480984017EEB4020590051E800392
:10A2380090051CE0FCA3E0FDAE04AF058011EFB46F
:10A2480002059005228003900520E0FEA3E0FF8E22
:10A258002F8F30900EC0E0FEA3E0FFC39530E52FAE
:10A268006480F8EE64809850028004AE2FAF30907E
:10A278000612E0FCA3E0FDC3EF9DF530EE9CF52F40
:10A28800305829C3900EADE09530E52F6480F890E2
:10A298000EACE06480984002C258900207E0700259
:10A2A800A3E060047F0180417F05803DE53024F60E
:10A2B800FFE52F34FFFED3900EADE09FEE6480F8EB
:10A2C800900EACE06480985002D2589001C2740499
:10A2D800F08024D258801BC258900209E07002A373
:10A2E800E060047F0280027F039001C2EFF08007E4
:10A2F800C258E49001C2F0305C10205805E51E30C9
:10A30800E203D38001C3925E8002C25E2032030260
:10A31800A4AE303A0302A4AE303D0302A4AE301A14
:10A328000302A4AE30430302A4AE302E13900716E6
:10A33800E0700D900A4BE0FFA3E0900A58CF807AB6
:10A34800900C6CE0FEA3E0FF900C47E0FCA3E0FD5E
:10A35800D39FEE6480F8EC6480984006AE04AF05A5
:10A368008000900A58EEF0A3EFF0900C91E0FCA367
:10A37800E0FDC39FEE6480F8EC648098500A900A70
:10A3880058E0FEA3E0FF8004AE04AF05900A58EE43
:10A39800F0A3EFF0900CB6E0FCA3E0FDC39FEE64E1
:10A3A80080F8EC648098500A900A58E0FEA3E0FF19
:10A3B8008004AE04AF05900A58EEF0A3EFF0900ABF
:10A3C80058E0FEA3E0FF4E6024900609E0FCA3E0FD
:10A3D800FDC3EF9DEC6480F8EE648098500F900602
:10A3E80009E0FFA3E0900A58CFF0A3EFF09006072A
:10A3F800E0FEA3E0FFD3900A59E09FEE6480F89056
:10A408000A58E06480984008900A58EEF0A3EFF0EC
:10A41800303440900A58E0FEA3E0FFD3900EC3E02A
:10A428009FEE6480F8900EC2E0648098404D9006DC
:10A438000BE013FDC3EF9DFFEE9400FED3900EA535
:10A44800E09FEE6480F8900EA4E0648098402CC2EF
:10A4580034802890060BE0FFC3900A59E09FFF90D4
:10A468000A58E09400FEC3900EC3E09FEE6480F8A3
:10A47800900EC2E06480985002D234303531900A90
:10A4880058E0FEA3E0FFC39490EE64809481500AE4
:10A498007C017D907E017F908000900A58EEF0A3A9
:10A4A800EFF0D2348009E4900A58F0A3F0C234E502
:10A4B8007820E00302A8959001FEE0146042147031
:10A4C8000302A55614700302A5E614700302A63908
:10A4D80014700302A6212405600302A66BC229900A
:10A4E800071BE0FEA3E0FFD3900EC5E09FEE64805B
:10A4F800F8900EC4E0648098500302A66B02A6563A
:10A50800C22990071DE0FEA3E0FF90071CE02FFF83
:10A5180090071BE03EFED3900EC5E09FEE6480F8E6
:10A52800900EC4E0648098400302A6099001FC7470
:10A53800FFF5F0122FE145F0600302A66B9001FCD5
:10A54800743FF0A37448F0A37405F002A66B302999
:10A5580034900EC6E0FEA3E0FFC3900EC5E09FFF57
:10A56800900EC4E09EFE90071EE024ECFD90071DAF
:10A57800E034FFFCC3EF9DEC6480F8EE64809850F3
:10A588002EC229802A900EC6E0FEA3E0FFC3900EDB
:10A59800C5E09FFF900EC4E09EFEC390071EE09F9B
:10A5A800EE6480F890071DE06480985002D22990EC
:10A5B800071BE0FEA3E0FFC3900EC5E09FEE64809A
:10A5C800F8900EC4E0648098400302A66B9001FCEA
:10A5D800743FF0A37448F0A37403F002A66BC22979
:10A5E80090071CE02414FF90071BE03400FEC39082
:10A5F8000EC5E09FEE6480F8900EC4E06480984039
