:10EF7100203232304E0000070E151C22282E343963
:10EF81003E43484C5054585C5F62640000010203E8
:10EF910004040506070808090A0A0B0C0C0D0E0FDC
:10EFA1000F101111121314141516171718191A1B13
:10EFB1001B1C1D1E1F1F2021222323242526272839
:10EFC100292A2B2C2D2E2F30313233343536373838
:10EFD100393A3B3C3E3F40414244454647494A4B12
:10EFE1004D4E4F505253555658595B5D5E606264A9
:10E2120012F78112EFF112F6E412F54512FBF61233
:10E22200B96812FBA212C28512F9D912E0B77E03B5
:10E232007F297B017A007DDC7C0012F2A69002D756
:10E24200E075F002A424F0F582E5F0345FF583E492
:10E2520093FE740193FF12FC539001DEE060149070
:10E2620004ECE0FEA3E0FF9001E4E02FF09001E374
:10E27200E03EF07C017DE37B027F257E0312F36F9B
:10E28200438901758A06758C4CC28DD28C12FCA012
:10E2920012F7CB12D00A12D24E12BF9F12EDEB121E
:10E2A200F48FC27412C82BD27412C82B126CE712EC
:10E2B200F64012C56212FC8912798B12EAB812DB9F
:10E2C200D99001FEE0045407F0B40700505790E2E1
:10E2D200D7F828287302E2EC02E2F402E2FC02E33D
:10E2E2000402E30C02E31A02E31F12F15912FAAF1D
:10E2F200803630403312400A802E30402B12941C5C
:10E3020080263040231282A3801E304003129B934A
:10E3120012FC3512FB4480101250AA800B207C089C
:10E32200128B94800312F06A12EB7E308DFDE4F5BD
:07E33200AE75A64C02E28566
:10FCA000307C0C12A7EB207C0912E75E02F92212CD
:03FCB000A7EB229D
:1050AA00900295E07002A3E0600E900296E024FF61
:1050BA00F0900295E034FFF09002FDE07002A3E068
:1050CA00600E9002FEE024FFF09002FDE034FFF053
:1050DA009001B8E07002A3E0600E9001B9E024FFED
:1050EA00F09001B8E034FFF0900207E0600214F09B
:1050FA00900289E004F07006900288E004F09001C2
:10510A008DE07002A3E0600E90018EE024FFF09023
:10511A00018DE034FFF0900320E0600214F0900269
:10512A000AE07002A3E0600E90020BE024FFF09008
:10513A00020AE034FFF09001EEE07002A3E0600E94
:10514A009001EFE024FFF09001EEE034FFF09001CF
:10515A00A1E07002A3E0600E9001A2E024FFF090AB
:10516A0001A1E034FFF0C39001D1E094BC9001D0DA
:10517A00E09434500CA3E004F070069001D0E004EF
:10518A00F09001F4E07002A3E0600E9001F5E024D3
:10519A00FFF09001F4E034FFF090020FE07002A3F8
:1051AA00E0600E900210E024FFF090020FE034FF5E
:1051BA00F0900186E0702790020CE0FEA3E0FFE485
:1051CA00FCFD7B607AEAF9F8D312B1064017900227
:1051DA000DE004F0700F90020CE004F08007E490F8
:1051EA00020CF0A3F0900315E07002A3E0600E90A9
:1051FA000316E024FFF0900315E034FFF0900286D6
:10520A00E07002A3E0600E900287E024FFF09002B3
:10521A0086E034FFF09001A3E0600214F09001C52B
:10522A00E0FCA3E0FDA3E0FEA3E0FFEC4D4E4F60DF
:10523A001C9001C5A3A3A3E024FFFFEE34FFFEEDFB
:10524A0034FFFDEC34FFFC9001C512B18890044A8A
:10525A00E0B4020E9001B6E004F070069001B5E0E9
:10526A0004F0900298E0600214F0E47B107A27F9C7
:10527A00F89002ABE0FCA3E0FDA3E0FEA3E0FF127E
:10528A00B06690032A12B188E4FFFEFDFC9002E8A2
:10529A00E0F8A3E0F9A3E0FAA3E0FBD312B11C40C3
:1052AA00109002E8E0FCA3E0FDA3E0FEA3E0FF808B
:1052BA0018E47B107A27F9F89002AFE0FCA3E0FD2E
:1052CA00A3E0FEA3E0FF12B0669002FF12B188E4E9
:1052DA007B64FAF9F89002FFE0FCA3E0FDA3E0FE8C
:1052EA00A3E0FF12B0669004D012B188E47B687A1A
:1052FA0001F9F89002B3E0FCA3E0FDA3E0FEA3E00D
:10530A00FF12B06690018912B188E47B3CFAF9F881
:10531A009002B7E0FCA3E0FDA3E0FEA3E0FF12B019
:10532A006690027B12B18890032FE0FEA3E0FF9003
:10533A000293E0FCA3E0FDD39FEE6480F8EC648066
:10534A0098400B207C0890032FECF0A3EDF090041A
:10535A00F0E0D39414404CE47F1EFEFDFC9002E181
:10536A00E0F8A3E0F9A3E0FAA3E0FBD312B11C40F2
:10537A0032D39001D1E094949001D0E0941140236B
:10538A00900321E0FEA3E0FF90028AE0FCA3E0FD87
:10539A009FEE6480F8EC6480985008900321ECF04A
:1053AA00A3EDF0900212E0FEA3E0FFE4FCFD7BB364
:1053BA00FAF9F812AFDBE47BB4FAF9F812B06690A6
:1053CA000186E0FB7C002FFFEC3E900212F0A3EF77
:1053DA00F0900212E0FEA3E0FF7DB412AF24900227
:1053EA0078EFF0EB601F9004A8E0FEA3E0FF9002C4
:1053FA0093E0FAA3E0FBC39FEE6480F8EA64809826
:10540A0040032058169001F812B19400000000E4FD
:10541A00F533F532F531F5300255189004A8E0FE5F
:10542A00A3E0FFC3EB9FFFEA9EFE3395E08F338E26
:10543A0032F531F5309002C6E0FEA3E0FFE4FCFD50
:10544A00AB33AA32A931A83012AFDB8F338E328D3B
:10545A00318C309002AAE0604DE412ADDE7B807A96
:10546A00967918784B12AD71601F401DE47FA37EB8
:10547A0001FDFCAB33AA32A931A83012AFDBE47BC1
:10548A0006FAF9F812B0668065E47B06FAF9F8AF15
:10549A0033AE32AD31AC3012B066E47BA37A01F997
:1054AA00F812AFDB8048900186E075F0058490EF32
:1054BA007793FFE4FCFDFEAB33AA32A931A8301280
:1054CA00AFDBE47B64FAF9F812B0668F338E328D63
:1054DA00318C30E47F7C7E01FDFCAB33AA32A931EA
:1054EA00A83012AFDBE47B06FAF9F812B0668F3304
:1054FA008E328D318C30E47B107A27F9F8AF33AED7
:10550A0032AD31AC3012B0669001F812B188900118
:10551A00FDE004F0C394195003025ACAE4F0900261
:10552A00ABE0F8A3E0F9A3E0FAA3E0FBC000C001F6
:10553A00C002C003E47B107A0EF9F8AF33AE32AD85
:10554A0031AC3012B066D003D002D001D000EB2FBC
:10555A00FFEA3EFEE93DFDE83CFC9002AB12B18851
:10556A007FF07EA27D9A7C3B9002ABE0F8A3E0F943
:10557A00A3E0FAA3E0FBD312B11C400A9002AB12DB
:10558A00B1943B9AA2F09002AFE0F8A3E0F9A3E04D
:10559A00FAA3E0FBC000C001C002C003E47B107A9A
:1055AA000EF9F8AF33AE32AD31AC3012B066D0037B
:1055BA00D002D001D000EB2FFFEA3EFEE93DFDE824
:1055CA003CFC9002AF12B1887FF07EA27D9A7C3BB0
:1055DA009002AFE0F8A3E0F9A3E0FAA3E0FBC3125C
:1055EA00B11C500302573D9002AF12B1943B9AA2EC
:1055FA00F09002E8E0FCA3E0FDA3E0FEA3E0FFECEC
:10560A004D4E4F700A9002E812B1940001869F90A5
:10561A000323E0F8A3E0F9A3E0FAA3E0FBC000C08B
:10562A0001C002C003E47B107A0EF9F8AF33AE3240
:10563A00AD31AC3012B066D003D002D001D000EB4D
:10564A002FFFEA3EFEE93DFDE83CFC90032312B140
:10565A0088E47F107E27FDFC900323E0F8A3E0F99D
:10566A00A3E0FAA3E0FBD312B11C50030257159032
:10567A0002E8E0F8A3E0F9A3E0FAA3E0FBC000C067
:10568A0001C002C003E47B107A27F9F8900323E0F3
:10569A00FCA3E0FDA3E0FEA3E0FF12B066D003D0B6
:1056AA0002D001D000EB2FFFEA3EFEE93DFDE83CC7
:1056BA00FC9002E812B188900323E0FCA3E0FDA36A
:1056CA00E0FEA3E0FFC004C005C006C007E47B10EB
:1056DA007A27F9F8900323A3A3A3E012B066E47B28
:1056EA00107A27F9F812AFDBA804A905AA06AB07B6
:1056FA00D007D006D005D004C3EF9BFFEE9AFEED8B
:10570A0099FDEC98FC90032312B1887F187EDD7D09
:10571A00F57C059002E8E0F8A3E0F9A3E0FAA3E03B
:10572A00FBD312B11C40169002E812B19405F5DDC4
:10573A0018800A9002E812B19400000000900186D5
:10574A00E070030257EC3070030257EC7F987E4FEB
:10575A007D257C029002B3E0F8A3E0F9A3E0FAA366
:10576A00E0FBC312B11C501F9002B3E0FCA3E0FDA2
:10577A00A3E0FEA3E02401FFE43EFEE43DFDE43C99
:10578A00FC9002B312B188E47F687E01FDFC9002AE
:10579A00B3E0F8A3E0F9A3E0FAA3E0FBD312B11C4B
:1057AA0040409001DEE0703A9004F1E09001DEF0B2
:1057BA009004F2E09001DFF09004F3E09001E0F051
:1057CA009004F0E09001E1F09004EFE09001E2F043
:1057DA00E4A3F0A3F07C017DDE7B077F207E031229
:1057EA00F36FE47F01FEFDFC9002E1E0F8A3E0F92B
:1057FA00A3E0FAA3E0FBC312B11C5052E490027476
:10580A00F0A3F0A3F0A3F09001F2F0A3F0900198B6
:10581A00F0A3F0900187F0A3F0900293E0FFA3E0D9
:10582A0090029ECFF0A3EFF090028AE0FEA3E0FF81
:10583A00900193EEF0A3EFF09004A8E0FDA3E090AE
:10584A0002F3CDF0A3EDF0900310EE025A31D3909B
:10585A00020DE094E190020CE094005003025A0811
:10586A00303B03025A0890029EE0FEA3E0FF90023A
:10587A0094E09FFF900293E09EFE3395E08F378E6F
:10588A0036F535F534FDAC34E47BB07A04F9F81218
:10589A00AFDB8F378E368D358C34900187E0FEA3CF
:1058AA00E0FFEE3395E0FDFCE47B0BFAF9F812AF6A
:1058BA00DBEF2537FFEE3536FEED3535FDEC3534B9
:1058CA00FCE47B0CFAF9F812F8DE900187EEF0FCA2
:1058DA00A3EFF0FD7F107E2712FC76AC06AD077FA2
:1058EA00F07ED812FC22900187EEF0A3EFF090022E
:1058FA00F3E0FEA3E0FFC39004A9E09FFF9004A891
:10590A00E09EFE3395E08F378E36F535F534FDACE3
:10591A0034E47BB07A04F9F812AFDB8F378E368D18
:10592A00358C34900198E0FEA3E0FFEE3395E0FD5C
:10593A00FCE47B0BFAF9F812AFDBEF2537FFEE3503
:10594A0036FEED3535FDEC3534FCE47B0CFAF9F81E
:10595A0012F8DE900198EEF0A3EFF07D107C27128A
:10596A00FC76AC06AD077FF07ED812FC2290019837
:10597A00EEF0A3EFF0900193E0FEA3E0FFC39002E4
:10598A008BE09FFF90028AE09EFE3395E08F378E70
:10599A0036F535F534FDAC34E47BB07A04F9F81207
:1059AA00AFDB8F378E368D358C349001F2E0FEA353
:1059BA00E0FFEE3395E0FDFCE47B1DFAF9F812AF47
:1059CA00DBEF2537FFEE3536FEED3535FDEC3534A8
:1059DA00FCE47B1EFAF9F812F8DE9001F2EEF0FC14
:1059EA00A3EFF0FD7F207E4E12FC76AC06AD077F5A
:1059FA00E07EB112FC229001F2EEF0A3EFF09002E9
:105A0A0093E0FFA3E090029ECFF0A3EFF090028A0A
:105A1A00E0FFA3E0900193CFF0A3EFF09004A8E099
:105A2A00FFA3E09002F3CFF0A3EFF030580A900200
:105A3A0095E07002A3E060069001BCE0600DE4907E
:105A4A000198F0A3F0900187F0A3F09002A9E0700A
:105A5A000C9002C9E07006E521541E60583040607F
:105A6A00C240E49001BCF09001A5F0A3F090020FAF
:105A7A00F0A3F0900327F0A3F090031EF0A3F09098
:105A8A00018DF0A3F090020AF0A3F0900320F090A9
:105A9A0001F4F0A3F0900319F0A3F09001EEF0A343
:105AAA00F09001A1F0A3F0900309F0200903300A55
:105ABA000FC215800B2040089001BE743CF0D24002
:105ACA009002FAE004F0C394965003025DC5E4F034
:105ADA00D2529001A7E0601614F070129002A9E069
:105AEA00B4020BE4F07E027FA97D0112FA0F900244
:105AFA00E1E0FCA3E0FDA3E0FEA3E0FFE412ADDEDB
:105B0A007B287A6B796E784F12AD716021401F90B5
:105B1A0002E1E0FCA3E0FDA3E0FEA3E02401FFE430
:105B2A003EFEE43DFDE43CFC9002E112B1889002A5
:105B3A00F9E0600214F0304A3B7F447E8D7D5B7C45
:105B4A00009002B7E0F8A3E0F9A3E0FAA3E0FBC3F0
:105B5A0012B11C501F9002B7E0FCA3E0FDA3E0FEC7
:105B6A00A3E02401FFE43EFEE43DFDE43CFC900298
:105B7A00B712B1889001DAE0FEA3E0FFE4FCFD7BF6
:105B8A00207AFDF9F8D312B106400E9001DBE00449
:105B9A00F070069001DAE004F0900205E0FEA3E05E
:105BAA00FFE4FCFD7B207AFDF9F8D312B106400E22
:105BBA00900206E004F07006900205E004F09002FC
:105BCA00CCE060259002A7E0FEA3E0FFE4FCFD7BA9
:105BDA00207AFDF9F8D312B106400E9002A8E0042B
:105BEA00F070069002A7E004F09002F5E0FEA3E050
:105BFA00FFE4FCFD7B207AFDF9F8D312B106400ED2
:105C0A009002F6E004F070069002F5E004F09001CC
:105C1A00BEE0600214F090031BE0600214F09003EF
:105C2A0020E0FF90020BE02FFF90020AE03400FE12
:105C3A009001A2E02FFF9001A1E03EFE9001EFE06B
:105C4A002FFF9001EEE03EFEE4FCFD9001C5E0F876
:105C5A00A3E0F9A3E0FAA3E02FFFEA3EFEED39FD47
:105C6A00EC38FCE47B01FAF9F8D312B11C4005E4E4
:105C7A009001BCF09004F0E0D394065060753400B3
:105C8A007535C89002CCE0600675340075353290DF
:105C9A000425E0FEA3E0FF7C007D6412AF79EF24C7
:105CAA0037FFE43EFE90028AE0FCA3E0FDC39FEECC
:105CBA006480F8EC64809850067534FF75359CAFA3
:105CCA0035AE3412FC76AC06AD079001AAE0FEA30D
:105CDA00E0FF12FC769001AAEEF0A3EFF0207C031D
:105CEA0012CD8E90044AE0B4050E90020EE0C394E1
:105CFA00C8500AE004F08005E490020EF09002CD4C
:105D0A00E0606DE47FF07E87FDFC9001D6E0F8A3A9
:105D1A00E0F9A3E0FAA3E0FBC312B11C50529004CD
:105D2A00D8E07002A3E070489004DBE07002A3E0C0
:105D3A00703E9004F0E0FBB407199004EFE0FFD343
:105D4A009429400FEF9432500A9001D612B1940070
:105D5A00008CA0EBB419199004EFE0FFD39429400A
:105D6A000FEF9432500A9001D612B19400008CA021
:105D7A00203F04D24E80312033287FC07E4B7D03E2
:105D8A007C009002E1E0F8A3E0F9A3E0FAA3E0FBCB
:105D9A00C312B11C400330390D201906201B0330F1
:105DAA001C04C24E8002D24E9004EFE0540FFFD37F
:105DBA0094024007EF94095002C24F207903025E11
:105DCA007DC279D24F7E027FAB7D1012FA0F7E021E
:105DDA007FE87D0412FA0F7E027FD17D0412FA0F4A
:105DEA007E027FE17D0412FA0F9001FFE0FFA3E03B
:105DFA00900202CFF0A3EFF090042CE0FFA3E09012
:105E0A0001FFCFF0A3EFF0900318E004F0700690C2
:105E1A000317E004F0C3900318E09404900317E01A
:105E2A0094004004E4F0A3F0900307E07002A3E0BA
:105E3A00600E900308E024FFF0900307E034FFF0BF
:105E4A009002CBE0600C9002907401F0A374CCF045
:105E5A008021C39002C7E094149002C6E094009097
:105E6A00029050097401F0A3742CF08006E4F0A3A8
:105E7A0074C8F0207803025F8A30541EC39003046A
:105E8A00E09464900303E09400500F900209E070DC
:105E9A000920330690031474F8F0E49002FBF090A2
:105EAA0001ADF0C278D2539002AB12B19400000057
:105EBA00007E027FAB7D0412FA0F90032F74FEF06E
:105ECA00A374D4F0E49001DCF09002D0E025E05411
:105EDA007FF07E027FD07D0112FA0F90028AE0FFE6
:105EEA00A3E09001AACFF0A3EFF0C224C21CC21B08
:105EFA00C219C214C213C211C210205102C220C256
:105F0A0051E4900204F0C254C23A90032EF0900178
:105F1A00B4E0600214F0900314E0FF64016004EF3F
:105F2A00B4FF05E4900314F0C39002EDE09490905E
:105F3A0002ECE094015015A3E004F070069002EC24
:105F4A00E004F07E027FEC7D0212FA0F9001ACE0D1
:105F5A00600E20300B20310820330520360214F061
:105F6A0020710E9001AFE0C394C8500AE004F0809B
:105F7A0005E49001AFF09001B07403F0A374E8F067
:105F8A009004F0E0FF6412702A9004EFE0C39404D6
:105F9A005021C223C222C221C21DC21AC218C2166D
:105FAA00C212E490032EF0C253900321740BF0A3A3
:105FBA0074B8F0EFB4080E9004EFE0C394035005F0
:065FCA00E4900309F0223F
:10FC35009002AAE06007E49002C9F08005E4900212
:0EFC4500CCF09002C9E06005E49002CBF02202
:10B96800E49004ACF0A3F09002117428F0E4900481
:10B97800C7F0A3F09001D612B19400000000900324
:10B988002F74FEF0A374D4F09001F812B194000063
:10B998000000C246C257E4900186F0C238F52190F3
:10B9A8000335F0900201F0900295F0A3F090018425
:10B9B800F0A3F0C2589001DD7408F0E4900278F02A
:10B9C800900212F0A3F09001B8F0A3F09002FDF0FD
:10B9D800A3F0900288F0A3F0900191740BF0A37487
:10B9E800B8F090019A74FEF0A374D4F090028AE43F
:10B9F800F0A374C8F0900293E4F0A374C8F0E49044
:10BA080001B5F0A3F0900321740BF0A374B8F09083
:10BA180001AA74FFF0A3749CF090044B74FDF0A38A
:10BA280074E8F0C271E49001FDF0900292740DF098
:10BA3800E490029CF0A3F0900187F0A3F0900198A5
:10BA4800F0A3F0900274F0A3F0900202F0A3F0903B
:10BA580001FFF0A3F09001CCF0A3F09001C1F0A396
:10BA6800F0C255C23BC250900209F0D248C2709051
:10BA78000331F0A3F0900207F09002A5F0A3F09034
:10BA880001CEF0A3F09001A8F0A3F0C244C25B90ED
:10BA980001BCF0900333F0A3F0D2409001ECF0A386
:10BAA800F09002A7F0A3F0C256C249C24D9001A778
:10BAB800F09001B7F09001F0F0A3740FF0E490015A
:10BAC800ADF09002FBF09002FAF0900317F0A3F0AB
:10BAD800C24BC24CC25CC25AC24390018DF0A3F063
:10BAE800900320F09001D07434F0A374BCF0E4907B
:10BAF800020CF0A3F0900319F0A3F09001EEF0A36C
:10BB0800F09001A1F0A3F09001BDF090020FF0A316
:10BB1800F09002F9F09001B2F0A3F09001B0740334
:10BB2800F0A374E8F0E490029AF0A3F09001F4F026
:10BB3800A3F090020AF0A3F09001A5F0A3F0900101
:10BB4800BEF0900286F0A3F0900315F0A3F09001E8
:10BB5800A37496F0E49001CBF0900309F0900310E1
:10BB6800F0A3F090030CF0A3F09001BFF0A3F090C5
:10BB780001F6F0A3F0900276F0A3F0900327F0A36B
:10BB8800F090031EF0A3F0F524F523F522F525F532
:10BB980026900197F09001EAF0A3F09001D4F0A369
:10BBA800F09001D2F0A3F09002A0F0A3F090030A65
:10BBB800F0A3F09002F7F0A3F09002A2F0A3F090A7
:10BBC8000180F0A3F090031CF0A3F090032EF090F6
:10BBD8000204F0900314F0C254C23A9001DCF090D1
:10BBE80001A4F09001AEF09002F574FDF0A374E8A2
:10BBF800F090020574FDF0A374E8F09001DA74FD8A
:10BC0800F0A374E8F0E490019CF09001BAF0A3F07E
:10BC1800C24FC2539003037408F0A374CAF0900192
:10BC28008F7403F0A37484F090032312B19400007E
:10BC38000000E49001B4F090027F742EF0A374E049
:10BC4800F0E4900284F0A3F0C24590030EF0A3F054
:10BC580090020EF0C2519001ACF09002A4F0900254
:10BC680090F0A374C8F0E4900208F09001C512B1F6
:10BC78009400000000C23CE49001AFF090031BF078
:10BC8800900195F0A3F090027A04F0C242E4900388
:10BC980007F0A3F0D23FD24EC239900298F0C25DAD
:01BCA8002279
:10C285007E017F9D7B047A007D037C0012F2A690DF
:10C29500EF71E493FF90019DE0B5072A90EF72E4FA
:10C2A50093FF90019EE0B5071D90EF73E493FF9017
:10C2B500019FE0B5071090EF74E493FF9001A0E0B3
:10C2C5006F700302C40FE49002A9F0A304F0A31257
:10C2D500B194000000009002AF12B194000000007C
:10C2E5009002B312B194000000009002B712B1940D
:10C2F500000000009002BB7401F0A374F4F0E4A305
:10C30500F0A37403F0A37420F0A37401F0A374F4F4
:10C31500F0A3E4F0A37464F09002C6E4F0A3740AF9
:10C32500F0E49002CBF09002C57432F0E49002EE96
:10C33500F09002E812B19400000000E49002C4F00D
:10C345009002C87408F0E4A3F0A3F09002CC04F0C6
:10C35500E4A3F0A3F0A3F0A3F0A312B194000000AE
:10C3650000E49002D5F0A3F0A3F0A304F0A312B16A
:10C3750094000000009002DD12B1940000000090CE
:10C3850002E112B19400000000E49002E5F0A3F090
:10C39500A3F09002ECF0A3F09002EF12B19400002C
:10C3A50000007E027FA97D4A12FA0F90EF71E49397
:10C3B50090019DF090EF72E49390019EF090EF73E1
:10C3C500E49390019FF090EF74E4939001A0F07CCA
:10C3D500017D9D7B047F037E0012F36FE49001DEF7
:10C3E500F0A3F0A3F0A3F0A3F0A3F0A3F0A3F0A3B0
:10C3F500F0A37480F0E4A3F0A3F07C017DDE7B0C58
:10C405007F207E0312F36F02C5527E027FA97B4A0D
:10C415007A007D0A7C0012F2A67E017FDE7B0C7A13
:10C42500007D207C0312F2A6E4FFFEFDFC9002DDF8
:10C43500E0F8A3E0F9A3E0FAA3E0FBD312B11C40B6
:10C4450027E4FF7E40FDFC9002DDE0F8A3A3A3E016
:10C4550012B11C50139002CDE0600D9002DFE0FE9A
:10C46500A3E08E25F52680139002DD12B19400001D
:10C4750000007E027FDD7D0412FA0FE4FFFEFDFC65
:10C485009002D9E0F8A3E0F9A3E0FAA3E0FBD31208
:10C49500B11C4046E4FFFE7D80FC9002D9E0F8A384
:10C4A500A3A3E012B11C50329002DCE0F522900209
:10C4B500D9E0FCA3E0FDA3E0FEA3E0FF780812B1FC
:10C4C5002D8F239002D9E0FCA3E0FDA3E0FEA3E0BD
:10C4D500FF781012B12D8F2480139002D912B194D8
:10C4E500000000007E027FD97D0412FA0FD390046C
:10C4F500EDE0943C9004ECE09400402FE47FA07EB6
:10C5050005FDFC9002E1E0F8A3E0F9A3E0FAA3E061
:10C51500FB12B11C50159002E5E0C394C8500CE025
:10C5250004F07E027FE57D0112FA0F9002E5E0C37B
:10C5350094024004D21F8002C21F9002E112B194FE
:10C54500000000007E027FE17D0412FA0F9002C612
:0DC55500E0FFA3E09001C3CFF0A3EFF022C0
:10EAB8009002A9E014700302EB4B14700302EB6997
:10EAC80014700302EB592403600302EB7120580908
:10EAD80030700E204A0B203B089001867464F08049
:10EAE80005E4900186F09002AAE060179002EEE03B
:10EAF8007011900295E07002A3E0601CE49001861A
:10EB0800F08015305812900295E07002A3E070086A
:10EB180012DA14900186EFF09002FDE07002A3E093
:10EB28007019205B16900320E07010203C0D2044E3
:10EB38000A90020AE07002A3E0602E203B2B204AD4
:10EB480028800630701E204A1B9001867464F0806D
:10EB580018304A047F0080027F64900186EFF080BD
:10EB680008304A05E4900186F0900186E075F005CA
:06EB780084900335F02239
:10DA14009002C4E0605020434D900281E0FEA3E0F8
:10DA2400FFC39002BCE09FF5319002BBE09EF5304D
:10DA3400FEAF317C007D0C12AF127D0A12AF798EDD
:10DA4400308F319002C3E0241EFF9002C2E0340004
:10DA5400FEC3E5319FEE6480F8E53064809850168B
:10DA64008E308F3180109002C3E0241EF531900275
:10DA7400C2E03400F5309004A8E0FEA3E0FFC390B8
:10DA84000294E09FFF900293E09ECFC39531CF951F
:10DA940030FEEF25E0F533EE33F53290028CE0F8FA
:10DAA400A3E0F9A3E0FAA3E0FBC000C001C002C0F8
:10DAB40003AE32AF33EE3395E0FDFCE47B907A01A4
:10DAC400F9F812AFDBE47BD07A07F9F812F8DED06C
:10DAD40003D002D001D000EB2FFFEA3EFEE93DFD6A
:10DAE400E83CFC90028C12B1887F407E0D7D037C63
:10DAF4000090028CE0F8A3E0F9A3E0FAA3E0FBD3E2
:10DB040012B106400A90028C12B19400030D407FBA
:10DB1400C07EF27DFC7CFF90028CE0F8A3E0F9A3C8
:10DB2400E0FAA3E0FBC312B106500A90028C12B1D2
:10DB340094FFFCF2C0E47B907A01F9F890028CE047
:10DB4400FCA3E0FDA3E0FEA3E0FF12F8DEA804A915
:10DB540005AA06AB07AE32EE3395E0FDFCEB2533A8
:10DB6400FFEA3EFEE93DFDE83CFCE47B0AFAF9F8F5
:10DB740012F8DEEF2432F533E43EF532D3E5339484
:10DB840064E532648094804006753200753364C362
:10DB9400E532648094805005E4F532F533E5339042
:10DBA400EF8C93753200F5339002C5E0FF7E00C31D
:10DBB400E5339F7480F865329850048E328F33AE0B
:10DBC40032AF337C007D0512AF798E328F33EF751F
:05DBD400F005A4FF2292
:10C56200307C0302C82A9002AAE060067E047F7E25
:10C5720080047E057F14900312EEF0A3EFF0900288
:10C58200CBE0700302C639900184E475F00112AF6A
:10C59200AFFEC3E5F09458EE94024039E490018472
:10C5A200F0A3F0900191E0FFA3E090028ACFF0A304
:10C5B200EFF090019AE0FFA3E0900293CFF0A3EF97
:10C5C200F0900191740BF0A374B8F090019A74FE8C
:10C5D200F0A374D4F0900191E0FEA3E0FF9004A6D2
:10C5E200E0FCA3E0FDC39FEE6480F8EC6480985009
:10C5F20008900191ECF0A3EDF090019AE0FEA3E027
:10C60200FFD3ED9FEE6480F8EC648098400F9004B5
:10C61200A6E0FFA3E090019ACFF0A3EFF09001B261
:10C62200E07002A3E0602F9001B3E024FFF09001DC
:10C63200B2E034FFF0801F9004A6E0FEA3E0FF907A
:10C64200028AEEF0A3EFF0900293EEF0A3EFF0E493
:10C652009001B2F0A3F030091E90029374FEF0A391
:10C6620074D4F090028A74FEF0A374D4F090032F75
:10C6720074FEF0A374D4F0204A1F900312E0FEA3CC
:10C68200E0FFD3900294E09FEE6480F8900293E082
:10C692006480984027D24A8023900313E024CEFF7F
:10C6A200900312E034FFFEC3900294E09FEE648098
:10C6B200F8900293E06480985002C24A204B339073
:10C6C20002C4E09002BE600EE0FCA3E0FD7FBC7EEF
:10C6D2000212FC768005E0FEA3E0FFC39004ABE00B
:10C6E2009FEE6480F89004AAE06480984041D24BA7
:10C6F200803D9002C4E09002BF6014E024ECFD9003
:10C7020002BEE034FFFC7FA87E0212FC76800BE0C2
:10C7120024ECFF9002BEE034FFFED39004ABE09F16
:10C72200EE6480F89004AAE06480985002C24B2024
:10C732004C229002C0E0FEA3E0FFC39004ADE09F54
:10C74200EE6480F89004ACE06480985003305A2A7A
:10C75200D24C80269002C1E024ECFF9002C0E0346B
:10C76200FFFED39004ADE09FEE6480F89004ACE04D
:10C772006480985005205A02C24C9002CAE0B4016B
:10C7820008A24C824B925C8004A24B925C753003EF
:10C792007531E820553B9004A8E0FEA3E0FFD39555
:10C7A20031E5306480F8EE6480984044D255204AE6
:10C7B20012900294E09FFF900293E09E9002A0F0FC
:10C7C200A3EFF09002C9E0602730582412BF9F8087
:10C7D2001FE53124ECFFE53034FFFEC39004A9E0ED
:10C7E2009FEE6480F89004A8E06480985002C255DD
:10C7F200900207E0FF6013D39001A9E094849001B6
:10C80200A8E0648094834002D259EF6011C3900182
:10C81200A9E094709001A8E0648094835002C25908
:09C822009002C4E07002C2592228
:10FC8900C23E9004F0E0FFC394045002D23EEFD389
:07FC990094194002D23E2243
:10798B00307C030282A29002A9E0600302828890FD
:10799B0002CAE064016005C243027C9F9001B8E01B
:1079AB007002A3E07002C25A9002C0E0FEA3E0FF97
:1079BB00242CFDEE3401FC900293E0FAA3E0FBD300
:1079CB009DEC6480F8EA648098401A9001EDE09495
:1079DB00709001ECE09417500CA3E004F07006904B
:1079EB0001ECE004F0EF2418FFEE3401FEC3EB9F33
:1079FB00EE6480F8EA648098400630430320580711
:107A0B00E49001ECF0A3F09001ECE064177004A398
:107A1B00E064706021900313E024CEFF900312E02A
:107A2B0034FFFED3900294E09FEE6480F8900293B3
:107A3B00E0648098400630430320581B9002C0E05E
:107A4B00FEA3E0FFD39004ADE09FEE6480F89004BA
:107A5B00ACE06480984037304326900313E0249CBD
:107A6B00FF900312E034FFFED3900294E09FEE648C
:107A7B0080F8900293E06480984005305802D2253C
:107A8B00C243D25A9001B87408F0A374CAF09002A2
:107A9B00BDE07003027B7B14606B146003027C8D72
:107AAB003043349002BFE024ECFF9002BEE034FF81
:107ABB00FEC39004ABE09FEE6480F89004AAE064F0
:107ACB0080984003027C8D9001B8E07002A3E060C7
:107ADB0003027C8D027C419002BEE0FEA3E0FFD34B
:107AEB009004ABE09FEE6480F89004AAE064809869
:107AFB005003027C8D9001B8E07002A3E06003029A
:107B0B007C8D027C7A3043349004ABE02414FF90DC
:107B1B0004AAE03400FED39004ADE09FEE6480F83D
:107B2B009004ACE06480985003027C8D9001B8E027
:107B3B007002A3E06003027C8D027C419004ADE0F7
:107B4B002432FF9004ACE03400FED39004ABE09FF2
:107B5B00EE6480F89004AAE06480985003027C8D58
:107B6B009001B8E07002A3E06003027C8D027C7A86
:107B7B0030470D900278E0C3940A500FC247800B38
:107B8B00900278E0D3945F4002D2479002AAE06063
:107B9B00089002EEE07002D2479002BBE0FEA3E039
:107BAB00FF9004AAE0FCA3E0FDD39FEE6480F8EC09
:107BBB006480984002C24730474E304327EF24EC95
:107BCB00FFEE34FFFEC3ED9FEE6480F8EC6480980B
:107BDB004003027C8D9001B8E07002A3E0600302C9
:107BEB007C8D80529002BBE0FEA3E0FFD3ED9FEEB5
:107BFB006480F8EC6480985003027C8D9001B8E0AF
:107C0B007002A3E0707C80673043399004ABE024B2
:107C1B0014FF9004AAE03400FED39004ADE09FEE75
:107C2B006480F89004ACE064809840569001B8E012
:107C3B007002A3E0704CC2439001B87408F0A374B7
:107C4B00CAF0803E9004ADE02432FF9004ACE034E7
:107C5B0000FED39004ABE09FEE6480F89004AAE0A2
:107C6B00648098401D9001B8E07002A3E07013D2BD
:107C7B00439001B87408F0A374CAF0E49001ECF0DF
:107C8B00A3F0A24BB04CB05A5002D243A24CB04B13
:107C9B005002C2433043059004AC80039004AAE029
:107CAB00FEA3E0FF900281EEF0A3EFF09002AAE0BA
:107CBB0060099002EEE07003027D8120585C900217
:107CCB00C2E0FEA3E0FF900282E02FFF900281E072
:107CDB003EFED3900294E09FEE6480F8900293E016
:107CEB006480985003027FFD304A03027FFD303BD6
:107CFB0003027FFD9001BCE06003027FFDD2589030
:107D0B000333F0A3F0900295F0A3744BF090028C28
:107D1B0012B19400000000027FFD900281E0FEA3EF
:107D2B00E0FF9004A8E0FCA3E0FDC39FEE6480F8A5
:107D3B00EC6480985006AE04AF0580008E308F3116
:107D4B009002C3E02531FF9002C2E03530FEC390B4
:107D5B000294E09FEE6480F8900293E06480984078
:107D6B0003027FFD900295E07002A3E06003027FA7
:107D7B00FDC258027FF0305803027EAA900281E0C8
:107D8B00FEA3E0FF9002BBE0FCA3E0FDD39FEE64FB
:107D9B0080F8EC6480984006AE04AF0580008E300E
:107DAB008F319002C2E0FEA3E0FF2531FDE5303EAE
:107DBB00FCD3900294E09DEC6480F8900293E06415
:107DCB0080984055D3900304E09464900303E094AF
:107DDB000040067E007F0080009004A9E02FFF90FA
:107DEB0004A8E03EFED3900294E09FEE6480F890EE
:107DFB000293E06480984021204A1E203B1B2056B2
:107E0B0018D258900303E0FFA3E0900295CFF0A3A4
:107E1B00EFF0E4900333F0A3F03043059002C08001
:107E2B00039002BEE0FEA3E0FF8E308F319004A8DA
:107E3B00E0FEA3E0FF900293E0FCA3E0FDD39FEEF6
:107E4B006480F8EC648098401B9002C3E02531FFFE
:107E5B009002C2E03530FED3ED9FEE6480F8EC6407
:107E6B008098501890018FE0FEA3E0FFD3ED9FEEBA
:107E7B006480F8EC6480985003027FFD304A030263
:107E8B007FFD303B03027FFD305603027FFDD2584E
:107E9B00900295E4F0A304F0E4900333027FFA30F0
:107EAB0043059002C080039002BEE0FEA3E0FF8E6C
:107EBB00308F31900295E07002A3E060539004A8DC
:107ECB00E0FEA3E0FF900293E0FCA3E0FDD39FEE66
:107EDB006480F8EC648098401B9002C3E02531FF6E
:107EEB009002C2E03530FED3ED9FEE6480F8EC6477
:107EFB008098501590018FE0FEA3E0FFD3ED9FEE2D
:107F0B006480F8EC6480984007E4900295F0A3F04D
:107F1B009002C2E0FEA3E0FF9004A9E02FFF9004C3
:107F2B00A8E03EFE9002BBE0FCA3E0FDC39FEE6425
:107F3B0080F8EC64809850028004AE04AF058E305C
:107F4B008F31900293E0FEA3E0FFC39531E53064DF
:107F5B0080F8EE6480985023900334E0945890039B
:107F6B0033E094024015C2589002987402F0E490EA
:107F7B000288F0A3F09001B7740FF0304305900224
:107F8B00C080039002BEE0FCA3E0FD8C308D3190ED
:107F9B0002C2E0FCA3E02531F531EC3530F5309031
:107FAB00018FE0FCA3E0FDC39531E5306480F8EC74
:107FBB0064809850048C308D31C3EF9531E530647B
:107FCB0080F8EE648098502A90027FE0FEA3E0FFD9
:107FDB00C3900334E09F900333E09E4015C258904A
:107FEB0002987402F09001B7740FF0E4900288F0DD
:107FFB00A3F0305865900295E07002A3E0600C90FE
:10800B0002AAE060069002EEE0604FC3900334E0FA
:10801B0094A0900333E0948C500CA3E004F0700612
:10802B00900333E004F0E49001D0F0A3F0D24DC301
:10803B00900334E09402900333E09400501E2043ED
:10804B00149001B8E07002A3E0700A9001B87404B8
:10805B00F0A374B0F012F5ED8002C24D203B0F205F
:10806B00550C205C09E521547E7003305909C25828
:10807B00E49002FDF0A3F030581F9002AAE07003C9
:10808B0002825A9002EEE0600302825A900295E05F
:10809B007002A3E0700302825A305C0302825A30F2
:1080AB004A0302825A303B0302825AE521547E6016
:1080BB000302825A303E0302825A30550302825A1F
:1080CB009002C9E0600302825A9002AAE060099014
:1080DB00044AE060030281AD900293E0FEA3E0FF4F
:1080EB00D39400EE64809480406FEF942CEE648008
:1080FB0094815065900182E0FEA3E0FF900294E032
:10810B009FEE6480F8900293E06480984011900198
:10811B0083E0241EF0900182E03400F012ED6690B3
:10812B000183E024CEFF900182E034FFFEC3900276
:10813B0094E09FEE6480F8900293E0648098500E78
:10814B00900183E024E2F0900182E034FFF0900193
:10815B00F0E4F0A3740FF0800312F922900293E085
:10816B00FEA3E0FFC3942CEE648094814055EF9402
:10817B00F4EE64809481504B9001F0E0FEA3E0FF9D
:10818B007C007D9612AF12C3900289E09F9002880B
:10819B00E09E402F9001F0E4F0A3740FF012ED6617
:1081AB008021C3900294E094F4900293E064809455
:1081BB008150109001F0E4F0A3740FF0E49002886A
:1081CB00F0A3F0900293E0FEA3E0FFC394F4EE64FF
:1081DB008094814046EF94BCEE64809482503C9036
:1081EB0001F1E094069001F0E094004006E4F0A366
:1081FB007406F09001F0E0FEA3E0FF7C007D961288
:10820B00AF12C3900289E09F900288E09E400C90D1
:10821B0001F0E4F0A37406F012ED66C3900294E053
:10822B0094BC900293E06480948240239001F0E42C
:10823B00F0A37403F07C007D96FF7E0012AF12C397
:10824B00900289E09F900288E09E400312ED6690B9
:10825B0002AAE0600512A1E68035E490044AF0C260
:10826B0070C27190028AE0FEA3E0FF900432EEF040
:10827B00A3EFF0900430EEF0A3EFF080129002A980
:10828B00E0B40107A3E0600312A1E6C258C2431297
:08829B00F4EC9001DDEFF0228C
:10ED6600E4900288F0A3F09001BCE0FF7076900278
:10ED7600AAE06007900292E0FE80027E19EEFD9006
:10ED860002FDE4F0A3EDF090018DE07002A3E070C7
:10ED960053D390020DE0942C90020CE09401404471
:10EDA600900293E0FCA3E0FDD394C8EC64809480C9
:10EDB6004032EF702F90018D04F0A3742CF0900474
:10EDC600A8E0FFA3E0900180CFF0A3EFF090031C32
:10EDD600ECF0A3EDF090028AE0FFA3E090030CCFE5
:05EDE600F0A3EFF02294
:10FB4400E4FF9002D0E0FE30E0010FEE30E1010F5F
:10FB5400EE30E2010FEE30E3010FEE30E4010FEE80
:0FFB640030E5010FEE30E6010F900209EFF022BD
:10F4EC00305C037F0022203B033055037F012290C8
:10F4FC0002FDE07002A3E060037F042230581F90ED
:10F50C0002AAE060169002EEE07010900295E07096
:10F51C0002A3E060037F05227F03227F0322900277
:10F52C00A9E060037F0622E521547E60037F072259
:09F53C003071037F02227F0822D6
:10F64000900211E0602614F07047851A82851983B4
:10F65000A3E020E114E51A2412F582E43519F583BC
:10F66000E04480F0D266D25022C2662230501EC2E0
:10F6700050851A82851983A3E020E111E51A24122E
:10F68000F582E43519F583E0547FF0C266A26692F4
:02F69000042252
:10F78100E4F5AE75A64C751910F51AE51A2405F5C0
:10F7910082E43519F583E4F0E51A2412F582E435A3
:10F7A10019F5837404F0E51A2407F582E43519F597
:10F7B100837401F0E51A2414F582E43519F5837494
:0AF7C10084F0439104D288D2A822FC
:10DBD9009002A9E0FF6003B40104C246C25730466F
:10DBE9000A9001D612B194000000149001D6E0FC0D
:10DBF900A3E0FDA3E0FEA3E0FFEC4D4E4F7003024E
:10DC0900DCA39002A9E0FF64026038EF640360338B
:10DC19009002CDE0FF6401602AEF64036025EF64A0
:10DC29003260209004F0E0FFB407099004EFE0D3DC
:10DC390094295006EFD3940740609004F0E0C39410
:10DC4900205057E47B1EFAF9F89001D6E0FCA3E0D6
:10DC5900FDA3E0FEA3E0FF12B066AC00AD01AE0289
:10DC6900AF03E47B0EFAF9F8C312B11C500575C66F
:10DC7900568003E4F5C69001D6E0FCA3E0FDA3E0DD
:10DC8900FEA3E024FFFFEE34FFFEED34FFFDEC348C
:10DC9900FFFC9001D612B1888019E5C6B45603E499
:10DCA900F5C630380EC238E5C6700575C6AD8003B5
:10DCB900E4F5C69004C7E07002A3E0601E9002CDAF
:10DCC900E06004E5106014E5C2D39404400874FCD4
:10DCD90025C2F5C2801BE4F5C280169004D4E07019
:10DCE90002A3E0600375C2ADE5C2C394AD5002055D
:10DCF900C29002CDE06039E51070359004D4E0702F
:10DD090002A3E0600280269004C5E030E710E5C276
:10DD1900D39428400474FA800EE4F5C28012E5C257
:10DD2900C394AD5008740625C2F5C2800375C2AD0F
:10DD3900900329E0D3946440037464F0900329E0CC
:10DD490075F0ADA4FFAEF07C007D6412AF248FC4E2
:10DD59009002CAE0D39401503320570A30431890F7
:10DD690001DDE0B40311E51A2405F582E43519F55E
:10DD7900837401F0D24122900298E0700FE51A24D1
:0DDD890005F582E43519F583E4F0C241226E
:10BF9F00307C0302C284900312E0FEA3E0FF900204
:10BFAF0093E0FCA3E0FDD39FEE6480F8EC648098EF
:10BFBF00500302C07790029CE07002A3E0701D90C6
:10BFCF0004A8E0FAA3E0FBC3ED9BFEEC9A9002A05D
:10BFDF00F0A3CEF0900284EAF0A3EBF0C390029DA1
:10BFEF00E094E090029CE0942E500EA3E004F070D9
:10BFFF007290029CE004F0806A9004F0E0FFC3941A
:10C00F00225006EFC39404501FE47FB4FEFDFC9052
:10C01F0002E1E0F8A3E0F9A3E0FAA3E0FBC312B159
:10C02F001C4005205402D21A30583420543190014C
:10C03F00BEE0702B201A287F1EFEFDFC9002E1E06F
:10C04F00F8A3E0F9A3E0FAA3E0FBC312B11C400F81
:10C05F009002C9E07004D21080057F0D12F692D2C3
:10C06F0054D23B305402D23B900313E024ECFF90A8
:10C07F000312E034FFFE900293E0FCA3E0FDC39FA8
:10C08F00EE6480F8EC6480985007E490029CF0A373
:10C09F00F0C3ED948AEC64809482502B303B1F9058
:10C0AF00028AE0FFA3E090030CCFF0A3EFF0304043
:10C0BF0006900320744BF0E4900288F0A3F0C23B8B
:10C0CF00E4900284F0A3F09002C9E0604D30584A2A
:10C0DF00305547A3E060249004AAE0FEA3E0FFA33D
:10C0EF00E0FCA3E0FD12FC22C3EF9452EE648094B7
:10C0FF008350047F01801B7F008017C39004ABE047
:10C10F0094529004AAE06480948350047F018002CB
:10C11F007F00EF60057F0C12F6923009057F160243
:10C12F00C1FE300A057F1702C1FE300B057F1802D2
:10C13F00C1FE300C057F1A02C1FE200D339002BEE6
:10C14F00E0FCA3E0FD7F847E0312FC228E328F334E
:10C15F00E5332432FFE43532FED39004ABE09FEE9B
:10C16F006480F89004AAE0648098401BD20D801779
:10C17F00C39004ABE09533E5326480F89004AAE0F5
:10C18F006480985002C20D300D047F228061200E12
:10C19F003A9002CAE0B401339002C0E0FCA3E0FD84
:10C1AF007F847E0312FC228E328F33E5332432FFDD
:10C1BF00E43532FED39004ADE09FEE6480F8900436
:10C1CF00ACE06480984023D20E801FC39004ADE092
:10C1DF009533E5326480F89004ACE06480984008B1
:10C1EF009002CAE064016002C20E300E057F230286
:10C1FF00F692200F15C390028AE064809480502C31
:10C20F009002AAE06026D20F801CD390028BE0949C
:10C21F000A90028AE06480948050069002AAE0702F
:10C22F0002C20F3009069001A374AAF0300F232029
:10C23F0009209001A3E0B401197F3212F692900306
:10C24F0007E07002A3E0700A900307740BF0A37469
:10C25F00D0F09002C9E0601D9002DDE0FCA3E0FD8C
:10C26F00A3E0FEA3E0FFEC4D4E4F60099002CDE03E
:06C27F00700312BCA922AD
:10F692008F389002CDE0B538119001CBE538F0906B
:10F6A20003157402F0A374F8F0229002CDE538F04D
:10F6B20012BCA97E027FCD7D0112FA0F900307E0F2
:10F6C2007002A3E0700B9001DEE06005AF3812EC2F
:10F6D200C912FB449001D612B194000DBBA012F0E6
:02F6E200E22222
:10F59A008F389002CDE0F5179001CBE538F012BC18
:10F5AA00A9E53824649002CDF012FB4412F0E290EF
:10F5BA0002CDE517F06538601FE53814FF74017E47
:10F5CA0000A807088005C333CE33CED8F9F4FFEE7E
:10F5DA00F4FEEF5226EE52259003157402F0A3743E
:03F5EA00F8F02214
:10F92200900293E0FFA3E0900182CFF0A3EFF0E01A
:10F93200241EF0900182E03400F0E0FEA3E0FF7CA0
:10F94200007D1E12AF79900182EEF0A3EFF07C00F1
:0EF952007D1E12AF12900182EEF0A3EFF022A4
:10F0E2009002FBE0FF9002CDE0FE6F6069EF2464C6
:10F0F200FDE433FCEE6D7001EC605B900307E070A1
:10F1020002A3E060099002D6E0D394045048900133
:10F11200ADE004F0D39402503D9002CDE09002FBAA
:10F12200F09002D6E004F07E027FD67D0112FA0F43
:10F1320012CAE39002D6E01475F0058485F018E552
:10F142001875F064A42400FFE5F03401FE7C027D12
:07F15200147B6012F36F2231
:10CAE3009002147447F09004F1E0900215F0900462
:10CAF300F2E0900216F09004F3E0900217F0900435
:10CB0300F0E0900218F09004EFE0900219F0900228
:10CB1300CDE090021AF09001DDE090021BF090044A
:10CB23004AE090021CF09004CAE0FFA3E090021DCB
:10CB3300CFF0A3EFF09004A8E0FFA3E090021FCF93
:10CB4300F0A3EFF09004AAE0FFA3E0900221CFF05E
:10CB5300A3EFF09004ACE0FFA3E0900223CFF0A397
:10CB6300EFF0900186E0900225F03041047F0180D0
:10CB7300027F00900226EFF09001FAE0FFA3E0901D
:10CB83000227CFF0A3EFF090032AE0FCA3E0FDA37C
:10CB9300E0FEA3E0FF90022912B1889002FFE0FCBF
:10CBA300A3E0FDA3E0FEA3E0FF90022D12B1889065
:10CBB3000189E0FCA3E0FDA3E0FEA3E0FF900231C6
:10CBC30012B1887B407A19790178009002D1E0FC98
:10CBD300A3E0FDA3E0FEA3E0FF12B06690023512CE
:10CBE300B188900411E0FFA3E0900239CFF0A3EFE6
:10CBF300F0900209E090023BF09004ECE0FFA3E028
:10CC030090023CCFF0A3EFF09001BAE0FFA3E090D5
:10CC13000266CFF0A3EFF090019CE0900268F090E1
:10CC230002A9E090023EF09002AAE090023FF09049
:10CC330002BBE0FFA3E090024BCFF0A3EFF0900222
:10CC4300BDE090024DF09002BEE0FFA3E090024EE3
:10CC5300CFF0A3EFF09002C0E0FFA3E0900250CF2B
:10CC6300F0A3EFF09002C2E0FFA3E0900252CFF0F6
:10CC7300A3EFF09002C4E0900254F09002C5E0905C
:10CC83000255F09002C6E0FFA3E0900256CFF0A356
:10CC9300EFF09002C8E0900258F09002C9E09002D1
:10CCA30059F09002CAE090025AF09002CBE0900251
:10CCB3005BF09002EEE0900269F090032FE0FFA397
:10CCC300E090026ACFF0A3EFF09002EFE0FCA3E064
:10CCD300FDA3E0FEA3E0FF90026C12B18890027BFB
:10CCE300E0FCA3E0FDA3E0FEA3E0FF90027012B11D
:10CCF30088900279E0900240F0900297E090024120
:10CD0300F09001FCE0900242F0900299E09002431F
:10CD1300F0900283E0900244F09001E5E090024637
:10CD2300F09001E6E0900247F09001E7E0900248BE
:10CD3300F09001E8E0900249F09001E9E090024AA6
:10CD4300F090025C7402F0A37416F09002D6E090A7
:10CD5300025EF09001DEE0900261F09001DFE0906E
:10CD63000262F09001E0E0900263F09001E1E09054
:10CD73000264F09001E2E0900265F09001E3E0FFCD
:0BCD8300A3E090025FCFF0A3EFF022CE
:10F23B00E49002D6F09002FBF09001ADF07E027FDD
:10F24B00D67D0112FA0F9002FC74FFF07C027DFC5C
:10F25B007B017401FFFE12F36F7C027DFC7B017F4F
:10F26B00657E0112F36F7C027DFC7B017FC97E0101
:10F27B0012F36F7C027DFC7B017F2D7E0212F36FFC
:10F28B007C027DFC7B017F917E0212F36FE4900286
:0BF29B00D0F07E027FD07D0102FA0F50
:10400A009004F0E0FFC39415400302429A303E0345
:10401A0002429A9001D1E094C29001D0E0940150FA
:10402A000302429A303B0302429A900293E0FCA3B5
:10403A00E0FD94F4EC648094815057ED94C8EC64EC
:10404A00809480404D90044AE0B4034690018DE08C
:10405A007002A3E0703C9001BCE0703690018D04C0
:10406A00F0A3742CF09004A8E0FDA3E0900180CDA9
:10407A00F0A3EDF0900293E0FDA3E090031CCDF0D5
:10408A00A3EDF090028AE0FDA3E090030CCDF0A32B
:10409A00EDF09002CCE0705E900293E0FCA3E0FDAC
:1040AA00C3942CEC64809481504CED94C8EC6480E9
:1040BA0094804042EFD39412403C9001DCE0703689
:1040CA0090018DE07002A3E0702CD390020DE09471
:1040DA002C90020CE09401401DE47FF0FEFDFC9060
:1040EA0002E1E0F8A3E0F9A3E0FAA3E0FBD312B1FE
:1040FA001C400312ED6690018DE0FEA3E0FFC3941D
:10410A002CEE94014028E49001D2F0A3F09002A092
:10411A00F0A3F09001DCE0700374FFF0900187E0F7
:10412A00FDA3E0900331CDF0A3EDF002429AEF4EE9
:10413A00700302429A204D069001BCE060030242DD
:10414A0093900290E0FEA3E07803CEC313CE13D877
:10415A00F9FFC3742C9FF53174019EF530900180EC
:10416A00E0FEA3E0FFC312FAEA9001EAEEF0A3EF41
:10417A00F0900331E0FEA3E0FF90031CE0FCA3E013
:10418A00FD90018DE0FAA3E0FBC3742C12F9A0C3E1
:10419A00900294E090029312FAF19001D4EEF0FCAE
:1041AA00A3EFF0FD9001EA12FC1D12FC169002A08A
:1041BA00EEF0A3EFF09001D2E0FEA3E0FF9002CB75
:1041CA00E06005900191800390028AE0FCA3E0FD83
:1041DA00C390030DE09DFD90030CE09CFC12FC22B1
:1041EA009001D2EEF0A3EFF0C39002A1E0940F90F9
:1041FA0002A0E06480948050139001D3E0940F9061
:10420A0001D2E064809480500302429A9001DC74E7
:10421A0001F030560690031474F6F0E47F3CFEFD7C
:10422A00FC9002E1E0F8A3E0F9A3E0FAA3E0FBD3F3
:10423A0012B11C403790018EE0953190018DE095C6
:10424A003040299002CBE07E0060047F3280027FFA
:10425A0028C39001D3E09FEE6480F89001D2E06415
:10426A00809840089001BEE07002D21CC390018E73
:10427A00E0953190018DE09530501590020DE09453
:10428A000190020CE094004007E490018DF0A3F045
:10429A009004F0E0641570479004EFE070419001DB
:1042AA00DCE0D3648094805036E47F2C7E01FDFCF0
:1042BA009002E1E0F8A3E0F9A3E0FAA3E0FB12B16F
:1042CA001C401C900309E06003301013D3900330A4
:1042DA00E0942C90032FE0648094814002D2112054
:1042EA003E0302436C900438E0FEA3E0FFC394A0AF
:1042FA00EE64809480406BE49FFFE49EFE7C007D28
:10430A000F12AF79C3900429E09FEE6480F89004FD
:10431A0028E0648098404BD390020DE09496900276
:10432A000CE09400500E900414E0940A900413E0F8
:10433A009400502E203B2BC39001D1E09428900189
:10434A00D0E09423401C9001BCE070169001BEE0BE
:10435A00701090031FE004F0700F90031EE004F049
:10436A008007E490031EF0A3F0D390031FE09408A3
:10437A0090031EE09407402B900294E094969002DA
:10438A0093E064809480401B203711D2129001F68A
:10439A00E0FFA3E0900305CFF0A3EFF0E490031E43
:1043AA00F0A3F09004F0E0C394165006203E0302F6
:1043BA0044A790044AE0640360030244A7900208F9
:1043CA00E060030244A79002F9E060030244A79068
:1043DA0001B7E060030244A790020FE07002A3E075
:1043EA0060030244A73056030244A7900314E06412
:1043FA00F670030244A7D39002A8E0942C9002A777
:10440A00E0940150030244A7E47F2C7E01FDFC9056
:10441A0002E1E0F8A3E0F9A3E0FAA3E0FBD312B1CA
:10442A001C407A9001BCE07074900430E0FEA3E076
:10443A00FF945EEE648094815063EF943CEE648056
:10444A009480405990020F7401F0A374C2F0E49072
:10445A0001D2F0A3F09001EAF0A3F09002A0F0A339
:10446A00F090028AE0FFA3E090030CCFF0A3EFF0F4
:10447A009004A8E0FFA3E0900180CFF0A3EFF090B2
:10448A0001F2E0FFA3E0900331CFF0A3EFF0900137
:10449A0098E0FFA3E0900305CFF0A3EFF090020F9E
:1044AA00E0FAA3E0FBD39400EA9400500302479396
:1044BA00900331E0FEA3E0FF90030CE0FCA3E0FDD3
:1044CA0012F99E8E308F319001BCE07003304D1589
:1044DA0090044AE06403700302456CE490020FF012
:1044EA00A3F002456C9002A0E0FEA3E0FFC3900295
:1044FA008BE09531FD90028AE09530FC12FC229007
:10450A0002A0EEF0A3EFF09001D2E0FEA3E0FF904C
:10451A00028AE0FCA3E0FDC3E5319DFDE5309CFC89
:10452A0012FC229001D2EEF0A3EFF0900305E0FE18
:10453A00A3E0FF900180E0FCA3E0FD90020FE0FA07
:10454A00A3E0FBC312F99EC39004A9E09FFD900467
:10455A00A8E09EFC9001EA12FC1D9001EAEEF0A38D
:10456A00EFF09002A0E0FEA3E0FFC39403EE6480A4
:10457A009480500302462FD3900210E0942C9002AC
:10458A000FE09401400302462FE4F0A3F0900434B4
:10459A00E07002A3E070030246289002CCE06401B6
:1045AA00707CD3900431E0945A900430E064809493
:1045BA0080406B9002A4E07065203A629001BEE0F0
:1045CA00705C900276E0FCA3E0FDD394D8EC6480A2
:1045DA00947F400AEF941EEE64809480501BD3EDC2
:1045EA009414EC6480948040359002A1E094149075
:1045FA0002A0E0648094804025C39004A9E0942638
:10460A009004A8E06480948240030247939001A634
:10461A00E004F070069001A5E004F0024793E490EC
:10462A0001A5024790C39002A1E094039002A0E082
:10463A006480948050489001D3E0940A9001D2E0BB
:10464A00648094804038D3900332E09432900331EE
:10465A00E0648094804027900210E0942C90020F2E
:10466A00E09401401990044AE0640360119002A4A6
:10467A00E0700B304E08D22490020F02479090024D
:10468A000FE07004A3E064016003024793C3900241
:10469A0000E0946A9001FFE06480947F400302473F
:1046AA0093C3900412E0940A900411E0940050031A
:1046BA000247939001BEE060030247939002C7E06D
:1046CA0094969002C6E09400504CC3900199E094ED
:1046DA0032900198E064809480503B9001EAE0FEB9
:1046EA00A3E0FF12FAF6D3EF9403EE6480948050AD
:1046FA0025900180E0FEA3E0FFC39004ABE09FFF9A
:10470A009004AAE09EFE12FAF6D3EF9432EE648089
:10471A0094804002D213900309E0700330543A9017
:10472A00028BE024CEFD90028AE034FFFC7FB47E47
:10473A000012FC22D39004A9E09FEE6480F8900452
:10474A00A8E06480984012900332E0947E9003318E
:10475A00E06480947F5002D21430132D30142AD38F
:10476A009001DBE094849001DAE09403401B201A64
:10477A0018304E15900209E09403500D9001AEE0F6
:10478A0004F0E49001DAF0A3F0900186E0900208C8
:10479A00F090044AE06405705B90020EE0C3940155
:1047AA00405290044CE0948490044BE09403403DC2
:1047BA00E47F2C7E01FDFC9002E1E0F8A3E0F9A37E
:1047CA00E0FAA3E0FBD312B11C4022D39002A8E086
:1047DA00942C9002A7E094014013D39004A9E0948A
:1047EA00969004A8E0648094804002D215E4900474
:1047FA004BF0A3F09004F0E0FFD394225006EFC3ED
:10480A009404507B90028AE0FEA3E0FFD3942CEE3E
:10481A00648094814069900322E02464FD9003211E
:10482A00E03400FCD3EF9DEC6480F8EE648098409D
:10483A004ED390042DE094BE90042CE06480947FC3
:10484A00403D9001B7E070379002F9E0940F502F85
:10485A00C39001D1E094269001D0E0943440209096
:10486A0001BEE0701A205417D390020DE0942C90E8
:10487A00020CE09401400890031BE07002D216C3B8
:10488A0090020DE0942C90020CE09401500302492E
:10489A005E900188E094B8900187E06480948B5020
:1048AA00459004A9E0244CFF9004A8E034FFFE7C64
:1048BA00007DF012AF127D1F12AF79AC06AD077FF3
:1048CA00DC7E0512FC22C006C007900198E0FEA318
:1048DA00E0FF12FAF6D005D004C3EF9DEC6480F82D
:1048EA00EE648098406ED3900188E094009001872E
:1048FA00E064809480405D203B5A9001F4E07002AD
:10490A00A3E07050D39001D1E0945E9001D0E0947E
:10491A001A4041900200E094A79001FFE06480945D
:10492A00805031205C2E9001BEE070289001F47412
:10493A000EF0A374A6F09001C1E0FFA3E09002A2DA
:10494A00CFF0A3EFF09001CCE0FFA3E09002F7CF05
:10495A00F0A3EFF09001F4E0FEA3E0FF4E70030233
:10496A004AA5D3EF9422EE940B5003024A1F9004F7
:10497A00A9E0244CFF9004A8E034FFFE7C007DC827
:10498A0012AF127D1F12AF79AC06AD077F247EFAF3
:10499A0012FC76C3900199E09FEE6480F89001982A
:1049AA00E06480984003024A3B900188E094D090EA
:1049BA000187E06480948740789002A3E02428FF6E
:1049CA009002A2E03400FED3900294E09FEE64804D
:1049DA00F8900293E064809840579001B7E07051D4
:1049EA009002F8E024F1FF9002F7E034FFFEC39052
:1049FA0004A9E09FEE6480F89004A8E064809850CF
:104A0A0030D222E49001F4F0A3F0900198F0A3F0E0
:104A1A009001878019C3900198E064809480400ACD
:104A2A00900187E0648094805007E49001F4F0A339
:104A3A00F0900186E070069001BCE06007E4900106
:104A4A00F4F0A3F09002A3E02432FF9002A2E03433
:104A5A0000FED3900294E09FEE6480F8900293E007
:104A6A0064809840369002F8E02432FF9002F7E022
:104A7A003400FED39004A9E09FEE6480F89004A865
:104A8A00E06480984015D218E4900327F0A3F090D0
:104A9A00031EF0A3F09001F4F0A3F0900320E0FFCE
:104AAA0060069001BC7402F0EF640170469002CB7C
:104ABA00E06005900191800390028AE0FEA3E0FF86
:104ACA0090030DE024C4FD90030CE034FFFCC3EF17
:104ADA009DEC6480F8EE6480985002D219E4900349
:104AEA0020F09001BCF09001B7741EF0E4900288A7
:104AFA00F0A3F0204D03024B839001BEE0707A9040
:104B0A00030AE0FEA3E0FF900293E0FCA3E0FDD3DA
:104B1A009FEE6480F8EC648098400890030AECF0F9
:104B2A00A3EDF090029AE07002A3E0701FD3ED9417
:104B3A00E8EC6480948340149004A8E0FEA3E0FFAC
:104B4A00ED9FFFEC9E90029AF0A3EFF0C3ED94B6AE
:104B5A00EC648094835007E490029AF0A3F0C39027
:104B6A00031AE09494900319E09411500CA3E00402
:104B7A00F07006900319E004F0900319E0FEA3E038
:104B8A00FFC3942CEE94015003024C57D39001D1E9
:104B9A00E094019001D0E09400500DEF64DC7003C2
:104BAA00EE64056003024C579004F0E0FFD39421B1
:104BBA005006EFC39404503E20543BC390030BE0CD
:104BCA00945890030AE064809482402AE47FB4FEF9
:104BDA00FDFC9002E1E0F8A3E0F9A3E0FAA3E0FB10
:104BEA00D312B11C401090031AE094C2900319E04A
:104BFA0094014002D21A205C52204A51203B4E9026
:104C0A000293E0FEA3E0FF240FFDE43EFCD39003F1
:104C1A000BE09DEC6480F890030AE0648098502BC6
:104C2A009002C2E0FCA3E0FDC3EF9DFFEE9CFED321
:104C3A009004A9E09FEE6480F89004A8E06480984C
:104C4A005009900186E0C3945F5002D242D390018A
:104C5A00D1E094019001D0E094004052900319E011
:104C6A00FEA3E0FFD3944BEE94004042D3EF945856
:104C7A00EE94024023203B2020551D204A1A90041E
:104C8A00A8E0FEA3E0FF900294E09FFF900293E069
:104C9A009E9001B0F0A3EFF030420C303B03305C41
:104CAA00069003097401F0E4900319F0A3F0304D63
:104CBA0067305D64205461900290E0FEA3E0FFD368
:104CCA00900334E09F900333E09E504C9002CBE077
:104CDA006005900191800390028AE0FEA3E0FFC381
:104CEA0090030DE09FFF90030CE09EFED3EF943CEF
:104CFA00EE6480948040219001BEE0701B7F3CFEF0
:104D0A00FDFC9002E1E0F8A3E0F9A3E0FAA3E0FBDE
:104D1A00D312B11C4002D21BC39001A6E0940490A6
:104D2A0001A5E094004006D21DE4F0A3F0E47FC0A0
:104D3A007E4EFDFC9002E1E0F8A3E0F9A3E0FAA3BD
:104D4A00E0FBD312B11C40139002E5E0600DC21FD4
:104D5A00E4F07E027FE57D0112FA0FC3900188E03C
:104D6A009430900187E0648094784003024E0C905E
:104D7A0001D1E0942C9001D0E094015003024E0C32
:104D8A00900293E0FEA3E0FFD394C8EE648094807F
:104D9A0040709004F0E0FDD394074066ED941750FC
:104DAA006120545EC39001ABE09FFF9001AAE09E90
:104DBA00FE3395E08F338E32F531F530FDAC30E4B9
:104DCA007B2C7A01F9F812AFDB8F338E328D318C5E
:104DDA0030E47B23FAF9F812F8DE8F338E328D3104
:104DEA008C30900187E0FEA3E0FFEE3395E0FDFCF6
:104DFA00AB33AA32A931A830D312B1064004D2513A
:104E0A00D2209004F0E0FFC394084003024EF7EF6B
:104E1A0094025003024EF79002CCE06003024EF770
:104E2A0090042DE0940A90042CE06480948040035E
:104E3A00024EF7C39001F7E0940A9001F6E064800D
:104E4A0094804003024EF7900274E0FEA3E0FFC391
:104E5A009001C0E09FFF9001BFE09EFE12FAF6C3E8
:104E6A00EF941EEE648094804003024EF79004A8EB
:104E7A00E0FEA3E0FF24D8FDEE34FFFCC390028BD2
:104E8A00E09DEC6480F890028AE0648098505EC3EA
:104E9A00900439E0940A900438E064809480504D7C
:104EAA0090020DE094A090020CE0948C403F900197
:104EBA00BCE07039D3EF9404EE64809481405ED3F1
:104ECA0090042DE0948890042CE06480947F404DF7
:104EDA00D39001F7E094889001F6E06480947F40D3
:104EEA003C90030E7408F0A374CAF08030D3900289
:104EFA000DE0940190020CE094005009E490030E36
:104F0A00F0A3F0801890030EE07002A3E0600E9008
:104F1A00030FE024FFF090030EE034FFF090030E3D
:104F2A00E07002A3E0605E900203E024C4FF9002F6
:104F3A0002E034FFFEC3900439E09FEE6480F890EB
:104F4A000438E0648098503DC3900188E09FEE6485
:104F5A0080F8900187E0648098502A9001F7E02455
:104F6A00C4FF9001F6E034FFFEC39001C0E09FEE5B
:104F7A006480F89001BFE06480985009D221E490DF
:104F8A00030EF0A3F09004F0E0C394164065D390AA
:104F9A000200E0947B9001FFE06480947F5054C348
:104FAA00900203E0947B900202E06480947F504375
:104FBA00305403303E3D900425E0FEA3E0FF7C0020
:104FCA007D6412AF79EF2432FFE43EFED3900322D0
:104FDA00E09FEE6480F8900321E0648098401420FA
:104FEA003711900327E07002A3E07007900327F0BF
:104FFA00A304F0900327E07002A3E0605BC390046F
:10500A0029E09404900428E064809481404AD39073
:10501A000188E09400900187E06480948040399090
:10502A0001D1E094289001D0E09423402B9001B75D
:10503A00E07025D390020DE0942C90020CE09401CC
:10504A0040169001BEE07010900328E004F0700F43
:10505A00900327E004F08007E4900327F0A3F0D33D
:10506A00900328E094EE900327E09402402A9003EC
:10507A0022E0241EFF900321E03400FED390028B2D
:10508A00E09FEE6480F890028AE06480984009D23A
:10509A0023E4900327F0A3F0303304C223C2122280
:10941C0075300775312D305606753002753158D3BD
:10942C009002C7E094D09002C6E09407400C741AE6
:10943C002531F53174043530F5302010033011131B
:10944C0090020AE07002A3E07009900314E070032C
:10945C0074F7F0900314E0FFB4F7189004F0E0C335
:10946C009420400FD390020DE094C290020CE09433
:10947C0001506990044AE0B40514D39004A9E09417
:10948C00659004A8E064809480400330564EEF64ED
:10949C00F66049900314E064F860030295D49004DC
:1094AC00F0E0FFC3940750030295D4EF94124003ED
:1094BC000295D4900309E060030295D4900294E0E5
:1094CC009490900293E06480948150030295D49020
:1094DC00018DE07002A3E060030295D49001F4E0EA
:1094EC007002A3E060030295D490020FE07002A317
:1094FC00E060030295D490018DE07002A3E060035C
:10950C000295D4304D030295D49001BCE060030267
:10951C0095D4205651900314E064F860499002935E
:10952C00E0FEA3E0FFC39490EE64809481400302BC
:10953C0095D49004A8E0FCA3E0FDC3EF9DFFEE9C46
:10954C00FE12FAF6D3EF9432EE64809480501790AA
:10955C0004AAE0FEA3E0FFC312FAEAD3EF9432EEC2
:10956C0064809480406290020AE530F0A3E531F00B
:10957C00E49002A0F0A3F09001BC04F0900293E000
:10958C00FFA3E090031CCFF0A3EFF09004A8E0FF42
:10959C00A3E0900180CFF0A3EFF09001B7E060055D
:1095AC009001878003900438E0FEA3E0FF90033124
:1095BC00EEF0A3EFF0900314E0B4F804D23D800277
:1095CC00C23D9003147409F090020AE0FAA3E0FB88
:1095DC00D39400EA9400500302971C900331E0FEF0
:1095EC00A3E0FF90031CE0FCA3E0FDE5319BFBE551
:1095FC00309AFA12F9A6C3900294E09FFF9002935E
:10960C00E09EFE12FAF69001D4EEF0A3EFF0E531F5
:10961C0024B5FFE53034FFFEC390020BE09F9002AF
:10962C000AE09E400D12FAE29001EAEEF0A3EFF090
:10963C008007E49001EAF0A3F09001D4E0FEA3E0EF
:10964C00FF9001EAE0FCA3E0FD12FC2212FC169054
:10965C0002A0EEF0A3EFF0303D4C204D38E5312464
:10966C003EFFE53034FEFEC390020BE09F90020AF1
:10967C00E09E505D9004A9E02432FF9004A8E034F1
:10968C0000FEC390028BE09FEE6480F890028AE0AB
:10969C00648098503CE490020AF0A3F09001BCF076
:1096AC00900314F0802BC39002A1E094149002A0BC
:1096BC00E064809480401A90044AE064056012E4EF
:1096CC0090020AF0A3F0C2119001BCF090031404B4
:1096DC00F090020AE07004A3E06401702D9001BCCC
:1096EC00F0D39004A9E094649004A8E06480948082
:1096FC004013203D1090031474FFF0900317E4F016
:10970C00A304F08005E4900314F09001B7743CF0CE
:10971C0020121A30160B90032EE0C3648094814003
:10972C000C2018092022062023033024669001BC4B
:10973C00E0706020335D20215A203B57204A542092
:10974C004D519001A1F0A374E1F090028AE0FEA3C8
:10975C00E0FF90031CEEF0A3EFF09004A8E0FDA353
:10976C00E0900180CDF0A3EDF0E49001D2F0A3F0F5
:10977C009002A0F0A3F09001F6E0FDA3E0900305A9
:10978C00CDF0A3EDF0900195EEF0A3EFF09001BCBD
:10979C007403F09001A1E07002A3E070030298B290
:1097AC00304D0FE49001A1F0A3F09001BCF09003B8
:1097BC002EF090028AE0FEA3E090019512FC7090CE
:1097CC000195EEF0A3EFF0D39001A2E094969001F6
:1097DC00A1E094004004D25B8002C25B9002A0E046
:1097EC00FEA3E0FF90031CE0FCA3E0FDC390028B02
:1097FC00E09DFD90028AE09CFC12FC229002A0EEFF
:10980C00F0A3EFF09001D2E0FEA3E0FF90028AE01B
:10981C00FCA3E0FDC390031DE09DFD90031CE09CA8
:10982C00FC12FC229001D2EEF0A3EFF09001A1E02B
:10983C007004A3E0640170709001B704F09001D241
:10984C00E0FEA3E0FFD3940AEE648094804008907D
:10985C00032E74FFF0802E9001B7741EF0C390029B
:10986C00A1E0940A9002A0E0648094804012EF94EE
:10987C0005EE64809480500890032E7401F08005EE
:10988C00E490032EF09002F9741EF0E49001BCF009
:10989C009001A1F0A3F0C25B900327F0A3F090031A
:1098AC001EF0A3F08002C25B20130330145C900105
:1098BC00BCE07056203B53204A50900204E0704AA2
:1098CC009001F4E07002A3E070409001EEE530F0FE
:1098DC00A3E531F090028AE0FEA3E0FF9002A2EE35
:1098EC00F0A3EFF090031CEEF0A3EFF09004A8E0CF
:1098FC00FFA3E0900180CFF0A3EFF09001F2E0FF26
:10990C00A3E0900331CFF0A3EFF09001EEE0FAA3C7
:10991C00E0FB4A7003029B0F900331E0FEA3E0FFD3
:10992C0090031CE0FCA3E0FDC3E5319BFBE5309A02
:10993C00FA12F9A68E328F339002A2E0FEA3E090C9
:10994C00028A12FC709002A2EEF0A3EFF09001BC20
:10995C007404F09001EEE0FAA3E0FB7C007D96FF2E
:10996C00AE0212AF24D3ED9425EC94005004D244F3
:10997C008002C244301335201432900204E0702C63
:10998C00E53124B5FFE53034FFFED3EB9FEA9E4072
:10999C001B12FAE2D3EF9414EE64809480400DE431
:1099AC009001BCF09001EEF0A3F0C2139002A2E083
:1099BC00FCA3E0FDAF33AE3212FC76EF2405FFE4DE
:1099CC003EFE90028AE0FCA3E0FDC39FEE6480F8AB
:1099DC00EC648098404A30142D20132A2010033058
:1099EC001124D39001DBE0941E9001DAE094004046
:1099FC0015900209E09403500D9001AEE004F0E4E0
:109A0C009001DAF0A3F09002047401F0E49001EEFE
:109A1C00F0A3F09001BCF09001B7743CF0029B11E4
:109A2C00E53324D8FFE53234FFFEC3ED9FEE6480AE
:109A3C00F8EC648098505E900204E070507F2C7EAD
:109A4C0001FDFC9002E1E0F8A3E0F9A3E0FAA3E049
:109A5C00FB12B11C4037D39002A8E0942C9002A7C3
:109A6C00E09401402820130C9001BDE004F0E49038
:109A7C0002F58016900209E0C39403501030140DC7
:109A8C009001AEE004F0E49001DAF0A3F09002044F
:109A9C0074FFF080309001EEE07004A3E06401707C
:109AAC0064E53324F6FFE53234FFFEC390028BE00D
:109ABC009FEE6480F890028AE064809840079002E0
:109ACC0004E0B4FF2A9001EEE530F0A3E531F0900C
:109ADC00028AE0FFA3E090031CCFF0A3EFF0900408
:109AEC0028E0FFA3E0900331CFF0A3EFF0801690B5
:109AFC00031474F6F090020474FEF09001BC74012F
:109B0C00F08002C2449001C5E0FCA3E0FDA3E0FE9E
:109B1C00A3E0FFEC4D4E4F6052E47BCA7A08F9F893
:109B2C009001C5A3A3A3E012B066AC00AD01AE02D8
:109B3C00AF03E47B0CFAF9F8C312B11C402D900171
:109B4C00BCE0FF6003B4052390027AE0640260116C
:109B5C00D390028BE094FA90028AE0648094804067
:109B6C0015D23C9001BC7405F0800BC23C9001BC3A
:109B7C00E0B40502E4F0303E0330710A9001C512E6
:079B8C00B19400000000226B
:1082A300900314E0F4705190044AE0FF64056048C1
:1082B300EF6029E47FA07E05FDFC9002E1E0F8A3D6
:1082C300E0F9A3E0FAA3E0FBC312B11C500E900443
:1082D300EDE0940F9004ECE09400501CD2307F0149
:1082E30012F692C220C214C213C211C210E4900249
:1082F30004F0900314F0D256204E03028387301A01
:10830300030283879001BCE0707A203B77900307D8
:10831300E07002A3E0706D20306A2034672035647A
:10832300900314E06401705C201008900204E06480
:10833300FE7051900204E0B4FE189002E6E0D3947C
:1083430000400FE4F07E027FE67D0112FA0FD2496E
:10835300800D9001AEE004F0E49001DAF0A3F09018
:1083630001AEE0C39403401112BCA9D2317F0212C3
:10837300F692E49001AEF0C215E4900204F0C21448
:10838300C213C210900314E0F4706590044AE0FF36
:108393006405602CEF6059E47FA07E05FDFC90022C
:1083A300E1E0F8A3E0F9A3E0FAA3E0FBC312B11CF8
:1083B300503E9004EDE0940F9004ECE094004030C4
:1083C300D2327F0312F692C220C214C213C211C268
:1083D30010E4900204F0900314F0D256900307E0E7
:1083E3007002A3E0700A900307740BF0A374D0F03B
:1083F3009004F0E0D39418403F900309E0600690A6
:1084030002CBE06033204E30900209E0702A201B3B
:1084130003301C24301B03201C0630101B3019189A
:10842300D2337F0412F692D23912BCA9C224C21CE1
:10843300C21BC219C212C2109001BCE060030286C3
:1084430069303303028669304A03028669303B038D
:1084530002866920213A30200C301009900209E08D
:108463006003204E2B302209303E0690032EE0603D
:108473001F90032EE0F46003028669201212201677
:108483000F20180C202209202306202403028669CA
:10849300900209E0FFF531C2749001AFE0D3940775
:1084A3004015D3900304E09464900303E0940040E8
:1084B30006202103D38001C39275307119207306FE
:1084C3009001ACE060067C007D9680047C007D64B6
:1084D300AE04AF058013EFD3940150033028067E1A
:1084E300007F9680047E007F648E328F3390032258
:1084F300E02432FD900321E03400FC7F907E0130C4
:108503007502800712FC76AD33AC3212FC228E3436
:108513008F35303E12900433E02432FF900432E072
:108523003400FCAD0780259004F0E0C39415500C93
:10853300900433E02496FF900432800A900322E0F3
:108543002464FF900321E03400FCAD07AF33AE3267
:1085530012FC228E368F37301215C390028BE095B2
:1085630035E5346480F890028AE0648098405D3099
:108573001614307511C390028BE0949090028AE038
:10858300648094814046201803302215C39004313F
:10859300E09537E5366480F8900430E064809840D5
:1085A3002B302325307522C390028BE094909002E8
:1085B3008AE0648094814014D39001D3E0941E90A8
:1085C30001D2E0648094805003302402D2742021CD
:1085D3003230200320102C303E292071269001C513
:1085E300E0FCA3E0FDA3E0FEA3E0FFEC4D4E4F70E3
:1085F300129001C512B1940001194090031B743C01
:10860300F0804020743DD23412BCA99002D0E044E3
:1086130001F012FB44900209E0D3953140097E0238
:108623007FD07D0112FA0F900209E0FFC39404404A
:108633000DEFD3953140077F0512F69280057F0534
:1086430012F59A90027A3074057401F08003740273
:10865300F0E490032EF0C224C223C222C221C21826
:10866300C216C212C210301A7CC3900294E094580E
:10867300900293E064809482506BE47FA07E05FDBA
:10868300FC9002E1E0F8A3E0F9A3E0FAA3E0FB1217
:10869300B11C4051900209E0704BD235900207E0C3
:1086A30060077F0612F69280277F0612F59A9004E0
:1086B300F0E0D394204004C2748002D27475300178
:1086C300A274927612F1CD0530E530D3943C40F09C
:1086D300E49001AEF0C22CC22BC237C236C231C203
:1086E3001AC211C2109001BCE0600302884A9002D2
:1086F300CCE06401600302884A7F407E38FDFC9031
:1087030002E1E0F8A3E0F9A3E0FAA3E0FBD312B19E
:108713001C500302884A201D0302884A90028BE002
:10872300947890028AE064809480400302884A200F
:108733004E0302884A30390302884A3018030288FC
:108743004A9001BDE0600302884A900204E0F4709D
:108753000302884A9002A4E0600302884A301503AA
:1087630002884A301A0302884A30350302884A30A5
:10877300280302884A900209E0600302884A9004B1
:10878300AAE0FEA3E0FFC39004A9E09FEE6480F893
:108793009004A8E064809850109001A4E004F0E4F1
:1087A300900205F0A3F012BCA99001A4E0C39403C6
:1087B3005003028848D237E49002ECF0A3F07E0223
:1087C3007FEC7D0212FA0F9002E7E0D3648094807D
:1087D30050159002E6E0C39403500C204909E004CD
:1087E300F07E027FE680292049389002E7E0D364D7
:1087F30080947E402DD3900443E094B5900442E0EE
:108803006480947F401C9002E7E014F07E027FE7CF
:108813007D0112FA0F7F0812F59A9001B4741CF0CF
:10882300801E204916D39002C7E094199002C6E037
:10883300940040077F0812F69280057F0812F59A8C
:10884300E49001A4F0C21D9002AAE0700302894DD6
:108853009001BCE0600302894D30340302894D303E
:10886300350302894D30370302894D302B030289CA
:108873004D30540302894D900209E0C39402400332
:1088830002894D9004F0E0FFC394074021EFD39495
:1088930020501BEF9417500302894D900322E0945C
:1088A300C8900321E064809480400302894D9003C3
:1088B3002EE0D364809480500302894D900180E0C0
:1088C300FEA3E0FFD394FAEE64809480407CD390BF
:1088D3000306E09464900305E064809480406B9009
:1088E300031DE0240AFD90031CE03400FCD3EF9D3C
:1088F300EC6480F8EE64809840509004ABE024145C
:10890300FF9004AAE03400FED3900181E09FEE645F
:1089130080F8900180E0648098500330452CD39018
:10892300028BE0949090028AE064809481401B2043
:108933001806201203302312D2287F0912F692C29E
:1089430023C218C212E49001A4F09001BCE06003BA
:108953000289F4A3E0C3940350062015030289F4AB
:10896300D229E49002ECF0A3F07E027FEC7D0212A8
:10897300FA0F9001B4E06002D2499002E7E0C364C9
:108983008094805009E004F07E027FE7801090021B
:10899300E6E0D394004012E014F07E027FE67D010E
:1089A30012FA0FC237D2498030C3900443E09432A5
:1089B300900442E06480948050239002E7E0600AD0
:1089C30030151AC36480948450139002E7E004F0D6
:1089D3007E027FE77D0112FA0F7F0A800A7F0A3049
:1089E300150512F692800312F59AC215E49001BDA3
:1089F300F09002E5E0C394034017D22A7F0B12F6EE
:108A030092E49002E5F0C21F7E027FE57D0112FA37
:108A13000F20100C205503028B6C305C03028B6C0F
:108A23009001BEE06003028B6CC390031AE094B81C
:108A3300900319E0940B5003028B6CE47FF0FEFD6E
:108A4300FC9002E1E0F8A3E0F9A3E0FAA3E0FBD392
:108A530012B11C5003028B6C204E03028B6C30202E
:108A630003028B6C302803028B6C900309E07006C1
:108A7300204203028B6CD39002A1E094FA9002A0EF
:108A8300E0648094805003028B149001B0E0FEA355
:108A9300E0FF94F0EE648094805021EF2432FDE4F3
:108AA3003EFC7FF07E0012FC76C390029BE09FEEBB
:108AB3006480F890029AE06480984003302517D3CD
:108AC300900285E09490900284E064809481400653
:108AD300D2367F078034D3900285E0945890028485
:108AE300E0648094825003028B6C9001B0E0FEA39B
:108AF300E0FF94E8EE64809483506EC3EF94F0EE4D
:108B0300648094804063D22C7F0D12F692C2108051
:108B1300582055219004ABE02464FF9004AAE0346C
:108B230000FED3900285E09FEE6480F8900284E01B
:108B33006480984034C39001B1E094E89001B0E0C0
:108B4300648094834011D39002A1E094649002A0C6
:108B5300E0648094805012D22B7F0C12F692E49042
:108B630001AEF0900314F0C21090044AE0B4052063
:108B730090020EE0C3941E40179004A9E094329033
:108B830004A8E0648094805007D22D7F0E12F692E1
:018B930022BF
:109B9300C3900294E09484900293E0648094835091
:109BA30002C2259001CBE0600E900315E07002A382
:109BB300E070049001CBF0D3900275E094649002BE
:109BC30074E0648094804013D39001D1E0945E905C
:109BD30001D0E0941A4004D2458002C24512BCA9C8
:109BE3009001BCE0700CC224C223C222C218C21668
:109BF300C21290032EE06401702E9004F0E0FFD3B4
:109C0300941240249001AFE0D394074005EF9422CF
:109C130040119004F0E0C39418500D900209E094B1
:109C2300004005E490032EF0900197E0FD6006905C
:109C330002CDE060339002CDE0FF7003029D1DD39F
:109C4300940E4003029D1DEF14FF74017E00A807CC
:109C5300088005C333CE33CED8F9FFE5255EFEE594
:109C6300265F4E6003029D1D9002CDE07041EDD34F
:109C7300940E5021900197E014FF74017E00A80711
:109C8300088005C333CE33CED8F9F4FFEEF4FEEFEC
:109C93005226EE5225900197E0B4050EE49002D0CF
:109CA300F07E027FD07D0112FA0F12BCA98005E479
:109CB3009002CDF0E4FFFEFDFC9002DDE0F8A3E0AE
:109CC300F9A3E0FAA3E0FBD312B11C403A7D0EEDF9
:109CD30014FF74017E00A807088005C333CE33CE7A
:109CE300D8F9FFE5255EFEE5265F4E60079001CBC0
:109CF300E0B50506ED60031D80D5EDD3940040115A
:109D03009002CDEDF0800A9001D612B194000000CC
:109D1300007E027FCD7D0112FA0F9002CDE0FF900D
:109D23000197F09001DAE0FCA3E0FDC394C0EC944A
:109D33004E4005E49001AEF0C3900206E094C0905B
:109D43000205E0944E4005E49001A4F0C39002F6AE
:109D5300E094BC9002F5E094704005E49001BDF0FE
:109D6300ED4C6009305415900204E0600F9002A49A
:109D7300E070037405F09001AC7403F020301320FD
:109D8300311020330D20360A900307E07002A3E060
:109D9300600E9001AC7403F09002A4740AF0800A80
:109DA3009001ACE070049002A4F09002C6E0FCA322
:109DB300E0FD9001C3E0B50413A3E0B5050E203028
:109DC3000B203208203305EF6432704F9002E6E037
:109DD300D39400400BE4F07E027FE67D0112FA0F7C
:109DE3009002C6E0FEA3E0FF9001C3E0B5061DA309
:109DF300E0B507189002E7E0C364809480500BE459
:109E0300F07E027FE77D0112FA0FD2499002C6E08D
:109E1300FFA3E09001C3CFF0A3EFF0C39002EDE006
:109E2300946D9002ECE09401404A9002E7E06021D7
:109E3300D3648094804003E014F09002E7E0C364AD
:109E43008094805003E004F07E027FE77D0112FAE4
:109E53000F9002E6E0600B14F07E027FE67D0112B4
:109E6300FA0FE49002ECF0A3F07E027FEC7D021285
:109E7300FA0FC249900292740DF09003037408F034
:109E8300A374CAF09001ACE0700F9001AEE07009CA
:109E9300202006900209E0602B9004F0E0FFD394A9
:109EA300074019EF941550089002927425F0800C26
:109EB300EFC3941750069002927419F0900303E4D1
:109EC300F0A304F03033069001B7743CF09003091B
:109ED300E06007305C04C239C23F3056329003174A
:109EE300E07002A3E0701FD390028BE09400900215
:109EF3008AE064809480400690031474F6F0900323
:109F030017E4F0A304F0900314E0B40102C2562056
:109F1300520302A0559001CCE0FEA3E0FFC39004DE
:109F2300A9E09FFF9004A8E09EFE3395E08F338E57
:109F330032F531F530FDAC30E47BC8FAF9F812AFF5
:109F4300DB8F338E328D318C309001F6E0FEA3E04F
:109F5300FFEE3395E0FDFCE47B3BFAF9F812AFDB4F
:109F6300EF2533FFEE3532FEED3531FDEC3530FCB8
:109F7300E47B3CFAF9F812F8DE9001F6EEF0A3EF79
:109F8300F09001BFE0FEA3E0FFEE3395E0FDFCE4BB
:109F93007B0EFAF9F812AFDBEF2533FFEE3532FE15
:109FA300ED3531FDEC3530FCE47B0FFAF9F812F8AE
:109FB300DE9001BFEEF0A3EFF09001C9E0FEA3E055
:109FC300FFC39004ABE09FFF9004AAE09EFE33958D
:109FD300E08F338E32F531F530FDAC30E47BC8FAD7
:109FE300F9F812AFDB8F338E328D318C30900274DF
:109FF300E0FEA3E0FFEE3395E0FDFCE47B0EFAF90F
:10A00300F812AFDBEF2533FFEE3532FEED3531FDD0
:10A01300EC3530FCE47B0FFAF9F812F8DE900274A9
:10A02300EEF0A3EFF09004AAE0FFA3E09001C9CF04
:10A03300F0A3EFF0900293E0FFA3E09001C1CFF013
:10A04300A3EFF09004A8E0FFA3E09001CCCFF0A32E
:10A05300EFF0900415E0FEA3E0FF7C007D0512AF56
:10A0630012EEC313FEEF1324FFFFEE34FFFEC39083
:10A0730001B6E09F9001B5E09E500302A157900303
:10A0830010E0FEA3E0FF90028BE09FFF90028AE0C6
:10A093009EFE3395E08F338E32F531F530FDAC30D3
:10A0A300E47BE07A2EF9F812AFDB8F338E328D31F9
:10A0B3008C30E47F05FEFDFCAB33AA32A931A83016
:10A0C30012AFDBC006C0079001B5E0FEA3E0FBAA18
:10A0D30006E4F9F8D007D00612F8DEE47B02FAF9B9
:10A0E300F812F8DE8F338E328D318C30900276E0A9
:10A0F300FEA3E0FF7C007D0312AF12EE3395E0FD7B
:10A10300FCEF2533FFEE3532FEED3531FDEC353016
:10A11300FCE47B04FAF9F812F8DE900276EEF0FC28
:10A12300A3EFF0FD7FBA7EFF12FC22AC06AD077FE2
:10A13300467E0012FC76900276EEF0A3EFF09002DA
:10A143008AE0FFA3E0900310CFF0A3EFF0E49001C7
:10A15300B5F0A3F090044AE064026007E49001B50F
:10A16300F0A3F0E47F01FEFDFC9002E1E0F8A3E040
:10A17300F9A3E0FAA3E0FBC312B11C5037E4900249
:10A1830076F0A3F0900274F0A3F09001BFF0A3F077
:10A193009001F6F0A3F09004A8E0FFA3E09001CCB7
:10A1A300CFF0A3EFF09004AAE0FFA3E09001C9CFA2
:10A1B300F0A3EFF090044AE0FF6403601BEF640236
:10A1C3006016E4900276F0A3F090028AE0FFA3E029
:10A1D300900310CFF0A3EFF0C2529001BCE06002F5
:03A1E300D23A224B
:10BCA9009002DDE0FCA3E0FDA3E0FEA3E0F53C8EFD
:10BCB9003B8D3A8C399002DD12B19400000000AE40
:10BCC90025AF26E4FCFD9002DD12B1889001CBE09E
:10BCD9006055D3940E50509002DDE0F8A3E0F9A32B
:10BCE900E0FAA3E0FBC000C001C002C0039001CB91
:10BCF900E014FF74017E00A807088005C333CE3322
:10BD0900CED8F9F4FFEEF4FE3395E0FDFCD003D074
:10BD190002D001D000EB5FFFEA5EFEE95DFDE85C61
:10BD2900FC9002DD12B1889002DDE0FCA3E0FDA3E6
:10BD3900E0FEA3E0FFAB3CAA3BA93AA839C312B184
:10BD49001C60097E027FDD7D0412FA0F9002D9E0A2
:10BD5900FCA3E0FDA3E0FEA3E0F53C8E3B8D3A8C0D
:10BD6900399002D912B19400000000AF24E4FCFD1F
:10BD7900FE781012B140A804A905AA06AB07E5236D
:10BD8900FEEA4EFAEB4522FFEAFEE9FDE8FC9002E5
:10BD9900D912B1889002D9E0FCA3E0FDA3E0FEA38B
:10BDA900E0FFAB3CAA3BA93AA839C312B11C602FEA
:10BDB9007E027FD97D0412FA0FAF3CAE3BAD3AAC9F
:10BDC900399002D9E0F8A3E0F9A3E0FAA3E0FBD3A4
:10BDD90012B11C400A9002867402F0A374EEF0902E
:10BDE9000286E07002A3E0601FAF3CAE3BAD3AAC07
:10BDF900399002D9E0F8A3E0F9A3E0FAA3E0FBD374
:10BE090012B11C500302BEFD753E00753F01E4905E
:10BE190001BAF0A3F0753D01C39001BBE094109005
:10BE290001BAE09427400302BEFDE53D94164003A4
:10BE390002BEFDE53D14FF131313541F2422F8E637
:10BE4900FD7C00EF5407FF74017E00A807088005F8
:10BE5900C333CE33CED8F9FFEE5CFEEF5D4E7003EF
:10BE690002BEF8AE3EAF3FAB07AA06E4F9F8AF3D14
:10BE7900FCFDFE12AFDBA804A905AA06AB079001D9
:10BE8900BAE0FEA3E0FFE4FCFDEB2FFFEA3EFEED86
:10BE990039FDEC38FCE47BDC7AFFF9F8D312B10602
:10BEA900404DAF3D7E00AC3EAD3F12AF129001BB9D
:10BEB900E02FF09001BAE03EF0E53DD3940940153A
:10BEC900D3E53F9464E53E94005024AE3EAF3F7CF9
:10BED900007D648013D3E53F94E8E53E9403500F59
:10BEE900AE3EAF3F7C007D0A12AF128E3E8F3F05FA
:10BEF9003D02BE21E490019CF09001BCE06002800B
:10BF0900329001CBE0FF6030D3940E502BEF14FF39
:10BF190074017E00A807088005C333CE33CED8F953
:10BF2900FFE5255EFEE5265F4E700D9001CBE075BD
:10BF3900F00AA490019CF0229002E6E090019CF0A6
:10BF49009002E7E0FF601190019CE0FEEF240333CB
:10BF5900333354F8FFEE4FF09002A4E060079001EC
:10BF69009CE04440F0C3900304E09464900303E030
:10BF79009400500790019CE04480F09001C5E0FCDA
:10BF8900A3E0FDA3E0FEA3E0FFEC4D4E4F60069059
