:1040000002C2AF02AA343042030252B190019CE0D6
:10401000FCA3E0FDA3E0FEA3E0FFEC4D4E4F601ECD
:1040200090019CA3A3A3E024FFFFEE34FFFEED3438
:10403000FFFDEC34FFFC90019C1268DE80139002BF
:1040400045E0B4030CE4F07E027F457D01FC12D60E
:10405000E320220E30190B7E027F537D087C001274
:10406000D6E3201123900282E0FEA3E0FFD3900567
:10407000BAE09F9005B9E09E40139001E3E0700222
:10408000A3E07009D2118005202202C2119001DA4A
:10409000E07002A3E060299001DBE024FFF09001D2
:1040A000DAE034FFF0301104E4F0A3F09001DAE03C
:1040B0007002A3E0700A90022B7402F0A37458F00F
:1040C00090022BE07002A3E0600E90022CE024FF2F
:1040D000F090022BE034FFF090025DE0607A202245
:1040E00077301974D39001EEE094589001EDE0948C
:1040F00002406520176290022BE07002A3E0705826
:10410000900234E0FEA3E0FFE4FCFD7BC8FAF9F87E
:10411000D312684A50429005BCE094E09005BBE0A1
:10412000648094814018900260E0FF7E00E4FCFD12
:104130007B14F812671F9001DAEEF0A3EFF0900203
:1041400067E0FFE4FCFDFE7BB07A04F9F812671F1C
:104150009003891268DED217301102C2172022079D
:10416000E49001EDF0A3F0A2229219900389E0FC03
:10417000A3E0FDA3E0FEA3E0FFEC4D4E4F601C90DA
:104180000389A3A3A3E024FFFFEE34FFFEED34FF79
:10419000FDEC34FFFC9003891268DE9001A1E0FC85
:1041A000A3E0FDA3E0FEA3E0FFEC4D4E4F601C90AA
:1041B00001A1A3A3A3E024FFFFEE34FFFEED34FF33
:1041C000FDEC34FFFC9001A11268DE900196E070D6
:1041D00002A3E06015900197E024FFF0900196E0C3
:1041E00034FFF0301104E4F0A3F090025DE06024AD
:1041F00090028CE0601E20221B900234E0FEA3E0BF
:10420000FF4E6010E4FCFD7B8CFAF9F8D312684A8B
:104210004002D21D900389E0FCA3E0FDA3E0FEA3D1
:10422000E0FFEC4D4E4F70079001A8E0B40102C2D0
:104230001D302272900234E0FEA3E0FF4E60149025
:1042400001BBE0FCA3E0FD900198E06C7003A3E0EB
:104250006D600F9005B5E0FDA3E090023BCDF0A3AB
:10426000EDF0E4FCFD7B607AEAF9F8D312684A408D
:104270000E900235E004F07006900234E004F090F5
:104280000234E0FEA3E0FFE4FCFD7B64FAF9F8C32E
:1042900012684A701E9005B9E0FFA3E0900226CF95
:1042A000F0A3EFF0800DE4900234F0A3F09002262A
:1042B000F0A3F0900198E0FFA3E09001BBCFF0A342
:1042C000EFF0900392E030E102D21D20221490031F
:1042D0008DE0FCA3E0FDA3E0FEA3E0FFEC4D4E4F1C
:1042E000607C900237E0FEA3E0FFC39005BCE09F36
:1042F000FF9005BBE09EFE3395E0FDFCE47BB07AC9
:1043000004F9F812671FC004C005C006C007E47FA7
:1043100028FEFDFC90018AE0F8A3E0F9A3E0FAA3EF
:10432000E0FB12671FD003D002D001D000EF2BFFBB
:10433000EE3AFEED39FDEC38FC90018A1268DE9011
:10434000018AE0FCA3E0FDA3E0FEA3E0FFE47B29FB
:10435000FAF9F812D80B90018A1268DE800A9001EF
:104360008A1268EA000000009005BBE0FFA3E0901D
:104370000237CFF0A3EFF09001A8E06401600620BF
:104380001D030244D590025DE070030244D5900203
:1043900063E060030244D59001CDE060269001A95E
:1043A000E07020201D1D20111A201E17D21D900321
:1043B000891268EA00000000E49001CDF09001A9A4
:1043C0007403F0301D0D9001A9E06403600B7402CA
:1043D000F080069001A97401F0301E030244719030
:1043E0000389E0FCA3E0FDA3E0FEA3E0FFEC4D4E5B
:1043F0004F7052201128900261E0FEA3E0FFC390AD
:10440000025FE09FFF90025EE09ECF24F6CF34FF74
:10441000FEC39005B8E09F9005B7E09E4003301DB5
:1044200024D21EE4900196F0A3F0301D189002668D
:10443000E0FFE4FCFDFE7BB07A04F9F812671F9000
:1044400001A11268DE9001C174FF1268ABE4FBFAAF
:10445000F9F8C312686060030244E69001C1126873
:10446000EA00008CA09001967402F0A37458F080CA
:10447000752011399001A1E0FCA3E0FDA3E0FEA3AB
:10448000E0FFEC4D4E4F705E900261E0FEA3E0FF56
:10449000C390025FE09FFF90025EE09EFED3900516
:1044A000B8E09F9005B7E09E5003301D39C21E90C2
:1044B0000267E0FFE4FCFDFE7BB07A04F9F81267C6
:1044C0001F9003891268DEC21D9001C11268EA00C4
:1044D000008CA08011C21EE49001A9F09001C112CD
:1044E00068EA00000258301F02C21E201E1490010C
:1044F000DAE07002A3E0700A900196E07002A3E097
:104500006003D38001C392139001E3E07002A3E043
:104510006002C21330137F201F7C900198E0FEA33D
:10452000E0FFC39005BCE09F9005BBE09E50679004
:10453000023D1268A9E47BA07A0FF9F8D3126860F3
:10454000505E301C059001E7800390026CE0FEA3F2
:10455000E0FFD3900199E09F900198E09E401830D1
:104560001C059001E7800390026CE0FEA3E0FF9041
:104570000198EEF0A3EFF0E47F707E17FDFC90024F
:104580003DE0F8A3E0F9A3E0FAA3E0FBC312686002
:10459000400ED21F800A90023D1268EA000000001F
:1045A000301102C21F20110302463EC3900380E077
:1045B000945890037FE09402500EA3E004F070063C
:1045C00090037FE004F0807D9005B7E0FEA3E0FF5C
:1045D00090018EEEF0A3EFF0D3942CEE9401400AFC
:1045E00090018E7401F0A3742CF0900278E0FEA389
:1045F000E0FF90018EE0FCA3E0FDD39FEC9E401312
:10460000900278ECF0A3EDF07E027F787D027C00D2
:1046100012D6E3900276E0FEA3E0FF90018EE0FC6C
:10462000A3E0FDC39FEC9E501C900276ECF0A3ED3E
:10463000F07E027F767D027C0012D6E38007E49054
:10464000037FF0A3F09001C5E0FEA3E0FF9005B961
:10465000E0FCA3E0FDD39FEC9E4016900190E004A7
:10466000F0946440119001C5ECF0A3EDF0C22180FC
:1046700005E4900190F09005B7E0FEA3E0FF9005FF
:10468000B5E0FCA3E0FDD39FEE6480F8EC64809875
:1046900050030247AC900228E004F0941450030247
:1046A00047ACE4F030132320222090025DE0B401F7
:1046B00019C3ED9FFFEC9EAB07FA3395E0F9F89034
:1046C000025BE0FFE4FCFDFE802D30223E9005B74A
:1046D000E0FEA3E0FFC39005B6E09FFF9005B5E0C4
:1046E0009EAB07FA3395E0F9F89005B9E0FEA3E038
:1046F000FFEE3395E0FDFC12671FE47B0AFAF9F840
:1047000012671F9005731268DE800A9005731268A5
:10471000EA00000000900573E0FCA3E0FDA3E0FECA
:10472000A3E0FFE47B987A05F9F81267AA90057375
:104730001268DE900257E0FCA3E0FDA3E0FEA3E0D8
:10474000FF900573E0F8A3E0F9A3E0FAA3E0FBEF24
:104750002BFFEE3AFEED39FDEC38FC900257126863
:10476000DE90025DE0B40210900257E0FCA3E0FD91
:10477000A3E0FEA3E0FF802E20133130222E900212
:1047800053E0FCA3E0FDA3E0FEA3E0FF900573E08F
:10479000F8A3E0F9A3E0FAA3E0FBEF2BFFEE3AFE6B
:1047A000ED39FDEC38FC9002531268DE9001E3E035
:1047B0007002A3E07003024B059001E4E024FFF0D7
:1047C0009001E3E034FFF0E49001D6F0A3F0900113
:1047D000D4F0A3F09001DDF0A3F09001D8F0A3F0A5
:1047E0009001DFF0A3F0900191F0A3F0900188F028
:1047F000A3F09001E3E0FEA3E0FFE4FCFD7B407A40
:1048000006F9F8C312684A406D9001E3E0FEA3E0A8
:10481000FFE4FCFD7BE87A03F8D312684A50579016
:1048200001A6E4F0A3740AF0E49001ADF0A3F090C7
:1048300001E3E0FEA3E0FFE4FCFD7BB00AF81268B0
:104840004A50030248E0900241E0F8A3E0F9A3E0F7
:10485000FAA3E0FB9005BDE0FEA3E0FFEE3395E098
:10486000FDFCEB2FFFEA3EFEE93DFDE83CFC90023B
:10487000411268DE806A9001ADE4F0A3740AF0E4AE
:104880009001A6F0A3F09001E3E0FEA3E0FFE4FCBA
:10489000FD7B417A06F9F8C312684A704390025BC7
:1048A000E0FFD39005BAE09F7480F89005B9E0640A
:1048B0008098402C90043EE0F51D900444E4F0A361
:1048C0007464F0D237E49001E3F0A3F07F0912CDD5
:1048D00077E49001A6F0A3F09001ADF0A3740AF084
:1048E0009001E3E0FEA3E0FFE4FCFD7BE87A03F93E
:1048F000F8C312684A50030249C19001E3E0FEA3E5
:10490000E0FFE4FCFD7BF47A01F812684A502A903B
:104910000239E07002A3E070149005B9E07002A3C0
:10492000E0600A9001E37401F0A374F4F09005B91B
:10493000E0FFA3E090023980209001E3E0FEA3E0D5
:10494000FFE4FCFD7BC8FAF9F8C312684A701190C5
:1049500005B9E0FFA3E0900184CFF0A3EFF0806100
:104960009001E3E0FEA3E0FFE4FCFD7BC8FAF9F868
:10497000D312684A404B900385E0F8A3E0F9A3E026
:10498000FAA3E0FB9005B9E0FEA3E0FFEE3395E06B
:10499000FDFCEB2FFFEA3EFEE93DFDE83CFC900309
:1049A000851268DE900185E0240AFF900184E034DE
:1049B00000FED39005BAE09F9005B9E09E4002D278
:1049C000329001E3E07002A3E060030252B1300DC7
:1049D00003024A5D7F307E75FDFC900241E0F8A342
:1049E000E0F9A3E0FAA3E0FBD31268604058E47B4F
:1049F00014FAF9F8900241E0FCA3E0FDA3E0FEA365
:104A0000E0FF1267AAEF2405FFE43EFEE43DFDE46B
:104A10003CFCE47B0AFAF9F81267AA900280EEF0F7
:104A2000A3EFF0D3942CEE9401400A90028074011D
:104A3000F0A3742CF0900280E0FFA3E090027ECF00
:104A4000F0A3EFF080177F0612CD77900280E4F09C
:104A5000A374FAF090027EE4F0A374FAF030320509
:104A60007F0A12CD77200B66203263E47B14FAF9BB
:104A7000F8900385E0FCA3E0FDA3E0FEA3E0FF12B5
:104A800067AAEF2405FFE43EFEE43DFDE43CFCE4C0
:104A90007B0AFAF9F81267AA900282EEF0A3EFF00F
:104AA00090025BE0FDC3EF9DEE9400401690028300
:104AB000E0240AF0900282E03400F090025D74017C
:104AC000F0800BE490025DF0900282F0A3F090037E
:104AD000891268EA0000000090022B7402F0A374AF
:104AE00058F0E49001D3F07E027F7E7D06FC12D662
:104AF000E37E027F5D7D017C0012D6E390043EE000
:104B0000F51DD23722E47F2C7E01FDFC90038DE061
:104B1000F8A3E0F9A3E0FAA3E0FBC3126860500336
:104B2000024D52E490057BF0A3F0900236E0701D38
:104B30009002411268EA00000000E490037DF090CA
:104B40000384F09001801268EA00000000900236B1
:104B50007401F0900241E0F8A3E0F9A3E0FAA3E0C9
:104B6000FB9005BDE0FEA3E0FFEE3395E0FDFCEB1E
:104B70002FFFEA3EFEE93DFDE83CFC900241126851
:104B8000DE9001801268A9E47B28FAF9F8C3126864
:104B9000606003024D527B04F8900241E0FCA3E008
:104BA000FDA3E0FEA3E0FF1267AAEF2405FFE43EA9
:104BB000FEE4FCFD7B0AFAF9F812D80B90057BEEB7
:104BC000F0A3EFF0C3900281E09FFF900280E09E8F
:104BD000FEE4FCFD12D891900579EEF0A3EFF09081
:104BE0000280E0FEA3E0FFE4FCFD7B03FAF9F8128B
:104BF000671FE47B64FAF9F812D80BA804A905AA88
:104C000006AB07900579E0FEA3E0FFE4FCFDC312CC
:104C1000684A4003024D4890027EE0FEA3E0FFE4B4
:104C2000FCFD7B55FAF9F812671FC004C005C006E9
:104C3000C00790057BE0FEA3E0FFE4FCFD7B64FA87
:104C4000F9F812671FA804A905AA06AB07D007D078
:104C500006D005D004D312684A5003024CDF9002FC
:104C60007EE0FEA3E0FFE4FCFD7B64FAF9F8126746
:104C70001FC004C005C006C00790057BE0FEA3E08E
:104C8000FFE4FCFD7B50FAF9F812671FA804A905A0
:104C9000AA06AB07D007D006D005D004C312684AD5
:104CA000400E90057CE094FA90057BE09400502F34
:104CB00090057BE0FEA3E0FF900280EEF0A3EFF012
:104CC000D3942CEE9401400A9002807401F0A374F6
:104CD0002CF07E027F807D027C0012D6E3806990FA
:104CE000027EE0C313FEA3E013FFC390057CE09FA8
:104CF00090057BE09E500590037D804790027EE00A
:104D0000FEA3E0FFE4FCFD7B04FAF9F812671FC084
:104D100004C005C006C00790057BE0FEA3E0FFE4E9
:104D2000FCFD7B05FAF9F812671FA804A905AA067D
:104D3000AB07D007D006D005D004C312684A501282
:104D40009003847401F0800A90038474FFF0900350
:104D50007DF0900236E07003024E0CE47F03FEFD0E
:104D6000FC90038DE0F8A3E0F9A3E0FAA3E0FBD305
:104D70001268604003024E0CE4900236F090037D0E
:104D8000E0FF6480948040089001DCE004F0801033
:104D9000C3EF6480948050089001DCE0600214F05E
:104DA0009001DCE0C39403400A7F6A12CD77E4905F
:104DB00001DCF0900384E0FFD3648094804008908D
:104DC0000231E004F08010C3EF64809480500890BA
:104DD0000231E0600214F0900252E0640660249018
:104DE000037AE0646A601C9001DCE0C39402501313
:104DF000900231E0C39403400A7F6B12CD77E490B8
:104E00000231F0E4900384F090037DF090037AE0A7
:104E100064707003024EA7E47F707E17FDFC900360
:104E20008DE0F8A3E0F9A3E0FAA3E0FBD3126860F9
:104E30005016900234E0FEA3E0FFE4FCFD7B707AA4
:104E400017F9F812684A505F90018AE0FCA3E0FD70
:104E5000A3E0FEA3E0FF12D891E47B14FAF9F8C3B3
:104E600012684A40429005B5E0FEA3E0FF249CFD95
:104E7000EE34FFFCD39005BCE09DEC6480F8900517
:104E8000BBE06480985020EF24CEFFEE34FFFEC3D9
:104E90009005B8E09FEE6480F89005B7E0648098D4
:104EA00050057F7012CD77900245E0600302529268
:104EB0009001D3E060030251942011030251943019
:104EC0001303025194900199E024CEFF900198E0E1
:104ED00034FFFEC390023CE09F90023BE09E400303
:104EE000025194900234E0FEA3E0FFE4FCFD7B90CD
:104EF0007A01F9F8C312684A40030251949001996B
:104F0000E02464FF900198E03400FE9005B5E0FCD9
:104F1000A3E0FDD39FEC9E401BD3ED948AEC64800C
:104F2000948240109001C8E004F0700F9001C7E037
:104F300004F08007E49001C7F0A3F0900226E0FEA1
:104F4000A3E0FF24FBFDEE34FFFCC39005BAE09D17
:104F5000EC6480F89005B9E064809850377C007D5F
:104F600009126656AA06AB07E0FEA3E0FF0D126623
:104F700056C3EF9BEA6480F8EE6480985016E49084
:104F800001C7F0A3F09005B9E0FFA3E0900226CF9F
:104F9000F0A3EFF09001C7E0FEA3E0FFE4FCFD7B8F
:104FA000207A03F9F8C312684A4027900199E02457
:104FB000C8FF900198E03400FE9005B5E0FCA3E046
:104FC000FDD39FEC9E4016D3ED94BCEC648094829C
:104FD000400B9001D37405F07F6712CD77AE43AFDD
:104FE00044E4FCFDC006C007AE29AF2AAB07AA0601
:104FF000D007D006C3EF9BFFEE9AFEED9400FDECC8
:105000009400FCE47B64FAF9F812671FC006C0073D
:10501000AE29AF2AAB07AA06E4F9F8D007D00612EA
:10502000D80B900577EEF0A3EFF090025BE075F0FF
:1050300004A4FFC39005BAE09FE5F06480F89005F2
:10504000B9E06480985003025188D3E52A9428E59A
:1050500029940050030251889001ADE07002A3E052
:105060007003025188900234E0FEA3E0FFE4FCFDEF
:105070007BB07A04F9F8C312684A40030251889061
:10508000027AE0FF900578E09F7480F8900577E061
:105090006480984064900272E0FEA3E0FFE4FCFDAF
:1050A0007B14FAF812671FC006C007900191E475DF
:1050B000F0011266F3AFF0AB07FAE4F9F8D007D0CD
:1050C00006C312684A4039E4900191F0A3F09005BC
:1050D00078E090027AF07E027F7A7D017C0012D621
:1050E000E390027AE0D39432401690037AE0646B46
:1050F000600E7F6612CD778007E4900191F0A3F0F7
:1051000090027BE0FF900577E0FCA3E0FDC3E49D07
:10511000FDE49CFCD3ED9F7480F86C98406790028E
:1051200072E0FEA3E0FFE4FCFD7B14FAF9F81267DD
:105130001FC006C007900188E475F0011266F3AF46
:10514000F0AB07FAE4F9F8D007D006C312684A407A
:1051500056E4900188F0A3F0900578E0F404900202
:105160007BF07E027F7B7D017C0012D6E390027B88
:10517000E0D39432403190037AE0646B60297F671A
:1051800012CD778022E48007E4900191F0A3F090A3
:1051900001888010E4900188F0A3F0900191F0A3C1
:1051A000F09001C7F0A3F09001D3E0600D90027E73
:1051B000E0FFA3E0A3CFF0A3EFF0301256200B5393
:1051C00090025DE06401704B9005B9E07002A3E0CD
:1051D000703A900272E0FEA3E0FFE4FCFD7B14FA5B
:1051E000F9F812671FC006C0079001D8E475F001F6
:1051F0001266F3AFF0AB07FAE4F9F8D007D006C3B4
:1052000012684A400E7F6812CD778007E49001D87B
:10521000F0A3F0900234E0FEA3E0FFE4FCFD7BC8C5
:10522000FAF9F8D312684A40030252B1C390027DE2
:10523000E0954C90027CE0954B5076C3E54C94A4ED
:10524000E54B9401506B900272E0FEA3E0FFE4FC9A
:10525000FD7B14F812671FC006C0079001DDE475DE
:10526000F0011266F3AFF0AB07FAE4F9F8D007D01B
:1052700006C312684A401590027CE54BF0A3E54C4A
:10528000F07E027F7C7D027C0002D6E3E49001DDAB
:10529000801CE4900191F0A3F0900188F0A3F090BD
:1052A00001C7F0A3F09001DDF0A3F09001D8F0A3C6
:1052B000F022200003025D0CE4FF900573F09000E3
:1052C00001E02403FDE433FC900573E0FEC39DEC94
:1052D0006480F8748098501574002EF582E43400D0
:1052E000F583E02FFF900573E004F080D1EF6003B9
:1052F000025D0A900000E064146003025D05900006
:1053000002E0FFB4520FA3E0B4530AA3E0B4540583
:1053100075A6FE80FEEF12692A535302537B045395
:105320009E05536F0653C10853E90954280A544E89
:105330001055021155B51255C21355D31455F6B078
:1053400055FBB1560FB25696B35A44B45A67B500DE
:10535000005D05D22A900003E0FFA3E0900394CF04
:10536000F0A3EFF0900005E090039FF0025D059040
:10537000043EE51DF012CA8A025D05900003E06458
:10538000436003025D05A3E064416003025D05A381
:10539000E0644C6003025D0512D29D025D05900041
:1053A00003E064436003025D05A3E064416003021F
:1053B0005D05A3E0644C6003025D0512D303025D4A
:1053C00005900004E0B44312A3E0B4410DA3E0B49F
:1053D0004C08900003E0900391F07C037D917B01E9
:1053E0007A007FF37E010255AF900003E0645560C0
:1053F00003025D05A3E064486003025D05A3E06469
:10540000526003025D05A3E0FFA3E09005CFCFF05B
:10541000A3EFF0900008E0FFA3E09005CDCFF0A34C
:10542000EFF012C7AF025D05900003E06453600324
:10543000025D05A3E064456003025D05A3E06454DA
:105440006003025D05A3E0900187F0025D05D21CB8
:105450009002297409F0A37460F09005CDE0FEA3DA
:10546000E0FF900574EEF0A3EFF0900003E0FDA3E1
:10547000E09005CDCDF0A3EDF09005CFE0FDA3E0E9
:10548000900576CDF0A3EDF0900005E0FDA3E0904F
:1054900005CFCDF0A3EDF0D3EF9402EE940040469B
:1054A0009005CDE0FEA3E0FBAA06900574E0FEA304
:1054B000E0FFEF9BFFEE9AFEE49400FDE49400FC15
:1054C00012D891E47B02FAF9F8C312684A401490AA
:1054D00005CFE0FEA3E0FF900576E06E7003A3E049
:1054E0006F600312C7AF900007E0FFA3E09001E7F1
:1054F000CFF0A3EFF0900009E0900392F0D22F02DA
:105500005D05900003E064536003025D05A3E06461
:10551000456003025D05A3E064546003025D05A3DA
:10552000E0FFA3E0900394CFF0A3EFF0900008E039
:10553000FF90039FF0900289E0900578F09002526E
:10554000E0900579F090025DE090057AF090028C91
:10555000E090057BF07E00900395E02445FD9003EC
:1055600094E03402A805FC7D017B017A00790912E0
:105570006605900578E0900289F0900579E0900248
:1055800052F090057AE090025DF090057BE0900289
:105590008CF0900394E0FCA3E0FD240AFFE43CFEC1
:1055A000ED2445FDEC3402FC90039FE0FB7A0012F1
:1055B000CE87025D05900003E0900396F0D22D02A5
:1055C0005D05D21C9002297409F0A37460F0D22CFE
:1055D000025D05900003E064536003025D05A3E0F3
:1055E00064456003025D05A3E064546003025D0549
:1055F00012D3CC025D05D226025D05900003E0FFC8
:10560000A3E0900398CFF0A3EFF0D229025D0590BC
:105610000003E0FEA3E0FF900398EEF0FAA3EFF0A2
:10562000FB900005E0FFE4FCFDFE90039A1268DEAB
:10563000E490039EF0EB64024A701F90039AE0FC32
:10564000A3E0FDA3E0FEA3E0FFEC4D4E4F6042E47B
:10565000900252F07E027F528029900398E07004FD
:10566000A3E06403702590039AE0FCA3E0FDA3E0AF
:10567000FEA3E0FFEC4D4E4F6017E490037AF07EFE
:10568000037F7A7D01FC12D6E3800690039E74FEB0
:10569000F0D224025D05900003E0FEA3E0FF90033A
:1056A00098EEF0FAA3EFF0FB900005E0FCA3E0FD1C
:1056B000A3E0FEA3E0FF90039A1268DEE490039E4D
:1056C000F0D3907C0404939BE4939A5003025A39DC
:1056D000900398E0FEA3E0FF90792775F00B126924
:1056E0001EEE75F00BA42583F583E4937003025A34
:1056F0003190792675F00BEF12691EEE75F00BA450
:105700002583F583E493B40A004003025A29905795
:1057100015F8282873025929025A29025A290257D2
:1057200033025844025A2902573302573302592987
:10573000025844900398E0FEA3E0FF90792375F0AF
:105740000B12691EEE75F00BA42583F5837401938B
:10575000FA740293F5828A83E0FD90039DE0FC6D6C
:105760007003025A3F90792775F00BEF12691EEE15
:1057700075F00BA42583F583E493FFEC8FF084E5AB
:10578000F0600302598C90039DE0FF7E0090039827
:10579000E0FCA3E0FD90792A75F00B12691EEC7510
:1057A000F00BA42583F583C37401939F7480F8E400
:1057B0009364809850030259EA90792875F00BEDB4
:1057C00012691EEC75F00BA42583F583D374019345
:1057D0009FE49364809840030259EA900398E07034
:1057E00004A3E064397027900187F07F03FEFDFC7D
:1057F00090039AE0F8A3E0F9A3E0FAA3E0FBC31258
:105800006860700A90019C1268EA00008CA0900306
:105810009DE0FF900398E0FCA3E090792375F00BE6
:1058200012691EEC75F00BA42583F583E4740193D3
:10583000FA740293F9F5828A83EFF0AE02AF017D2C
:1058400001025A22900398E0FEA3E090792375F0BC
:105850000B12691EEE75F00BA42583F5837401937A
:10586000FA740293F5828A83E0FCA3E0FD90039C26
:10587000E0FEA3E0FFED6F7002EC6E7003025A3F92
:10588000900398E0FCA3E090792775F00B12691E55
:10589000EC75F00BA42583F583E493FD3395E0FCD0
:1058A000126668ED4C600302598C90039CE0FEA3E5
:1058B000E0FF900398E0FCA3E0FD90792A75F00BDF
:1058C00012691EEC75F00BA42583F583C374019354
:1058D0009FE4939E401D90792875F00BED12691E90
:1058E000EC75F00BA42583F583D37401939FE493A7
:1058F0009E40030259EA900398E0FCA3E0907923CC
:1059000075F00B12691EEC75F00BA42583F58374FA
:105910000193FA740293F9F5828A83EEF0A3EFF013
:10592000AE02AF017D02025A22900398E0FEA3E08E
:1059300090792375F00B12691EEE75F00BA4258388
:10594000F583740193FA740293F5828A83E0FCA3D1
:10595000E0FD90039CE0FEA3E0FFED6F7002EC6EB3
:105960007003025A3F900398E0FCA3E090792775FA
:10597000F00B12691EEC75F00BA42583F583E493FC
:10598000FD3395E0FC1266BDED4C600990039E74FA
:10599000FCF0025A3F90039CE0FEA3E0FF900398C6
:1059A000E0FCA3E0FD90792A75F00B12691EEC75FE
:1059B000F00BA42583F583C37401939FEE6480F8F4
:1059C000E493648098402390792875F00BED126978
:1059D0001EEC75F00BA42583F583D37401939FEE21
:1059E0006480F8E493648098400890039E74FDF00E
:1059F000804D900398E0FCA3E090792375F00B12A2
:105A0000691EEC75F00BA42583F583740193FA7479
:105A10000293F9F5828A83EEF0A3EFF0AE02AF01B4
:105A20007D027C0012D6E3801690039E74FAF0800B
:105A30000E90039E74FBF0800690039E74FEF0D2DD
:105A400025025D05900003E0FFA3E0900398CFF0EE
:105A5000A3EFF0900005E0FFE4FCFDFE90039A1236
:105A600068DED22B025D05900003E0FFA3E0900307
:105A700098CFF0A3EFF0900005E0FFE4FCFDFE906E
:105A8000039A1268DEE490039EF0900398E0FEA370
:105A9000E0FF90792675F00B12691EEE75F00BA4ED
:105AA0002583F583E493640A6003025CFD90039A06
:105AB000E0F8A3E0F9A3E0FAA3E0FBE8494A4B7061
:105AC00008900001E06444602290039AE0F8A3E0AB
:105AD000F9A3E0FAA3E0FBE8494A4B7003025CF546
:105AE000900001E064346003025CF590792375F066
:105AF0000BEF12691EEE75F00BA42583F58374017C
:105B000093FA740293FF90057EEAF0A3EFF09005FC
:105B1000737406F090039AE0FCA3E0FDA3E0FEA3FB
:105B2000E0FFEC4D4E4F7F0060027F0490057DEF5B
:105B3000F090039AE0FCA3E0FDA3E0FEA3E0FFECFD
:105B40004D4E4F7F0460027F0790057DE0C39F505C
:105B500062E490057CF0900573E0FF2400F582E498
:105B60003400F583E0D39460502174012FF582E472
:105B70003400F583E0FFD394035010EFB402149087
:105B80000398E07004A3E06418700890039E74FD0D
:105B9000F08011900573E02402F090057CE004F0A1
:105BA000E0B408B290039EE0700990057DE004F037
:105BB000025B3190039EE06003025D039005737405
:105BC00006F090039AE0FCA3E0FDA3E0FEA3E0FF53
:105BD000EC4D4E4F7F0060027F0490057DEFF0900A
:105BE000039AE0FCA3E0FDA3E0FEA3E0FFEC4D4E32
:105BF0004F7F0460027F0790057DE0C39F40030252
:105C00005CA1E490057CF090057CE0F9C36480948D
:105C1000884003025C98900573E0FF04F074002F45
:105C2000F582E43400F583E0FFE9FD3395E0FC9074
:105C3000057EE0FAA3E0FBF5828A83C083C08290F0
:105C4000057DE0FED082D08375F00812691EE582E2
:105C50002DF582E5833CF583EFF0900573E0FF04BA
:105C6000F074002FF582E43400F583E0FFE9FD33A2
:105C700095E0FCEB2438F582E43AF58375F008EE04
:105C800012691EE5822DF582E5833CF583EFF090E5
:105C9000057CE004F0025C0790057DE004F0025B07
:105CA000DF90039AE0FCA3E0FDA3E0FEA3E0FFEC9D
:105CB0004D4E4F7E0060047F0480027F00EF78032A
:105CC000C333CE33CED8F9FF90057FE02FFF900588
:105CD0007EE03EFE90039AE0F8A3E0F9A3E0FAA389
:105CE000E0FBE8494A4B7C0060047D3080027D4047
:105CF00012D6E3800E90039E74FFF0800690039E00
:105D000074FAF0D227E4900397F0C200900397E072
:105D10006006302E0314F022302622C2269003A102
:105D20007414F0A374B0F07F003012027F0290016F
:105D300087E07E0060027E01EE4F025DE7202903CE
:105D4000025DD4C229E490039EF09003A17414F084
:105D5000A374B1F090039EE0FDC39440503F907C4B
:105D600004E493FE740193FFC3900399E09F9003B2
:105D700098E09E5028E475F001126709AFF0FE74B8
:105D8000A42DF9E43403FA7B0112B72D90057CEFC2
:105D9000F0E0FF600890039EE02FF080B7907C0455
:105DA000E493FE740193FFC3900399E09F900398DE
:105DB000E09E500690057CE07007E49003A3F0801D
:105DC000069003A37401F07C037DA190039EE02460
:105DD00003FB803C30241CC2249003A17414F0A364
:105DE00074B2F090039EE09003A3F07C037DA17B4E
:105DF00003801D30251FC2259003A17414F0A374E5
:105E0000B3F090039EE09003A3F07C037DA17B039D
:105E10007FFA0260A5202B03025FAFC22B9003A183
:105E20007414F0A374B4F0E4A3F0907C0493FE74B3
:105E30000193FF900398E0FCA3E0FDC39FEC9E401C
:105E400003025F7E90792675F00BED12691EEC75EA
:105E5000F00BA42583F583E493640A6003025F7664
:105E6000900398E0FEA3E090792375F00B12691E71
:105E7000EE75F00BA42583F583740193FA740293F5
:105E8000FF90057EEAF0A3EFF09005737403F090A5
:105E9000039AE0FCA3E0FDA3E0FEA3E0FFEC4D4E7F
:105EA0004F7F0060027F0490057DEFF090039AE041
:105EB000FCA3E0FDA3E0FEA3E0FFEC4D4E4F7F040A
:105EC00060027F0790057DE0C39F4003025F84E48A
:105ED00090057CF090057CE0FFFD3395E0FC90059B
:105EE0007EE0FAA3E0F5828A83C083C08290057DBC
:105EF000E0D082D08375F00812691EE5822DF5820C
:105F0000E5833CF583E0FE900573E0FD04F074A1A9
:105F10002DF582E43403F583EEF0EF3395E0FE9047
:105F2000057EE0FCA3E02438F582E43CF583C083E1
:105F3000C08290057DE0D082D08375F00812691E82
:105F4000E5822FF582E5833EF583E0FF900573E05F
:105F5000FE04F074A12EF582E43403F583EFF09093
:105F6000057CE004F0E064086003025ED490057DE7
:105F7000E004F0025EAC9003A374FAF08006900394
:105F8000A374FEF07C037DA19003A3E060047B0377
:105F9000801890039AE0F8A3E0F9A3E0FAA3E0FBED
:105FA000E8494A4B7B4360027B337FFA12D36D3062
:105FB000271BC2279003A17414F0A374B5F09003BB
:105FC0009EE09003A3F07B037FFA12D369302A3E50
:105FD000C22A9003A17414F0A37402F090039FE00E
:105FE000FF7E00900395E02445FD900394E0340289
:105FF000FAA9057B0178A37C037D011266057C0369
:106000007DA190039FE02402FB7FFD0260A5302F5D
:106010003CC22F9003A17410F0900252E09003A2B2
:10602000F090025DE09003A3F0900232E0FFA3E065
:106030009003A4CFF0A3EFF0A37401F0A37403F0D6
:10604000A314F07C037DA17B087F148058302D5869
:10605000C22D9003A17414F0A37412F0900396E083
:10606000FF601E7E007C007D64126656EF2490FD6A
:10607000EE3401FC7E037FA37B377A0012CCEC80E8
:106080001612AFD878A37C037D017B017A0179EFEA
:106090007E007F371266059003A37447F07C037D72
:1060A000A17B397FFD02D36D302C04C22C8040309F
:1060B0002E40900393E004F0E0C394284025E4F0E0
:1060C0009003A174AAF0A37414F0A37401F0A37454
:1060D00003F0A314F07B057FFD12D369900397743E
:1060E00003F022900393E075F01484E5F07003123E
:1060F000AC65220264A8E86480F8E933E8336011F3
:106100000460F0ED33EC337009E8FCE9FDEAFEEBE6
:10611000FF220460DED3EB9FEA9EE99DE8C2E78C94
:10612000F0C2F795F0400CE8CCF8E9CDF9EACEFAE8
:10613000EBCFFB12647385D0F05804700320D5B305
:10614000E80470075002B2D50264B292D5EC046044
:10615000F7E4CCC0E0C398F8603B94186008400DA9
:10616000D0E0FB02648AE4FBFAC9FC8028E830E452
:1061700006E4C9FBE4CAFCE830E305E4C9CACBFC89
:10618000E854076010F8C3E913F9EA13FAEB13FBBC
:10619000EC13FCD8F130F52FC3E49CFCEF9BFFEE31
:1061A0009AFEED99FDD0E0FBEF4E4D4C701222DBD4
:1061B000030264AFEC2CFCEF33FFEE33FEED33FD56
:1061C000ED30E7EB02648AEF2BFFEE3AFEED39FD8E
:1061D000D0E0FB50130BBB00030264B2ED13FDEEE5
:1061E00013FEEF13FFEC13FC02648AEC4D6011E820
:1061F000497017ED33EC3304600DE4FCFFFEFD2223
:10620000E933E8330470F80264A812647358046038
:1062100009E4CC248150062850090264B2284003C6
:106220000264AFC0E0EB4A7044B98006D0E0FB02E4
:10623000649EEF4E701CBD8008EBFFEAFEE9FD8016
:10624000EBE98DF0A4FEE5F00262D4E9CDF9EAFEB7
:10625000EBFFEF89F0A4FCE5F0CE89F0A42EFFE47B
:1062600035F0CD89F0A42DFEE435F08067EF4E7057
:1062700005BD80D780C3EF8BF0A4ACF0EE8BF0A40B
:106280002CFCE435F0F8EF8AF0A42CE5F038FCE4BF
:1062900033CB8DF0A42CFCE5F03BF8EE8AF0A42C77
:1062A000FCE5F038F8E433CF89F0A42CFCE5F038B5
:1062B000CF3400CE89F0A42FFFE5F03EFEE433C9D1
:1062C0008DF0A42EFEE5F039CD8AF0A42FFFE5F085
:1062D0003EFEE43DFD33D0E0FB50070BBB000F0258
:1062E00064B2EC2CFCEF33FFEE33FEED33FD0264C1
:1062F0008A0264B2EC5D046005E85904700302642C
:10630000A8126473580460F6EC4860F2EC7004FD67
:10631000FEFF22C860DB2481C85009C39860025088
:10632000060264AF9850CAF582E9294B4A7005AB62
:106330008202649E75F0007C1A7880C3EF9BEE9A0F
:10634000ED99400DC3EF9BFFEE9AFEED99FDE842FB
:10635000F0DC23ACF0D0E0FFD0E0FED0E0FDAB827B
:1063600020E7101BEB60BAEC2CFCEF33FFEE33FEA2
:10637000ED33FD02648AE803F830E705C0F075F0FC
:1063800000EF2FFFEE33FEED33FD40B830E7C28063
:10639000AA74F8CC6480CCC86480C8F582046043D9
:1063A000C3EB9FF5F0EA9E42F0E99D42F0E89C4580
:1063B000F060305018E5825FFFE582F42B5582FBD8
:1063C00050210ABA001D09B90019088016E5825B40
:1063D000FBE582F42F5582FF50090EBE00050DBD6E
:1063E00000010CC3EB9FF5F0EA9E42F0E99D42F0FC
:1063F000E89C45F06007CC4820E701B3EC2275F03B
:1064000020800E75F010800575F0087D007E007FFD
:10641000003392D530D50312683CEC334010EF3393
:10642000FFEE33FEED33FDEC33FCD5F0ED22E5F06D
:10643000247EA2D513CC92E7CDCEFF22EDD2E7CDBC
:1064400033EC3392D524814006E4FFFEFDFC22FCB0
:10645000E4CFCECDCC24E0501174FF80EDC3CC133B
:10646000CCCD13CDCE13CECF13CF0470F030D5DE0C
:1064700002683CE9D2E7C933E833F892D5EDD2E7B8
:10648000CD33EC33FC5002B2D522EC30E7100FBF15
:10649000000C0EBE00080DBD00040BEB6014A2D56D
:1064A000EB13FCED92E7FD2274FFFCFDFEFF22E4FE
:1064B00080F8A2D574FF13FC7D80E480EFED33EC0F
:1064C00033601004700FED547F7005740292E02267
:1064D0007404220422E422ED33EC33600A047003D6
:1064E000BD8004ECB2E7FC22C0E0EFFBEEFAEDF970
:1064F000ECF81261EBD0E0F5F0EFFBEEFAEDF9EC21
:10650000F812687DA3A3A3A3E8C0E0E9C0E0EAC055
:10651000E0EBC0E0C0F01261EB126899A3A3A3A363
:106520001260FAD0F0D0E0FBD0E0FAD0E0F9D0E091
:10653000F8D5F0D422E709F608DFFA8046E709F239
:1065400008DFFA803E88828C83E709F0A3DFFA80B7
:1065500032E309F608DFFA8078E309F208DFFA800F
:106560007088828C83E309F0A3DFFA806489828AD1
:1065700083E0A3F608DFFA805889828A83E0A3F2D9
:1065800008DFFA804C80D280FA80C680D48069808F
:10659000F28033801080A680EA809A80A880DA801A
:1065A000E280CA803389828A83ECFAE493A3C8C567
:1065B00082C8CCC583CCF0A3C8C582C8CCC583CC67
:1065C000DFE9DEE7800D89828A83E493A3F608DFA2
:1065D000F9ECFAA9F0EDFB2289828A83ECFAE0A3B8
:1065E000C8C582C8CCC583CCF0A3C8C582C8CCC5F9
:1065F00083CCDFEADEE880DB89828A83E493A3F23E
:1066000008DFF980CC88F0EF60010E4E60C388F09F
:10661000ED2402B4040050B9F582EB2402B4040066
:1066200050AF232345822390658573BB0106898281
:106630008A83E0225002E722BBFE02E32289828A9B
:1066400083E49322BB010689828A83F0225002F7F9
:1066500022BBFE01F322EF8DF0A4A8F0CF8CF0A4B2
:1066600028CE8DF0A42EFE22BC000BBE0029EF8D9B
:10667000F084FFADF022E4CCF875F008EF2FFFEEC8
:1066800033FEEC33FCEE9DEC984005FCEE9DFE0FD6
:10669000D5F0E9E4CEFD22EDF8F5F0EE8420D21C31
:1066A000FEADF075F008EF2FFFED33FD4007985079
:1066B00006D5F0F222C398FD0FD5F0EA22C2D5EC40
:1066C00030E709B2D5E4C39DFDE49CFCEE30E7154C
:1066D000B2D5E4C39FFFE49EFE126668C3E49DFD4D
:1066E000E49CFC800312666830D507C3E49FFFE496
:1066F0009EFE22C5F0F8A3E028F0C5F0F8E582156B
:106700008270021583E038F022A3F8E0C5F025F08E
:10671000F0E582158270021583E0C838F0E822E8BF
:106720008FF0A4CC8BF0A42CFCE98EF0A42CFC8A76
:10673000F0EDA42CFCEA8EF0A4CDA8F08BF0A42DF3
:10674000CC3825F0FDE98FF0A42CCD35F0FCEB8E94
:10675000F0A4FEA9F0EB8FF0A4CFC5F02ECD39FE4A
:10676000E43CFCEAA42DCE35F0FDE43CFC2275F0BF
:1067700008758200EF2FFFEE33FECD33CDCC33CC46
:10678000C58233C5829BED9AEC99E58298400CF561
:1067900082EE9BFEED9AFDEC99FC0FD5F0D6E4CE8F
:1067A000FBE4CDFAE4CCF9A88222B800C1B90059C3
:1067B000BA002DEC8BF084CFCECDFCE5F0CBF97890
:1067C00018EF2FFFEE33FEED33FDEC33FCEB33FB24
:1067D00010D703994004EB99FB0FD8E5E4F9FA22AE
:1067E0007818EF2FFFEE33FEED33FDEC33FCC933A9
:1067F000C910D7059BE99A4007EC9BFCE99AF90F71
:10680000D8E0E4C9FAE4CCFB2275F010EF2FFFEEDC
:1068100033FEED33FDCC33CCC833C810D7079BEC27
:106820009AE899400AED9BFDEC9AFCE899F80FD59F
:10683000F0DAE4CDFBE4CCFAE4C8F922C3E49FFF2C
:10684000E49EFEE49DFDE49CFC22EB9FF5F0EA9EB5
:1068500042F0E99D42F0EC6480C864809845F022E3
:10686000EB9FF5F0EA9E42F0E99D42F0E89C45F08E
:1068700022E0FCA3E0FDA3E0FEA3E0FF22E493FC02
:10688000740193FD740293FE740393FF22E0F8A356
:10689000E0F9A3E0FAA3E0FB22E493F8740193F992
:1068A000740293FA740393FB227401FF3395E0FEA4
:1068B000FDFCA3A3A3E02FFFF0E582158270021573
:1068C00083E03EFEF0E582158270021583E03DFD17
:1068D000F0E582158270021583E03CFCF022ECF0BA
:1068E000A3EDF0A3EEF0A3EFF022A8828583F0D011
:1068F00083D082126904126904126904126904C007
:1069000082C08322E493A3C583C5F0C583C8C58232
:10691000C8F0A3C583C5F0C583C8C582C822A42515
:1069200082F582E5F03583F58322D083D082F8E4C6
:10693000937012740193700DA3A393F8740193C024
:10694000E0E8C0E0227402936860EFA3A3A380DFB5
:1069500090019AE4F0A37464F0900245E0FFB40162
:106960000AE4F529F52AF54BF54C22EF64026004A0
:10697000EFB40329900280E0FEA3E0FBAA06E4F94D
:10698000F8900187E0FFE4FCFDFE12671FE47B64E2
:10699000FAF9F81267AA8E298F2A026A4D9001AF80
:1069A000E0B4012BAB3AAA39A938A837AF68AE6773
:1069B000AD66AC651260F67B717A3D79AA783F12BC
:1069C00061EBAB68AA67A966A8651260FA8008AF98
:1069D00068AE67AD66AC659005731268DEE4FFFED5
:1069E000FDFC900573E0F8A3E0F9A3E0FAA3E0FB57
:1069F000126391500A9005731268EA00000000E4E7
:106A0000FFFE7D487C42900573E0F8A3E0F9A3E027
:106A1000FAA3E0FB126391600C400A9005731268C0
:106A2000EA42C80000E4FFFE7D207C41900573E04F
:106A3000F8A3E0F9A3E0FAA3E0FB1261EB12643CD7
:106A40008E298F2A20090690028BE0700785294B3A
:106A5000852A4C22E52A45297017F54BF54C900301
:106A60007BE0700302713E14F0600302713E02711C
:106A70003A90037B740AF0AE45AF46E4FCFD7B031D
:106A8000FAF9F812671FE47B64FAF9F81267AAC3EF
:106A9000E5469FFDE5459EFCC3E52A9DE5299C4012
:106AA0003EE5462FFFE5453EFED3E52A9FE5299EBC
:106AB000502DE52A9546E5299545AE29AF2A500780
:106AC000E4FCFD7B618005E4FCFD7B67FAF9F812CC
:106AD000671FE47B64FAF9F81267AA8E298F2AAF40
:106AE0006CAE6BAD6AAC69AB36AA35A934A833126B
:106AF00063916040403E90025CE0FFE4FCFDFE7B61
:106B000014FAF9F812671FA804A905AA06AB0790A2
:106B10000234E0FEA3E0FFE4FCFDC312684A402615
:106B2000900198E0FEA3E0FF9005BCE09F9005BBBC
:106B3000E09E5012900280E0FEA3E08E4BF54C8E5A
:106B400029F52A02710DAC29AD2AE4126403E4FB95
:106B5000FA792078411262F48F3E8E3D8D3C8C3B59
:106B6000AB3EAA3DA93CA83BAF3AAE39AD38AC37F5
:106B70001262F49005731268DEE4FFFEFD7C40AB08
:106B80003EAA3DA93CA83B1261EBAB3AAA39A93811
:106B9000A8371261EBC004C005C006C007AF3AAE0B
:106BA00039AD38AC37AB3EAA3DA93CA83B1260FAE0
:106BB000A804A905AA06AB07D007D006D005D004C3
:106BC0001262F49005771268DE900249E0FFC37408
:106BD000649FFDE49400FCE4126403E4FBFA79C8CA
:106BE00078421262F490058F1268DE900577E0FC1F
:106BF000A3E0FDA3E0FEA3E0FF12B46290057712CC
:106C000068DE900577E0FCA3E0FDA3E0FEA3E0FFD3
:106C1000AB4AAA49A948A8471261EB9005771268C8
:106C2000DEAF3AAE39AD38AC37AB3EAA3DA93CA891
:106C30003B1261EBC004C005C006C007AB3AAA39DD
:106C4000A938A837AF3EAE3DAD3CAC3B1260F6D0A4
:106C500003D002D001D0001262F4900577E0F8A3CF
:106C6000E0F9A3E0FAA3E0FB1261EB12CB6B900515
:106C7000771268DEAB3EAA3DA93CA83BAF4AAE49BD
:106C8000AD48AC471262F4AB3EAA3DA93CA83B120A
:106C900062F490057B1268DEE4FFFEFD7C40AB3EB3
:106CA000AA3DA93CA83B1261EBAB3AAA39A938A886
:106CB000371261EBC004C005C006C007AF3AAE3959
:106CC000AD38AC37AB3EAA3DA93CA83B1260FAA850
:106CD00004A905AA06AB07D007D006D005D0041238
:106CE00062F4C004C005C006C007900249E0FFC3BB
:106CF00074649FFDE49400FCE4126403E4FBFA79FD
:106D0000C878421262F490058F1268DED007D00670
:106D1000D005D00412B46290057BE0F8A3E0F9A39B
:106D2000E0FAA3E0FB1261EB90057B1268DEAF3A5C
:106D3000AE39AD38AC37AB3EAA3DA93CA83B12609A
:106D4000FAC004C005C006C007AB3AAA39A938A8E2
:106D500037AF3EAE3DAD3CAC3B1260F6D003D00247
:106D6000D001D0001262F4C004C005C006C0079074
:106D70000249E0FCE4126408E4FBFA79C8784212A4
:106D800062F4E4FBFA798078BF1260FAD003D00293
:106D9000D001D0001261EBA804A905AA06AB07E454
:106DA000FFFE7D807C3F1260F690057BE0F8A3E05B
:106DB000F9A3E0FAA3E0FB1261EB90057B1268DE19
:106DC000900573E0FCA3E0FDA3E0FEA3E0FFAB327F
:106DD000AA31A930A82F1261EBAB3EAA3DA93CA86D
:106DE0003B1262F4C004C005C006C00790057BE0FA
:106DF000FCA3E0FDA3E0FEA3E0FFAB36AA35A93477
:106E0000A8331261EB900577E0F8A3E0F9A3E0FA6C
:106E1000A3E0FB1261EBD003D002D001D0001260DE
:106E2000FAC004C005C006C007900573E0F8A3E0EF
:106E3000F9A3E0FAA3E0FBA3E0FCA3E0FDA3E0FEDE
:106E4000A3E0FF1260F6D003D002D001D00012619F
:106E5000EB9005831268DE900583E0FCA3E0FDA3C0
:106E6000E0FEA3E0FFC004C005C006C007900573A4
:106E7000E0F8A3E0F9A3E0FAA3E0FBE4FFFE7D80E5
:106E80007C3F1260F6AB32AA31A930A82F1261EB19
:106E9000C004C005C006C007E4FFFE7D807CBF9033
:106EA0000577E0F8A3E0F9A3E0FAA3E0FB1260FAAB
:106EB000AB36AA35A934A8331261EBD003D002D087
:106EC00001D0001260FAC004C005C006C007AB3E86
:106ED000AA3DA93CA83B900573E0FCA3E0FDA3E01C
:106EE000FEA3E0FF1262F4C004C005C006C0079014
:106EF0000577E0FCA3E0FDA3E0FEA3E0FFA3E0F83C
:106F0000A3E0F9A3E0FAA3E0FB1261EBD003D00207
:106F1000D001D0001260FAD003D002D001D000120C
:106F200061EBA804A905AA06AB07D007D006D005D7
:106F3000D0041260F69005831268DEAB42AA41A924
:106F400040A83FAF6CAE6BAD6AAC691260F69005BD
:106F50007F1268DEAB3EAA3DA93CA83BAF3AAE39F2
:106F6000AD38AC371262F4A804A905AA06AB0790A5
:106F70000577E0FCA3E0FDA3E0FEA3E0FF1260F6CE
:106F800090057FE0F8A3E0F9A3E0FAA3E0FB12612B
:106F9000EBC004C005C006C007AB3EAA3DA93CA893
:106FA0003BAF3AAE39AD38AC371262F4A804A9054C
:106FB000AA06AB07900577E0FCA3E0FDA3E0FEA3E3
:106FC000E0FF1260F6D003D002D001D0001261EBD6
:106FD00090057F1268DE90057FE0FCA3E0FDA3E052
:106FE000FEA3E0FFA3E0F8A3E0F9A3E0FAA3E0FB2F
:106FF0001262F490057F1268DEE4FFFE7D207C4182
:1070000090057FE0F8A3E0F9A3E0FAA3E0FB1261AA
:10701000EBC004C005C006C007AC29AD2AE4126469
:1070200003D003D002D001D0001260FA90057F1285
:1070300068DEE4FFFEFDFC90057FE0F8A3E0F9A325
:10704000E0FAA3E0FB126391500A90057F1268EA10
:1070500000000000900281E02405FD900280E034F1
:1070600000FCE412640390057FE0F8A3E0F9A3E0DC
:10707000FAA3E0FB126391601A4018900281E024A9
:1070800005FD900280E03400FCE412640390057F6B
:107090001268DE7FCD7ECC7D4C7C3D90057FE0F894
:1070A000A3E0F9A3E0FAA3E0FB1260FA12643C8EBD
:1070B0004B8F4C7C007D64126656E4FDC006C00711
:1070C000AE29AF2AAB07AA06F9F8D007D00612D826
:1070D0000B9005871268DEE47FE87E03FDFC9005D7
:1070E00087E0F8A3E0F9A3E0FAA3E0FBD31268601D
:1070F000400C90019A7403F0A374E8F0800F90059F
:1071000089E0FFA3E090019ACFF0A3EFF09001EDAA
:10711000E0FEA3E0FFE4FCFD7BE87AFDF9F8D31282
:10712000684A400E9001EEE0254CF09001EDE0350C
:107130004BF090028BE0B40105E49001A0F02290A6
:1071400005C7E0600314F0229005A2E090FD0E93C5
:107150004420F597000043970200E59730E0FBE5F7
:10716000965403FF900573E4F0A3EFF0E0FEAD95B5
:107170007C00E42DFFEC3E900573F0A3EFF090054A
:10718000A2E0FFC394024003027223EF25E024A390
:10719000F582E43405F583E0FEA3E0FFE4FD7B0F18
:1071A000FAF9F812671FE47B10FAF9F81267AA904F
:1071B0000574E02FFF900573E03EFE9005A2E0FD10
:1071C00025E024A3F582E43405F583EEF0A3EFF087
:1071D00030422FED25E024A3F582E43405F583C089
:1071E00083C082A3E0C4F8540FC868FF0582D5822B
:1071F0000215831582E0C454F048D082D083F0A3F6
:10720000EFF0ED25E024A3F582E43405F583E0FEFC
:10721000A3E07802CEC313CE13D8F9FF900573EE26
:107220000272C69005A2E025E024A3F582E43405AD
:10723000F583E0FEA3E0FFE4FCFD7B03FAF9F8121E
:10724000671FE47B04FAF9F81267AA900574E02F2F
:10725000FF900573E03EFE9005A2E0FD25E024A32B
:10726000F582E43405F583EEF0A3EFF0304227ED2C
:1072700025E024A3F582E43405F583C083C082E0D1
:10728000FEA3E07802C333CE33CED8F9FFD082D04C
:1072900083EEF0A3EFF0EDB40318900573E0FEA3C6
:1072A000E07802C333CE33CED8F9F0EE900573F018
:1072B0008018ED25E024A3F582E43405F583E0FF92
:1072C000A3E0900573CFF0A3EFF09005A2E0FFC319
:1072D000940240030275CD900573E0FCA3E0FD9499
:1072E00071EC940F5009C3ED94ABEC9402500F7401
:1072F00001A807088002C333D8FC422180139005FF
:10730000A2E0FF7401A807088002C333D8FCF4523E
:107310002190FC8CE493FE740193FF900573E0FCD4
:10732000A3E0FDD39FEC9E40199005A2E025E02448
:10733000B3F582E43405F58374FEF0A374D4F0024F
:1073400074A490FD0CE493FE740193FFC3ED9FECD5
:107350009E50189005A2E025E024B3F582E43405A0
:10736000F5837407F0A304F00274A4E4900575F0AB
:10737000900575E0FFC3941F502CEF25E025E02415
:1073800090F582E434FCF583E493FE740193FF905E
:107390000573E0FCA3E0FDC3EF9DEE9C4008900563
:1073A00075E004F080CA900575E025E025E0248CA6
:1073B000F582E434FCF583E493FE740193FF9005B9
:1073C00073E0FCA3E0FDC3EF9DFFEE9CAB07FAE486
:1073D000F9F8A3E0FF25E025E0248AF582E434FCF7
:1073E000F583E493FC740193FDEF25E025E0248E02
:1073F000F582E434FCF583C37401939DFFE4939C10
:10740000FE3395E0FDFC12671F9005761268DE9052
:107410000576E0FCA3E0FDA3E0FEA3E0FFC004C00E
:1074200005C006C007900575E0FF25E025E0249023
:10743000F582E434FCF583E493FC740193FDEF25BD
:10744000E025E0248CF582E434FCF583C3740193D9
:107450009DFFE4939CAB07FA3395E0F9F8D007D091
:1074600006D005D00412D80B9005761268DE900580
:1074700078E0FEA3E0FF900575E025E025E0248A92
:10748000F582E434FCF5837401932FFFE4933EFE10
:107490009005A2E025E024AFF582E43405F583EE03
:1074A000F0A3EFF09005A2E0FF25E024C3F582E40D
:1074B0003405F583E0FCA3E0FDEF25E024AFF58281
:1074C000E43405F583E0FEA3E0C39DFFEE9CFE33AC
:1074D00095E0FDFC9005761268DE900576E0FCA351
:1074E000E0FDA3E0FEA3E0FFE47BE87A03F9F812F5
:1074F000671F9005761268DE900576E0FCA3E0FD3C
:10750000A3E0FEA3E0FFC004C005C006C0079005CD
:10751000A2E0FF25E024C3F582E43405F583E0FC16
:10752000A3E0FDEF25E024BFF582E43405F583E018
:10753000FEA3E0C39DFFEE9CAB07FA3395E0F9F89C
:10754000D007D006D005D00412D80B90057612686B
:10755000DE900578E0FEA3E0FF9005A2E0FD25E0C7
:1075600024B3F582E43405F583EEF0A3EFF0ED25C6
:10757000E024B3F582E43405F583E0FEA3E0D39480
:1075800008EE648094874012ED25E024B3F582E490
:107590003405F5837407F0A304F0ED25E024B3F57A
:1075A00082E43405F583E0FEA3E0C394D4EE648066
:1075B000947E4003027895ED25E024B3F582E4340F
:1075C00005F58374FEF0A374D4F0027895900573EA
:1075D000E0FEA3E0FFE4FCFD7BCC7A10F9F8126733
:1075E0001FE4FB7A10F9F81267AA9005761268DE9C
:1075F000E47FC8FEFDFC900576E0F8A3E0F9A3E087
:10760000FAA3E0FBC312684A403F9005A2E0B4022F
:1076100016E47F167E0DFDFC900576E0F8A3A3A38B
:10762000E0D312684A50229005A2E0B4042FE47F10
:10763000047E10FDFC900576E0F8A3E0F9A3E0FAE3
:10764000A3E0FBD312684A40149005A2E0FF740146
:10765000A807088002C333D8FC422180139005A2FA
:10766000E0FF7401A807088002C333D8FCF452215C
:107670009005A2E024FD700302772814600D1470B9
:10768000030277E824036003027895E47FF47E0127
:10769000FDFC900576E0F8A3E0F9A3E0FAA3E0FB97
:1076A000C312684A50139005A2E025E024B3F58286
:1076B000E43405F583E4027892900576E0FCA3E0DB
:1076C000FDA3E0FEA3E0240CFFEE34FEFEED34FF4C
:1076D000FDEC34FFFC9005761268DE900576E0FC48
:1076E000A3E0FDA3E0FEA3E0FFE47BE87A03F9F862
:1076F00012671F9005761268DEE47BB87A0BF9F802
:10770000900576E0FCA3E0FDA3E0FEA3E0FF12D825
:107710000B9005A2E025E024B3F582E43405F5835F
:10772000EEF0A3EFF0027895E47F5E7E01FDFC9021
:107730000576E0F8A3E0F9A3E0FAA3E0FBC3126842
:107740004A5007E49005B9027892900576E0FCA3D0
:10775000E0FDA3E0FEA3E024A2FFEE34FEFEED3444
:10776000FFFDEC34FFFC9005761268DE900284E0A9
:1077700075F002A42437F582E5F0347FF583E493B5
:10778000FE740193FFE4FCFD900576E0F8A3E0F9B8
:10779000A3E0FAA3E0FB12671F9005761268DE9063
:1077A0000576E0FCA3E0FDA3E0FEA3E0FFE47B4E52
:1077B0007A0CF9F812D80B9005761268DE900578ED
:1077C000E0FEA3E0FF9005B9EEF0A3EFF090025BBE
:1077D000E0FDC3EF9D7480F8EE648098400302786A
:1077E00095E49005B9027892E47F5E7E01FDFC90FD
:1077F0000576E0F8A3E0F9A3E0FAA3E0FBC3126882
:107800004A5007E49005BD027892900576E0FCA30B
:10781000E0FDA3E0FEA3E024A2FFEE34FEFEED3483
:10782000FFFDEC34FFFC9005761268DE900285E0E7
:1078300075F002A42437F582E5F0347FF583E493F4
:10784000FE740193FFE4FCFD900576E0F8A3E0F9F7
:10785000A3E0FAA3E0FB12671F9005761268DEE44E
:107860007B4E7A0CF9F8900576E0FCA3E0FDA3E0EE
:10787000FEA3E0FF12D80B9005BDEEF0A3EFF09051
:10788000025BE0FDC3EF9D7480F86E985007E490B2
:1078900005BDF0A3F09005A2E0B40502C242900538
:1078A000A2E004F0B40602E4F022202D2D2C2D00DD
:1078B0002020200020202020200020202020002028
:1078C00020202020202020202000202020202020D8
:1078D000002D2D002D2D2D0056312E33322020303D
:1078E000312E30372E31340020202020202020203F
:1078F0000000010301000002020100000205010076
:10790000010204010101020402010004050100005A
:10791000010301020001030101000203010201024F
:107920000501020105BB0500000000000000010583
:10793000B505000000000000000105B705000000CB
:10794000000000000105B905000000000000000172
:1079500005BD050000000000000001026C000A01E6
:107960002C032001F401026E000A012C03200258AE
:107970000102460301000A006400140102470401E9
:10798000006401F400C20102490601000A0063001C
:107990002501024A0601000A0063003301024B0779
:1079A0000100050032000A01024C03010001000A37
:1079B000000201024E0601000100C8003C01024D18
:1079C000060200040014000801024F060100010035
:1079D000C8000101025006010001000A0004010272
:1079E000510601000000640017000029080500008E
:1079F00003E8000000004B0805000003E800000158
:107A000001A60901000003E800000101AD09010021
:107A10000003E8000001018703010000006400008A
:107A20000102990A010000000000040103090A0193
:107A300000000000000401025D03010000000100DD
:107A40000001025E000A012C02BC01C201026100B9
:107A50000A0000012C006401026603010001001EFF
:107A6000000101026703010001000F00050102701F
:107A7000000A0190035202BC0102600301000000F1
:107A80001E0000010268000A006401F400C801023F
:107A90006A07010001000A00010102720903001EC9
:107AA000012C005A01025B0701000A0028000F01A7
:107AB0000274030100050032000A0102750301008F
:107AC000000064000A01027E0801000003E800C80B
:107AD0000102800801000003E800C80102820801D9
:107AE000000003E800C8010276000000000000006A
:107AF00000010278000000000000000001027B038A
:107B00000000000000000001027A030000000000F5
:107B1000000001027C08000000000000000101C517
:107B200008000000000000000102860601000100BC
:107B300064000A01019A0B0000000000000001012E
:107B4000D10B000000000000000101D10B0000007B
:107B500000000000010287070100000032000F0151
:107B60000288030100000064000501028B0301008C
:107B7000000002000201028C03010000000100016C
:107B80000102320000000000000000010253020068
:107B90000000000000000102450301000000030096
:107BA0000001026B030100000003000001037903E0
:107BB0000100000004000001028403010000000332
:107BC00000000102850301000000030000010257CC
:107BD000020000000000000001025203000000004B
:107BE00000000001037A0300000000000000010211
:107BF0006303010000000100000103810500000093
:107C0000000000000043001001000101000100021B
:107C100003010101000000060702034800000009FB
:107C20000A0203480001000405020348000200089C
:107C30000C0203450003002021020245001E002221
:107C40000B020345002E009A1002030800370023A0
:107C50009C010101000000242502024600020026CA
:107C600027020246000300282902064C0004063FB2
:107C7000400101010000062C100202400005063CF4
:107C80003D02044A0005063C3E02044A0006064B3B
:107C9000170201020000064D4E030A4A0006064F75
:107CA00010040700001706105004094900170610B9
:107CB000100408460017064B4C0201010000065153
:107CC00052030A4A00070842170101010000074158
:107CD000450201020000074D4E030A4A0008074F03
:107CE0001004070000180710500409490018071075
:107CF00010040846001807434C0201010000075118
:107D000052030A4A0009089710020245001F084260
:107D10005D02044A001A063417010101000006330F
:107D200010020200000A064410020200000B005973
:107D30005A010101000002685B020200000C0342CC
:107D40005C02024C0021015E6B02044B001B016CC3
:107D500096020449001C016E96020449001D006F42
:107D60007002044A001E002A2B0101010000002CB1
:107D700010020240000D002D2E02024B000E012FBA
:107D80003002024C000F00313202024C0010007B26
:107D90001002024C0011097B9B0302000012003A02
:107DA0003B02020000200067100202480019003563
:107DB00010020200001A00363701010100000038ED
:107DC0003F02024E001300391002064C00140092CC
:107DD0009302024C0015009F3F02024D001600A0C6
:107DE0001002064C0017040D520101010000047539
:107DF00018020446002304716D020449001F048A1E
:107E000018020245001C048B18020245001D047D67
:107E1000180203450027047E180203450028048544
:107E200018020345002E047C180203450026047F37
:107E3000800203480029047F81020348002A047F4E
:107E40008202034B002B047F8302034B002C047F30
:107E500084020345002D05161902044A0007051681
:107E60001A02044B000805161B02044B00090516F4
:107E70001C02044B000A05161D02044B000B0516DC
:107E80000E02044B000C051E1F020447000E05776E
:107E90007602044B002405787602044B0025051673
:107EA00086020448002F05161202044B000D051629
:107EB0001302044B000F05161402044B00100516A4
:107EC0001502044B001105721802044700200573C7
:107ED0001802044600210516740204470022051604
:107EE000900204470033051691020447003405163A
:107EF0009402044D003505169502054C0036050F19
:107F000010020345001405111002034500150588F1
:107F10001002034B0030058C8D0203460031058EA4
:107F20008F02034200320579180203450012057AD8
:107F30001802034500136600C8019003E80BB8EE71
:107F4000600302856FEF14B42100400302856F9037
:107F50007F5D75F003A4C58325F0C58373027FC0E0
:107F600002803402806102856F02818F0281A20249
:107F700081A20281A20281A20280D50280E902814F
:107F8000C402817C02822002825002827F0282AE81
:107F90000282FB02836C02856F0284230283C40287
:107FA000856F02856F02833902845802856F0284CF
:107FB000610284B00284FE02853A02856F02831753
:107FC000900252E060377D38E4FF12DAA57F881214
:107FD000DC1F900252E0FFD39409400AEF75F00ACB
:107FE000842430FF80027F2012DC29900252E07549
:107FF000F00A84E5F02430FF12DC29802AE4FDFF3A
:1080000012DAA5900245E014600E14600F1460109F
:10801000240370137D5F800A7D6080067D6180028D
:108020007D627F0912DAA57E027F2D7C797D057B3A
:108030004B02851FE47BA07A8CF9F8900253E0FC98
:10804000A3E0FDA3E0FEA3E0FF1267AA900579EE8E
:10805000F0A3EFF07E057F797C787DFB7B4702857E
:108060001F900253E0FCA3E0FDA3E0FEA3E0FFA30A
:10807000E0F8A3E0F9A3E0FAA3E0FBD312686040C4
:108080004090025DE064026038900253E0F8A3E0A3
:10809000F9A3E0FAA3E0FBA3E0FCA3E0FDA3E0FE6C
:1080A000A3E09BFFEE9AFEED99FDEC98FCE47BA02B
:1080B0007A8CF9F81267AA900579EEF0A3EFF080B8
:1080C00007E4900579F0A3F07E057F797C787DFB4D
:1080D0007B4702851F9005CDE0FEA3E0FF9005CC15
:1080E000E013923E7D4B02D0EB9005CFE0FEA3E083
:1080F000FF7D4812CDFF900379E075F002A4247E45
:10810000F582E5F034FCF583E493FF740193900568
:1081100077CFF0A3EFF0E024A6F0900577E03404E9
:10812000F07FC012DC1F900577E0FEA3E0F5828EA1
:1081300083C083C0829005CFE0FEA3E0FF12DC0184
:10814000D082D08375F002EF12691EE493FF12DC37
:1081500029900577E0FEA3E0F5828E83A3C083C05B
:10816000829005CFE0FEA3E0FF12DC01D082D08335
:1081700075F002EF12691EE49302821C3031077C15
:10818000787DCA02845C900245E0245FFD800E3059
:1081900031047D10800790026BE02447FD7F400290
:1081A0008336303103028426900451E0FEA3E0F5CB
:1081B000828E83740593FF900450E07D6660027D9B
:1081C00065028336900444E07002A3E060227D697A
:1081D000E4FF12DAA57D6A7F4012DAA590044474A8
:1081E000FFF5F01266F345F0600302856FD2372287
:1081F0007FCE12DC1F30310A7F2012DC297F200263
:1082000084209004C6E075F00A842430FF12DC2933
:108210009004C6E075F00A84E5F02430FF02842063
:10822000900245E0FF64036007EF64026002C23120
:1082300030310302833C7E017F877C787DF190049E
:1082400051E0FAA3E0F5828A83740593FB02851F4F
:10825000900245E0FF64036007EF64026002C231F0
:10826000303103028426900451E0FEA3E0F5828EB3
:1082700083740593FF7D643012027D630283369020
:108280000245E0FF64036007EF64026002C2313020
:108290003103028426900451E0FEA3E0F5828E8330
:1082A000740593FF7D643014027D6302833690046D
:1082B00044E07002A3E060227D98E4FF12DAA57D1D
:1082C000997F8012DAA590044474FFF5F01266F3EA
:1082D00045F0600302856FD23722303103028426D5
:1082E000900451E0FEA3E0F5828E83740593FF9025
:1082F0000450E07D6660027D65803B30320B7D98E6
:10830000E4FF12DAA57D9980097D7BE4FF12DAA5EE
:108310007D9B7F8002856C3031030284269004515E
:10832000E0FEA3E0F5828E83740593FF90025DE08A
:108330007D6660027D6502856C303116900451E0E7
:10834000FEA3E0F5828E83740593FF7C787DB002F6
:1083500085507E037F917C787DF1900451E0FAA3F3
:10836000E0F5828A83740593FB02851F900252E038
:108370007016900451E0FEA3E0F5828E837405939D
:10838000FF7C787DD1028550900451E0FEA3E0F59A
:10839000828E837405932480FF12DC1F900252E0CA
:1083A000FFD39409400AEF75F00A842430FF80025D
:1083B0007F2012DC29900252E075F00A84E5F02457
:1083C00030FF805C90037AE0FFC394644006EFD3F3
:1083D000946C4016900451E0FEA3E0F5828E837405
:1083E0000593FF7C787DD4028550900451E0FEA374
:1083F000E0F5828E837405932480FF12DC1F7F31A9
:1084000012DC2990037AE0249C75F00A842430FF62
:1084100012DC2990037AE075F00A84E5F02430FF3D
:1084200002DC29303116900451E0FEA3E0F5828E83
:1084300083740593FF7C787DBA028550900451E0E7
:10844000FEA3E0F5828E83740593FF90028AE07D9F
:108450006660027D6502856C7C787DD87F400285F0
:1084600050900284E025E02437F582E4347FF583E0
:10847000E493FF740193900579CFF0A3EFF03031CE
:1084800016900451E0FEA3E0F5828E83740593FFFD
:108490007C787DCA0285507E057F797C797D00904D
:1084A0000451E0FAA3E0F5828A83740593FB806FA0
:1084B000900285E025E02437F582E4347FF583E4FB
:1084C00093FF740193900579CFF0A3EFF03031154D
:1084D000900451E0FEA3E0F5828E83740593FF7C47
:1084E000787DCA806B7E057F797C797D0090045110
:1084F000E0FAA3E0F5828A83740593FB8021900162
:10850000ADE07002A3E0701A7E057FBD7C797D002E
:10851000900451E0FAA3E0F5828A83740593FB028C
:10852000DA057F4B7C797D00900451E0FAA3E0F5F9
:10853000828A83740593FB02BBD4303116900451B8
:10854000E0FEA3E0F5828E83740593FF7C787DE8DE
:1085500002D695900451E0FEA3E0F5828E83740567
:1085600093FF900263E07D9E60027D9D12DAA5225A
:10857000A23D92433043059004378003900451E0BC
:10858000FEA3E0FF900573EEF0A3EFF030430590FB
:1085900004C38003900447E0FEA3E0FF900575EE5E
:1085A000F0A3EFF090043AE004F0E0A2E4923190FE
:1085B0000573E0FEA3E0FFF5828E8374049314B488
:1085C0000A004003028A7C9085D575F003A4C58318
:1085D00025F0C583730285F30285F30286050287C1
:1085E0001C0288D402891C02894D02897402895AAE
:1085F0000285F38F828E83740693FE740793FF12B5
:108600007F3F028A7C900575E0FEA3E0FFF5828E35
:1086100083740393B40C004003028A7C908623F891
:1086200028287302868D02868D0286900286AC020F
:108630008A7C0286470286E4028A7C02868D028654
:10864000C8028A7C0287008F828E83740193FA7439
:108650000293C394B3FFEA9405FE7C007D02126688
:10866000BD74017E00A807088005C333CE33CED881
:10867000F9FFEF55216016900573E0FEA3E0F58247
:108680008E83740593FF7C787DAA02898A02885CB8
:10869000900575E0FEA3E0F5828E83740193FA7471
:1086A0000293AE02FF7C797D0A0288A9900575E0ED
:1086B000FEA3E0F5828E83740193FA740293AE02F6
:1086C000FF7C787DF10288A9900575E0FEA3E0F5B6
:1086D000828E83740193FA740293AE02FF7C787DDC
:1086E000FB0288A9900575E0FEA3E0F5828E8374F5
:1086F0000193FA740293AE02FF7C797D0F0288A980
:10870000900575E0FEA3E0F5828E83740193FA7400
:108710000293AE02FF7C797D1E0288A9900575E068
:10872000FEA3E0FFF5828E83740393B40A00400336
:10873000028A7C90873AF8282873028758028A7C3C
:10874000028A7C0287860287BB028A7C0287F0024B
:10875000882502885902888D2031158F828E837476
:108760000193FA740293AE02FF7C797D050288A919
:10877000900573E0FEA3E0F5828E83740593FF7C81
:10878000787DB002898A20311C900575E0FEA3E057
:10879000F5828E83740193FA740293AE02FF7C78A3
:1087A0007DF10288A9900573E0FEA3E0F5828E8337
:1087B000740593FF7C787DB002898A20311C900576
:1087C00075E0FEA3E0F5828E83740193FA74029340
:1087D000AE02FF7C797D190288A9900573E0FEA3A3
:1087E000E0F5828E83740593FF7C787DB402898ADC
:1087F00020311C900575E0FEA3E0F5828E837401A4
:1088000093FA740293AE02FF7C797D0F0288A990DF
:108810000573E0FEA3E0F5828E83740593FF7C78F8
:108820007DB402898A20311B900575E0FEA3E0F536
:10883000828E83740193FA740293AE02FF7C797D79
:10884000148066900573E0FEA3E0F5828E837405C4
:1088500093FF7C787DB402898A20311B900575E0F6
:10886000FEA3E0F5828E83740193FA740293AE0244
:10887000FF7C797D008032900573E0FEA3E0F582F5
:108880008E83740593FF7C787DB402898A20312E13
:10889000900575E0FEA3E0F5828E83740193FA746F
:1088A0000293AE02FF7C787DFB900573E0FAA3E0B3
:1088B000F5828A83740593FB12DA05028A7C90059F
:1088C00073E0FEA3E0F5828E83740593FF7C787DD0
:1088D000B402898A203130900573E0FEA3E0F5826E
:1088E0008E83740593FF900575E0FCA3E0F5828C00
:1088F00083E4740193FA740293F5828A83E07D66BF
:1089000060027D65028A79900573E0FEA3E0F5823E
:108910008E83740593FF7C787DBA806E303115901C
:108920000573E0FEA3E0F5828E83740593FF7C78E7
:108930007DBA8056900573E0FEA3E0F5828E8374C5
:108940000593FF7D663034027D65028A7990043C90
:10895000E0FD7F4012CBCD028A7C900573E0FEA340
:10896000E0F5828E83740593FF90044CE0FD12D8ED
:10897000D1028A7C303119900573E0FEA3E0F582C4
:108980008E83740593FF7C787DBF12D695028A7C16
:10899000900573E0FEA3E0FFF5828E83740693FCDE
:1089A000740793FDEC6003028A7CED24E860710497
:1089B0006003028A7C900450E0146017146028144D
:1089C0006038240370478F828E83740593FF7D5730
:1089D000028A79900573E0FEA3E0F5828E83740528
:1089E00093FF7D54028A79900573E0FEA3E0F5823F
:1089F0008E83740593FF7D55807F900573E0FEA301
:108A0000E0F5828E83740593FF7D56806C9005732C
:108A1000E0FEA3E0F5828E83740593FF7D538059B9
:108A2000900450E014601B24FE602A2403703990E7
:108A30000573E0FEA3E0F5828E83740593FF7D57F6
:108A40008037900573E0FEA3E0F5828E8374059372
:108A5000FF7D588024900573E0FEA3E0F5828E83AD
:108A6000740593FF7D568011900573E0FEA3E0F539
:108A7000828E83740593FF7D5312DAA5C243229040
:108A800005731268DE9001AFE06401AB32AA31A930
:108A900030A82FAF6CAE6BAD6AAC696003028DA2DB
:108AA0001260F6AB3AAA39A938A8371261EB9005E3
:108AB00073E0F8A3E0F9A3E0FAA3E0FB1261EB9006
:108AC0000573E0F8A3E0F9A3E0FAA3E0FB1261EB81
:108AD00090057B1268DEE4FFFEFD7C40900573E0AC
:108AE000F8A3E0F9A3E0FAA3E0FB1261EBAB3AAA2A
:108AF00039A938A8371261EBC004C005C006C00709
:108B0000AF3AAE39AD38AC37900573E0F8A3E0F971
:108B1000A3E0FAA3E0FB1260FAD003D002D001D0A8
:108B2000001262F4C004C005C006C007900249E00C
:108B3000FFC374649FFDE49400FCE4126403E4FB4F
:108B4000FA79C878421262F490058F1268DED00775
:108B5000D006D005D00412B46290057BE0F8A3E003
:108B6000F9A3E0FAA3E0FB1261EB90057B1268DE4B
:108B7000AB6CAA6BA96AA869AF36AE35AD34AC331D
:108B80001260F6AB4AAA49A948A8471261EB9005C2
:108B90007F1268DEAF3AAE39AD38AC37900573E07E
:108BA000F8A3E0F9A3E0FAA3E0FB1260FAC004C066
:108BB00005C006C007AB3AAA39A938A83790057393
:108BC000E0FCA3E0FDA3E0FEA3E0FF1260F6D0030B
:108BD000D002D001D0001262F4C004C005C006C0AB
:108BE00007900249E0FCE4126408E4FBFA79C878D3
:108BF000421262F4E4FBFA798078BF1260FAD00383
:108C0000D002D001D0001261EBA804A905AA06ABDE
:108C100007E4FFFE7D807C3F1260F690057FE0F860
:108C2000A3E0F9A3E0FAA3E0FB1261EB90057F1249
:108C300068DEAB3AAA39A938A837900573E0FCA3DF
:108C4000E0FDA3E0FEA3E0FF1260F6AB4AAA49A94B
:108C500048A8471261EBC004C005C006C007AF3A80
:108C6000AE39AD38AC37900573E0F8A3E0F9A3E076
:108C7000FAA3E0FB1261EBA804A905AA06AB07D092
:108C800007D006D005D0041262F49005831268DE86
:108C9000E4FFFEFD7C40900573E0F8A3E0F9A3E05B
:108CA000FAA3E0FB1261EBAB3AAA39A938A8371254
:108CB00061EBC004C005C006C007AF3AAE39AD389D
:108CC000AC37900573E0F8A3E0F9A3E0FAA3E0FB6A
:108CD0001260FAA804A905AA06AB07D007D006D0EF
:108CE00005D0041262F4C004C005C006C00790029B
:108CF00049E0FFC374649FFDE49400FCE412640344
:108D0000E4FBFA79C878421262F490058F1268DEAB
:108D1000D007D006D005D00412B462900583E0F8E5
:108D2000A3E0F9A3E0FAA3E0FB1261EB9005831244
:108D300068DE900583E0FCA3E0FDA3E0FEA3E0FF76
:108D400012CB6B90057FE0F8A3E0F9A3E0FAA3E073
:108D5000FB1261EB90057F1268DE90057FE0F8A3BF
:108D6000E0F9A3E0FAA3E0FB90057BE0FCA3E0FDC3
:108D7000A3E0FEA3E0FF1262F412C9E290057712AD
:108D800068DE900573E0FCA3E0FDA3E0FEA3E0FF36
:108D9000A3E0F8A3E0F9A3E0FAA3E0FB1261EB0281
:108DA000C9E21260F6AB3AAA39A938A8371261EBCA
:108DB00090057B1268DEAB3AAA39A938A83790052E
:108DC00073E0FCA3E0FDA3E0FEA3E0FF1260F6ABBE
:108DD0004AAA49A948A8471261EBC004C005C006C9
:108DE000C007AF3AAE39AD38AC37900573E0F8A3A1
:108DF000E0F9A3E0FAA3E0FB1261EBA804A905AA3D
:108E000006AB07D007D006D005D0041262F4900557
:108E1000831268DEE4FFFEFD7C40900573E0F8A35A
:108E2000E0F9A3E0FAA3E0FB1261EBAB3AAA39A99F
:108E300038A8371261EBC004C005C006C007AF3ABE
:108E4000AE39AD38AC37900573E0F8A3E0F9A3E094
:108E5000FAA3E0FB1260FAA804A905AA06AB07D0A2
:108E600007D006D005D0041262F4C004C005C006C5
:108E7000C007900249E0FFC374649FFDE49400FCC6
:108E8000E4126403E4FBFA79C878421262F49005B4
:108E90008F1268DED007D006D005D00412B46290DD
:108EA0000583E0F8A3E0F9A3E0FAA3E0FB1261EB8D
:108EB0009005831268DE900583E0FCA3E0FDA3E04B
:108EC000FEA3E0FF12CB6BC004C005C006C007AB19
:108ED0006CAA6BA96AA869AF36AE35AD34AC331253
:108EE00060F6D003D002D001D0001261EBC004C004
:108EF00005C006C007AB32AA31A930A82FAF36AEE5
:108F000035AD34AC331260F6D003D002D001D000BE
:108F10001260F690057F1268DE90057FE0F8A3E00E
:108F2000F9A3E0FAA3E0FB90057BE0FCA3E0FDA33E
:108F3000E0FEA3E0FF1262F422900245E0FF64022B
:108F40006004EFB40327900573E4F0A37464F09019
:108F50000187E0FF7E009001A6EEF0A3EFF0C3745E
:108F6000649F9001AEF0E49E9001ADF022AE4BAF55
:108F70004CE4FCFD7B64FAF9F812671FC006C007D9
:108F8000900280E0FEA3E0FBAA06E4F9F8D007D047
:108F9000061267AA900187EFF0D3946440037464CB
:108FA000F090024BE0FFE4FCFDFE7BB87A0BF9F891
:108FB00012671FC006C007AE45AF46AB07AA06E45E
:108FC000F9F8D007D0061267AA9001B0EEF0A3EF2F
:108FD000F090024BE0FFE4FCFDFE7BB87A0BF9F861
:108FE00012671FC004C005C006C007D3E54C94003B
:108FF000E54B94004006AE4BAF4C8004AE45AF4607
:10900000AB07AA06E4F9F8D007D006D005D00412C1
:1090100067AA9001B2EEF0A3EFF09001B0E0FCA3DC
:10902000E0FDC39FEC9E5006AE04AF0580089001A2
:10903000B2E0FEA3E0FF90024CE0FD7C0012666807
:10904000A3E0C3132FFFE43E900573F0A3EFF0D32A
:10905000900281E0954C900280E0954B501990056C
:1090600073E0FFA3E09001A6CFF0A3EFF0E490013E
:10907000ADF0A3F0D21522AC4BAD4CE4126403C0AA
:1090800004C005C006C007900280E0FCA3E0FDE438
:10909000126403A804A905AA06AB07D007D006D01E
:1090A00005D0041262F4E4FBFA798078BF1260FA0A
:1090B0009005751268DE900573E0FCA3E0FDE412F4
:1090C0006403900575E0F8A3E0F9A3E0FAA3E0FBE0
:1090D0001261EB9005751268DEE4FFFEFD7C4090A6
:1090E0000575E0F8A3E0F9A3E0FAA3E0FB1261EB59
:1090F000C004C005C006C00790024EE0FCE4126444
:1091000008A804A905AA06AB07D007D006D005D049
:10911000041262F49005751268DE900575E0FCA3F8
:10912000E0FDA3E0FEA3E0FF12CB6BA804A905AA13
:1091300006AB07E4FFFE7D807C3F1260F69005756C
:109140001268DE90024EE0FCE4126408900575E0BF
:10915000F8A3E0F9A3E0FAA3E0FB1261EBE4FBFA69
:10916000F978401262F49005751268DE900251E0C1
:10917000FCE4126408900575E0F8A3E0F9A3E0FAB6
:10918000A3E0FB1261EBE4FBFA79C878421262F4C7
:109190009005751268DEAC4BAD4CE4126403C0045C
:1091A000C005C006C007900280E0FCA3E0FDE41209
:1091B0006403A804A905AA06AB07D007D006D0050A
:1091C000D0041262F4E4FBFA798078BF1260FA905E
:1091D00005791268DE900573E0FCA3E0FDE41264FB
:1091E00003900579E0F8A3E0F9A3E0FAA3E0FB120D
:1091F00061EB9005791268DEE4FFFEFD7C4090058E
:1092000079E0F8A3E0F9A3E0FAA3E0FB1261EBC078
:1092100004C005C006C00790024FE0FCE4126408D9
:10922000A804A905AA06AB07D007D006D005D0042C
:109230001262F49005791268DE900579E0FCA3E0F3
:10924000FDA3E0FEA3E0FF12CB6BA804A905AA06CC
:10925000AB07E4FFFE7D807C3F1260F6900579123B
:1092600068DE90024FE0FCE4126408900579E0F8B3
:10927000A3E0F9A3E0FAA3E0FB1261EBE4FBFAF947
:1092800078401262F49005791268DE900251E0FF96
:10929000C374649FFDE49400FCE4126403900579B8
:1092A000E0F8A3E0F9A3E0FAA3E0FB1261EBE4FB32
:1092B000FA79C878421262F49005791268DE900556
:1092C00073E0FEA3E0FBAA06E4F9F8AE4BAF4CFC5A
:1092D000FD12671FC006C007900280E0FEA3E0FBFE
:1092E000AA06E4F9F8D007D0061267AA9001A6EE04
:1092F000F0A3EFF0900250E0C313FF9001A7E02F1E
:10930000F09001A6E03400F0E0FCA3E0FDE412647C
:1093100003900575E0F8A3E0F9A3E0FAA3E0FB12DF
:1093200060F6900579E0F8A3E0F9A3E0FAA3E0FB8A
:109330001260F69005751268DE90024DE0FCE412B2
:109340006408E4FBFAF978401262F4900575E0F8DD
:10935000A3E0F9A3E0FAA3E0FB1263914024C21555
:10936000C216E4FFFEFD7C3F900575E0F8A3E0F92E
:10937000A3E0FAA3E0FB1260FA12643C9001A6EEAF
:10938000800DD21690024DE0C313FF9001A6E4F0C9
:10939000A3EFF09001A6E0FEA3E0FF900573E0FCD0
:1093A000A3E0FDC39FEC9E400DED9FFFEC9E90015E
:1093B000ADF0A3EFF022E49001ADF0A3F022900213
:1093C00080E0FEA3E0FFE4FCFD7B03FAF9F81267FE
:1093D0001FE47B64FAF9F81267AAC3900281E09F48
:1093E000FD900280E09EFCC39001C6E09D9001C507
:1093F000E09C403E900281E02FFD900280E03EFC28
:10940000D39001C6E09D9001C5E09C5025E0FCA3EF
:10941000E0FD900280E0FAA3E0FBC39DEA9C4007D8
:10942000EB2FFFEA3E8006C3EB9FFFEA9E90057B91
:10943000800B900280E0FFA3E090057BCFF0A3EFCC
:10944000F09001C5E0FCA3E0FDE412640390057315
:109450001268DE900573E0FCA3E0FDA3E0FEA3E04C
:10946000FFC004C005C006C00790057BE0FCA3E078
:10947000FDEC126403A804A905AA06AB07D007D027
:1094800006D005D0041262F49005731268DE9005D0
:109490007BE0FCA3E0FDEC126403C004C005C00641
:1094A000C0079001C5E0FCA3E0FDE4126403D00313
:1094B000D002D001D0001261EBE4FBFA79A0784031
:1094C0001262F49005771268DE900577E0FCA3E065
:1094D000FDA3E0FEA3E0FFC004C005C006C00790E6
:1094E00001C5E0FEA3E0FF90057CE02FFD90057B29
:1094F000E03EFCE4126403A804A905AA06AB07D069
:1095000007D006D005D0041262F49005771268DE09
:10951000900249E0FFC374649FFDE49400FCE412F0
:109520006403E4FBFA79C878421262F490058F1262
:1095300068DE900577E0FCA3E0FDA3E0FEA3E0FF7A
:1095400012B4629005771268DE9001C5E0FCA3E0DA
:10955000FDE4126403C004C005C006C00790057B8B
:10956000E0FCA3E0FDEC126403D003D002D001D0F4
:10957000001260F6C004C005C006C007AF4AAE497D
:10958000AD48AC47900577E0F8A3E0F9A3E0FAA373
:10959000E0FB1261EBD003D002D001D0001261EBEE
:1095A000E4FBFA792078411262F49005771268DEC4
:1095B000900577E0FCA3E0FDA3E0FEA3E0FFC0047C
:1095C000C005C006C007A3E0FEA3E0FBAA06EA337D
:1095D00095E0F9F89001C5E0FEA3E0FFE4FCFD1280
:1095E000671FEC1263FEE4FBFA79C878421262F45A
:1095F000A804A905AA06AB07D007D006D005D00459
:109600001262F49005771268DE900577E0FCA3E023
:10961000FDA3E0FEA3E0FF12CB6B9005771268DE9E
:1096200090018EE0FCA3E0FDE4126403C004C005D9
:10963000C006C007900573E0F8A3E0F9A3E0FAA321
:10964000E0FBE4FFFE7D807C3F1260F6D003D00299
:10965000D001D0001261EBC004C005C006C0079065
:10966000022DE0FCA3E0FDE4126403C004C005C0C9
:1096700006C007900573E0F8A3E0F9A3E0FAA3E0C1
:10968000FBA3E0FCA3E0FDA3E0FEA3E0FF1260F675
:10969000A804A905AA06AB07D007D006D005D004B8
:1096A0001261EBD003D002D001D0001260F6C004EA
:1096B000C005C006C007E4FFFE7D807CBF90057733
:1096C000E0F8A3E0F9A3E0FAA3E0FB1260FAA80433
:1096D000A905AA06AB07D007D006D005D0041262B0
:1096E000F412643C900232EEF0A3EFF090022EE010
:1096F0002414FD90022DE03400FCC3EF9DEE9C503D
:1097000008900232ECF0A3EDF0900270E0FEA3E0CE
:10971000FFD3900233E09F900232E09E4005EEF0CE
:10972000A3EFF090026BE064036007900245E0B4A1
:10973000010C201C09900232E4F0A37464F0229022
:10974000025DE0B4022230131F90025BE0FFFDC314
:109750009005BAE09D7480F89005B9E06480985057
:10976000077545008F46800A9005B9E0F545A3E0EE
:10977000F54630135C201159900234E0FEA3E0FF5F
:10978000E4FCFD7B607A09F9F8C312684A50429004
:1097900005B5E0FEA3E0FF24BAFDEE34FFFCC39064
:1097A00005B8E09DEC6480F89005B7E064809840CF
:1097B00027900199E024ECFD900198E034FFFCC370
:1097C000EF9DEE9C50129001BFE4F0A3741EF08058
:1097D00007E49001BFF0A3F09001BFE0FEA3E0FF1B
:1097E000900199E02FFD900198E03EFCE4126403A3
:1097F000E4FBFA792078411262F48F6C8E6B8D6AEB
:109800008C699005B7E0FCA3E0FDEC126403E4FB77
:10981000FA792078411262F48F328E318D308C2F9C
:10982000AC45AD46E4126403E4FBFA7920784112BA
:1098300062F48F3A8E398D388C379005BBE0FCA3EB
:10984000E0FDEC126403E4FBFA792078411262F443
:109850008F368E358D348C339005B5E0FCA3E0FD5A
:10986000EC126403E4FBFA792078411262F48F422F
:109870008E418D408C3FE4FFFE7D807CBFAB6CAAA7
:109880006BA96AA8691260FAAB32AA31A930A82F75
:10989000126391403DE4FFFE7D807CBFAB6CAA6B00
:1098A000A96AA8691260FA8F328E318D308C2FAF81
:1098B00042AE41AD40AC3FAB32AA31A930A82F1225
:1098C0006391600E400C8542328541318540308580
:1098D0003F2FAF42AE41AD40AC3FAB36AA35A934C5
:1098E000A833126391500C8542368541358540344A
:1098F000853F33AF4AAE49AD48AC47900573126817
:10990000DE900573E0FCA3E0FDA3E0FEA3E0FFC052
:1099100004C005C006C007900249E0FCE4126408D8
:10992000E4FBFA79C878421262F490058F1268DE7F
:10993000AF3AAE39AD38AC3712B462A804A905AA63
:1099400006AB07D007D006D005D0041262F490050C
:10995000731268DEAB6CAA6BA96AA869AF36AE3524
:10996000AD34AC331260F6900573E0F8A3E0F9A3D0
:10997000E0FAA3E0FB1261EBC004C005C006C0071B
:10998000AB32AA31A930A82FAF6CAE6BAD6AAC690F
:109990001260F6D003D002D001D0001260F690051C
:1099A000731268DE90025BE0FFC3E5469FE54594D5
:1099B00000401D9001DAE07002A3E0701390019660
:1099C000E07002A3E070099001D3E0600E30090B53
:1099D000E4F568F567F566F5658024E4FFFEFDFCB7
:1099E000900573E0F8A3E0F9A3E0FAA3E0FB1263AB
:1099F000917017853A68853967853866853765902F
:109A000001AFF09003837406F022E4FFFEFDFC90AA
:109A10000573E0F8A3E0F9A3E0FAA3E0FB12639179
:109A20009001AF60064004740180027402F0E4FB10
:109A3000FA79A07841AF3AAE39AD38AC371262F45A
:109A40008F508E4F8D4E8C4D22E4900573F07E0129
:109A50007F937B03FA7D03FC12CCEC90FD3AE493F8
:109A6000FF900193E0FEB5072090FD3BE493FD904D
:109A70000194E0B50513A3E0B4300E90FD3CE493EF
:109A8000B431069005737401F0900573E060030231
:109A90009C1BEEB5071D90FD3BE493FF900194E005
:109AA000B5071090FD3CE493FF900195E06F7003C3
:109AB000029C1B90037974FFF0E4900245F0A374BC
:109AC00014F0A3E4F0A374E9F0A37426F0A37432B5
:109AD000F0A3740AF0A37404F0A3F0A3740BF0A332
