:10EDB100203232304E0000070E151C22282E343925
:10EDC1003E43484C5054585C5F62640000010203AA
:10EDD10004040506070808090A0A0B0C0C0D0E0F9E
:10EDE1000F101111121314141516171718191A1BD5
:10EDF1001B1C1D1E1F1F20212223232425262728FB
:10EE0100292A2B2C2D2E2F303132333435363738F9
:10EE1100393A3B3C3E3F40414244454647494A4BD3
:10EE21004D4E4F505253555658595B5D5E6062646A
:10E0550012F5C112EE3112F52412F38512FA2E12C1
:10E06500B64E12FA0C12C25012F81912DEFA7E03DD
:10E075007F297B017A007DDC7C0012F0E69002D7D7
:10E08500E075F002A4242AF582E5F03440F583E436
:10E0950093FE740193FF12FA8B9001DEE0601490F9
:10E0A50004E5E0FEA3E0FF9001E4E02FF09001E33A
:10E0B500E03EF07C017DE37B027F257E0312F1AF1C
:10E0C500438901758A06758C4CC28DD28C12FAD89B
:10E0D50012F60B12CFF112D23512BC8512EC2B12AF
:10E0E500F2CFC27212C52CD27212C52C1295211212
:10E0F500F48012C80112FAC112731912E8F812DB82
:10E10500C09001FEE0045407F0B40700505790E1B9
:10E115001AF828287302E12F02E13702E13F02E1F4
:10E125004702E14F02E15D02E16212EF9912F8EF59
:10E135008036304033125370802E30402B128DAA1A
:10E145008026304023127C31801E304003129C3BD8
:10E1550012FA6D12F9848010126410800B207A086F
:10E16500128522800312EEAA12E9BE308DFDE4F578
:07E17500AE75A64C02E0C8E4
:10FAD800307A0C12A893207A0912E59E02F7621276
:03FAE800A89322BE
:10641000900295E07002A3E0600E900296E024FFE7
:10642000F0900295E034FFF09002FDE07002A3E0EE
:10643000600E9002FEE024FFF09002FDE034FFF0D9
:106440009001B8E07002A3E0600E9001B9E024FF73
:10645000F09001B8E034FFF0900207E0600214F021
:10646000900289E004F07006900288E004F0900148
:106470008DE07002A3E0600E90018EE024FFF090AA
:10648000018DE034FFF0900320E0600214F09002F0
:106490000AE07002A3E0600E90020BE024FFF0908F
:1064A000020AE034FFF09001EEE07002A3E0600E1B
:1064B0009001EFE024FFF09001EEE034FFF0900156
:1064C000A1E07002A3E0600E9001A2E024FFF09032
:1064D00001A1E034FFF0C39001D1E094BC9001D061
:1064E000E09434500CA3E004F070069001D0E00476
:1064F000F09001F4E07002A3E0600E9001F5E0245A
:10650000FFF09001F4E034FFF090020FE07002A37E
:10651000E0600E900210E024FFF090020FE034FFE4
:10652000F0900186E0702790020CE0FEA3E0FFE40B
:10653000FCFD7B607AEAF9F8D312B198401790021B
:106540000DE004F0700F90020CE004F08007E4907E
:10655000020CF0A3F0900315E07002A3E0600E902F
:106560000316E024FFF0900315E034FFF09002865C
:10657000E07002A3E0600E900287E024FFF090023A
:1065800086E034FFF09001A3E0600214F09001C5B2
:10659000E0FCA3E0FDA3E0FEA3E0FFEC4D4E4F6066
:1065A0001C9001C5A3A3A3E024FFFFEE34FFFEED82
:1065B00034FFFDEC34FFFC9001C512B21A90044385
:1065C000E0B4020E9001B6E004F070069001B5E070
:1065D00004F0900298E0600214F0E47B107A27F94E
:1065E000F89002ABE0FCA3E0FDA3E0FEA3E0FF1205
:1065F000B0F890032A12B21AE4FFFEFDFC9002E804
:10660000E0F8A3E0F9A3E0FAA3E0FBD312B1AE40B7
:10661000109002E8E0FCA3E0FDA3E0FEA3E0FF8011
:1066200018E47B107A27F9F89002AFE0FCA3E0FDB4
:10663000A3E0FEA3E0FF12B0F89002FF12B21AE44A
:106640007B687A01F9F89002B3E0FCA3E0FDA3E0D7
:10665000FEA3E0FF12B0F890018912B21AE47B3C6D
:10666000FAF9F89002B7E0FCA3E0FDA3E0FEA3E096
:10667000FF12B0F890027B12B21A90032FE0FEA333
:10668000E0FF900293E0FCA3E0FDD39FEE6480F86E
:10669000EC648098400B207A0890032FECF0A3ED77
:1066A000F09004E9E0D39414404CE47F1EFEFDFC1E
:1066B0009002E1E0F8A3E0F9A3E0FAA3E0FBD31233
:1066C000B1AE4032D39001D1E094949001D0E094E7
:1066D000114023900321E0FEA3E0FF90028AE0FC3A
:1066E000A3E0FD9FEE6480F8EC648098500890036E
:1066F00021ECF0A3EDF0900212E0FEA3E0FFE4FC39
:10670000FD7BB3FAF9F812B06DE47BB4FAF9F81234
:10671000B0F8900186E0FB7C002FFFEC3E90021267
:10672000F0A3EFF0900212E0FEA3E0FF7DB412AF01
:10673000CC900278EFF0EB601F9004A1E0FEA3E0A4
:10674000FF900293E0FAA3E0FBC39FEE6480F8EAB7
:1067500064809840032058169001F812B226000079
:106760000000E4F533F532F531F53002686190044C
:10677000A1E0FEA3E0FFC3EB9FFFEA9EFE3395E09E
:106780008F338E32F531F5309002C6E0FEA3E0FF84
:10679000E4FCFDAB33AA32A931A83012B06D8F33BF
:1067A0008E328D318C309002AAE0604DE412AE86BC
:1067B0007B807A967918784B12AE19601F401DE4E1
:1067C0007FA37E01FDFCAB33AA32A931A83012B001
:1067D0006DE47B06FAF9F812B0F88065E47B06FAFE
:1067E000F9F8AF33AE32AD31AC3012B0F8E47BA380
:1067F0007A01F9F812B06D8048900186E075F005D5
:106800008490EDB793FFE4FCFDFEAB33AA32A931CF
:10681000A83012B06DE47B64FAF9F812B0F88F3347
:106820008E328D318C30E47F7C7E01FDFCAB33AA4F
:1068300032A931A83012B06DE47B06FAF9F812B033
:10684000F88F338E328D318C30E47B107A27F9F853
:10685000AF33AE32AD31AC3012B0F89001F812B2B5
:106860001A9001FDE004F0C394195003026E13E482
:10687000F09002ABE0F8A3E0F9A3E0FAA3E0FBC0DC
:1068800000C001C002C003E47B107A0EF9F8AF33F8
:10689000AE32AD31AC3012B0F8D003D002D001D05E
:1068A00000EB2FFFEA3EFEE93DFDE83CFC9002AB29
:1068B00012B21A7FF07EA27D9A7C3B9002ABE0F888
:1068C000A3E0F9A3E0FAA3E0FBD312B1AE400A9033
:1068D00002AB12B2263B9AA2F09002AFE0F8A3E01E
:1068E000F9A3E0FAA3E0FBC000C001C002C003E4CA
:1068F0007B107A0EF9F8AF33AE32AD31AC3012B056
:10690000F8D003D002D001D000EB2FFFEA3EFEE921
:106910003DFDE83CFC9002AF12B21A7FF07EA27DF2
:106920009A7C3B9002AFE0F8A3E0F9A3E0FAA3E081
:10693000FBC312B1AE5003026A869002AF12B226B8
:106940003B9AA2F09002E8E0FCA3E0FDA3E0FEA3E6
:10695000E0FFEC4D4E4F700A9002E812B2260001A3
:10696000869F900323E0F8A3E0F9A3E0FAA3E0FBFD
:10697000C000C001C002C003E47B107A0EF9F8AF7A
:1069800033AE32AD31AC3012B0F8D003D002D0010A
:10699000D000EB2FFFEA3EFEE93DFDE83CFC900312
:1069A0002312B21AE47F107E27FDFC900323E0F847
:1069B000A3E0F9A3E0FAA3E0FBD312B1AE500302C7
:1069C0006A5E9002E8E0F8A3E0F9A3E0FAA3E0FB36
:1069D000C000C001C002C003E47B107A27F9F89020
:1069E0000323E0FCA3E0FDA3E0FEA3E0FF12B0F868
:1069F000D003D002D001D000EB2FFFEA3EFEE93DEC
:106A0000FDE83CFC9002E812B21A900323E0FCA3DC
:106A1000E0FDA3E0FEA3E0FFC004C005C006C00780
:106A2000E47B107A27F9F8900323A3A3A3E012B024
:106A3000F8E47B107A27F9F812B06DA804A905AA2A
:106A400006AB07D007D006D005D004C3EF9BFFEEFE
:106A50009AFEED99FDEC98FC90032312B21A7F1870
:106A60007EDD7DF57C059002E8E0F8A3E0F9A3E087
:106A7000FAA3E0FBD312B1AE40169002E812B226A0
:106A800005F5DD18800A9002E812B2260000000029
:106A9000900186E07003026B35306E03026B357F28
:106AA000987E4F7D257C029002B3E0F8A3E0F9A325
:106AB000E0FAA3E0FBC312B1AE501F9002B3E0FCBA
:106AC000A3E0FDA3E0FEA3E02401FFE43EFEE43DDD
:106AD000FDE43CFC9002B312B21AE47F687E01FD33
:106AE000FC9002B3E0F8A3E0F9A3E0FAA3E0FBD343
:106AF00012B1AE40409001DEE0703A9004EAE090BE
:106B000001DEF09004EBE09001DFF09004ECE09007
:106B100001E0F09004E9E09001E1F09004E8E090F9
:106B200001E2F0E4A3F0A3F07C017DDE7B077F208F
:106B30007E0312F1AFE47F01FEFDFC9002E1E0F87C
:106B4000A3E0F9A3E0FAA3E0FBC312B1AE5052E414
:106B5000900274F0A3F0A3F0A3F09001F2F0A3F080
:106B6000900198F0A3F0900187F0A3F0900293E0D9
:106B7000FFA3E090029ECFF0A3EFF090028AE0FE28
:106B8000A3E0FF900193EEF0A3EFF09004A1E0FDED
:106B9000A3E09002F3CDF0A3EDF0900310EE026DB0
:106BA0007AD390020DE094E190020CE0940050033F
:106BB000026D51303B03026D5190029EE0FEA3E056
:106BC000FF900294E09FFF900293E09EFE3395E0D9
:106BD0008F378E36F535F534FDAC34E47BB07A046E
:106BE000F9F812B06D8F378E368D358C3490018761
:106BF000E0FEA3E0FFEE3395E0FDFCE47B0BFAF949
:106C0000F812B06DEF2537FFEE3536FEED3535FD68
:106C1000EC3534FCE47B0CFAF9F812F71E9001878E
:106C2000EEF0FCA3EFF0FD7F107E2712FAAEAC066B
:106C3000AD077FF07ED812FA5A900187EEF0A3EFED
:106C4000F09002F3E0FEA3E0FFC39004A2E09FFFF8
:106C50009004A1E09EFE3395E08F378E36F535F532
:106C600034FDAC34E47BB07A04F9F812B06D8F37A0
:106C70008E368D358C34900198E0FEA3E0FFEE3324
:106C800095E0FDFCE47B0BFAF9F812B06DEF2537C7
:106C9000FFEE3536FEED3535FDEC3534FCE47B0C8E
:106CA000FAF9F812F71E900198EEF0A3EFF07D10BC
:106CB0007C2712FAAEAC06AD077FF07ED812FA5AE6
:106CC000900198EEF0A3EFF0900193E0FEA3E0FFB7
:106CD000C390028BE09FFF90028AE09EFE3395E016
:106CE0008F378E36F535F534FDAC34E47BB07A045D
:106CF000F9F812B06D8F378E368D358C349001F2E5
:106D0000E0FEA3E0FFEE3395E0FDFCE47B1DFAF925
:106D1000F812B06DEF2537FFEE3536FEED3535FD57
:106D2000EC3534FCE47B1EFAF9F812F71E9001F200
:106D3000EEF0FCA3EFF0FD7F207E4E12FAAEAC0623
:106D4000AD077FE07EB112FA5A9001F2EEF0A3EFA8
:106D5000F0900293E0FFA3E090029ECFF0A3EFF04B
:106D600090028AE0FFA3E0900193CFF0A3EFF090B0
:106D700004A1E0FFA3E09002F3CFF0A3EFF03058BE
:106D80000A900295E07002A3E060069001BCE0600A
:106D90000DE4900198F0A3F0900187F0A3F0900229
:106DA000A9E0700C9002C9E07006E521541E6058FD
:106DB000304060C240E49001BCF09001A5F0A3F027
:106DC00090020FF0A3F0900327F0A3F090031EF0C1
:106DD000A3F090018DF0A3F090020AF0A3F09003CD
:106DE00020F09001F4F0A3F0900319F0A3F09001CB
:106DF000EEF0A3F09001A1F0A3F0900309F02009B8
:106E000003300A0FC215800B2040089001BE743C6D
:106E1000F0D2409002FAE004F0C39496500302715D
:106E20000EE4F0D2529001A7E0601614F0701290B8
:106E300002A9E0B4020BE4F07E027FA97D0112F802
:106E40004F9002E1E0FCA3E0FDA3E0FEA3E0FFE43D
:106E500012AE867B287A6B796E784F12AE1960215C
:106E6000401F9002E1E0FCA3E0FDA3E0FEA3E024CC
:106E700001FFE43EFEE43DFDE43CFC9002E112B281
:106E80001A9002F9E0600214F0304A3B7F447E8D94
:106E90007D5B7C009002B7E0F8A3E0F9A3E0FAA3E1
:106EA000E0FBC312B1AE501F9002B7E0FCA3E0FDBF
:106EB000A3E0FEA3E02401FFE43EFEE43DFDE43C4C
:106EC000FC9002B712B21A9001DAE0FEA3E0FFE4F0
:106ED000FCFD7B207AFDF9F8D312B198400E9001A9
:106EE000DBE004F070069001DAE004F0900205E0C7
:106EF000FEA3E0FFE4FCFD7B207AFDF9F8D312B19C
:106F000098400E900206E004F07006900205E0043E
:106F1000F09002CCE060259002A7E0FEA3E0FFE441
:106F2000FCFD7B207AFDF9F8D312B198400E900257
:106F3000A8E004F070069002A7E004F09002F5E0EB
:106F4000FEA3E0FFE4FCFD7B207AFDF9F8D312B14B
:106F500098400E9002F6E004F070069002F5E0040E
:106F6000F09001BEE0600214F090031BE060021498
:106F7000F0900320E0FF90020BE02FFF90020AE068
:106F80003400FE9001A2E02FFF9001A1E03EFE90B0
:106F900001EFE02FFF9001EEE03EFEE4FCFD9001EA
:106FA000C5E0F8A3E0F9A3E0FAA3E02FFFEA3EFE74
:106FB000ED39FDEC38FCE47B01FAF9F8D312B1AEFF
:106FC0004005E49001BCF09004E9E0D394065060E1
:106FD0007534007535C89002CCE0600675340075D4
:106FE000353290041EE0FEA3E0FF7C007D6412B009
:106FF00021EF2437FFE43EFE90028AE0FCA3E0FD8F
:10700000C39FEE6480F8EC64809850067534FF7579
:10701000359CAF35AE3412FAAEAC06AD079001AA7E
:10702000E0FEA3E0FF12FAAE9001AAEEF0A3EFF0AB
:10703000207A0312CD75900443E0B4050E90020E41
:10704000E0C394C8500AE004F08005E490020EF01A
:107050009002CDE0606DE47FF07E87FDFC9001D66C
:10706000E0F8A3E0F9A3E0FAA3E0FBC312B1AE504D
:10707000529004D1E07002A3E070489004D4E07014
:1070800002A3E0703E9004E9E0FBB407199004E825
:10709000E0FFD39429400FEF9432500A9001D612AA
:1070A000B22600008CA0EBB419199004E8E0FFD3DD
:1070B0009429400FEF9432500A9001D612B2260064
:1070C000008CA0203F04D24E80312033287FC07E28
:1070D0004B7D037C009002E1E0F8A3E0F9A3E0FA25
:1070E000A3E0FBC312B1AE400330390D20190620D6
:1070F0001B03301C04C24E8002D24E9004E8E054C0
:107100000FFFD394024007EF94095002C24F20773B
:10711000030271C6C277D24F7E027FAB7D1012F898
:107120004F7E027FE87D0412F84F7E027FD17D04FE
:1071300012F84F7E027FE17D0412F84F9001FFE0CC
:10714000FFA3E0900202CFF0A3EFF0900425E0FF50
:10715000A3E09001FFCFF0A3EFF0900318E004F05C
:107160007006900317E004F0C3900318E0940490B5
:107170000317E094004004E4F0A3F0900307E070EC
:1071800002A3E0600E900308E024FFF0900307E004
:1071900034FFF09002CBE0600C9002907401F0A3F9
:1071A00074CCF08021C39002C7E094149002C6E032
:1071B000940090029050097401F0A3742CF08006A2
:1071C000E4F0A374C8F02076030272D330541EC3D7
:1071D000900304E09464900303E09400500F900245
:1071E00009E0700920330690031474F8F0E490026B
:1071F000FBF09001ADF0C276D2539002AB12B226F2
:10720000000000007E027FAB7D0412F84F90032F38
:1072100074FEF0A374D4F0E49001DCF09002D0E0AE
:1072200025E0547FF07E027FD07D0112F84F90025E
:107230008AE0FFA3E09001AACFF0A3EFF0C224C23E
:107240001CC21BC219C214C213C211C210205102A7
:10725000C220C251E4900204F0C254C23A90032EFC
:10726000F09001B4E0600214F0900314E0FF6401B8
:107270006004EFB4FF05E4900314F0C39002EDE066
:1072800094909002ECE094015015A3E004F0700695
:107290009002ECE004F07E027FEC7D0212F84F9049
:1072A00001ACE0600E20300B203108203305203681
:1072B0000214F0206F0E9001AFE0C394C8500AE0B2
:1072C00004F08005E49001AFF09001B07403F0A3E6
:1072D00074E8F09004E9E0FF6412702A9004E8E09A
:1072E000C394045021C223C222C221C21DC21AC2A9
:1072F00018C216C212E490032EF0C25390032174F8
:107300000BF0A374B8F0EFB4080E9004E8E0C39457
:09731000035005E4900309F0228A
:10FA6D009002AAE06007E49002C9F08005E49002DC
:0EFA7D00CCF09002C9E06005E49002CBF022CC
:10B64E00E49004A5F0A3F09002117428F0E49004A5
:10B65E00C0F0A3F09001D612B226000000009003B5
:10B66E002F74FEF0A374D4F09001F812B2260000ED
:10B67E000000C246C257E4900186F0C238F5219010
:10B68E000335F0900201F0900295F0A3F090018442
:10B69E00F0A3F0C2589001DD7408F0E4900278F047
:10B6AE00900212F0A3F09001B8F0A3F09002FDF01A
:10B6BE00A3F0900288F0A3F0900191740BF0A374A4
:10B6CE00B8F090019A74FEF0A374D4F090028AE45C
:10B6DE00F0A374C8F0900293E4F0A374C8F0E49061
:10B6EE0001B5F0A3F0900321740BF0A374B8F090A1
:10B6FE0001AA74FFF0A3749CF090044474FDF0A3AF
:10B70E0074E8F0C26FE49001FDF0900292740DF0B7
:10B71E00E490029CF0A3F0900187F0A3F0900198C2
:10B72E00F0A3F0900274F0A3F0900202F0A3F09058
:10B73E0001FFF0A3F09001CCF0A3F09001C1F0A3B3
:10B74E00F0C255C23BC250900209F0D248C26E9070
:10B75E000331F0A3F0900207F09002A5F0A3F09051
:10B76E0001CEF0A3F09001A8F0A3F0C244C25B900A
:10B77E0001BCF0900333F0A3F0D2409001ECF0A3A3
:10B78E00F09002A7F0A3F0C256C249C24D9001A795
:10B79E00F09001B7F09001F0F0A3740FF0E4900177
:10B7AE00ADF09002FBF09002FAF0900317F0A3F0C8
:10B7BE00C24BC24CC25CC25AC24390018DF0A3F080
:10B7CE00900320F09001D07434F0A374BCF0E49098
:10B7DE00020CF0A3F0900319F0A3F09001EEF0A389
:10B7EE00F09001A1F0A3F09001BDF090020FF0A334
:10B7FE00F09002F9F09001B2F0A3F09001B0740352
:10B80E00F0A374E8F0E490029AF0A3F09001F4F043
:10B81E00A3F090020AF0A3F09001A5F0A3F090011E
:10B82E00BEF0900286F0A3F0900315F0A3F0900105
:10B83E00A37496F0E49001CBF0900309F0900310FE
:10B84E00F0A3F090030CF0A3F09001BFF0A3F090E2
:10B85E0001F6F0A3F0900276F0A3F0900327F0A388
:10B86E00F090031EF0A3F0F524F523F522F525F54F
:10B87E0026900197F09001EAF0A3F09001D4F0A386
:10B88E00F09001D2F0A3F09002A0F0A3F090030A82
:10B89E00F0A3F09002F7F0A3F09002A2F0A3F090C4
:10B8AE000180F0A3F090031CF0A3F090032EF09013
:10B8BE000204F0900314F0C254C23A9001DCF090EE
:10B8CE0001A4F09001AEF09002F574FDF0A374E8BF
:10B8DE00F090020574FDF0A374E8F09001DA74FDA7
:10B8EE00F0A374E8F0E490019CF09001BAF0A3F09C
:10B8FE00C24FC2539003037408F0A374CAF09001B0
:10B90E008F7403F0A37484F090032312B226000008
:10B91E000000E49001B4F090027F742EF0A374E066
:10B92E00F0E4900284F0A3F0C24590030EF0A3F071
:10B93E0090020EF0C2519001ACF09002A4F0900271
:10B94E0090F0A374C8F0E4900208F09001C512B212
:10B95E002600000000C23CE49001AFF090031BF003
:10B96E00900195F0A3F090027A04F0C242E49003A5
:10B97E0007F0A3F0D23FD24EC239900298F0C25DCA
:01B98E002296
:10C250007E017F9D7B047A007D037C0012F0E690D6
:10C26000EDB1E493FF90019DE0B5072A90EDB2E4B3
:10C2700093FF90019EE0B5071D90EDB3E493FF900E
:10C28000019FE0B5071090EDB4E493FF9001A0E0AA
:10C290006F700302C3D9E49002A9F0A3F0A312B215
:10C2A00026000000009002AF12B2260000000090AD
:10C2B00002B312B226000000009002B712B22600AC
:10C2C0000000009002BB7401F0A374F4F0E4A3F04A
:10C2D000A37403F0A37420F0A37401F0A374F4F02A
:10C2E000A3E4F0A37464F09002C6E4F0A3740AF02F
:10C2F000E49002CBF09002C57432F0E49002EEF0CC
:10C300009002E812B22600000000E49002C4F0900F
:10C3100002C87408F0E4A3F0A3F09002CC04F0E4A7
:10C32000A3F0A3F0A3F0A3F0A312B2260000000034
:10C33000E49002D5F0A3F0A3F0A304F0A312B22678
:10C34000000000009002DD12B22600000000900202
:10C35000E112B22600000000E49002E5F0A3F0A391
:10C36000F09002ECF0A3F09002EF12B22600000071
:10C37000007E027FA97D4A12F84F90EDB1E49390C0
:10C38000019DF090EDB2E49390019EF090EDB3E446
:10C390009390019FF090EDB4E4939001A0F07C01A4
:10C3A0007D9D7B047F037E0012F1AFE49001DEF0FF
:10C3B000A3F0A3F0A3F0A3F0A3F0A3F0A3F0A3F0E5
:10C3C000A37480F0E4A3F0A3F07C017DDE7B0C7FFE
:10C3D000207E0312F1AF02C51C7E027FA97B4A7A40
:10C3E000007D0A7C0012F0E67E017FDE7B0C7A0085
:10C3F0007D207C0312F0E6E4FFFEFDFC9002DDE010
:10C40000F8A3E0F9A3E0FAA3E0FBD312B1AE402712
:10C41000E4FF7E40FDFC9002DDE0F8A3A3A3E01260
:10C42000B1AE50139002CDE0600D9002DFE0FEA3AC
:10C43000E08E25F52680139002DD12B22600000062
:10C44000007E027FDD7D0412F84FE4FFFEFDFC90CC
:10C4500002D9E0F8A3E0F9A3E0FAA3E0FBD312B11C
:10C46000AE4046E4FFFE7D80FC9002D9E0F8A3A335
:10C47000A3E012B1AE50329002DCE0F5229002D976
:10C48000E0FCA3E0FDA3E0FEA3E0FF780812B1BF4B
:10C490008F239002D9E0FCA3E0FDA3E0FEA3E0FF20
:10C4A000781012B1BF8F2480139002D912B22600E7
:10C4B0000000007E027FD97D0412F84FD39004E67D
:10C4C000E0943C9004E5E09400402FE47FA07E05DA
:10C4D000FDFC9002E1E0F8A3E0F9A3E0FAA3E0FBA1
:10C4E00012B1AE50159002E5E0C394C8500CE004C0
:10C4F000F07E027FE57D0112F84F9002E5E0C394E3
:10C50000024004D21F8002C21F9002E112B2260034
:10C510000000007E027FE17D0412F84F9002C6E029
:0CC52000FFA3E09001C3CFF0A3EFF022D6
:10E8F8009002A9E014700302E98B14700302E9A9DD
:10E9080014700302E9992403600302E9B12058094D
:10E91800306E0E204A0B203B089001867464F0800C
:10E9280005E4900186F09002AAE060179002EEE0FC
:10E938007011900295E07002A3E0601CE4900186DB
:10E94800F08015305812900295E07002A3E070082C
:10E9580012D9FB900186EFF09002FDE07002A3E06F
:10E968007019205B16900320E07010203C0D2044A5
:10E978000A90020AE07002A3E0602E203B2B204A96
:10E98800288006306E1E204A1B9001867464F08031
:10E9980018304A047F0080027F64900186EFF0807F
:10E9A80008304A05E4900186F0900186E075F0058C
:06E9B80084900335F022FB
:10D9FB009002C4E0605020434D900281E0FEA3E012
:10DA0B00FFC39002BCE09FF5319002BBE09EF53066
:10DA1B00FEAF317C007D0C12AFBA7D0A12B0218EA5
:10DA2B00308F319002C3E0241EFF9002C2E034001D
:10DA3B00FEC3E5319FEE6480F8E5306480985016A4
:10DA4B008E308F3180109002C3E0241EF53190028E
:10DA5B00C2E03400F5309004A1E0FEA3E0FFC390D8
:10DA6B000294E09FFF900293E09ECFC39531CF9538
:10DA7B0030FEEF25E0F533EE33F53290028CE0F813
:10DA8B00A3E0F9A3E0FAA3E0FBC000C001C002C011
:10DA9B0003AE32AF33EE3395E0FDFCE47B907A01BD
:10DAAB00F9F812B06DE47BD07A07F9F812F71ED0B3
:10DABB0003D002D001D000EB2FFFEA3EFEE93DFD83
:10DACB00E83CFC90028C12B21A7F407E0D7D037CE9
:10DADB000090028CE0F8A3E0F9A3E0FAA3E0FBD3FB
:10DAEB0012B198400A90028C12B22600030D407FAF
:10DAFB00C07EF27DFC7CFF90028CE0F8A3E0F9A3E2
:10DB0B00E0FAA3E0FBC312B198500A90028C12B258
:10DB1B0026FFFCF2C0E47B907A01F9F890028CE0CE
:10DB2B00FCA3E0FDA3E0FEA3E0FF12F71EA804A9EF
:10DB3B0005AA06AB07AE32EE3395E0FDFCEB2533C1
:10DB4B00FFEA3EFEE93DFDE83CFCE47B0AFAF9F80E
:10DB5B0012F71EEF2432F533E43EF532D3E533945E
:10DB6B0064E532648094804006753200753364C37B
:10DB7B00E532648094805005E4F532F533E533905B
:10DB8B00EDCC93753200F5339002C5E0FF7E00C3F8
:10DB9B00E5339F7480F865329850048E328F33AE24
:10DBAB0032AF337C007D0512B0218E328F33EF758F
:05DBBB00F005A4FF22AB
:10C80100307A0302CAC99002AAE060067E047F7EE4
:10C8110080047E057F14900312EEF0A3EFF09002E6
:10C82100CBE0700302C8D8900184E475F00112B026
:10C8310057FEC3E5F09458EE94024039E490018428
:10C84100F0A3F0900191E0FFA3E090028ACFF0A362
:10C85100EFF090019AE0FFA3E0900293CFF0A3EFF5
:10C86100F0900191740BF0A374B8F090019A74FEEA
:10C87100F0A374D4F0900191E0FEA3E0FF90049F37
:10C88100E0FCA3E0FDC39FEE6480F8EC6480985067
:10C8910008900191ECF0A3EDF090019AE0FEA3E085
:10C8A100FFD3ED9FEE6480F8EC648098400F900414
:10C8B1009FE0FFA3E090019ACFF0A3EFF09001B2C7
:10C8C100E07002A3E0602F9001B3E024FFF090013B
:10C8D100B2E034FFF0801F90049FE0FEA3E0FF90E0
:10C8E100028AEEF0A3EFF0900293EEF0A3EFF0E4F2
:10C8F1009001B2F0A3F030091E90029374FEF0A3F0
:10C9010074D4F090028A74FEF0A374D4F090032FD3
:10C9110074FEF0A374D4F0204A1F900312E0FEA32A
:10C92100E0FFD3900294E09FEE6480F8900293E0E0
:10C931006480984027D24A8023900313E024CEFFDD
:10C94100900312E034FFFEC3900294E09FEE6480F6
:10C95100F8900293E06480985002C24A204B3390D1
:10C9610002C4E09002BE600EE0FCA3E0FD7FBC7E4D
:10C971000212FAAE8005E0FEA3E0FFC39004A4E03A
:10C981009FEE6480F89004A3E06480984041D24B0C
:10C99100803D9002C4E09002BF6014E024ECFD9061
:10C9A10002BEE034FFFC7FA87E0212FAAE800BE0EB
:10C9B10024ECFF9002BEE034FFFED39004A4E09F7C
:10C9C100EE6480F89004A3E06480985002C24B208A
:10C9D1004C229002C0E0FEA3E0FFC39004A6E09FBA
:10C9E100EE6480F89004A5E06480985003305A2AE0
:10C9F100D24C80269002C1E024ECFF9002C0E034CA
:10CA0100FFFED39004A6E09FEE6480F89004A5E0B9
:10CA11006480985005205A02C24C9002CAE0B401C9
:10CA210008A24C824B925C8004A24B925C7530034D
:10CA31007531E820553B9004A1E0FEA3E0FFD395BA
:10CA410031E5306480F8EE6480984044D255204A44
:10CA510012900294E09FFF900293E09E9002A0F05A
:10CA6100A3EFF09002C9E0602730582412BC858002
:10CA71001FE53124ECFFE53034FFFEC39004A2E052
:10CA81009FEE6480F89004A1E06480985002C25542
:10CA9100900207E0FF6013D39001A9E09484900114
:10CAA100A8E0648094834002D259EF6011C39001E1
:10CAB100A9E094709001A8E0648094835002C25967
:09CAC1009002C4E07002C2592287
:10FAC100C23E9004E9E0FFC394045002D23EEFD35A
:07FAD10094194002D23E220D
:10731900307A03027C309002A9E06003027C169067
:1073290002CAE064016005C24302762D9001B8E00B
:107339007002A3E07002C25A9002C0E0FEA3E0FF0F
:10734900242CFDEE3401FC900293E0FAA3E0FBD378
:107359009DEC6480F8EA648098401A9001EDE0940D
:10736900709001ECE09417500CA3E004F0700690C3
:1073790001ECE004F0EF2418FFEE3401FEC3EB9FAB
:10738900EE6480F8EA648098400630430320580789
:10739900E49001ECF0A3F09001ECE064177004A311
:1073A900E064706021900313E024CEFF900312E0A3
:1073B90034FFFED3900294E09FEE6480F89002932C
:1073C900E0648098400630430320581B9002C0E0D7
:1073D900FEA3E0FFD39004A6E09FEE6480F890043A
:1073E900A5E06480984037304326900313E0249C3D
:1073F900FF900312E034FFFED3900294E09FEE6405
:1074090080F8900293E06480984005305802D225B4
:10741900C243D25A9001B87408F0A374CAF090021A
:10742900BDE0700302750914606B14600302761BDA
:107439003043349002BFE024ECFF9002BEE034FFF9
:10744900FEC39004A4E09FEE6480F89004A3E06476
:107459008098400302761B9001B8E07002A3E060B7
:107469000302761B0275CF9002BEE0FEA3E0FFD3B4
:107479009004A4E09FEE6480F89004A3E0648098EF
:10748900500302761B9001B8E07002A3E06003028A
:10749900761B0276083043349004A4E02414FF904C
:1074A90004A3E03400FED39004A6E09FEE6480F8C4
:1074B9009004A5E0648098500302761B9001B8E01F
:1074C9007002A3E0600302761B0275CF9004A6E068
:1074D9002432FF9004A5E03400FED39004A4E09F79
:1074E900EE6480F89004A3E0648098500302761B50
:1074F9009001B8E07002A3E0600302761B027608EF
:1075090030470D900278E0C3940A500FC247800BB0
:10751900900278E0D3945F4002D2479002AAE060DB
:10752900089002EEE07002D2479002BBE0FEA3E0B1
:10753900FF9004A3E0FCA3E0FDD39FEE6480F8EC88
:107549006480984002C24730474E304327EF24EC0D
:10755900FFEE34FFFEC3ED9FEE6480F8EC64809883
:10756900400302761B9001B8E07002A3E0600302B9
:10757900761B80529002BBE0FEA3E0FFD3ED9FEEA5
:107589006480F8EC648098500302761B9001B8E09F
:107599007002A3E0707C80673043399004A4E02432
:1075A90014FF9004A3E03400FED39004A6E09FEEFC
:1075B9006480F89004A5E064809840569001B8E092
:1075C9007002A3E0704CC2439001B87408F0A37430
:1075D900CAF0803E9004A6E02432FF9004A5E0346E
:1075E90000FED39004A4E09FEE6480F89004A3E029
:1075F900648098401D9001B8E07002A3E07013D236
:10760900439001B87408F0A374CAF0E49001ECF057
:10761900A3F0A24BB04CB05A5002D243A24CB04B8B
:107629005002C2433043059004A580039004A3E0AF
:10763900FEA3E0FF900281EEF0A3EFF09002AAE032
:1076490060099002EEE0700302770F20585C900207
:10765900C2E0FEA3E0FF900282E02FFF900281E0EA
:107669003EFED3900294E09FEE6480F8900293E08E
:10767900648098500302798B304A0302798B303B3E
:107689000302798B9001BCE0600302798BD2589098
:107699000333F0A3F0900295F0A3744BF090028CA1
:1076A90012B2260000000002798B900281E0FEA34D
:1076B900E0FF9004A1E0FCA3E0FDC39FEE6480F825
:1076C900EC6480985006AE04AF0580008E308F318F
:1076D9009002C3E02531FF9002C2E03530FEC3902D
:1076E9000294E09FEE6480F8900293E064809840F1
:1076F9000302798B900295E07002A3E0600302799E
:107709008BC25802797E305803027838900281E0A2
:10771900FEA3E0FF9002BBE0FCA3E0FDD39FEE6473
:1077290080F8EC6480984006AE04AF0580008E3086
:107739008F319002C2E0FEA3E0FF2531FDE5303E26
:10774900FCD3900294E09DEC6480F8900293E0648D
:1077590080984055D3900304E09464900303E09427
:107769000040067E007F0080009004A2E02FFF9079
:1077790004A1E03EFED3900294E09FEE6480F8906D
:107789000293E06480984021204A1E203B1B20562A
:1077990018D258900303E0FFA3E0900295CFF0A31D
:1077A900EFF0E4900333F0A3F03043059002C0807A
:1077B900039002BEE0FEA3E0FF8E308F319004A15A
:1077C900E0FEA3E0FF900293E0FCA3E0FDD39FEE6F
:1077D9006480F8EC648098401B9002C3E02531FF77
:1077E9009002C2E03530FED3ED9FEE6480F8EC6480
:1077F9008098501890018FE0FEA3E0FFD3ED9FEE33
:107809006480F8EC648098500302798B304A030253
:10781900798B303B0302798B30560302798BD2582E
:10782900900295E4F0A304F0E490033302798830E0
:1078390043059002C080039002BEE0FEA3E0FF8EE4
:10784900308F31900295E07002A3E060539004A15B
:10785900E0FEA3E0FF900293E0FCA3E0FDD39FEEDE
:107869006480F8EC648098401B9002C3E02531FFE6
:107879009002C2E03530FED3ED9FEE6480F8EC64EF
:107889008098501590018FE0FEA3E0FFD3ED9FEEA5
:107899006480F8EC6480984007E4900295F0A3F0C6
:1078A9009002C2E0FEA3E0FF9004A2E02FFF900443
:1078B900A1E03EFE9002BBE0FCA3E0FDC39FEE64A5
:1078C90080F8EC64809850028004AE04AF058E30D5
:1078D9008F31900293E0FEA3E0FFC39531E5306458
:1078E90080F8EE6480985023900334E09458900314
:1078F90033E094024015C2589002987402F0E49063
:107909000288F0A3F09001B7740FF030430590029C
:10791900C080039002BEE0FCA3E0FD8C308D319065
:1079290002C2E0FCA3E02531F531EC3530F53090A9
:10793900018FE0FCA3E0FDC39531E5306480F8ECEC
:1079490064809850048C308D31C3EF9531E53064F3
:1079590080F8EE648098502A90027FE0FEA3E0FF51
:10796900C3900334E09F900333E09E4015C25890C2
:1079790002987402F09001B7740FF0E4900288F055
:10798900A3F0305865900295E07002A3E0600C9076
:1079990002AAE060069002EEE0604FC3900334E073
:1079A90094A0900333E0948C500CA3E004F070068B
:1079B900900333E004F0E49001D0F0A3F0D24DC37A
:1079C900900334E09402900333E09400501E204366
:1079D900149001B8E07002A3E0700A9001B8740431
:1079E900F0A374B0F012F42D8002C24D203B0F2099
:1079F900550C205C09E521547E7003305909C258A1
:107A0900E49002FDF0A3F030581F9002AAE0700341
:107A1900027BE89002EEE06003027BE8900295E0C9
:107A29007002A3E07003027BE8305C03027BE8305C
:107A39004A03027BE8303B03027BE8E521547E6080
:107A490003027BE8303E03027BE8305503027BE802
:107A59009002C9E06003027BE89002AAE060099005
:107A69000443E06003027B3B900293E0FEA3E0FF46
:107A7900D39400EE64809480406FEF942CEE648080
:107A890094815065900182E0FEA3E0FF900294E0AA
:107A99009FEE6480F8900293E06480984011900111
:107AA90083E0241EF0900182E03400F012EBA690EE
:107AB9000183E024CEFF900182E034FFFEC39002EF
:107AC90094E09FEE6480F8900293E0648098500EF1
:107AD900900183E024E2F0900182E034FFF090010C
:107AE900F0E4F0A3740FF0800312F762900293E0C0
:107AF900FEA3E0FFC3942CEE648094814055EF947B
:107B0900F4EE64809481504B9001F0E0FEA3E0FF15
:107B19007C007D9612AFBAC3900289E09F900288DB
:107B2900E09E402F9001F0E4F0A3740FF012EBA651
:107B39008021C3900294E094F4900293E0648094CD
:107B49008150109001F0E4F0A3740FF0E4900288E2
:107B5900F0A3F0900293E0FEA3E0FFC394F4EE6477
:107B69008094814046EF94BCEE64809482503C90AE
:107B790001F1E094069001F0E094004006E4F0A3DE
:107B89007406F09001F0E0FEA3E0FF7C007D961200
:107B9900AFBAC3900289E09F900288E09E400C90A2
:107BA90001F0E4F0A37406F012EBA6C3900294E08E
:107BB90094BC900293E06480948240239001F0E4A5
:107BC900F0A37403F07C007D96FF7E0012AFBAC368
:107BD900900289E09F900288E09E400312EBA690F4
:107BE90002AAE0600512A28E8035E4900443F0C237
:107BF9006EC26F90028AE0FEA3E0FF90042BEEF0C4
:107C0900A3EFF0900429EEF0A3EFF080129002A9FF
:107C1900E0B40107A3E0600312A28EC258C2431266
:087C2900F32C9001DDEFF022C5
:10EBA600E4900288F0A3F09001BCE0FF707690023A
:10EBB600AAE06007900292E0FE80027E19EEFD90C8
:10EBC60002FDE4F0A3EDF090018DE07002A3E07089
:10EBD60053D390020DE0942C90020CE09401404433
:10EBE600900293E0FCA3E0FDD394C8EC648094808B
:10EBF6004032EF702F90018D04F0A3742CF0900436
:10EC0600A1E0FFA3E0900180CFF0A3EFF090031CFA
:10EC1600ECF0A3EDF090028AE0FFA3E090030CCFA6
:05EC2600F0A3EFF02255
:10F98400E4FF9002D0E0FE30E0010FEE30E1010F21
:10F99400EE30E2010FEE30E3010FEE30E4010FEE42
:0FF9A40030E5010FEE30E6010F900209EFF0227F
:10F32C00305C037F0022203B033055037F01229089
:10F33C0002FDE07002A3E060037F042230581F90AE
:10F34C0002AAE060169002EEE07010900295E07058
:10F35C0002A3E060037F05227F03227F0322900239
:10F36C00A9E060037F0622E521547E60037F07221B
:09F37C00306F037F02227F08229A
:10F48000900211E0602614F07047851A8285198376
:10F49000A3E020E114E51A2412F582E43519F5837E
:10F4A000E04480F0D264D25022C2642230501EC2A6
:10F4B00050851A82851983A3E020E111E51A2412F0
:10F4C000F582E43519F583E0547FF0C264A26492BA
:02F4D000042214
:10F5C100E4F5AE75A64C751910F51AE51A2405F582
:10F5D10082E43519F583E4F0E51A2412F582E43565
:10F5E10019F5837404F0E51A2407F582E43519F559
:10F5F100837401F0E51A2414F582E43519F5837456
:0AF6010084F0439104D288D2A822BD
:10DBC0009002A9E0FF6003B40104C246C257304688
:10DBD0000A9001D612B226000000149001D6E0FC93
:10DBE000A3E0FDA3E0FEA3E0FFEC4D4E4F70030267
:10DBF000DC8A9002A9E0FF64026038EF64036033BE
:10DC00009002CDE0FF6401602AEF64036025EF64B9
:10DC10003260209004E9E0FFB407099004E8E0D303
:10DC200094295006EFD3940740609004E9E0C39430
:10DC3000205057E47B1EFAF9F89001D6E0FCA3E0EF
:10DC4000FDA3E0FEA3E0FF12B0F8AC00AD01AE0210
:10DC5000AF03E47B0EFAF9F8C312B1AE500575C6F6
:10DC6000568003E4F5C69001D6E0FCA3E0FDA3E0F6
:10DC7000FEA3E024FFFFEE34FFFEED34FFFDEC34A5
:10DC8000FFFC9001D612B21A8019E5C6B45603E41F
:10DC9000F5C630380EC238E5C6700575C6AD8003CE
:10DCA000E4F5C69004C0E07002A3E0601E9002CDCF
:10DCB000E06004E5106014E5C2D39404400874FCED
:10DCC00025C2F5C2801BE4F5C280169004CDE07039
:10DCD00002A3E0600375C2ADE5C2C394AD50020576
:10DCE000C29002CDE06039E51070359004CDE0704F
:10DCF00002A3E0600280269004BEE030E710E5C297
:10DD0000D39428400474FA800EE4F5C28012E5C270
:10DD1000C394AD5008740625C2F5C2800375C2AD28
:10DD2000900329E0D3946440037464F0900329E0E5
:10DD300075F0ADA4FFAEF07C007D6412AFCC8FC453
:10DD40009002CAE0D39401503320570A3043189010
:10DD500001DDE0B40311E51A2405F582E43519F577
:10DD6000837401F0D24122900298E0700FE51A24EA
:0DDD700005F582E43519F583E4F0C2412287
:10BC8500307A0302BF6A900312E0FEA3E0FF900240
:10BC950093E0FCA3E0FDD39FEE6480F8EC6480980C
:10BCA500500302BD5D90029CE07002A3E0701D9000
:10BCB50004A1E0FAA3E0FBC3ED9BFEEC9A9002A081
:10BCC500F0A3CEF0900284EAF0A3EBF0C390029DBE
:10BCD500E094E090029CE0942E500EA3E004F070F6
:10BCE5007290029CE004F0806A9004E9E0FFC3943E
:10BCF500225006EFC39404501FE47FB4FEFDFC9070
:10BD050002E1E0F8A3E0F9A3E0FAA3E0FBC312B176
:10BD1500AE4005205402D21A3058342054319001D7
:10BD2500BEE0702B201A287F1EFEFDFC9002E1E08C
:10BD3500F8A3E0F9A3E0FAA3E0FBC312B1AE400F0C
:10BD45009002C9E07004D21080057F0D12F4D2D2A2
:10BD550054D23B305402D23B900313E024ECFF90C5
:10BD65000312E034FFFE900293E0FCA3E0FDC39FC5
:10BD7500EE6480F8EC6480985007E490029CF0A390
:10BD8500F0C3ED948AEC64809482502B303B1F9075
:10BD9500028AE0FFA3E090030CCFF0A3EFF0304060
:10BDA50006900320744BF0E4900288F0A3F0C23BA8
:10BDB500E4900284F0A3F09002C9E0604D30584A47
:10BDC500305547A3E060249004A3E0FEA3E0FFA361
:10BDD500E0FCA3E0FD12FA5AC3EF9452EE6480949E
:10BDE5008350047F01801B7F008017C39004A4E06B
:10BDF50094529004A3E06480948350047F018002F0
:10BE05007F00EF60057F0C12F4D23009057F160222
:10BE1500BEE4300A057F1702BEE4300B057F180229
:10BE2500BEE4300C057F1A02BEE4200D339002BE3D
:10BE3500E0FCA3E0FD7F847E0312FA5A8E328F3335
:10BE4500E5332432FFE43532FED39004A4E09FEEBF
:10BE55006480F89004A3E0648098401BD20D80179D
:10BE6500C39004A4E09533E5326480F89004A3E020
:10BE75006480985002C20D300D047F228061200E2F
:10BE85003A9002CAE0B401339002C0E0FCA3E0FDA1
:10BE95007F847E0312FA5A8E328F33E5332432FFC4
:10BEA500E43532FED39004A6E09FEE6480F890045A
:10BEB500A5E06480984023D20E801FC39004A6E0BD
:10BEC5009533E5326480F89004A5E06480984008D5
:10BED5009002CAE064016002C20E300E057F2302A3
:10BEE500F4D2200F15C390028AE064809480502C10
:10BEF5009002AAE06026D20F801CD390028BE094BA
:10BF05000A90028AE06480948050069002AAE0704C
:10BF150002C20F3009069001A374AAF0300F232046
:10BF250009209001A3E0B401197F3212F4D29003E5
:10BF350007E07002A3E0700A900307740BF0A37486
:10BF4500D0F09002C9E0601D9002DDE0FCA3E0FDA9
:10BF5500A3E0FEA3E0FFEC4D4E4F60099002CDE05B
:06BF6500700312B98F22E7
:10F4D2008F389002CDE0B538119001CBE538F0902D
:10F4E20003157402F0A374F8F0229002CDE538F00F
:10F4F20012B98F7E027FCD7D0112F84F900307E093
:10F502007002A3E0700B9001DEE06005AF3812EBF1
:10F512000912F9849001D612B226000DBBA012EF97
:02F522002222A3
:10F3DA008F389002CDE0F5179001CBE538F012B9DD
:10F3EA008FE53824649002CDF012F98412EF22904E
:10F3FA0002CDE517F06538601FE53814FF74017E09
:10F40A0000A807088005C333CE33CED8F9F4FFEE3F
:10F41A00F4FEEF5226EE52259003157402F0A374FF
:03F42A00F8F022D5
:10F76200900293E0FFA3E0900182CFF0A3EFF0E0DC
:10F77200241EF0900182E03400F0E0FEA3E0FF7C62
:10F78200007D1E12B021900182EEF0A3EFF07C000A
:0EF792007D1E12AFBA900182EEF0A3EFF022BE
:10EF22009002FBE0FF9002CDE0FE6F6069EF246487
:10EF3200FDE433FCEE6D7001EC605B900307E07062
:10EF420002A3E060099002D6E0D3940450489001F5
:10EF5200ADE004F0D39402503D9002CDE09002FB6C
:10EF6200F09002D6E004F07E027FD67D0112F84FC7
:10EF720012CACA9002D6E01475F0058485F018E52D
:10EF82001875F064A42400FFE5F03401FE7C027DD4
:07EF9200147B6012F1AF22B5
:10CACA009002147447F09004EAE0900215F0900482
:10CADA00EBE0900216F09004ECE0900217F090045C
:10CAEA00E9E0900218F09004E8E0900219F0900250
:10CAFA00CDE090021AF09001DDE090021BF0900464
:10CB0A0043E090021CF09004C3E0FFA3E090021DF2
:10CB1A00CFF0A3EFF09004A1E0FFA3E090021FCFB3
:10CB2A00F0A3EFF09004A3E0FFA3E0900221CFF07E
:10CB3A00A3EFF09004A5E0FFA3E0900223CFF0A3B7
:10CB4A00EFF0900186E0900225F03041047F0180E9
:10CB5A00027F00900226EFF09001FAE0FFA3E09036
:10CB6A000227CFF0A3EFF090032AE0FCA3E0FDA395
:10CB7A00E0FEA3E0FF90022912B21A9002FFE0FC45
:10CB8A00A3E0FDA3E0FEA3E0FF90022D12B21A90EB
:10CB9A000189E0FCA3E0FDA3E0FEA3E0FF900231DF
:10CBAA0012B21A7B407A19790178009002D1E0FC1E
:10CBBA00A3E0FDA3E0FEA3E0FF12B0F89002351255
:10CBCA00B21A90040AE0FFA3E0900239CFF0A3EF73
:10CBDA00F0900209E090023BF09004E5E0FFA3E048
:10CBEA0090023CCFF0A3EFF09001BAE0FFA3E090EF
:10CBFA000266CFF0A3EFF090019CE0900268F090FB
:10CC0A0002A9E090023EF09002AAE090023FF09062
:10CC1A0002BBE0FFA3E090024BCFF0A3EFF090023B
:10CC2A00BDE090024DF09002BEE0FFA3E090024EFC
:10CC3A00CFF0A3EFF09002C0E0FFA3E0900250CF44
:10CC4A00F0A3EFF09002C2E0FFA3E0900252CFF00F
:10CC5A00A3EFF09002C4E0900254F09002C5E09075
:10CC6A000255F09002C6E0FFA3E0900256CFF0A36F
:10CC7A00EFF09002C8E0900258F09002C9E09002EA
:10CC8A0059F09002CAE090025AF09002CBE090026A
:10CC9A005BF09002EEE0900269F090032FE0FFA3B0
:10CCAA00E090026ACFF0A3EFF09002EFE0FCA3E07D
:10CCBA00FDA3E0FEA3E0FF90026C12B21A90027B81
:10CCCA00E0FCA3E0FDA3E0FEA3E0FF90027012B235
:10CCDA001A900279E0900240F0900297E0900241A7
:10CCEA00F09001FCE0900242F0900299E090024339
:10CCFA00F0900283E0900244F09001E5E090024651
:10CD0A00F09001E6E0900247F09001E7E0900248D7
:10CD1A00F09001E8E0900249F09001E9E090024ABF
:10CD2A00F090025C7402F0A37414F09002D6E090C2
:10CD3A00025EF09001DEE0900261F09001DFE09087
:10CD4A000262F09001E0E0900263F09001E1E0906D
:10CD5A000264F09001E2E0900265F09001E3E0FFE6
:0BCD6A00A3E090025FCFF0A3EFF022E7
:10F07B00E49002D6F09002FBF09001ADF07E027F9F
:10F08B00D67D0112F84F9002FC74FFF07C027DFCE0
:10F09B007B017401FFFE12F1AF7C027DFC7B017FD3
:10F0AB00657E0112F1AF7C027DFC7B017FC97E0185
:10F0BB0012F1AF7C027DFC7B017F2D7E0212F1AF42
:10F0CB007C027DFC7B017F917E0212F1AFE490020A
:0BF0DB00D0F07E027FD07D0102F84FD4
:105370009004E9E0FFC394154003025600303E0359
:105380000256009001D1E094C29001D0E094015007
:1053900003025600303B03025600900293E0FCA348
:1053A000E0FD94F4EC648094815057ED94C8EC6473
:1053B000809480404D900443E0B4034690018DE01A
:1053C0007002A3E0703C9001BCE0703690018D0447
:1053D000F0A3742CF09004A1E0FDA3E0900180CD37
:1053E000F0A3EDF0900293E0FDA3E090031CCDF05C
:1053F000A3EDF090028AE0FDA3E090030CCDF0A3B2
:10540000EDF09002CCE0705E900293E0FCA3E0FD32
:10541000C3942CEC64809481504CED94C8EC64806F
:1054200094804042EFD39412403C9001DCE070360F
:1054300090018DE07002A3E0702CD390020DE094F7
:105440002C90020CE09401401DE47FF0FEFDFC90E6
:1054500002E1E0F8A3E0F9A3E0FAA3E0FBD312B184
:10546000AE400312EBA690018DE0FEA3E0FFC394D3
:105470002CEE94014028E49001D2F0A3F09002A019
:10548000F0A3F09001DCE0700374FFF0900187E07E
:10549000FDA3E0900331CDF0A3EDF0025600EF4EF6
:1054A0007003025600204D069001BCE060030255D7
:1054B000F9900290E0FEA3E07803CEC313CE13D898
:1054C000F9FFC3742C9FF53174019EF53090018073
:1054D000E0FEA3E0FFC312F92A9001EAEEF0A3EF89
:1054E000F0900331E0FEA3E0FF90031CE0FCA3E09A
:1054F000FD90018DE0FAA3E0FBC3742C12F7E0C32A
:10550000900294E090029312F9319001D4EEF0FCF5
:10551000A3EFF0FD9001EA12FA5512FA4E9002A0A4
:10552000EEF0A3EFF09001D2E0FEA3E0FF9002CBFB
:10553000E06005900191800390028AE0FCA3E0FD09
:10554000C390030DE09DFD90030CE09CFC12FA5A01
:105550009001D2EEF0A3EFF0C39002A1E0940F907F
:1055600002A0E06480948050139001D3E0940F90E7
:1055700001D2E06480948050030256009001DC74F4
:1055800001F030560690031474F6F0E47F3CFEFD03
:10559000FC9002E1E0F8A3E0F9A3E0FAA3E0FBD37A
:1055A00012B1AE403790018EE0953190018DE095BB
:1055B0003040299002CBE07E0060047F3280027F81
:1055C00028C39001D3E09FEE6480F89001D2E0649C
:1055D000809840089001BEE07002D21CC390018EFA
:1055E000E0953190018DE09530501590020DE094DA
:1055F0000190020CE094004007E490018DF0A3F0CC
:105600009004E9E0641570479004E8E0704190016F
:10561000DCE0D3648094805036E47F2C7E01FDFC76
:105620009002E1E0F8A3E0F9A3E0FAA3E0FB12B1F5
:10563000AE401C900309E06003301013D390033098
:10564000E0942C90032FE0648094814002D21120DA
:105650003E030256D2900431E0FEA3E0FFC394A0C3
:10566000EE64809480406BE49FFFE49EFE7C007DAE
:105670000F12B021C3900422E09FEE6480F89004E2
:1056800021E0648098404BD390020DE09496900204
:105690000CE09400500E90040DE0940A90040CE08D
:1056A0009400502E203B2BC39001D1E09428900110
:1056B000D0E09423401C9001BCE070169001BEE045
:1056C000701090031FE004F0700F90031EE004F0D0
:1056D0008007E490031EF0A3F0D390031FE094082A
:1056E00090031EE09407402B900294E09496900261
:1056F00093E064809480401B203711D2129001F611
:10570000E0FFA3E0900305CFF0A3EFF0E490031EC9
:10571000F0A3F09004E9E0C394165006203E030283
:10572000580D900443E06403600302580D90020892
:10573000E0600302580D9002F9E0600302580D90FA
:1057400001B7E0600302580D90020FE07002A3E081
:10575000600302580D30560302580D900314E064A4
:10576000F6700302580DD39002A8E0942C9002A783
:10577000E09401500302580DE47F2C7E01FDFC9063
:1057800002E1E0F8A3E0F9A3E0FAA3E0FBD312B151
:10579000AE407A9001BCE07074900429E0FEA3E072
:1057A000FF945EEE648094815063EF943CEE6480DD
:1057B0009480405990020F7401F0A374C2F0E490F9
:1057C00001D2F0A3F09001EAF0A3F09002A0F0A3C0
:1057D000F090028AE0FFA3E090030CCFF0A3EFF07B
:1057E0009004A1E0FFA3E0900180CFF0A3EFF09040
:1057F00001F2E0FFA3E0900331CFF0A3EFF09001BE
:1058000098E0FFA3E0900305CFF0A3EFF090020F24
:10581000E0FAA3E0FBD39400EA94005003025AF9A3
:10582000900331E0FEA3E0FF90030CE0FCA3E0FD59
:1058300012F7DE8E308F319001BCE07003304D15D1
:10584000900443E0640370030258D2E490020FF026
:10585000A3F00258D29002A0E0FEA3E0FFC39002A2
:105860008BE09531FD90028AE09530FC12FA5A9057
:1058700002A0EEF0A3EFF09001D2E0FEA3E0FF90D3
:10588000028AE0FCA3E0FDC3E5319DFDE5309CFC10
:1058900012FA5A9001D2EEF0A3EFF0900305E0FE69
:1058A000A3E0FF900180E0FCA3E0FD90020FE0FA8E
:1058B000A3E0FBC312F7DEC39004A2E09FFD9004B7
:1058C000A1E09EFC9001EA12FA559001EAEEF0A3E5
:1058D000EFF09002A0E0FEA3E0FFC39403EE64802B
:1058E00094805003025995D3900210E0942C9002BA
:1058F0000FE094014003025995E4F0A3F090042DC9
:10590000E07002A3E0700302598E9002CCE06401C3
:10591000707CD390042AE0945A900429E064809427
:1059200080406B9002A4E07065203A629001BEE076
:10593000705C900276E0FCA3E0FDD394D8EC648028
:10594000947F400AEF941EEE64809480501BD3ED48
:105950009414EC6480948040359002A1E0941490FB
:1059600002A0E0648094804025C39004A2E09426C5
:105970009004A1E0648094824003025AF99001A649
:10598000E004F070069001A5E004F0025AF9E490FA
:1059900001A5025AF6C39002A1E094039002A0E090
:1059A0006480948050489001D3E0940A9001D2E042
:1059B000648094804038D3900332E0943290033175
:1059C000E0648094804027900210E0942C90020FB5
:1059D000E094014019900443E0640360119002A434
:1059E000E0700B304E08D22490020F025AF690025B
:1059F0000FE07004A3E064016003025AF9C390024F
:105A000000E0946A9001FFE06480947F4003025AB2
:105A1000F9C390040BE0940A90040AE09400500348
:105A2000025AF99001BEE06003025AF99002C7E001
:105A300094969002C6E09400504CC3900199E09473
:105A400032900198E064809480503B9001EAE0FE3F
:105A5000A3E0FF12F936D3EF9403EE6480948050F4
:105A600025900180E0FEA3E0FFC39004A4E09FFF27
:105A70009004A3E09EFE12F936D3EF9432EE6480D8
:105A800094804002D213900309E0700330543A909E
:105A9000028BE024CEFD90028AE034FFFC7FB47ECE
:105AA0000012FA5AD39004A2E09FEE6480F89004AA
:105AB000A1E06480984012900332E0947E9003311C
:105AC000E06480947F5002D21430132D30142AD316
:105AD0009001DBE094849001DAE09403401B201AEB
:105AE00018304E15900209E09403500D9001AEE07D
:105AF00004F0E49001DAF0A3F0900186E09002084F
:105B0000F0900443E06405705B90020EE0C39401E2
:105B10004052900445E09484900444E09403403D56
:105B2000E47F2C7E01FDFC9002E1E0F8A3E0F9A304
:105B3000E0FAA3E0FBD312B1AE4022D39002A8E07A
:105B4000942C9002A7E094014013D39004A2E09417
:105B5000969004A1E0648094804002D215E4900401
:105B600044F0A3F09004E9E0FFD394225006EFC381
:105B70009404507B90028AE0FEA3E0FFD3942CEEC5
:105B8000648094814069900322E02464FD900321A5
:105B9000E03400FCD3EF9DEC6480F8EE6480984024
:105BA0004ED3900426E094BE900425E06480947F58
:105BB000403D9001B7E070379002F9E0940F502F0C
:105BC000C39001D1E094269001D0E094344020901D
:105BD00001BEE0701A205417D390020DE0942C906F
:105BE000020CE09401400890031BE07002D216C33F
:105BF00090020DE0942C90020CE094015003025CA2
:105C0000C4900188E094B8900187E06480948B5040
:105C1000459004A2E0244CFF9004A1E034FFFE7CF8
:105C2000007DF012AFBA7D1F12B021AC06AD077F28
:105C3000DC7E0512FA5AC006C007900198E0FEA368
:105C4000E0FF12F936D005D004C3EF9DEC6480F874
:105C5000EE648098406ED3900188E09400900187B4
:105C6000E064809480405D203B5A9001F4E0700233
:105C7000A3E07050D39001D1E0945E9001D0E09405
:105C80001A4041900200E094A79001FFE0648094E4
:105C9000805031205C2E9001BEE070289001F47499
:105CA0000EF0A374A6F09001C1E0FFA3E09002A261
:105CB000CFF0A3EFF09001CCE0FFA3E09002F7CF8C
:105CC000F0A3EFF09001F4E0FEA3E0FF4E700302BA
:105CD0005E0BD3EF9422EE940B5003025D8590048B
:105CE000A2E0244CFF9004A1E034FFFE7C007DC8BC
:105CF00012AFBA7D1F12B021AC06AD077F247EFA29
:105D000012FAAEC3900199E09FEE6480F89001987A
:105D1000E06480984003025DA1900188E094D090F7
:105D20000187E06480948740789002A3E02428FFF4
:105D30009002A2E03400FED3900294E09FEE6480D3
:105D4000F8900293E064809840579001B7E070515A
:105D50009002F8E024F1FF9002F7E034FFFEC390D8
:105D600004A2E09FEE6480F89004A1E06480985063
:105D700030D222E49001F4F0A3F0900198F0A3F067
:105D80009001878019C3900198E064809480400A54
:105D9000900187E0648094805007E49001F4F0A3C0
:105DA000F0900186E070069001BCE06007E490018D
:105DB000F4F0A3F09002A3E02432FF9002A2E034BA
:105DC00000FED3900294E09FEE6480F8900293E08E
:105DD00064809840369002F8E02432FF9002F7E0A9
:105DE0003400FED39004A2E09FEE6480F89004A1FA
:105DF000E06480984015D218E4900327F0A3F09057
:105E0000031EF0A3F09001F4F0A3F0900320E0FF54
:105E100060069001BC7402F0EF640170469002CB02
:105E2000E06005900191800390028AE0FEA3E0FF0C
:105E300090030DE024C4FD90030CE034FFFCC3EF9D
:105E40009DEC6480F8EE6480985002D219E49003CF
:105E500020F09001BCF09001B7741EF0E49002882D
:105E6000F0A3F0204D03025EE99001BEE0707A904D
:105E7000030AE0FEA3E0FF900293E0FCA3E0FDD361
:105E80009FEE6480F8EC648098400890030AECF080
:105E9000A3EDF090029AE07002A3E0701FD3ED949E
:105EA000E8EC6480948340149004A1E0FEA3E0FF3A
:105EB000ED9FFFEC9E90029AF0A3EFF0C3ED94B635
:105EC000EC648094835007E490029AF0A3F0C390AE
:105ED000031AE09494900319E09411500CA3E00489
:105EE000F07006900319E004F0900319E0FEA3E0BF
:105EF000FFC3942CEE94015003025FBDD39001D1F7
:105F0000E094019001D0E09400500DEF64DC700348
:105F1000EE64056003025FBD9004E9E0FFD39421C5
:105F20005006EFC39404503E20543BC390030BE053
:105F3000945890030AE064809482402AE47FB4FE7F
:105F4000FDFC9002E1E0F8A3E0F9A3E0FAA3E0FB96
:105F5000D312B1AE401090031AE094C2900319E03E
:105F600094014002D21A205C52204A51203B4E90AC
:105F70000293E0FEA3E0FF240FFDE43EFCD3900378
:105F80000BE09DEC6480F890030AE0648098502B4D
:105F90009002C2E0FCA3E0FDC3EF9DFFEE9CFED3A8
:105FA0009004A2E09FEE6480F89004A1E0648098E1
:105FB0005009900186E0C3945F5002D242D3900111
:105FC000D1E094019001D0E094004052900319E098
:105FD000FEA3E0FFD3944BEE94004042D3EF9458DD
:105FE000EE94024023203B2020551D204A1A9004A5
:105FF000A1E0FEA3E0FF900294E09FFF900293E0F7
:106000009E9001B0F0A3EFF030420C303B03305CC7
:10601000069003097401F0E4900319F0A3F0304DE9
:1060200067305D64205461900290E0FEA3E0FFD3EE
:10603000900334E09F900333E09E504C9002CBE0FD
:106040006005900191800390028AE0FEA3E0FFC307
:1060500090030DE09FFF90030CE09EFED3EF943C75
:10606000EE6480948040219001BEE0701B7F3CFE76
:10607000FDFC9002E1E0F8A3E0F9A3E0FAA3E0FB65
:10608000D312B1AE4002D21BC39001A6E09404909B
:1060900001A5E094004006D21DE4F0A3F0E47FC027
:1060A0007E4EFDFC9002E1E0F8A3E0F9A3E0FAA344
:1060B000E0FBD312B1AE40139002E5E0600DC21FC9
:1060C000E4F07E027FE57D0112F84FC3900188E085
:1060D0009430900187E0648094784003026172906C
:1060E00001D1E0942C9001D0E09401500302617240
:1060F000900293E0FEA3E0FFD394C8EE6480948006
:1061000040709004E9E0FDD394074066ED94175089
:106110006120545EC39001ABE09FFF9001AAE09E16
:10612000FE3395E08F338E32F531F530FDAC30E43F
:106130007B2C7A01F9F812B06D8F338E328D318C51
:1061400030E47B23FAF9F812F71E8F338E328D314B
:106150008C30900187E0FEA3E0FFEE3395E0FDFC7C
:10616000AB33AA32A931A830D312B1984004D2512E
:10617000D2209004E9E0FFC39408400302625DEF7F
:106180009402500302625D9002CCE0600302625D03
:10619000900426E0940A900425E0648094804003F3
:1061A00002625DC39001F7E0940A9001F6E064801A
:1061B0009480400302625D900274E0FEA3E0FFC39E
:1061C0009001C0E09FFF9001BFE09EFE12F936C330
:1061D000EF941EEE64809480400302625D9004A1FF
:1061E000E0FEA3E0FF24D8FDEE34FFFCC390028B59
:1061F000E09DEC6480F890028AE0648098505EC371
:10620000900432E0940A900431E064809480504D10
:1062100090020DE094A090020CE0948C403F90011D
:10622000BCE07039D3EF9404EE64809481405ED377
:10623000900426E09488900425E06480947F404D8B
:10624000D39001F7E094889001F6E06480947F4059
:106250003C90030E7408F0A374CAF08030D390020F
:106260000DE0940190020CE094005009E490030EBC
:10627000F0A3F0801890030EE07002A3E0600E908F
:10628000030FE024FFF090030EE034FFF090030EC4
:10629000E07002A3E0605E900203E024C4FF90027D
:1062A00002E034FFFEC3900432E09FEE6480F89079
:1062B0000431E0648098503DC3900188E09FEE6413
:1062C00080F8900187E0648098502A9001F7E024DC
:1062D000C4FF9001F6E034FFFEC39001C0E09FEEE2
:1062E0006480F89001BFE06480985009D221E49066
:1062F000030EF0A3F09004E9E0C394164065D39038
:106300000200E0947B9001FFE06480947F5054C3CE
:10631000900203E0947B900202E06480947F5043FB
:10632000305403303E3D90041EE0FEA3E0FF7C00AD
:106330007D6412B021EF2432FFE43EFED3900322AD
:10634000E09FEE6480F8900321E064809840142080
:106350003711900327E07002A3E07007900327F045
:10636000A304F0900327E07002A3E0605BC39004F5
:1063700022E09404900421E064809481404AD39008
:106380000188E09400900187E06480948040399017
:1063900001D1E094289001D0E09423402B9001B7E4
:1063A000E07025D390020DE0942C90020CE0940153
:1063B00040169001BEE07010900328E004F0700FCA
:1063C000900327E004F08007E4900327F0A3F0D3C4
:1063D000900328E094EE900327E09402402A900373
:1063E00022E0241EFF900321E03400FED390028BB4
:1063F000E09FEE6480F890028AE06480984009D2C1
:1064000023E4900327F0A3F0303304C223C2122206
:108DAA0075300775312D305606753002753158D336
:108DBA009002C7E094D09002C6E09407400C741A5F
:108DCA002531F53174043530F53020100330111394
:108DDA0090020AE07002A3E07009900314E07003A5
:108DEA0074F7F0900314E0FFB4F7189004E9E0C3B5
:108DFA009420400FD390020DE094C290020CE094AC
:108E0A00015069900443E0B40514D39004A2E0949D
:108E1A00659004A1E064809480400330564EEF646C
:108E2A00F66049900314E064F86003028F629004CC
:108E3A00E9E0FFC394075003028F62EF94124003E4
:108E4A00028F62900309E06003028F62900294E04D
:108E5A009490900293E0648094815003028F629010
:108E6A00018DE07002A3E06003028F629001F4E0DA
:108E7A007002A3E06003028F6290020FE07002A307
:108E8A00E06003028F6290018DE07002A3E060034C
:108E9A00028F62304D03028F629001BCE0600302D0
:108EAA008F62205651900314E064F860499002934F
:108EBA00E0FEA3E0FFC39490EE6480948140030235
:108ECA008F629004A1E0FCA3E0FDC3EF9DFFEE9C3E
:108EDA00FE12F936D3EF9432EE64809480501790E4
:108EEA0004A3E0FEA3E0FFC312F92AD3EF9432EE03
:108EFA0064809480406290020AE530F0A3E531F084
:108F0A00E49002A0F0A3F09001BC04F0900293E078
:108F1A00FFA3E090031CCFF0A3EFF09004A1E0FFC1
:108F2A00A3E0900180CFF0A3EFF09001B7E06005D5
:108F3A009001878003900431E0FEA3E0FF900331A3
:108F4A00EEF0A3EFF0900314E0B4F804D23D8002EF
:108F5A00C23D9003147409F090020AE0FAA3E0FB00
:108F6A00D39400EA940050030290AA900331E0FEE1
:108F7A00A3E0FF90031CE0FCA3E0FDE5319BFBE5C9
:108F8A00309AFA12F7E6C3900294E09FFF90029398
:108F9A00E09EFE12F9369001D4EEF0A3EFF0E5312F
:108FAA0024B5FFE53034FFFEC390020BE09F900228
:108FBA000AE09E400D12F9229001EAEEF0A3EFF0CA
:108FCA008007E49001EAF0A3F09001D4E0FEA3E068
:108FDA00FF9001EAE0FCA3E0FD12FA5A12FA4E9061
:108FEA0002A0EEF0A3EFF0303D4C204D38E53124DD
:108FFA003EFFE53034FEFEC390020BE09F90020A6A
:10900A00E09E505D9004A2E02432FF9004A1E03477
:10901A0000FEC390028BE09FEE6480F890028AE023
:10902A00648098503CE490020AF0A3F09001BCF0EE
:10903A00900314F0802BC39002A1E094149002A034
:10904A00E064809480401A900443E064056012E46E
:10905A0090020AF0A3F0C2119001BCF0900314042C
:10906A00F090020AE07004A3E06401702D9001BC44
:10907A00F0D39004A2E094649004A1E06480948008
:10908A004013203D1090031474FFF0900317E4F08E
:10909A00A304F08005E4900314F09001B7743CF047
:1090AA0020121A30160B90032EE0C364809481407C
:1090BA000C2018092022062023033024669001BCC4
:1090CA00E0706020335D20215A203B57204A54200B
:1090DA004D519001A1F0A374E1F090028AE0FEA341
:1090EA00E0FF90031CEEF0A3EFF09004A1E0FDA3D3
:1090FA00E0900180CDF0A3EDF0E49001D2F0A3F06E
:10910A009002A0F0A3F09001F6E0FDA3E090030521
:10911A00CDF0A3EDF0900195EEF0A3EFF09001BC35
:10912A007403F09001A1E07002A3E0700302924080
:10913A00304D0FE49001A1F0A3F09001BCF0900330
:10914A002EF090028AE0FEA3E090019512FAA89010
:10915A000195EEF0A3EFF0D39001A2E0949690016E
:10916A00A1E094004004D25B8002C25B9002A0E0BE
:10917A00FEA3E0FF90031CE0FCA3E0FDC390028B7A
:10918A00E09DFD90028AE09CFC12FA5A9002A0EE41
:10919A00F0A3EFF09001D2E0FEA3E0FF90028AE094
:1091AA00FCA3E0FDC390031DE09DFD90031CE09C21
:1091BA00FC12FA5A9001D2EEF0A3EFF09001A1E06E
:1091CA007004A3E0640170709001B704F09001D2BA
:1091DA00E0FEA3E0FFD3940AEE64809480400890F6
:1091EA00032E74FFF0802E9001B7741EF0C3900214
:1091FA00A1E0940A9002A0E0648094804012EF9467
:10920A0005EE64809480500890032E7401F0800566
:10921A00E490032EF09002F9741EF0E49001BCF081
:10922A009001A1F0A3F0C25B900327F0A3F0900392
:10923A001EF0A3F08002C25B20130330145C90017D
:10924A00BCE07056203B53204A50900204E0704A1A
:10925A009001F4E07002A3E070409001EEE530F076
:10926A00A3E531F090028AE0FEA3E0FF9002A2EEAD
:10927A00F0A3EFF090031CEEF0A3EFF09004A1E04E
:10928A00FFA3E0900180CFF0A3EFF09001F2E0FF9E
:10929A00A3E0900331CFF0A3EFF09001EEE0FAA340
:1092AA00E0FB4A700302949D900331E0FEA3E0FFC5
:1092BA0090031CE0FCA3E0FDC3E5319BFBE5309A7B
:1092CA00FA12F7E68E328F339002A2E0FEA3E09004
:1092DA00028A12FAA89002A2EEF0A3EFF09001BC63
:1092EA007404F09001EEE0FAA3E0FB7C007D96FFA7
:1092FA00AE0212AFCCD3ED9425EC94005004D244C4
:10930A008002C244301335201432900204E0702CDB
:10931A00E53124B5FFE53034FFFED3EB9FEA9E40EA
:10932A001B12F922D3EF9414EE64809480400DE46A
:10933A009001BCF09001EEF0A3F0C2139002A2E0FB
:10934A00FCA3E0FDAF33AE3212FAAEEF2405FFE420
:10935A003EFE90028AE0FCA3E0FDC39FEE6480F823
:10936A00EC648098404A30142D20132A20100330D0
:10937A001124D39001DBE0941E9001DAE0940040BE
:10938A0015900209E09403500D9001AEE004F0E458
:10939A009001DAF0A3F09002047401F0E49001EE77
:1093AA00F0A3F09001BCF09001B7743CF002949FD6
:1093BA00E53324D8FFE53234FFFEC3ED9FEE648027
:1093CA00F8EC648098505E900204E070507F2C7E26
:1093DA0001FDFC9002E1E0F8A3E0F9A3E0FAA3E0C2
:1093EA00FB12B1AE4037D39002A8E0942C9002A7AA
:1093FA00E09401402820130C9001BDE004F0E490B1
:10940A0002F58016900209E0C39403501030140D3F
:10941A009001AEE004F0E49001DAF0A3F0900204C7
:10942A0074FFF080309001EEE07004A3E0640170F4
:10943A0064E53324F6FFE53234FFFEC390028BE085
:10944A009FEE6480F890028AE06480984007900258
:10945A0004E0B4FF2A9001EEE530F0A3E531F09084
:10946A00028AE0FFA3E090031CCFF0A3EFF0900480
:10947A0021E0FFA3E0900331CFF0A3EFF080169034
:10948A00031474F6F090020474FEF09001BC7401A7
:10949A00F08002C2449001C5E0FCA3E0FDA3E0FE17
:1094AA00A3E0FFEC4D4E4F6052E47BCA7A08F9F80C
:1094BA009001C5A3A3A3E012B0F8AC00AD01AE02BF
:1094CA00AF03E47B0CFAF9F8C312B1AE402D900158
:1094DA00BCE0FF6003B4052390027AE064026011E5
:1094EA00D390028BE094FA90028AE06480948040E0
:1094FA0015D23C9001BC7405F0800BC23C9001BCB3
:10950A00E0B40502E4F0303E03306F0A9001C51260
:07951A00B226000000002250
:107C3100900314E0F47051900443E0FF6405604840
:107C4100EF6029E47FA07E05FDFC9002E1E0F8A34E
:107C5100E0F9A3E0FAA3E0FBC312B1AE500E900429
:107C6100E6E0940F9004E5E09400501CD2307F01CF
:107C710012F4D2C220C214C213C211C210E4900283
:107C810004F0900314F0D256204E03027D15301AF1
:107C910003027D159001BCE0707A203B77900307C9
:107CA100E07002A3E0706D20306A203467203564F3
:107CB100900314E06401705C201008900204E064F9
:107CC100FE7051900204E0B4FE189002E6E0D394F5
:107CD10000400FE4F07E027FE67D0112F84FD249A9
:107CE100800D9001AEE004F0E49001DAF0A3F09091
:107CF10001AEE0C39403401112B98FD2317F021259
:107D0100F4D2E49001AEF0C215E4900204F0C21482
:107D1100C213C210900314E0F47065900443E0FFB5
:107D21006405602CEF6059E47FA07E05FDFC9002A4
:107D3100E1E0F8A3E0F9A3E0FAA3E0FBC312B1AEDE
:107D4100503E9004E6E0940F9004E5E0940040304A
:107D5100D2327F0312F4D2C220C214C213C211C2A2
:107D610010E4900204F0900314F0D256900307E05F
:107D71007002A3E0700A900307740BF0A374D0F0B3
:107D81009004E9E0D39418403F900309E060069025
:107D910002CBE06033204E30900209E0702A201BB4
:107DA10003301C24301B03201C0630101B30191813
:107DB100D2337F0412F4D2D23912B98FC224C21C39
:107DC100C21BC219C212C2109001BCE06003027F43
:107DD100F7303303027FF7304A03027FF7303B036A
:107DE100027FF720213A30200C301009900209E07F
:107DF1006003204E2B302209303E0690032EE060B6
:107E01001F90032EE0F46003027FF7201212201668
:107E11000F20180C202209202306202403027FF7BB
:107E2100900209E0FFF531C2729001AFE0D39407EF
:107E31004015D3900304E09464900303E094004060
:107E410006202103D38001C39273306F192071067C
:107E51009001ACE060067C007D9680047C007D642E
:107E6100AE04AF058013EFD3940150033028067E92
:107E7100007F9680047E007F648E328F33900322D0
:107E8100E02432FD900321E03400FC7F907E01303C
:107E91007302800712FAAEAD33AC3212FA5A8E3445
:107EA1008F35303E1290042CE02432FF90042BE0F9
:107EB1003400FCAD0780259004E9E0C39415500C13
:107EC10090042CE02496FF90042B800A900322E07A
:107ED1002464FF900321E03400FCAD07AF33AE32E0
:107EE10012FA5A8E368F37301215C390028BE095F5
:107EF10035E5346480F890028AE0648098405D3012
:107F01001614307311C390028BE0949090028AE0B2
:107F1100648094814046201803302215C390042ABE
:107F2100E09537E5366480F8900429E06480984054
:107F31002B302325307322C390028BE09490900262
:107F41008AE0648094814014D39001D3E0941E9020
:107F510001D2E0648094805003302402D272202147
:107F61003230200320102C303E29206F269001C58D
:107F7100E0FCA3E0FDA3E0FEA3E0FFEC4D4E4F705B
:107F8100129001C512B2260001194090031B743CE6
:107F9100F0804020723DD23412B98F9002D0E0447B
:107FA10001F012F984900209E0D3953140097E0273
:107FB1007FD07D0112F84F900209E0FFC394044085
:107FC1000DEFD3953140077F0512F4D280057F056F
:107FD10012F3DA90027A3072057401F080037402B0
:107FE100F0E490032EF0C224C223C222C221C2189F
:107FF100C216C212C210301A7CC3900294E0945887
:10800100900293E064809482506BE47FA07E05FD32
:10801100FC9002E1E0F8A3E0F9A3E0FAA3E0FB128F
:10802100B1AE4051900209E0704BD235900207E0A9
:1080310060077F0612F4D280277F0612F3DA9004DC
:10804100E9E0D394204004C2728002D272753001FB
:10805100A272927412F00D0530E530D3943C40F0D9
:10806100E49001AEF0C22CC22BC237C236C231C27B
:108071001AC211C2109001BCE060030281D89002C3
:10808100CCE0640160030281D87F407E38FDFC9022
:1080910002E1E0F8A3E0F9A3E0FAA3E0FBD312B117
:1080A100AE50030281D8201D030281D890028BE0DB
:1080B100947890028AE06480948040030281D82001
:1080C1004E030281D83039030281D830180302816E
:1080D100D89001BDE060030281D8900204E0F47001
:1080E100030281D89002A4E060030281D830150315
:1080F1000281D8301A030281D83035030281D83089
:1081010028030281D8900209E060030281D890041B
:10811100A3E0FEA3E0FFC39004A2E09FEE6480F819
:108121009004A1E064809850109001A4E004F0E470
:10813100900205F0A3F012B98F9001A4E0C394035B
:1081410050030281D6D237E49002ECF0A3F07E0214
:108151007FEC7D0212F84F9002E7E0D364809480B7
:1081610050159002E6E0C39403500C204909E00445
:10817100F07E027FE680292049389002E7E0D3644F
:1081810080947E402DD390043CE094B590043BE074
:108191006480947F401C9002E7E014F07E027FE748
:1081A1007D0112F84F7F0812F3DA9001B4741CF0CC
:1081B100801E204916D39002C7E094199002C6E0B0
:1081C100940040077F0812F4D280057F0812F3DA89
:1081D100E49001A4F0C21D9002AAE070030282DBC8
:1081E1009001BCE060030282DB3034030282DB30A9
:1081F10035030282DB3037030282DB302B0302823C
:10820100DB3054030282DB900209E0C39402400395
:108211000282DB9004E9E0FFC394074021EFD3948D
:1082210020501BEF941750030282DB900322E0944D
:10823100C8900321E06480948040030282DB9003B4
:108241002EE0D36480948050030282DB900180E0B1
:10825100FEA3E0FFD394FAEE64809480407CD39037
:108261000306E09464900305E064809480406B9081
:10827100031DE0240AFD90031CE03400FCD3EF9DB4
:10828100EC6480F8EE64809840509004A4E02414DB
:10829100FF9004A3E03400FED3900181E09FEE64DF
:1082A10080F8900180E0648098500330452CD39091
:1082B100028BE0949090028AE064809481401B20BC
:1082C1001806201203302312D2287F0912F4D2C2D9
:1082D10023C218C212E49001A4F09001BCE0600333
:1082E100028382A3E0C39403500620150302838214
:1082F100D229E49002ECF0A3F07E027FEC7D021221
:10830100F84F9001B4E06002D2499002E7E0C36403
:108311008094805009E004F07E027FE78010900293
:10832100E6E0D394004012E014F07E027FE67D0186
:1083310012F84FC237D2498030C390043CE09432E6
:1083410090043BE06480948050239002E7E0600A4F
:1083510030151AC36480948450139002E7E004F04E
:108361007E027FE77D0112F84F7F0A800A7F0A3083
:10837100150512F4D2800312F3DAC215E49001BD9F
:10838100F09002E5E0C394034017D22A7F0B12F468
:10839100D2E49002E5F0C21F7E027FE57D0112F872
:1083A1004F20100C2055030284FA305C030284FA3A
:1083B1009001BEE060030284FAC390031AE094B80E
:1083C100900319E0940B50030284FAE47FF0FEFD60
:1083D100FC9002E1E0F8A3E0F9A3E0FAA3E0FBD30B
:1083E10012B1AE50030284FA204E030284FA302007
:1083F100030284FA3028030284FA900309E070062C
:108401002042030284FAD39002A1E094FA9002A0E0
:10841100E06480948050030284A29001B0E0FEA346
:10842100E0FF94F0EE648094805021EF2432FDE46B
:108431003EFC7FF07E0012FAAEC390029BE09FEEFD
:108441006480F890029AE06480984003302517D345
:10845100900285E09490900284E0648094814006CB
:10846100D2367F078034D3900285E09458900284FD
:10847100E06480948250030284FA9001B0E0FEA38C
:10848100E0FF94E8EE64809483506EC3EF94F0EEC5
:10849100648094804063D22C7F0D12F4D2C210808C
:1084A100582055219004A4E02464FF9004A3E034F3
:1084B10000FED3900285E09FEE6480F8900284E094
:1084C1006480984034C39001B1E094E89001B0E039
:1084D100648094834011D39002A1E094649002A03F
:1084E100E0648094805012D22B7F0C12F4D2E4907D
:1084F10001AEF0900314F0C210900443E0B40520E3
:1085010090020EE0C3941E40179004A2E0943290B2
:1085110004A1E0648094805007D22D7F0E12F4D222
:018521002237
:109C3B00C3900294E09484900293E06480948350E8
:109C4B0002C2259001CBE0600E900315E07002A3D9
:109C5B00E070049001CBF0D3900275E09464900215
:109C6B0074E0648094804013D39001D1E0945E90B3
:109C7B0001D0E0941A4004D2458002C24512B98F3C
:109C8B009001BCE0700CC224C223C222C218C216BF
:109C9B00C21290032EE06401702E9004E9E0FFD312
:109CAB00941240249001AFE0D394074005EF942227
:109CBB0040119004E9E0C39418500D900209E09410
:109CCB00004005E490032EF0900197E0FD600690B4
:109CDB0002CDE060339002CDE0FF7003029DC5D34F
:109CEB00940E4003029DC5EF14FF74017E00A8077C
:109CFB00088005C333CE33CED8F9FFE5255EFEE5EC
:109D0B00265F4E6003029DC59002CDE07041EDD3FE
:109D1B00940E5021900197E014FF74017E00A80768
:109D2B00088005C333CE33CED8F9F4FFEEF4FEEF43
:109D3B005226EE5225900197E0B4050EE49002D026
:109D4B00F07E027FD07D0112F84F12B98F8005E4AF
:109D5B009002CDF0E4FFFEFDFC9002DDE0F8A3E005
:109D6B00F9A3E0FAA3E0FBD312B1AE403A7D0EEDBE
:109D7B0014FF74017E00A807088005C333CE33CED1
:109D8B00D8F9FFE5255EFEE5265F4E60079001CB17
:109D9B00E0B50506ED60031D80D5EDD394004011B1
:109DAB009002CDEDF0800A9001D612B22600000091
:109DBB00007E027FCD7D0112F84F9002CDE0FF9027
:109DCB000197F09001DAE0FCA3E0FDC394C0EC94A2
:109DDB004E4005E49001AEF0C3900206E094C090B3
:109DEB000205E0944E4005E49001A4F0C39002F606
:109DFB00E094BC9002F5E094704005E49001BDF056
:109E0B00ED4C6009305415900204E0600F9002A4F1
:109E1B00E070037405F09001AC7403F02030132054
:109E2B00311020330D20360A900307E07002A3E0B7
:109E3B00600E9001AC7403F09002A4740AF0800AD7
:109E4B009001ACE070049002A4F09002C6E0FCA379
:109E5B00E0FD9001C3E0B50413A3E0B5050E20307F
:109E6B000B203208203305EF6432704F9002E6E08E
:109E7B00D39400400BE4F07E027FE67D0112F84F95
:109E8B009002C6E0FEA3E0FF9001C3E0B5061DA360
:109E9B00E0B507189002E7E0C364809480500BE4B0
:109EAB00F07E027FE77D0112F84FD2499002C6E0A7
:109EBB00FFA3E09001C3CFF0A3EFF0C39002EDE05E
:109ECB00946D9002ECE09401404A9002E7E060212F
:109EDB00D3648094804003E014F09002E7E0C36405
:109EEB008094805003E004F07E027FE77D0112F83E
:109EFB004F9002E6E0600B14F07E027FE67D0112CC
:109F0B00F84FE49002ECF0A3F07E027FEC7D02129E
:109F1B00F84FC249900292740DF09003037408F04D
:109F2B00A374CAF09001ACE0700F9001AEE0700921
:109F3B00202006900209E0602B9004E9E0FFD39407
:109F4B00074019EF941550089002927425F0800C7D
:109F5B00EFC3941750069002927419F0900303E428
:109F6B00F0A304F03033069001B7743CF090030972
:109F7B00E06007305C04C239C23F305632900317A1
:109F8B00E07002A3E0701FD390028BE0940090026C
:109F9B008AE064809480400690031474F6F090037A
:109FAB0017E4F0A304F0900314E0B40102C25620AE
:109FBB00520302A0FD9001CCE0FEA3E0FFC390048E
:109FCB00A2E09FFF9004A1E09EFE3395E08F338EBD
:109FDB0032F531F530FDAC30E47BC8FAF9F812B04C
:109FEB006D8F338E328D318C309001F6E0FEA3E015
:109FFB00FFEE3395E0FDFCE47B3BFAF9F812B06D14
:10A00B00EF2533FFEE3532FEED3531FDEC3530FC0F
:10A01B00E47B3CFAF9F812F71E9001F6EEF0A3EF91
:10A02B00F09001BFE0FEA3E0FFEE3395E0FDFCE412
:10A03B007B0EFAF9F812B06DEF2533FFEE3532FED9
:10A04B00ED3531FDEC3530FCE47B0FFAF9F812F706
:10A05B001E9001BFEEF0A3EFF09001C9E0FEA3E06C
:10A06B00FFC39004A4E09FFF9004A3E09EFE3395F2
:10A07B00E08F338E32F531F530FDAC30E47BC8FA2E
:10A08B00F9F812B06D8F338E328D318C30900274A3
:10A09B00E0FEA3E0FFEE3395E0FDFCE47B0EFAF966
:10A0AB00F812B06DEF2533FFEE3532FEED3531FD95
:10A0BB00EC3530FCE47B0FFAF9F812F71E900274C2
:10A0CB00EEF0A3EFF09004A3E0FFA3E09001C9CF63
:10A0DB00F0A3EFF0900293E0FFA3E09001C1CFF06B
:10A0EB00A3EFF09004A1E0FFA3E09001CCCFF0A38D
:10A0FB00EFF090040EE0FEA3E0FF7C007D0512AFB5
:10A10B00BAEEC313FEEF1324FFFFEE34FFFEC39032
:10A11B0001B6E09F9001B5E09E500302A1FF9003B2
:10A12B0010E0FEA3E0FF90028BE09FFF90028AE01D
:10A13B009EFE3395E08F338E32F531F530FDAC302A
:10A14B00E47BE07A2EF9F812B06D8F338E328D31BD
:10A15B008C30E47F05FEFDFCAB33AA32A931A8306D
:10A16B0012B06DC006C0079001B5E0FEA3E0FBAADC
:10A17B0006E4F9F8D007D00612F71EE47B02FAF9D1
:10A18B00F812F71E8F338E328D318C30900276E0C1
:10A19B00FEA3E0FF7C007D0312AFBAEE3395E0FD2A
:10A1AB00FCEF2533FFEE3532FEED3531FDEC35306E
:10A1BB00FCE47B04FAF9F812F71E900276EEF0FC41
:10A1CB00A3EFF0FD7FBA7EFF12FA5AAC06AD077F04
:10A1DB00467E0012FAAE900276EEF0A3EFF09002FC
:10A1EB008AE0FFA3E0900310CFF0A3EFF0E490011F
:10A1FB00B5F0A3F0900443E064026007E49001B56E
:10A20B00F0A3F0E47F01FEFDFC9002E1E0F8A3E097
:10A21B00F9A3E0FAA3E0FBC312B1AE5037E490020E
:10A22B0076F0A3F0900274F0A3F09001BFF0A3F0CE
:10A23B009001F6F0A3F09004A1E0FFA3E09001CC15
:10A24B00CFF0A3EFF09004A3E0FFA3E09001C9CF00
:10A25B00F0A3EFF0900443E0FF6403601BEF640294
:10A26B006016E4900276F0A3F090028AE0FFA3E080
:10A27B00900310CFF0A3EFF0C2529001BCE060024C
:03A28B00D23A22A2
:10B98F009002DDE0FCA3E0FDA3E0FEA3E0F53C8E1A
:10B99F003B8D3A8C399002DD12B22600000000AECA
:10B9AF0025AF26E4FCFD9002DD12B21A9001CBE028
:10B9BF006055D3940E50509002DDE0F8A3E0F9A348
:10B9CF00E0FAA3E0FBC000C001C002C0039001CBAE
:10B9DF00E014FF74017E00A807088005C333CE333F
:10B9EF00CED8F9F4FFEEF4FE3395E0FDFCD003D092
:10B9FF0002D001D000EB5FFFEA5EFEE95DFDE85C7F
:10BA0F00FC9002DD12B21A9002DDE0FCA3E0FDA370
:10BA1F00E0FEA3E0FFAB3CAA3BA93AA839C312B1A1
:10BA2F00AE60097E027FDD7D0412F84F9002D9E0EF
:10BA3F00FCA3E0FDA3E0FEA3E0F53C8E3B8D3A8C2A
:10BA4F00399002D912B22600000000AF24E4FCFDA9
:10BA5F00FE781012B1D2A804A905AA06AB07E523F8
:10BA6F00FEEA4EFAEB4522FFEAFEE9FDE8FC900202
:10BA7F00D912B21A9002D9E0FCA3E0FDA3E0FEA315
:10BA8F00E0FFAB3CAA3BA93AA839C312B1AE602F75
:10BA9F007E027FD97D0412F84FAF3CAE3BAD3AAC7E
:10BAAF00399002D9E0F8A3E0F9A3E0FAA3E0FBD3C1
:10BABF0012B1AE400A9002867402F0A374EEF090B9
:10BACF000286E07002A3E0601FAF3CAE3BAD3AAC24
:10BADF00399002D9E0F8A3E0F9A3E0FAA3E0FBD391
:10BAEF0012B1AE500302BBE3753E00753F01E49007
:10BAFF0001BAF0A3F0753D01C39001BBE094109023
:10BB0F0001BAE09427400302BBE3E53D94164003DE
:10BB1F0002BBE3E53D14FF131313541F2422F8E671
:10BB2F00FD7C00EF5407FF74017E00A80708800515
:10BB3F00C333CE33CED8F9FFEE5CFEEF5D4E70030C
:10BB4F0002BBDEAE3EAF3FAB07AA06E4F9F8AF3D4E
:10BB5F00FCFDFE12B06DA804A905AA06AB07900163
:10BB6F00BAE0FEA3E0FFE4FCFDEB2FFFEA3EFEEDA3
:10BB7F0039FDEC38FCE47BDC7AFFF9F8D312B1988D
:10BB8F00404DAF3D7E00AC3EAD3F12AFBA9001BB12
:10BB9F00E02FF09001BAE03EF0E53DD39409401557
:10BBAF00D3E53F9464E53E94005024AE3EAF3F7C16
:10BBBF00007D648013D3E53F94E8E53E9403500F76
:10BBCF00AE3EAF3F7C007D0A12AFBA8E3E8F3F056F
:10BBDF003D02BB07E490019CF09001BCE060028045
:10BBEF00329001CBE0FF6030D3940E502BEF14FF57
:10BBFF0074017E00A807088005C333CE33CED8F971
:10BC0F00FFE5255EFEE5265F4E700D9001CBE075DA
:10BC1F00F00AA490019CF0229002E6E090019CF0C3
:10BC2F009002E7E0FF601190019CE0FEEF240333E8
:10BC3F00333354F8FFEE4FF09002A4E06007900109
:10BC4F009CE04440F0C3900304E09464900303E04D
:10BC5F009400500790019CE04480F09001C5E0FCF7
:10BC6F00A3E0FDA3E0FEA3E0FFEC4D4E4F60069076
:06BC7F00019C7405F02297
:10F92200900180E0FEA3E0FF9004A2E09004A19F7A
:04F93200FFE09EFE56
