:104DE20090B9A9A1A690C274A1A690B68BA19490E5
:104DF200B9B4A194909035A194908ED0A1A690A917
:104E020099A1A690BEAAA19490B574A19490BD92C6
:104E1200A19490AB93A19490BABFA1A69095D1A171
:104E2200A690B409A19490A0ADA1949099FEA194EA
:104E320090BB97A19490A53EA19490BE84A194901A
:0A4E4200A88AA19490BDEEA194008F
:10294C000201010100020102010002010302000266
:10295C000103010002010301010101030101020253
:10296C00030100020205010002020501010102033C
:10297C00020101020402010102040101010205012C
:10298C00000204080100011F001801011F01580377
:10299C000160001C010160015C03020F00180102C0
:1029AC000F012003020F023E01020F035803021015
:1029BC0000180102100120030210023E0102100354
:1029CC005C030220001C010220015C030240001C7D
:1029DC00010240015803030F001801030F015803B3
:1029EC0003100018010310015C030320001C0103F9
:1029FC0020015C030340001C010340015803041F29
:102A0C00001401041F015803046000180104600144
:102A1C005C03051F001801051F012003051F022C74
:102A2C0001051F033403051F044801051F05580346
:102A3C000560001C0105600124030560022C0105E2
:102A4C006003340305600448010560055C0300283D
:102A5C0001073413000000000000000107361300CA
:102A6C000000000000000107381300000000000007
:102A7C000001073A130000000000000001073C139E
:102A8C000000000000000001073E130000000000E1
:102A9C000000010732130000000000000001018259
:102AAC00130000000000000001018C130000000066
:102ABC0000000001044113000000000000000101AF
:102ACC00B400010000000E00000101B5000100007F
:102ADC00000E00000101B60001000100FF00010121
:102AEC0001B71305003201F400C80101B913050048
:102AFC003201F400DC0101BB1305003201F4009635
:102B0C000101D70703000000000001010247070084
:102B1C000000000000020102B707000000000000E6
:102B2C00030101BD120100008EAD07230101BF128C
:102B3C000100008EAD07230101C10001000000025D
:102B4C0000000101C2230A00C80190015E0101CB03
:102B5C00030180017FFF00000101C4130100030089
:102B6C0019000D0101CD030180017FFF000001015F
:102B7C00C7230A0032038402BC0101CF230AFFA63B
:102B8C0001F400C80101D1230AFFA601F40064017D
:102B9C0001D3230AFFA600C800140101D53001009F
:102BAC000000F0003C0101C61005000000C8000048
:102BBC000101C9200A000A006400320101CA0001A7
:102BCC00000100F0001E0101D60101FFD800280011
:102BDC000001032700010000003200030103282339
:102BEC000A000A01F4003201032A230A012C028A8A
:102BFC0001F401032C000100010032000401032D3B
:102C0C00230A000A01F4003201032F120100008E86
:102C1C00AD072301033102010000059F00000103F1
:102C2C0033130A003202BC01F4010335130A0032DB
:102C3C0002BC025801033807010000000000040127
:102C4C000337200A0014006400320103A8020100BB
:102C5C000004B0005D0103AA06100020003900201A
:102C6C000106DE00010000000400000101B30105B3
:102C7C00FFD8002800000103BB0400000000000086
:102C8C00000103BF00000000003C00000103C00471
:102C9C000000000000000001019302000000000091
:102CAC000000010445040000000000000001043A8B
:102CBC00040000000000000001070602000000FFF5
:102CCC00FF00000101A402000000FFFF000001034F
:102CDC00CA07010000000000050101990000000076
:102CEC00000000000103C600010001003C000301CC
:102CFC0003C700010000003C000F0103C8230A00B9
:072D0C001401F40032003F46
:1044CD00122127123EBC124DE2124DE7124DEC1295
:1044DD00503A124DF1900706E0FFA3E09003C4CFD0
:1044ED00F0A3EFF0124DF6124DFB124E00124E05D9
:1044FD00124E0AE510B4080040030245CE90451156
:10450D00F828287302452902453202454E02456AB4
:10451D000245720245BE0245C30245C8124E0F1236
:10452D004E140245CEE4FF124E19905FE6E493550A
:10453D001DFE740193551E4E70030245CEE4FF809F
:10454D00177F01124E19905FE8E493551DFE74011B
:10455D0093551E4E606B7F01124E1E8064124E23CA
:10456D00124E28805C304A09E56D30E5047F0180EC
:10457D00027F00900190E0B403047E0480027E006F
:10458D00301A047D0280027D00EE4D4FFF7C017DCF
:10459D00A690073CE0FAA3E0FB900441E0F531A3BF
:1045AD00E0F5327533017534C1124E2D124E328045
:1045BD00101234A4800B1245DC8006124E37124EB9
:0F45CD003C124E41124E46D2581258120244F17F
:105A55008F4E8A4F8B50ED24FD60150470369006ED
:105A6500DEE075F002A424E1F582E5F0345C8010F7
:105A75009006DEE075F002A424D7F582E5F0345CEB
:105A8500F5837401932550FBE493354FFA7D02AFFE
:055A95004E12587022C2
:10515F00E50F24E0F582E4350EF583E0F9EF1460F6
:10516F002F047061E50F24E0F582E4350EF58374AA
:10517F0002F09006DEE075F002A424F5F582E5F06A
:10518F00345CF583E493FA7401932DF582EA802D54
:10519F00E50F24E0F582E4350EF5837402F09006F6
:1051AF00DEE075F002A424FFF582E5F0345CF583B0
:1051BF00E493FE7401938E832DF582E5833CF58392
:1051CF00E493FE8002E4FEE50F24E0F582E4350E61
:0751DF00F583E9F0AF0622A1
:1046E0008F4E8D4F30140B7D03125A0DE4F551029D
:1046F00047D9E50F24E0F582E4350EF583E0F55067
:10470000E50F24E0F582E4350EF5837402F0E54E02
:104710004480FFC25D1248D29006DEE075F002A42C
:1047200024EBF582E5F0345CF583E493FE740193A9
:10473000F5828E8375F003E54F12247CE493FFD25B
:104740005D1248D29006DEE075F002A424EBF582FB
:10475000E5F0345CF583E493FE740193F5828E8377
:10476000E54F75F003A42401FFE435F0FEE5822F48
:10477000F582E5833EF583E493FFD25D1248D29043
:1047800006DEE075F002A424EBF582E5F0345CF57A
:1047900083E493FE740193F5828E83E54F75F003F5
:1047A000A42402FFE435F0FEE5822FF582E5833E86
:1047B000F583E493FF600AD25D1248D275510380FD
:1047C0000AD25D7F201248D2755102E50F24E0F530
:0C47D00082E4350EF583E550F0AF512275
:05211900D24CD24E2261
:1051E600C258902D11E493F531740193F53290066F
:1051F600DBE0FEA3E0FFC394C8EE94005007E4F59D
:1052060031F5328012C3EF94CAEE940050097E2B1A
:105216007FA6123D6CD258D3902D1174019395320E
:10522600E49395314025902A5C75F00BE532122403
:105236007CE53175F00BA42583AF82FE123D6CD25E
:10524600580532E53270D0053180CC305817906061
:105256008DE493FE740193FF90608FE493FC7401D8
:0652660093FD125D6D22B4
:10568C00C0E0C0F0C083C082C0D075D000C000C0E4
:10569C0001C002C003C004C005C006C007758DFE62
:1056AC00758B4174592563F8E6556224FFB392B3A8
:1056BC00125FB1E564B4450FC2ABC28ED20D12605D
:1056CC008475A50043A720C28FD007D006D005D083
:1056DC0004D003D002D001D000D0D0D082D083D05F
:0456EC00F0D0E032E8
:104CDC00C0E0C0F0C083C082C0D075D000C000C09E
:104CEC0001C002C003C004C005C006C007C28EAF1D
:104CFC008DEFFEAD8B7C00E42DFFEC3EFE758D0040
:104D0C00758B00D28E300D04C20D805EC3EF94946F
:104D1C00EE9402501674592563F8E620C508FFE599
:104D2C0062F45FF680334562F6802E74592563F881
:104D3C00E620C516FFE562F45FF6125FB1745925E3
:104D4C0063F8E6FFE562F45F800E4562F6125FB130
:104D5C0074592563F8E64562F6125FB1E564C394B5
:104D6C0043400753A7DFC28ED20B75A500D007D0E6
:104D7C0006D005D004D003D002D001D000D0D0D0C2
:084D8C0082D083D0F0D0E032A8
:0B2120000700D20101060C75740022BC
:017FFF00FF82
:105CD70080008B129624A176ACC888C093D29EE42C
:105CE700AA36B5888AF9960BA11DAC6FB7C18B0E82
:105CF7009620A132AC84B7D68B0F9621A173ACC581
:025D0700B7D70C
:10600B007F8005800080380101810E8119801A8004
:04601B001B801C804A
:10503A00759211E4F59375BDB075BC40C20BC209F7
:10504A00C20C900708F0FFEF25E0240BF582E43448
:10505A0060F583E493FEEF25E02412F582E4340739
:10506A00F583EEF0EF25E0240CF582E43460F58355
:10507A00E493FEEF25E02413F582E43407F583EE8A
:10508A00F00FBF0AC290044074FFF0E4900729F0C1
:10509A00900728F0900734F0A37464F0A3E4F0A317
:1050AA007464F0A3E4F0A37464F0A3E4F0A374645A
:1050BA00F090072DE0441EF0900711740AF0E49076
:0650CA000726F0A3F0220E
:1045DC00900746E07002A3E060030246DF2009204A
:1045EC00900711E004F0C3940A4002E4F090071124
:1045FC00E025E02413F582E43407F583E030E7E0AE
:10460C00900711E0FD25E02413F582E43407F583CF
:10461C00E0540790070DF0ED25E02412F582E43408
:10462C0007F583E090070EF0900711E024FD603051
:10463C0014605E1470030246C2240360030246D564
:10464C00E490070FF0301F11301A04E04401F030F1
:10465C001D0790070FE04402F0E4900710F0807003
:10466C00301F0D301D0A900182E0FEA3E0FF800494
:10467C007E007F008E2C8F2DC3E52D9490E52C644D
:10468C008094815006752C01752D90AF2DAE2C8029
:10469C0018301F0D301A0A90018CE0FEA3E0FF8049
:1046AC00047E007F008E2C8F2D1256F090070FEE9B
:1046BC00F0A3EFF0801A301F047F6480027F00901B
:1046CC00070FEFF0E4A3F08007E490070FF0A3F0DE
:0446DC00125EC82280
:1034A400900746E07002A3E0600302369A300B03F3
:1034B400124A93900709E024FB70030235D214707A
:1034C400030235ED1470030235ED24C27003023695
:1034D4004A2441600302364A90070AE024FB602B29
:1034E40024EC60471460581470030235A11470036F
:1034F4000235B4249D70030235C8247F600302366C
:103504004A90070CE09007260235C590070CE0901E
:103514000440F0F4600BD20C9007287414F00235C8
:10352400E4C20CE4900728F00235E4125B1F900714
:1035340038EEF0A3EFF090072DE054F70235C512F2
:103544005B1FC3EF940AEE648094804035D3EF94FC
:10355400DEEE64809483502A900727E0C3940540EC
:1035640018900736EEF0A3EFF090072DE054FBF02F
:10357400900719E04480F08022900727E004F0E4EB
:103584008005E4900727F0900736F0A3F090072D0C
:10359400E04404F0900719E0547FF08043125B1F6D
:1035A400900734EEF0A3EFF090072DE054FD801166
:1035B400125B1F90073AEEF0A3EFF090072DE05452
:1035C400EFF0801C90070BE0FF125B9980129007CC
:1035D4000AE0FF64016009EF640E6004EFB4380789
:1035E400E4900729F08065805D90070AE024E66096
:1035F4001A14603214603F24037051E4900738F0C9
:10360400A3F090072DE04408F08041E4900727F0F0
:10361400900736F0A3F090072DE04404F0900719CA
:10362400E0547FF08026E4900734F0A3F090072D57
:10363400E04402F08016E490073AF0A3F090072DDE
:10364400E04410F08006900729E004F0900729E098
:10365400FDC3941840277418F0D20CD209300C041E
:103664007E0080027EFF900440EEF0E4900708F0B4
:10367400900711F090072DE0441EF08017ED7002C2
:10368400C209900728E0600414F08008C20C90047A
:073694004074FFF0C20B229D
:105B9900EF24FE601224FC600E14601224067015B6
:105BA9009007087402F0229007087403F022900706
:105BB900087404F022EFC39409900708400474059F
:065BC900F0227401F0223D
:085B1F0090070BE0FEA3E0FF7C
:105B2700EE30E710C3E49FFFE49EFEE4FCFD74FF44
:105B37007BF68005E4FCFD7B0AFAF9F812226E8FEA
:105B47002F8E2E8D2D8C2CAF2FAE2EAD2DAC2C780D
:055B5700081223A12249
:1056F0008E2E8F2FC3E52E648094805026C3E495B0
:105700002FF52FE4952EF52EFEAF2F3395E0FDFCFF
:1057100078081223B58F338E328D318C3074FF7B35
:10572000F6801AAE2EAF2FEE3395E0FDFC7808120E
:1057300023B58F338E328D318C30E47B0AFAF9F841
:10574000125A9A8F338E328D318C30E533FFE53229
:02575000FE2237
:105EC80012526C9007097445F0438910758DFE7560
:105ED8008B41C28FD2BBD2AB53A7DF126084125F53
:065EE800B1C2B3D28E220C
:10526C007E077F0D125F359208126084D258125D52
:10527C0009A2089258125D0990070DE0A2E292581B
:10528C00125D0990070DE0A2E19258125D0990079A
:10529C000DE0139258125D09C258125D09C25812E2
:1052AC005D09C258125D09C258125D09752E01754F
:1052BC002F80E52F601D740D252EF582E43407F543
:1052CC0083E0552F24FF9258125D09E52FC313F587
:1052DC002F80DF052EE52EC3940440D3D258125DE7
:0652EC0009C258025D0931
:104A9300C20A126084125DCE4003024B2D125DCE1A
:104AA3009208E49006AAF0F52C9006AAE0FF25E010
:104AB300F0125DCE50079006AAE04401F0052CE504
:104AC3002CC3940340E3E4F52C125DCE5002D20ACA
:104AD300052CE52CC3940440F0E4F52C74AB252C91
:104AE300F582E43406F583E4F0F52D74AB252CF55B
:104AF30082E43406F583E0FF25E0F0125DCE500F2B
:104B030074AB252CF582E43406F583E04401F0050B
:104B13002DE52DC3940840D3052CE52CC394034005
:104B2300BB125DCE4006D20A8002D20A7E067FAA5D
:104B3300125F35300801B35002D20A200A209006D2
:104B4300AAE0900709F09006ABE090070AF0900600
:0F4B5300ACE090070BF09006ADE090070CF0225D
:105DCE0074592563F8E6556224FF9258125FB17438
:105DDE00592563F8E6556224FF9259125FB1305887
:0F5DEE0007305902D20AD322205902D20AC32207
:105F3500E4FDFC7B80EB6013EF2CF582E43EF583FA
:105F4500E05B60010DEBC313FB80EA0CBC04E4EDE0
:025F5500132215
:105D090074592563F8E63058134562F6125FB17489
:105D1900592563F8E6FFE562F45F8011FFE562F457
:105D29005FF6125FB174592563F8E64562F6125FB2
:025D3900B12295
:09608400756201E4F564F5632284
:105FB100E56225E0F56270037562010564E564132D
:075FC1001313541FF56322C6
:104D9400E5745403C4C0E0745CC0E0C082C0830204
:104DA4005C00E5745403C4C0E0745CC0E0C082C01D
:104DB40083025C10E5745403C4C0E0745CC0E0C0BA
:104DC40082C083025C20E5745403C4C0E0745CC0F8
:084DD400E0C082C083025C30E4
:0B5C0000F874009020E0F574F0E8223A
:0B5C1000F874019020E0F574F0E82229
:0B5C2000F874029020E0F574F0E82218
:0B5C3000F874039020E0F574F0E82207
:064DDC00EFC4905C0073BF
:102100000244CD02211802211802211802568C0225
:092110002118022118024CDC32F6
:0F60670078137910770009B919027922D8F62237
:105F790053797374656D2056312E30352E312020BA
:0C5F89000042617369732020560056002E
:105BCF00E4FFE4FEEF75F023A42464F582E43406C9
:105BDF00F583E5822EF582E43583F5837420F00E8C
:105BEF00BE23E174722FF8E4F60FBF02D5E4F5710E
:015BFF002283
:105A0D008D52EFC394405004790280027912AE0793
:105A1D00EF2552FDE433FCEEC39DEC6480F87480F9
:105A2D00985024EE540F29FDE57175F023A42464DC
:105A3D00F582E43406F583E5822DF582E43583F5B0
:085A4D00837420F00E80C922D1
:105D3B008C538D54EF4480FFC25D1248D2E4F5556D
:105D4B00855482855383E493FF6016D25D1248D24B
:105D5B000554E554700205530555E555C3941040A1
:025D6B00DF2235
:105870008A518B52E50F24E0F582E4350EF583E082
:10588000F554E50F24E0F582E4350EF583EDF0EFF5
:105890004480FFC25D1248D2E4F55385528285519F
:1058A00083E493FF6016D25D1248D20552E5527030
:1058B0000205510553E553C3941040DFE50F24E082
:0B58C000F582E4350EF583E554F0227C
:105C3B008C3F8D408B41EF4480FFC25D1248D2E414
:105C4B00F542E542C39541501B854082853F83E079
:105C5B00FF6011D25D1248D20540E5407002053F4E
:055C6B00054280DE226D
:105F12008C4D8D4E8F828E83E0FCA3E0FDA3E0FECC
:105F2200A3E0F5528E518D508C4F7F4FAD4EAC4D4C
:035F3200023BED42
:105C70007C5F7D79E4FF125D3B7C5F7D8A7F401213
:105C80005D3B900080E493FFE4FD12597A1248CE08
:105C90009000811259751248CE900082E493FFE47F
:045CA000FD02597A2E
:10575200EF60027F407C5F7D93125D3B902121E4EC
:1057620093FE740193FF7C007D641221B7E4FD1265
:10577200597A1248CE902121E493FE740193FF7C62
:10578200007D641221B7AF057D0112597AC25D7F97
:10579200C81248D29021241259751248CE90212560
:1057A2001259751248CE902126E493FF7D010259C9
:0157B2007A7C
:05597500E493FF7D0139
:10597A008F4C8D4DE54C75F06484F54E60082430EB
:10598A00FFD25D1248D2E54C75F0648485F04CE58F
:10599A004C75F00A84F54E7004E54D600AE54E2414
:1059AA0030FFD25D1248D2E54C75F00A84E5F02446
:0759BA0030FFD25D0248D26C
:0448CE00D25D7F2E0A
:1048D2008F56305D68E556122488493C7F491E8612
:1048E20049199E4923A24928AA4919BF491EE049EC
:1048F2001EE14919E74928E84923E94932EA492DE5
:10490200EB4928ED4937F14932F3491EF4492DFAB2
:10491200492DFB0000493FE4F5568021755603807E
:104922001C75560480177556058012755606800D43
:1049320075560780087556EE8003755620E571148A
:10494200603C047071305D24E572C39440E572549A
:104952000F50092466F582E4340680072476F58236
:10496200E43406F583E556F00572800EE55630E72D
:1049720002F572E556B41402057253724F22305D8D
:1049820024E573C39440E573540F50092489F582DA
:10499200E4340680072499F582E43406F583E5566B
:1049A200F00573800EE55630E702F573E556B41450
:0749B20002057353734F224D
:1059C1008F32E50A600612601F12601FE53275F022
:1059D10023A42464F582E43406F5837404F0E532EB
:1059E10075F023A42465F582E43406F583E4F0E53B
:1059F1003275F023A42464F582E43406AD82FCE51B
:0C5A01003290539893FF7B221257B3227F
:105FF6009006647404F0E4A3F07C067D647B227F43
:05600600111257B32246
:1057B300E50A60037F0122900100EFF0A3EBF02FD5
:1057C300FFE4FEEEC39B5024ED2EF582E43CF5830B
:1057D300E0FA74022EF582E43401F583EAF0ED2E4B
:1057E300F582E43CF583E02FFF0E80D7EFF404FF4E
:1057F30074022EF582E43401F583EFF0EB2402F515
:0F5803000A750901C29C900100E0F5997F00220F
:1058CB00E4900582F0900582E0FFC39414503EEF04
:1058DB0075F006A42483F582E43405F583E4F0A384
:1058EB00F0EF75F006A42485F582E43405F583E426
:1058FB00F0A3F0EF75F006A42487F582E43405F5E8
:10590B0083E4F0A3F0900582E004F080B8E4900506
:07591B0082F09005FBF02271
:104E4C00900582E0FF9005FBE0FE6F7003024F00BF
:104E5C00EE75F006A42487F582E43405F583E0FEB4
:104E6C00A3E04E606A9005FBE0FF75F006A4248772
:104E7C00F582E43405F58374FFF5F0122242EF75E8
:104E8C00F006A42487F582E43405F583E0FCA3E066
:104E9C00FD9005FBE0F975F006A42485F582E43459
:104EAC0005F583E0FEA3E02DFFEE3CFEE975F00670
:104EBC00A42483F582E43405F583E0FAA3E0F582BB
:104ECC008A832DF582E5833CF583E0FD125E2A9002
:104EDC0005FBE075F006A42487F582E43405F58320
:104EEC00E0FEA3E04E700D9005FBE004F0C39414BB
:054EFC004002E4F02279
:105D6D008C418D42AB07AA0690608DE493FE7401C1
:105D7D0093FFC3EB9FFFEA9EFEC394004012EF24F6
:105D8D0040FFE43EFEAD03AC02AB42AA41125555B5
:015D9D0022E3
:105555008E438F44900582E075F006A42487F5827A
:10556500E43405F583E0FEA3E04E704C900582E03F
:10557500FF75F006A42485F582E43405F583E5433B
:10558500F0A3E544F0EF75F006A42483F582E43436
:1055950005F583ECF0A3EDF0EF75F006A42487F58F
:1055A50082E43405F583EAF0A3EBF0900582E0048C
:0955B500F0C394144002E4F0225A
:105626008C378D388A398B3A8E3B8F3C12552E7FBC
:10563600A012550DE537FF12550DAF38E538125556
:105646000D12552E7FA112550DD3E53A9401E53979
:105656009400402275A6EFE4FF1254E9853C82854A
:105666003B83EFF0E53A153A70021539053CE53C07
:1056760070D7053B80D37F011254E9853C82853B78
:0656860083EFF002553E27
:105E2A008E428F438D44C2B512552E7FA012550D56
:105E3A00E542FF12550DAF43E54312550DAF44122B
:085E4A00550D12553ED2B522A0
:1052F200FED40FD7FF380FADFF6A0F93FF9C0F71DB
:1053020000000F1400320ED500640E8A00960E3192
:1053120000C80DCB00FA0D55012C0CD1015E0C40DA
:1053220001900BA201C20AFA01F40A4A0226099567
:10533200025808DF028A082902BC077902EE06CD6C
:105342000320062A035205940384050503B6048448
:1053520003E8040D044C034004A602AB0514021931
:10536200057801B005DC01600640012106A400F3C6
:04537200070800CA5E
:10428B00E4F5977531010531E53170FA758E80755E
:10429B008F80E4F59075940900759720F575D25EC3
:1042AB00F531AF31EF25E02432F582E43407F583A5
:1042BB00E4F0A3F00531E531B40AE7E490072CF004
:1042CB00A3F090072AF0A3F09007487404F0E49051
:1042DB000746F0A3F0F531C258AF31EF25E024DFEC
:1042EB00F582E43406F583E0FEA3E0C394CEEE64DE
:1042FB0080947F401CAF31EF25E024DFF582E4345E
:10430B0006F583E0FEA3E0D39432EE648094804004
:10431B0014AF31EF25E024DFF582E43406F583E4B6
:10432B00F0A3F0D258AF31EF25E024F1F582E4345D
:10433B0006F583E0FEA3E0C394B6EE64809483405D
:10434B001CAF31EF25E024F1F582E43406F583E070
:10435B00FEA3E0D3941AEE648094844017AF31EF40
:10436B0025E024F1F582E43406F5837403F0A3749D
:10437B00E8F0D2580531E531640160030242E430C4
:10438B00581E7C067DDF7B127A007F057E0012555E
:10439B00557C067DF17B127A007F177E00125555F6
:0143AB0022EF
:102D1300900748E0600314F022900746E07002A396
:102D2300E0600F900747E024FFF0900746E034FF90
:102D3300F022E57560030230727F07125EEE8E2D7E
:102D43008F2E305E24E52EC4F8540FC868FFE52D9E
:102D5300C454F048FEE57525E0242EF582E43407DB
:102D6300F583EEF0A3EFF08055E57525E0242EF50D
:102D730082E43407F583E0FEA3E0FFE4FCFD7B0F70
:102D8300FAF9F812226E8F328E318D308C2FE47B5C
:102D930010FAF9F8125A9AE57525E0242EF582E423
:102DA3003407F583EEF0A3EFF0E57525E0242EF567
:102DB30082E43407F583E52D852EF0122242E57572
:102DC30025E0242EF582E43407F583E0FEA3E078C2
:102DD30002CEC313CE13D8F9F52E8E2DD394E4E58A
:102DE3002D940F402A75180274017E00A87508807F
:102DF30005C333CE33CED8F9FF90072CE04EF0A3B2
:102E0300E04FF090072AE04EF0A3E04FF08068C354
:102E1300E52E9498E52D9400502675180374017ED1
:102E230000A875088005C333CE33CED8F9FF9007C9
:102E33002CE04EF0A3E04FF0EFF4FFEEF4FE802D14
:102E4300E51864026005E518B40303E4F51874019A
:102E53007E00A875088005C333CE33CED8F9F4FFBE
:102E6300EEF4FE90072CE05EF0A3E05FF090072AFB
:102E7300E05EF0A3E05FF0C39052F4740193952EEB
:102E8300E493952D5017E57525E02430F582E4345D
:102E930007F58374FEF0A374D4F0022FBCD39053D0
:102EA30074740193952EE493952D4016E57525E0F2
:102EB3002430F582E43407F5837407F0A304F002A9
:102EC3002FBCE4F52CE52C25E025E024F8F582E47D
:102ED3003452F583C3740193952EE493952D4007E3
:102EE300052CE52CB41FDEE52C25E025E024F4F5C4
:102EF30082E43452F583C3740193952EFFE49395D2
:102F03002DAB07FAE4F9F8E52C25E025E024F2F5EA
:102F130082E43452F583E493FE740193FFE52C2598
:102F2300E025E024F6F582E43452F583C37401937B
:102F33009FFFE4939EFE3395E0FDFC12226E8F32D9
:102F43008E318D308C2FC006C007E52C25E025E09F
:102F530024F8F582E43452F583E493FE740193FF7D
:102F6300E52C25E025E024F4F582E43452F583C30F
:102F73007401939FFFE4939EAB07FA3395E0F9F84E
:102F8300D007D006125A9A8F328E318D308C2FE5AE
:102F93002C25E025E024F2F582E43452F583740114
:102FA300932FFFE4933EFEE57525E02430F582E49C
:102FB3003407F583EEF0A3EFF0E57525E024DFF5A4
:102FC30082E43406F583E0FEA3E0FFE57525E02403
:102FD30030F582E43407F583E0FCA3E0C39FFFEC04
:102FE3009EFE3395E08F328E31F530F52FFDAC2FF9
:102FF300E47BE87A03F9F812226E8F328E318D303A
:103003008C2FE57525E024DFF582E43406F583E0B3
:10301300FEA3E0FFE57525E024F1F582E43406F52F
:1030230083E0FCA3E0C39FFBEC9EFAA2E713FEEB55
:1030330013FFEE3395E0FDFCE5322FF532E5313E2B
:10304300F531E5303DF530E52F3CF52FEA3395E0DA
:10305300F9F8AF32AE31AD30AC2F125A9AE575257F
:10306300E02432F582E43407F583EEF0A3EFF005B4
:0E30730075E575D394084005E4F575C25E223C
:105EEE00EF25E025E04420F597000043970200E5FA
:105EFE009730E0FBE5965403FEAD957C00E42DFF54
:045F0E00EC3EFE2245
:104F9F00C258EF7044900730E0FEA3E0FFC394CEF9
:104FAF00EE6480947F4015D3EF9432EE648094804A
:104FBF00500A9006DFEEF0A3EFF08002D25820588F
:104FCF000C7C067DDF7B127A007F0580427E067F98
:104FDF00DF7B127A007D058047900730E0FEA3E06B
:104FEF00FFC394B6EE648094834015D3EF941AEE0A
:104FFF0064809484500A9006F1EEF0A3EFF08002E3
:10500F00D2582058117C067DF17B127A007F177ED3
:10501F0000125555800F7E067FF17B127A007D17A7
:0B502F007C00125626A258E433FF223A
:10592200496E697469616C6973696572756E672025
:10593200005765726B7365696E7374656C6C756E16
:1059420067002020206865727374656C6C656E2038
:1059520020200000010002000400080010002000C6
:1059620040008001000200040008001000200040F6
:03597200008000B2
:103EBC00750E20750F00126067125BCF7C597D2246
:103ECC00E4FF125D3B7D107F40125A0D125FF6E449
:103EDC00F52DF52E12601F052EE52E7002052DC353
:103EEC009464E52D940040EC1258CB7E067FDA7B6F
:103EFC002E7A00E4FDFC12562612428B75A6EF902A
:103F0C002120E493FF9006DAE0FEB50719902121F9
:103F1C00E493FC740193FD9006DBE06C7003A3E06A
:103F2C006D7003023FD3EEF4600C9006DBE0F4708E
:103F3C0003A3E0F47033E4900706F0A3F07C077D54
:103F4C00067B02FA7F2CFE1255559006DE74FFF0AC
:103F5C007511027512D075130775145E123A48E488
:103F6C00FF125E521249B9801512256E900704E0BB
:103F7C00FEA3E0FF7829A60608A6071251E69021B9
:103F8C0020E4939006DAF0902121E493FF740193DE
:103F9C009006DBCFF0A3EFF0E4F52C752F217530F4
:103FAC0020E52CC394045031AF2C7E0085308285E3
:103FBC002F83E493FD125E2A12601F052C0530E559
:103FCC00307002052F80DA12256E900704E0FEA3F4
:103FDC00E0FF7829A60608A607900707E004F07012
:103FEC0006900706E004F07C077D067B027A007FD2
:0F3FFC002C7E00125555125F95438901026076A5
:105812003058417829E6FE08E6FF900704E06E70F2
:1058220003A3E06F6017900704EEF0A3EFF07C078C
:105832007D047B027A007F2A7E00125555124E4C5F
:10584200125FC80510E510D394084008C2591240EF
:105852000BE4F510E51745166008E51715177002F9
:0E5862001516308D03751801308DFD0260762D
:10256E00E4F531F532D3902D117401939532E49345
:10257E009531500302294B902A5C75F00BE532120F
:10258E00247CE53175F00BA42583AF82F5348F35AD
:10259E0090608DE493FE740193FFAA06F97B01C04F
:1025AE0003C002C001853582853483740193FA74A9
:1025BE000293F9C3D082D083D0E0E99582EA958365
:1025CE00500302294090608FE493FC740193FDEF59
:1025DE002DFFEE3CFAA907C003C002C0018535826B
:1025EE00853483740193FA740293F9D3D082D08325
:1025FE00D0E0E99582EA9583400302294075A6EF63
:10260E00853582853483740393540FB408004003D8
:10261E00022940902628F82828730226400226A276
:10262E0002271B02278C022820022820022854028F
:10263E0028F7853582853483740193FA740293AE3C
:10264E0002FFAC02FD90608DE493FA740193FBC31C
:10265E00ED9BFDEC9ACD2440CD3400FC7B017A003D
:10266E00125626853582853483740193FA7402934B
:10267E00F9F5828A83E0FF8535828534837406936B
:10268E00FEEFC39E4076740893FEEFD39E50030276
:10269E0029408068853582853483740193FA7402EB
:1026AE0093AE02FFAC02FD90608DE493FA74019339
:1026BE00FBC3ED9BFDEC9ACD2440CD3400FC7B0199
:1026CE007A00125626853582853483740193FA7406
:1026DE000293F9F5828A83E0FF853582853483740F
:1026EE000693C36480F8EF6480984010740893D307
:1026FE006480F8EF64809850030229408535828506
:10270E003483740A9389828A83F002294085358244
:10271E00853483740193FA740293AE02FFAC02FD0A
:10272E0090608DE493FA740193FBC3ED9BFDEC9ADC
:10273E00CD2440CD3400FC7B027A0012562685351E
:10274E0082853483740193FA740293F9F5828A8335
:10275E00E0FEA3E0FF853582853483740593FC7417
:10276E000693FDC3EF9DEE9C4012740793FC740814
:10277E0093FDD3EF9DEE9C5003022940807B85355F
:10278E0082853483740193FA740293AE02FFAC0215
:10279E00FD90608DE493FA740193FBC3ED9BFDEC09
:1027AE009ACD2440CD3400FC7B027A001256268549
:1027BE003582853483740193FA740293F9F5828A13
:1027CE0083E0FEA3E0FF853582853483740593FC98
:1027DE00740693FDC3EF9DEC6480F8EE6480984020
:1027EE0018740793FC740893FDD3EF9DEC6480F886
:1027FE00EE648098500302294085358285348374B7
:10280E000993FF740A9389828A83CFF0A3EFF002B3
:10281E002940853582853483740193FA740293AE10
:10282E0002FFAC02FD90608DE493FA740193FBC33A
:10283E00ED9BFDEC9ACD2440CD3400FC7B047A0058
:10284E00125626022940853582853483740193FA07
:10285E00740293AE02FFAC02FD90608DE493FA74A5
:10286E000193FBC3ED9BFDEC9ACD2440CD3400FCCF
:10287E00853582853483740493FB3395E0FA1256C2
:10288E0026E4F533853582853483740493FF3395BE
:10289E00E0FEC3E5339FEE6480F874809840030237
:1028AE002940740193FA7402937E002533F9EE3AAF
:1028BE00FA8982F583E0FF85358285348374069329
:1028CE00C36480F8EF648098400D740893D36480DD
:1028DE00F8EF648098400E853582853483740A93B0
:1028EE0089828A83F00533809B8535828534837493
:1028FE000193FA740293AE02FFAC02FD90608DE478
:10290E0093FA740193FBC3ED9BFDEC9ACD2440CD5D
:10291E003400FC7B707A001256268535828534830E
:10292E00E4740193FA740293F97B01740A93FD1215
:0E293E0054720532E532700205310225732213
:1049B9007C597D33E4FF125D3B7C597D447F401275
:1049C9005D3B125FF6E4F531F532D3902D11740198
:1049D900939532E49395314023902A5C75F00BE569
:1049E9003212247CE53175F00BA42583AF82FE12C7
:1049F9003D6C0532E53270D2053180CEE4F529F5FA
:104A09002A1221197829E6FF08E6900704CFF0A3B6
:104A1900EFF0E4F531F532E532242AFFE43531FED1
:104A290074292532F8E6FD125E2A12601F0532E567
:104A39003270020531C39402E531940040D9E4F59E
:104A490031F53290608D93FE7401938E33F534D332
:104A590090608F7401939532E49395314029E53242
:104A69002440FFE43531FE853482853383E0FD122D
:104A79005E2A0534E5347002053312601F0532E5FC
:0A4A89003270CC053180C80260765F
:103D6C008E358F3690608DE493FE740193FFAA0616
:103D7C00F97B01C003C002C001853682853583748E
:103D8C000193FA740293F9C3D082D083D0E0E99501
:103D9C0082EA95835003023EBB90608FE493FC74DF
:103DAC000193FDEF2DFFEE3CFAA907C003C002C042
:103DBC0001853682853583740193FA740293F9C3B5
:103DCC00D082D083D0E0E99582EA95834003023E0D
:103DDC00BB853682853583740393540FB408004039
:103DEC0003023EBB903DF7F8282873023E0F023EBB
:103DFC0011023E29023E2B023E4A023E4A023E6C12
:103E0C00023EA38000853682853583740A93FF7445
:103E1C000193FA740293F5828A83EFF02280008575
:103E2C003682853583740993FE740A93FF7401936B
:103E3C00FA740293F5828A83EEF0A3EFF0228536B2
:103E4C0082853583740993FE740A93FFEE3395E0F3
:103E5C00FDFC740193FA740293F5828A8302242286
:103E6C00E4F537853682853583740493FF3395E00A
:103E7C00FEC3E5379FEE6480F87480985031740A65
:103E8C0093FF740193FA7402932537F582E43AF5A3
:103E9C0083EFF0053780CC853682853583E4740159
:103EAC0093FA740293F97B01740A93FD12415A221E
:0E60760075A6EFC28D758A06758C38D28C2205
:10601F0075A6EF7F907E0DEF1F70011EEF4E70F78C
:04602F0075A6EF2241
:103BED00EFF8EB4480FFC25D1248D28D828C83C208
:103BFD0005C207E493FAA3E493FEA3C206EA30E6F6
:103C0D0002D20630E203023CAB30E009E630E705B4
:103C1D00D205123CFE7400F565F566F567F568751D
:103C2D006901F56AF56BF56CE82EF8EEFB18123CA0
:103C3D00BADBFA300503123CFEE493FBFEA3E493DA
:103C4D00FCA3E493FD300516EBFF123D4B700BED1D
:103C5D00C39BB4FF0280031B80F0EBFEEFFBEEC3B2
:103C6D009B7006EA20E102D207EDC39BB4FF02D29E
:103C7D0006701A7F20201410EA20E30C7F3A20E40E
:103C8D00077F2E20E5027F2CD25D1248D2123D0D0A
:103C9D00EBC39C6008147002D2061B80C1227965AB
:103CAD00E82EF8EEFB18E6F709DBFA808CE6FC7FD0
:103CBD0008EC13FC501CE5652569D4F565E5663502
:103CCD006AD4F566E567356BD4F567E568356CD470
:103CDD00F568E5692569D4F569E56A356AD4F56A4B
:103CED00E56B356BD4F56BE56C356CD4F56CDFC1DC
:103CFD0022EEFBE82E14F8C3E496F618DBFA082240
:103D0D0030071DC2073005107F202014027F2DC201
:103D1D0005D25D1248D280087414FFC25D1248D2DC
:103D2D00123D4B700A2006077F20D25D0248D2D289
:103D3D000624303014027420FFD25D0248D2EB14F9
:103D4D00C31340082465F8E6540F80072465F8E690
:0F3D5D0054F0C4F8C3940A4004E8240722E82273
:1054E9007B08EFF576D2B7125550A2B633C2B71280
:1054F9005550DBF1FFE5761392B6D2B7125550C27B
:10550900B7D2B6227B08EF3392B6125550D2B712F2
:105519005550C2B7DBF1D2B6125550D2B712555019
:10552900A2B6C2B722D2B6D2B7125550C2B61255D8
:1055390050C2B78012C2B6125550D2B7125550D2C6
:0C554900B68004781280027807D8FE2299
:105FC8003017047F0480027F00E50F2405F582E482
:075FD800350EF583EFF02206
:105E7A0020203A20200020202E20202E2020202002
:105E8A00000E0204010216020401021F1C1F1E1F3B
:075E9A001E1F1F1E1F1E1F2B
:105F9500E4F577900703E0543FF044C0F5317D31D7
:0C5FA5007B017F07125D9ED25902400B69
:10400B00E57760030241597F427B07FD125B5CE55C
:10401B0043547F90074EF0E544543F90074DF0E535
:10402B0046543F90074FF0E547541FA3F0A3E548D4
:10403B00F0E542C4540775F00AA4FFE542540F2F74
:10404B00F57F90074EE0FDC4540F75F00AA4FFAE48
:10405B00F0ED540F7C002FF512EC3EF51190074D4F
:10406B00E0FDC4540F75F00AA4FFED540F2FFFECC5
:10407B0035F0FE7D3C1221A5EF2512F512EE351120
:10408B00F511E545540714F515305913D3E5129482
:10409B00A0E51194054008E4F511F512123A489089
:1040AB00074BE065117004A3E0651260052059020F
:1040BB00D21090074BE511F0A3E512F0301013AEC0
:1040CB0011FF7C007D0A1221B7ED4C7005A259B38C
:1040DB00921190074AE0B5150330595FA259B3927C
:1040EB001290074FE0FFC4540F75F00AA4FEEF5473
:1040FB000F2EF542A3E0FFC4540F75F00AA4FEEF98
:10410B00540F2EF543A3E0FFC4540F75F00AA4FE21
:10411B00EF540F2EF54424D0FBE43407FAAD43AF34
:10412B00421250D08E138F14900749E065436005FF
:10413B00A259B39213900749E543F090074AE5154E
:0F414B00F0E512643C45117005301002D20F22CE
:103A4800E57F75F00A84C454F0FFE57F75F00A84B9
:103A5800E5F04FF54FAE11AF127C007D3C1221B757
:103A68008D4EE54E75F00A84C454F0FFE54E75F0AE
:103A78000A84E5F04FF550AE11AF127C007D3C1280
:103A880021B78F4EE54E75F00A84C454F0FFE54E19
:103A980075F00A84E5F04FF551AF14AE1312604586
:103AA800EF04F552AE13AF147C017D6D1221B7EF10
:103AB80024D0F54AEE3407F549E54A2430FFE549B4
:103AC80034F8FE7C017D6D1221A5AC06AD07E54AF0
:103AD8002433FFE54934F8FEEF7802CEC313CE1342
:103AE800D8F92DFFEC3EFEC3E5149FE5139E500860
:103AF800E54A154A70021549E54A2430FFE549347C
:103B0800F8FE7C017D6D1221A5AC06AD07E54A24BF
:103B180033FFE54934F8FEEF7802CEC313CE13D84D
:103B2800F92DFFEC3EFEC3E5149FF54CE5139EF519
:103B38004BE4F54DE54DB4010BAF4AAE49125ADEE0
:103B48008F4E8003E4F54EE54D905E9593254EFF2C
:103B5800E433FEC3E54C9FE54B9E4013E54C9FF5CF
:103B68004CE54B9EF54B054DE54DC3940B40C50503
:103B78004D054CE54C7002054B7430254AF54A74E6
:103B8800F83549F549AE4BAF4C7C007D0A1221B798
:103B9800EFC454F0FBAE4BAF4C7C007D0A1221B74A
:103BA800EB4DF553E54D75F00A84C454F0FFE54D2F
:103BB80075F00A84E5F04FF554AE49AF4A7C007DB4
:103BC8000A1221B7EFC454F0FBAE49AF4A7C007D1E
:103BD8000A1221B7EB4DF5557D4F7B07E4FF125DC7
:053BE8009EE4F57722C8
:105E52008F41E541543F900703F0FD7F297E0012F8
:105E62005E2A900703E044C0F5417D417B017F0734
:085E7200125D9ED25902400BA3
:105F57008F4DAD151246E07403254DF54DE57F30A5
:105F6700E004D25C8002C25CAD12AC11AF4D12539B
:025F7700F52211
:1053F5008F4E8C4F8D503014077C5E7D7A025D3B5D
:10540500AE4FAF507C007D3C1221B7AD07ED75F076
:105415000A84E5F07B00FAED75F00A84C454F0FEC9
:10542500EB2400F552EE3AF551AE4FAF507C007DBE
:105435003C1221B7ED75F00A8475F010A4FFAEF0AB
:10544500ED75F00A847C00EF25F0FFEC3EFEEF25BC
:1054550052F552EE3551F5517F51305C067C5E7D3B
:0D5465009080047C5E7D8BAB4E123BED22EF
:10369B008F458C468D473014077C5E7D80025D3BE9
:1036AB00AE46AF477C017D6D1221B7EF24D0F549B3
:1036BB00EE3407F548E5492430FFE54834F8FE7C45
:1036CB00017D6D1221A5AC06AD07E5492433FFE55D
:1036DB004834F8FEEF7802CEC313CE13D8F92DFF82
:1036EB00EC3EFEC3E5479FE5469E5008E54915496C
:1036FB0070021548E5492430FFE54834F8FE7C019B
:10370B007D6D1221A5AC06AD07E5492433FFE548D5
:10371B0034F8FEEF7802CEC313CE13D8F92DFFEC9D
:10372B003EFEC3E5479FF54BE5469EF54AE4F54C57
:10373B00E54CB4010BAF49AE48125ADE8F4D8003F6
:10374B00E4F54DE54C905E9593254DFFE433FEC3B8
:10375B00E54B9FE54A9E4013E54B9FF54BE54A9E93
:10376B00F54A054CE54CC3940B40C5054C054BE5A0
:10377B004B7002054AE5454480FFC25D1248D2AE4C
:10378B004AAF4B7C007D0A1221B7EF2430FFD25D8C
:10379B001248D2AE4AAF4B7C007D0A1221B7ED2402
:1037AB0030FFD25D1248D2D25D7F2E1248D2E54C4B
:1037BB0075F00A842430FFD25D1248D2E54C75F0C7
:1037CB000A84E5F02430FFD25D1248D2D25D7F2E01
:1037DB001248D2AE48AF497C037DE81221B78F4D1A
:1037EB007E007C037DE81221A5C3E5499FF549E5E1
:1037FB00489EF548E54D2430FFD25D1248D2AE48C5
:10380B00AF497C007D641221B78F4DEF75F064A436
:10381B00FFAEF0C3E5499FF549E5489EF548E54DF8
:10382B002430FFD25D1248D2AE48AF497C007D0AEE
:10383B001221B78F4DEF75F00AA4FFAEF0C3E54927
:10384B009FF549E5489EF548E54D2430FFD25D12C2
:10385B0048D2AE48AF497C007D0A1221B7ED243027
:07386B00FFD25D1248D222DA
:1047DC008F458C468D473014057D07025A0DAE4629
:1047EC00AF477C007D0C1221B7EF24D0F549EE3495
:1047FC0007F548AE46AF477C007D0C1221B7ED049F
:10480C00F54AE5454480FFC25D1248D2E54A75F091
:10481C000A842430FFD25D1248D2E54A75F00A842E
:10482C00E5F02430FFD25D1248D2D25D7F2F1248C2
:10483C00D2AE48AF497C037DE81221B7AB077E00AE
:10484C007C037DE81221A5C3E5499FF549E5489E07
:10485C00F548EB2430FFD25D1248D2AE48AF497C0C
:10486C00007D641221B7AB07EB75F064A4FFAEF0CA
:10487C00C3E5499FF549E5489EF548EB2430FFD246
:10488C005D1248D2AE48AF497C007D0A1221B7AB0D
:10489C0007EB75F00AA4FFAEF0C3E5499FF549E5B7
:1048AC00489EF548EB2430FFD25D1248D2AE48AF9B
:1048BC00497C007D0A1221B7ED2430FFD25D1248ED
:0248CC00D222F6
:1050D0008F49A905C3EB94D0EA94074009D3EB9418
:1050E00033EA94084004E4FEFF22EB2430FFEA3464
:1050F000F8FE7C017D6D1221A5AC06AD07EB2433D3
:10510000FFEA34F8FEEF7802CEC313CE13D8F92DA0
:10511000F54BEC3EF54AE4FFE914FEEFC39E501157
:10512000EF905E9593254BF54BE4354AF54A0F8099
:10513000E7E9D394024011AF03AE02125ADEEF2525
:105140004BF54BE4354AF54AE54924FFFFE434FFCB
:0F515000FEEF254BF54BEE354AF54AFEAF4B22ED
:10604500EF2405FFE43EFE7C007D071221B7AF0576
:016055002228
:105ADE00AB07AA06EB54037035C3EB942EEA94067B
:105AEE0050037F01227C007D64AF03AE021221B70A
:105AFE00D3ED9400EC940040037F0122AE02AF037D
:105B0E007C017D901221B7ED4C70037F01227F0046
:015B1E002264
:105B5C008F498D4A8B4B12552E7FD012550DAF4A63
:105B6C0012550D12552E7FD112550DE54BD39401C4
:105B7C00400FE4FF1254E9A849A607154B054980CC
:0D5B8C00EA7F011254E9A849A60702553E20
:105D9E008F568D578B5812552E7FD012550DAF56EC
:105DAE0012550DE5586011E5586012A857E6FF121E
:105DBE00550D1558055780EFAF5712550D02553E2C
:1060560020203A202020002D2D3A2D2D000015302D
:0160660045F4
:1032AC008B468A4789488C498D4A754E80E4F54B8C
:1032BC00E51514F54DE54BC39407505EE54D9406AA
:1032CC004003754D06E4F54CE54D75F008A4FFAED2
:1032DC00F0AB462548F9E5473EFA7C00E9254CF968
:1032EC00EC3AFA12214DC394605024E5482438F985
:1032FC00E43547FAE92FF9EA3EFA7E00E9254CF964
:10330C00EE3AFA12214DF54E054CE54CB408B9E5F0
:10331C004E30E706054B154D809BE54E30E70675A4
:10332C004E030234A1E512254AF550E5113549F555
:10333C004FE4F54B85154DE54D75F008A4FFAEF047
:10334C00AB462548F9E5473EFA7C00E9254BF9ECFC
:10335C003AFA12214DC39460400302340EE548241E
:10336C0038F9E43547FAE92FF9EA3EFA7E00E92507
:10337C004BF9EE3AFA12214D6403602BE54D75F0D2
:10338C0008A42548F9E54735F0FA7E00E9254BF904
:10339C00EE3AFA12214DFF7D0F1221A5D3EF955075
:1033AC00EE954F5052802DE54D75F008A4AB462597
:1033BC0048F9E54735F0FA7E00E9254BF9EE3AFA83
:1033CC0012214DFF7C007D0F1221A5D3EF9512EE3B
:1033DC0095115023E5482438F9E43547FAE54D7545
:1033EC00F008A429F9EA35F0FA7E00E9254BF9EE4C
:1033FC003AFA12214DF54E054BE54B640860030279
:10340C003343D3E550949FE54F940550030234A108
:10341C00054DE54DD394064003E4F54D74602550FD
:10342C00F55074FA354FF54FE4F54BE54D75F00852
:10343C00A4AB462548F9E54735F0FA7E00E9254B63
:10344C00F9EE3AFA12214DFBFF7C007D0F1221A5FB
:10345C00D3EF9550EE954F503CEBC394605036AB88
:10346C0046E5482438F9E43547FAE54D75F008A4EB
:10347C0029F9EA35F0FA7E00E9254BF9EE3AFA1211
:10348C00214DFF64016004EFB402028F4E054BE541
:08349C004B64087096AF4E224C
:1043AC008B468A478948AB49AA4AA94B748012218B
:1043BC0093E4F54C85154DE54D75F008A4AB4625F9
:1043CC0048F9E54735F0FA7E00E9254CF9EE3AFA62
:1043DC0012214DFBFF7C007D0F1221A5D3EF95120E
:1043EC00EE95114057EB9460505DAB46E548243890
:1043FC00F9E43547FAE54D75F008A429F9EA35F0EA
:10440C00FA7E00E9254CF9EE3AFA12214DAB49AA95
:10441C004AA94B122193E54D75F008A4AB462548EB
:10442C00F9E54735F0FA7E00E9254CF9EE3AFA1237
:10443C00214DFF1221A58E4E8F4F800B054CE54C64
:10444C00640860030243C3AB49AA4AA94B12214D2D
:10445C0030E753054DE54DD394064003E4F54DE5A7
:10446C004D75F008A4AB462548F9E54735F0FA90B0
:10447C000038122166AB49AA4AA94B122193AB46CC
:10448C00AA47A94875F008E54DA4F58285F083127A
:10449C002166FF7E007C007D0F1221A5EF24A0F584
:1044AC004FEE3405F54EAB49AA4AA94B12214D707B
:1044BC000B7403122193754E0B754FB8AE4EAF4F64
:0144CC0022CD
:103872008B468A478948E4F54A754B60754C10F5CA
:1038820049E51575F008A4FFAEF0AB462548F9E509
:10389200473EFA7C00E92549F9EC3AFA12214DC378
:1038A20094105040E5482438F9E43547FAE92FF9F5
:1038B200EA3EFA7E00E92549F9EE3AFA12214DB4C0
:1038C2000322E51575F008A42548F9E54735F0FA15
:1038D2007E00E92549F9EE3AFA12214DFFD3954AC5
:1038E20040028F4AE51575F008A4FFAEF0AB4625FD
:1038F20048F9E5473EFA7C00E92549F9EC3AFA1223
:10390200214DC39410404CE5482438F9E43547FA78
:10391200E92FF9EA3EFA7E00E92549F9EE3AFA1270
:10392200214D6403602DE51575F008A42548F9E5DD
:103932004735F0FA7E00E92549F9EE3AFA12214DAF
:10394200FFC3954B500D8F4BE54B954C4005E54B16
:1039520004F54CAB46E5482438F9E43547FAE51559
:1039620075F008A4FFAEF029F9EA3EFA7C00E925D9
:1039720049F9EC3AFA12214DB4031CE5482FF9E556
:10398200473EFA7E00E92549F9EE3AFA12214DFF47
:10399200D3954C40028F4C0549E549640860030207
:1039A2003883E51504F54DD394064003E4F54DE460
:1039B200F549E54D75F008A4FFAEF0AB462548F990
:1039C200E5473EFA7C00E92549F9EC3AFA12214D25
:1039D200C39410502AE5482438F9E43547FAE92F10
:1039E200F9EA3EFA7E00E92549F9EE3AFA12214D4A
:1039F200B40305754C6080070549E549B408B3C2B4
:103A020059AF4A7E007C007D0F1221A5C3E5129FAB
:103A1200E5119E4002D259AF4B7E007C007D0F1211
:103A220021A5C3E5129FE5119E4002C259AF4C7E0B
:103A3200007C007D0F1221A5C3E5129FE5119E4077
:063A420002D259A2592234
:105472008B368A3789388D39C258E4F53BE4F53AE0
:10548200E53B75F008A4FFAEF0AB362538F9E537F9
:105492003EFA7C00E9253AF9EC3AFA12214DD3940E
:1054A200605020E5382438F9E43537FAE92FF9EA73
:1054B2003EFA7E00E9253AF9EE3AFA12214DD394EA
:1054C200034004D2588007053AE53AB408B220589E
:1054D20007053BE53BB407A530580BAB36AA37A905
:0754E20038AD3912415A22D6
:10415A008B3C8A3D893E8D3FE4F541E4F540E541DB
:10416A0075F008A4FFAEF0AB3C253EF9E53D3EFAFA
:10417A00AD407C00E92DF9EC3AFA7460122193AB58
:10418A003CE53E2438F9E4353DFAE92FF9EA3EFAEE
:10419A00E92DF9EC3AFAE41221930540E540B40816
:1041AA00BD0541E541B407B3E53F700302428AE425
:1041BA00F540D3902A5A7401939540E493940050A1
:1041CA000302428A75F005E540A42492F582E5F0DF
:1041DA003429AF82F5428F43F583E493653F600348
:1041EA00024278F541854382854283740193FD7CBE
:1041FA000074017E00A841088005C333CE33CED8AF
:10420A00F9FFEE5CFEEF5D4E60578543828542837F
:10421A00740393FDE54175F008A4AB3C253EF9E52E
:10422A003D35F0FA7402937E0029F9EE3AFAED125E
:10423A002193854382854283740493FDAB3CE53E1A
:10424A002438F9E4353DFAE54175F008A429F9EA7C
:10425A0035F0FA7402937E0029F9EE3AFAED12214A
:10426A00930541E541640760030241EF800D8543F0
:10427A0082854283E493D3953F500505400241BCB1
:01428A002211
:1055BE008F458D463014067C607D568057E546C378
:1055CE009460504AE5461313543F754700F548D38F
:1055DE009409E54794004019E5489414E547940072
:1055EE00500474068002740C2548F548E43547F5DE
:1055FE0047E548754800F547E546540390606393C8
:10560E004248E47F477C5E7D90AB45023BED7C607B
:08561E007D5DAF45125D3B22EA
:105DFD008F458D467D10125A0D201420E4F547E590
:105E0D0046601930E00CAD47AF451246E0EF254531
:0D5E1D00F5450547E546C313F54680E32231
:104F01008B498A4A894B8D4CE4F54EE54D75F00885
:104F1100A4AB49254BF9E54A35F0FA7E00E9254E67
:104F2100F9EE3AFA12214DFDE54C75F008A4254B36
:104F3100F9E54A35F0FA7E00E9254EF9EE3AFA1222
:104F4100214D6D6002C322AB49E54B2438F9E435AC
:104F51004AFAE54D75F008A429F9EA35F0FA7E0020
:104F6100E9254EF9EE3AFA12214DFDE54B2438F9C7
:104F7100E4354AFAE54C75F008A429F9EA35F0FA66
:104F81007E00E9254EF9EE3AFA12214D6D6002C319
:0E4F910022054EE54E64086003024F0CD32249
:104C23008E3F8F408D418B42AF417401A8070880AE
:104C330002C333D8FCF45242E5427003024CDBFF5B
:104C4300125EA18F447401A807088002C333D8FC05
:104C5300F45242E4F543E543C3940850DB854082B4
:104C6300853F8375F008E54112247CE5822543F5F1
:104C730082E43583F583E0FF854082853F8375F0C9
:104C830008E54412247CE5822543F582E43583F567
:104C930083EFF0E5402438F582E4353FF58375F082
:104CA30008E54112247CE5822543F582E43583F54A
:104CB30083E0FFE5402438F582E4353FF58375F062
:104CC30008E54412247CE5822543F582E43583F527
:094CD30083EFF00543024C592265
:105EA100AD07E4FC74017E00A804088005C333CE6D
:105EB10033CED8F9FFEDFBEF5B7009ECC3940750CB
:075EC100030C80E0AF042296
:104B62008F418B428A438944E541C39407501074B4
:104B720001A807088002C333D8FCF545024C207413
:104B8200FA2541F541E4F546F547F548E4F545E5F2
:104B92004804FFEFC394075031AB42AA43A9448FA4
:104BA2004DAD48124F01501FE545700EAE4804A8A6
:104BB20006088002C333D8FCF5457401A8070880B3
:104BC20002C333D8FC42450F80C9E545600605475C
:104BD2004246800FAF487401A807088002C333D849
:104BE200FC4246E548C39407501A74017E00A84867
:104BF200088005C333CE33CED8F9FFEF55466004A3
:104C0200054880DFE547C39541500AE548C394074C
:104C12005003024B8EE54765416003E4F545AF451D
:014C2200226F
:103081008E3F8F408D41E4F542E5402438F582E4DE
:10309100353FF58375F008E54112247CE582254230
:1030A100F582E43583F583E0701E854082853F8398
:1030B10075F008E54112247CE5822542F582E4356C
:1030C10083F5837460F0803D854082853F8375F090
:1030D10008E54112247CE5822542F582E43583F539
:1030E10083E0B46020E5402438F582E4353FF58380
:1030F10075F008E54112247CE5822542F582E4352C
:1031010083F583E4F00542E5426408600302308AF6
:10311100E4F542E5425401F543E543C39407400316
:1031210002329FE5432401FFE433FE854082853F5F
:103131008375F008E54112247CE5822FF582E58351
:103141003EF583E0F9854082853F8375F008E541CE
:1031510012247CE5822543F582E43583F583E0FD85
:10316100E9C39D40030232298D44854082853F8316
:1031710075F008E54112247CE5822543F582E435AA
:1031810083F583E9F0854082853F8375F008E54149
:1031910012247CE5822FF582E5833EF583E544F038
:1031A100E5402438F582E4353FF58375F008E541C3
:1031B10012247CE5822543F582E43583F583E0F52D
:1031C10044E5432439FFE433FE854082853F83751E
:1031D100F008E54112247CE5822FF582E5833EF576
:1031E10083E0FFE5402438F582E4353FF58375F04F
:1031F10008E54112247CE5822543F582E43583F517
:1032010083EFF0E5432439FFE433FE854082853FB7
:103211008375F008E54112247CE5822FF582E58370
:103221003EF583E544F0806FE5432401FFE433FE7E
:10323100854082853F8375F008E54112247CE58253
:103241002FF582E5833EF583E0FF854082853F834C
:1032510075F008E54112247CE5822543F582E435C9
:1032610083F583E0FEEF6E702EEF64606029E54325
:103271002401FFE433FE854082853F8375F008E534
:103281004112247CE5822FF582E5833EF58374604B
:10329100F07543077542FF0543054302311A0542A4
:0B32A100E542C39407500302311422E1
:105CA4008E418F42AE04AF05AA06A9077B01E4FF2B
:105CB400EFC39470501C854282854183E012219386
:105CC4000F0542E54270020541740129F9E43AFAEC
:035CD40080DE224D
:04608D0001B30287D2
:10B9B400900706E07004A3E06401700312BE409097
:10B9C4000706E0FFA3E09003C4CFF0A3EFF0C25F4B
:10B9D400900189740AF0E4900195F0A3F090018E2F
:10B9E400F0A3F090072CF0A3F090072AF0A3F090B6
:10B9F4000187F09001B4E0FF900188F0BF0D0C9036
:10BA0400043E740EF0A37410F08007E490043EF03A
:10BA1400A3F0E4900190F0900188E0B40E0C90043F
:10BA240043740EF0A37410F08007E4900443F0A371
:10BA3400F09001C1E0900191F09001C6E090019274
:10BA4400F0900186741EF0E49001A4F0A3F090013C
:10BA540097F0A3F090073CF0A374C8F090019E12F5
:10BA6400242E000000009001A67402F0A37458F084
:10BA7400A37424F0E4900182F0A3F0900180F0A379
:10BA8400F09001A2F0A3F090019CF0A3F09006DEE8
:10BA9400E0D394044004E4F0D25012BE8412BD9268
:03BAA40002B409E0
:10BE4000900750E0FDC4540F75F00AA4FFED540FA5
:10BE50007C002FFBEC35F0FAAE13AF140C7D6D12A5
:10BE600021B77C007D0C1221A5EF2BFFEE3ACF24E9
:10BE70000BCF34009003A8F0A3EFF07E037FA87DE2
:04BE800002025D6DF0
:10AB9300900189E0600214F0900443E07002A3E0A6
:10ABA300600E900444E024FFF0900443E034FFF08F
:10ABB30090043EE07002A3E0600E90043FE024FFA7
:10ABC300F090043EE034FFF090018EE07002A3E0C9
:10ABD300600E90018FE024FFF090018EE034FFF0CF
:10ABE300900180E07002A3E0600E900181E024FFF9
:10ABF300F0900180E034FFF09001A2E07002A3E046
:10AC0300600E9001A3E024FFF09001A2E034FFF076
:10AC130090019CE07002A3E0600E90019DE024FF90
:10AC2300F090019CE034FFF0E512B4D00EE511B4CE
:10AC33000209E57FD3941450028001C3921B300FA5
:10AC430005C20F431E0CE4F52C75F002E52CA42479
:10AC530060F582E5F03404F583E0FEA3E064034E7F
:10AC6300701B900188E0B40A1475F002E52CA4244B
:10AC730055F582E5F03404F583E4F0A3F0052CE503
:10AC83002CB402C5900195E07002A3E0601190011D
:10AC930096E024FFF0900195E034FFF002AD65905B
:10ACA3000189E0600302AD659001957404F0A3741B
:10ACB300B0F0E4F52D900708E0B40509900726E00D
:10ACC30030E63C80379003A8E0FEA3E0FF7C007DE4
:10ACD3000C1221B7EF24D0FBEE3407FA9003A8E05F
:10ACE300FEA3E0FF7C007D0C1221B7ED04FD7F0184
:10ACF3001250D0D3EF9514EE95135003752D02E542
:10AD03002D605FE4F52C75F002E52CA42460F58238
:10AD1300E5F03404F583E0FEA3E04E703E744B256A
:10AD23002CF582E43404F583E52DF075F002E52C6F
:10AD3300A4244FF582E5F03404F5837402F0A37480
:10AD43001CF075F002E52CA424EAF582E5F0345FEB
:10AD5300F583E493421D740193421E052CE52CB444
:10AD630002A4200C06900187E06004D25F8002C237
:10AD73005F302B1E90065DE07018C22B90608D93A0
:10AD8300FE740193FF90608FE493FC740193FD12B2
:10AD93005D6D9006DEE09003BAF0301079C210903A
:10ADA3000197E07002A3E06026900198E024FFF091
:10ADB300900197E034FFF09001A4E07002A3E060FB
:10ADC3000E9001A5E024FFF09001A4E034FFF030E1
:10ADD3004C0312BD0F301F2E9003BFE004F0C39449
:10ADE3003C4023E024C4F09003BBE0FCA3E0FDA3BC
:10ADF300E0FEA3E02401FFE43EFEE43DFDE43CFC71
:10AE03009003BB122422301112C2117E037FBB7D3B
:0CAE1300057C00025D6D301202C21222AC
:10BD0F00E5156406707C900750E0FF64036005EF53
:10BD1F006410706E900750E0FFC4540F75F00AA4C2
:10BD2F00FEEF540F2E14FF90074FE0FEC4540F7513
:10BD3F00F00AA4FDEE540F2DFEEF905E9593C39E77
:10BD4F00C39407503D900750E0B4030FE512647899
:10BD5F0045117007F5117512B48024900750E0B4A7
:10BD6F001020E512647745117003D24D22304D1229
:10BD7F00E51264B44511700AC24DF51175127812AF
:03BD8F003A48220D
:10BE840090072CA3E0FF20E004D227800D90072B1D
:10BE9400E030E004C2278002D227EF30E107E490CB
:06BEA4000734F0A3F022B8
:10BD9200E56D20E514E4900191F0A3F0204E1A9095
:10BDA200065AE07014D24E80109001C1E0900191C9
:10BDB200F09001C6E0900192F09001C0E024FFFFF4
:10BDC2009001BFE034FFFE9001BDE0FCA3E0FDD393
:10BDD2009FEC9E4016ED2401FEE43CA3F0A3CEF0BE
:0CBDE2007E017FBF7D027C00125D6D229F
:10B40900E51E30E60302B54390065DE0600302B530
:10B4190043900188E0FF9001B4E0FE6F700302B42D
:10B42900AAE4900197F0A3F0EEB40815EFC454F024
:10B4390044019001B6F07E017FB67D017C00125D6A
:10B449006D9001B4E0FFB40E0A900443740EF0A3AA
:10B459007410F0EFB40D0C90043E740EF0A3741048
:10B46900F0C217900188E0B40B15E49001BDF0A378
:10B47900F0A3F0A3F07E017FBD7D04FC125D6D9009
:10B489000188E0FFD3940750059001B5EFF09001D2
:10B49900B4E0900188F07E017FB47D027C00125DEA
:10B4A9006DD39001BEE095149001BDE09513501F36
:10B4B900C39001C0E095149001BFE095134010902E
:10B4C9000188E0940750179001B4740BF0800F9035
:10B4D9000188E0B40B089001B5E09001B4F0900444
:10B4E90043E07002A3E0700F900188E0B40E089069
:10B4F90001B5E09001B4F090043EE07002A3E07061
:10B509000F900188E0B40D089001B5E09001B4F006
:10B5190090018EE07002A3E07011201F0E30150B10
:10B529002016089001B4740FF0800F900188E0B4E0
:10B539000F089001B5E09001B4F0900188E0FFB4E4
:10B549000C03D38001C39223EFB40D03D38001C34D
:10B559009226900188E0FFB40E03D38001C39221A3
:0BB56900EFB40F03D38001C392252232
:03BEAA00022D1353
:10B5740020180302B635E56D30E56F30193D9001B2
:10B58400D4E02414FF9001D3E03400FED3900735B7
:10B59400E09FEE6480F8900734E0648098500302E2
:10B5A400B660D390073DE0943C90073CE0648094FF
:10B5B40080500302B660C21902B6609001D3E0FE67
:10B5C400A3E0FFC3900735E09FEE6480F890073452
:10B5D400E0648098401090073DE0943290073CE08E
:10B5E400648094805076D21980723019259001D4E9
:10B5F400E02414FF9001D3E03400FED3900735E03B
:10B604009FEE6480F8900734E0648098404EC2193D
:10B61400804A9001D3E0FEA3E0FFC3900735E09F8A
:10B62400EE6480F8900734E0648098502FD219803B
:10B634002B301915D390073DE0946490073CE064E7
:10B644008094804017C2198013C390073DE0943260
:10B6540090073CE0648094805002D219301E14C3D9
:10B66400900737E09464900736E064809480401635
:10B67400C21E22C3900737E09432900736E06480FC
:07B6840094805002D21E2247
:10A0AD00900188E014601214601A24027021754327
:10A0BD00017544017545D7801F75430175440275BF
:10A0CD00454780147543017544027545B780097580
:10A0DD004300754400754500E5444545454370030F
:10A0ED0002A29C9001D5E0700302A29C75490075F7
:10A0FD004A00754B42AB43AA44A9451243AC9006A6
:10A10D00B1EEF0A3EFF0900197E0FEA3E0FF4E60FB
:10A11D001BE5122FFFE5113EFE9006B1E06E7003B8
:10A12D00A3E06F6007E4900197F0A3F0900197E032
:10A13D007002A3E0600302A2A9E54264017078AB4E
:10A14D0043AA44A945FDFC1232ACEF24FD60030285
:10A15D00A2969001D5E0FF9001B3E0FD3395E0FCB0
:10A16D009001B8E02DFD9001B7E03CFC900192E02C
:10A17D007007900191E0B4010A90073CE0FAA3E06A
:10A18D00FB80047A007B9612BC5A9006B3EEF0A3C6
:10A19D00EFF02512FFE5113EFE9006B1E0FCA3E0C5
:10A1AD00FDC39FEC9E500DC3ED9512FEEC9511A3D2
:10A1BD00F0A3CEF002A283E5426402600302A296F0
:10A1CD00AB43AA44A945FDFC1232ACEF1460242424
:10A1DD00FE600302A294900192E07007900191E05D
:10A1ED00B4010A90073CE0FEA3E0FF80327E007FC1
:10A1FD0096802C900192E07007900191E0B4010AD5
:10A20D0090073CE0FEA3E0FF80159001B3E0FF3323
:10A21D0095E0FE9001B8E02FFF9001B7E03EFE9073
:10A22D0006B5EEF0A3EFF09001D5E0FF9001B3E09D
:10A23D00FD3395E0FC9001BAE02DFD9001B9E03CB5
:10A24D00FC9006B5E0FAA3E0FB12BC5A9006B3EE03
:10A25D00F0A3EFF02512FFE5113EFE9006B1E0FCF4
:10A26D00A3E0FDC39FEC9E500DC3ED9512FEEC9542
:10A27D0011A3F0A3CEF09006B3E0FFA3E09001A4EC
:10A28D00CFF0A3EFF080158000E49001A4800AE4E4
:10A29D009001A4F0A3F0900197F0A3F0900190E04D
:10A2AD00F541900188E0B40F00400302A41690A27E
:10A2BD00C2F828287302A2EF02A2EF02A2EF02A3B6
:10A2CD002C02A33B02A34A02A35402A40902A396A3
:10A2DD0002A34A02A36D02A34A02A40902A4090221
:10A2ED00A391AB43AA44A9459001A4E0FCA3E0FDD2
:10A2FD001232AC900190EFF0BF0106E541640360AE
:10A30D0007900190E0B4020F9001A4E0FFA3E0904C
:10A31D000197CFF0A3EFF03048569001908049D2CD
:10A32D00189001907401F0304802803C8042D218A0
:10A33D009001907402F0304802802D8033C2189045
:10A34D0001907403F08022D218E4900190F07B010B
:10A35D003048067A0179D7801E7A037938E4801760
:10A36D00E4900190F0304808E090019BF002A416B3
:10A37D007B017A037938E4FDFC1232AC90019BEF3E
:10A38D00F002A416900190806EC218900190740195
:10A39D00F09001B6E0FFC4540F14600F1460142444
:10A3AD000270207B017A0179D7800E7B017A0279C8
:10A3BD004780067B017A0279B7E4FDFC1232AC8F3F
:10A3CD004280089001B6E0540FF5429001B6E0FFCF
:10A3DD00540FFEBE0315E54264016005E542B4026B
:10A3ED000A9001B5E09001B4F08009EF54F04542B8
:10A3FD009001B6F090019B7401F0800DD218E4909D
:10A40D000190F090019B7403F0900191E0B402165D
:10A41D00E54445454543601AAB43AA44A945123866
:10A42D0072B39218800C900191E07003D38001C338
:10A43D009218900190E0FF65416005E4900186F06F
:10A44D00EF602775F002A424B5F9740135F0898207
:10A45D00F583E0FEA3E0FF9001B3E0FD3395E0FC52
:10A46D00EF2DFFEE3C90044180123019157E003027
:10A47D0018047F3280027F64900441EEF0A3EFF068
:10A48D008007E4900441F0A3F020212C30230280BA
:10A49D002790019BE0FF6017C394035012EF75F0F6
:10A4AD0002A42431F9740335F08982F583800C30D0
:10A4BD001C1790019B7401F0900333E0FFA3E09013
:10A4CD000182CFF0A3EFF08007E4900182F0A3F0BA
:10A4DD00202703302854900188E024FB601824FEC7
:10A4ED00601424FE601024FE600C24037010900193
:10A4FD00997401F0802A9001997403F08022304FF5
:10A50D000E90019BE0FFB402047F01800E800C7B56
:10A51D00017A0379CAE4FDFC1232AC900199EFF097
:10A52D00301C0D9001997401F0229001997403F083
:01A53D0022FB
:10BC5A008F46C3ED9BFFEC9AFE3395E0FDFCC004D2
:10BC6A00C005C006C007AF46E4FCFDFE78011223FA
:10BC7A00B5D003D002D001D00012226E8F4A8E496D
:10BC8A008D488C4790072DE020E12FAB4AAA49A99D
:10BC9A0048A847900734E0FEA3E0FFC374C89FFF9B
:10BCAA00E49EFE3395E0FDFC12226E8F4A8E498D8A
:10BCBA00488C47E47B987A3A800CAF4AAE49AD4843
:10BCCA00AC47E47B32FAF9F8125A9A8F4A8E498DB8
:10BCDA00488C47AC47EC335007E4F54AF549801CD9
:10BCEA00E47F587E02FDFCAB4AAA49A948A847D37B
:10BCFA0012238B400BE4754A58754902F548F547FB
:05BD0A00AE49AF4A2222
:1099FE008C2D8D2E8A2F8B30A907E920E00302A033
:109A0E0076852E82852D8374FFF5F012224245F065
:109A1E00600302A0AC852E82852D837402F0A374A0
:109A2E0058F0852E82852D83A3A3E0602D852E828E
:109A3E00852D83A3A3E014F0AE2FAF307C007D24E0
:109A4E001221A5EE3395E0FDFCE52E2407F582E408
:109A5E00352DF58312242202A053E930E11920E2BC
:109A6E0016852E82852D83A3A3A3E0FEA3E0653287
:109A7E007003EE6531600E852E82852D83A3A3744F
:109A8E0024F002A053E52E2405F582E4352DF5834E
:109A9E00E0FEA3E0FFC3E5309FFFE52F9EFE7C00B6
:109AAE007D781221A5E52E240BF582E4352DF58364
:109ABE00EEF0A3EFF0E52E2407F582E4352DF583C5
:109ACE00E0FCA3E0FDA3E0FEA3E0FFE47B23FAF9B4
:109ADE00F812226E8F388E378D368C35E47B24FA51
:109AEE00F9F8AF38AE37AD36AC35125A9AE52E24AA
:109AFE0007F582E4352DF583122422E52E2407F591
:109B0E0082E4352DF583C083C082E0F8A3E0F9A38B
:109B1E00E0FAA3E0FBAE2FEE3395E0FDFCEB253033
:109B2E00FFEA3EFEE93DFDE83CFCD082D0831224E4
:109B3E0022E52E240BF582E4352DF583E0FEA3E01D
:109B4E00FF126033C3EF9496EE648094804003025C
:109B5E009C80C3E5309496E52F6480948050030278
:109B6E009C80D3E5309422E52F64809481400302DB
:109B7E009C80900734E0FEA3E0FFC3949CEE6480CB
:109B8E00947F5003029C80D3EF9496EE6480948071
:109B9E004003029C80E52E2407F582E4352DF583E3
:109BAE00E0FCA3E0FDA3E0FEA3E0FFE47B24FAF9D2
:109BBE00F8125A9A8E358F36E5322406FFE4353187
:109BCE00FED3E5369FEE6480F8E535648098404517
:109BDE00D3900735E0943C900734E064809480E5A0
:109BEE00344022240AF582E43533F58374FF75F090
:109BFE00FE122242E534240CF582E43533F583E47B
:109C0E0075F002806A240CF582E43533F58374FF17
:109C1E0075F0FE805AE53224FCFFE53134FFFEC3B9
:109C2E00E5369FEE6480F8E53564809850449007E1
:109C3E0035E0943C900734E064809480E534402213
:109C4E00240AF582E43533F583E475F003122242DB
:109C5E00E534240CF582E43533F58374FF75F0FD9D
:109C6E00800D240CF582E43533F583E475F0031290
:109C7E002242E534240CF582E43533F583E0FEA36D
:109C8E00E0FFEE3395E0FDFCE47B19FAF9F8125A89
:109C9E009AE47B07FAF9F8125A9AC004C005C00676
:109CAE00C007853482853383A3A3A3E0FEA3E0FF20
:109CBE00EE3395E0FDFCE47B0AFAF9F812226ED041
:109CCE0003D002D001D000EF2BF538EE3AF537ED88
:109CDE0039F536EC38F535E47F1EFEFDFCAB38AABF
:109CEE0037A936A835C312238B501385348285339A
:109CFE0083A3A3A3E0FEA3E0FFC374038024E47F49
:109D0E00FAFEFDFCAB38AA37A936A835D312238B41
:109D1E00402C853482853383A3A3A3E0FEA3E0FF0A
:109D2E0074199FFFE49EFE7C067DD61221A5E534B4
:109D3E00240CF582E43533F583EEF0A3EFF0E53431
:109D4E00240AF582E43533F583E0FEA3E0FFEE331B
:109D5E0095E0FDFCE47B07FAF9F8125A9AC004C0AC
:109D6E0005C006C007853482853383A3E0FEA3E0D9
:109D7E00FFEE3395E0FDFCE47B0AFAF9F812226E51
:109D8E00D003D002D001D000EF2BFFEE3AFEED391A
:109D9E00FDEC38FCC004C005C006C00785348285C2
:109DAE003383A3A3A3E0FEA3E0FFEE3395E0FDFC17
:109DBE00E47BFAFAF9F812226ED003D002D001D069
:109DCE0000EF2BFFEE3AFEED39FDEC38FCC004C07F
:109DDE0005C006C007E534240CF582E43533F5835F
:109DEE00E0FEA3E0FFEE3395E0FDFCE47B07FAF91D
:109DFE00F8125A9AD003D002D001D000EF2BF538CA
:109E0E00EE3AF537ED39F536EC38F535E53424060E
:109E1E00F582E43533F583E0FEA3E0FFEE3395E003
:109E2E00FDFCE47B0AFAF9F812226EAB38AA37A9C8
:109E3E0036A835D312238B5003029F4C853482856E
:109E4E003383A3E0FEA3E0FFEE3395E0FDFCE47B5D
:109E5E000AFAF9F812226EC004C005C006C007E562
:109E6E00342406F582E43533F583E0FEA3E0FFEEFD
:109E7E003395E0FDFCE47B0AFAF9F812226ED0036A
:109E8E00D002D001D000C3EF9BFFEE9AFEED99FDFC
:109E9E00EC98FCC004C005C006C007E534240AF5E2
:109EAE0082E43533F583E0FEA3E0FFEE3395E0FD6B
:109EBE00FCE47B07FAF9F8125A9AA804A905AA0637
:109ECE00AB07D007D006D005D004C3EF9BFFEE9AA8
:109EDE00FEED99FDEC98FCC004C005C006C00785D8
:109EEE003482853383A3A3A3E0FEA3E0FFEE339574
:109EFE00E0FDFCE47BFAFAF9F812226EA804A9053B
:109F0E00AA06AB07D007D006D005D004C3EF9BFF3F
:109F1E00EE9AFEED99FDEC98FCE47B07FAF9F81247
:109F2E00226E8F388E378D368C35AE37AF38E5349E
:109F3E00240CF582E43533F583EEF0A3EFF0E5342F
:109F4E00240AF582E43533F583E0FEA3E0FFEE3319
:109F5E0095E0FDFCE47B07FAF9F8125A9AC004C0AA
:109F6E0005C006C007853482853383A3E0FEA3E0D7
:109F7E00FFEE3395E0FDFCE47B0AFAF9F812226E4F
:109F8E00D003D002D001D000EF2BF538EE3AF537E2
:109F9E00ED39F536EC38F535E47FA07E0FFDFCABE0
:109FAE0038AA37A936A835D312238B40248534829C
:109FBE00853383A3E0FEA3E0FFEE3395E0FDFCE4E2
:109FCE007B0AFAF9F812226EC374A09FFF740F80F9
:109FDE0037E47FD07E07FDFCAB38AA37A936A8350B
:109FEE00C312238B504F853482853383A3E0FEA3A7
:109FFE00E0FFEE3395E0FDFCE47B0AFAF9F812225D
:10A00E006EC374D09FFF74079EFEE49DFDE49CFC1E
:10A01E00E47B07FAF9F812226E8F388E378D368C64
:10A02E0035AE37AF38E534240AF582E43533F5839F
:10A03E00EEF0A3EFF0E534240AFFE43533FE7D04A1
:10A04E007C00125D6DE52E2405F582E4352DF58339
:10A05E00E52FF0A3E530F0852E82852D83A3A3A3F3
:10A06E00E531F0A3E532F022852E82852D83740230
:10A07E00F0A37458F0852E82852D83A3A37424F04B
:10A08E00E534240CF582E43533F583E4F0A3F0E5F2
:0FA09E0034240AF582E43533F583E4F0A3F0228D
:10BB9700900188E0640A7032A24B9258752C0175A7
:10BBA7002D9A752E03752F2712B0A590018AEEF0F6
:10BBB700A3EFF04E703D90018AF0A37432F090012C
:10BBC700B5E09001B4F0D20F8029900441E0FEA3C4
:10BBD700E0FF90073CE0FCA3E0FD301822900192C3
:10BBE700E0FB7531017532C112B79C90018AEEF006
:10BBF700A3EFF090019E12242E0000000080187A17
:10BC0700017BC175320175330175349E12B27A908A
:10BC1700018AEEF0A3EFF020230620250330211040
:10BC27009001C7E0FFA3E090018CCFF0A3EF80174E
:10BC3700301A0E90018AE0FFA3E0A3CFF0A3EFF044
:10BC470022E490018CF0A3F090019E12242E0000B4
:03BC5700000022C8
:10B79C008E2C8F2D8C2E8D2F8B30E532240AF5823A
:10B7AC00E43531F583E0FEA3E0FF7C007D07122237
:10B7BC000CAA06AB07853282853183A3E0FEA3E099
:10B7CC00FF7C007D0A1221A5EF2BFFEE3AAB07FAA6
:10B7DC00E532240CF582E43531F583E0FEA3E0FF7D
:10B7EC007D1912220C7C007D0712220C7C007D0A34
:10B7FC0012220C853282853183A3A3A3E0FCA3E043
:10B80C002FF534EC3EF533900734E0FEA3E0FFC394
:10B81C0074969FFFE49EFEAC33AD341221A5EF2B42
:10B82C00FFEE3AAB07FAE534240AFDE43533FCE5C8
:10B83C002D2438FFE52C34FFFE1221A5EF2BFBEE57
:10B84C003AFAC3E52D952FFFE52C952EFEAD307CF5
:10B85C00001221A5EF2BFBEE3AFA74052BFBE43A10
:10B86C007D0AAF03FE12220CAA06AB07C3EB94327F
:10B87C00EA6480948050047A007B32E5322406F529
:10B88C0082E43531F583E0FEA3E0FFC39BEA6480DC
:10B89C00F8EE6480985004AA06AB07AE02AF032200
:10B27A008E2C8F2D8A308B31C3E52D9DFFE52C9CBA
:10B28A00FE3395E0FDFCE47B107A27F9F812226E72
:10B29A00C007E5312408F582E43530F583E0FBE4A4
:10B2AA00FAF9F8D007125A9A8F388E378D368C35BC
:10B2BA00AB32AA33A934C003C002C0011223C8C0EA
:10B2CA0004C005C006C007E5312409F582E435301B
:10B2DA00F583E0FFE4FCFDFE7B78FAF9F812226EB2
:10B2EA00C004C005C006C007E47F107E27FDFCAB82
:10B2FA0038AA37A936A83512226ED003D002D00157
:10B30A00D000125A9AA804A905AA06AB07D007D0FA
:10B31A0006D005D004EF2BFFEE3AFEED39FDEC38EE
:10B32A00FCD001D002D0031223E8E5312406F582CD
:10B33A00E43530F583E0FEA3E0FFEE3395E0FDFC53
:10B34A007BA07A867901780012226EAB32AA33A9E1
:10B35A0034122402D312238B402AE5312406F582C3
:10B36A00E43530F583E0FEA3E0FFEE3395E0FDFC23
:10B37A007BA07A867901780012226EAB32AA33A9B1
:10B38A00341223E8AB32AA33A9341223C8EC33505F
:10B39A000712246200000000AB32AA33A934122338
:10B3AA00C87BA07A8679017800125A9AC006C0072B
:10B3BA00E47B0AFAF9F8AF38AE37AD36AC35125A33
:10B3CA009AD0E02FFFD0E03ECF252DCF352CFEC3FB
:10B3DA00EF9432EE6480948050047E007F32E5312F
:10B3EA002406F582E43530F583E0FCA3E0FDC39F33
:0FB3FA00EE6480F8EC6480985004AE04AF052236
:10B0A500E52F2408F582E4352EF583A3E0FFC3E5FB
:10B0B500149F852D82852C83F0E52F240AF582E4E3
:10B0C500352EF583E0FEA3E0D39512EE95114009E8
:10B0D500852D82852C83E014F0205846852F8285A6
:10B0E5002E83E0FF852D82852C83E0F9C39F5007D1
:10B0F5007A007BFA02B244E52F2405F582E4352E69
:10B10500F583E0FF852F82852E83E02FFFE433FE54
:10B11500E9C39FEE6480F8748098500302B1B502CC
:10B12500B241852F82852E83A3A3A3E0FEA3E0244D
:10B1350006F531EE34FFF530852F82852E83A3E0A9
:10B14500FCA3E0FDAE30AF3112220C8F32852F8289
:10B15500852E83A3E0FCA3E0FDAE30AF3112220CB7
:10B16500ED60020532852D82852C83E0FFD3953273
:10B17500501B7E00852F82852E83A3E0FCA3E0FD76
:10B185001221A5EF24FAFBE43EFA02B244E52F248E
:10B1950005F582E4352EF583E0142532F532852D4B
:10B1A50082852C83E0D395325011852F82852E839D
:10B1B500A3A3A3E0FAA3E0FB02B244E52F2406F51E
:10B1C50082E4352EF583E0FCA3E0FDAE30AF31120D
:10B1D500220C8F33E52F2406F582E4352EF583E026
:10B1E500FCA3E0FDAE30AF3112220CED6002053359
:10B1F500E5322533FFE433FE852D82852C83E0F986
:10B20500D39FEE6480F87480985031E9C39532FF7E
:10B21500E49400FEE52F2406F582E4352EF583E05F
:10B22500FCA3E0FD1221A5852F82852E83A3A3A370
:10B23500E0FCA3E0C39FFBEC9EFA8003E4FAFBEB82
:10B245004A600FC3EB94FAEA6480948050047A0054
:10B255007BFA852F82852E83A3A3A3E0FEA3E0FFBF
:10B26500C39BEA6480F8EE6480985004AA06AB0795
:05B27500AF03AE022250
:10A88A00900188E024F9600F24FD601D24FC601902
:10A89A0014601124097017301905D21A02A9F2C2DC
:10A8AA001A02A9F2C21A02A9F2D21A02A9F230199C
:10A8BA000302A9F020180302A967900190E0B403EB
:10A8CA00059001D180039001CFE0FEA3E0FFAC0622
:10A8DA00AD07301A32D3900735E09DEC6480F890CA
:10A8EA000734E0648098501B900441E0FEA3E0FF27
:10A8FA00C390018BE09FEE6480F890018AE0648047
:10A90A00985047C21A8043900186E0FFC3ED9FFF2B
:10A91A00EC9400FEC3900735E09FEE6480F8900740
:10A92A0034E06480985023900442E02414FF900499
:10A93A0041E03400FED390018BE09FEE6480F890F2
:10A94A00018AE06480984002D21AE510D394045038
:10A95A000302A9F2900186741EF002A9F2301A408D
:10A96A00900442E02405FF900441E03400FED390B5
:10A97A00073DE09FEE6480F890073CE064809850C1
:10A98A001B900441E0FEA3E0FFC390018BE09FEE21
:10A99A006480F890018AE0648098504CC21A80481A
:10A9AA00900442E024FFFF900441E034FFFEC3908C
:10A9BA00073DE09FEE6480F890073CE06480985081
:10A9CA0027900442E02414FF900441E03400FED3AF
:10A9DA0090018BE09FEE6480F890018AE064809891
:10A9EA004006D21A8002D21A90072DE020E26D208A
:10A9FA001E5D301D1F900182E0FEA3E0FFC3900799
:10AA0A0037E09FEE6480F8900736E0648098402C27
:10AA1A00C21D8028900337E0FFC3900183E09FFFA7
:10AA2A00900182E09400FEC3900737E09FEE6480B5
:10AA3A00F8900736E06480985002D21D201D1F301E
:10AA4A001C1C90019BE0C394035013C21C800F90FE
:10AA5A000182E4F0A37464F0D21D8002C21D202793
:10AA6A000620280302AB529001A2E07002A3E07014
:10AA7A003220282F850F82850E83A3E020E12490BF
:10AA8A0003C7E075F078A4FF9001A2E5F0F0A3EF08
:10AA9A00F09003C6E075F078A4FF90019CE5F0F011
:10AAAA00A3EFF0301908201805D22902AB549001FF
:10AABA0099E06401600D90019CE07002A3E07003CC
:10AACA0002AB4E20287A90019BE0B4020590033530
:10AADA008003900333E0FEA3E0FFAC06AD079007C6
:10AAEA0036E0FEA3E0FFC39DEC6480F8EE64809834
:10AAFA0050028004AE04AF059003C8E0FCA3E0FD59
:10AB0A00C3EF9DFDEE9CFC302917C3900733E09DEF
:10AB1A00EC6480F8900732E0648098402DC2298066
:10AB2A0029ED24F6FFEC34FFFED3900733E09FEEC5
:10AB3A006480F8900732E0648098500ED229800A27
:10AB4A00D2298006C2298002C22930270E20290371
:10AB5A00301B03D38001C3922A8002C22AA21F9209
:10AB6A0058900189E06004C21F800E202309202129
:10AB7A0006201D03301A02D21F30580C201F0990DC
:09AB8A00018EE4F0A37478F022BE
:10BDEE00900726E0A2E39215A2E2921620230920E4
:10BDFE002606A22A92178005302302C21730152D6F
:10BE0E0020202A9003C0E0FCA3E0FDA3E0FEA3E007
:10BE1E002401FFE43EFEE43DFDE43CFC9003C01231
:10BE2E0024227E037FC07D047C00125D6DA21592DC
:02BE3E002022C0
:1053760050726F6772616D2D55706461746520207F
:105386000020202020202020202020202020202037
:1053960020000F110BFDFAFC23050100B400B40335
:1053A60002005A0000020000B40090028000B4001F
:1053B60000068000B40000000300360036008000BE
:1053C60002000000801518000000800000000001A7
:1053D6000300360032018000050000018015180028
:0F53E600000180000000000008002000400100CE
:10B68B00E4F56FF570F56DF56E900656F0A3F0A32B
:10B69B00F0A3F0900661F0A3F0F50B9005FCF09091
:10B6AB00065DF09005FDF0A3F090539B939006631D
:10B6BB00F0E4FF745E2FF582E43406F5837432F008
:10B6CB00745A2FF582E43406F5837414F0EF75F099
:10B6DB0003A4244DF582E43406F583E4F0A3F0EFE4
:10B6EB0075F003A4244FF582E43406F583E4F00FE0
:10B6FB00BF03C0E4FFEF75F006A4249FF582E4348A
:10B70B0053F583E493FEEF75F006A424FFF582E472
:10B71B003405F583EEF0EF75F006A424A0F582E472
:10B72B003453F583E493FEEF75F006A42400F58201
:10B73B00E43406F583EEF0EF75F006A424A1F58250
:10B74B00E43453F583E493FC740193FDEF75F00639
:10B75B00A42401F582E43406F583ECF0A3EDF0EFBD
:10B76B0075F006A424A3F582E43453F583E493FC2B
:10B77B00740193FDEF75F006A42403F582E43406FF
:10B78B00F583ECF0A3EDF00FEF640D600302B7004F
:01B79B00228B
:10903500850F82850E83A3E020E014E50F2413F548
:1090450082E4350EF583E054FDF075A6FE80FE90B2
:109055000661E07002A3E0600E900662E024FFF076
:10906500900661E034FFF090065DE0600214F09038
:109075000746E07002A3E0600E900747E024FFF08A
:10908500900746E034FFF09005FDE07002A3E06034
:10909500169005FD74FFF5F012224245F070089018
:1090A500539B93900663F020000302958BE4F50B28
:1090B500900000E024F5700302920A24FE7003027A
:1090C500933A24FC70030291CA2417700302930A91
:1090D50024FE70030292F014700302930A24EE60DA
:1090E50003029589E490065EF0900002E024FB708F
:1090F5000302919F248470030291C42480600302BB
:109105009589900003E0900578F0900746E070029D
:10911500A3E06003029589E56F20E111900004E06A
:10912500FFA3E0900658CFF0A3EFF08041E5702053
:10913500E03C900661E07002A3E07005536FFD808E
:109145002D900004E0FEA3E0FF900659E02401FD08
:10915500900658E03400FCD3EF9DEC6480F8EE6493
:109165008098500A536FFDE4900661F0A3F09001DA
:10917500D6E0FF3395E0FE900659E02FFF900658A4
:10918500E03E90073CF0A3EFF090072DE054DFF0B0
:1091950090072BE054DFF0029589900003E060080A
:1091A500437001436F028012E57030E00A9006615A
:1091B50074A8F0A374C0F05370FE90061E803A4365
:1091C5007040029589E490065FF0900002E024FB70
:1091D5006016248460292480600302958990000329
:1091E500E0900579F0029589900003E060054370F1
:1091F5000480035370FB9006367480F00295894312
:109205006F01029589E4900660F0900002E0FB642E
:109215001060030292C2A3E0900187F0900746E038
:109225007002A3E07034900004E0FEA3E0FF900715
:109235003EEEF0A3EFF0D394D4EE6480947E9007D5
