:1045B50090AA69A14390D173A13190F4ADA11F9048
:1045C500F96BA11F90F9EDA11F90EF5EA11F90BAA5
:1045D500D0A155908000A11F90941FA14390A5BA2A
:1045E500A14390F6FEA11F90E0C8A11F90BE22A195
:1045F5005590C51FA11F90E9AAA11F90F153A11FB6
:1046050090D9DEA11F90CDACA131908B81A14390B3
:10461500DD93A11F90D517A11F90E6BCA11F909D0A
:104625009AA11F90CF1DA11F90F32CA11F90C94BDC
:10463500A15590C4DFA15590AE89A14390A8FCA1D6
:104645004390AB8AA14390AC69A14390A267A14373
:1046550090AEB4A14390ADDFA14390AE55A1439078
:10466500AD2AA14390C986A15590D123A13190D0FF
:10467500C3A13190C983A13190CEDAA13190AEA109
:10468500A13190A396A13190BE0FA13190B3DBA1CA
:0746950031909042A13100B9
:10212B00020101010002010201000201030200028F
:10213B00010301000201030101010103010102027C
:10214B000501000202050101220204010222020321
:10215B000102020203010002020502000102030256
:10216B000101020402010102040101010205010047
:10217B000204080100010408010000030303040426
:10218B000404040404050608090C10111B393C3C1B
:10219B003C1E1414100D0C0A0908090A0C0D10141E
:1021AB00141E3C3C0024004B007200C10025004C67
:1021BB00007300C200B000B100B2000100020004C5
:1021CB0000080010002000400080010020004000AB
:1021DB0080000200040008001000011F001801011C
:1021EB001F0158030160001C010160015C03020F19
:1021FB00001801020F012003020F023E01020F0320
:10220B005803021000180102100120030210023EB5
:10221B00010210035C030220001C010220015C037D
:10222B000240001C010240015803030F0018010378
:10223B000F01580303100018010310015C03032066
:10224B00001C010320015C030340001C010340013F
:10225B005803041F001401041F01580304600018E5
:10226B00010460015C03051F001801051F01200319
:10227B00051F022C01051F033403051F044801052C
:10228B001F0558030560001C010560012403056050
:10229B00022C010560033403056004480105600549
:1022AB005C03067F0018030029010E9F1301FE0C2F
:1022BB0003200000010E991301FE0C05DC00000148
:1022CB000E931301FE0C05DC0000010EA91301FE99
:1022DB000C05DC0000010EAB1301FE0C05DC00004D
:1022EB00010E8D1301FE0C05DC0000010E95130190
:1022FB00FE0C05DC0000010E9B1301FE0C05DC003F
:10230B0000010E971301FE0C05DC0000010EC51336
:10231B0001FE0C05DC0000010EA11301FE0C05DC17
:10232B000000010EA31301FE0C09C40000010EA551
:10233B001301FE0C05DC0000010EA71301FE0C05BA
:10234B00DC0000010EAD1301FE0C05DC0000010EDC
:10235B00AF1301FE0C05DC0000010EB11301FE0CE6
:10236B0005DC0000010EB31301FE0C05DC000001BF
:10237B000EB51301FE0C05DC0000010EBB1301FEB4
:10238B000C05DC0000010EB71301FE0C05DC000090
:10239B00010EB91301FE0C05DC00000101881301CD
:1023AB00FE0C05DC0000010C3113000000000000E6
:1023BB0000010C351301FE0C05DC0000010C45136C
:1023CB0001FE0C05DC0000010C56130000000000A0
:1023DB000000010C5A1301FE0C05DC0000010C6A15
:1023EB001301FE0C05DC0000010C7B130000000048
:1023FB00000000010C7F1301FE0C05DC0000010C3A
:10240B008F1301FE0C05DC0000010CA41301FE0C64
:10241B0005DC0000010A551301FE0C05DC00000170
:10242B0001C01300000000000000010A10000100B1
:10243B00000003000001021000010000000E00006C
:10244B0001021100010000000E0000010212000148
:10245B00000100FF00010102131305003201F4001B
:10246B00C80102151305003201F400DC0102171339
:10247B0005003201F4009601023A07030000000048
:10248B0000010102AA070000000000000201031A6C
:10249B000700000000000003010219120100008E6A
:1024AB00AD072301021B120100008EAD07230102B1
:1024BB001D000100000002000001021E230A00C8DB
:1024CB0002BC015E010227030180017FFF000001B6
:1024DB00022013010000001E000D010229030180E0
:1024EB00017FFF0000010223230A0032038402BC98
:1024FB0001022B230AFFA601F400C801022D230AB7
:10250B00FFA601F4006401022F230AFFA600C800F6
:10251B00140102313001000000F0003C01022220C6
:10252B0005000000C80000010232230A0000012C44
:10253B000000010234230A0032019000C801023668
:10254B000005001400640064010237000100010063
:10255B0078000501023800010001000800020102A9
:10256B0025100A000A006400320102260001000156
:10257B0000F0001E0102390101FFD8002800000104
:10258B0007140001000000020000010A11061000F0
:10259B0020007A000001038A0001000000320003D2
:1025AB0001038B230A000A01F4003201038D230A75
:1025BB00012C028A01F401038F000100010032009B
:1025CB0004010390230A000A01F400320103921262
:1025DB000100008EAD072301039402010000059F4B
:1025EB00000001039600010000000E00000103979C
:1025FB0000010000000E0000010398000100010023
:10260B00FF00010103991305003201F400C8010317
:10261B009B1305003201F400DC01039D130500320E
:10262B0001F400960103C007030000000000010144
:10263B00043007000000000000020104A0070000A6
:10264B00000000000301039F120100008EAD072361
:10265B000103A1120100008EAD07230103A30001AA
:10266B000000000200000103A4230A00C802BC0101
:10267B005E0103AD030180017FFF00000103A61380
:10268B00010000001E000D0103AF030180017FFF5D
:10269B0000000103A9230A0032038402BC0103B129
:1026AB00230AFFA601F400C80103B3230AFFA60106
:1026BB00F400640103B5230AFFA600C8001401034C
:1026CB00B73001000000F0003C0103A8200500001A
:1026DB0000C800000103B8230A0000012C00000110
:1026EB0003BA230A0032019000C80103BC000500A5
:1026FB0014006400640103BD0001000100780005B3
:10270B000103BE00010001000800020103AB100A27
:10271B00000A006400320103AC0001000100F0006C
:10272B001E0103BF0101FFD800280000010715009F
:10273B0001000000020000010A2106100020007AAF
:10274B00000001051000010000003200030105111B
:10275B00230A000A01F40032010513230A012C029B
:10276B008A01F40105150001000100320004010586
:10277B0016230A000A01F4003201051812010000A9
:10278B008EAD072301051A02010000059F00000111
:10279B00072000010000000E0000010721000100CE
:1027AB0000000E00000107220001000100FF0001E4
:1027BB000107231305003201F400C8010725130597
:1027CB00003201F400DC0107271305003201F4008D
:1027DB009601074A07030000000000010107BA0732
:1027EB000000000000000201082A070000000000A2
:1027FB000003010729120100008EAD072301072BEF
:10280B00120100008EAD072301072E230A00C80218
:10281B00BC015E0107370301000000000000010747
:10282B003013010000001E000D01073903010000E9
:10283B0000000000010733230A0032038402BC01AD
:10284B00073B230AFFA601F400C801073D230AFF3B
:10285B00A601F4006401073F230AFFA600C8001479
:10286B000107413001000000F0003C01073220005D
:10287B00000000000000010742230A0000012C00A9
:10288B0000010744230A0032019000C801074600EB
:10289B000500140064006401074700010001007883
:1028AB00000501074800010001000800020108A60D
:1028BB000001000000020000010A31061000200098
:1028CB007A000001089A00010000003200030108A1
:1028DB009B230A000A01F4003201089D230A012CF4
:1028EB00028A01F401089F0001000100320004017B
:1028FB0008A0230A000A01F400320108A212010009
:10290B00008EAD07230108A402010000059F000003
:10291B0001051C130A0032038401F401051E130A7E
:10292B000032038402580105250701000000000056
:10293B0004010520130A00320384006401052213ED
:10294B000A003203840064010595070100000000B2
:10295B000004010524100A001400C80032010717F7
:10296B00030A0064038403520107160001000000F0
:10297B00030000010605130500050258000A0106B5
:10298B0007030A0064044C03B6010609230A00007E
:10299B000384000001060B100A001400C80032016A
:1029AB00060C00010000003C000501060D230AFF88
:1029BB009C01F4019001060F0005000A0064001948
:1029CB0001061407010000000000050102000000D1
:1029DB000000000000000106840701000000000059
:1029EB0006010201000000000000000001061000BB
:1029FB00010001003C000301061100010000003C36
:102A0B00000F010612230A001401F400320106F430
:102A1B000201000004B0005D0106F6061000200064
:102A2B0039002001100B0001000000060000010717
:102A3B00110201000000FF001101020E0105FFD879
:102A4B000028000001020F0105FFD800280000013B
:102A5B0008A70105FFD800280000010706040000A5
:102A6B00000000000001070A00000000003C00000D
:102A7B0001070B04000000000000000101E202004E
:102A8B000000000000000101EA040000000000004B
:102A9B00000101EE040000000000000001103302F1
:102AAB00000000FFFF0000010C47020000000000C7
:102ABB000000010C6C0200000000000000010C91F2
:102ACB000200000000000000010719230A00640245
:102ADB00EE012C01071B230A019002EE028A01076B
:102AEB001D230A00320064006401071F0005001952
:102AFB00006400190108A800010000000E0000018D
:102B0B0008A900010000000E00000108AA1305002F
:102B1B0032038400FA0108AC130500320384011858
:102B2B000108B90703000000000001010929070093
:102B3B0000000000000201099907000000000000DE
:102B4B00030108AE230A0032038402BC0108B3233D
:102B5B000A0000012C00000108B5230A0032019085
:102B6B0000C80108B700050014006400640108B830
:102B7B0000010001000800020108B0220A000A014E
:102B8B002C00C80108B20001000100F0001E010A70
:102B9B00090001000000030000010A0A0105000AF8
:102BAB0000640014010A0B000100000078001E01F4
:102BBB000A0C0001000F005A001E010A0D220A0028
:102BCB000A02580032010A0F000100010078001EB2
:102BDB0001019E05000000000000000101A242005F
:102BEB0000000000000001072D00000000000000A5
:102BFB00000107351000000000000000010736003F
:102C0B000000000000000001074901000000000067
:102C1B00000001108A000000000000000001108A73
:102C2B000400000000000000010C4D00000000003B
:102C3B00000000010CEB0000000000000000010C84
:102C4B00720000000000000000010CFC00000000FE
:102C5B0000000000010C97000000000000000001C4
:102C6B000D0D000000000000000001020300000039
:102C7B000000000000010A4D0200000000000000EF
:102C8B0001020D0000000000000000010C2D0000EF
:102C9B00000000000000010C2E00000000000000EE
:102CAB0000010C510000000000000000010C52005C
:102CBB0000000000000000010C53000000000000A9
:102CCB000000010C760000000000000000010C77F2
:102CDB000000000000000000010C78000000000064
:102CEB00000000010C9B0000000000000000010C24
:102CFB00A01300000000000000010CA41300000052
:102D0B0000000000010C9C0000000000000000010E
:102D1B000C9D0000000000000000010CC000000032
:102D2B000000000000010CBC0000000000000000CF
:102D3B00010D1E000000000000000001018A0000D0
:102D4B000000000000000101FE0000000000000078
:102D5B0000010A4B00000000000000000101C2004E
:102D6B0000000000000000010EBD1301FE0C05DC8D
:102D7B000000010EBF1301FE0C05DC0000010EC1AB
:102D8B001301FE0C05DC0000010EC31301FE0C0544
:102D9B00DC000001019B00000000000000000101AD
:102DAB009C02000000000000000101B200000000C6
:102DBB000000000001019142000000000000000132
:102DCB0001970200000000000000010199020000C1
:102DDB0000000000000101AA040000000000000038
:102DEB000101AE0200000000000000010202000021
:082DFB000000000000000107C8
:1050E4001221271247EB1245B51245BA1245BF12D9
:1050F40045C41245C91245CE1245D3E4F51F90109C
:105104008A1231C000000000051F1245D81245DD87
:105114001245E21245E71245EC1245F1E50E123252
:1051240038514100514901515102516A03518304DC
:10513400519F0551A40751A908000051AC1245F62E
:105144001245FB8063124600124605805BE4FF12A1
:10515400460A9021C5E4935564FE74019355654E47
:105164006046E4FF80307F0112460A9021C7E49331
:105174005564FE74019355654E602D7F0180177F41
:105184000212460A9021C9E4935564FE74019355B2
:10519400654E60147F0212460F800D12461480087B
:1051A400124619800312461E12462312462812463E
:1051B4002DE51FD3940250028001C39260126184D2
:0351C40002510C89
:106670008F568A578B58ED24FE601424FD60102439
:106680000524F950028013AB58AA577D048006AB4D
:0B66900058AA577D05AF561261292261
:10623600E51524E0F582E43514F583E0FEEF24FE4F
:10624600601C24FD6018240524F95002801EE51503
:1062560024E0F582E43514F5837404F0800EE51528
:1062660024E0F582E43514F5837405F08D828C8381
:10627600E493FFE51524E0F582E43514F583EEF0AA
:0162860022F5
:1057FD00E51524E0F582E43514F583E0FCE5152488
:10580D00E0F582E43514F5837401F0ED1232385869
:10581D003800583D01584202584703584C0458511E
:10582D00055856065872070000588E9080EB801C64
:10583D009080EC80179080ED802E9080EF802990E5
:10584D0080F180089080F280039080F375F00BEF6B
:10585D0012320EEE75F00BA42583F583E493754794
:10586D0000F548801C9080F475F00BEF12320EEEAF
:10587D0075F00BA42583F583E493F547740193F537
:10588D0048E51524E0F582E43514F583ECF0AE47D8
:03589D00AF4822EF
:10661000D2557F0174112FF582E4340AF58374207A
:10662000F074212FF582E4340AF5837420F074317C
:106630002FF582E4340AF5837420F00FBF10D522C1
:1059D600C260902E01E493F534740193F53590106E
:1059E60008E0FEA3E0FFC394C8EE94005007E4F578
:1059F60034F5358020C3EF94CCEE940050177E2505
:105A06007F1C1249387E267FC91249387E287F6B53
:105A1600124938D260D3902E017401939535E493E0
:105A2600953440259022B475F00BE53512320EE51B
:105A36003475F00BA42583AF82FE124938D2600577
:105A460035E53570D0053480CC306017905BFAE4CC
:105A560093FE740193FF905BFCE493FC740193FD49
:045A66001265AE22F5
:1051C700C0E0C0F0C083C082C0D075D000C000C0AE
:1051D70001C002C003C004C005C006C007900C4D43
:1051E700E090219A93FF900C50E004F0C39F501574
:1051F700900C4DE090218593FF900C50E0C39F40A9
:1052070011C20D800D900C4DE06002D20D900C5034
:10521700E4F0900C72E090219A93FF900C75E004F3
:10522700F0C39F5015900C72E090218593FF900C6E
:1052370075E0C39F4011C20E800D900C72E06002B2
:10524700D20E900C75E4F0900203E0FF90219A9340
:10525700FE900A4AE004F0C39E5012EF9021859316
:10526700FF900A4AE0C39F4011C20F800D900203CE
:10527700E06002D20F900A4AE4F0126781751F00BE
:10528700D007D006D005D004D003D002D001D0007B
:0B529700D0D0D082D083D0F0D0E03225
:0B2120000400D0010A020C757B0022B5
:017FFF00FF82
:106367008000C5E1974BAE96974B8000DD2C9100DE
:10637700D6E1A84BBF96A84B9100EE2C6835601567
:1063870060CD5FB968516071686D684A602A60E2E4
:106397005FCE686660866882684B606B6123600FBA
:0663A700686760C768830F
:10451F00E57B5407C4C0E0745CC0E0C082C0830276
:10452F005C00E57B5407C4C0E0745CC0E0C082C08F
:10453F0083025C10E57B5407C4C0E0745CC0E0C02C
:10454F0082C083025C20E57B5407C4C0E0745CC06A
:10455F00E0C082C083025C30E57B5407C4C0E074C6
:10456F005CC0E0C082C083025C40E57B5407C4C0DE
:10457F00E0745CC0E0C082C083025C50E57B5407EE
:10458F00C4C0E0745CC0E0C082C083025C60E57BA5
:10459F005407C4C0E0745CC0E0C082C083025C708A
:0B5C0000F874009020E0F57BF0E82233
:0B5C1000F874019020E0F57BF0E82222
:0B5C2000F874029020E0F57BF0E82211
:0B5C3000F874039020E0F57BF0E82200
:0B5C4000F874049020E0F57BF0E822EF
:0B5C5000F874059020E0F57BF0E822DE
:0B5C6000F874069020E0F57BF0E822CD
:0B5C7000F874079020E0F57BF0E822BC
:0645AF00EFC4905C0073F4
:102100000267FD0251C7022118022118022118029C
:09211000211802211802211832E5
:106889007813790E770009B9140479168005B919B6
:06689900027921D8EF2274
:1061DF00E4900EF4F0900EF4E0FFC39414503EEFF1
:1061EF0075F006A424F5F582E4340EF583E4F0A3EC
:1061FF00F0EF75F006A424F7F582E4340EF583E48E
:10620F00F0A3F0EF75F006A424F9F582E4340EF54F
:10621F0083E4F0A3F0900EF4E004F080B8E4900E65
:07622F00F4F0900F6DF02266
:10569600900EF4E0FF900F6DE0FE6F700302574A24
:1056A600EE75F006A424F9F582E4340EF583E0FEE7
:1056B600A3E04E606A900F6DE0FF75F006A424F932
:1056C600F582E4340EF58374FFF5F0122F3CEF7586
:1056D600F006A424F9F582E4340EF583E0FCA3E099
:1056E600FD900F6DE0F975F006A424F7F582E43419
:1056F6000EF583E0FEA3E02DFFEE3CFEE975F00615
:10570600A424F5F582E4340EF583E0FAA3E0F582ED
:105716008A832DF582E5833CF583E0FD12669B9036
:105726000F6DE075F006A424F9F582E4340EF583D6
:10573600E0FEA3E04E700D900F6DE004F0C39414EC
:055746004002E4F02226
:1065AE008C478D48AB07AA06905BFAE493FE740104
:1065BE0093FFC3EB9FFFEA9EFEC394004012EF24AD
:1065CE0040FFE43EFEAD03AC02AB48AA47125D5E4F
:0165DE00229A
:105D5E008E498F4A900EF4E075F006A424F9F58270
:105D6E00E4340EF583E0FEA3E04E704C900EF4E0AA
:105D7E00FF75F006A424F7F582E4340EF583E549A9
:105D8E00F0A3E54AF0EF75F006A424F5F582E434AD
:105D9E000EF583ECF0A3EDF0EF75F006A424F9F503
:105DAE0082E4340EF583EAF0A3EBF0900EF4E004F7
:095DBE00F0C394144002E4F02249
:105E2F008C3B8D3C8A3D8B3E8E3F8F40125D377F82
:105E3F00A0125D16E53BFF125D16AF3CE53C125D0F
:105E4F0016125D377FA1125D16D3E53E9401E53D35
:105E5F009400402275A6EFE4FF125CF28540828524
:105E6F003F83EFF0E53E153E7002153D0540E540DE
:105E7F0070D7053F80D37F01125CF2854082853F4A
:065E8F0083EFF0025D4705
:10669B008E478F488D49C2B5125D377FA0125D16AC
:1066AB00E547FF125D16AF48E548125D16AF49127C
:0866BB005D16125D47D2B52205
:1067E10053797374656D2056312E31302E3220204D
:0C67F100004261736973202056005600BE
:1065DF00E4FFE4FEEF75F023A4246EF582E4340F9C
:1065EF00F583E5822EF582E43583F5837420F00E72
:1065FF00BE23E1741A2FF8E4F60FBF03D5E4F519A3
:01660F002268
:10631F008D56EFC394405004790280027912AE0774
:10632F00EF2556FDE433FCEEC39DEC6480F87480DA
:10633F00985024EE540F29FDE51975F023A4246E0F
:10634F00F582E4340FF583E5822DF582E43583F58C
:08635F00837420F00E80C922B6
:10657C008C598D5AEF4480FFC267124B9AE4F55B3D
:10658C00855A82855983E493FF6016D267124B9A21
:10659C00055AE55A70020559055BE55BC39410403A
:0265AC00DF22EC
:106129008A598B5AE51524E0F582E43514F583E0A4
:10613900F55CE51524E0F582E43514F583EDF0EF1F
:106149004480FFC267124B9AE4F55B855A828559F0
:1061590083E493FF6016D267124B9A055AE55A7089
:10616900020559055BE55BC3941040DFE51524E0A2
:0B617900F582E43514F583E55CF022AC
:1064E0008C548D558B56EF4480FFC267124B9AE453
:1064F000F557E557C39556501B855582855483E063
:10650000FF6011D267124B9A0555E555700205548C
:05651000055780DE22AA
:1067C5008C538D548F828E8312317C8F588E578DCA
:0C67D500568C557F55AD54AC530243A0C8
:106515007C677DE1E4FF12657C7C677DF27F40123C
:10652500657C900080E493FFE4FD12628C124B962B
:10653500900081126287124B96900082E493FFE4EB
:04654500FD02628C65
:105EF900EF60027F407C677DFB12657C902121E485
:105F090093FE740193FF7C007D64122EB1E4FD12AF
:105F1900628C124B96902121E493FE740193FF7CCD
:105F2900007D64122EB1AF057D0112628CC2677FBC
:105F3900C8124B9A902124126287124B9690212500
:105F4900126287124B96902126E493FF7D0102622B
:015F59008CBB
:05628700E493FF7D011E
:10628C008F4F8D50E54F75F06484F55160082430C4
:10629C00FFD267124B9AE54F75F0648485F04FE599
:1062AC004F75F00A84F5517004E550600AE55124ED
:1062BC0030FFD267124B9AE54F75F00A84E5F02453
:0762CC0030FFD267024B9A7C
:044B9600D2677F2E35
:104B9A008F5D306768E55D1232384C047F4BE686DC
:104BAA004BE19E4BEBA24BF0AA4BE1BF4BE6E04B2D
:104BBA00E6E14BE1E74BF0E84BEBE94BFAEA4BF560
:104BCA00EB4BF0ED4BFFF14BFAF34BE6F44BF5FAF6
:104BDA004BF5FB00004C07E4F55D8021755D038011
:104BEA001C755D048017755D058012755D06800D64
:104BFA00755D078008755DEE8003755D20E5191403
:104C0A00604314607924026003024CC0306724E5D3
:104C1A001AC39440E51A540F50092470F582E434FB
:104C2A000F80072480F582E4340FF583E55DF005F3
:104C3A001A800EE55D30E702F51AE55DB414020547
:104C4A001A531A4F22306724E51BC39440E51B54BC
:104C5A000F50092493F582E4340F800724A3F582C8
:104C6A00E4340FF583E55DF0051B800EE55D30E762
:104C7A0002F51BE55DB41402051B531B4F22306776
:104C8A0024E51CC39440E51C540F500924B6F58250
:104C9A00E4340F800724C6F582E4340FF583E55D1A
:104CAA00F0051C800EE55D30E702F51CE55DB414E5
:074CBA0002051C531C4F22F0
:1062D3008F35E50A60061268B41268B4E53575F0C7
:1062E30023A4246EF582E4340FF5837404F0E535BA
:1062F30075F023A4246FF582E4340FF583E4F0E50D
:106303003575F023A4246EF582E4340FAD82FCE5E9
:0C63130035904FFF93FF7B22125F5A224F
:10689F00900F6E7404F0E4A3F07C0F7D6E7B227F6B
:0568AF0011125F5A22E6
:105F5A00E50A60037F0122900100EFF0A3EBF02F26
:105F6A00FFE4FEEEC39B5024ED2EF582E43CF5835C
:105F7A00E0FA74022EF582E43401F583EAF0ED2E9C
:105F8A00F582E43CF583E02FFF0E80D7EFF404FF9F
:105F9A0074022EF582E43401F583EFF0EB2402F566
:0F5FAA000A750901C29C900100E0F5997F002261
:105AF900FED40FD7FF380FADFF6A0F93FF9C0F71CC
:105B090000000F1400320ED500640E8A00960E3183
:105B190000C80DCB00FA0D55012C0CD1015E0C40CB
:105B290001900BA201C20AFA01F40A4A0226099558
:105B3900025808DF028A082902BC077902EE06CD5D
:105B49000320062A035205940384050503B6048439
:105B590003E8040D044C034004A602AB0514021922
:105B6900057801B005DC01600640012106A400F3B7
:045B7900070800CA4F
:104CC100E4F5977534010534E53470FA758EFF7596
:104CD1008FFF75940900759720C2B4C270E4F57C0A
:104CE100D271F534AF34EF25E0248DF582E4340E32
:104CF100F583E4F0A3F00534E534B430E7E4900E35
:104D010067F0A3F0900EEFF0A3F0900E65F0A3F022
:104D1100900EEDF0A3F0900EF37404F0E4900EF118
:104D2100F0A3F0F534C260AF34EF25E0240CF58236
:104D3100E43410F583E0FEA3E0C394CEEE648094E6
:104D41007F401CAF34EF25E0240CF582E43410F5EC
:104D510083E0FEA3E0D39432EE648094804012AFEE
:104D610034EF25E0240CF582E43410F583E4F0A35C
:104D7100F0AF34EF25E0241EF582E43410F583E032
:104D8100FEA3E0C394B6EE64809483401CAF34EF7D
:104D910025E0241EF582E43410F583E0FEA3E0D380
:104DA100941AEE648094844015AF34EF25E0241EFC
:104DB100F582E43410F5837403F0A374E8F005344C
:104DC100E53464096003024D2830601E7C107D0CBF
:104DD1007B127A007F057E00125D5E7C107D1E7B5A
:0B4DE100127A007F177E00125D5E2238
:1036A100900EF3E0600314F022900EF1E07002A39B
:1036B100E0600A900EF174FFF5F0022F3CE57CC347
:1036C10094045005857C30800FE57CB40405E4F555
:1036D100308005E57C14F530AF301267398E318FBB
:1036E10032307124E532C4F8540FC868FFE531C4A3
:1036F10054F048FEE57C25E02469F582E4340EF5BA
:1037010083EEF0A3EFF08055E57C25E02469F58296
:10371100E4340EF583E0FEA3E0FFE4FCFD7B0FFA49
:10372100F9F8122FE88F368E358D348C33E47B1007
:10373100FAF9F81263ADE57C25E02469F582E434F9
:103741000EF583EEF0A3EFF0E57C25E02469F58228
:10375100E4340EF583E5318532F0122F3CE57C250A
:10376100E02469F582E4340EF583E0FEA3E07802FB
:10377100CEC313CE13D8F9F5328E31D394E4E531AB
:10378100940F402A75180274017E00A87C088005F8
:10379100C333CE33CED8F9FF900E67E04EF0A3E0ED
:1037A1004FF0900E65E04EF0A3E04FF08068C3E566
:1037B100329498E5319400502675180374017E0007
:1037C100A87C088005C333CE33CED8F9FF900E67AD
:1037D100E04EF0A3E04FF0EFF4FFEEF4FE802DE5B4
:1037E1001864026005E518B40303E4F51874017E5A
:1037F10000A87C088005C333CE33CED8F9F4FFEEA0
:10380100F4FE900E67E05EF0A3E05FF0900E65E0DD
:103811005EF0A3E05FF0C3905AFB7401939532E42C
:103821009395315017E57C25E0247BF582E4340E35
:10383100F58374FEF0A374D4F0023959D3905B7B05
:103841007401939532E49395314016E57C25E0248B
:103851007BF582E4340EF5837407F0A304F002399A
:1038610059E4F52FE52F25E025E024FFF582E43426
:103871005AF583C37401939532E49395314007055A
:103881002FE52FB41FDEE52F25E025E024FBF5828F
:10389100E4345AF583C37401939532FFE49395316F
:1038A100AB07FAE4F9F8E52F25E025E024F9F582E4
:1038B100E4345AF583E493FE740193FFE52F25E088
:1038C10025E024FDF582E4345AF583C37401939F06
:1038D100FFE4939EFE3395E0FDFC122FE88F368EB8
:1038E100358D348C33C006C007E52F25E025E02453
:1038F100FFF582E4345AF583E493FE740193FFE506
:103901002F25E025E024FBF582E4345AF583C374C6
:1039110001939FFFE4939EAB07FA3395E0F9F8D04A
:1039210007D0061263AD8F368E358D348C33E52F7B
:1039310025E025E024F9F582E4345AF583740193F6
:103941002FFFE4933EFEE57C25E0247BF582E43401
:103951000EF583EEF0A3EFF0E57C25E0240CF58273
:10396100E43410F583E0FEA3E0FFE57C25E0247B51
:10397100F582E4340EF583E0FCA3E0C39FFFEC9EE7
:10398100FE3395E08F368E35F534F533FDAC33E4F7
:103991007BE87A03F9F8122FE88F368E358D348C57
:1039A10033E57C25E0240CF582E43410F583E0FE58
:1039B100A3E0FFE57C25E0241EF582E43410F583C5
:1039C100E0FCA3E0C39FFBEC9EFAA2E713FEEB131E
:1039D100FFEE3395E0FDFCE5362FFFE5353EFEE5D4
:1039E100343DFDE5333C8F368E358D34F533EA3386
:1039F10095E0F9F8AC331263ADE57C25E0248DF553
:103A010082E4340EF583EEF0A3EFF0057CE57CD380
:103A110094084006E4F57CC27122E57CB40103D22E
:0A3A2100B422E57CB40502C2B42211
:10673900EF25E025E04420F597000043970200E5A6
:106749009730E0FBE5965403FEAD957C00E42DFF00
:04675900EC3EFE22F2
:10537C00C260EF7061F53AE53A25E0247BF582E4F2
:10538C00340EF583E0FEA3E0FFC394CEEE6480946C
:10539C007F401FD3EF9432EE648094805014E53A32
:1053AC0025E0240CF582E43410F583EEF0A3EFF045
:1053BC008002D260053AE53AB409BC20600C7C103E
:1053CC007D0C7B127A007F0580607E107F0C7B1237
:1053DC007A007D058065E4F53AE53A25E0247BF515
:1053EC0082E4340EF583E0FEA3E0FFC394B6EE64D2
:1053FC00809483401FD3EF941AEE648094845014ED
:10540C00E53A25E0241EF582E43410F583EEF0A392
:10541C00EFF08002D260053AE53AB409BC20601185
:10542C007C107D1E7B127A007F177E00125D5E80E1
:10543C000F7E107F1E7B127A007D177C00125E2F70
:06544C00A260E433FF2220
:03692E000267817C
:10678100A20DB392C1A20EB392C2A20FB392C3E5FE
:106791002225E0FFE5152405F582E43514F583EFA4
:0267A100F022E4
:105E9500496E697469616C6973696572756E6720AD
:105EA500002020202020202020202020202020200D
:105EB50020005765726B7365696E7374656C6C75DC
:105EC5006E67002020206865727374656C6C656E62
:105ED500202020000001000200040008001000201E
:105EE50000400080010002000400080010002000AE
:045EF50040008000E9
:1047EB0012688912692E1265DF7C5E7D95E4FF12DB
:1047FB00657C7C5E7DA67F4012657C12689FE4F52C
:10480B0030F5311268B40531E53170020530C394CF
:10481B0064E530940040EC1261DF7E107F077B2E45
:10482B007A00E4FDFC125E2F124CC112593E75A6A4
:10483B00EF902120E493FF901007E0FEB50719904D
:10484B002121E493FC740193FD901008E06C70033C
:10485B00A3E06D7003024904EEF4600C901008E0C5
:10486B00F47003A3E0F47033E4901033F0A3F07C06
:10487B00107D337B02FA7F2CFE125D5E90100B7461
:10488B00FFF0750F027510D075110775125E12418E
:10489B00FBE4FF1266C31252A2801512330690106E
:1048AB0031E0FEA3E0FF7829A60608A6071259D629
:1048BB00902120E493901007F0902121E493FF7452
:1048CB000193901008CFF0A3EFF0E4F52F75322190
:1048DB00753320E52FC394045031AF2F7E00853301
:1048EB0082853283E493FD12669B1268B4052F0513
:1048FB0033E5337002053280DA123306901031E063
:10490B00FEA3E0FF7829A60608A607901033E475EE
:10491B00F001122F3C7C107D337B027A007F2C7EC2
:0D492B0000125D5E126819438901026910D7
:1067FD00751420751500759DEB1250E4C2A8C28B5F
:0C680D00E4F522F521126781759DC02280
:1061840030603E7829E6FE08E6FF901031E06E703C
:1061940003A3E06F6017901031EEF0A3EFF07C10D2
:1061A4007D317B027A007F2A7E00125D5E12569654
:1061B400050EE50ED394084008C26312469CE4F52C
:1061C4000EE51745166008E5171517700215163009
:0B61D4008D03751801308DFD0269106D
:10330600E4F534F535D3902E017401939535E493A5
:10331600953450030236A09022B475F00BE53512B1
:10332600320EE53475F00BA42583AF82F5378F385E
:10333600905BFAE493FE740193FFAA06F97B01C041
:1033460003C002C00185388285378312322CC3D070
:1033560082D083D0E0E99582EA95835003023695C0
:10336600905BFCE493FC740193FDEF2DFFEE3CFAB9
:10337600A9077B01C003C002C00185388285378357
:1033860012322CD3D082D083D0E0E99582EA95839D
:10339600400302369575A6EF853882853783740318
:1033A60093540F12323833C8003421013491023459
:1033B600F90335840435840535B406365007000014
:1033C600369585388285378312322CAE02AF01AC32
:1033D60002905BFAE493FA740193FBC3E99BFDEC5C
:1033E6009ACD2440CD3400FC7B017A00125E2F85F5
:1033F600388285378312322C89828A83E0FF8538AA
:1034060082853783740693FEEFC39E406D740893DE
:10341600FEEFD39E5003023695805F85388285374E
:103426008312322CAE02AF01AC02905BFAE493FA3F
:10343600740193FBC3E99BFDEC9ACD2440CD340087
:10344600FC7B017A00125E2F853882853783123223
:103456002C89828A83E0FF853882853783740693B8
:10346600C36480F8EF6480984010740893D3648036
:10347600F8EF648098500302369585388285378345
:10348600740A9389828A83F0023695853882853755
:103496008312322CAE02AF01AC02905BFAE493FACF
:1034A600740193FBC3E99BFDEC9ACD2440CD340017
:1034B600FC7B027A00125E2F8538828537831232B2
:1034C6002C89828A83E0FEA3E0FF853882853783D4
:1034D600740593FC740693FDC3EF9DEE9C40127435
:1034E6000793FC740893FDD3EF9DEE9C50030236C0
:1034F60095807285388285378312322CAE02AF01F1
:10350600AC02905BFAE493FA740193FBC3E99BFD6A
:10351600EC9ACD2440CD3400FC7B027A00125E2F5B
:1035260085388285378312322C89828A83E0FEA30E
:10353600E0FF853882853783740593FC740693FD16
:10354600C3EF9DEC6480F8EE64809840187407938E
:10355600FC740893FDD3EF9DEC6480F8EE648098CC
:103566005003023695853882853783740993FF7434
:103576000A9389828A83CFF0A3EFF00236958538C5
:103586008285378312322CAE02AF01AC02905BFA11
:10359600E493FA740193FBC3E99BFDEC9ACD2440B6
:1035A600CD3400FC7B047A00125E2F0236958538F6
:1035B6008285378312322CAE02AF01AC02905BFAE1
:1035C600E493FA740193FBC3E99BFDEC9ACD244086
:1035D600CD3400FC853882853783740493FB33959C
:1035E600E0FA125E2FE4F536853882853783740457
:1035F60093FF3395E0FEC3E5369FEE6480F8748052
:1036060098400302369512322C7E00E92536F9EEF3
:103616003AFA8982F583E0FF853882853783740616
:1036260093C36480F8EF648098400D740893D36464
:1036360080F8EF648098400E853882853783740A57
:103646009389828A83F00536809E85388285378302
:1036560012322CAE02AF01AC02905BFAE493FA741C
:103666000193FBC3E99BFDEC9ACD2440CD3400FCCD
:103676007B707A00125E2F85388285378312322C52
:103686007B01853882853783740A93FD125C7B053E
:0B36960035E5357002053402330B22CD
:1052A2007C5E7DB7E4FF12657C7C5E7DC87F401228
:1052B200657C12689FE4F534F535D3902E017401B4
:1052C200939535E493953440239022B475F00BE521
:1052D2003512320EE53475F00BA42583AF82FE122F
:1052E20049380535E53570D2053480CEE4F529F527
:1052F2002A1266107829E6FF08E6901031CFF0A353
:10530200EFF0E4F534F535E535242AFFE43534FED3
:1053120074292535F8E6FD12669B1268B40535E559
:105322003570020534C39402E534940040D9E4F5A3
:1053320034F535905BFA93FE7401938E36F537D3CC
:10534200905BFC7401939535E49395344029E535DF
:105352002440FFE43534FE853782853683E0FD1232
:10536200669B0537E537700205361268B40535E5E8
:0A5372003570CC053480C8026910C4
:104938008E388F39905BFAE493FE740193FFAA06D0
:10494800F97B01C003C002C0018539828538831212
:10495800322CC3D082D083D0E0E99582EA95835087
:1049680003024A68905BFCE493FC740193FDEF2D0D
:10497800FFEE3CFAA9077B01C003C002C0018539DC
:104988008285388312322CC3D082D083D0E0E99557
:1049980082EA95834003024A6885398285388374A0
:1049A8000393540F12323849CB0049CD0149E10233
:1049B80049E30349FE0449FE054A1C064A5007001C
:1049C800004A688000853982853883740A93FF120B
:1049D800322C89828A83EFF02280008539828538DB
:1049E80083740993FE740A93FF12322C89828A8396
:1049F800EEF0A3EFF022853982853883740993FE9F
:104A0800740A93FFEE3395E0FDFC12322C89828AFA
:104A1800830231B4E4F53A85398285388374049386
:104A2800FF3395E0FEC3E53A9FEE6480F874809802
:104A3800502E740A93FF12322CE9253AF582E43A93
:104A4800F583EFF0053A80CF8539828538831232B5
:104A58002C7B01853982853883740A93FD124A6953
:014A6800222B
:0E69100075A6EFC28D758A06758C38D28C2262
:08691E00439104D288D2A822A3
:1068B40075A6EF7F907E0DEF1F70011EEF4E70F7EF
:0468C40075A6EF22A4
:1043A000EFF8EB4480FFC267124B9A8D828C83C278
:1043B00005C207E493FAA3E493FEA3C206EA30E63B
:1043C00002D20630E20302445E30E009E630E7053F
:1043D000D2051244B17400F567F568F569F56A75A0
:1043E0006B01F56CF56DF56EE82EF8EEFB181244D6
:1043F0006DDBFA3005031244B1E493FBFEA3E493B2
:10440000FCA3E493FD300516EBFF1244FE700BEDA8
:10441000C39BB4FF0280031B80F0EBFEEFFBEEC3F7
:104420009B7006EA20E102D207EDC39BB4FF02D2E3
:1044300006701A7F20200C10EA20E30C7F3A20E45B
:10444000077F2E20E5027F2CD267124B9A1244C0C0
:10445000EBC39C6008147002D2061B80C1227967EE
:10446000E82EF8EEFB18E6F709DBFA808CE6FC7F15
:1044700008EC13FC501CE567256BD4F567E568353F
:104480006CD4F568E569356DD4F569E56A356ED4A7
:10449000F56AE56B256BD4F56BE56C356CD4F56C82
:1044A000E56D356DD4F56DE56E356ED4F56EDFC115
:1044B00022EEFBE82E14F8C3E496F618DBFA082285
:1044C00030071DC2073005107F20200C027F2DC24F
:1044D00005D267124B9A80087414FFC267124B9A78
:1044E0001244FE700A2006077F20D267024B9AD240
:1044F000062430300C027420FFD267024B9AEB1472
:10450000C31340082467F8E6540F80072467F8E6D1
:0F45100054F0C4F8C3940A4004E8240722E822B8
:105CF2007B08EFF57DD2B7125D59A2B633C2B71257
:105D02005D59DBF1FFE57D1392B6D2B7125D59C240
:105D1200B7D2B6227B08EF3392B6125D59D2B712D0
:105D22005D59C2B7DBF1D2B6125D59D2B7125D59D5
:105D3200A2B6C2B722D2B6D2B7125D59C2B6125DAE
:105D420059C2B78012C2B6125D59D2B7125D59D28A
:0C5D5200B68004781280027807D8FE2288
:1066EB0020203A20200020202E20202E2020202089
:1066FB00000E0204010216020401021F1C1F1E1FC2
:07670B001E1F1F1E1F1E1FB1
:10681900E4F57E901030E0543FF044C0F5347D3407
:0C6829007B017F07126640D26302469C90
:10469C00E57E60030247EA7F477B07FD126432E543
:1046AC0048547F901086F0E549543F901085F0E512
:1046BC004B543F901087F0E54C541FA3F0A3E54DED
:1046CC00F0E547C4540775F00AA4FFE547540F2FD3
:1046DC00F57F901086E0FDC4540F75F00AA4FFAE70
:1046EC00F0ED540F7C002FF510EC3EF50F9010857B
:1046FC00E0FDC4540F75F00AA4FFED540F2FFFEC2E
:10470C0035F0FE7D3C122E9FEF2510F510EE350F87
:10471C00F50FE54A540714F513306313D3E51094E1
:10472C00A0E50F94054008E4F50FF5101241FB903D
:10473C001083E0650F7004A3E06510600520630230
:10474C00D208901083E50FF0A3E510F0300813AEFB
:10475C000FFF7C007D0A122EB1ED4C7005A263B3E5
:10476C009209901082E0B5130330635FA263B39299
:10477C000A901087E0FFC4540F75F00AA4FEEF54A2
:10478C000F2EF547A3E0FFC4540F75F00AA4FEEFFB
:10479C00540F2EF548A3E0FFC4540F75F00AA4FE85
:1047AC00EF540F2EF54924D0FBE43407FAAD48AF93
:1047BC0047125A6A8E118F12901081E0654860057D
:1047CC00A263B3920B901081E548F0901082E51330
:0F47DC00F0E510643C450F7005300802D27722DB
:1041FB00E57F75F00A84C454F0FFE57F75F00A84FF
:10420B00E5F04FF554AE0FAF107C007D3C122EB194
:10421B008D53E55375F00A84C454F0FFE55375F0E4
:10422B000A84E5F04FF555AE0FAF107C007D3C12C4
:10423B002EB18F53E55375F00A84C454F0FFE55348
:10424B0075F00A84E5F04FF556AF12AE111268EE19
:10425B00EF04F557AE11AF127C017D6D122EB1EF4D
:10426B0024D0F54FEE3407F54EE54F2430FFE54EE5
:10427B0034F8FE7C017D6D122E9FAC06AD07E54F29
:10428B002433FFE54E34F8FEEF7802CEC313CE1382
:10429B00D8F92DFFEC3EFEC3E5129FE5119E5008A9
:1042AB00E54F154F7002154EE54F2430FFE54E34A8
:1042BB00F8FE7C017D6D122E9FAC06AD07E54F24F9
:1042CB0033FFE54E34F8FEEF7802CEC313CE13D88E
:1042DB00F92DFFEC3EFEC3E5129FF551E5119EF55E
:1042EB0050E4F552E552B4010BAF4FAE4E1263F1F1
:1042FB008F538003E4F553E552906706932553FFE4
:10430B00E433FEC3E5519FE5509E4013E5519FF505
:10431B0051E5509EF5500552E552C3940B40C5052F
:10432B00520551E551700205507430254FF54F740D
:10433B00F8354EF54EAE50AF517C007D0A122EB1C2
:10434B00EFC454F0FBAE50AF517C007D0A122EB17E
:10435B00EB4DF558E55275F00A84C454F0FFE55265
:10436B0075F00A84E5F04FF559AE4EAF4F7C007DEA
:10437B000A122EB1EFC454F0FBAE4EAF4F7C007D52
:10438B000A122EB1EB4DF55A7D547B07E4FF1266F2
:05439B0040E4F57E2264
:1066C3008F46E546543F901030F0FD7F297E00123F
:1066D300669B901030E044C0F5467D467B017F0702
:0866E300126640D26302469CDE
:1067A3008F53AD1312574B74032553F553E57F30C5
:1067B300E004D2668002C266AD10AC0FAF53125B29
:0267C3007D2235
:105B7D008F548C558D56300C077C667DEB02657C01
:105B8D00AE55AF567C007D3C122EB1AD07ED75F0D4
:105B9D000A84E5F07B00FAED75F00A84C454F0FE3A
:105BAD00EB2400F558EE3AF557AE55AF567C007D17
:105BBD003C122EB1ED75F00A8475F010A4FFAEF015
:105BCD00ED75F00A847C00EF25F0FFEC3EFEEF252D
:105BDD0058F558EE3557F5577F573066067C677D7B
:0D5BED000180047C667DFCAB541243A022B5
:10574B008F548D55300C057D0302631FE554448047
:10575B00FFC267124B9A90100BE075F002906383B7
:10576B0012320EE493FE740193F5828E8375F0036F
:10577B00E55512320EE493FFD267124B9A90100B41
:10578B00E075F00290638312320EE493FE74019382
:10579B00F5828E83E55575F003A42401FFE435F003
:1057AB00FEE5822FF582E5833EF583E493FFD26716
:1057BB00124B9A90100BE075F00290638312320E2D
:1057CB00E493FE740193F5828E83E55575F003A483
:1057DB002402FFE435F0FEE5822FF582E5833EF5EA
:1057EB0083E493FF6004D2678004D2677F20124B5F
:0257FB009A22F0
:103E4E008F478C488D49300C077C667DF102657C6E
:103E5E00AE48AF497C017D6D122EB1EF24D0F54BEB
:103E6E00EE3407F54AE54B2430FFE54A34F8FE7C84
:103E7E00017D6D122E9FAC06AD07E54B2433FFE599
:103E8E004A34F8FEEF7802CEC313CE13D8F92DFFC5
:103E9E00EC3EFEC3E5499FE5489E5008E54B154BA9
:103EAE007002154AE54B2430FFE54A34F8FE7C01DA
:103EBE007D6D122E9FAC06AD07E54B2433FFE54A10
:103ECE0034F8FEEF7802CEC313CE13D8F92DFFECE3
:103EDE003EFEC3E5499FF54DE5489EF54CE4F54E93
:103EEE00E54EB4010BAF4BAE4A1263F18F4F800318
:103EFE00E4F54FE54E90670693254FFFE433FEC37E
:103F0E00E54D9FE54C9E4013E54D9FF54DE54C9ECE
:103F1E00F54C054EE54EC3940B40C5054E054DE5DB
:103F2E004D7002054CE5474480FFC267124B9AAEB6
:103F3E004CAF4D7C007D0A122EB1EF2430FFD267BC
:103F4E00124B9AAE4CAF4D7C007D0A122EB1ED2471
:103F5E0030FFD267124B9AD2677F2E124B9AE54EE4
:103F6E0075F00A842430FFD267124B9AE54E75F035
:103F7E000A84E5F02430FFD267124B9AD2677F2E67
:103F8E00124B9AAE4AAF4B7C037DE8122EB18F4F87
:103F9E007E007C037DE8122E9FC3E54B9FF54BE51B
:103FAE004A9EF54AE54F2430FFD267124B9AAE4A2D
:103FBE00AF4B7C007D64122EB18F4FEF75F064A471
:103FCE00FFAEF0C3E54B9FF54BE54A9EF54AE54F34
:103FDE002430FFD267124B9AAE4AAF4B7C007D0A5B
:103FEE00122EB18F4FEF75F00AA4FFAEF0C3E54B62
:103FFE009FF54BE54A9EF54AE54F2430FFD26712F6
:10400E004B9AAE4AAF4B7C007D0A122EB1ED243096
:07401E00FFD267124B9A224A
:104F0D008F478C488D49300C057D0702631FAE48D5
:104F1D00AF497C007D0C122EB1EF24D0F54BEE3451
:104F2D0007F54AAE48AF497C007D0C122EB1ED0459
:104F3D00F54CE5474480FFC267124B9AE54C75F07E
:104F4D000A842430FFD267124B9AE54C75F00A841F
:104F5D00E5F02430FFD267124B9AD2677F2F124BA8
:104F6D009AAE4AAF4B7C037DE8122EB1AB077E00A3
:104F7D007C037DE8122E9FC3E54B9FF54BE54A9EC2
:104F8D00F54AEB2430FFD267124B9AAE4AAF4B7CF9
:104F9D00007D64122EB1AB07EB75F064A4FFAEF08B
:104FAD00C3E54B9FF54BE54A9EF54AEB2430FFD206
:104FBD0067124B9AAE4AAF4B7C007D0A122EB1ABF5
:104FCD0007EB75F00AA4FFAEF0C3E54B9FF54BE57B
:104FDD004A9EF54AEB2430FFD267124B9AAE4AAF88
:104FED004B7C007D0A122EB1ED2430FFD267124B9F
:024FFD009A22F6
:105A6A008F4EA905C3EB94D0EA94074009D3EB946F
:105A7A0033EA94084004E4FEFF22EB2430FFEA34C0
:105A8A00F8FE7C017D6D122E9FAC06AD07EB243328
:105A9A00FFEA34F8FEEF7802CEC313CE13D8F92DFD
:105AAA00F550EC3EF54FE4FFE914FEEFC39E5011AA
:105ABA00EF906706932550F550E4354FF54F0F8068
:105ACA00E7E9D394024011AF03AE021263F1EF2566
:105ADA0050F550E4354FF54FE54E24FFFFE434FF0F
:0F5AEA00FEEF2550F550EE354FF54FFEAF502231
:1068EE00EF2405FFE43EFE7C007D07122EB1AF05BE
:0168FE002277
:1063F100AB07AA06EB54037035C3EB942EEA94065F
:1064010050037F01227C007D64AF03AE02122EB1E6
:10641100D3ED9400EC940040037F0122AE02AF0360
:106421007C017D90122EB1ED4C70037F01227F0023
:016431002248
:106432008F4E8D4F8B50125D377FD0125D16AF4F4E
:10644200125D16125D377FD1125D16E550D39401AD
:10645200400FE4FF125CF2A84EA6071550054E80CD
:0D646200EA7F01125CF2A84EA607025D471A
:106640008F5B8D5C8B5D125D377FD0125D16AF5B0B
:10665000125D16E55D6011E55D6012A85CE6FF1253
:106660005D16155D055C80EFAF5C125D16025D473F
:1068FF0020203A202020002D2D3A2D2D000015307C
:01690F004542
:103C56008B468A4789488C498D4A754E80E4F54BD8
:103C6600E51314F54DE54BC39407505EE54D9406F8
:103C76004003754D06E4F54CE54D75F008A4FFAE1E
:103C8600F0AB462548F9E5473EFA7C00E9254CF9B4
:103C9600EC3AFA122E25C394605024E5482438F9EC
:103CA600E43547FAE92FF9EA3EFA7E00E9254CF9B0
:103CB600EE3AFA122E25F54E054CE54CB408B9E558
:103CC6004E30E706054B154D809BE54E30E70675F1
:103CD6004E03023E4BE510254AF550E50F3549F5F2
:103CE6004FE4F54B85134DE54D75F008A4FFAEF096
:103CF600AB462548F9E5473EFA7C00E9254BF9EC49
:103D06003AFA122E25C394604003023DB8E54824D2
:103D160038F9E43547FAE92FF9EA3EFA7E00E92553
:103D26004BF9EE3AFA122E256403602BE54D75F039
:103D360008A42548F9E54735F0FA7E00E9254BF950
:103D4600EE3AFA122E25FF7D0F122E9FD3EF9550D5
:103D5600EE954F5052802DE54D75F008A4AB4625E3
:103D660048F9E54735F0FA7E00E9254BF9EE3AFACF
:103D7600122E25FF7C007D0F122E9FD3EF9510EE9D
:103D8600950F5023E5482438F9E43547FAE54D7593
:103D9600F008A429F9EA35F0FA7E00E9254BF9EE98
:103DA6003AFA122E25F54E054BE54B6408600302E0
:103DB6003CEDD3E550949FE54F94055003023E4BEE
:103DC600054DE54DD394064003E4F54D746025504A
:103DD600F55074FA354FF54FE4F54BE54D75F0089F
:103DE600A4AB462548F9E54735F0FA7E00E9254BB0
:103DF600F9EE3AFA122E25FBFF7C007D0F122E9F5C
:103E0600D3EF9550EE954F503CEBC394605036ABD4
:103E160046E5482438F9E43547FAE54D75F008A437
:103E260029F9EA35F0FA7E00E9254BF9EE3AFA125D
:103E36002E25FF64016004EFB402028F4E054BE5A8
:083E46004B64087096AF4E2298
:104DEC008B368A378938AB39AA3AA93B7480122E94
:104DFC006BE4F53C85133DE53D75F008A4AB362519
:104E0C0038F9E53735F0FA7E00E9253CF9EE3AFA47
:104E1C00122E25FBFF7C007D0F122E9FD3EF9510D9
:104E2C00EE950F4057EB9460505DAB36E538243867
:104E3C00F9E43537FAE53D75F008A429F9EA35F0BF
:104E4C00FA7E00E9253CF9EE3AFA122E25AB39AA86
:104E5C003AA93B122E6BE53D75F008A4AB3625380C
:104E6C00F9E53735F0FA7E00E9253CF9EE3AFA120D
:104E7C002E25FF122E9F8E3E8F3F800B053CE53C6E
:104E8C0064086003024E03AB39AA3AA93B122E25E3
:104E9C0030E753053DE53DD394064003E4F53DE58D
:104EAC003D75F008A4AB362538F9E53735F0FA90A6
:104EBC000038122E3EAB39AA3AA93B122E6BAB36F8
:104ECC00AA37A93875F008E53DA4F58285F0831260
:104EDC002E3EFF7E007C007D0F122E9FEF24A0F54E
:104EEC003FEE3405F53EAB39AA3AA93B122E25709C
:104EFC000B7403122E6B753E0B753FB8AE3EAF3F75
:014F0C002282
:104025008B368A378938E4F53A753B60753C10F56F
:1040350039E51375F008A4FFAEF0AB362538F9E580
:10404500373EFA7C00E92539F9EC3AFA122E25C3F8
:1040550094105040E5382438F9E43537FAE92FF95A
:10406500EA3EFA7E00E92539F9EE3AFA122E25B430
:104075000322E51375F008A42538F9E53735F0FA7C
:104085007E00E92539F9EE3AFA122E25FFD3953A45
:1040950040028F3AE51375F008A4FFAEF0AB362564
:1040A50038F9E5373EFA7C00E92539F9EC3AFA1298
:1040B5002E25C39410404CE5382438F9E43537FAF9
:1040C500E92FF9EA3EFA7E00E92539F9EE3AFA12C6
:1040D5002E256403602DE51375F008A42538F9E550
:1040E5003735F0FA7E00E92539F9EE3AFA122E2530
:1040F500FFC3953B500D8F3BE53B953C4005E53BAC
:1041050004F53CAB36E5382438F9E43537FAE513E0
:1041150075F008A4FFAEF029F9EA3EFA7C00E9251E
:1041250039F9EC3AFA122E25B4031CE5382FF9E5D6
:10413500373EFA7E00E92539F9EE3AFA122E25FFC7
:10414500D3953C40028F3C0539E53964086003028C
:104155004036E51304F53DD394064003E4F53DE40C
:10416500F539E53D75F008A4FFAEF0AB362538F915
:10417500E5373EFA7C00E92539F9EC3AFA122E25A5
:10418500C39410502AE5382438F9E43537FAE92F75
:10419500F9EA3EFA7E00E92539F9EE3AFA122E25BA
:1041A500B40305753C6080070539E539B408B3C229
:1041B50061AF3A7E007C007D0F122E9FC3E5109FF4
:1041C500E50F9E4002D261AF3B7E007C007D0F1261
:1041D5002E9FC3E5109FE50F9E4002C261AF3C7E56
:1041E500007C007D0F122E9FC3E5109FE50F9E40BA
:0641F50002D261A261226A
:105C7B008B398A3A893B8D3CC260E4F53EE4F53DB5
:105C8B00E53E75F008A4FFAEF0AB39253BF9E53ADC
:105C9B003EFA7C00E9253DF9EC3AFA122E25D39415
:105CAB00605020E53B2438F9E4353AFAE92FF9EA5C
:105CBB003EFA7E00E9253DF9EE3AFA122E25D394F1
:105CCB00034004D2608007053DE53DB408B2206077
:105CDB0007053EE53EB407A530600BAB39AA3AA9E0
:075CEB003BAD3C124A6922A7
:104A69008B3F8A4089418D42E4F544E4F543E544AE
:104A790075F008A4FFAEF0AB3F2541F9E5403EFAD9
:104A8900AD437C00E92DF9EC3AFA7460122E6BAB58
:104A99003FE5412438F9E43540FAE92FF9EA3EFACD
:104AA900E92DF9EC3AFAE4122E6B0543E543B40813
:104AB900BD0544E544B407B3E5427003024B95E4F0
:104AC900F543D39022B27401939543E49394005033
:104AD90003024B9575F005E5439021E512320EAFBF
:104AE900828583458F46E49365426003024B83F5D3
:104AF90044854682854583740193FD7C0074017E5B
:104B090000A844088005C333CE33CED8F9FFEE5C44
:104B1900FEEF5D4E6057854682854583740393FD9C
:104B2900E54475F008A4AB3F2541F9E54035F0FAB5
:104B39007402937E0029F9EE3AFAED122E6B85463E
:104B490082854583740493FDAB3FE5412438F9E43C
:104B59003540FAE54475F008A429F9EA35F0FA7404
:104B690002937E0029F9EE3AFAED122E6B0544E51F
:104B79004464076003024AFA800D854682854583AD
:0D4B8900E493D3954250050543024ACB2228
:105DC7008F478D48300C067C687DFF8057E548C3B8
:105DD7009460504AE5481313543F754900F54AD378
:105DE7009409E54994004019E54A9414E54994005B
:105DF700500474068002740C254AF54AE43549F5C7
:105E070049E54A754A00F549E548540390690C93FA
:105E1700424AE47F497C677D01AB470243A07C6926
:085E27007D06AF4712657C22E5
:105452008F478D487D1012631F300C0302551BE4E9
:10546200F549E5474480FFC267124B9AE54870034D
:1054720002551B20E00302551090100BE075F0025C
:1054820090638312320EE493FE740193F5828E834D
:1054920075F003E54912320EE493FFD267124B9A7C
:1054A20090100BE075F00290638312320EE493FECB
:1054B200740193F5828E83E54975F003A42401FFFC
:1054C200E435F0FEE5822FF582E5833EF583E49331
:1054D200FFD267124B9A90100BE075F00290638333
:1054E20012320EE493FE740193F5828E83E54975C0
:1054F200F003A42402FFE435F0FEE5822FF582E5F5
:10550200833EF583E493FF6005D267124B9A054907
:0A551200E548C313F54802546E2269
:1058A0008B4E8A4F89508D51E4F553E55275F008BF
:1058B000A4AB4E2550F9E54F35F0FA7E00E92553AB
:1058C000F9EE3AFA122E25FDE55175F008A425509F
:1058D000F9E54F35F0FA7E00E92553F9EE3AFA1270
:1058E0002E256D6002C322AB4EE5502438F9E43515
:1058F0004FFAE55275F008A429F9EA35F0FA7E006E
:10590000E92553F9EE3AFA122E25FDE5502438F92F
:10591000E4354FFAE55175F008A429F9EA35F0FAB3
:105920007E00E92553F9EE3AFA122E256D6002C386
:0E593000220553E553640860030258ABD322EE
:1055DD008E438F448D458B46AF457401A8070880D7
:1055ED0002C333D8FCF45246E5467003025695FFCC
:1055FD001267128F487401A807088002C333D8FCC4
:10560D00F45246E4F547E547C3940850DB854482E0
:10561D0085438375F008E54512320EE5822547F581
:10562D0082E43583F583E0FF85448285438375F0FD
:10563D0008E54812320EE5822547F582E43583F5FB
:10564D0083EFF0E5442438F582E43543F58375F0B6
:10565D0008E54512320EE5822547F582E43583F5DE
:10566D0083E0FFE5442438F582E43543F58375F096
:10567D0008E54812320EE5822547F582E43583F5BB
:09568D0083EFF0054702561322D9
:10671200AD07E4FC74017E00A804088005C333CEF3
:1067220033CED8F9FFEDFBEF5B7009ECC394075051
:07673200030C80E0AF04221C
:10551C008F468B478A488949E546C39407501074D7
:10552C0001A807088002C333D8FCF54A0255DA7487
:10553C00FA2546F546E4F54BF54CF54DE4F54AE510
:10554C004D04FFEFC394075031AB47AA48A9498FCC
:10555C0052AD4D1258A0501FE54A700EAE4D04A826
:10556C0006088002C333D8FCF54A7401A8070880EA
:10557C0002C333D8FC424A0F80C9E54A6006054C89
:10558C00424B800FAF4D7401A807088002C333D87B
:10559C00FC424BE54DC39407501A74017E00A84D94
:1055AC00088005C333CE33CED8F9FFEF554B6004DA
:1055BC00054D80DFE54CC39546500AE54DC3940775
:1055CC005003025548E54C65466003E4F54AAF4A82
:0155DC0022AC
:103A2B008E438F448D45E4F546E5442438F582E416
:103A3B003543F58375F008E54512320EE5822546D0
:103A4B00F582E43583F583E0701E854482854383DC
:103A5B0075F008E54512320EE5822546F582E43510
:103A6B0083F5837460F0803D85448285438375F0D4
:103A7B0008E54512320EE5822546F582E43583F5DD
:103A8B0083E0B46020E5442438F582E43543F583C4
:103A9B0075F008E54512320EE5822546F582E435D0
:103AAB0083F583E4F00546E54664086003023A3487
:103ABB00E4F546E5465401F547E547C39407400353
:103ACB00023C49E5472401FFE433FE8544828543EC
:103ADB008375F008E54512320EE5822FF582E583FA
:103AEB003EF583E0F985448285438375F008E5450F
:103AFB0012320EE5822547F582E43583F583E0FD2E
:103B0B00E9C39D4003023BD38D48854482854383A3
:103B1B0075F008E54512320EE5822547F582E4354E
:103B2B0083F583E9F085448285438375F008E54589
:103B3B0012320EE5822FF582E5833EF583E548F0E0
:103B4B00E5442438F582E43543F58375F008E54503
:103B5B0012320EE5822547F582E43583F583E0F5D5
:103B6B0048E5472439FFE433FE854482854383755A
:103B7B00F008E54512320EE5822FF582E5833EF51E
:103B8B0083E0FFE5442438F582E43543F58375F093
:103B9B0008E54512320EE5822547F582E43583F5BB
:103BAB0083EFF0E5472439FFE433FE8544828543F8
:103BBB008375F008E54512320EE5822FF582E58319
:103BCB003EF583E548F0806FE5472401FFE433FEC3
:103BDB0085448285438375F008E54512320EE582F4
:103BEB002FF582E5833EF583E0FF85448285438391
:103BFB0075F008E54512320EE5822547F582E4356E
:103C0B0083F583E0FEEF6E702EEF64606029E5476D
:103C1B002401FFE433FE85448285438375F008E578
:103C2B004512320EE5822FF582E5833EF5837460F3
:103C3B00F07547077546FF05470547023AC4054629
:0B3C4B00E546C394075003023ABE2276
:106549008E468F47AE04AF05AA06A9077B01E4FF73
:10655900EFC39470501C854782854683E0122E6BE9
:106569000F0547E54770020546740129F9E43AFA2F
:0365790080DE229F
:10593E00C273C272E4901077F0A3F0C2C4E51524CE
:10594E0012F582E43514F583E04404F0E4F53412E4
:10595E0068B40534E534C3946440F4E490107DF0EB
:10596E00A3F0A3F0A3F01264A9901079E0FDB44F58
:10597E0026D27390107BE075F00AA4FBAAF090106B
:10598E007AE075F064A42BFFE5F03AFE90107CE00F
:10599E007A002FFFEA8028EDB44C2CD27290107B47
:1059AE00E075F00AA4FDACF090107AE075F064A4F6
:1059BE002DFFE5F03CFE90107CE07C002FFFEC3ECE
:0859CE00901077F0A3EFF02226
:1064A900C2C71268C81268C8E4F535747D2535F588
:1064B90082E43410F583E0FF12646F74792535F5B1
:1064C90082E43410F583EFF01268C80535E535C369
:0764D900940440D7D2C72252
:10646F008F36E4F538F537E53630E704D2C68002CB
:10647F00C2C6E53625E0F536D2C4125D55E538259E
:10648F00E0F53830C503433801C2C4125D550537F6
:0A649F00E537C3940840D0AF38225F
:1068C80075A6EF7F487E01EF1F70011EEF4E70F72F
:0468D80075A6EF2290
:045BFA00020E08335C
:10EF5E00901033E07004A3E06401700312FAB790CE
:10EF6E001033E0FFA3E090070FCFF0A3EFF0C25CE9
:10EF7E00C25FC258C25EC25BC25AC25D9001B77414
:10EF8E000AF09001FB743CF0E4F51DF51E9001F9BA
:10EF9E00F0A3F09001D7F0A3F090020DF09001F5E0
:10EFAE00F0A3F0A3F0A3F0900188F0A3F0900A482C
:10EFBE00F0A3F0900180F0A3F09001B7E024E0FE02
:10EFCE00E434019001D5F0A3CEF0E4900204F09069
:10EFDE000209F0A3F0900207F0A3F09001B8F0A39D
:10EFEE00F09001C2F0900A55F0A3F09001B5F0A395
:10EFFE00F09001C0F0A3F0900203F0900A4A74FE64
:10F00E00F0E4900A53F0A3F09001BEF0A3F090014B
:10F01E0082F0A3F0900A4BF0900A457448F0E49009
:10F02E000A43F0A3F09001BA1231C000000000E4D0
:10F03E00900A4CF09001FEF09001FCF0A3F09001CC
:10F04E008BF090018AF09001C3F0A3F09001FFF0D5
:10F05E0090020BF0A3F090018CF0A3F0A3F0A3F0BC
:10F06E00A3F0A3F0A3F09001B0F0A3F0900193F001
:10F07E00A3F0A3F0A3F0A3F0A3F0A3F0A3F0A3F0EA
:10F08E00A3F0A3F0A31231C000000000E49001A28F
:10F09E00F0A3F0A3F0A3F0A31231C0000000009083
:10F0AE0001AA1231C000000000E49001AEF0A3F0FE
:10F0BE009001B2F0900202F09001B3F0A3F0900133
:10F0CE00F404F0E4900A41F0A3F09001F2F0A3F002
:10F0DE009001841231C000000000E4900A51F0A3A8
:10F0EE00F07E017FD9C39001F2EF9582EE958350A9
:10F0FE000D8F828E83E4F00FBF00010E80E7900E1D
:10F10E0067E04408F0A3E04403F07E017FC5C3909E
:10F11E0001D5EF9582EE9583500D8F828E83E4F0AC
:10F12E000FBF00010E80E7900EF0E0447CF09010CF
:10F13E000BE0D394064005E4F0431E1012E9AA1228
:05F14E00F15302691EEF
:10FAB700901088E0FDC4540F75F00AA4FFED540FB1
:10FAC7007C002FFBEC35F0FAAE11AF120C7D6D12F6
:10FAD7002EB17C007D0C122E9FEF2BFFEE3ACF2428
:10FAE7000BCF34009006F4F0A3EFF07E067FF47D91
:04FAF700020265AEF4
:10D9DE009001B7E0600214F09001FBE0600214F0D9
:10D9EE00900A4FE07002A3E0600A900A4F74FFF5B0
:10D9FE00F0122F3C900A46E07002A3E0600A900AF3
:10DA0E004674FFF5F0122F3C9001D7E07002A3E0B0
:10DA1E00600A9001D774FFF5F0122F3C900180E060
:10DA2E007002A3E0600A90018074FFF5F0122F3CA3
:10DA3E009001D5E07002A3E0600A9001D574FFF565
:10DA4E00F0122F3C900209E07002A3E0600A9002EF
:10DA5E000974FFF5F0122F3C900207E07002A3E06C
:10DA6E00600A90020774FFF5F0122F3C9001B8E0A7
:10DA7E007002A3E0600A9001B874FFF5F0122F3C1B
:10DA8E009001B5E07002A3E0600A9001B574FFF555
:10DA9E00F0122F3C900A53E07002A3E0600A900A45
:10DAAE005374FFF5F0122F3C9001BEE07002A3E01C
:10DABE00600A9001BE74FFF5F0122F3C900182E0D7
:10DACE007002A3E0600A90018274FFF5F0122F3C01
:10DADE00900204E0600214F09001FFE0600214F086
:10DAEE0090020BE07002A3E0600A90020B74FFF547
:10DAFE00F0122F3C9001B3E07002A3E0600A900197
:10DB0E00B374FFF5F0122F3C900A51E07002A3E0BF
:10DB1E00600A900A5174FFF5F0122F3CE510B4D054
:10DB2E0021E50FB4021CE57FD394145015900EA47A
:10DB3E00E0947E900EA3E0648094845005431E040E
:10DB4E008003531EFB307705C2774365389001F989
:10DB5E00E07002A3E0600D9001F974FFF5F0122F52
:10DB6E003C02DC3E9001B7E0600302DC3E9001F91E
:10DB7E007404F0A374B0F0E4F52F900202E0B40543
:10DB8E0005752F03805E901035E0FF64056004EF8D
:10DB9E00B4060990105BE030E63C80379006F4E066
:10DBAE00FEA3E0FF7C007D0C122EB1EF24D0FBEE25
:10DBBE003407FA9006F4E0FEA3E0FF7C007D0C1221
:10DBCE002EB1ED04FD7F01125A6AD3EF9512EE9538
:10DBDE00115003752F02E52F700A900202E0B40671
:10DBEE0003752F04E52F6048E4FF75F002EF900AED
:10DBFE007A12320EE0FCA3E04C7031745B2FF5828A
:10DC0E00E4340AF583E52FF075F002EF900A621204
:10DC1E00320E7402F0A3741CF075F002EF9021CB5B
:10DC2E0012320EE493426474019342650FBF03BA3D
:10DC3E0090020DE07018206E152075129001D9E03B
:10DC4E00700C9001C5E07006201B03302803D380B2
:10DC5E0001C39231900E3EE020E30302DCF190010D
:10DC6E00AA12317CEC4D4E4F60089001B27407F051
:10DC7E008076900195E0FEA3E0FFEE705EEF12322B
:10DC8E0038DCB700DCBF05DCC10ADCC10FDCC1111A
:10DC9E00DCC113DCD114DCC919DCC91EDCD128DCD3
:10DCAE00D932DCE1460000DCE99001B27401F0806B
:10DCBE003780309001B27405F0802D9001B274045B
:10DCCE00F080259001B27402F0801D9001B27403B1
:10DCDE00F080159001B27406F0800D9001B27408B8
:10DCEE00F08005E49001B2F0302A1E900E4AE070EA
:10DCFE0018C22A905BFA93FE740193FF905BFCE4CA
:10DD0E0093FC740193FD1265AE90100BE090071317
:10DD1E00F0300869C20830550312F8E8901035E06B
:10DD2E00FB64066037307209901071E0D3940540A1
:10DD3E002B30372890070AE004F0C3943C401DE0D6
:10DD4E0024C4F090070612317CEF2401FFE43EFE5E
:10DD5E00E43DFDE43CFC9007061231B4300925C2C7
:10DD6E0009EB6406601E307209901071E0D39405C1
:10DD7E0040127E077F067D057C000265AE300A04E8
:05DD8E00C20AC26C2274
:10F8E800E5136406707C901088E0FF64036005EF00
:10F8F8006410706E901088E0FFC4540F75F00AA46D
:10F90800FEEF540F2E14FF901087E0FEC4540F75BD
:10F91800F00AA4FDEE540F2DFEEF90670693C39EE8
:10F92800C39407503D901088E0B4030FE510647845
:10F93800450F7007F50F7510B48024901088E0B457
:10F948001020E5106477450F7003D2562230561206
:10F95800E51064B4450F700AC256F50F7510781299
:03F9680041FB223E
:10E9AA00437001900E67A3E0FF20E602800C900EF0
:10E9BA0066E030E6055370FD8003437002C259EFEA
:10E9CA0020E313437004900C2DE0FF6409604AEFC2
:10E9DA006410704D80435370FB900E66E020E32C68
:10E9EA00900C2DE0C394075038900714E0FF70088C
:10E9FA009002107409F08029EFB401089002107493
:10EA0A0010F0801DEFB40219D2598015900C2DE038
:10EA1A00FF64096004EFB41008900211E09002103C
:10EA2A00F0900E67E0FEA3E0FF20E702800C900E54
:10EA3A0066E030E7055372FE8003437201E57230E7
:10EA4A00E071EF20E51D437204900C52E0FF640967
:10EA5A006005EF641070577F01124632900396EFFB
:10EA6A00F0804B5372FB900E66E020E52C900C521E
:10EA7A00E0C394075038900715E0FF70089003969A
:10EA8A007409F08029EFB401089003967410F0809D
:10EA9A001DEFB40219D2598015900C52E0FF640997
:10EAAA006004EFB41008900397E0900396F0437265
:10EABA00028005E4F571F572E57830E105437401E9
:10EACA0080035374FEE57430E077900EF0E020E4A2
:10EADA001D437404900C77E0FF64096005EF64102D
:10EAEA00705A7F02124632900720EFF0804E53741C
:10EAFA00FB900EEEE020E42F900C77E0C3940750D1
:10EB0A003B9008A6E0FF70089007207409F0802C5B
:10EB1A00EFB401089007207410F08020900715E0E8
:10EB2A00B40219D2598015900C77E0FF6409600489
:10EB3A00EFB41008900721E0900720F04374028098
:10EB4A0005E4F573F574E57830E205437601800350
:10EB5A005376FEE57630E014900EF0E020E60543A9
:10EB6A00760480035376FB4376028005E4F575F557
:10EB7A0076A22B9260900E67A3E0FF20E104D22BCD
:10EB8A00800D900E66E030E104C22B8002D22BA2E7
:10EB9A0060302B01B35005E4901035F0EF20E40407
:10EBAA00D25C800D900E66E030E404C25C8002D232
:10EBBA005C900E67E0FEA3E020E004D232800D9064
:10EBCA000E66E030E004C2328002D232EE33B392F3
:10EBDA0033E490020DF09001B7E0600302EC86E5A1
:10EBEA007630E019900EEFA3E0FF30E70690020DB1
:10EBFA007415F0EF30E50690020D7414F0E57430E8
:10EC0A00E00D900EF0E030E30690020D7410F0E58E
:10EC1A007830E02D900712E020E40D900EF0E030FD
:10EC2A00E20690020D740EF0900EEFA3E0FF30E1C1
:10EC3A000690020D740DF0EF30E00690020D740C90
:10EC4A00F0900E67E030E70F203206207309207239
:10EC5A000690020D740BF0900E67E030E11E900CE6
:10EC6A0030E0B40111E57230E007900C55E0B401D0
:0DEC7A0005E57430E00690020D740AF022EA
:10F1530090021CE024FFFF90021BE034FFFE9002AC
:10F1630019E0FCA3E0FDD39FEC9E4016ED2401FEC5
:10F17300E43CA3F0A3CEF07E027F1B7D027C001251
:10F1830065AEE57720E52AE4900C30F0900C4BF067
:10F19300900712E020E035900E3FE0702F900712A9
:10F1A300E04401F07E077F117D027C001265AE8092
:10F1B3001B90021DE0900C30F0E57730E5079002DC
:10F1C30022E0FF80027F00900C4BEFF09001FBE008
:10F1D3007036900A10E024FE601314601724027046
:10F1E30027E57230E013E57730E61D800CE57420E7
:10F1F300E0168005E57620E00FE4900A10F07E0A21
:10F203007F107D01FC1265AEE4900A20F09003A20A
:10F21300E024FFFF9003A1E034FFFE90039FE0FC96
:10F22300A3E0FDD39FEC9E4016ED2401FEE43CA336
:10F23300F0A3CEF07E037FA17D027C001265AEE5D4
:10F243007720E61EE4900C55F0900C70F0900712B6
:10F25300E020E133900E40E0702D900712E044026D
:10F2630080199003A3E0900C55F09003A8E0900C54
:10F2730070F0900712E030E20E54FBF07E077F112E
:10F283007D027C001265AEE4900A30F020321A90C1
:10F293000716E06003B403119007167402F07E07AB
:10F2A3007F167D017C001265AE9001FBE0707990C2
:10F2B300072CE024FFFF90072BE034FFFE90072983
:10F2C300E0FCA3E0FDD39FEC9E4016ED2401FEE499
:10F2D3003CA3F0A3CEF07E077F2B7D027C0012655A
:10F2E300AEE4900C7AF0900C95F0900A40F0E5783B
:10F2F30020E002C254E57630E00320321590071275
:10F30300E030E70E547FF07E077F117D027C001210
:10F3130065AE201D13900A09E0B4010CE4F07E0AE7
:09F323007F097D01FC1265AE2298
:10F6FE001236A1900EF1E07002A3E0600302F7FB58
:10F70E00901035E0FF64036005EF64047026E51E7B
:10F71E0030E3028040900E8FE0FFA3E0900EA9CF61
:10F72E00F0A3EFF0900E67E0FEA3E0FF30E135EEC0
:10F73E004440804D900E67E0FCA3E0FD20E1119067
:10F74E000E8FE0FFA3E0900EA9CFF0A3EFF0801490
:10F75E00E51E30E318900EC9E0FFA3E0900EA9CF8E
:10F76E00F0A3EFF0900E67E054BFF0801B900E8F69
:10F77E00E0FFA3E0900EA9CFF0A3EFF0EC4440AF72
:10F78E0005900E67F0A3EFF0900E67E0FEA3E0FF8A
:10F79E00EE30E0124402900E67F0A3EFF0E4900E0C
:10F7AE009FF0A3F08014900E67E054FDF0900E9D34
:10F7BE00E0FFA3E0A3CFF0A3EFF0900E67E0FEA36F
:10F7CE00E0FF30E212EE4480900E67F0A3EFF0E41B
:10F7DE00900EABF0A3F022900E67E0547FF0900EE7
:0EF7EE0091E0FFA3E0900EABCFF0A3EFF0226E
:10E0C80020320302E26A303625900608E024E2FF97
:10E0D800900607E034FFFEC3900EACE09FEE64802C
:10E0E800F8900EABE06480985021C236801D9006EF
:10E0F80007E0FEA3E0FFD3900EACE09FEE6480F84B
:10E10800900EABE06480984002D236E57620E003BA
:10E1180002E26820180302E26C301946900608E013
:10E1280024D8FF900607E034FFFEC3900EACE09FB2
:10E13800EE6480F8900EABE064809840219008ADC2
:10E14800E0240AFF9008ACE03400FED3900EBCE057
:10E158009FEE6480F8900EBBE06480984041C2193D
:10E16800803D900608E024ECFF900607E034FFFEAF
:10E17800D3900EACE09FEE6480F8900EABE0648024
:10E1880098401C9008ACE0FEA3E0FF900EBCE09F16
:10E19800EE6480F8900EBBE06480985002D219308B
:10E1A8003C5F206C58900520E0FEA3E0FF90051C22
:10E1B800E0FCA3E0FDD39FEE6480F8EC6480984017
:10E1C80006AE04AF058000EF2450FFE43EFE900E3B
:10E1D800ABE0FCA3E0FDD39FEE6480F8EC6480988C
:10E1E800401B900EBCE02450FF900EBBE03400FEB4
:10E1F800D3ED9FEE6480F8EC648098506BC23C804D
:10E2080067206C64900520E0FEA3E0FF90051CE009
:10E21800FCA3E0FDD39FEE6480F8EC648098400690
:10E22800AE04AF058000EF2464FFE43EFE900EAB21
:10E23800E0FCA3E0FDC39FEE6480F8EC64809840A6
:10E2480027900EBCE02464FF900EBBE03400FEC3B0
:10E25800ED9FEE6480F8EC648098400CD23C800816
:10E268008002C236C219C23C302F15C3900EAAE0F4
:10E278009464900EA9E0648094804017C22F8013A4
:10E28800C3900EAAE09432900EA9E0648094805066
:10E2980002D22F303525C3900EACE09464900EABBB
:10E2A800E0648094804037900E8EE09464900E8DE8
:10E2B800E0648094804027C2358023C3900EACE090
:10E2C8009432900EABE0648094804010900E8EE003
:10E2D8009432900E8DE0648094805002D235301FC5
:10E2E8006030213490060BE0FFC3900A56E09FFF90
:10E2F800900A55E09400FEC3900EACE09FEE648057
:10E30800F8900EABE06480985039900A51E07002A2
:10E31800A3E0702FC221802B900A55E0FEA3E0FFF6
:10E32800D3900EACE09FEE6480F8900EABE0648072
:10E3380098500A900A51E07002A3E06006D221804A
:10E3480002D221900E3EE030E372201D03D2222239
:10E35800302234900608E024CEFF900607E034FF10
:10E36800FED3900EACE09FEE6480F8900EABE064B4
:10E3780080985010900EC4E09448900EC3E06480DA
:10E388009483403AC22222900608E0249CFF90061B
:10E3980007E034FFFEC3900EACE09FEE6480F89077
:10E3A8000EABE06480985016C3900EC4E0942090A1
:0FE3B8000EC3E0648094835005D22222C2222239
:10DD9300202B08E51E20E30302DF83900C2DE01205
:10DDA3003238DDD600DDD601DDD602DDD603DDD681
:10DDB30004DE0F05DDEB06DE0F07DE0708DE0F09C5
:10DDC300DDD60ADE0F0BDE0F0CDE0F0DDDEB1000D0
:10DDD30000DE1530480A900C2EE0900205F08032E8
:10DDE3007B017A057925800F7B013048067A027919
:10DDF3003A80047A057925E4FDFC123C569002052D
:10DE0300EFF0800E9002057401F080069002057415
:10DE130003F03040353033309001F5E07002A3E079
:10DE23006013C3900EACE09444900EABE064809416
:10DE3300825056804DD3900EACE09458900EABE0D8
:10DE430064809482404380298027900205E0FF602C
:10DE530017C394035012EF75F002A4241AF9740542
:10DE630035F08982F583800C302C179002057401FC
:10DE7300F090051CE0FFA3E09001F5CFF0A3EFF0D5
:10DE83008007E49001F5F0A3F0E57720E60302DFD5
:10DE93007D900C52E0123238DECC00DECC01DECCB9
:10DEA30002DECC03DECC04DF0505DEE106DF050779
:10DEB300DEFD08DF0509DECC0ADF050BDF050CDF1D
:10DEC300050DDEE1100000DF0B30490A900C53E032
:10DED300900206F080327B017A057995800F7B01F1
:10DEE3003049067A02793A80047A057995E4FDFC93
:10DEF300123C56900206EFF0800E9002067401F079
:10DF030080069002067403F03040353033309001C0
:10DF1300F7E07002A3E06013C3900EACE09444906A
:10DF23000EABE0648094825062804FD3900EACE0DD
:10DF33009458900EABE064809482404F80298027F0
:10DF4300900206E0FF6017C394035012EF75F002CE
:10DF5300A4241EF9740535F08982F583800C302DD5
:10DF6300179002067401F0900520E0FFA3E09001F2
:10DF7300F7CFF0A3EFF080138000E49001F780085F
:10DF8300E49001F5F0A3F0A3F0A3F09001F7E0FE15
:10DF9300A3E0FF9001F5E0FCA3E0FDD39FEE6480D6
:10DFA300F8EC6480984006AE04AF058000900188C9
:10DFB300EEF0A3EFF0E57730E323900188E0700201
:10DFC300A3E07008900A48F0A3F080329001CBE000
:10DFD300FFA3E0900A48CFF0A3EFF080219007164B
:10DFE300E07005FE7F6480047E007F00900189E07D
:10DFF3002FFF900188E03E900A48F0A3EFF0205CE9
:10E0030006205F0302E0BF900C2DE024FB60182480
:10E01300FE601424FE601024FE600C240370109034
:10E0230002007401F0802C9002007403F08024300D
:10E033004A10900205E0FFB402067E017F01800EC4
:10E04300800C7B017A067914E4FDFC123C569002A5
:10E0530000EFF0302C069002007401F0E57730E613
:10E0630054900C52E024FB601824FE601424FE60DC
:10E073001024FE600C240370109002017401F080E0
:10E083002A9002017403F08022304B0E900206E0C6
:10E09300FFB402047F01800E800C7B017A06798431
:10E0A300E4FDFC123C56900201EFF0302D16900275
:10E0B300017401F0229002017403F02290020074B3
:05E0C30003F0A3F022B0
:109D9A00900C2DE0FFB40C03D38001C39242EFB4C0
:109DAA000D03D38001C39244900C2DE0FFB40E033F
:109DBA00D38001C39240EFB40F03D38001C392430F
:109DCA002042033044067E007F0180047E007F002B
:109DDA00EE4F24FFB39241207208901035E06406DA
:109DEA007028901060E0FFC3648094765004D261BA
:109DFA008002C26120370330430CEFB46404D2609E
:109E0A00800CC2608008C2608004C261C2602060A7
:109E1A0005E51E30E003D38001C3923E302E0320B5
:109E2A004E03303E05436F028003536FFD302E030D
:109E3A00205003303E0543710280035371FD302EDA
:109E4A0003205703303E0543730280035373FD30EA
:109E5A002E07900712E020E603303E054375028084
:109E6A00035375FD206108203605E51E30E103D352
:109E7A008001C3923D206108201905E51E30E103E7
:109E8A00D38001C3921A202B08E51E20E30302A007
:109E9A00C69001B7E06003C38002A22E92629007C7
:109EAA0016E07076302E45900A48E0FEA3E0FFC324
:109EBA00900EAAE09FEE6480F8900EA9E064809864
:109ECA005003029FF9900524E0FDEF9DFFEE9400F8
:109EDA00FEC3900EACE09FEE6480F8900EABE06497
:109EEA0080985003029FF9C22E029FF9900524E040
:109EFA00FFC3900A49E09FFF900A48E09400FEC31E
:109F0A00900EAAE09FEE6480F8900EA9E064809813
:109F1A004003029FF9D22E029FF9900716E06403CC
:109F2A006003029FAFA25B9262305B1F900A48E017
:109F3A00FEA3E0FFC3900EAAE09FEE6480F8900EA5
:109F4A00A9E0648098402CC25B8028900524E0FF39
:109F5A00C3900A49E09FFF900A48E09400FEC3902C
:109F6A000EAAE09FEE6480F8900EA9E064809850F3
:109F7A0002D25B302E07205B76C22E8072305B6F76
:109F8A00900A49E02432FF900A48E03400FEC39068
:109F9A000EACE09FEE6480F8900EABE064809850BF
:109FAA004ED22E804A302E1F900A48E0FEA3E0FFD0
:109FBA00C3900EAAE09FEE6480F8900EA9E0648038
:109FCA0098402CC22E8028900524E0FFC3900A49AD
:109FDA00E09FFF900A48E09400FEC3900EAAE09F1B
:109FEA00EE6480F8900EA9E06480985002D22E9018
:109FFA001035E0FF64036004EFB4041290105BE0D4
:10A00A00FF20E205304702C22EEFA2E29247202E3D
:10A01A001C302C0B900205E0C394035002C22C3072
:10A02A002D0B900206E0C394035002C22D302F2656
:10A03A00900A48E0FEA3E0FFC39464EE6480948033
:10A04A00500A7C007D647E007F648000900A48EE9E
:10A05A00F0A3EFF0D22E900716E0B40303D38001E9
:10A06A00C3403A30625F202E5C900605E0FEA3E012
:10A07A00FF7C007D0C122E9FEF243CFFE43EFE90F5
:10A08A0001B5E0FCA3E0FD2FFFEC3E900180F0A3B8
:10A09A00EFF0203230A3ECF0A3EDF08028306225F7
:10A0AA00205B22900605E0FEA3E0FF7C007D0C12F7
:10A0BA002E9F900180EEF0A3EFF08009C22EE4906B
:10A0CA000180F0A3F0205C06205F0302A26A205FF1
:10A0DA0033900209E07002A3E0703520B332900693
:10A0EA0011E075F078A4FF900209E5F0F0A3EFF013
:10A0FA00900610E075F078A4FF900207E5F0F0A34F
:10A10A00EFF0800C20B3099001B8E4F0A3743CF09E
:10A11A00E57030E305E56F30E214E57230E305E5FA
:10A12A007130E20AE57430E310E57320E20BD2588D
:10A13A009001C27406F002A271900200E06401600C
:10A14A0019A3E064016013900207E07002A3E070B3
:10A15A00099001DCE0700302A251305F0302A24DB4
:10A16A00900206E0FFB402059005228003900520C4
:10A17A00E0FCA3E0FD900205E0FEB4020590051E96
:10A18A00800390051CE0FAA3E0FBD3EB9DEC64800E
:10A19A00F8EA6480984017EEB4020590051E800321
:10A1AA0090051CE0FCA3E0FDAE04AF058011EFB4FE
:10A1BA0002059005228003900520E0FEA3E0FF8EB1
:10A1CA002F8F30900EA9E0FEA3E0FFC39530E52F54
:10A1DA006480F8EE64809850028004AE2FAF30900D
:10A1EA000612E0FCA3E0FDC3EF9DF530EE9CF52FCF
:10A1FA00305829C3900E96E09530E52F6480F89088
:10A20A000E95E06480984002C258900207E07002FE
:10A21A00A3E060047F0180417F05803DE53024F69C
:10A22A00FFE52F34FFFED3900E96E09FEE6480F890
:10A23A00900E95E06480985002D2589001C274043E
:10A24A00F08024D258801BC258900209E07002A301
:10A25A00E060047F0280027F039001C2EFF0800772
:10A26A00C258E49001C2F0305C10205805E51E3057
:10A27A00E203D38001C3925E8002C25E20320302EF
:10A28A00A420303A0302A420303D0302A420301A4D
:10A29A000302A42030430302A420302E1390071691
:10A2AA00E0700D900A48E0FFA3E0900A55CF807A4B
:10A2BA00900C5CE0FEA3E0FF900C37E0FCA3E0FD0D
:10A2CA00D39FEE6480F8EC6480984006AE04AF0534
:10A2DA008000900A55EEF0A3EFF0900C81E0FCA309
:10A2EA00E0FDC39FEE6480F8EC648098500A900AFF
:10A2FA0055E0FEA3E0FF8004AE04AF05900A55EED8
:10A30A00F0A3EFF0900CA6E0FCA3E0FDC39FEE647F
:10A31A0080F8EC648098500A900A55E0FEA3E0FFAA
:10A32A008004AE04AF05900A55EEF0A3EFF0900A50
:10A33A0055E0FEA3E0FF4E6024900609E0FCA3E08E
:10A34A00FDC3EF9DEC6480F8EE648098500F900690
:10A35A0009E0FFA3E0900A55CFF0A3EFF0900607BB
:10A36A00E0FEA3E0FFD3900A56E09FEE6480F890E7
:10A37A000A55E06480984008900A55EEF0A3EFF081
:10A38A00303440900A55E0FEA3E0FFD3900EACE0D3
:10A39A009FEE6480F8900EABE0648098404D900682
:10A3AA000BE013FDC3EF9DFFEE9400FED3900E8EDB
:10A3BA00E09FEE6480F8900E8DE0648098402CC295
:10A3CA0034802890060BE0FFC3900A56E09FFF9066
:10A3DA000A55E09400FEC3900EACE09FEE6480F84C
:10A3EA00900EABE06480985002D234303531900A36
:10A3FA0055E0FEA3E0FFC39490EE64809481500A76
:10A40A007C017D907E017F908000900A55EEF0A33A
:10A41A00EFF0D2348009E4900A55F0A3F0C234E593
:10A42A007820E00302A7F39001FEE0146042147062
:10A43A000302A4C814700302A55814700302A5AB42
:10A44A0014700302A5932405600302A5DDC22990B6
:10A45A00071BE0FEA3E0FFD3900EAEE09FEE648000
:10A46A00F8900EADE0648098500302A5DD02A5C8FD
:10A47A00C22990071DE0FEA3E0FF90071CE02FFF12
:10A48A0090071BE03EFED3900EAEE09FEE6480F88C
:10A49A00900EADE0648098400302A57B9001FC74A5
:10A4AA00FFF5F0122F3C45F0600302A5DD9001FC98
:10A4BA00743FF0A37448F0A37405F002A5DD3029B7
:10A4CA0034900EAFE0FEA3E0FFC3900EAEE09FFF14
:10A4DA00900EADE09EFE90071EE024ECFD90071D55
:10A4EA00E034FFFCC3EF9DEC6480F8EE6480985082
:10A4FA002EC229802A900EAFE0FEA3E0FFC3900E81
:10A50A00AEE09FFF900EADE09EFEC390071EE09F57
:10A51A00EE6480F890071DE06480985002D229907A
:10A52A00071BE0FEA3E0FFC3900EAEE09FEE64803F
:10A53A00F8900EADE0648098400302A5DD9001FC1E
:10A54A00743FF0A37448F0A37403F002A5DDC22996
