:1015170012138F1215983003321208339000F8E037
:10152700FEA3E0FFC3E50C9FFFE50B9EFEC3EF9410
:1015370005EE940040E09000F8E50BF0A3E50CF011
:10154700120F231215C81215F080CBE50A70FC5351
:03155700D5FB229F
:10138F009000F8E50BF0A3E50CF09000FA7478F0FC
:10139F0090008FE493FFE4FCFDFE7B64FAF9F812F2
:1013AF001297C004C005C006C00790008EE493FFDB
:1013BF00E4FCFDFE7B107A27F9F8121297D003D0C8
:1013CF0002D001D00012128AA804A905AA06AB0701
:1013DF00900090E493FFE4FCFDFE12128AE47B750B
:1013EF007A27F9F8D31212E6400A53A7FD43B74004
:0513FF00D2BED2AE22B7
:0B15F000C2AF75C2A575C35AD2AF226E
:0415FB0075A208329B
:10159800C205C206E4F50DF50FF50EF5109000D260
:1015A800F075B30C90FFB3E4F075B650A37430F047
:1015B800A37402F090FFB304F043B61043D504229D
:1014C900E5D4540E7020E5B6540360419000D3E092
:1014D900FEA3E0FFC3E50C9FFFE50B9EFED3EF944F
:1014E90004EE9400402753D5FBC205E4F50DF50E33
:1014F900F50F9000D3E50BF0A3E50CF0E4F510C26D
:0E150900069000D2F075B650F5D443D50422FA
:100F2300057EE57EC394324010E4F57E9000FAE03E
:100F3300602114F0121307801A300617E57ED3944C
:100F4300054010C206E510543C943C500674042539
:100F530010F5101214C920050302108C9000A6E0AE
:100F63006480600302107B9000A8E06401600302C8
:100F7300107BA3E0FC640360030210599000A7E018
:100F8300FE641C702E9000AAE070289000D2E0440A
:100F930001F0E4F51474AC2514F582E43400F58310
:100FA300E0FF74212514F8A6070514E514B418E529
:100FB300021076EE641870309000AAE06401702885
:100FC3009000D2E04402F0E4F51474AC2514F582E9
:100FD300E43400F583E0FF74392514F8A6070514FB
:100FE300E514B414E50210769000A7E06408702FAE
:100FF3009000AAE0640270279000D2E04404F0E479
:10100300F51474AC2514F582E43400F583E0FF7421
:101013004D2514F8A6070514E514B404E58054908F
:1010230000A7E06428704C9000AAE0640370449029
:1010330000D2E04408F0E4F51474AC2514F582E41E
:101043003400F583E0FF74512514F8A6070514E571
:1010530014B424E5801DECB405199000AAE0B40291
:1010630012A3E0FFB401055310BF8007EFB40203DE
:1010730053107F5310C3800FE510543CC3943C506E
:101083000674042510F510C205E5101313540FC39D
:0A109300940F4005E49000D2F02213
:10130700E51030E7047F0180027F00EF6014751558
:1013170080751604751702751802854F1985501ABE
:101327008020E51030E6047F0180027F00EF602017
:10133700751580751604751702751801854D198581
:101347004E1A7B007A007915751F067F0102140477
:10135700E510045403FFE51054FC4FF51075158094
:101367007516025403F5177518017B007A00791575
:10137700751F047F011214049000D2E0FF540FFE82
:08138700BE0F04EF4480F022C8
:101404008B1C8A1D891EE50F60037F0122E51FD313
:10141400942A40037F022253B6EF75B30EAE0785BC
:101424001F75E51F2EFEE4FDEDC3951F5022AB1C76
:10143400AA1DA91E8D827583001211F6FC74762DE7
:10144400F8A6048D827583001211F62EFE0D80D845
:10145400EEF404FE74762DF8A606E5752402F50F65
:0B146400E4F50ED20690FFB0EFF0227E
:10109D00C0E0C083C082C0D075D000C000C004C005
:1010AD0005C006C007E5B620E0030211A690FFB00B
:1010BD00E0FF9000D3E0FCA3E0FDC3E50C9DFDE552
:1010CD000B9CFCD3ED9404EC9400400B7511007552
:1010DD001200750D00C2019000D3E50BF0A3E50CD5
:1010ED00F030050302117C30010302117CAE0D05B9
:1010FD000D74A62EF582E43400F583EFF0E50DD3E3
:10110D0094024052E50D65127002E511703D90009C
:10111D00A6E06480702A9000A8E064017022FFFEB2
:10112D00EFC39512E49511501074A62FF582E43497
:10113D0000F583E02EFE0F80E7EE7004D205C206A7
:10114D00751100751200750D008049E50DC3942CC5
:10115D004042D201803EE50D64027038EF2403F564
:10116D0012E433F511EFD394294029D2018025D211
:10117D0001050DE50DB5120EE4B5110AF511F512C7
:10118D00F50DC201800EE50DB40209EF2403F51231
:10119D00E433F51153B6FE8024E50F6011AF0E0553
:1011AD000E74752FF8E690FFB0F0150F800C75B327
:1011BD000C43B610750D0053B6FE53B6FDD007D0D7
:1011CD0006D005D004D000D0D0D082D083D0E0326C
:10083300200003020D3D900021E064156003020DCA
:100843003BE57FC394045003020D3D7515017516F6
:10085300007517D5A3E06402600302097FA3E06477
:1008630013600302097FA3E06401600302097F9020
:1008730000D2E020E70302097F7815E475F0011246
:1008830012F774131212237815E475F0011212F79C
:100893007401121223751B00751C00751D14E4F5F9
:1008A3001E751F01AB15AA16A917120D3E8B158ACB
:1008B300168917751B00751C00751D14E4F51E754C
:1008C3001F02120D3E8B158A168917751B00751CA6
:1008D30000751D14E4F51E751F03120D3E8B158A5A
:1008E300168917751B00751C00751D14E4F51E751C
:1008F3001F04120D3E8B158A168917751B00751C74
:1009030000751D14E4F51E751F05120D3E8B158A27
:10091300168917751B00751C00751D14E4F51E75EB
:100923001F06120D3E8B158A168917751B00751C41
:1009330000751D14751E03751F01120D3E8B158A5C
:10094300168917751B00751C00751D14E4F51E75BB
:100953001F07120D3E8B158A168917751B00751C10
:1009630000751D14E4F51E751F08120D3E8B158AC4
:100973001689177C007DD57B20020D2D900022E087
:1009830064066003020AD9A3E064136003020AD970
:10099300A3E064026003020AD99000D2E020E703D7
:1009A300020AD9900025E0F54DA3E0F54EA3E0F54A
:1009B3004FA3E0F5504310404310807815E475F0E1
:1009C300011212F774131212237815E475F0011251
:1009D30012F77402121223751B00751C00751D1487
:1009E300751E01751F01AB15AA16A917120D3E8BB3
:1009F300158A168917751B00751C00751D14751E45
:100A030001751F02120D3E8B158A168917751B007F
:100A1300751C00751D14751E01751F03120D3E8B89
:100A2300158A168917751B00751C00751D14751E14
:100A330001751F04120D3E8B158A168917751B004D
:100A4300751C00751D14751E01751F05120D3E8B57
:100A5300158A168917751B00751C00751D14751EE4
:100A630003751F03120D3E8B158A168917751B001C
:100A7300751C00751D14751E03751F04120D3E8B26
:100A8300158A168917751B00751C00751D14751EB4
:100A930003751F05120D3E8B158A168917751B00EA
:100AA300751C00751D14751E03751F06120D3E8BF4
:100AB300158A168917751B00751C00751D14751E84
:100AC30003751F07120D3E8B158A1689177C007D4F
:100AD300D57B1E020D2D900022E064026003020B01
:100AE300D2A3E064136003020BD2A3E064036003A8
:100AF300020BD29000D2E020E703020BD27815E478
:100B030075F0011212F774131212237815E475F0BD
:100B1300011212F77403121223751B00751C007562
:100B23001D14F51E751F08AB15AA16A917120D3E45
:100B33008B158A168917751B00751C00751D147596
:100B43001E03751F02120D3E8B158A168917751B1E
:100B530000751C00751D14751E03751F09120D3ECB
:100B63008B158A168917751B00751C00751D147566
:100B73001E03751F0F120D3E8B158A168917751BE1
:100B830000751C00751D14751E03751F0B120D3E99
:100B93008B158A168917751B00751C00751D147536
:100BA3001E03751F0C120D3E8B158A168917751BB4
:100BB30000751C00751D14751E03751F0D120D3E67
:100BC3008B158A1689177C007DD57B12020D2D901B
:100BD3000022E06403706DA3E0641470679000D298
:100BE300E030E7607815E475F0011212F77414121F
:100BF3001223900024E0FF7815E475F0011212F738
:100C0300EF121223900025E0FF7815E475F001122E
:100C130012F7EF121223751B00751C00751D14903B
:100C23000024E0F51EA3E0F51FAB15AA16A91712C1
:100C33000D3E8B158A1689177C007DD5E514240398
:100C4300FB020D2D900022E064017048A3E06402D2
:100C530070429000D57402F0A314F090082DE49331
:100C6300FA740193FB7C007D64FFAE02121235908F
:100C730000D7EFF07C007D64AF03AE02121235A300
:100C8300EDF090082FE4939000D9F07C007DD57BA4
:100C930005020D2D900022E064017030A3E0640191
:100CA300702A9000D504F0E4A3F090008E93900096
:100CB300D7F090008FE4939000D8F0900090E493E5
:100CC3009000D9F07C007DD57B05805E900022E00A
:100CD30064047038A3E064517032A3E06455702C4F
:100CE300A3E064497026A3E0B454219000D5746551
:100CF300F0A37478F0A37469F0A37474F07C007D9E
:100D0300D57B047F1512146FC20380239000D57422
:100D1300FFF09000D2E09000D620E7057440F08009
:100D2300037401F07C007DD57B027F1512146F9054
:0B0D330000FA7478F0C20022C2002217
:10146F00A907E50A6002D322AF01900000EBF02F2D
:10147F00FFE4FEEEC39B5024ED2EF582E43CF58392
:10148F00E0FA74012EF582E43400F583EAF0ED2ED4
:10149F00F582E43CF583E02FFF0E80D7EFF404FFD5
:1014AF0074012EF582E43400F583EFF0EB2402F59E
:0A14BF000AE4F509C29C8999C322D2
:1015C800E5BA540E700DE5985403601BE57FD3947B
:1015D800034014C2ACC200E4F508F509F50AF57F2A
:0815E800759850F5BAD2AC224F
:10155A0000020202040206040A040E061407160810
:10156A000002020406040A06100212020002020223
:10157A000006060208020A020C020E0210021202F9
:0E158A001402160218021A021C021E0220048D
:100D3E008B188A19891AE51F600524FFFF80027F30
:100D4E00FF8F1FE51E706AE51FC394085063EF25E1
:100D5E00E0245AF582E43415F583E4939000F6F01E
:100D6E00EF25E0245BF582E43415F583E493AB1BA9
:100D7E00AA1CA91D121223E49000F7F0AB1BAA1CAB
:100D8E00A91D1211DDFF9000F7E0FEC39F40030284
:100D9E000F1C9000F6E02E2421F8E6FF7818E4757B
:100DAE00F0011212F7EF1212239000F7E004F08018
:100DBE00CBE51E6401706CE51FC394065065E51FFC
:100DCE0025E0246AF582E43415F583E4939000F669
:100DDE00F0E51F25E0246BF582E43415F583E493EA
:100DEE00AB1BAA1CA91D121223E49000F7F0AB1B3B
:100DFE00AA1CA91D1211DDFF9000F7E0FEC39F4053
:100E0E0003020F1C9000F6E02E2439F8E6FF781846
:100E1E00E475F0011212F7EF1212239000F7E004BE
:100E2E00F080CBE51E6402706CE51FC39402506522
:100E3E00E51F25E02476F582E43415F583E49390DE
:100E4E0000F6F0E51F25E02477F582E43415F583EE
:100E5E00E493AB1BAA1CA91D121223E49000F7F019
:100E6E00AB1BAA1CA91D1211DDFF9000F7E0FEC3FB
:100E7E009F4003020F1C9000F6E02E244DF8E6FF73
:100E8E007818E475F0011212F7EF1212239000F7A2
:100E9E00E004F080CBE51E64037069E51FC3940F78
:100EAE005062E51F25E0247AF582E43415F583E4DB
:100EBE00939000F6F0E51F25E0247BF582E43415CF
:100ECE00F583E493AB1BAA1CA91D121223E4900018
:100EDE00F7F0AB1BAA1CA91D1211DDFF9000F7E065
:100EEE00FEC39F50299000F6E02E2451F8E6FF78BD
:100EFE0018E475F0011212F7EF1212239000F7E0CA
:100F0E0004F080CEAB1BAA1CA91DE4121223AB1851
:050F1E00AA19A91A2226
:1008000002151702083202083202083202083202C8
:1008100008320208320208320208320208320208A4
:0D082000320215FB02083202083202109D60
:06082D000066020913320F
:1011DD00BB010689828A83E0225002E722BBFE0210
:0911ED00E32289828A83E4932243
:1011F600BB010CE58229F582E5833AF583E02250AE
:1012060006E92582F8E622BBFE06E92582F8E222F7
:0D121600E58229F582E5833AF583E4932211
:10122300BB010689828A83F0225002F722BBFE01AA
:02123300F322A4
:10123500BC000BBE0029EF8DF084FFADF022E4CC9D
:10124500F875F008EF2FFFEE33FEEC33FCEE9DEC66
:10125500984005FCEE9DFE0FD5F0E9E4CEFD22EDAC
:10126500F8F5F0EE8420D21CFEADF075F008EF2FF6
:10127500FFED33FD4007985006D5F0F222C398FDE7
:051285000FD5F0EA2284
:0D128A00EF2BFFEE3AFEED39FDEC38FC22B3
:10129700E88FF0A4CC8BF0A42CFCE98EF0A42CFCF6
:1012A7008AF0EDA42CFCEA8EF0A4CDA8F08BF0A474
:1012B7002DCC3825F0FDE98FF0A42CCD35F0FCEBD3
:1012C7008EF0A4FEA9F0EB8FF0A4CFC5F02ECD3998
:0F12D700FEE43CFCEAA42DCE35F0FDE43CFC2205
:1012E600EB9FF5F0EA9E42F0E99D42F0E89C45F05E
:0112F60022D5
:1012F700FAE6FB0808E6F925F0F618E6CA3AF622F8
:00000001FF
