:104DD20090C2B0A19690B9CDA19690B5ABA18490A6
:104DE200B9CAA184908FF6A184908F2FA19690A921
:104DF200B1A19690BDB6A18490B494A18490BC9EBA
:104E0200A18490AABCA18490BAE3A196909635A100
:104E12009690B329A184909FEFA184909940A18498
:104E220090BAA3A18490A480A18490BD90A1849003
:0A4E3200A7B3A18490BCFAA184008C
:102657002020202020202020202020202020202073
:102667000002010101000201020100020103020050
:10267700020103010002010301010101030101023B
:102687000203010002020501000202050101010225
:102697000302010102040201010204010101020512
:1026A70001000204080100011F001801011F015861
:1026B700030160001C010160015C03020F001801A7
:1026C700020F012003020F023E01020F035803020B
:1026D7001000180102100120030210023E0102102F
:1026E700035C030220001C010220015C030240007E
:1026F7001C010240015803030F001801030F015882
:102707000303100018010310015C030320001C01E0
:102717000320015C030340001C010340015803042C
:102727001F001401041F015803046000180104600E
:10273700015C03051F001801051F012003051F0287
:102747002C01051F033403051F044801051F055805
:10275700030560001C0105600124030560022C01CC
:10276700056003340305600448010560055C030048
:10277700280106D513000000000000000106D7134A
:10278700000000000000000106D91300000000004F
:1027970000000106DB13000000000000000106DD59
:1027A70013000000000000000106DF130000000016
:1027B7000000000106D31300000000000000010123
:1027C70082130000000000000001018C13000000CC
:1027D7000000000001044113000000000000000198
:1027E70001B400010000000E00000101B500010066
:1027F70000000E00000101B60001000100FF00010A
:102807000101B71305003201F400C80101B913052E
:10281700003201F400DC0101BB1305003201F400B2
:10282700960101D7070300000000000101024707D6
:10283700000000000000020102B7070000000000CE
:1028470000030101BD120100008EAD07230101BF86
:10285700120100008EAD07230101C1000100000035
:102867000200000101C2230A00C80190015E0101B4
:10287700CB030180017FFF00000101C413010003A6
:102887000019000D0101CD030180017FFF00000148
:1028970001C7230A0032038402BC0101CF230AFFC8
:1028A700A601F400C80101D1230AFFA601F40064C0
:1028B7000101D3230AFFA600C800140101D5300186
:1028C700000000F0003C0101C61005000000C80030
:1028D700000101C9200A000A006400320101CA0090
:1028E70001000100F0001E0101D60101FFD80028F8
:1028F7000000010327000100000032000301032844
:10290700230A000A01F4003201032A230A012C02D8
:102917008A01F401032C00010001003200040103C5
:102927002D230A000A01F4003201032F12010000CF
:102937008EAD072301033102010000059F0000014E
:102947000333130A003202BC01F4010335130A00F2
:102957003202BC02580103380701000000000004DE
:10296700010337200A0014006400320103A80201A2
:10297700000004B0005D0103AA061000000000007B
:10298700000103BA00010000000400000101B301C7
:1029970005FFD8002800000103BB04000000000069
:1029A70000000103BF00000000003C00000103C05D
:1029B7000400000000000000010193020000000075
:1029C70000000001044504000000000000000104AD
:1029D7003A040000000000000001071C020000008C
:1029E700FFFF00000101A402000000FFFF0000013B
:1029F70003CA07010000000000050101990000005B
:102A070000000000000103C600010001003C0003B4
:102A17000103C700010000003C000F0103C8230A9F
:082A2700001401F40032003F2D
:1044C300122127124274124DD2124DD7124DDC1213
:1044D3004F8F124DE190071CE0FFA3E09003C4CF80
:1044E300F0A3EFF0124DE6124DEB124DF0124DF525
:1044F300124DFAE510B4080040030245C490450785
:10450300F828287302451F024528024544024560E6
:104513000245680245B40245B90245BE124DFF1279
:104523004E040245C4E4FF124E09905F58E49355CC
:104533001DFE740193551E4E70030245C4E4FF80B3
:10454300177F01124E09905F5AE493551DFE7401C3
:1045530093551E4E606B7F01124E0E8064124E13F4
:10456300124E18805C304A09E56D30E5047F018006
:10457300027F00900190E0B403047E0480027E0079
:10458300301A047D0280027D00EE4D4FFF7C017DD9
:10459300A69006DDE0FAA3E0FB900441E0F531A329
:1045A300E0F5327533017534C1124E1D124E22806F
:1045B3001012373A800B1245D08006124E27124E46
:0D45C3002C124E31124E361257B10244E751
:105BED00D24CD24E78AA7C037D017BFF7A26795761
:035BFD0002257A04
:1050B400E50F24E0F582E4350EF583E0F9EF1460A2
:1050C4002F047061E50F24E0F582E4350EF5837456
:1050D40002F09003BAE075F002A424D9F582E5F059
:1050E400345BF583E493FA7401932DF582EA802D01
:1050F400E50F24E0F582E4350EF5837402F09003A5
:10510400BAE075F002A424E3F582E5F0345BF5839C
:10511400E493FE7401938E832DF582E5833CF5833D
:10512400E493FE8002E4FEE50F24E0F582E4350E0C
:07513400F583E9F0AF06224C
:105996008F4B8A4C8B4DED24FD60150470369003B9
:1059A600BAE075F002A424C5F582E5F0345B8010F8
:1059B6009003BAE075F002A424BBF582E5F0345BEF
:1059C600F583740193254DFBE493354CFA7D02AFC4
:0559D6004B12575622A0
:1046D4008F4B8D4C30140B7D0312594EE4F54E0272
:1046E40047CDE50F24E0F582E4350EF583E0F54D82
:1046F400E50F24E0F582E4350EF5837402F0E54B12
:104704004480FFC25D1248C69003BAE075F002A46B
:1047140024CFF582E5F0345BF583E493FE740193D2
:10472400F5828E8375F003E54C12247CE493FFD26A
:104734005D1248C69003BAE075F002A424CFF58256
:10474400E5F0345BF583E493FE740193F5828E8384
:10475400E54C75F003A42401FFE435F0FEE5822F57
:10476400F582E5833EF583E493FFD25D1248C6905B
:1047740003BAE075F002A424CFF582E5F0345BF5CA
:1047840083E493FE740193F5828E83E54C75F00304
:10479400A42402FFE435F0FEE5822FF582E5833E92
:1047A400F583E493FF600AD25D1248C6754E038018
:1047B4000AD25D7F201248C6754E02E50F24E0F54B
:0C47C40082E4350EF583E54DF0AF4E2287
:1055D000C0E0C0F0C083C082C0D075D000C000C0A1
:1055E00001C002C003C004C005C006C007758DFE1F
:1055F000758B4174592563F8E6556224FFB392B365
:10560000125F23E564B4450FC2ABC28ED20D125FA8
:10561000F675A50043A720C28FD007D006D005D0CD
:1056200004D003D002D001D000D0D0D082D083D01B
:04563000F0D0E032A4
:104CCC00C0E0C0F0C083C082C0D075D000C000C0AE
:104CDC0001C002C003C004C005C006C007C28EAF2D
:104CEC008DEFFEAD8B7C00E42DFFEC3EFE758D0050
:104CFC00758B00D28E300D04C20D805EC3EF949480
:104D0C00EE9402501674592563F8E620C508FFE5A9
:104D1C0062F45FF680334562F6802E74592563F891
:104D2C00E620C516FFE562F45FF6125F2374592581
:104D3C0063F8E6FFE562F45F800E4562F6125F23CE
:104D4C0074592563F8E64562F6125F23E564C39453
:104D5C0043400753A7DFC28ED20B75A500D007D0F6
:104D6C0006D005D004D003D002D001D000D0D0D0D2
:084D7C0082D083D0F0D0E032B8
:0B2120000700D0011E0B0A757400229E
:017FFF00FF82
:105BBB0080008B129624A176ACC888C093D29EE449
:105BCB00AA36B5888AF9960BA11DAC6FB7C18B0E9F
:105BDB009620A132AC84B7D68B0F9621A173ACC59E
:025BEB00B7D72A
:105F7D007F8005800080380101810E8119801A8093
:045F8D001B801C80D9
:104F8F00759211E4F59375BDB075BC40C20BC209A3
:104F9F00C20C9006F0F0FFEF25E0247DF582E4349B
:104FAF005FF583E493FEEF25E024F2F582E4340607
:104FBF00F583EEF0EF25E0247EF582E4345FF58390
:104FCF00E493FEEF25E024F3F582E43406F583EE57
:104FDF00F00FBF0AC290044074FFF0E4900709F08D
:104FEF00900708F09006D5F0A37464F0A3E4F0A343
:104FFF007464F0A3E4F0A37464F0A3E4F0A3746406
:10500F00F09006CEE0441EF09006F1740AF0E490A2
:06501F000706F0A3F022D9
:1045D0009006EBE07002A3E060030246D3200920BE
:1045E0009006F1E004F0C3940A4002E4F09006F172
:1045F000E025E024F3F582E43406F583E030E7E0DB
:104600009006F1E0FD25E024F3F582E43406F5831D
:10461000E0540790070EF0ED25E024F2F582E43433
:1046200006F583E090070FF09006F1E024FD60307E
:1046300014605E1470030246B6240360030246C988
:10464000E4900710F0301F11301A04E04401F030FC
:104650001D07900710E04402F0E4900711F080700D
:10466000301F0D301D0A900182E0FEA3E0FF8004A0
:104670007E007F008E2C8F2DC3E52D9490E52C6459
:104680008094815006752C01752D90AF2DAE2C8035
:1046900018301F0D301A0A90018CE0FEA3E0FF8055
:1046A000047E007F008E2C8F2D125634900710EE62
:1046B000F0A3EFF0801A301F047F6480027F009027
:1046C0000710EFF0E4A3F08007E4900710F0A3F0E8
:0446D000125E5622FE
:10373A009006EBE07002A3E06003023922300B032B
:10374A00124A8390070AE024FB7003023868147057
:10375A000302388314700302388324C270030238C8
:10376A00E0244160030238E090070BE024FB602B61
:10377A0024EC60471460581470030238371470033D
:10378A0002384A249D700302385E247F600302389F
:10379A00E090070DE090070602385B90070DE09075
:1037AA000440F0F4600BD20C9007087414F002384D
:1037BA007AC20CE4900708F002387A125AA59006E9
:1037CA00D9EEF0A3EFF09006CEE054F702385B1280
:1037DA005AA5C3EF940AEE648094804035D3EF94DF
:1037EA00DEEE64809483502A900707E0C394054074
:1037FA00189006D7EEF0A3EFF09006CEE054FBF057
:10380A009006F9E04480F08022900707E004F0E493
:10381A008005E4900707F09006D7F0A3F09006CE53
:10382A00E04404F09006F9E0547FF08043125AA570
:10383A009006D5EEF0A3EFF09006CEE054FD80118D
:10384A00125AA59006DBEEF0A3EFF09006CEE054F4
:10385A00EFF0801C90070CE0FF1259DB80129007F2
:10386A000BE0FF64016009EF640E6004EFB43807EF
:10387A00E4900709F08065805D90070BE024E6601C
:10388A001A14603214603F24037051E49006D9F090
:10389A00A3F09006CEE04408F08041E4900707F0D8
:1038AA009006D7F0A3F09006CEE04404F09006F913
:1038BA00E0547FF08026E49006D5F0A3F09006CE7F
:1038CA00E04402F08016E49006DBF0A3F09006CE06
:1038DA00E04410F08006900709E004F0900709E040
:1038EA00FDC3941840197418F0D20CD209E490045C
:1038FA0040F09006F0F09006CEE0441EF08017EDFE
:10390A007002C209900708E0600414F08008C20C33
:09391A0090044074FFF0C20B227E
:1059DB00EF24FE601D24FC601914601D24FE602062
:1059EB0014601D24FE6020240B70239006F07402BB
:1059FB00F0229006F07403F0229006F07404F0226B
:105A0B009006F07405F0229006F07406F0229006D2
:055A1B00F07401F0220F
:085AA50090070CE0FEA3E0FFF6
:105AAD00EE30E710C3E49FFFE49EFEE4FCFD74FFBF
:105ABD007BF68005E4FCFD7B0AFAF9F812226E8F65
:105ACD002F8E2E8D2D8C2CAF2FAE2EAD2DAC2C7888
:055ADD00081223A122C4
:105634008E2E8F2FC3E52E648094805026C3E4956C
:105644002FF52FE4952EF52EFEAF2F3395E0FDFCBC
:1056540078081223B58F338E328D318C3074FF7BF2
:10566400F6801AAE2EAF2FEE3395E0FDFC780812CB
:1056740023B58F338E328D318C30E47B0AFAF9F8FE
:10568400125A208F338E328D318C30E533FFE53260
:02569400FE22F4
:105E560012513B90070A7445F0438910758DFE7503
:105E66008B41C28FD2BBD2AB53A7DF125FF6125F54
:065E760023C2B3D28E220C
:10513B007E077F0E125EC39208125FF6D258125C86
:10514B003BA2089258125C3B90070EE0A2E29258E9
:10515B00125C3B90070EE0A2E19258125C3B900769
:10516B000EE0139258125C3BC258125C3BC25812B1
:10517B005C3BC258125C3BC258125C3B752E0175EE
:10518B002F80E52F601D740E252EF582E43407F574
:10519B0083E0552F24FF9258125C3BE52FC313F588
:1051AB002F80DF052EE52EC3940440D3D258125C1A
:0651BB003BC258025C3B00
:104A8300C20A125FF6125D314003024B1D125D3103
:104A93009208E49006A4F0F52C9006A4E0FF25E02C
:104AA300F0125D3150079006A4E04401F0052CE5B7
:104AB3002CC3940340E3E4F52C125D315002D20A77
:104AC300052CE52CC3940440F0E4F52C74A5252CA7
:104AD300F582E43406F583E4F0F52D74A5252CF571
:104AE30082E43406F583E0FF25E0F0125D31500FD8
:104AF30074A5252CF582E43406F583E04401F00522
:104B03002DE52DC3940840D3052CE52CC394034015
:104B1300BB125D314006D20A8002D20A7E067FA410
:104B2300125EC3300801B35002D20A200A20900655
:104B3300A4E090070AF09006A5E090070BF090061A
:0F4B4300A6E090070CF09006A7E090070DF02277
:105D310074592563F8E6556224FF9258125F237463
:105D4100592563F8E6556224FF9259125F233058B2
:0F5D510007305902D20AD322205902D20AC322A4
:105EC300E4FDFC7B80EB6013EF2CF582E43EF5836D
:105ED300E05B60010DEBC313FB80EA0CBC04E4ED53
:025EE300132288
:105C3B0074592563F8E63058134562F6125F2374E6
:105C4B00592563F8E6FFE562F45F8011FFE562F426
:105C5B005FF6125F2374592563F8E64562F6125F0F
:025C6B002322F2
:095FF600756201E4F564F5632213
:105F2300E56225E0F56270037562010564E56413BB
:075F33001313541FF5632254
:104D8400E5745403C4C0E0745CC0E0C082C0830214
:104D94005C00E5745403C4C0E0745CC0E0C082C02D
:104DA40083025C10E5745403C4C0E0745CC0E0C0CA
:104DB40082C083025C20E5745403C4C0E0745CC008
:084DC400E0C082C083025C30F4
:0B5C0000F874009020E0F574F0E8223A
:0B5C1000F874019020E0F574F0E82229
:0B5C2000F874029020E0F574F0E82218
:0B5C3000F874039020E0F574F0E82207
:064DCC00EFC4905C0073CF
:102100000244C30221180221180221180255D002EC
:092110002118022118024CCC3206
:0F5FD90078137910770009B919027922D8F622C6
:105F070053797374656D2056312E30342E3220202C
:0C5F1700004261736973202056005600A0
:105C9F00E4FFE4FEEF75F023A4245EF582E43406FE
:105CAF00F583E5822EF582E43583F5837420F00EBB
:105CBF00BE23E174722FF8E4F60FBF02D5E4F5713D
:015CCF0022B2
:10594E008D4FEFC394405004790280027912AE0756
:10595E00EF254FFDE433FCEEC39DEC6480F87480BC
:10596E00985024EE540F29FDE57175F023A4245EA2
:10597E00F582E43406F583E5822DF582E43583F570
:08598E00837420F00E80C92291
:105C6D008C508D51EF4480FFC25D1248C6E4F55251
:105C7D00855182855083E493FF6016D25D1248C62C
:105C8D000551E551700205500552E552C39410407F
:025C9D00DF2204
:105756008A4E8B4FE50F24E0F582E4350EF583E0A3
:10576600F551E50F24E0F582E4350EF583EDF0EF13
:105776004480FFC25D1248C6E4F550854F82854ECF
:1057860083E493FF6016D25D1248C6054FE54F705D
:1057960002054E0550E550C3941040DFE50F24E0A6
:0B57A600F582E4350EF583E551F0229A
:105B1F008C3C8D3D8B3EEF4480FFC25D1248C6E446
:105B2F00F53FE53FC3953E501B853D82853C83E0A5
:105B3F00FF6011D25D1248C6053DE53D7002053C80
:055B4F00053F80DE228D
:105EA0008C4A8D4B8F828E83E0FCA3E0FDA3E0FE45
:105EB000A3E0F54F8E4E8D4D8C4C7F4CAD4BAC4AD4
:035EC000023E752A
:105B54007C5F7D07E4FF125C6D7C5F7D187F4012E3
:105B64005C6D900080E493FFE4FD1258BB1248C2C0
:105B74009000811258B61248C2900082E493FFE468
:045B8400FD0258BB0B
:10569600EF60027F407C5F7D21125C6D902121E4EA
:1056A60093FE740193FF7C007D641221B7E4FD1222
:1056B60058BB1248C2902121E493FE740193FF7CEB
:1056C600007D641221B7AF057D011258BBC25D7F14
:1056D600C81248C69021241258B61248C2902125F5
:1056E6001258B61248C2902126E493FF7D01025853
:0156F600BBF8
:0558B600E493FF7D01F9
:1058BB008F498D4AE54975F06484F54B60082430B7
:1058CB00FFD25D1248C6E54975F0648485F049E561
:1058DB004975F00A84F54B7004E54A600AE54B24E0
:1058EB0030FFD25D1248C6E54975F00A84E5F02415
:0758FB0030FFD25D0248C638
:0448C200D25D7F2E16
:1048C6008F53305D68E55312248849307F4912863C
:1048D600490D9E4917A2491CAA490DBF4912E04934
:1048E60012E1490DE7491CE84917E94926EA492139
:1048F600EB491CED492BF14926F34912F44921FAFB
:104906004921FB00004933E4F553802175530380A8
:104916001C75530480177553058012755306800D58
:1049260075530780087553EE8003755320E571149F
:10493600603C047071305D24E572C39440E57254A6
:104946000F50092460F582E4340680072470F5824E
:10495600E43406F583E553F00572800EE55330E73F
:1049660002F572E553B41402057253724F22305D9C
:1049760024E573C39440E573540F50092483F582EC
:10498600E4340680072493F582E43406F583E55380
:10499600F00573800EE55330E702F573E553B41462
:0749A60002057353734F2259
:105902008F32E50A6006125F91125F91E53275F0FF
:1059120023A4245EF582E43406F5837404F0E532B0
:1059220075F023A4245FF582E43406F583E4F0E500
:105932003275F023A4245EF582E43406AD82FCE5E0
:0C5942003290536093FF7B221256F72234
:105F680090065E7404F0E4A3F07C067D5E7B227FDD
:055F7800111256F72292
:1056F700E50A60037F0122900100EFF0A3EBF02F92
:10570700FFE4FEEEC39B5024ED2EF582E43CF583C7
:10571700E0FA74022EF582E43401F583EAF0ED2E07
:10572700F582E43CF583E02FFF0E80D7EFF404FF0A
:1057370074022EF582E43401F583EFF0EB2402F5D1
:0F5747000A750901C29C900100E0F5997F0022CC
:1051C100FED40FD7FF380FADFF6A0F93FF9C0F710D
:1051D10000000F1400320ED500640E8A00960E31C5
:1051E10000C80DCB00FA0D55012C0CD1015E0C400D
:1051F10001900BA201C20AFA01F40A4A022609959A
:10520100025808DF028A082902BC077902EE06CD9E
:105211000320062A035205940384050503B604847A
:1052210003E8040D044C034004A602AB0514021963
:10523100057801B005DC01600640012106A400F3F8
:04524100070800CA90
:1049AD00E4F5977531010531E53170FA758E807535
:1049BD008F80E4F59075940900759720F575D25E9A
:1049CD00F531E531C394015012AF31EF25E024CF1D
:1049DD00F582E43406F583E4F0A3F0AF31EF25E082
:1049ED0024D3F582E43406F583E4F0A3F00531E534
:1049FD0031B40ACEE49006CDF0A3F09006EEF0A30C
:104A0D00F09006ED7404F0E49006EBF0A3F07E0652
:104A1D007FE77B02FA7D05FC12556A7E067FE97BF6
:104A2D00027A007D177C0012556A9006E7E0FEA31E
:104A3D00E0FFC394CEEE6480947F400BD3EF9432AD
:104A4D00EE648094804007E49006E7F0A3F09006B2
:104A5D00E9E0FEA3E0FFC394B6EE64809483400BBF
:104A6D00D3EF941AEE64809484400A9006E974039F
:064A7D00F0A374E8F02232
:102A2F009006EDE0600314F0229006EBE07002A335
:102A3F00E0600F9006ECE024FFF09006EBE034FF2F
:102A4F00F022E5756003022D9A7F07125E7C8E2DB2
:102A5F008F2EE57525E024CFF582E43406F583E06B
:102A6F00FEA3E0FFE4FCFD7B0FFAF9F812226E8F54
:102A7F00328E318D308C2FE47B10FAF9F8125A20F8
:102A8F00E57525E024CFF582E43406F583EEF0A357
:102A9F00EFF0E57525E024CFF582E43406F583E504
:102AAF002D852EF0122242305E30E57525E024CFC1
:102ABF00F582E43406F583C083C082A3E0C4F854E2
:102ACF000FC868FF0582D5820215831582E0C454B2
:102ADF00F048D082D083F0A3EFF0E57525E024CF46
:102AEF00F582E43406F583E0FEA3E07802CEC3134B
:102AFF00CE13D8F9F52E8E2DD394E4E52D940F40F7
:102B0F002A75180274017E00A875088005C333CE9C
:102B1F0033CED8F9FF9006CDE04EF0A3E04FF09002
:102B2F0006EEE04EF0A3E04FF08068C3E52E9498D8
:102B3F00E52D9400502675180374017E00A87508C2
:102B4F008005C333CE33CED8F9FF9006CDE04EF0DB
:102B5F00A3E04FF0EFF4FFEEF4FE802DE5186402D2
:102B6F006005E518B40303E4F51874017E00A87539
:102B7F00088005C333CE33CED8F9F4FFEEF4FE90C0
:102B8F0006CDE05EF0A3E05FF09006EEE05EF0A30E
:102B9F00E05FF0C39051C3740193952EE493952D8C
:102BAF005017E57525E024D1F582E43406F58374DA
:102BBF00FEF0A374D4F0022CE4D39052437401932B
:102BCF00952EE493952D4016E57525E024D1F582D9
:102BDF00E43406F5837407F0A304F0022CE4E4F563
:102BEF002CE52C25E025E024C7F582E43451F5834C
:102BFF00C3740193952EE493952D4007052CE52C76
:102C0F00B41FDEE52C25E025E024C3F582E4345122
:102C1F00F583C3740193952EFFE493952DAB07FABB
:102C2F00E4F9F8E52C25E025E024C1F582E43451E0
:102C3F00F583E493FE740193FFE52C25E025E02452
:102C4F00C5F582E43451F583C37401939FFFE49378
:102C5F009EFE3395E0FDFC12226E8F328E318D3049
:102C6F008C2FC006C007E52C25E025E024C7F58290
:102C7F00E43451F583E493FE740193FFE52C25E0D2
:102C8F0025E024C3F582E43451F583C37401939F87
:102C9F00FFE4939EAB07FA3395E0F9F8D007D0061F
:102CAF00125A208F328E318D308C2FE52C25E02556
:102CBF00E024C1F582E43451F5837401932FFFE4CE
:102CCF00933EFEE57525E024D1F582E43406F583C5
:102CDF00EEF0A3EFF0E57525E024E7F582E4340686
:102CEF00F583E0FEA3E0FFE57525E024D1F582E44E
:102CFF003406F583E0FCA3E0C39FFFEC9EFE339503
:102D0F00E08F328E31F530F52FFDAC2FE47BE87A72
:102D1F0003F9F812226E8F328E318D308C2FE575BC
:102D2F0025E024E7F582E43406F583E0FEA3E0FF17
:102D3F00E57525E024E9F582E43406F583E0FCA38C
:102D4F00E0C39FFBEC9EFAA2E713FEEB13FFEE33FB
:102D5F0095E0FDFCE5322FF532E5313EF531E530FA
:102D6F003DF530E52F3CF52FEA3395E0F9F8AF321A
:102D7F00AE31AD30AC2F125A20E57525E024D3F5D6
:102D8F0082E43406F583EEF0A3EFF00575E575D315
:0A2D9F0094084005E4F575C25E22B9
:105E7C00EF25E025E04420F597000043970200E56C
:105E8C009730E0FBE5965403FEAD957C00E42DFFC6
:045E9C00EC3EFE22B8
:1052C200C258EF70379006D1E0FEA3E0FFC394CE40
:1052D200EE6480947F500AEF9432EE6480948050A2
:1052E2000A9006E7EEF0A3EFF08002D2582058466B
:1052F2007C067DE77B027A007F0580359006D1E04F
:10530200FEA3E0FFC394B6EE64809483500AEF9448
:105312001AEE64809484500A9006E9EEF0A3EFF04E
:105322008002D25820580F7C067DE97B027A007FEA
:0C533200177E00125499A258E433FF22A9
:10586300496E697469616C6973696572756E6720E5
:10587300005765726B7365696E7374656C6C756ED6
:1058830067002020206865727374656C6C656E20F8
:105893002020000001000200040008001000200086
:1058A30040008001000200040008001000200040B6
:0358B30000800072
:10427400750E20750F00125FD9125C9F7C587D6308
:10428400E4FF125C6D7D107F4012594E125F68E4AA
:10429400F52DF52E125F91052EE52E7002052DC326
:1042A4009464E52D940040EC12580C1249AD75A6A7
:1042B400EF7E077F1C7B027A007D2C7C0012556AFE
:1042C40090071DE004F0700690071CE004F07E06E1
:1042D4007FA47B047A00E4FDFC12556A9006A4E0F6
:1042E400FF902120E493FEEFB5061A9006A5E0FCAA
:1042F400A3E0FD902121E493FA740193FBED6B702C
:1043040002EC6A6060EFF4600E9006A5E0FEA3E0A4
:10431400FFBEFF1FBFFF1C90071CE4F0A304F07551
:1043240011027512D075130775145E123CD0E4FFA8
:10433400125DB7123348E4F52C752F21753020E552
:104344002CC394045040AF2C7E00853082852F838B
:10435400E493FD125DE0125F91052C0530E53070A9
:1043640002052F80DA122DA97E077F1E7B027A00B8
:104374007D2A7C0012556A90071EE0FEA3E0FF78B8
:1043840029A60608A6077C077D1C7B027A007F2CE1
:0E4394007E00125499125D8D438901025FE88C
:1057B1007829E6FE08E6FF90071EE06E7003A3E07D
:1057C1006F601790071EEEF0A3EFF07C077D1E7B44
:1057D100027A007F2A7E00125499124E3C125F3ADF
:1057E1000510E510D394084008C259123FF4E4F5BE
:1057F10010E51745166008E51715177002151630E4
:0B5801008D03751801308DFD025FE87B
:102DA900E4F531F532D3902A2D7401939532E493E9
:102DB9009531500302311C90277875F00BE53212DA
:102DC900247CE53175F00BA42583AF82F5338F346C
:102DD900902119E493FE740193FFAA06F97B01C0BF
:102DE90003C002C001853482853383740193FA7468
:102DF9000293F9C3D082D083D0E0E99582EA958322
:102E0900500302311190211BE493FC740193FDEFEF
:102E19002DFFEE3CFAA907C003C002C00185348228
:102E2900853383740193FA740293F9D3D082D083E2
:102E3900D0E0E99582EA9583400302311175A6EF46
:102E4900853482853383740393540FB40800400397
:102E5900023111902E63F8282873022EB6022F181A
:102E6900022F91023002023095023095022E7B0228
:102E790030C8853482853383740193FA740293AE22
:102E890002FFAC02FD902119E493FA740193FBC38C
:102E9900ED9BFDEC9ACD2440CD3400FC8534828530
:102EA9003383740493FB3395E0FA0230C38534828B
:102EB900853383740193FA740293AE02FFAC02FD69
:102EC900902119E493FA740193FBC3ED9BFDEC9AED
:102ED900CD2440CD3400FC7B017A0012556A85343B
:102EE90082853383740193FA740293F9F5828A8394
:102EF900E0FF853482853383740693FEEFC39E40D9
:102F090076740893FEEFD39E5003023111806885D1
:102F19003482853383740193FA740293AE02FFAC51
:102F290002FD902119E493FA740193FBC3ED9BFD13
:102F3900EC9ACD2440CD3400FC7B017A0012556A0D
:102F4900853482853383740193FA740293F9F58287
:102F59008A83E0FF853482853383740693C3648052
:102F6900F8EF6480984010740893D36480F8EF6494
:102F790080985003023111853482853383740A9312
:102F890089828A83F0023111853482853383740101
:102F990093FA740293AE02FFAC02FD902119E493F7
:102FA900FA740193FBC3ED9BFDEC9ACD2440CD341B
:102FB90000FC7B027A0012556A853482853383745A
:102FC9000193FA740293F9F5828A83E0FEA3E0FF84
:102FD900853482853383740593FC740693FDC3EFAE
:102FE9009DEE9C4012740793FC740893FDD3EF9DEA
:102FF900EE9C5003023111807B85348285338374C2
:103009000193FA740293AE02FFAC02FD902119E418
:1030190093FA740193FBC3ED9BFDEC9ACD2440CD4B
:103029003400FC7B027A0012556A85348285338329
:10303900740193FA740293F9F5828A83E0FEA3E09E
:10304900FF853482853383740593FC740693FDC32D
:10305900EF9DEC6480F8EE6480984018740793FC47
:10306900740893FDD3EF9DEC6480F8EE648098506A
:1030790003023111853482853383740993FF740AFD
:103089009389828A83CFF0A3EFF0807C853482858F
:103099003383740193FA740293AE02FFAC02FD907C
:1030A9002119E493FA740193FBC3ED9BFDEC9ACDCE
:1030B9002440CD3400FC7B047A0012556A8049858E
:1030C9003482853383740193FA740293AE02FFACA0
:1030D90002FD902119E493FA740193FBC3ED9BFD62
:1030E900EC9ACD2440CD3400FC7B707A0012556AED
:1030F900853482853383E4740193FA740293F97BEE
:1031090001740A93FD1253B60532E5327002053196
:04311900022DAE22B3
:103348007C587D74E4FF125C6D7C587D857F40124B
:103358005C6D125F68E4F529F52A125BED7829E6C1
:10336800FF08E690071ECFF0A3EFF0E4F531F53241
:10337800E532242AFFE43531FE74292532F8E6FDCA
:10338800125DE0125F910532E53270020531C39497
:1033980002E531940040D9E4F531F532D3902A2D75
:1033A8007401939532E493953150030234F59027D4
:1033B8007875F00BE53212247CE53175F00BA42505
:1033C80083AF82F5338F34902119E493FE7401930F
:1033D800FFAA06F97B01C003C002C00185348285BB
:1033E8003383740193FA740293F9C3D082D083D0E3
:1033F800E0E99582EA958350030234EA90211BE4C0
:1034080093FC740193FDEF2DFFEE3CFAA907C0036E
:10341800C002C001853482853383740193FA740233
:1034280093F9D3D082D083D0E0E99582EA9583409E
:10343800030234EA75A6EF853482853383740393D7
:10344800540FB4080040030234EA903459F828288D
:103458007302347102347302348C02348E0234AE37
:103468000234AE0234EA0234D280008534828533D5
:1034780083740A93FF740193FA740293F5828A8322
:10348800EFF0805E8000853482853383740993FE73
:10349800740A93FF740193FA740293F5828A83EE97
:1034A800F0A3EFF0803C853482853383740993FE62
:1034B800740A93FFEE3395E0FDFC740193FA7402ED
:1034C80093F5828A83122422801885348285338377
:1034D800E4740193FA740293F97B01740A93FD1260
:1034E80041430532E532700205310233A4902119B7
:1034F800E493FE7401938E35F536E4F531F532D355
:1035080090211B7401939532E49395314029E5325B
:103518002440FFE43531FE853682853583E0FD128F
:103528005DE00536E53670020535125F910532E536
:0A3538003270CC053180C8025FE854
:0E5FE80075A6EFC28D758A06758C38D28C2294
:105F910075A6EF7F907E0DEF1F70011EEF4E70F71B
:045FA10075A6EF22D0
:103E7500EFF8EB4480FFC25D1248C68D828C83C289
:103E850005C207E493FAA3E493FEA3C206EA30E66B
:103E950002D20630E203023F3330E009E630E7059F
:103EA500D205123F867400F565F566F567F5687508
:103EB5006901F56AF56BF56CE82EF8EEFB18123F13
:103EC50042DBFA300503123F86E493FBFEA3E4933D
:103ED500FCA3E493FD300516EBFF123FD3700BED09
:103EE500C39BB4FF0280031B80F0EBFEEFFBEEC328
:103EF5009B7006EA20E102D207EDC39BB4FF02D214
:103F050006701A7F20201410EA20E30C7F3A20E483
:103F1500077F2E20E5027F2CD25D1248C6123F9501
:103F2500EBC39C6008147002D2061B80C122796520
:103F3500E82EF8EEFB18E6F709DBFA808CE6FC7F45
:103F450008EC13FC501CE5652569D4F565E5663577
:103F55006AD4F566E567356BD4F567E568356CD4E5
:103F6500F568E5692569D4F569E56A356AD4F56AC0
:103F7500E56B356BD4F56BE56C356CD4F56CDFC151
:103F850022EEFBE82E14F8C3E496F618DBFA0822B5
:103F950030071DC2073005107F202014027F2DC277
:103FA50005D25D1248C680087414FFC25D1248C66A
:103FB500123FD3700A2006077F20D25D0248C6D281
:103FC5000624303014027420FFD25D0248C6EB147B
:103FD500C31340082465F8E6540F80072465F8E606
:0F3FE50054F0C4F8C3940A4004E8240722E822E9
:105F3A003017047F0480027F00E50F2405F582E410
:075F4A00350EF583EFF02294
:10580C00E4900582F0900582E0FFC39414503EEFC3
:10581C0075F006A42483F582E43405F583E4F0A343
:10582C00F0EF75F006A42485F582E43405F583E4E5
:10583C00F0A3F0EF75F006A42487F582E43405F5A7
:10584C0083E4F0A3F0900582E004F080B8E49005C6
:07585C0082F09005FBF02231
:104E3C00900582E0FF9005FBE0FE6F7003024EF0E0
:104E4C00EE75F006A42487F582E43405F583E0FEC4
:104E5C00A3E04E606A9005FBE0FF75F006A4248782
:104E6C00F582E43405F58374FFF5F0122242EF75F8
:104E7C00F006A42487F582E43405F583E0FCA3E076
:104E8C00FD9005FBE0F975F006A42485F582E43469
:104E9C0005F583E0FEA3E02DFFEE3CFEE975F00680
:104EAC00A42483F582E43405F583E0FAA3E0F582CB
:104EBC008A832DF582E5833CF583E0FD125DE0905D
:104ECC0005FBE075F006A42487F582E43405F58330
:104EDC00E0FEA3E04E700D9005FBE004F0C39414CB
:054EEC004002E4F02289
:105CD0008C418D42AB07AA06902119E493FE740112
:105CE00093FFC3EB9FFFEA9EFEC394004012EF2494
:105CF00040FFE43EFEAD03AC02AB42AA4112549910
:015D00002280
:105499008E438F44900582E075F006A42487F58237
:1054A900E43405F583E0FEA3E04E704C900582E0FC
:1054B900FF75F006A42485F582E43405F583E543F8
:1054C900F0A3E544F0EF75F006A42483F582E434F3
:1054D90005F583ECF0A3EDF0EF75F006A42487F54C
:1054E90082E43405F583EAF0A3EBF0900582E00449
:0954F900F0C394144002E4F02217
:10556A008C358D368A378B388E398F3A1254727F42
:10557A00A0125451E535FF125451AF36E536125494
:10558A00511254727FA1125451D3E5389401E53770
:10559A009400402275A6EFE4FF12542D853A8285C5
:1055AA003983EFF0E538153870021537053AE53AD0
:1055BA0070D7053980D37F0112542D853A828539F7
:0655CA0083EFF0025482A1
:105DE0008E428F438D44C2B51254727FA01254511B
:105DF000E542FF125451AF43E543125451AF4412F0
:085E00005451125482D2B52264
:105E080020203A20200020202E20202E2020202074
:105E1800000E0204010216020401021F1C1F1E1FAD
:075E28001E1F1F1E1F1E1F9D
:105D8D00E4F5767E077F1B7B01FA7D29FC12556AAF
:105D9D0090071BE0543FF0E044C0F5317D317B01AD
:0A5DAD007F07125D01D259023FF496
:103FF400E57660030241427F427B07FD125AE2E507
:1040040043547F900717F0E544543F900716F0E5BA
:1040140046543F900718F0E547541FA3F0A3E54822
:10402400F0E542C4540775F00AA4FFE542540F2F8B
:10403400F57F900717E0FDC4540F75F00AA4FFAE96
:10404400F0ED540F7C002FF512EC3EF5119007169D
:10405400E0FDC4540F75F00AA4FFED540F2FFFECDC
:1040640035F0FE7D3C1221A5EF2512F512EE351137
:10407400F511E545540714F515305913D3E5129499
:10408400A0E51194054008E4F511F512123CD09016
:104094000714E065117004A3E0651260052059025D
:1040A400D210900714E511F0A3E512F0301013AE0E
:1040B40011FF7C007D0A1221B7ED4C7005A259B3A3
:1040C4009211900713E0B5150330595FA259B392CA
:1040D40012900718E0FFC4540F75F00AA4FEEF54C1
:1040E4000F2EF542A3E0FFC4540F75F00AA4FEEFAF
:1040F400540F2EF543A3E0FFC4540F75F00AA4FE39
:10410400EF540F2EF54424D0FBE43407FAAD43AF4B
:10411400421250258E138F14900712E065436005F8
:10412400A259B39213900712E543F0900713E515D3
:0F413400F0E512643C45117005301002D20F22E5
:103CD000E57F75F00A84C454F0FFE57F75F00A842F
:103CE000E5F04FF54FAE11AF127C007D3C1221B7CD
:103CF0008D4EE54E75F00A84C454F0FFE54E75F024
:103D00000A84E5F04FF550AE11AF127C007D3C12F5
:103D100021B78F4EE54E75F00A84C454F0FFE54E8E
:103D200075F00A84E5F04FF551AF14AE13125FB78A
:103D3000EF04F552AE13AF147C017D6D1221B7EF85
:103D400024D0F54AEE3407F549E54A2430FFE54929
:103D500034F8FE7C017D6D1221A5AC06AD07E54A65
:103D60002433FFE54934F8FEEF7802CEC313CE13B7
:103D7000D8F92DFFEC3EFEC3E5149FE5139E5008D5
:103D8000E54A154A70021549E54A2430FFE54934F1
:103D9000F8FE7C017D6D1221A5AC06AD07E54A2435
:103DA00033FFE54934F8FEEF7802CEC313CE13D8C3
:103DB000F92DFFEC3EFEC3E5149FF54CE5139EF58F
:103DC0004BE4F54DE54DB4010BAF4AAE49125A64D0
:103DD0008F4E8003E4F54EE54D905E2393254EFF14
:103DE000E433FEC3E54C9FE54B9E4013E54C9FF545
:103DF0004CE54B9EF54B054DE54DC3940B40C50579
:103E00004D054CE54C7002054B7430254AF54A745B
:103E1000F83549F549AE4BAF4C7C007D0A1221B70D
:103E2000EFC454F0FBAE4BAF4C7C007D0A1221B7BF
:103E3000EB4DF553E54D75F00A84C454F0FFE54DA4
:103E400075F00A84E5F04FF554AE49AF4A7C007D29
:103E50000A1221B7EFC454F0FBAE49AF4A7C007D93
:103E60000A1221B7EB4DF5557D4F7B07E4FF125D3C
:053E700001E4F57622DB
:105DB7008F41E541543F90071BF0E0FD7F297E00AE
:105DC700125DE090071BE044C0F5417D417B017FF8
:095DD70007125D01D259023FF4EC
:105EE5008F4AAD151246D47403254AF54AE57F302D
:105EF500E004D25C8002C25CAD12AC11AF4A125212
:025F0500452233
:105245008F4B8C4C8D4D3014077C5E7D08025C6D58
:10525500AE4CAF4D7C007D3C1221B7AD07ED75F02E
:105265000A84E5F07B00FAED75F00A84C454F0FE7B
:10527500EB2400F54FEE3AF54EAE4CAF4D7C007D7C
:105285003C1221B7ED75F00A8475F010A4FFAEF05D
:10529500ED75F00A847C00EF25F0FFEC3EFEEF256E
:1052A5004FF54FEE354EF54E7F4E305C067C5E7DFC
:0D52B5001E80047C5E7D19AB4B123E7522FD
:103923008F428C438D443014077C5E7D0E025C6DA8
:10393300AE43AF447C017D6D1221B7EF24D0F54631
:10394300EE3407F545E5462430FFE54534F8FE7CC3
:10395300017D6D1221A5AC06AD07E5462433FFE5D5
:103963004534F8FEEF7802CEC313CE13D8F92DFFFA
:10397300EC3EFEC3E5449FE5439E5008E5461546ED
:1039830070021545E5462430FFE54534F8FE7C0119
:103993007D6D1221A5AC06AD07E5462433FFE54551
:1039A30034F8FEEF7802CEC313CE13D8F92DFFEC13
:1039B3003EFEC3E5449FF548E5439EF547E4F549DC
:1039C300E549B4010BAF46AE45125A648F4A8003F2
:1039D300E4F54AE549905E2393254AFFE433FEC3A9
:1039E300E5489FE5479E4013E5489FF548E5479E18
:1039F300F5470549E549C3940B40C505490548E525
:103A03004870020547E5424480FFC25D1248C6AED6
:103A130047AF487C007D0A1221B7EF2430FFD25D07
:103A23001248C6AE47AF487C007D0A1221B7ED2489
:103A330030FFD25D1248C6D25D7F2E1248C6E549DB
:103A430075F00A842430FFD25D1248C6E54975F04B
:103A53000A84E5F02430FFD25D1248C6D25D7F2E82
:103A63001248C6AE45AF467C037DE81221B78F4AA4
:103A73007E007C037DE81221A5C3E5469FF546E55C
:103A8300459EF545E54A2430FFD25D1248C6AE4552
:103A9300AF467C007D641221B78F4AEF75F064A4B2
:103AA300FFAEF0C3E5469FF546E5459EF545E54A7D
:103AB3002430FFD25D1248C6AE45AF467C007D0A76
:103AC3001221B78F4AEF75F00AA4FFAEF0C3E546A3
:103AD3009FF546E5459EF545E54A2430FFD25D1244
:103AE30048C6AE45AF467C007D0A1221B7ED2430AF
:073AF300FFD25D1248C6225C
:1047D0008F428C438D443014057D0702594EAE4301
:1047E000AF447C007D0C1221B7EF24D0F546EE34A7
:1047F00007F545AE43AF447C007D0C1221B7ED04B4
:10480000F547E5424480FFC25D1248C6E54775F0B2
:104810000A842430FFD25D1248C6E54775F00A8449
:10482000E5F02430FFD25D1248C6D25D7F2F1248DA
:10483000C6AE45AF467C037DE81221B7AB077E00CC
:104840007C037DE81221A5C3E5469FF546E5459E1C
:10485000F545EB2430FFD25D1248C6AE45AF467C2D
:10486000007D641221B7AB07EB75F064A4FFAEF0D6
:10487000C3E5469FF546E5459EF545EB2430FFD25E
:104880005D1248C6AE45AF467C007D0A1221B7AB2B
:1048900007EB75F00AA4FFAEF0C3E5469FF546E5C9
:1048A000459EF545EB2430FFD25D1248C6AE45AFBC
:1048B000467C007D0A1221B7ED2430FFD25D1248FC
:0248C000C6220E
:105025008F49A905C3EB94D0EA94074009D3EB94C3
:1050350033EA94084004E4FEFF22EB2430FFEA340F
:10504500F8FE7C017D6D1221A5AC06AD07EB24337E
:10505500FFEA34F8FEEF7802CEC313CE13D8F92D4C
:10506500F54BEC3EF54AE4FFE914FEEFC39E501103
:10507500EF905E2393254BF54BE4354AF54A0F80B7
:10508500E7E9D394024011AF03AE02125A64EF254B
:105095004BF54BE4354AF54AE54924FFFFE434FF77
:0F50A500FEEF254BF54BEE354AF54AFEAF4B2299
:105FB700EF2405FFE43EFE7C007D071221B7AF0505
:015FC70022B7
:105A6400AB07AA06EB54037035C3EB942EEA9406F5
:105A740050037F01227C007D64AF03AE021221B784
:105A8400D3ED9400EC940040037F0122AE02AF03F7
:105A94007C017D901221B7ED4C70037F01227F00C1
:015AA40022DF
:105AE2008F498D4A8B4B1254727FD0125451AF4A58
:105AF2001254511254727FD1125451E54BD3940176
:105B0200400FE4FF12542DA849A607154B05498002
:0D5B1200EA7F0112542DA849A60702548213
:105D01008F568D578B581254727FD0125451AF5603
:105D1100125451E5586011E5586012A857E6FF1278
:105D210054511558055780EFAF5712545102548200
:105FC80020203A202020002D2D3A2D2D00001530BC
:015FD8004583
:103542008B468A4789488C498D4A754E80E4F54BF3
:10355200E51514F54DE54BC39407505EE54D940611
:103562004003754D06E4F54CE54D75F008A4FFAE39
:10357200F0AB462548F9E5473EFA7C00E9254CF9CF
:10358200EC3AFA12214DC394605024E5482438F9EC
:10359200E43547FAE92FF9EA3EFA7E00E9254CF9CB
:1035A200EE3AFA12214DF54E054CE54CB408B9E558
:1035B2004E30E706054B154D809BE54E30E706750C
:1035C2004E03023737E512254AF550E5113549F524
:1035D2004FE4F54B85154DE54D75F008A4FFAEF0AF
:1035E200AB462548F9E5473EFA7C00E9254BF9EC64
:1035F2003AFA12214DC3946040030236A4E54824EE
:1036020038F9E43547FAE92FF9EA3EFA7E00E9256E
:103612004BF9EE3AFA12214D6403602BE54D75F039
:1036220008A42548F9E54735F0FA7E00E9254BF96B
:10363200EE3AFA12214DFF7D0F1221A5D3EF9550DC
:10364200EE954F5052802DE54D75F008A4AB4625FE
:1036520048F9E54735F0FA7E00E9254BF9EE3AFAEA
:1036620012214DFF7C007D0F1221A5D3EF9512EEA2
:1036720095115023E5482438F9E43547FAE54D75AC
:10368200F008A429F9EA35F0FA7E00E9254BF9EEB3
:103692003AFA12214DF54E054BE54B6408600302E0
:1036A20035D9D3E550949FE54F940550030237373F
:1036B200054DE54DD394064003E4F54D7460255065
:1036C200F55074FA354FF54FE4F54BE54D75F008BA
:1036D200A4AB462548F9E54735F0FA7E00E9254BCB
:1036E200F9EE3AFA12214DFBFF7C007D0F1221A563
:1036F200D3EF9550EE954F503CEBC394605036ABF0
:1037020046E5482438F9E43547FAE54D75F008A452
:1037120029F9EA35F0FA7E00E9254BF9EE3AFA1278
:10372200214DFF64016004EFB402028F4E054BE5A8
:083732004B64087096AF4E22B3
:1043A2008B468A478948AB49AA4AA94B7480122195
:1043B20093E4F54C85154DE54D75F008A4AB462503
:1043C20048F9E54735F0FA7E00E9254CF9EE3AFA6C
:1043D20012214DFBFF7C007D0F1221A5D3EF951218
:1043E200EE95114057EB9460505DAB46E54824389A
:1043F200F9E43547FAE54D75F008A429F9EA35F0F4
:10440200FA7E00E9254CF9EE3AFA12214DAB49AA9F
:104412004AA94B122193E54D75F008A4AB462548F5
:10442200F9E54735F0FA7E00E9254CF9EE3AFA1241
:10443200214DFF1221A58E4E8F4F800B054CE54C6E
:10444200640860030243B9AB49AA4AA94B12214D41
:1044520030E753054DE54DD394064003E4F54DE5B1
:104462004D75F008A4AB462548F9E54735F0FA90BA
:104472000038122166AB49AA4AA94B122193AB46D6
:10448200AA47A94875F008E54DA4F58285F0831284
:104492002166FF7E007C007D0F1221A5EF24A0F58E
:1044A2004FEE3405F54EAB49AA4AA94B12214D7085
:1044B2000B7403122193754E0B754FB8AE4EAF4F6E
:0144C20022D7
:103AFA008B468A478948E4F54A754B60754C10F540
:103B0A0049E51575F008A4FFAEF0AB462548F9E57E
:103B1A00473EFA7C00E92549F9EC3AFA12214DC3ED
:103B2A0094105040E5482438F9E43547FAE92FF96A
:103B3A00EA3EFA7E00E92549F9EE3AFA12214DB435
:103B4A000322E51575F008A42548F9E54735F0FA8A
:103B5A007E00E92549F9EE3AFA12214DFFD3954A3A
:103B6A0040028F4AE51575F008A4FFAEF0AB462572
:103B7A0048F9E5473EFA7C00E92549F9EC3AFA1298
:103B8A00214DC39410404CE5482438F9E43547FAEE
:103B9A00E92FF9EA3EFA7E00E92549F9EE3AFA12E6
:103BAA00214D6403602DE51575F008A42548F9E553
:103BBA004735F0FA7E00E92549F9EE3AFA12214D25
:103BCA00FFC3954B500D8F4BE54B954C4005E54B8C
:103BDA0004F54CAB46E5482438F9E43547FAE515CF
:103BEA0075F008A4FFAEF029F9EA3EFA7C00E9254F
:103BFA0049F9EC3AFA12214DB4031CE5482FF9E5CC
:103C0A00473EFA7E00E92549F9EE3AFA12214DFFBC
:103C1A00D3954C40028F4C0549E54964086003027C
:103C2A003B0BE51504F54DD394064003E4F54DE44A
:103C3A00F549E54D75F008A4FFAEF0AB462548F905
:103C4A00E5473EFA7C00E92549F9EC3AFA12214D9A
:103C5A00C39410502AE5482438F9E43547FAE92F85
:103C6A00F9EA3EFA7E00E92549F9EE3AFA12214DBF
:103C7A00B40305754C6080070549E549B408B3C229
:103C8A0059AF4A7E007C007D0F1221A5C3E5129F21
:103C9A00E5119E4002D259AF4B7E007C007D0F1287
:103CAA0021A5C3E5129FE5119E4002C259AF4C7E81
:103CBA00007C007D0F1221A5C3E5129FE5119E40ED
:063CCA0002D259A25922AA
:1053B6008B358A3689378D38C258E4F53AE4F539A3
:1053C600E53A75F008A4FFAEF0AB352537F9E536BA
:1053D6003EFA7C00E92539F9EC3AFA12214DD394CC
:1053E600605020E5372438F9E43536FAE92FF9EA32
:1053F6003EFA7E00E92539F9EE3AFA12214DD394A8
:10540600034004D25880070539E539B408B220585C
:1054160007053AE53AB407A530580BAB35AA36A9C5
:0754260037AD3812414322AB
:104143008B3B8A3C893D8D3EE4F540E4F53FE540F9
:1041530075F008A4FFAEF0AB3B253DF9E53C3EFA14
:10416300AD3F7C00E92DF9EC3AFA7460122193AB70
:104173003BE53D2438F9E4353CFAE92FF9EA3EFA08
:10418300E92DF9EC3AFAE4122193053FE53FB4082F
:10419300BD0540E540B407B3E53E7003024273E456
:1041A300F53FD3902776740193953FE493940050A1
:1041B3000302427375F005E53FA424AEF582E5F0F2
:1041C3003426AF82F5418F42F583E493653E600365
:1041D300024261F540854282854183740193FD7CEF
:1041E3000074017E00A840088005C333CE33CED8C7
:1041F300F9FFEE5CFEEF5D4E605785428285418399
:10420300740393FDE54075F008A4AB3B253DF9E548
:104213003C35F0FA7402937E0029F9EE3AFAED1276
:104223002193854282854183740493FDAB3BE53D35
:104233002438F9E4353CFAE54075F008A429F9EA95
:1042430035F0FA7402937E0029F9EE3AFAED122161
:10425300930540E540640760030241D8800D854221
:1042630082854183E493D3953E5005053F0241A5E2
:014273002228
:105502008F428D433014067C5F7DC88057E543C3CC
:105512009460504AE5431313543F754400F545D354
:105522009409E54494004019E5459414E544940037
:10553200500474068002740C2545F545E43544F5A3
:1055420044E545754500F544E5435403905FD59322
:105552004245E47F447C5E7D1EAB42023E757C5F29
:085562007DCFAF42125C6D2207
:105D60008F428D437D1012594E201420E4F544E5F6
:105D700043601930E00CAD44AF421246D4EF2542E7
:0D5D8000F5420544E543C313F54380E322DB
:104EF1008B498A4A894B8D4CE4F54EE54D75F00896
:104F0100A4AB49254BF9E54A35F0FA7E00E9254E77
:104F1100F9EE3AFA12214DFDE54C75F008A4254B46
:104F2100F9E54A35F0FA7E00E9254EF9EE3AFA1232
:104F3100214D6D6002C322AB49E54B2438F9E435BC
:104F41004AFAE54D75F008A429F9EA35F0FA7E0030
:104F5100E9254EF9EE3AFA12214DFDE54B2438F9D7
:104F6100E4354AFAE54C75F008A429F9EA35F0FA76
:104F71007E00E9254EF9EE3AFA12214D6D6002C329
:0E4F810022054EE54E64086003024EFCD3226A
:104C13008E408F418D428B43AF427401A8070880B9
:104C230002C333D8FCF45243E5437003024CCBFF79
:104C3300125E2F8F457401A807088002C333D8FC86
:104C4300F45243E4F544E544C3940850DB854182C0
:104C530085408375F008E54212247CE5822544F5FE
:104C630082E43583F583E0FF85418285408375F0D7
:104C730008E54512247CE5822544F582E43583F575
:104C830083EFF0E5412438F582E43540F58375F090
:104C930008E54212247CE5822544F582E43583F558
:104CA30083E0FFE5412438F582E43540F58375F070
:104CB30008E54512247CE5822544F582E43583F535
:094CC30083EFF00544024C492284
:105E2F00AD07E4FC74017E00A804088005C333CEDF
:105E3F0033CED8F9FFEDFBEF5B7009ECC39407503D
:075E4F00030C80E0AF042208
:104B52008F418B428A438944E541C39407501074C4
:104B620001A807088002C333D8FCF545024C107433
:104B7200FA2541F541E4F546F547F548E4F545E502
:104B82004804FFEFC394075031AB42AA43A9448FB4
:104B92004DAD48124EF1501FE545700EAE4804A8C7
:104BA20006088002C333D8FCF5457401A8070880C3
:104BB20002C333D8FC42450F80C9E545600605476C
:104BC2004246800FAF487401A807088002C333D859
:104BD200FC4246E548C39407501A74017E00A84877
:104BE200088005C333CE33CED8F9FFEF55466004B3
:104BF200054880DFE547C39541500AE548C394075D
:104C02005003024B7EE54765416003E4F545AF453D
:014C1200227F
:10311D008E408F418D42E4F543E5412438F582E43C
:10312D003540F58375F008E54212247CE582254390
:10313D00F582E43583F583E0701E854182854083F9
:10314D0075F008E54212247CE5822543F582E435CD
:10315D0083F5837460F0803D85418285408375F0F1
:10316D0008E54212247CE5822543F582E43583F59A
:10317D0083E0B46020E5412438F582E43540F583E1
:10318D0075F008E54212247CE5822543F582E4358D
:10319D0083F583E4F00543E54364086003023126BB
:1031AD00E4F543E5435401F544E544C39407400376
:1031BD0002333BE5442401FFE433FE854182854023
:1031CD008375F008E54212247CE5822FF582E583B4
:1031DD003EF583E0F985418285408375F008E5422F
:1031ED0012247CE5822544F582E43583F583E0FDE8
:1031FD00E9C39D40030232C58D45854182854083DB
:10320D0075F008E54212247CE5822544F582E4350B
:10321D0083F583E9F085418285408375F008E542A9
:10322D0012247CE5822FF582E5833EF583E545F09A
:10323D00E5412438F582E43540F58375F008E54223
:10324D0012247CE5822544F582E43583F583E0F58F
:10325D0045E5442439FFE433FE854182854083757D
:10326D00F008E54212247CE5822FF582E5833EF5D8
:10327D0083E0FFE5412438F582E43540F58375F0B0
:10328D0008E54212247CE5822544F582E43583F578
:10329D0083EFF0E5442439FFE433FE854182854018
:1032AD008375F008E54212247CE5822FF582E583D3
:1032BD003EF583E545F0806FE5442401FFE433FEE0
:1032CD0085418285408375F008E54212247CE582B4
:1032DD002FF582E5833EF583E0FF854182854083AE
:1032ED0075F008E54212247CE5822544F582E4352B
:1032FD0083F583E0FEEF6E702EEF64606029E54488
:10330D002401FFE433FE85418285408375F008E595
:10331D004212247CE5822FF582E5833EF5837460AD
:10332D00F07544077543FF054405440231B6054366
:0B333D00E543C3940750030231B022A7
:105B88008E418F42AE04AF05AA06A9077B01E4FF48
:105B9800EFC39470501C854282854183E0122193A3
:105BA8000F0542E54270020541740129F9E43AFA09
:035BB80080DE226A
:10542D007B08EFF577D2B7125494A2B633C2B712F8
:10543D005494DBF1FFE5771392B6D2B7125494C2B0
:10544D00B7D2B6227B08EF3392B6125494D2B7126C
:10545D005494C2B7DBF1D2B6125494D2B71254940D
:10546D00A2B6C2B722D2B6D2B7125494C2B6125453
:10547D0094C2B78012C2B6125494D2B7125494D2B9
:0C548D00B68004781280027807D8FE2256
:0421190001B3028785
:10B9CA0090071CE07004A3E06401700512BD4CD21C
:10B9DA0050C25F900189740AF0E4900195F0A3F0D7
:10B9EA0090018EF0A3F09006CDF0A3F09006EEF051
:10B9FA00A3F0900187F09001B4E0FF900188F0BFB6
:10BA0A000D0C90043E740EF0A37410F08007E490BD
:10BA1A00043EF0A3F0E4900190F0900188E0B40EA7
:10BA2A000C900443740EF0A37410F08007E49004A1
:10BA3A0043F0A3F09001C1E0900191F09001C6E0BB
:10BA4A00900192F0900186741EF0E49001A4F0A394
:10BA5A00F0900197F0A3F09006DDF0A374C8F0907F
:10BA6A00019E12242E000000009001A67402F0A389
:10BA7A007458F0A37424F0E4900182F0A3F09001CA
:10BA8A0080F0A3F09001A2F0A3F090019CF0A3F043
:09BA9A0012BD9012BC9E02B329FA
:10BD4C00900719E0FDC4540F75F00AA4FFED540FD1
:10BD5C007C002FFBEC35F0FAAE13AF140C7D6D129A
:10BD6C0021B77C007D0C1221A5EF2BFFEE3ACF24DE
:10BD7C000BCF34009003A8F0A3EFF07E037FA87DD7
:04BD8C0002025CD083
:10AABC00900189E0600214F0900443E07002A3E07E
:10AACC00600E900444E024FFF0900443E034FFF067
:10AADC0090043EE07002A3E0600E90043FE024FF7F
:10AAEC00F090043EE034FFF090018EE07002A3E0A1
:10AAFC00600E90018FE024FFF090018EE034FFF0A7
:10AB0C00900180E07002A3E0600E900181E024FFD0
:10AB1C00F0900180E034FFF09001A2E07002A3E01D
:10AB2C00600E9001A3E024FFF09001A2E034FFF04E
:10AB3C0090019CE07002A3E0600E90019DE024FF68
:10AB4C00F090019CE034FFF0E512B4D00EE511B4A6
:10AB5C000209E57FD3941450028001C3921B300F7D
:10AB6C0005C20F431E0CE4F52C75F002E52CA42451
:10AB7C0060F582E5F03404F583E0FEA3E064034E57
:10AB8C00701B900188E0B40A1475F002E52CA42423
:10AB9C0055F582E5F03404F583E4F0A3F0052CE5DB
:10ABAC002CB402C5900195E07002A3E060119001F5
:10ABBC0096E024FFF0900195E034FFF002AC949005
:10ABCC000189E0600302AC949001957404F0A374C5
:10ABDC00B0F0E4F52D9006F0E0FF64066004EFB4ED
:10ABEC000509900706E030E63C80379003A8E0FEAC
:10ABFC00A3E0FF7C007D0C1221B7EF24D0FBEE34D8
:10AC0C0007FA9003A8E0FEA3E0FF7C007D0C122164
:10AC1C00B7ED04FD7F01125025D3EF9514EE95137B
:10AC2C005003752D02E52D605FE4F52C75F002E5FF
:10AC3C002CA42460F582E5F03404F583E0FEA3E057
:10AC4C004E703E744B252CF582E43404F583E52DCF
:10AC5C00F075F002E52CA4244FF582E5F03404F5F0
:10AC6C00837402F0A3741CF075F002E52CA4245C30
:10AC7C00F582E5F0345FF583E493421D7401934251
:10AC8C001E052CE52CB402A4200C06900187E06074
:10AC9C0004D25F8002C25F302B1E900657E0701802
:10ACAC00C22B90211993FE740193FF90211BE49306
:10ACBC00FC740193FD125CD0301079C21090019796
:10ACCC00E07002A3E06026900198E024FFF0900170
:10ACDC0097E034FFF09001A4E07002A3E0600E90C6
:10ACEC0001A5E024FFF09001A4E034FFF0304C0308
:10ACFC0012BC1B301F2E9003BFE004F0C3943C40E9
:10AD0C0023E024C4F09003BBE0FCA3E0FDA3E0FE31
:10AD1C00A3E02401FFE43EFEE43DFDE43CFC900393
:10AD2C00BB122422301112C2117E037FBB7D057C25
:0AAD3C0000025CD0301202C21222A5
:10BC1B00E5156406707C900719E0FF64036005EF7F
:10BC2B006410706E900719E0FFC4540F75F00AA4EE
:10BC3B00FEEF540F2E14FF900718E0FEC4540F753F
:10BC4B00F00AA4FDEE540F2DFEEF905E2393C39EDE
:10BC5B00C39407503D900719E0B4030FE5126478C5
:10BC6B0045117007F5117512B48024900719E0B4D3
:10BC7B001020E512647745117003D24D22304D121E
:10BC8B00E51264B44511700AC24DF51175127812A4
:03BC9B003CD02278
:10BD90009006CDA3E0FF20E004D227800D9006EFAF
:10BDA000E030E004C2278002D227EF30E107E490C0
:06BDB00006D5F0A3F0220D
:10BC9E00E56D20E514E4900191F0A3F0204E1A908A
:10BCAE000654E07014D24E80109001C1E0900191C4
:10BCBE00F09001C6E0900192F09001C0E024FFFFE9
:10BCCE009001BFE034FFFE9001BDE0FCA3E0FDD388
:10BCDE009FEC9E4016ED2401FEE43CA3F0A3CEF0B3
:0CBCEE007E017FBF7D027C00125CD02232
:10B32900E51E30E60302B463900657E0600302B4F9
:10B3390063900188E0FF9001B4E0FE6F700302B3EF
:10B34900CAE4900197F0A3F0EEB40815EFC454F0E5
:10B3590044019001B6F07E017FB67D017C00125C4C
:10B36900D09001B4E0FFB40E0A900443740EF0A328
:10B379007410F0EFB40D0C90043E740EF0A3741029
:10B38900F0C217900188E0B40B15E49001BDF0A359
:10B39900F0A3F0A3F07E017FBD7D04FC125CD09088
:10B3A9000188E0FFD3940750059001B5EFF09001B3
:10B3B900B4E0900188F07E017FB47D027C00125CCC
:10B3C900D0D39001BEE095149001BDE09513501FB4
:10B3D900C39001C0E095149001BFE095134010900F
:10B3E9000188E0940750179001B4740BF0800F9016
:10B3F9000188E0B40B089001B5E09001B4F0900425
:10B4090043E07002A3E0700F900188E0B40E089049
:10B4190001B5E09001B4F090043EE07002A3E07041
:10B429000F900188E0B40D089001B5E09001B4F0E7
:10B4390090018EE07002A3E07011201F0E30150BF1
:10B449002016089001B4740FF0800F900188E0B4C1
:10B459000F089001B5E09001B4F0900188E0FFB4C5
:10B469000C03D38001C39223EFB40D03D38001C32E
:10B479009226900188E0FFB40E03D38001C3922184
:0BB48900EFB40F03D38001C392252213
:03BDB600022A2F2F
:10B4940020180302B555E56D30E56F30193D900174
:10B4A400D4E02414FF9001D3E03400FED39006D6F8
:10B4B400E09FEE6480F89006D5E064809850030223
:10B4C400B580D39006DEE0943C9006DDE064809481
:10B4D40080500302B580C21902B5809001D3E0FE0A
:10B4E400A3E0FFC39006D6E09FEE6480F89006D5F3
:10B4F400E064809840109006DEE094329006DDE02F
:10B50400648094805076D21980723019259001D4C9
:10B51400E02414FF9001D3E03400FED39006D6E07B
:10B524009FEE6480F89006D5E0648098404EC2197E
:10B53400804A9001D3E0FEA3E0FFC39006D6E09FCB
:10B54400EE6480F89006D5E0648098502FD219807C
:10B554002B301915D39006DEE094649006DDE06488
:10B564008094804017C2198013C39006DEE09432A1
:10B574009006DDE0648094805002D219301E14C31A
:10B584009006D8E094649006D7E0648094804016D6
:10B59400C21E22C39006D8E094329006D7E064809D
:07B5A40094805002D21E2228
:109FEF00900188E014601214601A240270217543E6
:109FFF00017544017545D7801F754301754402757E
:10A00F00454780147543017544027545B78009753E
:10A01F004300754400754500E544454545437003CD
:10A02F0002A1DE9001D5E0700302A1DE7549007533
:10A03F004A00754B42AB43AA44A9451243A290066E
:10A04F00ABEEF0A3EFF0900197E0FEA3E0FF4E60C0
:10A05F001BE5122FFFE5113EFE9006ABE06E70037D
:10A06F00A3E06F6007E4900197F0A3F0900197E0F1
:10A07F007002A3E0600302A1EBE54264017078ABCC
:10A08F0043AA44A945FDFC123542EF24FD600302AB
:10A09F00A1D89001D5E0FF9001B3E0FD3395E0FC2E
:10A0AF009001B8E02DFD9001B7E03CFC900192E0EB
:10A0BF007007900191E0B4010A9006DDE0FAA3E089
:10A0CF00FB80047A007B9612BB669006ADEEF0A380
:10A0DF00EFF02512FFE5113EFE9006ABE0FCA3E08A
:10A0EF00FDC39FEC9E500DC3ED9512FEEC9511A391
:10A0FF00F0A3CEF002A1C5E5426402600302A1D82D
:10A10F00AB43AA44A945FDFC123542EF1460242449
:10A11F00FE600302A1D6900192E07007900191E0DA
:10A12F00B4010A9006DDE0FEA3E0FF80327E007FDF
:10A13F0096802C900192E07007900191E0B4010A93
:10A14F009006DDE0FEA3E0FF80159001B3E0FF3342
:10A15F0095E0FE9001B8E02FFF9001B7E03EFE9032
:10A16F0006AFEEF0A3EFF09001D5E0FF9001B3E062
:10A17F00FD3395E0FC9001BAE02DFD9001B9E03C74
:10A18F00FC9006AFE0FAA3E0FB12BB669006ADEEC3
:10A19F00F0A3EFF02512FFE5113EFE9006ABE0FCB9
:10A1AF00A3E0FDC39FEC9E500DC3ED9512FEEC9501
:10A1BF0011A3F0A3CEF09006ADE0FFA3E09001A4B1
:10A1CF00CFF0A3EFF080158000E49001A4800AE4A3
:10A1DF009001A4F0A3F0900197F0A3F0900190E00C
:10A1EF00F541900188E0B40F00400302A35890A2FC
:10A1FF0004F828287302A23102A23102A23102A26E
:10A20F006E02A27D02A28C02A29602A34B02A2D8DA
:10A21F0002A28C02A2AF02A28C02A34B02A34B029A
:10A22F00A2D3AB43AA44A9459001A4E0FCA3E0FD4F
:10A23F00123542900190EFF0BF0106E541640360D3
:10A24F0007900190E0B4020F9001A4E0FFA3E0900B
:10A25F000197CFF0A3EFF03048569001908049D28C
:10A26F00189001907401F0304802803C8042D2185F
:10A27F009001907402F0304802802D8033C2189004
:10A28F0001907403F08022D218E4900190F07B01CA
:10A29F003048067A0179D7801E7A037938E480171F
:10A2AF00E4900190F0304808E090019BF002A35831
:10A2BF007B017A037938E4FDFC12354290019BEF64
:10A2CF00F002A358900190806EC218900190740113
:10A2DF00F09001B6E0FFC4540F14600F1460142403
:10A2EF000270207B017A0179D7800E7B017A027987
:10A2FF004780067B017A0279B7E4FDFC1235428F65
:10A30F004280089001B6E0540FF5429001B6E0FF8D
:10A31F00540FFEBE0315E54264016005E542B40229
:10A32F000A9001B5E09001B4F08009EF54F0454276
:10A33F009001B6F090019B7401F0800DD218E4905B
:10A34F000190F090019B7403F0900191E0B402161C
:10A35F00E54445454543601AAB43AA44A945123A23
:10A36F00FAB39218800C900191E07003D38001C36F
:10A37F009218900190E0FF65416005E4900186F02E
:10A38F00EF602775F002A424B5F9740135F08982C6
:10A39F00F583E0FEA3E0FF9001B3E0FD3395E0FC11
:10A3AF00EF2DFFEE3C90044180123019157E0030E6
:10A3BF0018047F3280027F64900441EEF0A3EFF027
:10A3CF008007E4900441F0A3F020212C3023028079
:10A3DF002790019BE0FF6017C394035012EF75F0B5
:10A3EF0002A42431F9740335F08982F583800C308F
:10A3FF001C1790019B7401F0900333E0FFA3E090D2
:10A40F000182CFF0A3EFF08007E4900182F0A3F078
:10A41F00202703302854900188E024FB601824FE85
:10A42F00601424FE601024FE600C24037010900151
:10A43F00997401F0802A9001997403F08022304FB3
:10A44F000E90019BE0FFB402047F01800E800C7B15
:10A45F00017A0379CAE4FDFC123542900199EFF0BD
:10A46F00301C0D9001997401F0229001997403F042
:01A47F0022BA
:10BB66008F46C3ED9BFFEC9AFE3395E0FDFCC004C7
:10BB7600C005C006C007AF46E4FCFDFE78011223EF
:10BB8600B5D003D002D001D00012226E8F4A8E4962
:10BB96008D488C479006CEE020E12FAB4AAA49A9F2
:10BBA60048A8479006D5E0FEA3E0FFC374C89FFFF0
:10BBB600E49EFE3395E0FDFC12226E8F4A8E498D7F
:10BBC600488C47E47B987A3A800CAF4AAE49AD4838
:10BBD600AC47E47B32FAF9F8125A208F4A8E498D27
:10BBE600488C47AC47EC335007E4F54AF549801CCE
:10BBF600E47F587E02FDFCAB4AAA49A948A847D370
:10BC060012238B400BE4754A58754902F548F547EF
:05BC1600AE49AF4A2217
:109940008C2D8D2E8A2F8B30A907E920E003029FF2
:10995000B8852E82852D8374FFF5F012224245F0E2
:109960006003029FEE852E82852D837402F0A3741E
:1099700058F0852E82852D83A3A3E0602D852E824D
:10998000852D83A3A3E014F0AE2FAF307C007D249F
:109990001221A5EE3395E0FDFCE52E2407F582E4C7
:1099A000352DF583122422029F95E930E11920E23A
:1099B00016852E82852D83A3A3A3E0FEA3E0653246
:1099C0007003EE6531600E852E82852D83A3A3740E
:1099D00024F0029F95E52E2405F582E4352DF583CC
:1099E000E0FEA3E0FFC3E5309FFFE52F9EFE7C0075
:1099F0007D781221A5E52E240BF582E4352DF58323
:109A0000EEF0A3EFF0E52E2407F582E4352DF58383
:109A1000E0FCA3E0FDA3E0FEA3E0FFE47B23FAF972
:109A2000F812226E8F388E378D368C35E47B24FA0F
:109A3000F9F8AF38AE37AD36AC35125A20E52E24E2
:109A400007F582E4352DF583122422E52E2407F54F
:109A500082E4352DF583C083C082E0F8A3E0F9A34A
:109A6000E0FAA3E0FBAE2FEE3395E0FDFCEB2530F2
:109A7000FFEA3EFEE93DFDE83CFCD082D0831224A3
:109A800022E52E240BF582E4352DF583E0FEA3E0DC
:109A9000FF125FA5C3EF9496EE64809480400302AA
:109AA0009BC2C3E5309496E52F64809480500302F6
:109AB0009BC2D3E5309422E52F6480948140030259
:109AC0009BC29006D5E0FEA3E0FFC3949CEE6480A9
:109AD000947F5003029BC2D3EF9496EE64809480EF
:109AE0004003029BC2E52E2407F582E4352DF58361
:109AF000E0FCA3E0FDA3E0FEA3E0FFE47B24FAF991
:109B0000F8125A208E358F36E5322406FFE43531BF
:109B1000FED3E5369FEE6480F8E5356480984045D5
:109B2000D39006D6E0943C9006D5E064809480E51E
:109B3000344022240AF582E43533F58374FF75F04E
:109B4000FE122242E534240CF582E43533F583E439
:109B500075F002806A240CF582E43533F58374FFD6
:109B600075F0FE805AE53224FCFFE53134FFFEC378
:109B7000E5369FEE6480F8E53564809850449006A1
:109B8000D6E0943C9006D5E064809480E534402291
:109B9000240AF582E43533F583E475F0031222429A
:109BA000E534240CF582E43533F58374FF75F0FD5C
:109BB000800D240CF582E43533F583E475F003124F
:109BC0002242E534240CF582E43533F583E0FEA32C
:109BD000E0FFEE3395E0FDFCE47B19FAF9F8125A48
:109BE00020E47B07FAF9F8125A20C004C005C00629
:109BF000C007853482853383A3A3A3E0FEA3E0FFDF
:109C0000EE3395E0FDFCE47B0AFAF9F812226ED0FF
:109C100003D002D001D000EF2BF538EE3AF537ED46
:109C200039F536EC38F535E47F1EFEFDFCAB38AA7D
:109C300037A936A835C312238B5013853482853358
:109C400083A3A3A3E0FEA3E0FFC374038024E47F07
:109C5000FAFEFDFCAB38AA37A936A835D312238B00
:109C6000402C853482853383A3A3A3E0FEA3E0FFC9
:109C700074199FFFE49EFE7C067DD61221A5E53473
:109C8000240CF582E43533F583EEF0A3EFF0E534F0
:109C9000240AF582E43533F583E0FEA3E0FFEE33DA
:109CA00095E0FDFCE47B07FAF9F8125A20C004C0E5
:109CB00005C006C007853482853383A3E0FEA3E098
:109CC000FFEE3395E0FDFCE47B0AFAF9F812226E10
:109CD000D003D002D001D000EF2BFFEE3AFEED39D9
:109CE000FDEC38FCC004C005C006C0078534828581
:109CF0003383A3A3A3E0FEA3E0FFEE3395E0FDFCD6
:109D0000E47BFAFAF9F812226ED003D002D001D027
:109D100000EF2BFFEE3AFEED39FDEC38FCC004C03D
:109D200005C006C007E534240CF582E43533F5831D
:109D3000E0FEA3E0FFEE3395E0FDFCE47B07FAF9DB
:109D4000F8125A20D003D002D001D000EF2BF53802
:109D5000EE3AF537ED39F536EC38F535E5342406CD
:109D6000F582E43533F583E0FEA3E0FFEE3395E0C2
:109D7000FDFCE47B0AFAF9F812226EAB38AA37A987
:109D800036A835D312238B5003029E8E85348285EC
:109D90003383A3E0FEA3E0FFEE3395E0FDFCE47B1C
:109DA0000AFAF9F812226EC004C005C006C007E521
:109DB000342406F582E43533F583E0FEA3E0FFEEBC
:109DC0003395E0FDFCE47B0AFAF9F812226ED00329
:109DD000D002D001D000C3EF9BFFEE9AFEED99FDBB
:109DE000EC98FCC004C005C006C007E534240AF5A1
:109DF00082E43533F583E0FEA3E0FFEE3395E0FD2A
:109E0000FCE47B07FAF9F8125A20A804A905AA066F
:109E1000AB07D007D006D005D004C3EF9BFFEE9A66
:109E2000FEED99FDEC98FCC004C005C006C0078596
:109E30003482853383A3A3A3E0FEA3E0FFEE339532
:109E4000E0FDFCE47BFAFAF9F812226EA804A905F9
:109E5000AA06AB07D007D006D005D004C3EF9BFFFE
:109E6000EE9AFEED99FDEC98FCE47B07FAF9F81206
:109E7000226E8F388E378D368C35AE37AF38E5345D
:109E8000240CF582E43533F583EEF0A3EFF0E534EE
:109E9000240AF582E43533F583E0FEA3E0FFEE33D8
:109EA00095E0FDFCE47B07FAF9F8125A20C004C0E3
:109EB00005C006C007853482853383A3E0FEA3E096
:109EC000FFEE3395E0FDFCE47B0AFAF9F812226E0E
:109ED000D003D002D001D000EF2BF538EE3AF537A1
:109EE000ED39F536EC38F535E47FA07E0FFDFCAB9F
:109EF00038AA37A936A835D312238B40248534825B
:109F0000853383A3E0FEA3E0FFEE3395E0FDFCE4A0
:109F10007B0AFAF9F812226EC374A09FFF740F80B7
:109F200037E47FD07E07FDFCAB38AA37A936A835C9
:109F3000C312238B504F853482853383A3E0FEA365
:109F4000E0FFEE3395E0FDFCE47B0AFAF9F812221B
:109F50006EC374D09FFF74079EFEE49DFDE49CFCDD
:109F6000E47B07FAF9F812226E8F388E378D368C23
:109F700035AE37AF38E534240AF582E43533F5835E
:109F8000EEF0A3EFF0E534240AFFE43533FE7D0460
:109F90007C00125CD0E52E2405F582E4352DF58396
:109FA000E52FF0A3E530F0852E82852D83A3A3A3B2
:109FB000E531F0A3E532F022852E82852D837402EF
:109FC000F0A37458F0852E82852D83A3A37424F00A
:109FD000E534240CF582E43533F583E4F0A3F0E5B1
:0F9FE00034240AF582E43533F583E4F0A3F0224C
:10BAA300900188E0640A7032A24B9258752C01759C
:10BAB3002D9A752E03752F2712AFC590018AEEF0CC
:10BAC300A3EFF04E703D90018AF0A37432F0900121
:10BAD300B5E09001B4F0D20F8029900441E0FEA3B9
:10BAE300E0FF9006DDE0FCA3E0FD30182290019218
:10BAF300E0FB7531017532C112B6C290018AEEF0D6
:10BB0300A3EFF090019E12242E0000000080187A0B
:10BB1300017BC175320175330175349E12B19A9060
:10BB2300018AEEF0A3EFF020230620250330211035
:10BB33009001C7E0FFA3E090018CCFF0A3EF801743
:10BB4300301A0E90018AE0FFA3E0A3CFF0A3EFF039
:10BB530022E490018CF0A3F090019E12242E0000A9
:03BB6300000022BD
:10B6C2008E2C8F2D8C2E8D2F8B30E532240AF58215
:10B6D200E43531F583E0FEA3E0FF7C007D07122212
:10B6E2000CAA06AB07853282853183A3E0FEA3E074
:10B6F200FF7C007D0A1221A5EF2BFFEE3AAB07FA81
:10B70200E532240CF582E43531F583E0FEA3E0FF57
:10B712007D1912220C7C007D0712220C7C007D0A0E
:10B7220012220C853282853183A3A3A3E0FCA3E01D
:10B732002FF534EC3EF5339006D5E0FEA3E0FFC3CF
:10B7420074969FFFE49EFEAC33AD341221A5EF2B1D
:10B75200FFEE3AAB07FAE534240AFDE43533FCE5A3
:10B762002D2438FFE52C34FFFE1221A5EF2BFBEE32
:10B772003AFAC3E52D952FFFE52C952EFEAD307CD0
:10B78200001221A5EF2BFBEE3AFA74052BFBE43AEB
:10B792007D0AAF03FE12220CAA06AB07C3EB94325A
:10B7A200EA6480948050047A007B32E5322406F504
:10B7B20082E43531F583E0FEA3E0FFC39BEA6480B7
:10B7C200F8EE6480985004AA06AB07AE02AF0322DB
:10B19A008E2C8F2D8A308B31C3E52D9DFFE52C9C9B
:10B1AA00FE3395E0FDFCE47B107A27F9F812226E53
:10B1BA00C007E5312408F582E43530F583E0FBE485
:10B1CA00FAF9F8D007125A208F388E378D368C3517
:10B1DA00AB32AA33A934C003C002C0011223C8C0CB
:10B1EA0004C005C006C007E5312409F582E43530FC
:10B1FA00F583E0FFE4FCFDFE7B78FAF9F812226E93
:10B20A00C004C005C006C007E47F107E27FDFCAB62
:10B21A0038AA37A936A83512226ED003D002D00137
:10B22A00D000125A20A804A905AA06AB07D007D055
:10B23A0006D005D004EF2BFFEE3AFEED39FDEC38CF
:10B24A00FCD001D002D0031223E8E5312406F582AE
:10B25A00E43530F583E0FEA3E0FFEE3395E0FDFC34
:10B26A007BA07A867901780012226EAB32AA33A9C2
:10B27A0034122402D312238B402AE5312406F582A4
:10B28A00E43530F583E0FEA3E0FFEE3395E0FDFC04
:10B29A007BA07A867901780012226EAB32AA33A992
:10B2AA00341223E8AB32AA33A9341223C8EC335040
:10B2BA000712246200000000AB32AA33A934122319
:10B2CA00C87BA07A8679017800125A20C006C00786
:10B2DA00E47B0AFAF9F8AF38AE37AD36AC35125A14
:10B2EA0020D0E02FFFD0E03ECF252DCF352CFEC356
:10B2FA00EF9432EE6480948050047E007F32E53110
:10B30A002406F582E43530F583E0FCA3E0FDC39F13
:0FB31A00EE6480F8EC6480985004AE04AF052216
:10AFC500E52F2408F582E4352EF583A3E0FFC3E5DC
:10AFD500149F852D82852C83F0E52F240AF582E4C4
:10AFE500352EF583E0FEA3E0D39512EE95114009C9
:10AFF500852D82852C83E014F0205846852F828587
:10B005002E83E0FF852D82852C83E0F9C39F5007B1
:10B015007A007BFA02B164E52F2405F582E4352E2A
:10B02500F583E0FF852F82852E83E02FFFE433FE35
:10B03500E9C39FEE6480F8748098500302B0D5028E
:10B04500B161852F82852E83A3A3A3E0FEA3E0240F
:10B0550006F531EE34FFF530852F82852E83A3E08A
:10B06500FCA3E0FDAE30AF3112220C8F32852F826A
:10B07500852E83A3E0FCA3E0FDAE30AF3112220C98
:10B08500ED60020532852D82852C83E0FFD3953254
:10B09500501B7E00852F82852E83A3E0FCA3E0FD57
:10B0A5001221A5EF24FAFBE43EFA02B164E52F2450
:10B0B50005F582E4352EF583E0142532F532852D2C
:10B0C50082852C83E0D395325011852F82852E837E
:10B0D500A3A3A3E0FAA3E0FB02B164E52F2406F5E0
:10B0E50082E4352EF583E0FCA3E0FDAE30AF3112EE
:10B0F500220C8F33E52F2406F582E4352EF583E007
:10B10500FCA3E0FDAE30AF3112220CED6002053339
:10B11500E5322533FFE433FE852D82852C83E0F966
:10B12500D39FEE6480F87480985031E9C39532FF5F
:10B13500E49400FEE52F2406F582E4352EF583E040
:10B14500FCA3E0FD1221A5852F82852E83A3A3A351
:10B15500E0FCA3E0C39FFBEC9EFA8003E4FAFBEB63
:10B165004A600FC3EB94FAEA6480948050047A0035
:10B175007BFA852F82852E83A3A3A3E0FEA3E0FFA0
:10B18500C39BEA6480F8EE6480985004AA06AB0776
:05B19500AF03AE022231
:10A7B300900188E024F9600F24FD601D24FC6019DA
:10A7C30014601124097017301905D21A02A91BC28B
:10A7D3001A02A91BC21A02A91BD21A02A91B3019F9
:10A7E3000302A91920180302A890900190E0B40372
:10A7F300059001D180039001CFE0FEA3E0FFAC06FA
:10A80300AD07301A32D39006D6E09DEC6480F89001
:10A8130006D5E0648098501B900441E0FEA3E0FF5E
:10A82300C390018BE09FEE6480F890018AE064801E
:10A83300985047C21A8043900186E0FFC3ED9FFF03
:10A84300EC9400FEC39006D6E09FEE6480F8900679
:10A85300D5E06480985023900442E02414FF9004D0
:10A8630041E03400FED390018BE09FEE6480F890CA
:10A87300018AE06480984002D21AE510D394045010
:10A883000302A91B900186741EF002A91B301A4013
:10A89300900442E02405FF900441E03400FED3908D
:10A8A30006DEE09FEE6480F89006DDE06480985059
:10A8B3001B900441E0FEA3E0FFC390018BE09FEEF9
:10A8C3006480F890018AE0648098504CC21A8048F2
:10A8D300900442E024FFFF900441E034FFFEC39064
:10A8E30006DEE09FEE6480F89006DDE06480985019
:10A8F30027900442E02414FF900441E03400FED387
:10A9030090018BE09FEE6480F890018AE064809868
:10A913004006D21A8002D21A9006CEE020E26D20C1
:10A923001E5D301D1F900182E0FEA3E0FFC3900671
:10A93300D8E09FEE6480F89006D7E0648098402CBE
:10A94300C21D8028900337E0FFC3900183E09FFF7F
:10A95300900182E09400FEC39006D8E09FEE6480ED
:10A96300F89006D7E06480985002D21D201D1F3056
:10A973001C1C90019BE0C394035013C21C800F90D6
:10A983000182E4F0A37464F0D21D8002C21D20276B
:10A993000620280302AA7B9001A2E07002A3E070C4
:10A9A3003220282F850F82850E83A3E020E1249097
:10A9B30003C7E075F078A4FF9001A2E5F0F0A3EFE0
:10A9C300F09003C6E075F078A4FF90019CE5F0F0E9
:10A9D300A3EFF0301908201805D22902AA7D9001AF
:10A9E30099E06401600D90019CE07002A3E07003A4
:10A9F30002AA7720287A90019BE0B40205900335E0
:10AA03008003900333E0FEA3E0FFAC06AD0790069E
:10AA1300D7E0FEA3E0FFC39DEC6480F8EE6480986A
:10AA230050028004AE04AF059003C8E0FCA3E0FD30
:10AA3300C3EF9DFDEE9CFC302917C39006D4E09D27
:10AA4300EC6480F89006D3E0648098402DC229809E
:10AA530029ED24F6FFEC34FFFED39006D4E09FEEFD
:10AA63006480F89006D3E0648098500ED229800A5F
:10AA7300D2298006C2298002C22930270E20290349
:10AA8300301B03D38001C3922A8002C22AA21F92E1
:10AA930058900189E06004C21F800E202309202101
:10AAA30006201D03301A02D21F30580C201F0990B4
:09AAB300018EE4F0A37478F02296
:10BCFA00900706E0A2E39215A2E2921620230920F9
:10BD0A002606A22A92178005302302C21730152D63
:10BD1A0020202A9003C0E0FCA3E0FDA3E0FEA3E0FC
:10BD2A002401FFE43EFEE43DFDE43CFC9003C01226
:10BD3A0024227E037FC07D047C00125CD0A215926F
:02BD4A002022B5
:10533E0050726F6772616D2D5570646174652020B7
:10534E00002020202020202020202020202020206F
:10535E0020000F110BFDFAFC050100B4005A0302E8
:10536E00005A0000020000B40090028000B4000059
:10537E000003003600360080000200000080151881
:10538E0000000080000000000103003600320180A2
:10539E0000050000018015180000018000000000CB
:0853AE0000080020004001008E
:10B5AB00E4F56FF570F56DF56E900650F0A3F0A312
:10B5BB00F0A3F090065BF0A3F0F50B9005FCF09078
:10B5CB000657F09005FDF0A3F09053639390065D42
:10B5DB00F0E49006EBF0A3F0FF74582FF582E434FF
:10B5EB0006F5837432F074542FF582E43406F58338
:10B5FB007414F0EF75F003A42447F582E43406F5D8
:10B60B0083E4F0A3F0EF75F003A42449F582E4344E
:10B61B0006F583E4F00FBF04C0E4FFEF75F006A45A
:10B62B002466F582E43453F583E493FEEF75F0065C
:10B63B00A424FFF582E43405F583EEF0EF75F006F4
:10B64B00A42467F582E43453F583E493FEEF75F09D
:10B65B0006A42400F582E43406F583EEF0EF75F0D2
:10B66B0006A42468F582E43453F583E493FC740157
:10B67B0093FDEF75F006A42401F582E43406F583FF
:10B68B00ECF0A3EDF0EF75F006A4246AF582E43438
:10B69B0053F583E493FC740193FDEF75F006A4243A
:10B6AB0003F582E43406F583ECF0A3EDF00FEF64C1
:07B6BB000C600302B6262219
:108FF600850F82850E83A3E020E014E50F2413F588
:1090060082E4350EF583E054FDF075A6FE80FE90F1
:10901600065BE07002A3E0600E90065CE024FFF0C1
:1090260090065BE034FFF0900657E0600214F09083
:1090360006EBE07002A3E0600E9006ECE024FFF081
:109046009006EBE034FFF09005FDE07002A3E060CF
:10905600169005FD74FFF5F012224245F070089057
:1090660053639390065DF02000030294E4E4F50B4D
:10907600900000E024F570030291C424FE70030200
:1090860092E324FC70030291842415700302929CDF
:109096001470030292B324EE60030294E2E4900695
:1090A60058F0900002E024FB70030291592484706A
:1090B6000302917E248060030294E2900003E09014
:1090C6000578F09006EBE07002A3E060030294E2FC
:1090D600E56F20E111900004E0FFA3E0900652CF77
:1090E600F0A3EFF08041E57020E03C90065BE07075
:1090F60002A3E07005536FFD802D900004E0FEA3EF
:10910600E0FF900653E02401FD900652E03400FC97
:10911600D3EF9DEC6480F8EE648098500A536FFD9F
:10912600E490065BF0A3F09001D6E0FF3395E0FEF5
:10913600900653E02FFF900652E03E9006DDF0A326
:10914600EFF09006CEE054DFF09006EFE054DFF04B
:109156000294E2900003E06008437001436F0280CE
:1091660012E57030E00A90065B74A8F0A374C0F0B4
:109176005370FE900618803A4370400294E2E490E1
:109186000659F0900002E024FB601624846029242E
:109196008060030294E2900003E0900579F0029467
:1091A600E2900003E0600543700480035370FB9077
:1091B60006307480F00294E2436F010294E2E49078
:1091C600065AF0900002E0FB6410600302926EA360
:1091D600E0900187F09006EBE07002A3E070269025
:1091E6000004E0FEA3E0FF9006DFEEF0A3EFF0BE82
:1091F600FE0CBFD4099006CEE04440F080079006EE
:10920600CEE054BFF0900006E0FFA3E0900193CFBC
:10921600F0A3EFF0900008E0FCA3E0FDA3E0FEA3BE
:10922600E0FF90044512242290000CE0FCA3E0FD30
:10923600A3E0FEA3E0FF90043A122422900001E08E
:10924600C39411401A900010E0FFA3E090064DCFA2
:10925600F0A3EFF0900012E090064FF00294E2E4E3
:1092660090064DF0A302934AEBC394B050030294C8
:10927600E2900002E0FFD394B740030294E2750B3C
:10928600039005FD7401F0A37468F0EF94B15003E8
:109296000294E20294BA905362E493FF900002E0D3
:1092A6006F60030294E290065AF00294E290000284
:1092B600E064AA60030294E2A3E0FF640D70030277
:1092C60094E29006A47452F0A304F0A304F07C0682
:1092D6007DA47B031256F7750B120294E2900002EE
:1092E600E012248894D003936609939B1194D014BA
:1092F60094551594D01694D01794D018949F4094F2
:10930600765294D0AA9333AB9339AC9346AD93502F
:10931600AE94D0B094D0B194D0B294D0B394D0B42B
:1093260094D0B594D0B694D0B7000094E2431E0C06
:109336000294E29006507415F0A37418F00294E2B9
:10934600E4900650F0A3F00294E2905364E4939004
:10935600065DF09005FD7401F0A37468F00294E2D6
:10936600900003E0645560030294E2A3E064486061
:10937600030294E2A3E0645260030294E2F57FA341
:10938600E0F511A3E0F512A3E0F513A3E0F514123E
