:1046470090E1A3A1C390E220A1B190E741A1B1906D
:10465700E548A1B190D8F4A1B1908000A1B190B97B
:1046670092A1C390D4B5A1C390E6BBA1B190B9699B
:10467700A1B190B46FA1B190DD1AA1B190E30AA1E5
:10468700B190D00EA1B190E083A1C390AB2DA1C38F
:1046970090C948A1B1909BE1A1B190AE2BA1B19077
:1046A700C5C6A1B190CCC0A1B190D323A1B1908EC2
:1046B70056A1B190C1FEA1B190BE33A1B190A59D05
:0846C700A1B190E3DEA1B100F6
:10212B000003030304040404040404050608090C57
:10213B0010111B393C3C3C1E1414100D0C0A0908E1
:10214B00090A0C0D1014141E3C3C00010002000483
:10215B000008001000200040008001000800100063
:10216B002000011F001801011F0158030160001C12
:10217B00010160015C03020F001801020F01200333
:10218B00020F023E01020F03580302100018010256
:10219B00100120030210023E010210035C03022017
:1021AB00001C010220015C030240001C01024001E3
:1021BB005803030F001801030F01580303100018F5
:1021CB00010310015C030320001C010320015C03CD
:1021DB000340001C010340015803041F00140104B9
:1021EB001F01580304600018010460015C03051F04
:1021FB00001801051F012003051F022C01051F03F9
:10220B003403051F044801051F0558030560001C16
:10221B000105600124030560022C010560033403F2
:10222B0005600448010560055C03067F0018030088
:10223B00290109C31401FE0C032000000109BF147E
:10224B0001FE0C05DC00000109B91401FE0C05DCD4
:10225B0000000109B51401FE0C05DC00000109B7F3
:10226B001401FE0C05DC00000109B31401FE0C0582
:10227B00DC00000109BB1401FE0C05DC00000109A8
:10228B00C11401FE0C05DC00000109BD1401FE0C9C
:10229B0005DC00000109C51401FE0C05DC00000182
:1022AB0009C71401FE0C05DC00000109C91401FE6D
:1022BB000C09C400000109CB1401FE0C05DC000065
:1022CB000109CD1401FE0C05DC0000010184140191
:1022DB00FE0C05DC000001073B14000000000000B1
:1022EB000001073F14000000000000000101A514CD
:1022FB0001FE0C05DC00000101BF1401FE0C05DC26
:10230B0000000101A71401FE0C05DC00000101C354
:10231B001401FE0C05DC00000107451401FE0C0541
:10232B00DC00000101AB1400000000000000010202
:10233B001201010000000E00000102130101000058
:10234B00000E00000102140101000100FF00010159
:10235B0002151405003201F400C801021714050020
:10236B003201F400DC0102191405003201F400966D
:10237B0001023C05030000000000010102AC050056
:10238B0000000000000201031C050000000000001B
:10239B000301021B130100008EAD072301021D1365
:1023AB000100008EAD072301021F01010000000296
:1023BB000000010220240A00C802BC015E010229B0
:1023CB00040180017FFF00000102221401000000C4
:1023DB001E000D01022B040180017FFF0000010292
:1023EB0025240A0032038402BC01022D240AFFA615
:1023FB0001F400C801022F240AFFA601F4006401B6
:10240B000231240AFFA600C80014010233010100A7
:10241B000000F000780102242105000000C8000034
:10242B00010234240A0000012C0000010236240AA8
:10243B000032019000C8010238010500140064004D
:10244B0064010239010100010078000501023A0123
:10245B0001000100080002010227110A000A0064B2
:10246B0000320102280101000100F0001E01023BB5
:10247B000201FFD80028000001071601010000002F
:10248B0002000001038C0101000000320003010374
:10249B008D240A000A01F4003201038F240A012C57
:1024AB00028A01F4010391010100010032000401D1
:1024BB000392240A000A01F4003201039413010071
:1024CB00008EAD072301039603010000059F00005A
:1024DB0001039801010000000E00000103990101A6
:1024EB000000000E000001039A0101000100FF0033
:1024FB000101039B1405003201F400C801039D1474
:10250B0005003201F400DC01039F1405003201F4D5
:10251B0000960103C2050300000000000101043214
:10252B0005000000000000020104A20500000000ED
:10253B000000030103A1130100008EAD072301036B
:10254B00A3130100008EAD07230103A501010000B9
:10255B00000200000103A6240A00C802BC015E01B0
:10256B0003AF040180017FFF00000103A8140100E9
:10257B0000001E000D0103B1040180017FFF00006C
:10258B000103AB240A0032038402BC0103B3240A07
:10259B00FFA601F400C80103B5240AFFA601F4004D
:1025AB00640103B7240AFFA600C800140103B90194
:1025BB0001000000F000780103AA2105000000C80B
:1025CB0000000103BA240A0000012C00000103BC27
:1025DB00240A0032019000C80103BE01050014005B
:1025EB006400640103BF01010001007800050103D1
:1025FB00C001010001000800020103AD110A000A2D
:10260B00006400320103AE0101000100F0001E0165
:10261B0003C10201FFD800280000010717010100C8
:10262B00000002000001051201010000003200034E
:10263B00010513240A000A01F40032010515240ACE
:10264B00012C028A01F4010517010100010032007F
:10265B0004010518240A000A01F4003201051A13BB
:10266B000100008EAD072301051C03010000059F2F
:10267B00000001051E140A0032038401F401052039
:10268B00140A0032038402580105270501000000DB
:10269B00000004010522140A0032038400640105C2
:1026AB0024140A003203840064010597050100001D
:1026BB0000000004010526110A001400C8003201B5
:1026CB000719040A0064038403520107180101006F
:1026DB000000030000010607140500050258000A5C
:1026EB00010609040A0064044C038401060B240A46
:1026FB0000000384000001060D110A001400C8003D
:10270B003201060E01010000003C000501060F24FA
:10271B000AFF9C01F401900106110105000A0064F7
:10272B00001901061605010000000000050101CB90
:10273B0001000000000000000106860501000000FA
:10274B000000060101CE01000000000000000106A0
:10275B001201010001003C000301061301010000FE
:10276B00003C000F010614240A001401F40032018E
:10277B0006F60301000004B0005D0106F80010002E
:10278B00000000000001071501010000000000001F
:10279B0001071303010000000700010102100205ED
:1027AB00FFD8002800000102110205FFD800280005
:1027BB0000010708060000000000000001070C01E3
:1027CB00000000003C000001070D060000000000A7
:1027DB0000000101C10300000000000000010741DF
:1027EB00060000000000000001071D0600000000AD
:1027FB0000000001071103000000FFFF00000101B2
:10280B00ED03000000000000000101EF03000000D9
:06281B000000000000892E
:103DEE001221271247EB12464712464C1246511229
:103DFE00465612465B900711E475F0011229167EA5
:103E0E00077F117D02125AB8E4F51F051F12466096
:103E1E0012466512466A12466F124674E50E122B52
:103E2E00853E4E003E57013E60023E7C033E9804A6
:103E3E003EB8053EC1063F4E073F530800003F56B1
:103E4E0012467912467E023F561246831246880269
:103E5E003F56E4FF12468D902155E493555BFE7458
:103E6E000193555C4E7003023F56E4FF80367F018E
:103E7E0012468D902157E493555BFE740193555C69
:103E8E004E7003023F567F01801A7F0212468D90BC
:103E9E002159E493555BFE740193555C4E700302F9
:103EAE003F567F02124692023F5612469712469C8A
:103EBE00023F569001B9E0B403047F0480027F00F4
:103ECE00301E047E0280027E00EF4EFF3052047ED2
:103EDE000180027E00EF4EFF7C017DF69009C5E069
:103EEE00FAA3E0FB90073BE0F535A3E0F536753716
:103EFE00027538201246A19001BAE0B403047F0483
:103F0E0080027F003028047E0280027E00EF4EFF8A
:103F1E003053047E0180027E00EF4EFF7C027D0353
:103F2E009009C7E0FAA3E0FB90073FE0F535A3E068
:103F3E00F5367537037538A61246A11246A68008C7
:103F4E001246AB80031246B01246B51246BA12465E
:103F5E00BF1246C41246C9E51FD394025002800117
:093F6E00C3926812570D023E19BE
:105CA100D255E4FF74F82FF582E43406F5837420AD
:065CB100F00FBF10EF220E
:104AC100C0E0C0F0C083C082C0D075D000C000C0BB
:104AD10001C002C003C004C005C006C0079001B7F1
:104AE100E0FF90214093FE900724E004F0C39E5024
:104AF10012EF90212B93FF900724E0C39F4011C236
:104B01000D800D9001B7E06002D20D900724E4F012
:104B11009001B8E0FF90214093FE900727E004F058
:104B2100C39E5012EF90212B93FF900727E0C39F64
:104B31004011C20E800D9001B8E06002D20E9007C4
:104B410027E4F0900728E0FF90214093FE90072B87
:104B5100E004F0C39E5012EF90212B93FF90072B9E
:104B6100E0C39F4011C20F800D900728E06002D280
:104B71000F90072BE4F0125BD4751F00D007D0060D
:104B8100D005D004D003D002D001D000D0D0D08243
:074B9100D083D0F0D0E03228
:0B212000020084011D090875690022FF
:017FFF00FF82
:0A5D5900887995195C875C9C5C9DBD
:1045B100E5695407C4C0E07453C0E0C082C08302FF
:1045C1005300E5695407C4C0E07453C0E0C082C021
:1045D10083025310E5695407C4C0E07453C0E0C0BE
:1045E10082C083025320E5695407C4C0E07453C0FC
:1045F100E0C082C083025330E5695407C4C0E0744F
:1046010053C0E0C082C083025340E5695407C4C06F
:10461100E07453C0E0C082C083025350E56954077F
:10462100C4C0E07453C0E0C082C083025360E56936
:104631005407C4C0E07453C0E0C082C08302537009
:0B530000F874009020E0F569F0E8224E
:0B531000F874019020E0F569F0E8223D
:0B532000F874029020E0F569F0E8222C
:0B533000F874039020E0F569F0E8221B
:0B534000F874049020E0F569F0E8220A
:0B535000F874059020E0F569F0E822F9
:0B536000F874069020E0F569F0E822E8
:0B537000F874079020E0F569F0E822D7
:06464100EFC4905300736A
:10210000025C18024AC10221180221180221180299
:09211000211802211802211832E5
:105CB7007813790E770009B9140479168005B91994
:065CC700027921D8EF2252
:10576600E4900A65F0900A65E0FFC39414503CEF9C
:1057760075F005A42466F582E4340AF583E4F0A303
:10578600F0EF75F005A42468F582E4340AF583E4A5
:10579600F0A3F0EF75F005A4246AF582E4340AF567
:1057A60083E4F0900A65E004F080BAE4900A65F0BC
:0557B600900ACAF02278
:104F4A00900A65E0FF900ACAE0FE6F7003024FF212
:104F5A00EE75F005A4246AF582E4340AF583E0606C
:104F6A0066900ACAE0FF75F005A4246AF582E43463
:104F7A000AF583E014F0EF75F005A4246AF582E4DB
:104F8A00340AF583E0FDFF7E00900ACAE0FC75F062
:104F9A0005A42468F582E4340AF583E0FAA3E02F35
:104FAA00FFEE3AFEEC75F005A42466F582E4340AB5
:104FBA00F583E0FAA3E0F5828A832DF582E435834E
:104FCA00F583E0FD125B3A900ACAE075F005A42465
:104FDA006AF582E4340AF583E0700D900ACAE004A7
:094FEA00F0C394144002E4F0222B
:105AB800AB07AA06A905905D53E493FE740193FF12
:105AC800C3EB9FFFEA9EFEC394004012EF2440FD03
:0F5AD800E43EAF05FEAD03AC02AB0112559022C8
:105590008E448F45900A65E075F005A4246AF58273
:1055A000E4340AF583E07049900A65E0FF75F00580
:1055B000A42468F582E4340AF583E544F0A3E545C4
:1055C000F0EF75F005A42466F582E4340AF583EC67
:1055D000F0A3EDF0EF75F005A4246AF582E4340A37
:1055E000F583EBF0900A65E004F0C394144002E404
:0255F000F022A7
:1054C6008C398D3A8A3B8B3C8E3D8F3E1254377F0A
:1054D600A0125416E539FF125416AF3AE53A1254A3
:1054E600161254377FA1125416D3E53C9401E53BBE
:1054F6009400402275A6EFE4FF1253F2853E8285A2
:105506003D83EFF0E53C153C7002153B053EE53E5C
:1055160070D7053D80D37F011253F2853E82853DCB
:0655260083EFF002544780
:105B3A008E3B8F3C8D3DC2B51254377FA01254164E
:105B4A00E53BFF125416AF3CE53C125416AF3D122A
:085B5A005416125447D2B52283
:1051B800FED40FD7FF380FADFF6A0F93FF9C0F7116
:1051C80000000F1400320ED500640E8A00960E31CE
:1051D80000C80DCB00FA0D55012C0CD1015E0C4016
:1051E80001900BA201C20AFA01F40A4A02260995A3
:1051F800025808DF028A082902BC077902EE06CDA8
:105208000320062A035205940384050503B6048483
:1052180003E8040D044C034004A602AB051402196C
:10522800057801B005DC01600640012106A400F301
:04523800070800CA99
:10423100E4F5977535010535E53570FA758EFF752D
:104241008FFF75940900759720C2B4C273E4F56AB3
:10425100D274F535E535C394095012AF35EF25E039
:10426100248FF582E43409F583E4F0A3F0AF35EF50
:1042710025E024B3F582E43409F583E4F0A3F005E5
:1042810035E535B410CEE490098DF0A3F09009FA2C
:10429100F0A3F09009F97404F0E49009F7F0A3F0A9
:1042A1007E097FD37B12FA7D05FC1254C67E097FFD
:1042B100E57B127A007D177C001254C6E4F535AF18
:1042C10035EF25E024D3F582E43409F583E0FEA33C
:1042D100E0C394CEEE6480947F401CAF35EF25E0BF
:1042E10024D3F582E43409F583E0FEA3E0D39432CC
:1042F100EE648094804012AF35EF25E024D3F5823F
:10430100E43409F583E4F0A3F0AF35EF25E024E5CB
:10431100F582E43409F583E0FEA3E0C394B6EE64CC
:10432100809483401CAF35EF25E024E5F582E43429
:1043310009F583E0FEA3E0D3941AEE6480948440EF
:1043410015AF35EF25E024E5F582E43409F58374F2
:1043510003F0A374E8F00535E53564096003024212
:02436100C02278
:102C53009009F9E0600314F0229009F7E07002A3F1
:102C6300E0600A9009F774FFF5F0022916E56AC3DC
:102C730094045005856A31800FE56AB40405E4F5D0
:102C8300318005E56A14F531AF31125BB08E328FB6
:102C930033E56A25E0248FF582E43409F583E0FE09
:102CA300A3E0FFE4FCFD7B0FFAF9F81229478F3705
:102CB3008E368D358C34E47B10FAF9F81252B9E56F
:102CC3006A25E0248FF582E43409F583EEF0A3EF5F
:102CD300F0E56A25E0248FF582E43409F583E532D3
:102CE3008533F0122916307430E56A25E0248FF518
:102CF30082E43409F583C083C082A3E0C4F8540F8F
:102D0300C868FF0582D5820215831582E0C454F09A
:102D130048D082D083F0A3EFF0E56A25E0248FF555
:102D230082E43409F583E0FEA3E07802CEC313CE38
:102D330013D8F9F5338E32D394E4E532940F402A55
:102D430075180274017E00A86A088005C333CE3368
:102D5300CED8F9FF90098DE04EF0A3E04FF0900933
:102D6300FAE04EF0A3E04FF08068C3E5339498E5B2
:102D7300329400502675180374017E00A86A0880F7
:102D830005C333CE33CED8F9FF90098DE04EF0A3BF
:102D9300E04FF0EFF4FFEEF4FE802DE518640260DF
:102DA30005E518B40303E4F51874017E00A86A0866
:102DB3008005C333CE33CED8F9F4FFEEF4FE900989
:102DC3008DE05EF0A3E05FF09009FAE05EF0A3E02F
:102DD3005FF0C39051BA7401939533E493953250E5
:102DE30017E56A25E024A1F582E43409F58374FE2E
:102DF300F0A374D4F0022F17D390523A7401939531
:102E030033E49395324016E56A25E024A1F582E484
:102E13003409F5837407F0A304F0022F17E4F530A7
:102E2300E53025E025E024BEF582E43451F583C383
:102E33007401939533E493953240070530E530B43C
:102E43001FDEE53025E025E024BAF582E43451F5B0
:102E530083C37401939533FFE4939532AB07FAE48C
:102E6300F9F8E53025E025E024B8F582E43451F59E
:102E730083E493FE740193FFE53025E025E024BC51
:102E8300F582E43451F583C37401939FFFE4939E69
:102E9300FE3395E0FDFC1229478F378E368D358C36
:102EA30034C006C007E53025E025E024BEF582E402
:102EB3003451F583E493FE740193FFE53025E02557
:102EC300E024BAF582E43451F583C37401939FFF80
:102ED300E4939EAB07FA3395E0F9F8D007D00612D6
:102EE30052B98F378E368D358C34E53025E025E0A9
:102EF30024B8F582E43451F5837401932FFFE493EE
:102F03003EFEE56A25E024A1F582E43409F583EE6B
:102F1300F0A3EFF0E56A25E024D3F582E43409F564
:102F230083E0FEA3E0FFE56A25E024A1F582E43413
:102F330009F583E0FCA3E0C39FFFEC9EFE3395E01D
:102F43008F378E36F535F534FDAC34E47BE87A0300
:102F5300F9F81229478F378E368D358C34E56A257B
:102F6300E024D3F582E43409F583E0FEA3E0FFE532
:102F73006A25E024E5F582E43409F583E0FCA3E067
:102F8300C39FFBEC9EFAA2E713FEEB13FFEE339510
:102F9300E0FDFCE5372FFFE5363EFEE5353DFDE57B
:102FA300343C8F378E368D35F534EA3395E0F9F8B6
:102FB300AC341252B9E56A25E024B3F582E434094E
:102FC300F583EEF0A3EFF0056AE56AD394084006B3
:102FD300E4F56AC27422E56AB40103D2B422E56A55
:062FE300B40502C2B42295
:105BB000EF25E025E04420F597000043970200E53B
:105BC0009730E0FBE5965403FEAD957C00E42DFF95
:045BD000EC3EFE2287
:104E9700C268EF7052F532E53225E024A1F582E4CD
:104EA7003409F583E0FEA3E0FFC394CEEE6480945B
:104EB7007F500AEF9432EE648094805014E53225D7
:104EC700E024D3F582E43409F583EEF0A3EFF08014
:104ED70002D2680532E532B409BD2068607C097DDD
:104EE700D37B127F058051E4F532E53225E024A11A
:104EF700F582E43409F583E0FEA3E0FFC394B6EE40
:104F070064809483500AEF941AEE6480948450145A
:104F1700E53225E024E5F582E43409F583EEF0A3D4
:104F2700EFF08002D2680532E532B409BD20680D82
:104F37007C097DE57B127F177E00125590A268E4FD
:034F470033FF2213
:03211900025BD492
:105BD400A20DB392C1A20EB392C2A20FB392C3E5B7
:105BE4002225E0FFE5152405F582E43514F583EF5D
:025BF400F0229D
:10552C00496E697469616C6973696572756E67201F
:10553C00002020202020202020202020202020207F
:10554C0020005765726B7365696E7374656C6C754E
:10555C006E67002020206865727374656C6C656ED4
:10556C002020200000010002000400080010002090
:10557C000040008001000200040008001000200020
:04558C00400080005B
:1047EB00125CB7122119125A577C557D2CE4FF121B
:1047FB005A257C557D3D7F40125A25125CE1E4F52C
:10480B0031F532125CCD0532E53270020531C394BD
:10481B0064E531940040EC1257661242311250910C
:10482B0075A6EF7E0A7FCB7B047A00E4FDFC125465
:10483B00C6900ACBE0FF902120E493FEEFB5061A59
:10484B00900ACCE0FCA3E0FD902121E493FA7401E3
:10485B0093FBED6B7002EC6A6058EFF4600E900AFC
:10486B00CCE0FEA3E0FFBEFF17BFFF14750F027570
:10487B0010D075110775125E123C49E4FF125B11E3
:10488B001238BFE4F530753321753420E530C3940D
:10489B00045040AF307E00853482853383E493FD32
:1048AB00125B3A125CCD05300534E53470020533EA
:1048BB0080DA122FE97E0B7F297B027A007D2A7C1E
:1048CB00001254C6900B29E0FEA3E0FF7829A60640
:0C48DB0008A607125AE7438901025D3D60
:105C1800751420751500759DEB123DEEC2A8C28B58
:0C5C2800E4F522F521125BD4759DC0222A
:10570D0030683C7829E6FE08E6FF900B29E06E70C4
:10571D0003A3E06F6015900B29EEF0A3EFF07C0B67
:10572D007D297B027F2A7E00125590124F4A050E6D
:10573D00E50ED394084008C2691240E6E4F50EE583
:10574D001745166008E517151770021516308D03ED
:09575D00751801308DFD025D3D5F
:102FE900E4F535F536D390281F7401939536E493AB
:102FF9009535500302331990223C75F00BE53612D2
:103009002B6DE53575F00BA42583AF82F5378F3825
:10301900905D53E493FE740193FFAA06F97B01C006
:1030290003C002C001853882853783122B79C3D04A
:1030390082D083D0E0E99582EA9583500302330E6A
:10304900905D55E493FC740193FDEF2DFFEE3CFA7E
:10305900A9077B01C003C002C00185388285378377
:10306900122B79D3D082D083D0E0E99582EA958377
:10307900400302330E75A6EF8538828537837403C2
:1030890093540F122B8530A80030DF0131380231FB
:10309900A80332100432C905329A060000330E859E
:1030A9003882853783122B79AE02AF01AC02905D6D
:1030B90053E493FA740193FBC3E99BFDEC9ACD2485
:1030C90040CD3400FC853882853783740493FB3303
:1030D90095E0FA0232C4853882853783122B79AE9E
:1030E90002AF01AC02905D53E493FA740193FBC300
:1030F900E99BFDEC9ACD2440CD3400FC7B017A009C
:103109001254C6853882853783122B7989828A833E
:10311900E0FF853882853783740693FEEFC39E40AE
:103129006D740893FEEFD39E500302330E805F85C2
:103139003882853783122B79AE02AF01AC02905DDC
:1031490053E493FA740193FBC3E99BFDEC9ACD24F4
:1031590040CD3400FC7B017A001254C68538828543
:103169003783122B7989828A83E0FF8538828537F4
:1031790083740693C36480F8EF64809840107408E0
:1031890093D36480F8EF648098500302330E853836
:1031990082853783740A9389828A83F002330E8584
:1031A9003882853783122B79AE02AF01AC02905D6C
:1031B90053E493FA740193FBC3E99BFDEC9ACD2484
:1031C90040CD3400FC7B027A001254C685388285D2
:1031D9003783122B7989828A83E0FEA3E0FF853841
:1031E90082853783740593FC740693FDC3EF9DEEC6
:1031F9009C4012740793FC740893FDD3EF9DEE9CD9
:10320900500302330E8072853882853783122B79F9
:10321900AE02AF01AC02905D53E493FA740193FBE3
:10322900C3E99BFDEC9ACD2440CD3400FC7B027AA6
:10323900001254C6853882853783122B7989828A90
:1032490083E0FEA3E0FF853882853783740593FC0C
:10325900740693FDC3EF9DEC6480F8EE648098409A
:1032690018740793FC740893FDD3EF9DEC6480F800
:10327900EE648098500302330E8538828537837453
:103289000993FF740A9389828A83CFF0A3EFF080B0
:1032990074853882853783122B79AE02AF01AC026F
:1032A900905D53E493FA740193FBC3E99BFDEC9A97
:1032B900CD2440CD3400FC7B047A001254C68045ED
:1032C900853882853783122B79AE02AF01AC029023
:1032D9005D53E493FA740193FBC3E99BFDEC9ACD2A
:1032E9002440CD3400FC7B707A001254C6853882A4
:1032F900853783122B797B01853882853783740A58
:1033090093FD12537B0536E53670020535022FEE23
:013319002291
:1038BF007C557D4EE4FF125A257C557D5F7F40126B
:1038CF005A25125CE1E4F529F52A125CA17829E664
:1038DF00FF08E6900B29CFF0A3EFF0E4F535F536AE
:1038EF00E536242AFFE43535FE74292536F8E6FD42
:1038FF00125B3A125CCD0536E53670020535C3947E
:10390F0002E535940040D9E4F535F536D390281FFC
:10391F007401939536E49395355003023A43902200
:10392F003C75F00BE536122B6DE53575F00BA425C4
:10393F0083AF82F5378F38905D53E493FE74019314
:10394F00FFAA06F97B01C003C002C001853882853A
:10395F003783122B79C3D082D083D0E0E99582EAE6
:10396F0095835003023A38905D55E493FC740193AC
:10397F00FDEF2DFFEE3CFAA9077B01C003C002C08B
:10398F0001853882853783122B79D3D082D083D0AB
:10399F00E0E99582EA95834003023A3875A6EF85F0
:1039AF003882853783740393540F24FE601214609A
:1039BF002414602114605A1460372405706B800042
:1039CF00853882853783740A93FF122B7989828A0F
:1039DF0083EFF08054853882853783740993FE74A2
:1039EF000A93FF122B7989828A83EEF0A3EFF0807E
:1039FF0038853882853783740993FE740A93FFEEF6
:103A0F003395E0FDFC122B7989828A83122B138068
:103A1F0018853882853783122B797B01853882850B
:103A2F003783740A93FD1243630536E5367002053A
:103A3F003502391B905D53E493FE7401938E39F573
:103A4F003AE4F535F536D3905D557401939536E428
:103A5F009395354029E5362440FFE43535FE853A08
:103A6F0082853983E0FD125B3A053AE53A7002052B
:103A7F0039125CCD0536E53670CC053580C8025D50
:013A8F003DF9
:0E5D3D0075A6EFC28D758A06758C38D28C2241
:085D6300439104D288D2A8226A
:105CCD0075A6EF7F907E0DEF1F70011EEF4E70F7E2
:045CDD0075A6EF2297
:1053F2007B08EFF56BD2B7125459A2B633C2B7127B
:105402005459DBF1FFE56B1392B6D2B7125459C26D
:10541200B7D2B6227B08EF3392B6125459D2B712E2
:105422005459C2B7DBF1D2B6125459D2B7125459F9
:10543200A2B6C2B722D2B6D2B7125459C2B61254C9
:1054420059C2B78012C2B6125459D2B7125459D2A5
:0C545200B68004781280027807D8FE2291
:105C500053797374656D2056312E30372E312020E4
:0C5C60000042617369732020560056005A
:105A5700E4FFE4FEEF75F023A424FCF582E43409A7
:105A6700F583E5822EF582E43583F5837420F00E05
:105A7700BE23E1741A2FF8E4F60FBF03D5E4F51936
:015A870022FC
:105852008D4EEFC394405004790280027912AE0754
:10586200EF254EFDE433FCEEC39DEC6480F87480BA
:10587200985024EE540F29FDE51975F023A424FC59
:10588200F582E43409F583E5822DF582E43583F56A
:08589200837420F00E80C9228E
:105A25008C518D52EF4480FFC26F1246D3E4F5537B
:105A3500855282855183E493FF6016D26F1246D357
:105A45000552E552700205510553E553C3941040C4
:025A5500DF224E
:1056B2008A4C8B4DE51524E0F582E43514F583E040
:1056C200F54FE51524E0F582E43514F583EDF0EFAE
:1056D2004480FFC26F1246D3E4F54E854D82854C5D
:1056E20083E493FF6016D26F1246D3054DE54D70E9
:1056F20002054C054EE54EC3941040DFE51524E04B
:0B570200F582E43514F583E54FF0223A
:105989008C418D428B43EF4480FFC26F1246D3E4B2
:10599900F544E544C39543501B854282854183E024
:1059A900FF6011D26F1246D30542E54270020541EC
:0559B900054480DE2220
:105C34008C4B8D4C8F828E83122ADB8F508E4F8D2E
:0C5C44004E8C4D7F4DAD4CAC4B023F77B9
:1059BE007C5C7D50E4FF125A257C5C7D617F401239
:1059CE005A25900080E493FFE4FD1257C01246CF93
:1059DE009000811257BB1246CF900082E493FFE4F1
:0459EE00FD0257C09F
:1055F200EF60027F407C5C7D6A125A25902121E493
:1056020093FE740193FF7C007D6412288BE4FD12EB
:1056120057C01246CF902121E493FE740193FF7C80
:10562200007D6412288BAF057D011257C0C26F7FC7
:10563200C81246D39021241257BB1246CF9021257F
:105642001257BB1246CF902126E493FF7D010257E9
:01565200C097
:0557BB00E493FF7D01F5
:1057C0008F498D4AE54975F06484F54B60082430B3
:1057D000FFD26F1246D3E54975F0648485F049E540
:1057E0004975F00A84F54B7004E54A600AE54B24DC
:1057F00030FFD26F1246D3E54975F00A84E5F024F4
:0758000030FFD26F0246D316
:0446CF00D26F7F2EF9
:1046D3008F54306F5DE554122B8547198647149E1E
:1046E300471EA24723AA4714BF4719E14714E747C8
:1046F30023E8471EE9472DEA4728EB4723ED4732D6
:10470300F1472DF34719F44728FA4728FB000047E0
:1047130035E4F554801C75540380177554048012D6
:10472300755405800D75540680087554078003750C
:1047330054EEE519146042146077240260030247C3
:10474300EA306F23E51AC39440E51A540F50092445
:10475300FEF582E434098007240EF582E4340AF579
:1047630083E554F0051A22E55430E704547FF51A23
:10477300E55464147071051A22306F23E51BC3944A
:1047830040E51B540F50092421F582E4340A8007C5
:104793002431F582E4340AF583E554F0051B22E560
:1047A3005430E704547FF51BE55464147039051B3A
:1047B30022306F23E51CC39440E51C540F50092499
:1047C30044F582E4340A80072454F582E4340AF57C
:1047D30083E554F0051C22E55430E704547FF51CAF
:0847E300E554B41402051C2288
:105807008F32E50A6006125CCD125CCDE53275F089
:1058170023A424FCF582E43409F5837404F0E5320B
:1058270075F023A424FDF582E43409F583E4F0E55B
:105837003275F023A424FCF582E43409AD82FCE53B
:0B58470032904DFA93FF7B2202565373
:105CE1009009FC7404F0E4A3F07C097DFC7B227F25
:045CF10011025653F3
:10565300E50A60037F0122900100EFF0A3EBF02F36
:10566300FFE4FEEEC39B5024ED2EF582E43CF5836C
:10567300E0FA74022EF582E43401F583EAF0ED2EAC
:10568300F582E43CF583E02FFF0E80D7EFF404FFAF
:1056930074022EF582E43401F583EFF0EB2402F576
:0F56A3000A750901C29C900100E0F5997F002271
:105B620020203A20200020202E20202E202020201D
:105B7200000E0204010216020401021F1C1F1E1F56
:075B82001E1F1F1E1F1E1F46
:105AE700E4F56C7E0B7F217B01FA7D29FC1254C6FD
:105AF700900B21E0543FF0E044C0F5357D357B0144
:0A5B07007F07125A88D2690240E6B7
:1040E600E56C60030242307F367B07FD1258DBE544
:1040F60037547F900B1EF0E538543F900B1DF0E5CA
:104106003A543F900B1FF0E53B541FA3F0E536C42D
:10411600540775F00AA4FFE536540F2FF57F900B70
:104126001EE0FDC4540F75F00AA4FFAEF0ED540F67
:104136007C002FF510EC3EF50F900B1DE0FDC454EE
:104146000F75F00AA4FFED540F2FFFEC35F0FE7D3E
:104156003C122879EF2510F510EE350FF50FE539ED
:10416600540714F513306913D3E51094A0E50F94A2
:10417600054008E4F50FF510123C49900B1BE0656D
:104186000F7004A3E065106005206902D208900B49
:104196001BE50FF0A3E510F0300813AE0FFF7C000F
:1041A6007D0A12288BED4C7005A269B39209900B1B
:1041B6001AE0B5130330695FA269B3920A900B1F28
:1041C600E0FFC4540F75F00AA4FEEF540F2EF53627
:1041D600A3E0FFC4540F75F00AA4FEEF540F2EF5AA
:1041E60037E53CC4540F75F00AA4FFE53C540F2F85
:1041F600F53824D0FBE43407FAAD37AF361251292F
:104206008E118F12900B19E065376005A269B39283
:104216000B900B19E537F0900B1AE513F0E51064D7
:0B4226003C450F7005300802D27A22E0
:103C4900E57F75F00A84C454F0FFE57F75F00A84B6
:103C5900E5F04FF546AE0FAF107C007D3C12288B86
:103C69008D45E54575F00A84C454F0FFE54575F0C6
:103C79000A84EF25F0F547AE0FAF107C007D3C12AA
:103C8900288B8F45E54575F00A84C454F0FFE54556
:103C990075F00A84EF25F0F548AF12AE11125D1BDD
:103CA900EF04F549AE11AF127C017D6D12288BEF3F
:103CB90024D0F541EE3407F540E5412430FFE540D5
:103CC90034F8FE7C017D6D122879AC06AD07E5411B
:103CD9002433FFE54034F8FEEF7802CEC313CE1348
:103CE900D8F92DFFEC3EFEC3E5129FE5119E500861
:103CF900E541154170021540E5412430FFE54034A6
:103D0900F8FE7C017D6D122879AC06AD07E54124EA
:103D190033FFE54034F8FEEF7802CEC313CE13D853
:103D2900F92DFFEC3EFEC3E5129FF543E5119EF523
:103D390042E4F544E544B4010BAF41AE4012589A50
:103D49008F458003E4F545E544905B7D932545FF68
:103D5900E433FEC3E5439FE5429E4013E5439FF5E7
:103D690043E5429EF5420544E544C3940B40C5052D
:103D7900440543E5437002054274302541F5417419
:103D8900F83540F540AE42AF437C007D0A12288BDE
:103D9900EFC454F0FBAE42AF437C007D0A12288B7E
:103DA900EB2DF54AE54475F00A84C454F0FFE54467
:103DB90075F00A84EF25F0F54BAE40AF417C007DEC
:103DC9000A12288BEFC454F0FBAE40AF417C007D52
:103DD9000A12288BEB2DF54C7D467B07E4FF125A1E
:053DE90088E4F56C22E6
:105B11008F35E535543F900B21F0E0FD7F297E0064
:105B2100125B3A900B21E044C0F5357D357B017F56
:095B310007125A88D2690240E60D
:105BF6008F4BAD13124B987403254BF54BE57F3055
:105C0600E004D26D8002C26DAD10AC0FAF4B1252E4
:025C16003C222E
:10523C008F4C8C4D8D4E300C077C5B7D62025A2559
:10524C00AE4DAF4E7C007D3C12288BAD07ED75F05A
:10525C000A84E5F07B00FAED75F00A84C454F0FE84
:10526C00EB2400F550EE3AF54FAE4DAF4E7C007D81
:10527C003C12288BED75F00A8475F010A4FFAEF08B
:10528C00ED75F00A847C00EF25F0FFEC3EFEEF2577
:10529C0050F550EE354FF54F7F4F306D067C5B7DF2
:0D52AC007880047C5B7D73AB4C123F772251
:104B98008F4C8D4D300C057D03025852E54C4480F6
:104BA800FFC26F1246D3905D57E493FE740193F5EC
:104BB800828E83E075F002905D5D122B6DE493FEAA
:104BC800740193F5828E8375F003E54D122B6DE425
:104BD80093FFD26F1246D3905D57E493FE7401930E
:104BE800F5828E83E075F002905D5D122B6DE49383
:104BF800FE740193F5828E83E54D75F003A42401BC
:104C0800FFE435F0FEE5822FF582E5833EF583E487
:104C180093FFD26F1246D3905D57E493FE740193CD
:104C2800F5828E83E075F002905D5D122B6DE49342
:104C3800FE740193F5828E83E54D75F003A424027A
:104C4800FFE435F0FEE5822FF582E5833EF583E447
:104C580093FF6004D26F8004D26F7F201246D32264
:103512008F438C448D45300C077C5B7D68025A25B5
:10352200AE44AF457C017D6D12288BEF24D0F54768
:10353200EE3407F546E5472430FFE54634F8FE7CD5
:10354200017D6D122879AC06AD07E5472433FFE50E
:103552004634F8FEEF7802CEC313CE13D8F92DFF0E
:10356200EC3EFEC3E5459FE5449E5008E5471547FE
:1035720070021546E5472430FFE54634F8FE7C012B
:103582007D6D122879AC06AD07E5472433FFE54689
:1035920034F8FEEF7802CEC313CE13D8F92DFFEC28
:1035A2003EFEC3E5459FF549E5449EF548E4F54AEC
:1035B200E54AB4010BAF47AE4612589A8F4B8003CF
:1035C200E4F54BE54A905B7D93254BFFE433FEC364
:1035D200E5499FE5489E4013E5499FF549E5489E28
:1035E200F548054AE54AC3940B40C5054A0549E535
:1035F2004970020548E5434480FFC26F1246D3AECC
:1036020048AF497C007D0A12288BEF2430FFD26F2D
:103612001246D3AE48AF497C007D0A12288BED24B6
:1036220030FFD26F1246D3D26F7F2E1246D3E54AB5
:1036320075F00A842430FFD26F1246D3E54A75F042
:103642000A84E5F02430FFD26F1246D3D26F7F2E68
:103652001246D3AE46AF477C037DE812288B8F4BD0
:103662007E007C037DE8122879C3E5479FF547E594
:10367200469EF546E54B2430FFD26F1246D3AE4646
:10368200AF477C007D6412288B8F4BEF75F064A4EA
:10369200FFAEF0C3E5479FF547E5469EF546E54B8D
:1036A2002430FFD26F1246D3AE46AF477C007D0A6C
:1036B20012288B8F4BEF75F00AA4FFAEF0C3E547DB
:1036C2009FF547E5469EF546E54B2430FFD26F1243
:1036D20046D3AE46AF477C007D0A12288BED2430DC
:0736E200FFD26F1246D32254
:1048E7008F438C448D45300C057D08025852AE44E9
:1048F700AF457C007D0C12288BEF24D0F547EE34B2
:1049070007F546AE44AF457C007D0C12288BED04BD
:10491700F548E5434480FFC26F1246D3E54875F07A
:104927000A842430FFD26F1246D3E54875F00A8413
:10493700E5F02430FFD26F1246D3D26F7F2F124695
:10494700D3AE46AF477C037DE812288BAB077E00CA
:104957007C037DE8122879C3E5479FF547E5469E26
:10496700F546EB2430FFD26F1246D3AE46AF477CF5
:10497700007D6412288BAB07EB75F064A4FFAEF0E3
:10498700C3E5479FF547E5469EF546EB2430FFD242
:104997006F1246D3AE46AF477C007D0A12288BAB19
:1049A70007EB75F00AA4FFAEF0C3E5479FF547E5AF
:1049B700469EF546EB2430FFD26F1246D3AE46AF84
:1049C700477C007D0A12288BED2430FFD26F1246F8
:0249D700D322E9
:105129008F3DA905C3EB94D0EA94074009D3EB94CA
:1051390033EA94084004E4FEFF22EB2430FFEA340A
:10514900F8FE7C017D6D122879AC06AD07EB24339E
:10515900FFEA34F8FEEF7802CEC313CE13D8F92D47
:10516900F53FEC3EF53EE4FFE914FEEFC39E501116
:10517900EF905B7D93253FF53FE4353EF53E0F808B
:10518900E7E9D394024011AF03AE0212589AEF2512
:105199003FF53FE4353EF53EE53D24FFFFE434FFAE
:0F51A900FEEF253FF53FEE353EF53EFEAF3F22D0
:105D1B00EF2405FFE43EFE7C007D0712288BAF05C8
:015D2B002255
:10589A00AB07AA06EB54037035C3EB942EEA9406C1
:1058AA0050037F01227C007D64AF03AE0212288B75
:1058BA00D3ED9400EC940040037F0122AE02AF03C3
:1058CA007C017D9012288BED4C70037F01227F00B2
:0158DA0022AB
:1058DB008F3D8D3E8B3F1254377FD0125416AF3E07
:1058EB001254161254377FD1125416E53FD394013C
:1058FB00400FE4FF1253F2A83DA607153F053D806C
:0D590B00EA7F011253F2A83DA6070254479F
:105A88008F4D8D4E8B4F1254377FD0125416AF4D19
:105A9800125416E54F6011E54F6012A84EE6FF124A
:105AA8005416154F054E80EFAF4E12541602544748
:105D2C0020203A202020002D2D3A2D2D000015305A
:015D3C004521
:10331A008B498A4A894B8C4C8D4D755180E4F54E08
:10332A00E51314F550E54EC39407505EE550940634
:10333A004003755006E4F54FE55075F008A4FFAE5A
:10334A00F0AB49254BF9E54A3EFA7C00E9254FF9ED
:10335A00EC3AFA122821C394605024E54B2438F938
:10336A00E4354AFAE92FF9EA3EFA7E00E9254FF9EF
:10337A00EE3AFA122821F551054FE54FB408B9E59E
:10338A005130E706054E1550809BE55130E706752A
:10339A00510302350FE510254DF553E50F354CF570
:1033AA0052E4F54E851350E55075F008A4FFAEF0CF
:1033BA00AB49254BF9E54A3EFA7C00E9254EF9EC82
:1033CA003AFA122821C39460400302347CE54B2464
:1033DA0038F9E4354AFAE92FF9EA3EFA7E00E92596
:1033EA004EF9EE3AFA1228216403602BE55075F083
:1033FA0008A4254BF9E54A35F0FA7E00E9254EF98D
:10340A00EE3AFA122821FF7D0F122879D3EF95534D
:10341A00EE95525052802DE55075F008A4AB49251F
:10342A004BF9E54A35F0FA7E00E9254EF9EE3AFA0B
:10343A00122821FF7C007D0F122879D3EF9510EE18
:10344A00950F5023E54B2438F9E4354AFAE55075CF
:10345A00F008A429F9EA35F0FA7E00E9254EF9EEDA
:10346A003AFA122821F551054EE54E640860030226
:10347A0033B1D3E553949FE5529405500302350FB7
:10348A000550E550D394064003E4F5507460255383
:10349A00F55374FA3552F552E4F54EE55075F008D5
:1034AA00A4AB49254BF9E54A35F0FA7E00E9254EE9
:1034BA00F9EE3AFA122821FBFF7C007D0F122879D7
:1034CA00D3EF9553EE9552503CEBC394605036AB14
:1034DA0049E54B2438F9E4354AFAE55075F008A471
:1034EA0029F9EA35F0FA7E00E9254EF9EE3AFA12A0
:1034FA002821FF64016004EFB402028F51054EE5F2
:08350A004E64087096AF5122D7
:104490008B498A4A894BAB4CAA4DA94E748012288D
:1044A00067E4F54F851350E55075F008A4AB492536
:1044B0004BF9E54A35F0FA7E00E9254FF9EE3AFA74
:1044C000122821FBFF7C007D0F122879D3EF951075
:1044D000EE950F4057EB9460505DAB49E54B2438A7
:1044E000F9E4354AFAE55075F008A429F9EA35F0FF
:1044F000FA7E00E9254FF9EE3AFA122821AB4CAAD0
:104500004DA94E122867E55075F008A4AB49254B1C
:10451000F9E54A35F0FA7E00E9254FF9EE3AFA124C
:104520002821FF1228798E518F52800B054FE54FBD
:10453000640860030244A7AB4CAA4DA94E1228217F
:1045400030E7530550E550D394064003E4F550E5B9
:104550005075F008A4AB49254BF9E54A35F0FA90BF
:10456000003812283AAB4CAA4DA94E122867AB4925
:10457000AA4AA94B75F008E550A4F58285F083128C
:10458000283AFF7E007C007D0F122879EF24A0F5E9
:1045900052EE3405F551AB4CAA4DA94E12282170AC
:1045A0000B740312286775510B7552B8AE51AF5298
:0145B00022E8
:1036E9008B498A4A894BE4F54D754E60754F10F543
:1036F9004CE51375F008A4FFAEF0AB49254BF9E58D
:103709004A3EFA7C00E9254CF9EC3AFA122821C321
:1037190094105040E54B2438F9E4354AFAE92FF979
:10372900EA3EFA7E00E9254CF9EE3AFA122821B46C
:103739000322E51375F008A4254BF9E54A35F0FA9B
:103749007E00E9254CF9EE3AFA122821FFD3954D6E
:1037590040028F4DE51375F008A4FFAEF0AB492583
:103769004BF9E54A3EFA7C00E9254CF9EC3AFA12A4
:103779002821C39410404CE54B2438F9E4354AFA22
:10378900E92FF9EA3EFA7E00E9254CF9EE3AFA12F8
:1037990028216403602DE51375F008A4254BF9E58C
:1037A9004A35F0FA7E00E9254CF9EE3AFA12282159
:1037B900FFC3954E500D8F4EE54E954F4005E54E92
:1037C90004F54FAB49E54B2438F9E4354AFAE513DA
:1037D90075F008A4FFAEF029F9EA3EFA7C00E92564
:1037E9004CF9EC3AFA122821B4031CE54B2FF9E500
:1037F9004A3EFA7E00E9254CF9EE3AFA122821FFF1
:10380900D3954F40028F4F054CE54C640860030285
:1038190036FAE51304F550D394064003E4F550E471
:10382900F54CE55075F008A4FFAEF0AB49254BF90E
:10383900E54A3EFA7C00E9254CF9EC3AFA122821CE
:10384900C39410502AE54B2438F9E4354AFAE92F94
:10385900F9EA3EFA7E00E9254CF9EE3AFA122821F6
:10386900B40305754F608007054CE54CB408B3C235
:1038790068AF4D7E007C007D0F122879C3E5109F4B
:10388900E50F9E4002D268AF4E7E007C007D0F128C
:103899002879C3E5109FE50F9E4002C268AF4F7EAD
:1038A900007C007D0F122879C3E5109FE50F9E402B
:0638B90002D268A26822A1
:10537B008B398A3A893B8D3CC268E4F53EE4F53DB6
:10538B00E53E75F008A4FFAEF0AB39253BF9E53AE5
:10539B003EFA7C00E9253DF9EC3AFA122821D39428
:1053AB00605020E53B2438F9E4353AFAE92FF9EA65
:1053BB003EFA7E00E9253DF9EE3AFA122821D39404
:1053CB00034004D2688007053DE53DB408B2206870
:1053DB0007053EE53EB407A530680BAB39AA3AA9E1
:0753EB003BAD3C12436322BD
:104363008B3F8A4089418D42E4F544E4F543E544BB
:1043730075F008A4FFAEF0AB3F2541F9E5403EFAE6
:10438300AD437C00E92DF9EC3AFA7460122867AB6F
:104393003FE5412438F9E43540FAE92FF9EA3EFADA
:1043A300E92DF9EC3AFAE41228670543E543B4082A
:1043B300BD0544E544B407B3E542700302448FE40A
:1043C300F543D390223A7401939543E493940050B8
:1043D3000302448F75F005E54390216D122B6DAFF9
:1043E300828583458F46E4936542600302447DF5ED
:1043F30044854682854583740193FD7C0074017E68
:1044030000A844088005C333CE33CED8F9FFEE5C51
:10441300FEEF5D4E6057854682854583740393FDA9
:10442300E54475F008A4AB3F2541F9E54035F0FAC2
:104433007402937E0029F9EE3AFAED122867854655
:1044430082854583740493FDAB3FE5412438F9E449
:104453003540FAE54475F008A429F9EA35F0FA7411
:1044630002937E0029F9EE3AFAED1228670544E536
:1044730044640760030243F4800D854682854583C7
:0D448300E493D39542500505430243C52242
:10545E008F458D46300C067C5D7D2C8057E546C30E
:10546E009460504AE5461313543F754700F548D3F0
:10547E009409E54794004019E5489414E5479400D3
:10548E00500474068002740C2548F548E43547F53F
:10549E0047E548754800F547E5465403905D399356
:1054AE004248E47F477C5B7D78AB45023F777C5D6D
:0854BE007D33AF45125A25228F
:1049D9008F458D467D10125852300C03024AC0E4AF
:1049E900F547E5454480FFC26F1246D3E54670039B
:1049F900024AC020E003024AB5905D57E493FE7471
:104A09000193F5828E83E075F002905D5D122B6D46
:104A1900E493FE740193F5828E8375F003E54712E2
:104A29002B6DE493FFD26F1246D3905D57E493FE4A
:104A3900740193F5828E83E075F002905D5D122B0F
:104A49006DE493FE740193F5828E83E54775F00357
:104A5900A42401FFE435F0FEE5822FF582E5833ECB
:104A6900F583E493FFD26F1246D3905D57E493FE2A
:104A7900740193F5828E83E075F002905D5D122BCF
:104A89006DE493FE740193F5828E83E54775F00317
:104A9900A42402FFE435F0FEE5822FF582E5833E8A
:104AA900F583E493FF6005D26F1246D30547E546C7
:084AB900C313F5460249F52282
:104FF3008B4D8A4E894F8D50E4F552E55175F0087B
:10500300A4AB4D254FF9E54E35F0FA7E00E9255264
:10501300F9EE3AFA122821FDE55075F008A4254F60
:10502300F9E54E35F0FA7E00E92552F9EE3AFA1227
:1050330028216D6002C322AB4DE54F2438F9E435D6
:105043004EFAE55175F008A429F9EA35F0FA7E0025
:10505300E92552F9EE3AFA122821FDE54F2438F9F1
:10506300E4354EFAE55075F008A429F9EA35F0FA6B
:105073007E00E92552F9EE3AFA1228216D6002C347
:0E508300220552E55264086003024FFED3225C
:104D29008E458F468D478B48AF477401A807088089
:104D390002C333D8FCF45248E5487003024DE1FF41
:104D4900125B898F4A7401A807088002C333D8FC13
:104D5900F45248E4F549E549C3940850DB85468295
:104D690085458375F008E547122B6DE5822549F5E0
:104D790082E43583F583E0FF85468285458375F0B6
:104D890008E54A122B6DE5822549F582E43583F55C
:104D990083EFF0E5462438F582E43545F58375F06F
:104DA90008E547122B6DE5822549F582E43583F53F
:104DB90083E0FFE5462438F582E43545F58375F04F
:104DC90008E54A122B6DE5822549F582E43583F51C
:094DD90083EFF00549024D5F2251
:105B8900AD07E4FC74017E00A804088005C333CE88
:105B990033CED8F9FFEDFBEF5B7009ECC3940750E6
:075BA900030C80E0AF0422B1
:104C68008F458B468A478948E545C3940750107499
:104C780001A807088002C333D8FCF549024D267401
:104C8800FA2545F545E4F54AF54BF54CE4F549E5D3
:104C98004C04FFEFC394075031AB46AA47A9488F8D
:104CA80051AD4C124FF3501FE549700EAE4C04A89D
:104CB80006088002C333D8FCF5497401A8070880A8
:104CC80002C333D8FC42490F80C9E5496006054B49
:104CD800424A800FAF4C7401A807088002C333D83A
:104CE800FC424AE54CC39407501A74017E00A84C54
:104CF800088005C333CE33CED8F9FFEF554A600498
:104D0800054C80DFE54BC39545500AE54CC3940735
:104D18005003024C94E54B65456003E4F549AF49FF
:014D28002268
:103A90008E458F468D47E4F548E5462438F582E4A7
:103AA0003545F58375F008E547122B6DE58225480D
:103AB000F582E43583F583E0701E85468285458373
:103AC00075F008E547122B6DE5822548F582E4354F
:103AD00083F5837460F0803D85468285458375F06B
:103AE00008E547122B6DE5822548F582E43583F51C
:103AF00083E0B46020E5462438F582E43545F5835B
:103B000075F008E547122B6DE5822548F582E4350E
:103B100083F583E4F00548E54864086003023A99B8
:103B2000E4F548E5485401F549E549C394074003E5
:103B3000023C3DE5492401FFE433FE85468285458C
:103B40008375F008E547122B6DE5822FF582E5833A
:103B50003EF583E0F985468285458375F008E547A3
:103B6000122B6DE5822549F582E43583F583E0FD6E
:103B7000E9C39D4003023C368D4A854682854583D4
:103B800075F008E547122B6DE5822549F582E4358D
:103B900083F583E9F085468285458375F008E5471E
:103BA000122B6DE5822FF582E5833EF583E54AF021
:103BB000E5462438F582E43545F58375F008E54798
:103BC000122B6DE5822549F582E43583F583E0F516
:103BD0004AE5492439FFE433FE85468285458375ED
:103BE000F008E547122B6DE5822FF582E5833EF55F
:103BF00083E0FFE5462438F582E43545F58375F02A
:103C000008E547122B6DE5822549F582E43583F5F9
:103C100083EFF0E5492439FFE433FE85468285458C
:103C20008375F008E547122B6DE5822FF582E58359
:103C30003EF583E54AF005490549023B290548E57B
:093C40004864076003023B2322E3
:1059F2008E448F45AE04AF05AA06A9077B01E4FFDA
:105A0200EFC39470501C854582854483E012286759
:105A12000F0545E54570020544740129F9E43AFA97
:035A220080DE2201
:10509100C276C275E4900B0FF0A3F0C2C4E51524EB
:1050A10012F582E43514F583E04404F0E4F5351299
:1050B1005CCD0535E535C3946440F4E4900B15F0FF
:1050C100A3F0A3F0A3F0125952900B11E0FDB44FDD
:1050D10026D276900B13E075F00AA4FBAAF0900B90
:1050E10012E075F064A42BFFE5F03AFE900B14E09A
:1050F1007A002FFFEA8028EDB44C2CD275900B1367
:10510100E075F00AA4FDACF0900B12E075F064A418
:105111002DFFE5F03CFE900B14E07C002FFFEC3EF0
:08512100900B0FF0A3EFF02248
:10595200C2C7125CF5125CF5E4F53674152536F50E
:1059620082E4340BF583E0FF12591874112536F5E1
:1059720082E4340BF583EFF0125CF50536E536C3AD
:07598200940440D7D2C722B4
:105918008F37E4F539F538E53730E704D2C6800229
:10592800C2C6E53725E0F537D2C4125455E5392506
:10593800E0F53930C503433901C2C412545505385E
:0A594800E538C3940840D0AF3922BF
:105CF50075A6EF7F487E01EF1F70011EEF4E70F70E
:045D050075A6EF226E
:103F7700EFF8EB4480FFC26F1246D38D828C83C269
:103F870005C207E493FAA3E493FEA3C206EA30E668
:103F970002D20630E20302403530E009E630E70599
:103FA700D2051240847400F561F562F563F5647516
:103FB7006501F566F567F568E82EF8EEFB1812401F
:103FC70040DBFA300503124084E493FBFEA3E4933D
:103FD700FCA3E493FD300516EBFF1240D1700BED07
:103FE700C39BB4FF0280031B80F0EBFEEFFBEEC325
:103FF7009B7006EA20E102D207EDC39BB4FF02D211
:1040070006701A7F20200C10EA20E30C7F3A20E488
:10401700077F2E20E5027F2CD26F1246D3124093E2
:10402700EBC39C6008147002D2061B80C122796121
:1040370008E6F70918E6F78090E6FC7F08EC13FC22
:10404700501CE5612565D4F561E5623566D4F562F6
:10405700E5633567D4F563E5643568D4F564E565EC
:104067002565D4F565E5663566D4F566E567356794
:10407700D4F567E5683568D4F568DFC122EEFBE85B
:104087002E14F8C3E496F618DBFA082230071DC28F
:10409700073005107F20200C027F2DC205D26F123A
:1040A70046D380087414FFC26F1246D31240D170F2
:1040B7000A2006077F20D26F0246D3D2062430306B
:1040C7000C027420FFD26F0246D3EB14C3134007D0
:0F40D7002461F8E6540F222461F8E654F0C42265
:0E5D4B006432211914110E0D0210050B0715FC
:10D8F400D222D265C266C267C25FC264C259C26222
:10D90400C25CC25BC260C258C25DC261C25EC26315
:10D91400900195740AF0E4900721F0A3F09001B50A
:10D92400F0A3F0900190F09001F1F0900191F0904B
:10D934000212E0FF900194F0E49001B9F0BF0D0CE5
:10D94400900725740EF0A37410F08007E490072567
:10D95400F0A3F0900194E0B40E0C90073D740EF027
:10D96400A37410F08007E490073DF0A3F090018ABF
:10D97400741EF0E49001EDF0A3F09001C9F0A3F05F
:10D984009009C5F0A374C8F09001DF122B1F0000AA
:10D9940000009001D1122B1F00000000E4900188C8
:10D9A400F0A3F0900735F0A3F09001BBF0A3F09042
:10D9B40009BFE0FFA3E0900186CFF0A3EFF0E4906D
:10D9C40001ADF0A3F0900730F0A3F090072CF0A382
:10D9D400F090023AE0FF7E007C047D3812287990B2
:10D9E40001E9EEF0A3EFF0E49001B7F0900724749E
:10D9F400FEF0E490019BF0A3F09001F67402F0A312
:10DA04007458F0A37424F0900398E0900196F0E425
:10DA14009001BAF090018F741EF0E49001EFF0A32E
:10DA2400F09001CCF0A3F09009C7F0A374C8F09073
:10DA340001E3122B1F000000009001D5122B1F00E0
:10DA4400000000E490018DF0A3F0900739F0A3F0FA
:10DA54009001BDF0A3F09009C1E0FFA3E090018B19
:10DA6400CFF0A3EFF0E49001AFF0A3F0900733F010
:10DA7400A3F090072EF0A3F09003C0E0FF7E007C9B
:10DA8400047D381228799001EBEEF0A3EFF0E490D6
:10DA940001B8F090072774FEF0E490019DF0A3F024
:10DAA4009002037402F0A37458F0A37424F0E49079
:10DAB40001C5F0A3F0A3F0A3F0900184F0A3F090CB
:10DAC4000729F0A3F0900180F0A3F0900195E024E1
:10DAD400E0FEE434019001B3F0A3CEF0E49001D968
:10DAE400F09001E7F0A3F09001DDF0A3F09007457A
:10DAF400F0A3F0900192F0A3F09001ABF0A3743284
:10DB0400F0E4900728F090072B74FEF0E49001A352
:10DB1400F0A3F0900182F0A3F09007237448F0E49E
:10DB240090071BF0A3F090019F122B1F0000000030
:10DB3400E4900732F012DD1A12E30A12C948025DBA
:01DB4400637D
:10D00E00900195E0600214F090073DE07002A3E0FD
:10D01E00600A90073D74FFF5F0122916900725E07F
:10D02E007002A3E0600A90072574FFF5F01229162E
:10D03E009001B5E07002A3E0600A9001B574FFF5AF
:10D04E00F012291690019BE07002A3E0600A900195
:10D05E009B74FFF5F012291690019DE07002A3E07B
:10D06E00600A90019D74FFF5F0122916900180E080
:10D07E007002A3E0600A90018074FFF5F012291689
:10D08E009001B3E07002A3E0600A9001B374FFF563
:10D09E00F01229169001E7E07002A3E0600A9001F9
:10D0AE00E774FFF5F01229169001DDE07002A3E09F
:10D0BE00600A9001DD74FFF5F0122916900192E0DE
:10D0CE007002A3E0600A90019274FFF5F012291627
:10D0DE009001A3E07002A3E0600A9001A374FFF533
:10D0EE00F0122916900182E07002A3E0600A90010E
:10D0FE008274FFF5F01229169001D9E0600214F047
:10D10E00205D07E4900188F0A3F0900188E07002A2
:10D11E00A3E0600A90018874FFF5F0122916205ED4
:10D12E0007E490018DF0A3F090018DE07002A3E072
:10D13E00600A90018D74FFF5F0122916E510B4D037
:10D14E000EE50FB40209E57FD3941450028001C39B
:10D15E00923F307A05C27A435C38E4F53075F002BE
:10D16E00E530900765122B6DE0FEA3E064024E7071
:10D17E0023E530B40107900196E0FF8005900194FD
:10D18E00E0FFBF0A0F75F002E530900757122B6DC6
:10D19E00E4F0A3F00530E530B403C2900721E0704F
:10D1AE0002A3E0600D90072174FFF5F0122916021C
:10D1BE00D2529006F6E0FEA3E0FF7C007D0C122812
:10D1CE008BEF24D0FFEE3407AB07FA9006F6E0FEA5
:10D1DE00A3E0FF7C007D0C12288BED04FD7F011275
:10D1EE005129D3EF9512EE951150599007217404E1
:10D1FE00F0A374B0F0E4F53075F002E530900765F9
:10D20E00122B6DE0FEA3E04E7033744E2530F58286
:10D21E00E43407F5837402F0F5F0E530900751120F
:10D22E002B6D7402F0A3741CF075F002E5309021A2
:10D23E005B122B6DE493425B740193425C0530E507
:10D24E0030B403B49001F1E0701020710D20780A13
:10D25E00900190E07004A3E06004D2318002C231EC
:10D26E0020080302D31DC2089001C9E07002A3E09A
:10D27E00601E9001C974FFF5F01229169001EDE0C1
:10D28E007002A3E0600A9001ED74FFF5F01229160A
:10D29E009001CCE07002A3E0601E9001CC74FFF50B
:10D2AE00F01229169001EFE07002A3E0600A9001DF
:10D2BE00EF74FFF5F012291630550312E5D63075CE
:10D2CE0009900B07E0D39405402B30372890070CBC
:10D2DE00E004F0C3943C401DE024C4F09007081213
:10D2EE002ADBEF2401FFE43EFEE43DFDE43CFC902E
:10D2FE000708122B1330091CC209307509900B0751
:10D30E00E0D39405400E7E077F087D05025AB830A3
:05D31E000A02C20A2210
:10E5D600E5136406707C900B20E0FF64036005EF92
:10E5E6006410706E900B20E0FFC4540F75F00AA4FF
:10E5F600FEEF540F2E14FF900B1FE0FEC4540F7550
:10E60600F00AA4FDEE540F2DFEEF905B7D93C39EA2
:10E61600C39407503D900B20E0B4030FE5106478D7
:10E62600450F7007F50F7510B48024900B20E0B4E9
:10E636001020E5106477450F7003D256223056122B
:10E64600E51064B4450F700AC256F50F75107812BE
:03E656003C49221A
:10DD1A0090098DA3E0FF20E604D218800D9009FB3C
:10DD2A00E030E604C2188002D218C25AEF20E31289
:10DD3A00D219900194E0FF64096049EF6410704CB5
:10DD4A008042C2199009FBE020E32C900194E0C3C1
:10DD5A0094075038900716E0FF7008900212740971
:10DD6A00F08029EFB401089002127410F0801DEFC0
:10DD7A00B40219D25A8015900194E0FF6409600434
:10DD8A00EFB41008900213E0900212F090098DA3EC
:10DD9A00E0FF20E704D221800D9009FBE030E70480
:10DDAA00C2218002D221EF20E512D223900196E00F
:10DDBA00FF64096049EF6410704C8042C2239009E5
:10DDCA00FBE020E52C900196E0C3940750389007B9
:10DDDA0017E0FF70089003987409F08029EFB401E6
:10DDEA00089003987410F0801DEFB40219D25A807B
:10DDFA0015900196E0FF64096004EFB410089003DF
:10DE0A0099E0900398F090098DA3E0FF20E104D2F5
:10DE1A002B800D9009FBE030E104C22B8002D22B4B
:10DE2A00EF20E404D25F800D9009FBE030E404C2E5
:10DE3A005F8002D25F90098DA3E0FF20E004D23216
:10DE4A00800D9009FBE030E004C2328002D232EF4A
:10DE5A00A2E2B39233E49001F1F0900195E07035BB
:10DE6A0090098DE030E01890021FE0B4010B3021D8
:10DE7A000E9001DAE0640160069001F1740AF090F4
:10DE8A00098EE030E20F20320620760920750690CE
:06DE9A0001F1740BF022FF
:10E30A0090021EE024FFFF90021DE034FFFE9002FF
:10E31A001BE0FCA3E0FDD39FEC9E4014ED2401FE1C
:10E32A00E43CA3F0A3CEF07E027F1D7D02125AB810
:10E33A009003A4E024FFFF9003A3E034FFFE9003C0
:10E34A00A1E0FCA3E0FDD39FEC9E4014ED2401FE66
:10E35A00E43CA3F0A3CEF07E037FA37D02125AB859
:10E36A00202524E49001DAF0900714E020E12790B8
:10E37A00097FE07021900714E04402F07E077F13C2
:10E38A007D02125AB8800F9003A5E09001DAF0904E
:10E39A000714E054FBF0203218900718E06003B429
:10E3AA00030F9007187402F07E077F187D01125A36
:10E3BA00B8301B07900224E0FF80027F009001B171
:10E3CA00EFF03025079003AAE0FF80027F0090015A
:04E3DA00B2EFF0228C
:10C94800D268E55B30E10302CAEE900983E0600338
:10C9580002CAEE900194E0FF900212E0FE6F7003AD
:10C9680002CA39E49001C9F0A3F0EEB40817EFC485
:10C9780054F0FF9001B9E04F900214F07E027F144A
:10C988007D01125AB8900212E0FFB40E0A90073DDA
:10C99800740EF0A37410F0EFB40D0A900725740E0E
:10C9A800F0A37410F0EFC3940C4026EF94105021BC
:10C9B800EFB40D15E4F522C21FC220C229C22A9085
:10C9C80001B7F0A3F0900728F0306505900398EFC1
:10C9D800F0900194E0B40B14E490021BF0A3F0A3D0
:10C9E800F0A3F07E027F1B7D04125AB8900194E0F8
:10C9F800FFC3940C4019EF94105014900212E0C336
:10CA0800940C500B306508900399E0900398F090CF
:10CA18000194E0FFD394075005900213EFF09002C1
:10CA280012E0900194F07E027F127D02125AB8C281
:10CA380068D390021CE0951290021BE09511501FDC
:10CA4800C390021EE0951290021DE09511401090CF
:10CA58000194E094075017900212740BF0800F9025
:10CA68000194E0B40B08900213E0900212F09007D2
:10CA78003DE07002A3E0700F900194E0B40E0890BE
:10CA88000213E0900212F0900725E07002A3E07014
:10CA98000F900194E0B40D08900213E0900212F098
:10CAA80030470A9001B3E07002A3E0703730762572
:10CAB8009001B5E07002A3E0701220370F900B25AB
:10CAC800E030E308900212740FF08018900194E0AF
:10CAD800B40F118007900194E0B40F08900213E09E
:10CAE800900212F0D265E55B30E20302CC1990099E
:10CAF80083E0600302CC19900196E0FF900398E070
:10CB0800FE6F700302CBAAE49001CCF0A3F0EEB460
:10CB18000817EFC454F0FF9001BAE04F90039AF061
:10CB28007E037F9A7D01125AB8900398E0FFC39460
:10CB38000C400FEF9410500A306807900212EFF083
:10CB4800C265900196E0B40B14E49003A1F0A3F041
:10CB5800A3F0A3F07E037FA17D04125AB89001963A
:10CB6800E0FFC3940C401BEF94105016900398E01C
:10CB7800C3940C500D30680A900213E0900212F032
:10CB8800C265900196E0FFD394075005900399EF92
:10CB9800F0900398E0900196F07E037F987D021252
:10CBA8005AB8D39003A2E095129003A1E0951150D2
:10CBB8001FC39003A4E095129003A3E095114010C1
:10CBC800900196E094075017900398740BF0800F2B
:10CBD800900196E0B40B08900399E0900398F090C8
:10CBE800073DE07002A3E0700F900196E0B40E08D4
:10CBF800900399E0900398F0900725E07002A3E075
:10CC0800700F900196E0B40D08900399E090039896
:10CC1800F0900194E0FFB40C03D38001C39242EF7B
:10CC2800B40D03D38001C39244900194E0FFB40E85
:10CC380003D38001C39240EFB40F03D38001C392A2
:10CC4800432042033044067E007F0180047E007F3B
:10CC580000EE4F24FFB39241307528900AEFE0FFB1
:10CC6800C3648094765004D23D8002C23D203703CD
:10CC780030430CEFB46404D23E800CC23E8008C23C
:10CC88003E8004C23DC23E302E03204E03303E0398
:10CC9800D38001C3925D302E03205003303E03D36E
:10CCA8008001C3925E203609204306203D033040B0
:08CCB80003D38001C39258224E
:10E6BB00122C5390098DE0FCA3E0FD9001A9ECF026
:10E6CB00A3EDF0304719900B22E0FFA3E09009B5C2
:10E6DB00CFF0A3EFF02070079001AAE054FDF0EC0F
:10E6EB0030E007E49009C3F0A3F090098EE030E22C
:09E6FB0007E49009B7F0A3F02236
:10B96900303A25900610E024E2FF90060FE034FFFC
:10B97900FEC39009C4E09FEE6480F89009C3E064B7
:10B9890080985021C23A801D90060FE0FEA3E0FF87
:10B99900D39009C4E09FEE6480F89009C3E0648005
:10B9A900984002D23A20320302BA46203A0302BA38
:10B9B90046303B259001A6E02414FF9001A5E03410
:10B9C90000FED39009B8E09FEE6480F89009B7E0D3
:10B9D9006480984021C23B801D9001A5E0FEA3E050
:10B9E900FFC39009B8E09FEE6480F89009B7E0645E
:10B9F90080985002D23B303C259001A8E02414FFE6
:10BA09009001A7E03400FED39009B8E09FEE64806E
:10BA1900F89009B7E06480984027C23C80239001E0
:10BA2900A7E0FEA3E0FFC39009B8E09FEE6480F8A9
:10BA39009009B7E06480985008D23C8004C23BC2A8
:10BA49003C30324730362590060AE024E2FF900662
:10BA590009E034FFFEC39009B8E09FEE6480F890D6
:10BA690009B7E06480985025C2368021900609E024
:10BA7900FEA3E0FFD39009B8E09FEE6480F8900937
:10BA8900B7E06480984006D2368002C236301A6820
:10BA9900301C36900232E02414FF900231E0340069
:10BAA900FED39009C4E09FEE6480F89009C3E06476
:10BAB9008098406FD39009C6E0943C9009C5E06432
:10BAC900809480405EC21C805A900231E0FEA3E05F
:10BAD900FFC39009C4E09FEE6480F89009C3E06455
:10BAE900809840109009C6E094329009C5E06480BE
:10BAF9009480502FD21C802B301C15D39009C6E09E
:10BB090094649009C5E0648094804017C21C801336
:10BB1900C39009C6E094329009C5E06480948050CE
:10BB290002D21C301858301955301D2DD39009C038
:10BB3900E094649009BFE064809480500302BBE9FB
:10BB4900D39009BAE094649009B9E0648094805074
:10BB59000302BBE9C21D02BBE9C39009C0E09432EC
:10BB69009009BFE06480948040109009BAE0943253
:10BB79009009B9E0648094805066D21D80623018C3
:10BB89002D301D15D39009C0E094649009BFE0647D
:10BB9900809480404BC21D8047C39009C0E0943215
:10BBA9009009BFE0648094805036D21D80323019EC
:10BBB9002D301D15D39009BAE094649009B9E06459
:10BBC900809480401BC21D8017C39009BAE094324B
:10BBD9009009B9E0648094805006D21D8002C21D8C
:10BBE900305D1120610EC266900188741CF0A37447
:10BBF90020F0801A900188E07002A3E06004C26618
:10BC0900800C201C03301D03D38001C39266A25D02
:10BC1900926120240302BCDA30256F30263D90035F
:10BC2900B8E02414FF9003B7E03400FED39009C4B0
:10BC3900E09FEE6480F89009C3E0648098500302A5
:10BC4900BD05D39009C8E0943C9009C7E06480948D
:10BC590080500302BD05C22602BD059003B7E0FE70
:10BC6900A3E0FFC39009C4E09FEE6480F89009C384
:10BC7900E064809840109009C8E094329009C7E0C8
:10BC8900648094805076D22680723026259003B83D
:10BC9900E02414FF9003B7E03400FED39009C4E018
:10BCA9009FEE6480F89009C3E0648098404EC226F4
:10BCB900804A9003B7E0FEA3E0FFC39009C4E09F68
:10BCC900EE6480F89009C3E0648098502FD22680F2
:10BCD9002B302615D39009C8E094649009C7E06415
:10BCE9008094804017C2268013C39009C8E094321B
:10BCF9009009C7E0648094805002D2262021030273
:10BD0900BD8930234E302726D39009C2E094649030
:10BD190009C1E0648094804069D39009BEE09464CD
:10BD29009009BDE0648094804058C2278054C39034
:10BD390009C2E094329009C1E06480948040109077
:10BD490009BEE094329009BDE0648094805033D2FA
:10BD590027802F302715D39009C2E094649009C138
:10BD6900E064809480401BC2278017C39009C2E019
:10BD790094329009C1E0648094805006D2278002F1
:10BD8900C227305E1120630EC26790018D741CF0CA
:10BD9900A37420F0801A90018DE07002A3E0600482
:10BDA900C267800C202603302703D38001C3926722
:10BDB900A25E9263302F15C39009B6E0946490098E
:10BDC900B5E0648094804017C22F8013C39009B6F0
:10BDD900E094329009B5E0648094805002D22F300B
:10BDE9003524C39009B8E094649009B7E06480945D
:10BDF9008040369009B4E094649009B3E06480947B
:10BE0900804026C23522C39009B8E094329009B720
:10BE1900E06480948040109009B4E094329009B3B2
:0ABE2900E0648094805002D23522BC
:109BE100900194E014601214601A240270217546E9
:109BF1000175470275483C801F754601754702751E
:109C010048AC801475460175470375481C80097579
:109C11004600754700754800E547454845467003CD
:109C2100029DC3900233E07003029DC3754C007521
:109C31004D00754E45AB46AA47A948124490900A7B
:109C4100D1EEF0A3EFF09001C9E0FEA3E0FF4E607A
:109C51001BE5102FFFE50F3EFE900AD1E06E700369
:109C6100A3E06F6007E49001C9F0A3F09001C9E09F
:109C71007002A3E06003029DD0E54564017078ABFA
:109C810046AA47A948FDFC12331AEF24FD600302DE
:109C91009DBD900233E0FF900210E0FD3395E0FCA2
:109CA100900216E02DFD900215E03CFC9001B1E020
:109CB100700790021FE0B4010A9009C5E0FAA3E021
:109CC100FB80047A007B9612E4A3900AD3EEF0A302
:109CD100EFF02510FFE50F3EFE900AD1E0FCA3E076
:109CE100FDC39FEC9E500DC3ED9510FEEC950FA3A7
:109CF100F0A3CEF0029DAAE54564026003029DBD7A
:109D0100AB46AA47A948FDFC12331AEF146024247C
:109D1100FE6003029DBB9001B1E0700790021FE05D
:109D2100B4010A9009C5E0FEA3E0FF80327E007F06
:109D310096802C9001B1E0700790021FE0B4010AF7
:109D41009009C5E0FEA3E0FF8015900210E0FF330B
:109D510095E0FE900216E02FFF900215E03EFE9086
:109D61000AD5EEF0A3EFF0900233E0FF900210E08D
:109D7100FD3395E0FC900218E090021712E49690F2
:109D81000AD3EEF0A3EFF02510FFE50F3EFE900A97
:109D9100D1E0FCA3E0FDC39FEC9E500DC3ED9510F7
:109DA100FEEC950FA3F0A3CEF0900AD3E0FFA3E061
:109DB1009001EDCFF0A3EFF080158000E49001ED6C
:109DC100800AE49001EDF0A3F09001C9F0A3F090B6
:109DD10001B9E0F544900194E0122B859E11009E9B
:109DE10011019E11029E4E039E5D049E6C059E769E
:109DF100069F13079EB7089E6C099E8F0A9E6C0BE7
:109E01009F130C9F130D9EB20E9E761000009F2093
:109E1100AB46AA47A9489001EDE0FCA3E0FD12334F
:109E21001A9001B9EFF0BF0106E5446403600790A1
:109E310001B9E0B4020F9001EDE0FFA3E09001C988
:109E4100CFF0A3EFF03048569001B98049D21A9073
:109E510001B97401F0304802803C8042D21A90016D
:109E6100B97402F0304802802D8033C21A9001B9D2
:109E71007403F08022D21AE49001B9F07B013048DA
:109E8100067A02793C801E7A057927E48017E490EE
:109E910001B9F0304808E09001DBF0029F207B011E
:109EA1007A057927E4FDFC12331A9001DBEFF0808B
:109EB1006E9001B98057C21A9001B97401F09002F5
:109EC10014E0FFC4540F14600F14601424027020B6
:109ED1007B017A02793C800E7B017A0279AC8006A3
:109EE1007B017A03791CE4FDFC12331A8F4580084B
:109EF100900214E0540FF545900214E0540F6545AB
:109F01006008900213E0900212F09001DB7401F0FE
:109F1100800DD21AE49001B9F09001DB7403F09046
:109F2100021FE0B40216E54745484546601AAB46B4
:109F3100AA47A9481236E9B3921A800C90021FE091
:109F41007003D38001C3921A9001B9E0FF654460A8
:109F510005E490018AF0EF602775F002A42413F95B
:109F6100740235F08982F583E0FEA3E0FF900210D0
:109F7100E0FD3395E0FCEF2DFFEE3C90073B8012B6
:109F81003066157E00301A047F3280027F649007AC
:109F91003BEEF0A3EFF08007E490073BF0A3F02045
:109FA1002B033047723040353033309001C5E070BB
:109FB10002A3E06013C39009B8E094449009B7E0AC
:109FC100648094825058804FD39009B8E09458909F
:109FD10009B7E0648094824045802980279001DBA5
:109FE100E0FF6017C394035012EF75F002A4241C24
:109FF100F9740535F08982F583800C302C179001B6
:10A00100DB7401F090051EE0FFA3E09001C5CFF0E5
:10A01100A3EFF080098000E49001C5F0A3F0205F78
:10A0210003306457900194E024FB601824FE60140F
:10A0310024FE601024FE600C240370109001CB7488
:10A0410001F0802C9001CB7403F08024304A1090F1
:10A0510001DBE0FFB402067E017F01800E800C7BF4
:10A06100017A067916E4FDFC12331A9001CBEFF068
:10A07100302C0E9001CB7401F080069001CB74035B
:10A08100F0900196E014601214601A240270217598
:10A0910046017547037548C2801F7546017547041F
:10A0A10075483280147546017547047548A28009C8
:10A0B100754600754700754800E5474548454670B7
:10A0C1000302A2679003B9E0700302A267754C0016
:10A0D100754D00754E45AB46AA47A948124490906C
:10A0E1000AD1EEF0A3EFF09001CCE0FEA3E0FF4E29
:10A0F100601BE5102FFFE50F3EFE900AD1E06E7068
:10A1010003A3E06F6007E49001CCF0A3F09001CCD1
:10A11100E07002A3E0600302A274E5456401707B74
:10A12100AB46AA47A948FDFC12331AEF24FD600390
:10A1310002A2619003B9E0FF900211E0FD3395E0C6
:10A14100FC90039CE02DFD90039BE03CFC9001B250
:10A15100E070079001DAE0B4010A9009C7E0FAA3C0
:10A16100E0FB80047A007B9612E4A3900AD3EEF020
:10A17100A3EFF02510FFE50F3EFE900AD1E0FCA30E
:10A18100E0FDC39FEC9E400302A24EC3ED9510FE7D
:10A19100EC950FA3F0A3CEF002A24EE54564026058
:10A1A1000302A261AB46AA47A948FDFC12331AEF8C
:10A1B10014602424FE600302A25F9001B2E07007E4
:10A1C1009001DAE0B4010A9009C7E0FEA3E0FF8044
:10A1D100327E007F96802C9001B2E070079001DA08
:10A1E100E0B4010A9009C7E0FEA3E0FF80159002E8
:10A1F10011E0FF3395E0FE90039CE02FFF90039B5D
:10A20100E03EFE900AD5EEF0A3EFF09003B9E0FF37
:10A21100900211E0FD3395E0FC90039EE090039DD8
:10A2210012E496900AD3EEF0A3EFF02510FFE50FAC
:10A231003EFE900AD1E0FCA3E0FDC39FEC9E500DD1
:10A24100C3ED9510FEEC950FA3F0A3CEF0900AD3C9
:10A25100E0FFA3E09001EFCFF0A3EFF080158000C5
:10A26100E49001EF800AE49001EFF0A3F09001CCBB
:10A27100F0A3F09001BAE0F544900196E0122B852D
:10A28100A2B500A2B501A2B502A2F203A30104A3E3
:10A291001005A31A06A3B707A35B08A31009A333EC
:10A2A1000AA3100BA3B70CA3B70DA3560EA31A1044
:10A2B1000000A3C4AB46AA47A9489001EFE0FCA364
:10A2C100E0FD12331A9001BAEFF0BF0106E54464D4
:10A2D1000360079001BAE0B4020F9001EFE0FFA321
:10A2E100E09001CCCFF0A3EFF03049569001BA8055
:10A2F10049D2249001BA7401F0304902803C804275
:10A30100D2249001BA7402F0304902802D8033C208
:10A31100249001BA7403F08022D224E49001BAF0AF
:10A321007B013049067A0379C2801E7A057997E468
:10A331008017E49001BAF0304908E09001DCF002A6
:10A34100A3C47B017A057997E4FDFC12331A9001CD
:10A35100DCEFF0806E9001BA8057C2249001BA748C
:10A3610001F090039AE0FFC4540F14600F146014BD
:10A37100240270207B017A0379C2800E7B017A046A
:10A38100793280067B017A0479A2E4FDFC12331A4A
:10A391008F45800890039AE0540FF54590039AE0A9
:10A3A100540F65456008900399E0900398F090017F
:10A3B100DC7401F0800DD224E49001BAF09001DC4C
:10A3C1007403F09001DAE0B40216E54745484546CA
:10A3D100601AAB46AA47A9481236E9B39224800C09
:10A3E1009001DAE07003D38001C392249001BAE0B6
:10A3F100FF65446005E490018FF0302142EF602752
:10A4010075F002A42499F9740335F08982F583E08B
:10A41100FEA3E0FF900211E0FD3395E0FCEF2DFF7C
:10A42100EE3C90073F80123067157E003024047F98
:10A431003280027F6490073FEEF0A3EFF08007E4E3
:10A4410090073FF0A3F0302578202B03304772307E
:10A4510040353033309001C7E07002A3E06013C390
:10A461009009B8E094449009B7E064809482505810
:10A47100804FD39009B8E094589009B7E064809474
:10A48100824045802980279001DCE0FF6017C3945A
:10A49100035012EF75F002A42420F9740535F089F8
:10A4A10082F583800C302D179001DC7401F090054A
:10A4B10022E0FFA3E09001C7CFF0A3EFF080098075
:10A4C10000E49001C7F0A3F0205F03306458302509
:10A4D10055900196E024FB601824FE601424FE6070
:10A4E1001024FE600C240370109001CE7401F080E2
:10A4F1002A9001CE7403F08022304B0E9001DCE0F3
:10A50100FFB402047F01800E800C7B017A067986FC
:10A51100E4FDFC12331A9001CEEFF0302D0E9001C4
:10A52100CE7401F080069001CE7403F09001C7E073
:10A53100FEA3E0FF9001C5E0FCA3E0FDD39FEE6424
:10A5410080F8EC6480984006AE04AF05800090016D
:10A5510084EEF0A3EFF0303021900184E07002A38B
:10A56100E07007900729F0A3F0229008E9E0FFA32B
:10A57100E0900729CFF0A3EFF022900718E07005D3
:10A58100FE7F6480047E007F00900185E02FFF90B4
:0CA591000184E03E900729F0A3EFF022C7
:0DE496002DFDE03CFC900AD5E0FAA3E0FB70
:10E4A3008F49C3ED9BFFEC9AAB07FA3395E0F9F87C
:10E4B300AF49E4FCFDFE1229478F4D8E4C8D4B8CEA
:10E4C3004A90098DE0A320E02FAB4DAA4CA94BA89D
:10E4D3004A9009C3E0FEA3E0FFC374C89FFFE49E14
:10E4E300FE3395E0FDFC1229478F4D8E4C8D4B8CEE
:10E4F3004AE47B987A3A800CAF4DAE4CAD4BAC4AB4
:10E50300E47B32FAF9F81252B98F4D8E4C8D4B8C55
:10E513004AAC4AEC335009E4F54DF54CF54BF54A5A
:10E52300E47F2C7E01FDFCAB4DAA4CA94BA84AD33A
:10E53300122A64400BE4754D2C754C01F54BF54ADA
:05E54300AE4CAF4D22BB
:10AE2B008C318D328A338B34A907E920E00302B4CD
:10AE3B003885328285318374FFF5F012291645F07F
:10AE4B00600302B46E8532828531837402F0A37481
:10AE5B0058F0853282853183A3A3E0602D85328241
:10AE6B00853183A3A3E014F0AE33AF347C007D2493
:10AE7B00122879EE3395E0FDFCE5322407F582E4E8
:10AE8B003531F583122B1302B415E930E11920E2A9
:10AE9B0016853282853183A3A3A3E0FEA3E065363A
:10AEAB007003EE6535600E853282853183A3A37402
:10AEBB0024F002B415E5322405F582E43531F5832F
:10AECB00E0FEA3E0FFC3E5349FFFE5339EFE7C006D
:10AEDB007D78122879E532240BF582E43531F58340
:10AEEB00EEF0A3EFF0E5322407F582E43531F5837C
:10AEFB00122ADBE47B23FAF9F81229478F3C8E3BAD
:10AF0B008D3A8C39E47B24FAF9F8AF3CAE3BAD3A81
:10AF1B00AC391252B9E5322407F582E43531F583A9
:10AF2B00122B13E5322407F582E43531F583C08308
:10AF3B00C082122AE7AE33AF34EE3395E0FDFC123C
:10AF4B00292CD082D083122B13E532240BF582E40B
:10AF5B003531F583E0FEA3E0FF125D09C3EF949654
:10AF6B00EE64809480400302B08DC3E5349496E583
:10AF7B003364809480500302B08DD3E5349422E582
:10AF8B003364809481400302B08D9009C3E0FEA32B
:10AF9B00E0FFC3949CEE6480947F500302B08DD38A
:10AFAB00EF9496EE64809480400302B08DE53224DA
:10AFBB0007F582E43531F583122ADBE47B24FAF9B9
:10AFCB00F81252B98E398F3AE5362406FFE435353F
:10AFDB00FED3E53A9FEE6480F8E5396480984045EE
:10AFEB00D39009C4E0943C9009C3E064809480E55D
:10AFFB003840222409F582E43537F58374FF75F068
:10B00B00FE122916E538240BF582E43537F583E477
:10B01B0075F002806A240BF582E43537F58374FFF3
:10B02B0075F0FE805AE53624FCFFE53534FFFEC390
:10B03B00E53A9FEE6480F8E53964809850449009B6
:10B04B00C4E0943C9009C3E064809480E5384022CE
:10B05B002409F582E43537F583E475F003122916DC
:10B06B00E538240BF582E43537F58374FF75F0FD75
:10B07B00800D240BF582E43537F583E475F003126C
:10B08B002916E538240BF582E43537F583E0FEA36A
:10B09B00E0FFEE3395E0FDFCE47B19FAF9F8125270
:10B0AB00B9E47B07FAF9F81252B9C004C005C0061F
:10B0BB00C007853882853783A3A3E0FEA3E0FFEEAC
:10B0CB003395E0FDFCE47B0AFAF9F8122947D0032B
:10B0DB00D002D001D00012292C8F3C8E3B8D3A8CA4
:10B0EB0039E47F1EFEFDFCAB3CAA3BA93AA839C351
:10B0FB00122A645012853882853783A3A3E0FEA3FE
:10B10B00E0FFC374038023E47FFAFEFDFCAB3CAA93
:10B11B003BA93AA839D3122A64402B85388285374C
:10B12B0083A3A3E0FEA3E0FF74199FFFE49EFE7CC4
:10B13B00067DD6122879E538240BF582E43537F5F0
:10B14B0083EEF0A3EFF0E5382409F582E43537F50B
:10B15B0083E0FEA3E0FFEE3395E0FDFCE47B07FA12
:10B16B00F9F81252B9C004C005C006C00785388271
:10B17B00853783E0FEA3E0FFEE3395E0FDFCE47B37
:10B18B000AFAF9F8122947D003D002D001D00012E5
:10B19B00292CC004C005C006C007853882853783BB
:10B1AB00A3A3E0FEA3E0FFEE3395E0FDFCE47BFA06
:10B1BB00FAF9F8122947D003D002D001D000122996
:10B1CB002CC004C005C006C007E538240BF582E48B
:10B1DB003537F583E0FEA3E0FFEE3395E0FDFCE4AD
:10B1EB007B07FAF9F81252B9D003D002D001D00084
:10B1FB0012292C8F3C8E3B8D3A8C39E5382405F582
:10B20B0082E43537F583E0FEA3E0FFEE3395E0FDF6
:10B21B00FCE47B0AFAF9F8122947AB3CAA3BA93AA2
:10B22B00A839D3122A64500302B3188538828537A4
:10B23B0083E0FEA3E0FFEE3395E0FDFCE47B0AFA2E
:10B24B00F9F8122947C004C005C006C007E5382429
:10B25B0005F582E43537F583E0FEA3E0FFEE339589
:10B26B00E0FDFCE47B0AFAF9F8122947D003D0027F
:10B27B00D001D000122939C004C005C006C007E5B3
:10B28B00382409F582E43537F583E0FEA3E0FFEEC1
:10B29B003395E0FDFCE47B07FAF9F81252B9A804E8
:10B2AB00A905AA06AB07D007D006D005D0041229F2
:10B2BB0039C004C005C006C007853882853783A313
:10B2CB00A3E0FEA3E0FFEE3395E0FDFCE47BFAFA8E
:10B2DB00F9F8122947A804A905AA06AB07D007D08D
:10B2EB0006D005D004122939E47B07FAF9F81229A4
:10B2FB00478F3C8E3B8D3A8C39AE3BAF3CE53824C7
:10B30B000BF582E43537F583EEF0A3EFF0E5382447
:10B31B0009F582E43537F583E0FEA3E0FFEE3395C4
:10B32B00E0FDFCE47B07FAF9F81252B9C004C00542
:10B33B00C006C007853882853783E0FEA3E0FFEEA9
:10B34B003395E0FDFCE47B0AFAF9F8122947D003A8
:10B35B00D002D001D00012292C8F3C8E3B8D3A8C21
:10B36B0039E47FA07E0FFDFCAB3CAA3BA93AA83980
:10B37B00D3122A644023853882853783E0FEA3E00D
:10B38B00FFEE3395E0FDFCE47B0AFAF9F81229474E
:10B39B00C374A09FFF740F8036E47FD07E07FDFC43
:10B3AB00AB3CAA3BA93AA839C3122A64504E853844
:10B3BB0082853783E0FEA3E0FFEE3395E0FDFCE4EE
:10B3CB007B0AFAF9F8122947C374D09FFF74079EC2
:10B3DB00FEE49DFDE49CFCE47B07FAF9F812294797
:10B3EB008F3C8E3B8D3A8C39AE3BAF3CE538240914
:10B3FB00F582E43537F583EEF0A3EFF0E538240959
:10B40B00FFE43537FE7D04125AB8E5322405F58288
:10B41B00E43531F583E533F0A3E534F085328285ED
:10B42B003183A3A3A3E535F0A3E536F02285328261
:10B43B008531837402F0A37458F085328285318391
:10B44B00A3A37424F0E538240BF582E43537F58398
:10B45B00E4F0A3F0E5382409F582E43537F583E40D
:04B46B00F0A3F02238
:10C5C600900194E0640A7032A24F92697530017549
:10C5D60031CF75320375338C12DB45900197EEF03F
:10C5E600A3EFF04E703D900197F0A37432F09002E5
:10C5F60013E0900212F0D27A802990073BE0FEA366
:10C60600E0FF9009C5E0FCA3E0FD301A229001B1DD
:10C61600E0FB75350275362012E026900197EEF0A4
:10C62600A3EFF09001DF122B1F0000000080187AA4
:10C63600027B207536017537017538DF12DEA09052
:10C646000197EEF0A3EFF03066449009C5E0FCA335
:10C65600E0FD301A1B9001B1E0FB753502753620FE
:10C666007F327E0012E0269001F2EEF0A3EF8024E6
:10C676007A027B207536017537017538D17F647E65
:10C686000012DEA09001F2EEF0A3EFF08011E4902C
:10C6960001F2F0A3F09001D1122B1F000000003030
:10C6A6001D42C3900198E094C8900197E06480947D
:10C6B600805010E4F0A374C8F09001DF122B1F0025
:10C6C600000000C39001F3E094C89001F2E064809A
:10C6D60094805010E4F0A374C8F09001D1122B1F7F
:10C6E60000000000203D0330360B900194E0640A00
:10C6F6006003D38001C3926820680620430330405C
:10C7060011900225E0FFA3E09001A5CFF0A3EFF082
:10C716008024301E11900197E0FFA3E09001A5CF81
:10C72600F0A3EFF0801A90019BE07002A3E0700680
:10C736009001A5F0A3F09001DF122B1F000000006E
:10C74600305D1730660A9001F2E0FEA3E0FF800438
:10C756007E007F009001BFEE800B9001A5E0FFA355
